:020000040800F2
:1000000000000220D1E4010875420108774201088E
:100010007F420108874201088F420108000000006A
:1000200000000000000000000000000097420108EE
:1000300099420108000000009B4201085542010856
:1000400025E5010825E5010825E5010825E5010864
:1000500025E5010825E5010825E5010825E5010854
:1000600025E5010825E5010825E5010825E5010844
:1000700025E5010825E5010825E5010825E5010834
:1000800025E501089543010825E5010825E5010856
:1000900025E5010825E5010825E5010825E5010814
:1000A00025E5010825E5010825E5010825E5010804
:1000B0009D420108E942010825E50108EF430108D6
:1000C000E9430108FB430108F543010825E5010860
:1000D00025E50108DD430108E343010825E50108A2
:1000E00025E5010825E5010825E5010825E50108C4
:1000F00025E5010825E5010825E5010825E50108B4
:1001000025E5010825E5010825E5010825E50108A3
:1001100025E5010825E5010825E5010825E5010893
:1001200025E5010825E501080143010825E5010849
:1001300025E5010825E5010825E5010825E5010873
:1001400025E5010825E5010825E5010825E5010863
:1001500025E5010825E501084D43010825E50108CD
:1001600025E5010825E5010825E5010825E5010843
:1001700025E5010825E5010825E5010825E5010833
:0801800025E5010825E5010851
:1080000010B540F2E864C2F20004237863B940F28C
:108010000000C0F2000028B140F2FC20C0F60200CF
:10802000AFF300800121217010BD00BF08B540F200
:108030000003C0F200034BB140F2FC2040F2EC61BF
:10804000C0F60200C2F20001AFF3008040F2E4602B
:10805000C2F20000016829B140F20003C0F200033F
:1080600003B1984708BD00BF70B542F2FB16C3F6D6
:10807000E97621F00043B34286B01CDD4FF6FF7273
:10808000C7F6EF72934205DD02460B4602F0F8FE9A
:1080900006B070BD02AA00F07BFF00F00303DDE92B
:1080A0000201012B13D0022B0AD0C3B9DDE904234E
:1080B00001F086FCECE70022002301F081FCE7E7F9
:1080C000DDE9042301F07CFC01F10041E0E70093CD
:1080D000DDE9042302F0B8F901F10041D8E70123FA
:1080E0000093DDE9042302F0AFF9D1E770B542F265
:1080F000FB16C3F6E97621F00043B34286B01EDDDD
:108100004FF6FF72C7F6EF72934205DD02460B464B
:1081100002F0B6FE06B070BD02AA00F039FF00F012
:10812000030001281DD0022810D008BB0123DDE97F
:1081300002010093DDE9042302F086F9EAE7002258
:1081400000230024009402F07FF9E3E70123DDE936
:1081500002010093DDE9042302F076F901F1004108
:10816000D8E7DDE90201DDE9042301F029FCD1E7CC
:10817000DDE90201DDE9042301F022FC01F1004107
:10818000C8E700BFD0F1010338BF0023B0F1004FB2
:1081900008BF43F001030BB102207047A0F50003B4
:1081A00000F1FF42B3F1FE4F2CBF00230123B2F1D7
:1081B000FE4F38BF43F001030BB1042070474FF668
:1081C000FE73411EC0F27F0300F10042013A994262
:1081D0008CBF002101219A428CBF0B4641F0010364
:1081E0000BB10320704710F5000F14BF00230123CB
:1081F000B0F1FF4F14BF184643F00100704700BFB5
:108200002DE9D0438AB08046894600F0F1F940F26A
:108210000004C2F2000494F90030013306460F4610
:1082200004D04046494602F017FC20B93046394692
:108230000AB0BDE8D0834046494602F061FB002306
:108240000022C3F6F07303F05FFA0028EED040F28C
:10825000EC2040F2D423C0F60200C0F60203CDE9C0
:10826000048901930123CDE9028900930023089337
:1082700002F03CFC94F90030022BCDE9060108D055
:10828000684602F031FC20B1089B3BB9DDE9066786
:10829000CCE703F0B5FD21230360F5E703F0B0FD63
:1082A000089B0360F2E700BF00F0D6BB00000000AF
:1082B0002DE9D0438AB006460F4600F0E1FC40F2BB
:1082C0000004C2F2000494F900300133804689466C
:1082D00038D03046394602F017FB002832D03046FD
:1082E00039462DA3D3E9002303F00EFA00282ED13E
:1082F000304639462AA3D3E9002303F0E7F908B34F
:1083000094F9001040F2DC230422C0F602038DE849
:108310000C0000230022089300230229CDE9046702
:10832000CDE90267CDE9062331D0684602F0DCFBD7
:1083300000282CD0089B1BB103F062FD089B036052
:10834000DDE90689404649460AB0BDE8D083217878
:1083500040F2DC23C0F602030322CDE904678DE876
:108360000C000023CDE90267089341B94FF6FF7373
:108370004FF06042C4F2EF73CDE90623D5E7002247
:1083800000230229C7F6F073CDE90623CDD103F00F
:1083900037FD22230360CDE7EF39FAFE422E8640F7
:1083A00051302DD5104987C02DE9D04F8AB00646EF
:1083B0000F4601F011F840F20004C2F2000494F9F3
:1083C000003001338046894631D03046394602F0CC
:1083D00043FB00282BD04FF0000A4FF0000B304633
:1083E000394652465B4603F071F900B3247840F2F7
:1083F000E023C0F602030122CDE904678DE80C00FA
:108400000023CDE902670893B4B15046594652465D
:108410005B4603F013F8022CCDE906010ED103F000
:10842000EFFC21230360089B73B9DDE90689404610
:1084300049460AB0BDE8D08FCDE906AB684602F0E8
:1084400053FB0028EFD1EAE703F0DAFC089B036056
:10845000EBE700BF01F09CB870B58AB0054601F0AB
:1084600043F940F20004C2F2000494F900300133F1
:1084700006463DD0284602F0EDFC002838D04FF4E7
:10848000E3412846C4F2B12103F08AFC002832D12E
:108490004FF2B5112846CCF2CF2103F063FC38B37C
:1084A00040F2E8232846C0F6020301930423009318
:1084B0000023089302F044FE94F9004000220023B8
:1084C000022CCDE90623CDE90401CDE9020135D026
:1084D000684602F009FB002830D0089B1BB103F06E
:1084E0008FFC089B0360DDE9060103F03FF90646B7
:1084F00030460AB070BD40F2E8232846C0F60203B9
:108500000193032300930023089302F019FE2478BB
:10851000CDE90401CDE9020144B94FF6FF734FF0F4
:108520006042C4F2EF73CDE90623D1E700220023B5
:10853000022CC7F6F073CDE90623C9D103F060FC25
:1085400022230360C9E700BF70B58AB0064601F078
:10855000DFF940F20004C2F2000494F90030013364
:10856000054630D03046FFF70DFE00282BD03046B0
:10857000002103F0F7FB30B340F2F0233046C0F6A1
:1085800002030193012300930023089302F0D8FD16
:108590002478CDE90401CDE90201BCB1002000211D
:1085A00002460B4602F04AFF022CCDE9060111D12A
:1085B00003F026FC21230360089B8BB9DDE906014B
:1085C00003F0D4F8054628460AB070BD0022002307
:1085D000CDE90623684602F087FA0028ECD1E7E7E8
:1085E00003F00EFC089B0360E8E700BF00000000FA
:1085F0004FF6FF732DE9F04FC3F6EF7321F00044FF
:1086000087B09C420D468846064616DD04F140447C
:10861000034604F58014234300F00B8102460B4609
:1086200002F02EFC02460B4602F008FF06460D46FD
:108630003046294607B0BDE8F08F4FF6FF73C3F60A
:10864000DF739C4210DCB4F1795F80F2658196A300
:10865000D3E9002302F016FC00230022C3F6F073D6
:1086600003F052F80028E3D13046294602F048F9D9
:108670000B4600210246C3F6F071002002F000FC18
:1086800000230022C3F6E07302F0AEFD88A3D3E915
:10869000002306460F4602F0A7FD87A3D3E9002377
:1086A00002F0F0FB32463B4602F09EFD84A3D3E984
:1086B000002302F0E5FB32463B4602F095FD82A323
:1086C000D3E9002302F0DEFB32463B4602F08CFD8C
:1086D0007FA3D3E9002302F0D3FB32463B4602F0EE
:1086E00083FD7DA3D3E9002302F0CCFB32463B4659
:1086F00002F07AFD7AA3D3E90023CDE900013046E8
:10870000394602F071FD78A3D3E9002302F0B8FBEB
:1087100032463B4602F068FD75A3D3E9002302F020
:10872000B1FB32463B4602F05FFD73A3D3E9002361
:1087300002F0A6FB32463B4602F056FD0023002223
:10874000C3F6F07302F09EFBCDE9040130463946D2
:1087500000F042FE43F23233C3F6EF739C4282468E
:108760008B467DDC02460B460D460024CDE90245D2
:1087700002F088FBDDE9042304460D46DDE9000133
:1087800002F05CFE02460B462046294602F02CFD14
:10879000CDE90001DDE9020102460B4602F024FDAD
:1087A00002460B463046394602F06AFBDDE90223F9
:1087B00004460D465046594602F064FB02460B46FD
:1087C0002046294602F03AFE02460B4602F05AFBCA
:1087D00002460B464AA1D1E9000102F051FB0246D4
:1087E0000B46DDE9000102F04BFB0D460446DDE9D6
:1087F000020102460B4602F045FB02460B4642A12F
:10880000D1E9000102F03CFB02460B462046294616
:1088100002F036FB02460B463BA1D1E9000102F013
:108820002FFB06460D46B8F1000FD8BF05F10045F5
:10883000FEE637A3D3E9002302F0D6FC30A3D3E948
:108840000023804689463046294602F0CDFC024688
:108850000B464046494602F015FB06460D46E7E644
:10886000DDE90423DDE9000102F0E8FD02460B46E4
:108870005046594602F0B8FC52465B4602F002FBF5
:1088800002460B4602F0FEFA1DA3D3E9002302F0D4
:10889000F7FA02460B461EA1D1E9000102F0F0FAF8
:1088A00006460D46BFE700BF9C7500883CE4377E56
:1088B00009F7FD0DE13D023F88B20175E0EF493F48
:1088C0003B8F68B52882A43F5544880E55C1C93FE7
:1088D0007D6FEB0312D6D43F555555555555C53FC1
:1088E00082922EB1C5B8B33F59018D1B6C06E63F8D
:1088F000C88A599CE52A00404B2D8A1C273A034020
:10890000075C143326A6913C182D4454FB21E93F03
:10891000182D4454FB21F93F02460B4602F064FC3B
:1089200039A3D3E900238046894602F05DFC38A3D1
:10893000D3E9002302F0A6FA42464B4602F054FC6B
:1089400035A3D3E9002302F09BFA42464B4602F0DE
:108950004BFC33A3D3E9002302F094FA42464B4682
:1089600002F042FC30A3D3E9002302F089FA424628
:108970004B4602F039FC2EA3D3E9002302F082FA21
:1089800042464B4602F030FC2BA3D3E9002382463B
:108990008B464046494602F027FC29A3D3E9002331
:1089A00002F06EFA42464B4602F01EFC26A3D3E9C3
:1089B000002302F067FA42464B4602F015FC24A35E
:1089C000D3E9002302F05CFA42464B4602F00CFC6D
:1089D00000230022C3F6F07302F054FA02460B465D
:1089E0005046594602F02AFD02460B4630462946BB
:1089F00002F0FAFB02460B463046294602F042FAE4
:108A000006460D4614E600BF09F7FD0DE13D023FA5
:108A100088B20175E0EF493F3B8F68B52882A43FDB
:108A20005544880E55C1C93F7D6FEB0312D6D43F24
:108A3000555555555555C53F82922EB1C5B8B33FD2
:108A400059018D1B6C06E63FC88A599CE52A0040F7
:108A50004B2D8A1C273A03402DE9F04F83B0144672
:108A60001D46CDE9002352422243002325F0004752
:108A7000C7F6F07347EAD27282469A428B460646A0
:108A80004ED8424221F0004C024388464CEAD27252
:108A90009A4245D805F1404303F58013234363D040
:108AA000AB175CEA060603F0020343EAD17944D02F
:108AB0003C4351D00023C7F6F0739F4267D0002398
:108AC000C7F6F0739C4547D0C7EB0C073F153C2F0A
:108AD00059DC17F13C0FACBF0027012717EAD57707
:108AE00000F0848000200021B9F1010F04BF82460C
:108AF00001F1004B1CD0B9F1020F68D082468B46C1
:108B0000B9F1000F14D04CA3D3E9002302F0B8F957
:108B10004BA3D3E9002302F0B3F982468B4607E06A
:108B200050465946DDE9002302F0ACF982468B46F7
:108B30005046594603B0BDE8F08FB9F1030FB7D8DE
:108B400001A353F829F000BF318B0008318B0008D6
:108B50007D8B0008738B0008B8F1000F32DB0FF239
:108B6000E80BDBE900ABE3E703B0BDE8F04F01F051
:108B70001FBD0FF2DC0BDBE900ABD9E70FF2C00B36
:108B8000DBE900ABD4E730A1D1E90001ACE7BC459B
:108B900037D0B9F1030F92D801A353F829F000BFE1
:108BA000BB8B0008B18B00087D8B0008738B00081D
:108BB0004FF0000A4FF0004BBAE74FF0000A4FF0B9
:108BC000000BB5E70FF2900BDBE900ABB0E71AA39F
:108BD000D3E9002302F054F902460B4618A1D1E96B
:108BE000000102F04DF982468B46A1E7DDE9002342
:108BF0005046594602F022FC01F082FE01F0D8FCFA
:108C000072E7B9F1030FA7D8DFE809F0110C0702EA
:108C10000FF24C0BDBE900AB8AE70FF24C0BDBE900
:108C200000AB85E70FF2480BDBE900AB80E70FF202
:108C3000480BDBE900AB7BE7075C143326A6A13CBD
:108C4000182D4454FB210940182D4454FB21F93FB1
:108C5000182D4454FB2109C0182D4454FB21F9BFA1
:108C6000D221337F7CD902C0D221337F7CD902400C
:108C7000182D4454FB21E9BF182D4454FB21E93F32
:108C800042F6416321F00042C4F286032DE9F04F21
:108C9000CD0F9A4283B006460F4615D94FF6FF73A3
:108CA000C7F6EF739A4237D921F07F44024624F485
:108CB00070040B4604432AD1002D40F03981304620
:108CC000394603B0BDE8F08F42F64263C3F6D6736F
:108CD0009A4200F2E3804FF6FF73C3F62F639A4285
:108CE00088BF4FF000085FD893A3D3E9002302F0B8
:108CF000C9F800230022C3F6F07302F005FD002836
:108D000052D00023304639460022C3F6F07302F0F9
:108D1000B9F806460F46D2E789A3D3E9002302F04B
:108D2000F3FC002840F0FA803046394686A3D3E9A8
:108D3000002302F0CBFC002840F0FA8084A3D3E9A2
:108D400000233046394602F04FFA4FF66823C0F64A
:108D5000010303EBC505D5E9082302F093F802F0FF
:108D6000DDFC804602F0DAF97BA3D3E90023044658
:108D70000D4602F039FA02460B463046394602F0FB
:108D80007FF877A3D3E90023CDE9000120462946E7
:108D900002F02AFA82468B46DDE9000152465B4624
:108DA00002F06EF806460F4632463B4630463946DC
:108DB00002F01AFA6CA3D3E9002304460D4602F030
:108DC00013FA6BA3D3E9002302F05AF822462B468C
:108DD00002F00AFA68A3D3E9002302F053F822460E
:108DE0002B4602F001FA66A3D3E9002302F048F80B
:108DF00022462B4602F0F8F963A3D3E9002302F0E0
:108E000041F822462B4602F0EFF902460B46304667
:108E1000394602F035F804460D46B8F1000F59D036
:108E200002460B463046394602F0DEF922462B4612
:108E300006460F4600204FF0804102F021F802461E
:108E40000B463046394602F0F9FA02460B465046C8
:108E5000594602F015F8DDE9002302F011F80B463F
:108E600000210246C3F6F071002002F009F86FF409
:108E70007F739845A2BF4FEA0858064608EB0107E2
:108E8000BFF61DAF08F57A7500224FF0B8732D05B7
:108E9000691802F0A9F906460F4610E74AF2B12315
:108EA000C3F6F0739A423FF649AF4FF66824C5F116
:108EB0000008C0F6010404EBC504C5EB080505F184
:108EC0000108D4E9002301F0DBFFD4E904ABCDE9CC
:108ED000000161E73046394622462B4602F084F90C
:108EE00000224FF08043804689462046294601F003
:108EF000C7FF02460B464046494602F09FFA3246FB
:108F00003B4601F0BDFF0B4600210246C3F6F0715F
:108F1000002001F0B5FF06460F46D0E606A1D1E9D4
:108F2000000102460B4602F05FF906460F46C6E610
:108F300000260027C3E600BF9C7500883CE4377E0E
:108F4000EF39FAFE422E864051302DD5104987C0A8
:108F5000FE822B654715F73F0000E0FE422EE63FFC
:108F6000763C7935EF39EA3DD0A4BE726937663E6A
:108F7000F16BD2C541BDBB3E2CDE25AF6A56113F19
:108F800093BDBE166CC1663F3E5555555555C53F00
:108F900042F2FB132DE9F04FC3F6E97321F00046CE
:108FA0008FB09E4204460D468846174640F3A38084
:108FB0004DF67B13C4F202039E4226DC002996A3E1
:108FC000D3E9002340F3B28101F05AFF42F2FB13D0
:108FD000C3F6F9739E428046894600F0A18090A3B3
:108FE000D3E90023012401F04BFF02460B46C7E9F9
:108FF00000014046494601F043FF89A3D3E900231D
:1090000001F03EFFC7E902017CE042F2FB13C4F22B
:1090100039139E4240F3A1804FF6FF73C7F6EF73FA
:109020009E4273DC4FEA26598246A9F58269A9F16E
:1090300006094FEA0951731A19469B4602F06EFB66
:1090400002F06CF804460D4602460B46504659465F
:10905000CDE9084501F014FF00230022C4F270138B
:1090600002F0C2F804460D4602F058FB02F056F832
:1090700002460B4682468B4620462946CDE90AAB7E
:1090800001F0FEFE00230022C4F27013032402F05C
:10909000ABF800220023CDE90C0102F00DFB90B1EA
:1090A000032450465946002200230AAD013C02F039
:1090B00003FB40B175E9020100220023013C02F0EC
:1090C000FBFA0028F6D123465D4C08A839464A46EB
:1090D00001940224009400F09BFDB8F1000F0446B7
:1090E00010DA7A684442FB6802F100427A6003F1C8
:1090F0000043FB6006E0C2E9004500240022002393
:10910000C7E9022320460FB0BDE8F08F02460B46A8
:1091100001F0B6FE0024C7E90201C7E90001F1E74A
:1091200041A3D3E90023012401F0AAFE40A3D3E91F
:1091300000238046894601F0A3FE02460B46C7E99C
:1091400000014046494601F09BFE39A3D3E90023C4
:1091500001F096FEC7E90201D4E701F0D1FB36A386
:10916000D3E9002382468B4602F03EF8002300221A
:10917000C3F6E07301F086FE02F0D0FA044601F077
:10918000CDFF25A3D3E90023CDE9040102F02CF89B
:1091900002460B465046594601F072FE20A3D3E921
:1091A000002382468B46DDE9040102F01DF81F2CE6
:1091B000CDE902015046594644DC4FF69823621E21
:1091C000C0F6010353F82230B3423BD0DDE902235D
:1091D00001F056FE81460D4602460B46C7E90023C4
:1091E0004A462B465046594601F04AFEDDE9022325
:1091F00001F046FEB8F1000F02460B46C7E9022314
:1092000080DA05F1004501F10041C7F800906442A1
:109210007D60B860F96075E700004054FB21F93FBC
:109220003163621A61B4D03D0000601A61B4D03D70
:109230007370032E8A19A33B83C8C96D305FE43F66
:1092400018FB0108DDE90223361501F019FEC1F310
:109250000A538146F31A0D46102BC7E90001BFDD02
:1092600053A3D3E90023DDE9040101F0BDFFCDE9FB
:1092700002015046DDE90223594601F001FECDE925
:10928000060150465946DDE9062301F0F9FDDDE906
:10929000022301F0F5FD48A3D3E9002382468B4663
:1092A000DDE9040101F0A0FF52465B4601F0E8FD54
:1092B000CDE90201DDE90223DDE9060101F0E0FD6F
:1092C000C1F30A538146F31A0D46312BC7E9000159
:1092D0006BDD3BA3D3E90023DDE9040101F084FF4A
:1092E000CDE90201DDE90223DDE9060101F0C8FD57
:1092F00082468B4652465B46DDE9060101F0C0FD21
:10930000DDE9022301F0BCFD2FA3D3E90023CDE961
:109310000201DDE9040101F067FFDDE9022301F04C
:10932000AFFDCDE90201504659464FE701F0AAFDD5
:1093300042F2FB13C3F6F9739E428046894616D06B
:1093400023A3D3E900234FF0FF3401F09BFD024635
:109350000B46C7E900014046494601F091FD1CA3B8
:10936000D3E9002301F08EFDC7E90201CAE610A38C
:10937000D3E900234FF0FF3401F084FD0EA3D3E9BD
:1093800000238046894601F07DFD02460B46C7E971
:1093900000014046494601F073FD07A3D3E90023CD
:1093A00001F070FDC7E90201ACE6DDE906AB17E7A5
:1093B0000000601A61B4D03D7370032E8A19A33B7C
:1093C0000000002E8A19A33BC14920259A837B39CE
:1093D0003163621A61B4D03D2DE9F843002425467B
:1093E000C7F6F074C7F6F0750C40AC4206460F465F
:1093F00089460B46024600F0AB8000297FDD091547
:1094000000F08880A1F57E7C23F07F43C90723F418
:109410007003ACF1070C43F4801362D5D10F002721
:1094200001EB43034FEA6C0C5200162438464FF40C
:1094300000114518D60F9D424FEA4202DEBFC5EB30
:10944000030368187F184908013C06EB4303F0D179
:109450002026A0464FF00041984201EB08050EDBA4
:10946000834214BF4FF000094FF0010995428CBFB1
:109470004FF0000909F00109B9F1000F0ED005F015
:10948000004905EB0108B9F1004F23D081461B1AB2
:10949000954288BF013B521B64184846D50F4908C6
:1094A0005200013E05EB4303D6D113431ED164089D
:1094B0007B10FA0703F17E5348BF44F0004403F5E4
:1094C000C0034FEA0C5C0CEB0307264630463946D6
:1094D000BDE8F883B8F1000FA8BF00F10109D6DAA2
:1094E000D4E7D10F520001EB430397E7611C1CBF87
:1094F00004F001031C19DAD101373446D8E721F012
:1095000000440443E2D0002936D1D30A153952056C
:10951000002BFAD013F480102AD15B000130DC025A
:10952000FBD5C0F10105C0F1200432FA04F4491959
:109530002343A1F57E7C824023F07F43C90723F4B7
:109540007003ACF1070C43F480133FF567AFC8E735
:1095500002460B4601F048FE02460B4630463946AD
:1095600001F090FC06460F4630463946BDE8F883C8
:10957000202401250020D8E702460B4601F080FC9C
:1095800002460B4601F05AFF06460F469EE700BF13
:10959000F8B520F00044B4F1FF4F21F00046D4BFED
:1095A00000270127B6F1FF4FC8BF47F00107034668
:1095B000002F45D1B1F17E5F4CD08F1707F0020725
:1095C00047EAD0774CB9022F3FD0032F03D140F6A2
:1095D000DB73CCF249031846F8BD36B3B6F1FF4F42
:1095E00055D0B4F1FF4F20D0A41BE4153C2CC4BFD0
:1095F00040F6DB70C3F6C97030DD012F08BF00F103
:109600000043E8D0022F33D00346002FE3D04BF6BF
:109610002E51C3F2BB3102F0FFF840F6DB71C4F209
:10962000490102F0F7F80346D5E7002840F6DB735E
:10963000B8BFCBF6C973CEDBC3F6C9731846F8BD05
:1096400002F0EAF803461846F8BD40F6DB73C4F2B0
:109650004903C0E7BDE8F84001F0DABA14F13C0F65
:10966000ACBF0024012414EAD1741DD00020C4E74B
:109670004BF62E51C3F2BB3102F0CEF8014640F654
:10968000DB70C4F2490002F0C5F80346A3E7B4F169
:10969000FF4F10D0022FD8D0032F98D00023012FD6
:1096A00099D14FF0004396E702F072FA01F0CEFB39
:1096B00001F0AEFAA1E7022F04BF4CF6E433C4F286
:1096C000160388D0032F04BF4CF6E433CCF2160304
:1096D00081D0012F40F6DB7318BFC3F649737FF4C6
:1096E0007AAFCBF6497376E720F00042B2F1FF4F34
:1096F0002DE9F843044600F2B0804FEAD07500F03F
:10970000B38047F21721C4F2B121884200F3B2803E
:109710004FF2B513C4F2CF239A4294BF002305F051
:109720000103002B40F0A28047F21821C3F6B1617B
:109730008A4240F2AA8041F29153C3F685739A425D
:1097400040F2D4804AF63B21C3F6B87102F06CF9BE
:109750004FF62043C0F6010303EB8503196902F0BD
:109760005BF802F027FB074602F00AF94FF4E341E9
:10977000C3F63171054602F057F90146204602F062
:1097800049F84FF2D171C3F217718046284602F0B2
:109790004BF981464046494602F03CF804462146D2
:1097A000204602F041F94BF64C31C3F23131064606
:1097B00002F03AF94EF60E21C3F2DD5102F02AF81A
:1097C000314602F031F94BF25531C3F68A0102F00D
:1097D00023F8314602F028F940F66131C3F63631FC
:1097E00002F018F8314602F01FF94AF6AB21C3F631
:1097F0002A6102F011F8314602F016F901462046BE
:1098000002F008F80546002F58D00146204602F025
:109810000BF9294604464FF0804001F0FBFF01465A
:10982000204602F0B5F9FC050146484601F0F2FF7A
:10983000414601F0EFFF01464FF07E5001F0EAFF94
:1098400017F17D0F04440CDA64374FF05861FF05BF
:10985000381802F0E9F8044603E0014601F0DCFFA5
:1098600004462046BDE8F883002DFAD000242046A7
:10987000BDE8F8834FF2CA20C7F24910014602F052
:10988000D3F804462046BDE8F883B2F1465F28BF0E
:109890001F4684D24FF2CA21C7F2491101F0BCFF22
:1098A0004FF07E5102F07CFA00283FF478AF20465A
:1098B0004FF07E5101F0B0FF0446D2E72046294622
:1098C00002F0B2F84FF080410646284601F0A2FFB0
:1098D0000146304602F05CF9214601F09BFF01464B
:1098E0004FF07E5001F096FF0446BAE74FF6204451
:1098F0006F42C0F6010454F8251004EB850401F012
:1099000089FF7D1BD4F808906F1C804642E700BF9A
:1099100020F000420346B2F1FF4F70B5044639D241
:10992000002A35D000283FDBC115B2F5000F09D25F
:1099300010F4000240D15B0001321802FBD5C2F1E5
:109940000102891823F07F43A1F17F0223F4000371
:10995000D10743F4000348BF5B00002654101921CF
:109960005B0035464FF08072A8189842DEBFC0EB0E
:1099700003038518B61852085B000139F4D113B1FE
:1099800006F001039E197610E40506F17C56A41931
:10999000204670BD014602F047F80146204601F01E
:1099A0003BFF0446204670BD014601F033FF0146EF
:1099B00002F0EEF80446EBE701228918C2E700BF87
:1099C0002DE9F04F21F0004487B0B4F1795F804673
:1099D0008946CDE900236DDA01F0A0FE002800F0F1
:1099E000F78042464B464046494601F0FDFB7CA3CA
:1099F000D3E9002306460F4601F0F6FB7AA3D3E92C
:109A0000002301F03FFA32463B4601F0EDFB78A31C
:109A1000D3E9002301F034FA32463B4601F0E4FB7F
:109A200075A3D3E9002301F02DFA32463B4601F03D
:109A3000DBFB73A3D3E9002301F022FA32463B4655
:109A400001F0D2FB70A3D3E9002301F01BFA3246E8
:109A50003B4601F0C9FB82468B460023002230467C
:109A60003946C3F6E07301F0BFFB52465B46CDE9D1
:109A700002013046394601F0B7FBDDE90023044618
:109A80000D464046494601F0AFFB02460B462046D4
:109A9000294601F0F5F902460B46DDE9020101F025
:109AA000EFF90B4600210246C3F6F071002001F0E9
:109AB000E7F97FE002460B4601F096FB48A3D3E9A5
:109AC000002306460F4601F08FFB47A3D3E900238E
:109AD00001F0D8F932463B4601F086FB44A3D3E9B6
:109AE000002301F0CDF932463B4601F07DFB42A355
:109AF000D3E9002301F0C6F932463B4601F074FB7E
:109B00003FA3D3E9002301F0BBF932463B4601F005
:109B10006BFB3DA3D3E9002301F0B4F93B46324689
:109B200001F062FB43F23233C3F6D3739C428246A8
:109B30008B4692DD0023C3F6E9739C423DDC002195
:109B4000A4F5001300220020C3F6F07114461D4650
:109B500001F096F9CDE9040100230022C3F6E07379
:109B60003046394601F040FB22462B4601F088F989
:109B700052465B46CDE902013046394601F034FBDE
:109B8000DDE9002304460D464046494601F02CFB22
:109B900002460B462046294601F072F902460B4662
:109BA000DDE9020101F06CF902460B46DDE9040132
:109BB00001F066F907B0BDE8F08F00230025002210
:109BC000C3F6E7730024CDE90423C3F6D275C3E7D7
:109BD00000210020C3F6F071ECE700BFAFF3008076
:109BE000D43888BEE9FAA8BDC4B1B4BD9EEE213E0A
:109BF000AD529C804F7E923E9015CB19A001FA3E4B
:109C00007751C1166CC1563F4C5555555555A53F1A
:109C10002DE9F04F4AF6AB25D41EC2F6AA25ADF5C4
:109C20001B7D03F1FF3C85FB0475CDF808C0E417EC
:109C30004FF63846DDF890C2C0F601061F46069082
:109C40000891C4EBA50456F82C6024EAE4740A9445
:109C5000E343029C099603EB430314EB060802EB73
:109C6000C303079318D40A9E08F10108A598351B71
:109C70004FEA88080CAE002400EB85090020002183
:109C8000002D03DB59F8040001F048FA04340135D3
:109C90004445E6E90201F1D1099C002C33DB099D22
:109CA0000DF5B87ABB465EAE06EBC5060096DDF84C
:109CB00008C0BCF1000FBCBF4FF000084FF0000916
:109CC0001ADB0DF1380E069D0EEBCB064FF00008A7
:109CD0004FF00009002476E902230134F5E802017F
:109CE00001F082FA02460B464046494601F0CAF8A6
:109CF000BC4280468946EED1009D0BF1010BEAE99A
:109D00000289AA45D3D1099E0DF5067C9AAC731E33
:109D10000CEB860C00969B00CDF830C0E4180B933A
:109D20000D94009C9AAD009EE400002E05EB040308
:109D3000049453E93C892ADD5EAE85AD34190023D5
:109D40000022C3F670634046494601F04DFA01F027
:109D5000E5FC01F0E3F900230022C4F2701382460F
:109D60008B4601F041FA02460B464046494601F057
:109D700087F801F0D3FC52465B4645F8040F74E9BE
:109D8000020101F07FF8B44280468946D7D1079A94
:109D90004046494600F0B0FE00224FF07F53044693
:109DA0000D4601F021FA00F0B7FD00230022C4F2B5
:109DB000200301F019FA02460B462046294601F01D
:109DC0005FF80D46044601F0A9FC064601F0A6F92D
:109DD00002460B462046294601F052F8DDF81CC029
:109DE000BCF1000F8046894640F3C081009C9AADCB
:109DF000CCF11801631ECCF1170405EB830353F873
:109E0000502C52FA01F0361810FA01F1521A43F8A8
:109E1000502C52FA04F5002D3FDD009C0136002C39
:109E200040F3D08186AB03EB8400002407E021B12E
:109E30000124C1F1807143F8041C83420ED053F811
:109E4000041B002CF3D04FF6FF7201248342C0F2B2
:109E5000FF02C1EB020243F8042CF0D1DDF81CC074
:109E6000BCF1000F16DDBCF1010F00F08A81BCF1DE
:109E7000020F0FD1DDF800C00DF51A7E0CF1FF3393
:109E80000EEB830353F8502C22F07F4222F4400261
:109E900043F8502C022D00F08580404649460022B0
:109EA000002301F009FC002800F0A180009C601E46
:109EB000099C844210DCDDF800C00DF5067E0C9C88
:109EC00000220EEB8C0353F8041DA34242EA010268
:109ED000F9D1002A40F07C820D9C54F8503C002BB4
:109EE00040F074820B9D86AE0123721952F8041D56
:109EF00001330029FAD0DDF800C063440CF1010AF7
:109F00009A4505934BDC0A9D029C0CEB050BA59E24
:109F100004EB0A03049D013B06EB8B0B0DF1380C9F
:109F20005EAC0CEBC30C6419CDF800C004945BF874
:109F3000040F01F0F3F8DDF808C0009EBCF1000F3B
:109F4000BCBF4FF000084FF00009E6E9020100969F
:109F50001CDB0AEB07060DF1380E069D4FF00008DA
:109F60004FF0000900240EEBC60676E90223013407
:109F7000F5E8020101F038F902460B464046494631
:109F800000F080FFBC4280468946EED1059D0AF173
:109F9000010A049CAA45E4E902890494C7DD059EF0
:109FA0000096BEE6002142464B460020C3F6F07103
:109FB00000F066FF80468946002C3FF46EAF00211A
:109FC000079A0020C3F6F07100F096FD02460B469A
:109FD0004046494600F054FF00220023804689464F
:109FE0004046494601F068FB00287FF45FAF0596C4
:109FF0000495002840F00782DDF81CC04046494621
:10A00000CCF1000200F078FD00230022C4F27013AE
:10A0100006460F4601F06EFB002800F0F981002390
:10A020000022C3F670633046394601F0DDF8009D2A
:10A030000DF51A7C0CEB850401F070FB01350095E1
:10A0400001F06CF8009D00230DF51A7E0022C4F289
:10A0500070130EEB85058046894601F0C5F802466F
:10A060000B463046394600F00BFF079E1836079620
:10A0700001F054FB494644F8500C404601F04EFBB9
:10A0800045F8500C00210020C3F6F071079A00F04B
:10A0900033FD009C002C06460F465DDB01340DF5B8
:10A0A000067C0DF5BC7E5EAD06950CEB84050EEBD3
:10A0B000C40455F8040D01F031F832463B4601F076
:10A0C00093F800230022C3F6706364E9020130466E
:10A0D000394601F089F8DDF818C0644506460F4698
:10A0E000E7D1009C0027DDF824800DF1D80B04F1A6
:10A0F000FF3ACDF808B0D146B8F1000FC0F2558153
:10A10000002FC0F252810DF5BC7C994D0CEBC906B5
:10A110004FF0000A4FF0000B002401E0BC4210DCBD
:10A12000F6E902230134F5E9020101F05DF8024687
:10A130000B465046594600F0A5FEA04582468B4688
:10A14000ECDA029D09F1FF3905EBC703013719F17C
:10A15000020FC3E900ABCFD1A49C032C00F2B58061
:10A16000DFE814F00801BB00BB0032001AD1DDF8B3
:10A1700000C00DF51A7E0EEB8C0353F8545CED1500
:10A1800049E6DDF800C00DF51A7E0CF1FF330EEB49
:10A19000830353F8502C22F07F4222F4000243F84C
:10A1A000502C77E600230022C3F6E073002501F06F
:10A1B000A1FA00283FF471AE009C02250136002C64
:10A1C0003FF730AE002449E6009E00230DF1D80B86
:10A1D0001946002E60DDDDF800C00DF1D80B0DF141
:10A1E000E00A0CF101050BEBC5052C4654E9028988
:10A1F00054E9046742464B463046394600F042FE79
:10A20000CDE902013046DDE90223394600F038FE8F
:10A2100002460B464046494600F034FEDDE902673F
:10A2200064E90201544544E90267DFD1DDF800C06A
:10A2300000231946BCF1010F2EDD0BF1100A2C464C
:10A2400054E9028954E9046742464B463046394690
:10A2500000F018FECDE900013046DDE90023394663
:10A2600000F00EFE02460B464046494600F00AFE4C
:10A27000DDE9006764E90201544544E90267DFD182
:10A2800000231C461846214675E9022300F0FAFD1A
:10A29000554503460C46F5D1049C002C00F0C580C2
:10A2A000089E01F10041DBF80050DBF80800DBF804
:10A2B0000440DBF80C2004F10044356002F1004258
:10A2C0007460B060F26033617161DDF814C00CF04D
:10A2D00007000DF51B7DBDE8F08FDDF800C0002301
:10A2E0000DF1D80B1946BCF1000F13DBDDF800C0EF
:10A2F0000DF1D80B00230CF101041D460BEBC40437
:10A300001846294674E9022300F0BCFD5C4503466B
:10A310000D46F5D1049C01F1004204B90A46DDF86E
:10A3200020C00D461E461746DBE900011A46CCE95F
:10A3300000672B4600F0A4FD009C002C03460CDDBA
:10A340000BEBC4040D4618462946FBE9022300F036
:10A3500099FDA34503460D46F5D1049D0DB101F1CC
:10A360000041089E1C460D46C6E90245ADE700BF08
:10A3700040FC0108009C00200146002C0BDB01344E
:10A3800036AD002005EBC404014674E9022300F059
:10A3900079FDAC42F9D1049D0DB101F10041089E57
:10A3A00002460B46C6E900238FE7029D09F1FF39FB
:10A3B0004FF0000A4FF0000B05EBC703013719F10E
:10A3C000020FC3E900AB7FF497AEC5E6012392E527
:10A3D0000596049583009AADEA18079C009052F800
:10A3E000502C183C0794002A7FF44CAE86AE0246EF
:10A3F000F318214653F8040D013A18390028F9D012
:10A40000009207913EE6DDF800C00CF1FF30E1E775
:10A41000DDF800C00DF51A7E304639460EEB8C048F
:10A4200001F07CF944F8500C2CE6DDF820C01C4605
:10A43000DBE900670D46DBE90223CCE90445CCE902
:10A440000067CCE9022340E72DE9F04F85B00646CE
:10A450000F46CDE9002321F00043B3F1795F03DA21
:10A4600001F05CF900286ED032463B463046394652
:10A4700000F0BAFE32463B4604460D4600F0B4FEFC
:10A480003FA3D3E90023804689462046294600F0B1
:10A49000ABFE3DA3D3E9002300F0F2FC22462B469D
:10A4A00000F0A2FE3AA3D3E9002300F0EBFC224621
:10A4B0002B4600F099FE38A3D3E9002300F0E0FC1E
:10A4C00022462B4600F090FE35A3D3E9002300F08E
:10A4D000D9FC0E9B82468B46002B39D000230022EC
:10A4E000C3F6E073DDE9000100F07EFE52465B46F4
:10A4F000CDE902014046494600F076FE02460B4691
:10A50000DDE9020100F0BCFC22462B4600F06CFEA7
:10A51000DDE9002300F0B4FC23A3D3E900230446C3
:10A520000D464046494600F05FFE02460B46204677
:10A53000294600F0A7FC02460B463046394600F09B
:10A540009FFC06460F463046394605B0BDE8F08F01
:10A5500002460B462046294600F046FE12A3D3E9E8
:10A56000002300F08DFC42464B4600F03DFE0246C3
:10A570000B463046394600F085FC06460F46E2E7BA
:10A580007CD5CF5A3AD9E53DEB9C2B8AE6E55A3E7D
:10A590007DFEB157E31DC73ED561C119A0012A3F19
:10A5A000A6F810111111813F495555555555C53F14
:10A5B0004FF6FF732DE9F04FC4F20F4321F0004531
:10A5C00083B09D420E460F4604461FDD0023C7F6AA
:10A5D000F0739D4200F3C38014BF002301230028C1
:10A5E0000CBF002203F00102002A40F0B88042F2C2
:10A5F000FB1642F618543346CBF6F976C3F6F973D8
:10A60000C5F244440029C8BF1E46B0E04FF6FF73B0
:10A61000C3F6DB739D4200F3BE804FF6FF73C3F6B3
:10A620001F639D4240F3A8804FF0FF3C2246334613
:10A6300020463146CDF804C000F0D6FD02460B4658
:10A6400082468B4600F0D0FD95A3D3E900238046D7
:10A65000894600F0C9FD94A3D3E9002300F012FC61
:10A6600042464B4600F0C0FD91A3D3E9002300F021
:10A6700009FC42464B4600F0B7FD8FA3D3E9002307
:10A6800000F000FC42464B4600F0AEFD8CA3D3E93F
:10A69000002300F0F7FB42464B4600F0A5FD8AA3DD
:10A6A000D3E9002300F0EEFB52465B4600F09CFD30
:10A6B00087A3D3E9002382468B464046494600F0F3
:10A6C00093FD85A3D3E9002300F0DAFB42464B4615
:10A6D00000F08AFD82A3D3E9002300F0D1FB4246BB
:10A6E0004B4600F081FD80A3D3E9002300F0C8FBB6
:10A6F00042464B4600F078FD7DA3D3E9002300F0ED
:10A70000BFFB42464B4600F06FFDDDF804C0BCF1D4
:10A71000FF3F02460B4664D04FF688455046C0F6D0
:10A720000105594605EBCC0500F0ACFB224633464B
:10A7300000F05AFDD5E9082300F0A2FB224633467B
:10A7400000F09EFB02460B46D5E9000100F098FBA5
:10A75000002F0E460446B8BF01F1004607E0204630
:10A7600022463146334600F08DFB04460E46204615
:10A77000314603B0BDE8F08F5FA3D3E9002300F0BA
:10A7800081FB00230022C3F6F07300F0BDFF002818
:10A790003FF44AAFEBE700F0B3F84FF6FF73C3F6B0
:10A7A000F2739D42804689462CDC4FF6FF73C3F658
:10A7B000E5739D425EDC02460B464FF0000CCDF87F
:10A7C00004C000F05FFB00230022C3F6F07300F02A
:10A7D00057FB00224FF0804304460D464046494651
:10A7E0002EE05046594600F04DFB2246334600F01D
:10A7F000FBFC02460B462046314600F041FB044676
:10A800000E46B4E747F6FF73C4F203039D4224DC0F
:10A8100000230022C3F6F8734FF0020CCDF804C0F9
:10A8200000F02EFB00230022C3F6F87304460D4609
:10A830004046494600F0D8FC00230022C3F6F073DE
:10A8400000F020FB02460B462046294600F0F6FDAC
:10A85000DDF804C004460E46E8E600210020CBF6F1
:10A86000F07142464B4600F0E9FD4FF0030C044600
:10A870000E46DBE600230022C3F6F0734FF0010C16
:10A88000CDF804C000F0FCFA00230022C3F6F073F8
:10A8900004460D4640464946D2E700BFAFF300806C
:10A8A00011DA22E33AAD903FEB0D76244B7BA93FC2
:10A8B000513DD0A0660DB13F6E204CC5CD45B73F90
:10A8C000FF8300922449C23F0D5555555555D53F3C
:10A8D0002F6C6A2C44B4A2BF9AFDDE522DDEAD3F30
:10A8E0006D9A74AFF2B0B33F711623FEC671BC3FD0
:10A8F000C4EB98999999C93F9C7500883CE4377ED0
:10A9000021F00041704700BF21F0004000F10040FD
:10A9100000F58010C00F70472DE9F04FC1F30A56C3
:10A92000A6F57E7483B0073C8246132C8B46804686
:10A9300027DC002C51DB4FF6FF73C0F20F0353FAF4
:10A9400004F606EA0105054316D041A3D3E9002326
:10A95000019100F097FA0022002300F0D5FEDDF807
:10A9600004C0002835D0BCF1000F69DB2CEA060CCE
:10A970004FF00008E346C2465046594603B0BDE8D2
:10A98000F08F332C09DDB4F5806FF5D102460B460C
:10A9900000F078FA82468B46EEE7A6F582634FF028
:10A9A000FF32033B32FA03F50542E5D028A3D3E991
:10A9B0000023019100F066FA0022002300F0A4FEBB
:10A9C000DDF804C028B1BCF1000F28DB28EA050837
:10A9D00000E0DC46E346C246CEE71DA3D3E90023F0
:10A9E00000F050FA0022002300F08EFE0028F0D084
:10A9F000BBF1000FA4BF4FF00008C446EADA2BF009
:10AA000000484FF0000C48EA0A08CBF6F07CB8F199
:10AA1000000F08BFDC4618BF4FF00008DAE7142C1F
:10AA200009D0C6F586634FF00108033308FA03F82E
:10AA300018EB0A08CAD30CF1010C28EA0508C9E78B
:10AA40004FF4801353FA04F4A4448FE7AFF300806B
:10AA50009C7500883CE4377E0B4650EA030110B435
:10AA600002D1022010BC7047D0F1010238BF002291
:10AA7000B3F1004F14BF002102F001010029F0D111
:10AA80004FF6FF71A3F58010C7F6DF7103F1FE44A6
:10AA9000884204F570048CBF002001208C428CBFDA
:10AAA000014640F0010104200029DBD1B3F5801FED
:10AAB00003F100402CBF00210121B0F5801F38BFF9
:10AAC00041F0010109B10320CCE713F5801FC7F65F
:10AAD000F07114BF002001208B4214BF034640F0E8
:10AAE000010302EA0300BDE70020704700210020B7
:10AAF000C7F6F871704700BF2DE9F843C1F30A5754
:10AB000004460D4616460B46002F2DD121F000437A
:10AB1000034325D000230022C4F2503300F064FB2D
:10AB200043F6B043CFF6FF739E4204460D463EDB2C
:10AB3000C1F30A5740F2FE72363F0B46BF199742E7
:10AB4000C4BF22462B461BDD2DA1D1E9000100F038
:10AB500089F92BA3D3E9002300F046FB04460D46F8
:10AB600020462946BDE8F88340F2FF72974229D07B
:10AB700040F2FE72BF199742C4BF22462B46E3DC67
:10AB8000002FC2BF23F0FE4323F4700343EA0755AE
:10AB9000E6DC17F1350F1FDA4CF2503322469E42A5
:10ABA0002B46D1DC18A1D1E9000100F05BF916A316
:10ABB000D3E9002300F018FB04460D462046294641
:10ABC000BDE8F88302460B4600F05CF904460D46EA
:10ABD00020462946BDE8F883363723F0FE4323F4A8
:10ABE0007003204643EA0755002329460022C3F696
:10ABF000904300F0F9FA04460D46B1E7AFF3008048
:10AC00009C7500883CE4377E59F3F8C21F6EA5019D
:10AC10002DE9F04120F00045B5F1A14F044606466C
:10AC20000EDBB5F1FF4F00F3A480002840F6DB7483
:10AC3000C8BFC3F6C97440F3D9802046BDE8F0818F
:10AC40004FF6FF73C3F6DF639D4200F3A780B5F1B3
:10AC5000445FC0F295804FF0FF372146204600F058
:10AC6000E3FE0146804600F0DFFE46F6D711C3F64C
:10AC70008541054600F0D8FE4DF65921C3F64B51EB
:10AC800000F0CAFD294600F0CFFE46F63531C3F686
:10AC9000885100F0C1FD294600F0C6FE42F66E6103
:10ACA000C3F6BA5100F0B8FD294600F0BDFE44F6E7
:10ACB0002511C3F6126100F0AFFD294600F0B4FE85
:10ACC0004AF6AB21C3F6AA6100F0A6FD414600F0AA
:10ACD000ABFE4AF22121CBF615518046284600F002
:10ACE000A3FE4FF26B11C3F66E5100F093FD29469F
:10ACF00000F09AFE48F29571C3F69D5100F08AFD6E
:10AD0000294600F091FE48F63861C3F6E35100F0A1
:10AD100081FD294600F088FE4CF6CD41C3F64C611A
:10AD200000F078FD294600F07FFE7B1C014651D0E3
:10AD30004FF6C845404600F06FFDC0F601052146BC
:10AD400000F072FE05EB8703196900F063FD2146F0
:10AD500000F060FD014655F8270000F05BFD002E75
:10AD6000B8BF00F10044FFF668AF04462046BDE8D6
:10AD7000F081014600F050FD04462046BDE8F08118
:10AD80004FF2CA21C7F2491100F046FD4FF07E5143
:10AD900001F006F800283FF45EAF4EE700F056F8E9
:10ADA0004FF6FF73C3F697739D424FF6FF73044649
:10ADB0001FDCC3F62F739D423DDC0146002700F0E7
:10ADC0002BFD4FF07E5100F025FD4FF080410546F0
:10ADD00020461FE0404600F01FFD214600F024FE03
:10ADE0000146204600F016FD044626E7CBF6C9745E
:10ADF00023E7C4F21B039D4214DC4FF07F5102276E
:10AE000000F008FD4FF07F510546204600F00CFE93
:10AE10004FF07E5100F000FD0146284600F0B8FEDC
:10AE200004461AE700202146CBF68070032700F085
:10AE3000AFFE044611E74FF07E51012700F0EAFC17
:10AE40004FF07E5105462046E4E700BF20F0004069
:10AE5000704700BF20F00040B0F1FF4FACBF0020B2
:10AE60000120704703F0004321F0004230B443EA70
:10AE7000020130BC704700BF81F0004102E000BF1A
:10AE800083F0004330B54FEA41044FEA430594EAAA
:10AE9000050F08BF90EA020F1FBF54EA000C55EAE5
:10AEA000020C7FEA645C7FEA655C00F0E2804FEAB6
:10AEB0005454D4EB5555B8BF6D420CDD2C4480EA98
:10AEC000020281EA030382EA000083EA010180EAC8
:10AED000020281EA0303362D88BF30BD11F0004F16
:10AEE0004FEA01314FF4801C4CEA113102D040424C
:10AEF00061EB410113F0004F4FEA03334CEA133387
:10AF000002D0524263EB430394EA050F00F0A7809E
:10AF1000A4F10104D5F1200E0DDB02FA0EFC22FA99
:10AF200005F2801841F1000103FA0EF2801843FA8D
:10AF300005F359410EE0A5F120050EF1200E012A7E
:10AF400003FA0EFC28BF4CF0020C43FA05F3C018BC
:10AF500051EBE37101F0004507D54FF0000EDCF135
:10AF6000000C7EEB00006EEB0101B1F5801F1BD3DE
:10AF7000B1F5001F0CD349085FEA30004FEA3C0CE2
:10AF800004F101044FEA445212F5800F80F09A80D8
:10AF9000BCF1004F08BF5FEA500C50F1000041EBDC
:10AFA000045141EA050130BD5FEA4C0C404141EBE0
:10AFB000010111F4801FA4F10104E9D191F0000F07
:10AFC00004BF01460020B1FA81F308BF2033A3F18A
:10AFD0000B03B3F120020CDA0C3208DD02F1140C81
:10AFE000C2F10C0201FA0CF021FA02F10CE002F1BC
:10AFF0001402D8BFC2F1200C01FA02F120FA0CFCB5
:10B00000DCBF41EA0C019040E41AA2BF01EB0451FD
:10B01000294330BD6FEA04041F3C1CDA0C340EDCFB
:10B0200004F11404C4F1200220FA04F001FA02F33E
:10B0300040EA030021FA04F345EA030130BDC4F1FC
:10B040000C04C4F1200220FA02F001FA04F340EAF1
:10B050000300294630BD21FA04F0294630BD94F0A2
:10B06000000F83F4801306BF81F480110134013D89
:10B070004EE77FEA645C18BF7FEA655C29D094EAFA
:10B08000050F08BF90EA020F05D054EA000C04BF78
:10B090001946104630BD91EA030F1EBF0021002063
:10B0A00030BD5FEA545C05D14000494128BF41F002
:10B0B000004130BD14F580043CBF01F5801130BD66
:10B0C00001F0004545F0FE4141F470014FF00000F1
:10B0D00030BD7FEA645C1ABF194610467FEA655CA2
:10B0E0001CBF0B46024650EA013406BF52EA033544
:10B0F00091EA030F41F4002130BD00BF90F0000F32
:10B1000004BF0021704730B54FF4806404F132046D
:10B110004FF000054FF0000150E700BF90F0000F26
:10B1200004BF0021704730B54FF4806404F132044D
:10B1300010F0004548BF40424FF000013EE700BF1D
:10B1400042004FEAE2014FEA31014FEA02701FBFAD
:10B1500012F07F4393F07F4F81F06051704792F07F
:10B16000000F14BF93F07F4F704730B54FF46074F9
:10B1700001F0004521F0004120E700BF50EA010244
:10B1800008BF704730B54FF000050AE050EA0102F1
:10B1900008BF704730B511F0004502D5404261EB61
:10B1A00041014FF4806404F132045FEA915C3FF4A2
:10B1B000DCAE4FF003025FEADC0C18BF03325FEA3B
:10B1C000DC0C18BF033202EBDC02C2F1200300FAF0
:10B1D00003FC20FA02F001FA03FE40EA0E0021FA15
:10B1E00002F11444C1E600BF70B54FF0FF0C4CF4FF
:10B1F000E06C1CEA11541DBF1CEA135594EA0C0FB5
:10B2000095EA0C0F00F0DEF82C4481EA030621EAEF
:10B210004C5123EA4C5350EA013518BF52EA03352A
:10B2200041F4801143F4801338D0A0FB02CE4FF0DC
:10B230000005E1FB02E506F00042E0FB03E54FF00C
:10B240000006E1FB03569CF0000F18BF4EF0010E04
:10B25000A4F1FF04B6F5007F64F5407404D25FEA00
:10B260004E0E6D4146EB060642EAC62141EA5551B3
:10B270004FEAC52040EA5E504FEACE2EB4F1FD0CF5
:10B2800088BFBCF5E06F1ED8BEF1004F08BF5FEA73
:10B29000500E50F1000041EB045170BD06F0004625
:10B2A00046EA010140EA020081EA0301B4EB5C04D2
:10B2B000C2BFD4EB0C0541EA045170BD41F48011CA
:10B2C0004FF0000E013C00F3AB8014F1360FDEBFEF
:10B2D000002001F0004170BDC4F10004203C35DACB
:10B2E0000C341BDC04F11404C4F1200500FA05F34E
:10B2F00020FA04F001FA05F240EA020001F00042EF
:10B3000021F0004110EBD37021FA04F642EB060164
:10B310005EEA430E08BF20EAD37070BDC4F10C048E
:10B32000C4F1200500FA04F320FA05F001FA04F252
:10B3300040EA020001F0004110EBD37041F100013E
:10B340005EEA430E08BF20EAD37070BDC4F1200549
:10B3500000FA05F24EEA020E20FA04F301FA05F2B1
:10B3600043EA020321FA04F001F0004121FA04F259
:10B3700020EA020000EBD3705EEA430E08BF20EA29
:10B38000D37070BD94F0000F0FD101F00046400063
:10B3900041EB010111F4801F08BF013CF7D041EAE5
:10B3A000060195F0000F18BF704703F000465200E9
:10B3B00043EB030313F4801F08BF013DF7D043EABA
:10B3C0000603704794EA0C0F0CEA135518BF95EA70
:10B3D0000C0F0CD050EA410618BF52EA4306D1D1F7
:10B3E00081EA030101F000414FF0000070BD50EA16
:10B3F000410606BF1046194652EA430619D094EAA0
:10B400000C0F02D150EA013613D195EA0C0F05D189
:10B4100052EA03361CBF104619460AD181EA0301DD
:10B4200001F0004141F0FE4141F470014FF0000095
:10B4300070BD41F0FE4141F4780170BD70B54FF030
:10B44000FF0C4CF4E06C1CEA11541DBF1CEA1355B0
:10B4500094EA0C0F95EA0C0F00F0A7F8A4EB050492
:10B4600081EA030E52EA03354FEA013100F0888089
:10B470004FEA03334FF0805545EA131343EA126352
:10B480004FEA022245EA111545EA10654FEA002607
:10B490000EF000419D4208BF964244F1FD0404F5C0
:10B4A000407402D25B084FEA3202B61A65EB03051C
:10B4B0005B084FEA32024FF480104FF4002CB6EBD9
:10B4C000020E75EB030E22BFB61A754640EA0C0059
:10B4D0005B084FEA3202B6EB020E75EB030E22BF99
:10B4E000B61A754640EA5C005B084FEA3202B6EBDA
:10B4F000020E75EB030E22BFB61A754640EA9C0099
:10B500005B084FEA3202B6EB020E75EB030E22BF68
:10B51000B61A754640EADC0055EA060E18D04FEA26
:10B52000051545EA16754FEA06164FEAC30343EAC6
:10B5300052734FEAC2025FEA1C1CC0D111F4801F93
:10B540000BD141EA00014FF000004FF0004CB6E78C
:10B5500011F4801F04BF01430020B4F1FD0C88BF2B
:10B56000BCF5E06F3FF6AFAEB5EB030C04BFB6EB36
:10B57000020C5FEA500C50F1000041EB045170BD29
:10B580000EF0004E4EEA113114EB5C04C2BFD4EB56
:10B590000C0541EA045170BD41F480114FF0000EDA
:10B5A000013C90E645EA060E8DE60CEA135594EA56
:10B5B0000C0F08BF95EA0C0F3FF43BAF94EA0C0F59
:10B5C0000AD150EA01347FF434AF95EA0C0F7FF4CE
:10B5D00025AF104619462CE795EA0C0F06D152EA22
:10B5E00003353FF4FDAE1046194622E750EA410606
:10B5F00018BF52EA43067FF4C5AE50EA41047FF417
:10B600000DAF52EA43057FF4EBAE12E74FF0FF3C7B
:10B6100006E000BF4FF0010C02E000BF4FF0010C4C
:10B620004DF804CD4FEA410C7FEA6C5C4FEA430CC5
:10B6300018BF7FEA6C5C1BD001B050EA410C0CBF14
:10B6400052EA430C91EA030F02BF90EA020F002076
:10B65000704710F1000F91EA030F58BF994208BFDD
:10B6600090422CBFD8176FEAE37040F0010070479A
:10B670004FEA410C7FEA6C5C02D150EA013C07D1F1
:10B680004FEA430C7FEA6C5CD6D152EA033CD3D03C
:10B690005DF8040B704700BF8446104662468C4636
:10B6A0001946634600E000BF01B5FFF7B7FF002869
:10B6B00048BF10F1000F01BD4DF808EDFFF7F4FF92
:10B6C0000CBF012000205DF808FB00BF4DF808ED1D
:10B6D000FFF7EAFF34BF012000205DF808FB00BF40
:10B6E0004DF808EDFFF7E0FF94BF012000205DF862
:10B6F00008FB00BF4DF808EDFFF7CEFF94BF012017
:10B7000000205DF808FB00BF4DF808EDFFF7C4FF0F
:10B7100034BF012000205DF808FB00BF4FEA410262
:10B7200012F5001215D211D56FF47873B3EB625293
:10B7300012D94FEAC12343F0004343EA505311F0BA
:10B74000004F23FA02F018BF404270474FF000004C
:10B75000704750EA013005D111F0004008BF6FF08A
:10B76000004070474FF00000704700BF4FEA4102B1
:10B77000B2F1E04324BFB3F5001CDCF1FE5C0DD94F
:10B7800001F0004C4FEAC0024CEA5070B2F1004F99
:10B7900040EB830008BF20F00100704711F0804F9C
:10B7A00021D113F13872BCBF01F00040704741F461
:10B7B00080114FEA5252C2F11802C2F1200C10FA65
:10B7C0000CF320FA02F018BF40F001004FEAC12349
:10B7D0004FEAD32303FA0CFC40EA0C0023FA02F3ED
:10B7E0004FEA4303CCE77FEA625307D150EA0133C3
:10B7F0001EBF4FF0FE4040F44000704701F0004093
:10B8000040F0FE4040F40000704700BF80F0004070
:10B8100002E000BF81F0004142001FBF5FEA410328
:10B8200092EA030F7FEA226C7FEA236C6AD04FEA28
:10B830001262D2EB1363C1BFD2184140484041406D
:10B84000B8BF5B42192B88BF704710F0004F40F41F
:10B85000000020F07F4018BF404211F0004F41F43B
:10B86000000121F07F4118BF494292EA030F3FD007
:10B87000A2F1010241FA03FC10EB0C00C3F120031A
:10B8800001FA03F100F0004302D5494260EB4000A9
:10B89000B0F5000F13D3B0F1807F06D340084FEA14
:10B8A000310102F10102FE2A51D2B1F1004F40EB09
:10B8B000C25008BF20F0010040EA03007047490071
:10B8C00040EB000010F4000FA2F10102EDD1B0FA3C
:10B8D00080FCACF1080CB2EB0C0200FA0CF0AABF31
:10B8E00000EBC25052421843BCBFD04018437047CF
:10B8F00092F0000F81F4000106BF80F400000132D5
:10B90000013BB5E74FEA41037FEA226C18BF7FEAAB
:10B91000236C21D092EA030F04D092F0000F08BFED
:10B920000846704790EA010F1CBF0020704712F0D4
:10B930007F4F04D1400028BF40F00040704712F113
:10B9400000723CBF00F50000704700F0004343F078
:10B95000FE4040F4000070477FEA226216BF0846AE
:10B960007FEA23630146420206BF5FEA412390EA71
:10B97000010F40F4800070474FF0000304E000BF67
:10B9800010F0004348BF40425FEA000C08BF704718
:10B9900043F0964301464FF000001CE050EA0102DC
:10B9A00008BF70474FF000030AE000BF50EA0102F1
:10B9B00008BF704711F0004302D5404261EB4101DE
:10B9C0005FEA010C02BF84460146002043F0B64303
:10B9D00008BFA3F18053A3F50003BCFA8CF2083A28
:10B9E000A3EBC25310DB01FA02FC634400FA02FC31
:10B9F000C2F12002BCF1004F20FA02F243EB020038
:10BA000008BF20F00100704702F1200201FA02FC99
:10BA1000C2F1200250EA4C0021FA02F243EB02008C
:10BA200008BF20EADC7070474FF0FF0C1CEAD052D0
:10BA30001EBF1CEAD15392EA0C0F93EA0C0F6FD091
:10BA40001A4480EA010C400218BF5FEA41211ED06F
:10BA50004FF0006343EA501043EA5111A0FB01315B
:10BA60000CF00040B1F5000F3EBF490041EAD37130
:10BA70005B0040EA010062F17F02FD2A1DD8B3F1AC
:10BA8000004F40EBC25008BF20F00100704790F01B
:10BA9000000F0CF0004C08BF49024CEA502040EA6D
:10BAA00051207F3AC2BFD2F1FF0340EAC250704733
:10BAB00040F400004FF00003013A5DDC12F1190F71
:10BAC000DCBF00F000407047C2F10002410021FAE3
:10BAD00002F1C2F1200200FA02FC5FEA310040F1FB
:10BAE000000053EA4C0308BF20EADC70704792F074
:10BAF000000F00F0004C02BF400010F4000F013AAC
:10BB0000F9D040EA0C0093F0000F01F0004C02BFA6
:10BB1000490011F4000F013BF9D041EA0C018FE715
:10BB20000CEAD15392EA0C0F18BF93EA0C0F0AD01B
:10BB300030F0004C18BF31F0004CD8D180EA010041
:10BB400000F00040704790F0000F17BF90F0004FDA
:10BB5000084691F0000F91F0004F14D092EA0C0FBC
:10BB600001D142020FD193EA0C0F03D14B0218BF4F
:10BB7000084608D180EA010000F0004040F0FE4095
:10BB800040F40000704740F0FE4040F44000704731
:10BB90004FF0FF0C1CEAD0521EBF1CEAD15392EAB0
:10BBA0000C0F93EA0C0F69D0A2EB030280EA010CA0
:10BBB00049024FEA402037D04FF0805343EA111139
:10BBC00043EA10130CF000408B4238BF5B0042F197
:10BBD0007D024FF4000C8B4224BF5B1A40EA0C003C
:10BBE000B3EB510F24BFA3EB510340EA5C00B3EB6E
:10BBF000910F24BFA3EB910340EA9C00B3EBD10F5C
:10BC000024BFA3EBD10340EADC001B0118BF5FEAAD
:10BC10001C1CE0D1FD2A3FF650AF8B4240EBC250D6
:10BC200008BF20F0010070470CF0004C4CEA502097
:10BC30007F32C2BFD2F1FF0340EAC250704740F4E6
:10BC400000004FF00003013A37E792F0000F00F0D8
:10BC5000004C02BF400010F4000F013AF9D040EA56
:10BC60000C0093F0000F01F0004C02BF490011F4EA
:10BC7000000F013BF9D041EA0C0195E70CEAD153E2
:10BC800092EA0C0F08D142027FF47DAF93EA0C0FC9
:10BC90007FF470AF084676E793EA0C0F04D14B02AD
:10BCA0003FF44CAF08466EE730F0004C18BF31F05F
:10BCB000004CCAD130F000427FF45CAF31F0004359
:10BCC0007FF43CAF5FE700BF4FF0FF3C06E000BFF2
:10BCD0004FF0010C02E000BF4FF0010C4DF804CD15
:10BCE0004FEA40024FEA41037FEA226C18BF7FEA25
:10BCF000236C11D001B052EA530C18BF90EA010F27
:10BD000058BFB2EB030088BFC81738BF6FEAE170B5
:10BD100018BF40F0010070477FEA226C02D15FEA51
:10BD2000402C05D17FEA236CE4D15FEA412CE1D0BD
:10BD30005DF8040B704700BF844608466146FFE784
:10BD40000FB5FFF7C9FF002848BF10F1000F0FBD66
:10BD50004DF808EDFFF7F4FF0CBF012000205DF85F
:10BD600008FB00BF4DF808EDFFF7EAFF34BF0120E4
:10BD700000205DF808FB00BF4DF808EDFFF7E0FF7D
:10BD800094BF012000205DF808FB00BF4DF808EDCE
:10BD9000FFF7D2FF94BF012000205DF808FB00BF31
:10BDA0004DF808EDFFF7C8FF34BF012000205DF813
:10BDB00008FB00BF4FEA4002B2F1FE4F0FD34FF035
:10BDC0009E03B3EB12620DD94FEA002343F0004308
:10BDD00010F0004F23FA02F018BF404270474FF0B6
:10BDE0000000704712F1610F01D1420205D110F03D
:10BDF000004008BF6FF0004070474FF000007047F0
:10BE000040F20403C2F200031868704770B540F2B4
:10BE1000143640F21435C0F60206C0F60205761B51
:10BE2000B61006D0002455F8043B01349847A642CA
:10BE3000F9D140F2183640F21435C0F60206C0F6C9
:10BE40000205761B14F05AFAB61006D0002455F8F5
:10BE5000043B01349847A642F9D170BD032A2DE96D
:10BE6000F00109D82AB10023CC5CC45401339342B9
:10BE7000FAD1BDE8F001704785070244034605D0BA
:10BE800011F8014B03F8014B9C07F9D111F00305A0
:10BE900042D0D41A6E42032C8F5912DDC5F1040C26
:10BEA000ED004FEACC0C043127FA05F88C592746EF
:10BEB00004FA0CF444EA080443F8044BD41A032CA3
:10BEC000F1DC9A42D5D900228D5C9D540132A24208
:10BED000FAD1CEE70C681C604C685C608C689C6092
:10BEE000CC68DC600C691C614C695C618C699C618C
:10BEF000CC69DC610C6A1C624C6A5C628C6A9C6274
:10BF0000CC6ADC620C6B1C634C6B5C638C6B9C635B
:10BF1000CC6B4031DC634033D41A3F2CDADC0AE0CE
:10BF20000C681C604C685C608C689C60CC6810314C
:10BF3000DC601033D41A0F2CF2DC04E051F8044B0F
:10BF400043F8044BD41A032CF8DCBAE7032AC9B22D
:10BF500070B407D822B10023C15401339342FBD1FE
:10BF600070BC704785070244034603D003F8011BE9
:10BF70009C07FBD10C02D51A641826043F2D3444CB
:10BF80001ADD1C605C609C60DC601C615C619C6113
:10BF9000DC611C625C629C62DC621C635C639C63AF
:10BFA000DC634033D51A3F2DEBDC05E01C605C60A0
:10BFB0009C60DC601033D51A0F2DF7DC02E043F8EB
:10BFC000044BD51A032DFADC9342C9D203F8011BA6
:10BFD0009342FBD1C4E700BF40F0BE61024B41F485
:10BFE0002020D860704700BF00ED00E0C37810B596
:10BFF0002BB3184AD4684278E14301F4E0631B0A8A
:10C00000C3F1040C5FFA8CF412FA04F10F2454FA11
:10C0100003F2847890F800C0C9B202EA040343EA4C
:10C0200001020D4B0CEB0301120181F80023037890
:10C03000012203F01F00590912FA00F306E002780A
:10C040000123510902F01F0083402031024840F8CB
:10C05000213010BD00ED00E000E100E043680A6817
:10C0600030B523F0407424F480750B7945EA020C56
:10C070004CEA0324CD680A694460846845EA0203F7
:10C080008D680A4A43EA050C04EA02034A794CEA3D
:10C09000030C4CEA42038360097DC26A4B1E22F402
:10C0A0007002D9B242EA0153C36230BDFDF7FFC04E
:10C0B000002101230160017141718160C160016152
:10C0C00003757047094A10B55368094C03EA040C1C
:10C0D00090E8120021438468C06841EA040343EAFF
:10C0E000000141EA0C03536010BD00BF0023014072
:10C0F000E030FCFF0023036043608360C36070474F
:10C10000836811B143F0010301E023F00103836070
:10C110007047092970B54FEA41040BD964181E3CD9
:10C12000C6680725A54026EA0505A34045EA03049D
:10C13000C4600AE0066964180725A54026EA0505DB
:10C1400013FA04F445EA04030361062A0CD8013A01
:10C1500002EB8202446B1F23934024EA030C9140BC
:10C160004CEA0102426370BD0C2A4FEA82030CD8EC
:10C170009A18046B233A1F23934024EA030C11FA04
:10C1800002F24CEA0201016370BD9A18C46A413A96
:10C190001F23934024EA030C11FA02F24CEA020135
:10C1A000C16270BD816841F08043836070478368DD
:10C1B00011B143F4807301E023F48073836070470E
:10C1C000836811B143F4007301E023F400738360CA
:10C1D00070470000016821F0010303600021212362
:10C1E000016041608160C160016143612C4B9842F4
:10C1F0001CD02C4B984220D02B4B984225D02B4B57
:10C2000098422AD02A4B98422FD02A4B984233D0BA
:10C21000294B984237D0294B984204D14FF03D52D8
:10C2200043F8AC2C7047264B984203D13D2043F88D
:10C23000080C7047234B984204D14FF4746143F8C3
:10C24000201C7047204B984204D14FF4741243F8DD
:10C25000382C70471D4B984204D14FF0746043F85E
:10C26000500C70471A4B984203D11A4943F8641C8A
:10C270007047194B984203D1184A43F87C2C7047F9
:10C28000174B984203D1174843F8940C7047164B4C
:10C29000984204BF4FF03D5243F8AC2C704700BFAA
:10C2A0001060024028600240406002405860024036
:10C2B0007060024088600240A0600240B8600240A6
:10C2C0001064024028640240406402405864024006
:10C2D000706402403D00002088640240400F00204E
:10C2E000A064024000003D20B86402400268164B82
:10C2F00010B502EA030CCC680A684B6922438C69CA
:10C300001343CA6923430C6A1A434B6A22438C6A5B
:10C3100013434A6B23438C6B1A4342EA040343EAF8
:10C320000C0202604469CB6A24F007020C6B44EAF9
:10C33000030C0B694CEA0202426143604A688B6855
:10C340008260C36010BD00BF3F801CF0002303600B
:10C3500043608360C360036143618361C3610362BF
:10C3600043628362C362036343638363704703680A
:10C3700011B143F0010301E023F0010303607047B2
:10C3800041607047406880B27047006800F001006B
:10C3900070470B0607D5436912B143F0800301E0F3
:10C3A00023F080034361802909D001F01E01036856
:10C3B00012B119430160704723EA0102026070471D
:10C3C000104B114A10B5114CA0428CBF14461C46AC
:10C3D0000F4A01EA02032BB1026802F01E0000EAD4
:10C3E000D12202E0436903F080028800094B4CBF70
:10C3F000606820681940084002D0101C18BF012056
:10C4000010BD00BF00600240006402400F640240A3
:10C410003C0F3C0F7D0F7D0F30B5074B074A084C92
:10C42000084DA04288BF13460D4011F0005F14BFB5
:10C43000DD609D6030BD00BF0060024000640240CE
:10C440000F6402407D0F7D0F044B1A69002A03DA46
:10C450000349044859605860704700BF003C0240DF
:10C4600023016745AB89EFCD024B186940F00042CC
:10C470001A617047003C0240014BD860704700BF12
:10C48000003C02400C4BDA68D0030ED4D868C106D9
:10C490000DD4D96811F0EF0F0BD1DA6802F0020366
:10C4A000002B0CBF08200720704701207047052093
:10C4B00070470620704700BF003C024007B50823C4
:10C4C0008DF80730FFF7DEFF8DF807009DF80700B5
:10C4D0000128F7D09DF807000EBD000070B5044696
:10C4E0000E46FFF7EBFF082813D10A4D2A6922F404
:10C4F00040702861296941F400732B612A6942F078
:10C50000010028612660FFF7D9FF296921F00103A6
:10C510002B6170BD003C024070B5044641B1012959
:10C5200008D0022914BF4FF440764FF4007603E0A0
:10C530000E4601E04FF48076FFF7C0FF08281ED1B9
:10C540000F4D286920F440732B612A6916432E6130
:10C55000296921F0F80028612B6943F00202144395
:10C560002C61296941F480302861FFF7A7FF2B690E
:10C5700023F002022A61296921F0F8032B6170BDC2
:10C58000003C02402DE9F04100230F681A460124C7
:10C59000944004EA0705A54231D1032406689C4073
:10C5A000E443264006600E79D0F800C006FA03F88E
:10C5B000013EF6B248EA0C0C012EC0F800C016D8B5
:10C5C000866891F805C02640866086680CFA03FCF0
:10C5D0004CEA06068660466826EA05068D794660BE
:10C5E000466895401FFA85FC4CEA06054560C5681B
:10C5F0002540C560CC79C5689C402C43C46001329D
:10C600000233102AC3D1BDE8F08100234FF6FF7139
:10C610000160037143718371C371704703691942EB
:10C620000CBF002001207047018370474183704791
:10C6300030B501F00705C9080831AB000F2450F8E8
:10C6400021509C4025EA040440F8214050F8214044
:10C6500012FA03F31C4340F8214030BD08B5134BD8
:10C66000984207D14FF40010012100F05FF94FF418
:10C67000001014E00E49884207D14FF480000121D8
:10C6800000F054F94FF4800009E00A4A90420BD1BF
:10C690004FF40000012100F049F94FF4000000219F
:10C6A000BDE8084000F042B908BD00BF005400409A
:10C6B00000580040005C0040F0B5838823F03F0242
:10C6C000044685B01004060C68460D4600F0B6F826
:10C6D0002E490298B0FBF1F7BFB23E43A680B4F8F2
:10C6E00000C02CF001031A04110C294B2A68218088
:10C6F0009A4209D85200B0FBF2F18BB2013727847D
:10C70000032B98BF042322E0B5F806E04BF6FF7C2C
:10C71000E64505D102EB4203B0FBF3F083B206E03D
:10C7200019235343B0FBF3F291B241F4804319054E
:10C73000080D08B943F001034FF4967257434FF4C4
:10C740007A7E97FBFEF7013743F400432784A383E7
:10C75000B4F800E01FFA8EFC4CF001012180208823
:10C7600020F4806222F00A036889AA8819040B0C5D
:10C7700040EA020E43EA0E012889AB89218040EA93
:10C78000030CA4F808C005B0F0BD00BF40420F0084
:10C79000A086010041F28833002103604BF6FF724E
:10C7A0004FF480438180C280018141818381704741
:10C7B000038819B19BB243F0010303E023F00102A7
:10C7C00011040B0C03807047038819B19BB243F42A
:10C7D000807303E023F4807211040B0C0380704714
:10C7E000038819B19BB243F4007303E023F4007291
:10C7F00011040B0C0380704712B141F0010101E0FC
:10C8000001F0FE0101827047038819B19BB243F425
:10C81000806303E023F4806211040B0C03807047F3
:10C8200001827047008AC0B2704783889BB20AB108
:10C83000194301E023EA010181807047254B9A6882
:10C8400002F00C02042A10B503D0082A03D0224BB0
:10C8500024E0224B22E05C685968620201F03F014B
:10C860000AD55A681D4B47F6C07C02EA0C04A2099F
:10C87000B3FBF1F3534309E05A6847F6C07402EA88
:10C880000403154C9B09B4FBF1F14B43114C616857
:10C8900001F44032D40BA11CB3FBF1F30D4903604A
:10C8A0008C6804F0F00213090D4A0468D35C34FA72
:10C8B00003F343608C6804F4E054A40A145D33FA73
:10C8C00004F48460896801F46041490B525CD340F0
:10C8D000C36010BD003802400024F40000127A004A
:10C8E000F8000020044B1A6B09B1104301E022EA62
:10C8F00000001863704700BF00380240044B1A6CF8
:10C9000009B1104301E022EA00001864704700BF3B
:10C9100000380240044B5A6C09B1104301E022EA8E
:10C9200000005864704700BF00380240044B1A6A88
:10C9300009B1104301E022EA00001862704700BF0D
:10C9400000380240044B5A6A09B1104301E022EA60
:10C9500000005862704700BF00380240024B586F19
:10C9600040F080725A67704700380240038819B15E
:10C970009BB243F0400303E023F0400211040B0C90
:10C9800003807047B0F820C030B52CF001052C04AE
:10C99000250C0584048BB0F820C024F0F3052C048A
:10C9A000250C42EA05042CF00A0544EA03142B0482
:10C9B0001A0C42F001050D430483058430BDB0F824
:10C9C00020C030B52CF010052C04250C0584048BF8
:10C9D000B0F820C024F440752C05250D45EA02244A
:10C9E0002CF0A00544EA03342B041A0C42F0100585
:10C9F00045EA01150483058430BD000008B5474BA6
:10CA0000984205D101200146FFF79CFF01203DE03F
:10CA1000B0F1804F05D101200146FFF787FF0120CB
:10CA200076E03F49884205D102200121FFF77EFFD1
:10CA300002206DE03B4A904205D104200121FFF71E
:10CA400075FF042064E0384B984205D1082001218D
:10CA5000FFF76CFF08205BE03449884205D11020C5
:10CA60000121FFF763FF102052E0314A904205D1C7
:10CA700020200121FFF75AFF202049E02D4B98424A
:10CA800009D102200121FFF75DFF02200021BDE84E
:10CA90000840FFF757BF2849884207D14FF480303C
:10CAA0000121FFF74FFF4FF48030EFE7234A904218
:10CAB00007D14FF400300121FFF744FF4FF400305D
:10CAC000E4E71F4B984207D14FF480200121FFF784
:10CAD00039FF4FF48020D9E71A49884205D1402018
:10CAE0000121FFF723FF402012E0174A904205D1B1
:10CAF00080200121FFF71AFF802009E0134B9842A4
:10CB00000BD14FF480700121FFF710FF4FF48070BC
:10CB10000021BDE80840FFF709BF08BD0000014043
:10CB20000004004000080040000C004000100040DD
:10CB30000014004000040140004001400044014056
:10CB40000048014000180040001C00400020004048
:10CB50001B4A038890420ED01A4A90420BD0B0F183
:10CB6000804F08D0184A904205D0184A904202D00F
:10CB7000174A904206D14FF68F7203EA020C4B8897
:10CB80004CEA0303134A904209D0134A904206D05C
:10CB90004FF6FF4203EA020C0B894CEA03030380C1
:10CBA0004B680A88C362064B0285984202D0054A48
:10CBB000904201D1897A018601238382704700BFA8
:10CBC0000000014000040140000400400008004053
:10CBD000000C0040001000400014004000234FF003
:10CBE000FF3141600380038143808372704741625B
:10CBF0007047038819B19BB243F0800303E023F030
:10CC0000800211040B0C03807047038819B19BB29A
:10CC100043F0010303E023F0010211040B0C038035
:10CC200070470000028CB1F80CC022F0010370B50F
:10CC30001E04340C0484068C8488058B25F0730252
:10CC400013041A0C26F002031E04330C0D884E88C0
:10CC50002A4346EA0C051FFA85FC134DA8424CEA0C
:10CC6000030302D0114DA84218D14FF6F77603EA1C
:10CC70000605CB894FF6FB7645EA030C8B880CEA58
:10CC800006063343B1F810C04E8A4FF6FF452540E3
:10CC900046EA0C041FFA84FC4CEA05048968848087
:10CCA00002834163038470BD000001400004014021
:10CCB000B0F820C02CF0100230B515042C0C048400
:10CCC000B0F820C08488038B23F4E64215040B8857
:10CCD0002A0C2CF0200542EA03222B048D89B1F89E
:10CCE00002C01B0C43EA0513124DA84243EA0C1381
:10CCF00002D0114DA84217D14FF67F7503EA050CFB
:10CD0000CB894CEA0315B1F804C04FF6BF732B4032
:10CD100043EA0C134FF2FF35B1F810C025404C8A9E
:10CD200045EA8C0545EA840489688480028381632E
:10CD3000038430BD0000014000040140B0F820C071
:10CD40002CF4807230B515042C0C0484B0F820C08B
:10CD50008488838B23F0730215040B882A0C2CF42F
:10CD600000751A432B048D89B1F802C01B0C43EAED
:10CD70000523134DA84243EA0C2302D0114DA842CB
:10CD800017D14FF2FF7503EA050CCB894CEA032556
:10CD9000B1F804C04FF6FF332B4043EA0C234CF6A6
:10CDA000FF75B1F810C025404C8A45EA0C1545EADC
:10CDB0000414896884808283C163038430BD00BF0A
:10CDC0000000014000040140B0F820C02CF4805263
:10CDD00030B515042C0C0484B0F820C08488838BF3
:10CDE00023F4E64215040B882A0C2CF4005542EA81
:10CDF00003222B048D89B1F802C01B0C43EA0533D2
:10CE0000094DA84243EA0C3302D0084DA84205D18F
:10CE10004BF6FF7525400C8A45EA841489688480A6
:10CE200082830164038430BD00000140000401409E
:10CE3000002303804380838083608381C3810382D6
:10CE400043827047B0F818C02CF0080213041A0C83
:10CE500041EA020303837047B0F818C02CF4006263
:10CE600013041A0C42EA012303837047B0F81CC074
:10CE70002CF0080213041A0C41EA02038383704762
:10CE8000B0F81CC02CF4006213041A0C42EA01230F
:10CE90008383704710B5048C01238B40A4B224EA2D
:10CEA00003030384B0F820C012FA01F141EA0C0335
:10CEB000038410BD00230122038043808280C3804D
:10CEC00003817047406B7047806B7047C06B704741
:10CED000006C7047028B22F00C031A04130C0383BE
:10CEE000B0F818C01FFA8CF241EA020303837047BE
:10CEF000028B22F440631A04130C0383B0F818C0A9
:10CF00001FFA8CF242EA012303837047828B22F0DE
:10CF10000C031A04130C8383B0F81CC01FFA8CF2A4
:10CF200041EA020383837047828B22F440631A0430
:10CF3000130C8383B0F81CC01FFA8CF242EA012361
:10CF4000838370472DE9F0410B880D4604464988DC
:10CF5000AA8843B92B89FFF715FDE9882046BDE86B
:10CF6000F041FFF7B7BF042B08D12B89FFF727FD4E
:10CF7000E9882046BDE8F041FFF7BABF082BB5F8B5
:10CF8000088023D1038C23F480764FEA06474FEACA
:10CF900017430384868BB0F820C026F0F3073B04C8
:10CFA0001E0C2CF4206346EA08171E04360C46EAD1
:10CFB000012CBFB21FFA8CF343F480713A43828391
:10CFC0000184E988BDE8F041FFF7A0BF068C26F494
:10CFD00080531F043F0C0784868BB0F820C026F4D2
:10CFE00040731E05360D46EA02222CF4005342EA35
:10CFF00008385A04530C43EA013C1FFA8CF242F4FD
:10D000008051A0F81C800184E988BDE8F041FFF759
:10D010008BBFB0F8443021B16FEA43436FEA53430A
:10D0200001E059044B0CA0F84430704783899BB24F
:10D030000AB1194301E023EA010181817047038AA3
:10D04000828911EA030092B203D011420CBF002082
:10D0500001207047C9430182704783899BB20AB19E
:10D06000194301E023EA01018181704708B5234B90
:10D07000984205D110200121FFF764FC102037E011
:10D080001F49884207D14FF400300121FFF74EFCC1
:10D090004FF4003009E01B4A90420BD14FF480203E
:10D0A0000121FFF743FC4FF480200021BDE8084038
:10D0B000FFF73CBC144B984207D14FF400200121EC
:10D0C000FFF734FC4FF40020EFE71049884207D106
:10D0D0004FF480100121FFF729FC4FF48010E4E7A2
:10D0E0000B4A904209D120200121FFF72BFC202080
:10D0F0000021BDE80840FFF725BC08BD0010014035
:10D100000044004000480040004C004000500040F7
:10D110000014014030B5B0F810E02EF44052130472
:10D12000CA881B0C13430382B0F80CC02CF4B05E09
:10D130002EF00C02B1F804C013040A890D46498987
:10D1400042EA0C0242EA010E1B0C1FFA8EFC4CEA6A
:10D1500003018181828A22F440731904AA890B0C8D
:10D1600043EA020185B0044681826846FFF766FB08
:10D170001C4B9C4202D01C48844201D1039B00E01E
:10D18000029BA2890FFA82FC4FF01901BCF1000F3B
:10D190002A6801FB03F101DA520000E092006423E7
:10D1A000B1FBF2F1B1FBF3F21201100903FB101114
:10D1B000A0890FFA80FEBEF1000F06DAC9003231F5
:10D1C000B1FBF3F303F0070305E009013231B1FBD2
:10D1D000F3F000F00F0343EA020CA4F808C005B016
:10D1E00030BD00BF001001400014014000234FF487
:10D1F00016510C2201608380C380038142818381A8
:10D200007047838919B19BB243F4005303E023F4C0
:10D21000005211040B0C83817047CA05D10D818027
:10D2200070478188C805C00D7047838A9BB20AB1D8
:10D23000194301E023EA010181827047CBB210B5A6
:10D240005B09012401F01F0114FA01F1A34201D18D
:10D250000C3004E0022B01D1103000E014300368E0
:10D260000AB1194301E023EA0101016010BD0388FE
:10D2700019420CBF00200120704710B5CCB201222A
:10D28000640901F01F039A40012C01D1838903E056
:10D29000022C0CBF038A838A9BB20088134082B29F
:10D2A00043B1080A012313FA00F111420CBF002018
:10D2B000012010BD184610BD034600689988FFF78D
:10D2C000ADB90368828809B11A8370475A837047E1
:10D2D000036881885A694A405A61704713B5044609
:10D2E0006846FFF792F9A388617AA07A227A0093C0
:10D2F0008DF806108DF80700022320688DF80420B1
:10D3000069468DF80530FFF73DF91CBD13B504469D
:10D310006846FFF77AF9A388617AA07A0093012220
:10D320008DF806108DF80700022320688DF8042080
:10D3300069468DF80530FFF725F91CBD2DE9F0434E
:10D340003B4D8BB00746002106A80C22FEF7FEFDE0
:10D350002C4600260AE054F8200C0021FFF759FE65
:10D3600054F8200CFFF74AFB0136F6B22034BE42D7
:10D37000F1D106A8FFF732FC01A8FFF759FD2D48AF
:10D38000FFF798FD0222012106A88DF825208DF8CF
:10D390002610FFF723FC4FF6FF7053230790ADF8DC
:10D3A0001830002630E0DFF890804FEA461909EB8C
:10D3B00008042046FFF792FF227E59F80800E18812
:10D3C000FFF736F994F81C900AA84FF0010800F80E
:10D3D000049DDFF860908DF82780FEF707FE06A910
:10D3E000E068FFF7B5FB4846FFF764FDB4F810C0EE
:10D3F000E068A9F800C04946FFF7A4FDE068618A2B
:10D400004246FFF713FE46445FFA86FEBE45CAD386
:10D41000002406E055F8200C0121FFF7F6FB631C01
:10D42000DCB22035BC42F5D10BB0BDE8F08300BFC3
:10D4300044030020040700203803002073B53E4D4C
:10D440001C2404FB00546846FFF7DFF8208A012102
:10D4500002228DF8061000906946E0688DF80520DC
:10D460008DF80420FFF78EF8238B606900936946DE
:10D47000FFF788F8E068218AFFF7D6F86069218B0A
:10D48000FFF7D2F802F062FB643086B208250CE0A8
:10D490000A2002F051FB02F059FBB04205D9274B9C
:10D4A000197A41F00800187244E0E068218AFFF719
:10D4B000B5F80028ECD0218AE068FFF7B7F80A2019
:10D4C00002F03AFBE068218AFFF7AEF80A2002F08A
:10D4D00033FB6A1ED5B2002DE7D1218B6069FFF7BF
:10D4E000A5F80A2002F028FB218AE068FFF79EF8E1
:10D4F0000A2002F021FB218AE068FFF795F80A2054
:10D5000002F01AFB6069218BFFF78EF80221228A54
:10D510008DF805108DF804100123E068009269462B
:10D520008DF80630FFF72EF8208B69460090606971
:10D53000FFF728F87CBD00BFD0050020ED82002059
:10D5400070B51C22424305462448135C86B014186B
:10D55000002B40D0E068A17CE27EFFF769F8A17E55
:10D560006069E27EFFF764F82846FFF767FF1C4911
:10D570000D7A05F0080575BB6068FFF76FF801A824
:10D58000FFF708F92A4660684FF44071FFF74DF93C
:10D590001449606801910121FFF70AF901A9606847
:10D5A000FFF78AF84FF4A060FEF716FD0120222253
:10D5B0008DF8170005A88DF814208DF815508DF8FA
:10D5C0001650FEF713FD212305A88DF814308DF8B1
:10D5D0001550FEF70BFD06B070BD00BFD005002052
:10D5E000ED820020801A0600F0B589B004460D4691
:10D5F00016460021142268461F46FEF7A7FC204667
:10D60000FFF76CFEE37A002B6ED0E188227E206863
:10D61000FFF70EF86846FFF70BFC7020ADF800002E
:10D620000297208A9DF83870012302224FF48071FE
:10D63000ADF80230ADF80C20ADF81010002F0CBF83
:10D64000082700270C282BD8DFE800F0072A2A2A11
:10D65000102A2A2A192A2A2A2200E0686946FFF796
:10D66000E1FAE0683946FFF7EDFB19E0E06869464A
:10D67000FFF71EFBE0683946FFF7EEFB10E0E068BD
:10D680006946FFF75BFBE0683946FFF7EFFB07E011
:10D69000E0686946FFF798FBE0683946FFF7F0FB62
:10D6A00005A8FFF79BFAE068104988420CD0104AA1
:10D6B000904209D00F4B984206D00F49884203D0C0
:10D6C0000E4A904218BF6D080121013D013EADF8A0
:10D6D00014500696FFF799FAE06805A9FFF738FAA3
:10D6E000E0680121FFF795FC09B0F0BD00000140A2
:10D6F0000004014000400140004401400048014056
:10D7000003287FB50E461AD0042802D10C4B1960AD
:10D7100015E02C2545430B4C00212859FFF771FDDE
:10D720006846FFF763FD0020ADF8080069462859F8
:10D730000096FFF7EFFC28590121FFF762FD7FBD3E
:10D74000C80600203804002030B52C254543104C75
:10D7500085B000212859FFF754FD6846FFF746FDC4
:10D760000C4A4FF480514FF40050ADF80410ADF85E
:10D7700006000023285900926946ADF80830FFF7EB
:10D78000C9FC28590121FFF73CFD05B030BD00BFA1
:10D7900038040020A08601002DE9F047634E2C27B5
:10D7A00096B04743BC19054613A889464FF00208B6
:10D7B000FEF72BFF13A88DF85180FEF726FFB4F873
:10D7C00010C0B4F80CA08DF850804CEA0A0188B261
:10D7D000139013A9A068FEF7D5FEA068E18922790D
:10D7E000FEF726FF618A2279A068FEF721FF0FA8C5
:10D7F000FFF7FCFCA26AB8590F9200230FA9ADF8FD
:10D800004430FFF787FC4A4B4A494B488DF8568015
:10D81000002221F8152020F8152023F81520A37DDB
:10D820004FF0010A8DF855A08DF857A0002B5FD05E
:10D830006846FEF78BFDBB594FF480301A1D4FF43C
:10D8400080610A90606A019206910491FEF7C2FC21
:10D85000B8594FF48072031D01930992606AFEF774
:10D8600094FD0028FAD1354BA1690390AA020091DA
:10D87000D1180291606A6946FEF738FD606A01219D
:10D88000FEF775FD40210122B859FFF7CEFC606A12
:10D89000FEF778FDC0F5806229482A4B20F8152054
:10D8A00094F8201023F8152016A800F8041DFEF7A0
:10D8B0009DFBE069FEF78EFCE069FEF766FD8046A1
:10D8C0000028F9D1402309906946E0690393FEF7E7
:10D8D0000DFDE0694146FEF753FDE069102101228C
:10D8E000FEF757FDB85980210122FFF79EFC13E097
:10D8F000207D88B11248134920F81530627D21F847
:10D90000153016A800F8042DFEF770FBB85940F248
:10D9100025515246FFF792FC0B4BB85903F805907E
:10D920000121FFF76EFC16B0BDE8F0873804002037
:10D93000808000206E78002072780020807800209F
:10D940007A780020767800206C780020F0B5314E8F
