:020000040800F2
:1000000000000220E9E70208250602082906020886
:100010003106020839060208410602080000000005
:100020000000000000000000000000004906020877
:100030004D060208000000005106020805060208ED
:1000400031E8020831E8020831E8020831E8020824
:1000500031E8020831E8020831E8020831E8020814
:1000600031E8020831E8020831E8020831E8020804
:1000700031E8020831E8020831E8020831E80208F4
:1000800031E802085507020831E8020831E80208A1
:1000900031E8020831E8020831E8020831E80208D4
:1000A00031E8020831E8020831E8020831E80208C4
:1000B00055060208A506020831E80208B50702083D
:1000C000AD070208C5070208BD07020831E80208AB
:1000D00031E802089D070208A507020831E8020876
:1000E00031E8020831E8020831E8020831E8020884
:1000F00031E8020831E8020831E8020831E8020874
:1001000031E8020831E8020831E8020831E8020863
:1001100031E8020831E8020831E8020831E8020853
:1001200031E8020831E80208BD06020831E8020899
:1001300031E8020831E8020831E8020831E8020833
:1001400031E8020831E8020831E8020831E8020823
:1001500031E8020831E802080D07020831E8020818
:1001600031E8020831E8020831E8020831E8020803
:1001700031E8020831E8020831E8020831E80208F3
:0801800031E8020831E8020831
:1080000010B5054C237833B9044B13B10448AFF3D2
:1080100000800123237010BD480A002000000000EA
:10802000B0630308084B10B51BB108490848AFF30B
:1080300000800848036803B910BD074B002BFBD034
:10804000BDE81040184700BF000000004C0A0020A7
:10805000B0630308440A00200000000081F00041E2
:1080600002E000BF83F0004330B54FEA41044FEA1D
:10807000430594EA050F08BF90EA020F1FBF54EAB8
:10808000000C55EA020C7FEA645C7FEA655C00F054
:10809000E2804FEA5454D4EB5555B8BF6D420CDD25
:1080A0002C4480EA020281EA030382EA000083EAA8
:1080B000010180EA020281EA0303362D88BF30BD48
:1080C00011F0004F4FEA01314FF4801C4CEA11319E
:1080D00002D0404261EB410113F0004F4FEA0333FD
:1080E0004CEA133302D0524263EB430394EA050F88
:1080F00000F0A780A4F10104D5F1200E0DDB02FAF7
:108100000EFC22FA05F2801841F1000103FA0EF28A
:10811000801843FA05F359410EE0A5F120050EF150
:10812000200E012A03FA0EFC28BF4CF0020C43FA81
:1081300005F3C01851EBE37101F0004507D54FF08E
:10814000000EDCF1000C7EEB00006EEB0101B1F5DE
:10815000801F1BD3B1F5001F0CD349085FEA300024
:108160004FEA3C0C04F101044FEA445212F5800F2F
:1081700080F09A80BCF1004F08BF5FEA500C50F1CC
:10818000000041EB045141EA050130BD5FEA4C0CAF
:10819000404141EB010111F4801FA4F10104E9D138
:1081A00091F0000F04BF01460020B1FA81F308BF2F
:1081B0002033A3F10B03B3F120020CDA0C3208DDFB
:1081C00002F1140CC2F10C0201FA0CF021FA02F1D6
:1081D0000CE002F11402D8BFC2F1200C01FA02F146
:1081E00020FA0CFCDCBF41EA0C019040E41AA2BF6B
:1081F00001EB0451294330BD6FEA04041F3C1CDA33
:108200000C340EDC04F11404C4F1200220FA04F052
:1082100001FA02F340EA030021FA04F345EA0301FC
:1082200030BDC4F10C04C4F1200220FA02F001FABE
:1082300004F340EA0300294630BD21FA04F0294640
:1082400030BD94F0000F83F4801306BF81F48011D9
:108250000134013D4EE77FEA645C18BF7FEA655C4C
:1082600029D094EA050F08BF90EA020F05D054EA1E
:10827000000C04BF1946104630BD91EA030F1EBF23
:108280000021002030BD5FEA545C05D14000494127
:1082900028BF41F0004130BD14F580043CBF01F51A
:1082A000801130BD01F0004545F0FE4141F4700100
:1082B0004FF0000030BD7FEA645C1ABF19461046DB
:1082C0007FEA655C1CBF0B46024650EA013406BFDC
:1082D00052EA033591EA030F41F4002130BD00BF9B
:1082E00090F0000F04BF0021704730B54FF4806458
:1082F00004F132044FF000054FF0000150E700BFD9
:1083000090F0000F04BF0021704730B54FF4806437
:1083100004F1320410F0004548BF40424FF0000124
:108320003EE700BF42004FEAE2014FEA31014FEA67
:1083300002701FBF12F07F4393F07F4F81F06051B6
:10834000704792F0000F14BF93F07F4F704730B525
:108350004FF4607401F0004521F0004120E700BFB8
:1083600050EA010208BF704730B54FF000050AE03F
:1083700050EA010208BF704730B511F0004502D540
:10838000404261EB41014FF4806404F132045FEA42
:10839000915C3FF4DCAE4FF003025FEADC0C18BFE7
:1083A00003325FEADC0C18BF033202EBDC02C2F1DD
:1083B000200300FA03FC20FA02F001FA03FE40EA6F
:1083C0000E0021FA02F11444C1E600BF70B54FF06F
:1083D000FF0C4CF4E06C1CEA11541DBF1CEA135551
:1083E00094EA0C0F95EA0C0F00F0DEF82C4481EAB9
:1083F000030621EA4C5123EA4C5350EA013518BFD9
:1084000052EA033541F4801143F4801338D0A0FBC5
:1084100002CE4FF00005E1FB02E506F00042E0FB72
:1084200003E54FF00006E1FB03569CF0000F18BF78
:108430004EF0010EA4F1FF04B6F5007F64F5407420
:1084400004D25FEA4E0E6D4146EB060642EAC621B3
:1084500041EA55514FEAC52040EA5E504FEACE2E20
:10846000B4F1FD0C88BFBCF5E06F1ED8BEF1004F23
:1084700008BF5FEA500E50F1000041EB045170BD9F
:1084800006F0004646EA010140EA020081EA0301E3
:10849000B4EB5C04C2BFD4EB0C0541EA045170BDDF
:1084A00041F480114FF0000E013C00F3AB8014F159
:1084B000360FDEBF002001F0004170BDC4F10004A2
:1084C000203C35DA0C341BDC04F11404C4F1200523
:1084D00000FA05F320FA04F001FA05F240EA02007E
:1084E00001F0004221F0004110EBD37021FA04F6B4
:1084F00042EB06015EEA430E08BF20EAD37070BD6E
:10850000C4F10C04C4F1200500FA04F320FA05F0CC
:1085100001FA04F240EA020001F0004110EBD370CE
:1085200041F100015EEA430E08BF20EAD37070BD3E
:10853000C4F1200500FA05F24EEA020E20FA04F317
:1085400001FA05F243EA020321FA04F001F00041C6
:1085500021FA04F220EA020000EBD3705EEA430E37
:1085600008BF20EAD37070BD94F0000F0FD101F066
:108570000046400041EB010111F4801F08BF013C9F
:10858000F7D041EA060195F0000F18BF704703F0DD
:108590000046520043EB030313F4801F08BF013D64
:1085A000F7D043EA0603704794EA0C0F0CEA135520
:1085B00018BF95EA0C0F0CD050EA410618BF52EADA
:1085C0004306D1D181EA030101F000414FF00000E0
:1085D00070BD50EA410606BF1046194652EA4306EE
:1085E00019D094EA0C0F02D150EA013613D195EA62
:1085F0000C0F05D152EA03361CBF104619460AD1AA
:1086000081EA030101F0004141F0FE4141F47001B3
:108610004FF0000070BD41F0FE4141F4780170BDA3
:1086200070B54FF0FF0C4CF4E06C1CEA11541DBF08
:108630001CEA135594EA0C0F95EA0C0F00F0A7F80A
:10864000A4EB050481EA030E52EA03354FEA013137
:1086500000F088804FEA03334FF0805545EA13134A
:1086600043EA12634FEA022245EA111545EA106512
:108670004FEA00260EF000419D4208BF964244F1A9
:10868000FD0404F5407402D25B084FEA3202B61AC8
:1086900065EB03055B084FEA32024FF480104FF49C
:1086A000002CB6EB020E75EB030E22BFB61A754610
:1086B00040EA0C005B084FEA3202B6EB020E75EBA3
:1086C000030E22BFB61A754640EA5C005B084FEA0B
:1086D0003202B6EB020E75EB030E22BFB61A7546D8
:1086E00040EA9C005B084FEA3202B6EB020E75EBE3
:1086F000030E22BFB61A754640EADC0055EA060EA4
:1087000018D04FEA051545EA16754FEA06164FEAE6
:10871000C30343EA52734FEAC2025FEA1C1CC0D192
:1087200011F4801F0BD141EA00014FF000004FF01F
:10873000004CB6E711F4801F04BF01430020B4F1E0
:10874000FD0C88BFBCF5E06F3FF6AFAEB5EB030C98
:1087500004BFB6EB020C5FEA500C50F1000041EB95
:10876000045170BD0EF0004E4EEA113114EB5C0462
:10877000C2BFD4EB0C0541EA045170BD41F4801135
:108780004FF0000E013C90E645EA060E8DE60CEA3D
:10879000135594EA0C0F08BF95EA0C0F3FF43BAF5A
:1087A00094EA0C0F0AD150EA01347FF434AF95EA11
:1087B0000C0F7FF425AF104619462CE795EA0C0FF5
:1087C00006D152EA03353FF4FDAE1046194622E7C2
:1087D00050EA410618BF52EA43067FF4C5AE50EA9C
:1087E00041047FF40DAF52EA43057FF4EBAE12E78C
:1087F0004FF0FF3C06E000BF4FF0010C02E000BF6D
:108800004FF0010C4DF804CD4FEA410C7FEA6C5C4F
:108810004FEA430C18BF7FEA6C5C1BD001B050EAF2
:10882000410C0CBF52EA430C91EA030F02BF90EADD
:10883000020F0020704710F1000F91EA030F58BF9C
:10884000994208BF90422CBFD8176FEAE37040F0FE
:10885000010070474FEA410C7FEA6C5C02D150EA9C
:10886000013C07D14FEA430C7FEA6C5CD6D152EA57
:10887000033CD3D05DF8040B704700BF844610461C
:1088800062468C461946634600E000BF01B5FFF71B
:10889000B7FF002848BF10F1000F01BD4DF808EDEB
:1088A000FFF7F4FF0CBF012000205DF808FB00BFBC
:1088B0004DF808EDFFF7EAFF34BF012000205DF816
:1088C00008FB00BF4DF808EDFFF7E0FF94BF012063
:1088D00000205DF808FB00BF4DF808EDFFF7CEFF64
:1088E00094BF012000205DF808FB00BF4DF808EDA3
:1088F000FFF7C4FF34BF012000205DF808FB00BF74
:108900004FEA410C7FEA6C5C02D150EA013C0AD18B
:108910004FEA430C7FEA6C5C02D152EA033C02D17D
:108920004FF0000070474FF0010070474FEA4102DE
:1089300012F5001215D211D56FF47873B3EB6252B1
:1089400012D94FEAC12343F0004343EA505311F0D8
:10895000004F23FA02F018BF404270474FF000006A
:10896000704750EA013005D111F0004008BF6FF0A8
:10897000004070474FF00000704700BF4FEA4102CF
:10898000B2F1E04324BFB3F5001CDCF1FE5C0DD96D
:1089900001F0004C4FEAC0024CEA5070B2F1004FB7
:1089A00040EB830008BF20F00100704711F0804FBA
:1089B00021D113F13872BCBF01F00040704741F47F
:1089C00080114FEA5252C2F11802C2F1200C10FA83
:1089D0000CF320FA02F018BF40F001004FEAC12367
:1089E0004FEAD32303FA0CFC40EA0C0023FA02F30B
:1089F0004FEA4303CCE77FEA625307D150EA0133E1
:108A00001EBF4FF0FE4040F44000704701F00040B0
:108A100040F0FE4040F40000704700BF80F000408E
:108A200002E000BF81F0004142001FBF5FEA410346
:108A300092EA030F7FEA226C7FEA236C6AD04FEA46
:108A40001262D2EB1363C1BFD2184140484041408B
:108A5000B8BF5B42192B88BF704710F0004F40F43D
:108A6000000020F07F4018BF404211F0004F41F459
:108A7000000121F07F4118BF494292EA030F3FD025
:108A8000A2F1010241FA03FC10EB0C00C3F1200338
:108A900001FA03F100F0004302D5494260EB4000C7
:108AA000B0F5000F13D3B0F1807F06D340084FEA32
:108AB000310102F10102FE2A51D2B1F1004F40EB27
:108AC000C25008BF20F0010040EA0300704749008F
:108AD00040EB000010F4000FA2F10102EDD1B0FA5A
:108AE00080FCACF1080CB2EB0C0200FA0CF0AABF4F
:108AF00000EBC25052421843BCBFD04018437047ED
:108B000092F0000F81F4000106BF80F400000132F2
:108B1000013BB5E74FEA41037FEA226C18BF7FEAC9
:108B2000236C21D092EA030F04D092F0000F08BF0B
:108B30000846704790EA010F1CBF0020704712F0F2
:108B40007F4F04D1400028BF40F00040704712F131
:108B500000723CBF00F50000704700F0004343F096
:108B6000FE4040F4000070477FEA226216BF0846CC
:108B70007FEA23630146420206BF5FEA412390EA8F
:108B8000010F40F4800070474FF0000304E000BF85
:108B900010F0004348BF40425FEA000C08BF704736
:108BA00043F0964301464FF000001CE050EA0102FA
:108BB00008BF70474FF000030AE000BF50EA01020F
:108BC00008BF704711F0004302D5404261EB4101FC
:108BD0005FEA010C02BF84460146002043F0B64321
:108BE00008BFA3F18053A3F50003BCFA8CF2083A46
:108BF000A3EBC25310DB01FA02FC634400FA02FC4F
:108C0000C2F12002BCF1004F20FA02F243EB020055
:108C100008BF20F00100704702F1200201FA02FCB7
:108C2000C2F1200250EA4C0021FA02F243EB0200AA
:108C300008BF20EADC707047844641EA000313F065
:108C400003036DD1403A41D351F8043B40F8043B53
:108C500051F8043B40F8043B51F8043B40F8043B16
:108C600051F8043B40F8043B51F8043B40F8043B06
:108C700051F8043B40F8043B51F8043B40F8043BF6
:108C800051F8043B40F8043B51F8043B40F8043BE6
:108C900051F8043B40F8043B51F8043B40F8043BD6
:108CA00051F8043B40F8043B51F8043B40F8043BC6
:108CB00051F8043B40F8043B51F8043B40F8043BB6
:108CC00051F8043B40F8043B403ABDD2303211D356
:108CD00051F8043B40F8043B51F8043B40F8043B96
:108CE00051F8043B40F8043B51F8043B40F8043B86
:108CF000103AEDD20C3205D351F8043B40F8043B56
:108D0000043AF9D2043208D0D2071CBF11F8013B53
:108D100000F8013B01D30B8803806046704700BF19
:108D2000082A13D38B078DD010F003038AD0C3F128
:108D30000403D21ADB071CBF11F8013B00F8013B0A
:108D400080D331F8023B20F8023B7BE7043AD9D3C9
:108D5000013A11F8013B00F8013BF9D20B7803709E
:108D60004B7843708B7883706046704740F0BF60EB
:108D7000024B40F40030D860704700BF00ED00E0C7
:108D8000C3785BB9037818485A09203203F01F03EF
:108D9000012101FA03F340F822307047134BF0B47D
:108DA000D9684778827804780F4EC943C1F302210D
:108DB000C1F10405EDB20F2307FA05F50B41EDB241
:108DC00013402B4304F1604202F561421B01DBB208
:108DD00082F800330378012203F01F015B098A4007
:108DE00046F82320F0BC704700E100E000ED00E011
:108DF000F0B544680A680E79D1F810E0CD680F4BE1
:108E000024F0407424F48074224342EA0622426033
:108E100087688A684E794EEA050422433B40134333
:108E200043EA460383600A7DC36A013AD2B223F45F
:108E3000700343EA0253C362F0BD00BFFDF7FFC0F9
:108E40000023012202750360037143718360C360D4
:108E50000361704770B442680668064D8468C16853
:108E6000054B6868324322430A43034013436B6057
:108E700070BC704700230140E030FCFF002303601A
:108E800043608360C3607047836819B923F00103AE
:108E90008360704743F0010383607047092970B411
:108EA0001DD9A1F10A0606EB4606C5680724B440A1
:108EB000B34025EA04042343062AC3601BD90C2AC5
:108EC00027D90D3A02EB8202C36A1F24944001FAAB
:108ED00002F223EA04010A43C26270BC704701EB4C
:108EE000410605690724B440B34025EA040423433E
:108EF000062A0361E3D8013A02EB8202436B1F2486
:108F0000944001FA02F223EA04010A43426370BC6E
:108F10007047073A02EB8202036B1F24944001FA68
:108F200002F223EA04010A43026370BC704700BFE7
:108F3000836843F080438360704700BF836819B93A
:108F400023F480738360704743F4807383607047B9
:108F5000836819B923F400738360704743F4007386
:108F60008360704702683749002310B422F0010281
:108F7000212488420260036043608360C360036110
:108F800044614DD0304B984235D0304B984239D067
:108F90002F4B98423DD02F4B984247D02E4B9842B2
:108FA00048D02E4B98421DD02D4B98421ED02D4BB1
:108FB000984243D02C4B98421DD02C4B984221D044
:108FC0002B4B984225D02B4B98422FD02A4B9842BE
:108FD00030D02A4B984205D0294B984206D05DF8F4
:108FE000044B7047274A43F8942CF8E74FF03D5262
:108FF00043F8AC2CF3E74FF4746243F8202C5DF88F
:10900000044B70474FF4741243F8382C5DF8044B4E
:1090100070474FF0746243F8502C5DF8044B704772
:10902000194B5DF8044B3D229A607047174A43F88C
:10903000642CD4E7164A43F87C2CD0E73D2243F851
:10904000082CCCE7106002402860024040600240DB
:10905000586002407060024088600240A060024098
:10906000B86002401064024028640240406402403C
:10907000586402407064024088640240A064024068
:10908000B864024000003D20006002403D00002026
:10909000400F002001F11802F0B48CCACD680E68B0
:1090A0004C692E43264316431E434A6A8B6A4D6B16
:1090B0008C6B3E4316431E430B4A0368CF6A35430D
:1090C0002C431A40224302600B6B42690D694C68C5
:1090D00089683B4322F00702134343614560846083
:1090E000C160F0BC704700BF3F801CF000230360EC
:1090F00043608360C360036143618361C361036252
:1091000043628362C362036343638363704700BF48
:10911000036819B923F001030360704743F00103AA
:109120000360704741607047406880B2704700BF7D
:10913000006800F0010070470B060CD54369AAB126
:1091400043F08003802943610FD0036801F01E01C2
:10915000194301607047802907D0002AF5D10368C0
:1091600001F01E0123EA01010160704723F0800332
:1091700080294361F3D1704770B4104A104E114CEE
:1091800021F0F02323F0C315B04298BF14468DB1EF
:10919000006800F01E0000EAD12289004CBF606820
:1091A000206823F08213184002D0101C18BF012041
:1091B00070BC7047406900F08002EEE7006002403A
:1091C0000F6402400064024010B4094B094C0A4A83
:1091D000A04294BF1846104611F0005F21F0F02124
:1091E00021F0821114BFC16081605DF8044B7047AB
:1091F000006002400F64024000640240044B1A69A0
:10920000002A03DA0349044A59605A60704700BFD4
:10921000003C024023016745AB89EFCD024A136948
:1092200043F0004313617047003C024010B483B028
:1092300039B101294BD002290CBF4FF400714FF412
:10924000407108225A4B8DF80620DA68D4033CD4CA
:10925000DA68D20626D505238DF806309DF806304B
:10926000012B15D1524A09E0D368DB0620D505232E
:109270008DF806309DF80630012B09D1D368DC0348
:10928000F2D501238DF806309DF80630012BF5D07C
:109290009DF80630DBB2082B23D0184603B05DF8EA
:1092A000044B7047DA6812F0EF0F13D00623D3E7B0
:1092B000D36813F0EF0F01D00623D9E7D36813F07A
:1092C000020F14BF07230823D2E70123C4E74FF49A
:1092D0008071B6E7DB6813F0020F14BF0723082381
:1092E000BAE7334A146924F44074146114692143C1
:1092F0001161116921F0F8011161116941F0020158
:1093000008431061116941F4803111618DF8073013
:10931000D368DC033DD4D368D8063CD505238DF84B
:1093200007309DF80730012B15D1214A09E0D36899
:10933000DB0621D505238DF807309DF80730012B7A
:1093400009D1D368D903F2D501238DF807309DF8F0
:109350000730012BF5D0164A9DF80730116921F02E
:10936000020111611169DBB221F0F80118461161A7
:1093700003B05DF8044B7047D36813F0EF0F01D0D2
:109380000623D8E7D36813F0020F14BF072308237E
:10939000D1E70123C3E7D36813F0EF0F01D0062311
:1093A000BDE7D36813F0020F14BF07230823B6E705
:1093B000003C024010B483B00822544B8DF80620C4
:1093C000DA68D4033CD4DA68D20626D505238DF8B2
:1093D00006309DF80630012B15D14C4A09E0D368C0
:1093E000DB0620D505238DF806309DF80630012BCD
:1093F00009D1D368DC03F2D501238DF806309DF83E
:109400000630012BF5D09DF80630DBB2082B20D0BA
:10941000184603B05DF8044B7047DA6812F0EF0F9E
:1094200010D00623D3E7D36813F0EF0F01D0062343
:10943000D9E7D36813F0020F14BF07230823D2E73C
:109440000123C4E7DB6813F0020F14BF07230823CE
:10945000BDE72E4A146924F440741461146944F47D
:1094600000741461146944F00104146101608DF802
:109470000730D368DC0339D4D368D80638D5052340
:109480008DF807309DF80730012B15D11F4A09E0F0
:10949000D368DB061DD505238DF807309DF807300E
:1094A000012B09D1D368D903F2D501238DF80730F8
:1094B0009DF80730012BF5D014499DF807300A6953
:1094C000DBB222F0010218460A6103B05DF8044BDA
:1094D0007047D36813F0EF0F01D00623DCE7D368A1
:1094E00013F0020F14BF07230823D5E70123C7E7B2
:1094F000D36813F0EF0F01D00623C1E7D36813F050
:10950000020F14BF07230823BAE700BF003C024044
:10951000014BD860704700BF003C024000222DE99B
:10952000F0471346D1F800E001274FF0030C04E0A8
:109530000133102B02F1020229D007FA03F434EAB6
:109540000E05F5D1D0F800800E790CFA02F5ED4346
:1095500008EA0508C0F80080D0F8009006FA02FA80
:10956000013E4AEA0909012E0CFA02F8C0F80090FF
:109570000FD9C568CC7925EA0805C560C56894404F
:1095800001332C43102BC46002F10202D5D1BDE897
:10959000F087866891F805903540856086688D79FA
:1095A00009FA02F949EA06068660466826EA0404D2
:1095B0004460466805FA03F4A4B234434460D8E733
:1095C00000234FF6FF720260037143718371C37110
:1095D000704700BF0369194214BF01200020704783
:1095E0000183704741837047CB0800EB830001F093
:1095F000070110B48900046A0F238B4024EA030397
:109600000362036A5DF8044B8A4042EA0301016287
:10961000704700BF08B5174B984212D0164B9842BE
:109620001BD0164B984200D008BD01214FF400001A
:1096300000F076F900214FF40000BDE8084000F08A
:109640006FB901214FF4001000F06AF900214FF4C6
:109650000010BDE8084000F063B901214FF480001C
:1096600000F05EF900214FF48000BDE8084000F0F2
:1096700057B900BF0054004000580040005C004053
:10968000F0B5054685B068460E46AC8800F0D2F8C5
:10969000029B32483268DFF8CCE0A0FB031024F0D4
:1096A0003F042404800C240C87B23C43AC802988FE
:1096B00021F001010904090C7245298024D85200C7
:1096C000B3FBF2F39BB2032B07F1010798BF04230E
:1096D0002F84AB832888B7887289B489318980B296
:1096E00040F0010028802B8823F4816323F00203DB
:1096F0001B043A431B0C134344EA01029BB292B28F
:109700002B802A8105B0F0BDF4884BF6FF718C42A6
:109710001DD002EB820202EB8202B3FBF2F39BB29A
:1097200043F48043C3F30B020AB943F001034FF43F
:1097300096710B4C01FB00F284FB0201D217C2EBC5
:10974000A112013292B243F400432A84C1E702EB32
:109750004202B3FBF2F39BB2E4E700BF83DE1B439C
:10976000D34D6210A0860100002310B44BF6FF71A8
:1097700041F288344FF480420460C180828183804A
:10978000038143815DF8044B704700BF038829B90A
:1097900023F001031B041B0C038070479BB243F0B2
:1097A00001030380704700BF038829B923F4807345
:1097B0001B041B0C038070479BB243F4807303802F
:1097C000704700BF038829B923F400731B041B0CE6
:1097D000038070479BB243F400730380704700BF5F
:1097E00022B901F0FE0189B20182704741F0010106
:1097F00089B20182704700BF038829B923F48063CE
:109800001B041B0C038070479BB243F480630380EE
:10981000704700BF01827047008AC0B2704700BF26
:1098200083889BB21AB923EA0101818070471943EA
:109830008180704710B4214CA36803F00C03042B03
:109840001BD0082B1CD01E4B03601C4A1D4994687A
:10985000C4F303140C5DE34043609468C4F38224B2
:109860000C5D23FA04F4846092685DF8044BC2F343
:1098700042328A5CD340C3607047134B0360E4E715
:109880006368616813F4800F636818BF0E4C01F0C1
:109890003F020CBF0A49B4FBF2F1C3F3881308BFBF
:1098A000B1FBF2F101FB03F2044B5B68C3F301432C
:1098B00001335B00B2FBF3F30360C6E700380240FC
:1098C0000024F4000000002000127A0029B9054AA3
:1098D000136B23EA000010637047024B1A6B1043AE
:1098E000186370470038024029B9054A136C23EA0F
:1098F000000010647047024B1A6C104318647047E4
:109900000038024029B9054A536C23EA000050642C
:109910007047024B5A6C104358647047003802403D
:1099200029B9054A136A23EA000010627047024B06
:109930001A6A1043186270470038024029B9054A74
:10994000536A23EA000050627047024B5A6A104380
:109950005862704700380240024A536F43F08073E8
:109960005367704700380240038829B923F0400349
:109970001B041B0C038070479BB243F04003038021
:10998000704700BF08B5604B984235D0B0F1804FAA
:109990003CD05E4B984243D05D4B98424AD05D4BE1
:1099A000984251D05C4B984258D05C4B98425FD063
:1099B0005B4B984266D05B4B98426DD05A4B9842B5
:1099C00076D05A4B98427FD0594B984200F088800D
:1099D000584B984200F08E80574B984200D008BDFB
:1099E00001214FF48070FFF79BFF00214FF480703E
:1099F000BDE80840FFF794BF01210846FFF79EFF2E
:109A000000210120BDE80840FFF798BF012108466A
:109A1000FFF786FF00210120BDE80840FFF780BF67
:109A200001210220FFF77CFF00210220BDE8084051
:109A3000FFF776BF01210420FFF772FF0021042009
:109A4000BDE80840FFF76CBF01210820FFF768FF61
:109A500000210820BDE80840FFF762BF0121102067
:109A6000FFF75EFF00211020BDE80840FFF758BF58
:109A700001212020FFF754FF00212020BDE80840ED
:109A8000FFF74EBF01210220FFF758FF00210220FF
:109A9000BDE80840FFF752BF01214FF48030FFF7C7
:109AA0004DFF00214FF48030BDE80840FFF746BF6E
:109AB00001214FF40030FFF741FF00214FF4003047
:109AC000BDE80840FFF73ABF01214FF48020FFF7BF
:109AD00035FF00214FF48020BDE80840FFF72EBF7E
:109AE00001214020FFF71CFF00214020BDE8084075
:109AF000FFF716BF01218020FFF712FF0021802011
:109B0000BDE80840FFF70CBF000001400004004022
:109B100000080040000C004000100040001400400D
:109B20000004014000400140004401400048014061
:109B300000180040001C004000200040224A03881A
:109B400090429BB212D002F5806290420ED0B0F1EA
:109B5000804F0BD0A2F58032904207D002F5806290
:109B6000904203D002F58062904203D14A8823F0EC
:109B700070031343154A90421ED002F58062904252
:109B80001AD00A8970B423F440730F4C4E680D88C4
:109B90009BB21343A0420380C662058506D00C4BDE
:109BA000984203D00123838270BC70478B7A03866E
:109BB0000123838270BC704703800B884A68C262AD
:109BC000038501238382704700000140001000409C
:109BD0000004014000234FF0FF3242600380038104
:109BE00043808372704700BF41627047038829B980
:109BF00023F080031B041B0C038070479BB243F0CF
:109C000080030380704700BF038829B923F0010354
:109C10001B041B0C038070479BB243F001030380BD
:109C2000704700BFF0B5048CB1F80CC04B880F88AA
:109C30001A4E24F001042404240C0484058CB0F88A
:109C400004E0048B25F0020524F073022D042D0C92
:109C50004CEA030312042B43120CB0429BB21FFACE
:109C60008EF442EA070208D00D4DA84205D089685B
:109C70008480028341630384F0BDCE890F8A4D8ABC
:109C800023F00803334324F440748E883D4323F0CB
:109C900004032C433343A4B2E9E700BF00000140B2
:109CA00000040140F0B5058C0C88B1F80CC0B1F887
:109CB00002E01E4E25F010052D042D0C0584028CAB
:109CC0008788058B22F020031B0425F4E6421B0C39
:109CD000120443EA0C13120C43EA0E1342EA042264
:109CE000B0429BB2BDB294B208D0114A904205D0A6
:109CF0008A688580048382630384F0BD23F0800238
:109D0000CB890F8A8E8892B242EA03124FF6BF7354
:109D1000134025F440654A8A45EA870543EA06135D
:109D200045EA82059BB2ADB2E2E700BF0000014008
:109D300000040140F0B5058CB1F80CC0B1F802E0A8
:109D40000C881D4F25F480752D042D0C0584028C84
:109D50008688858B22F400731B0425F073021B0C8C
:109D600043EA0C23120443EA0E23120CB8429BB2BE
:109D7000B5B244EA020408D0104A904205D08A687D
:109D800085808483C2630384F0BD23F40062CB89A1
:109D90000F8A8E8892B242EA03224FF6FF331340B5
:109DA00025F440554A8A45EA071543EA062345EA61
:109DB00002159BB2ADB2E2E7000001400004014091
:109DC000028CB1F802C022F480521204120C2DE968
:109DD000F041B1F80C80B1F800E00284058C87886E
:109DE000828B124E25F4005422F4E6432404240C02
:109DF0001B0444EA08341B0C44EA0C3443EA0E23E7
:109E0000B042A4B2BAB29BB209D0094DA84206D062
:109E100089688280838301640484BDE8F0810D8AAF
:109E200022F4804242EA851292B2F1E7000001403A
:109E3000000401400023038043808380836083818A
:109E4000C381038243827047038B23F008031B0402
:109E50001B0C194301837047038B23F400631B041D
:109E60001B0C43EA012189B201837047838B23F0E5
:109E700008031B041B0C194381837047838B23F455
:109E800000631B041B0C43EA012189B281837047E4
:109E900010B4048C01238B40A4B224EA030404848C
:109EA000038C5DF8044B8A4013439BB203847047D4
:109EB0000B88F0B5002B32D0042B57D0082B00F0C4
:109EC0008380028C4F88B1F804E00E89CD8822F49B
:109ED00080521204120C0284848B028C24F4407190
:109EE00022F4005309055B04090D5B0C41EA0E21C5
:109EF00043EA073341EA06319BB243F4805389B207
:109F000081830384828B22F440621204120C8283C8
:109F1000838B9BB243EA05239BB28383F0BD028C03
:109F20004E888D880B89CC8822F001021204120C15
:109F30000284028B018C92B222F0F30221F00A011A
:109F400042EA0313090446F001029BB2090C2B43B9
:109F5000114303830184038B23F00C031B041B0CAC
:109F60000383038B9BB223430383F0BD058C4F888F
:109F70008E88B1F808E0CC8825F010010904090C9E
:109F80000184028B018C22F440731B051B0D8AB2E5
:109F900043EA0E3322F0A0029BB242EA071243EAE0
:109FA000062392B29BB242F0100203830284038B19
:109FB00023F440631B041B0C0383038B9BB243EA13
:109FC00004239BB20383F0BD068C4F888D880A89D9
:109FD000CC8826F480710904090C0184818B038CE0
:109FE00089B29BB221F0F30123F4206341EA02120B
:109FF00043EA072392B29BB243F480732A438283DD
:10A000000384838B23F00C031B041B0C8383838B3F
:10A010009BB21C438483F0BD002301228280038015
:10A020004380C38003817047406B7047806B7047EB
:10A03000C06B7047006C7047B0F8443021B9C3F36F
:10A040000E03A0F8443070476FEA43436FEA53436E
:10A050009BB2A0F84430704783899BB21AB923EAB7
:10A06000010181817047194381817047038A828988
:10A0700011EA030092B203D0114214BF0120002064
:10A08000704700BFC94389B20182704783899BB280
:10A090001AB923EA01018181704719438181704710
:10A0A00008B52B4B984219D02A4B984220D02A4B06
:10A0B000984229D0294B984232D0294B98423BD024
:10A0C000284B984200D008BD01212020FFF736FC24
:10A0D00000212020BDE80840FFF730BC01211020FE
:10A0E000FFF72CFC00211020BDE80840FFF726BC3C
:10A0F00001214FF40030FFF713FC00214FF4003032
:10A10000BDE80840FFF70CBC01214FF48020FFF7A9
:10A1100007FC00214FF48020BDE80840FFF700BC99
:10A1200001214FF40020FFF7FBFB00214FF400203A
:10A13000BDE80840FFF7F4BB01214FF48010FFF7A2
:10A14000EFFB00214FF48010BDE80840FFF7E8BBAB
:10A15000001001400044004000480040004C004016
:10A160000050004000140140028A0B89F0B592B201
:10A17000CF888E88044622F440523A4348890D46DF
:10A1800089892282A289334392B2034322F4B052D6
:10A1900022F00C029BB21343A381A38A9BB223F447
:10A1A00040730B4385B0A3826846FFF743FB1D4B0A
:10A1B0009C4228D003F580639C4224D0029AA38954
:10A1C000A18913F4004F2B6802EB820214BF5B00DD
:10A1D0009B0002EB8202B2FBF3F0134AA2FB0035B4
:10A1E0006D096423090405FB13034FEA05150CD41C
:10A1F0001B013233A2FB0323C3F343132B439BB254
:10A20000238105B0F0BD039AD9E7D9003231A2FB12
:10A210000131C1F3421242EA05039BB2238105B02A
:10A22000F0BD00BF001001401F85EB5100234FF42B
:10A2300016510C22016042818380C3800381838197
:10A24000704700BF838929B923F400531B041B0CFA
:10A25000838170479BB243F400538381704700BFF2
:10A26000C1F30801818070478088C0F308007047FF
:10A27000838A9BB21AB923EA01018182704719438C
:10A280008182704710B401F01F04C1F34211012311
:10A29000012903FA04F311D002290CBF1030143045
:10A2A00032B902685DF8044B22EA03030360704789
:10A2B00002685DF8044B1343036070470C30EFE70E
:10A2C0000388194214BF012000207047C1F34212D5
:10A2D00010B4012301F01F04012A03FA04F317D07C
:10A2E000022A0CBF028A828A92B21340028892B27A
:10A2F00053B10123090A03FA01F10A4214BF1846B7
:10A3000000205DF8044B704718465DF8044B704719
:10A31000828992B21340E9E781880068FFF75AB951
:10A320000368828809B95A8370471A83704700BF4F
:10A330000268818853694B405361704730B583B0E0
:10A3400005460C466846FFF73BF9B4FA84F35B090F
:10A35000AC888DF8043001220023694628680094F7
:10A360008DF806308DF805308DF80720FFF7D6F808
:10A3700003B030BD70B5044682B06846FFF720F9DF
:10A38000A388667AA57A0093012202236946206891
:10A390008DF806608DF807508DF804208DF8053093
:10A3A000FFF7BCF802B070BD2DE9F0478CB0002378
:10A3B00005930493069300287DD0451E5FFA85FA25
:10A3C000464D0AF10107064605EB47172C46E068A3
:10A3D0000021FFF731FE203454F8140CFFF7D2FAB5
:10A3E000BC42F4D104A8FFF7F5FB07A8FFF722FD54
:10A3F0003B483C4C81464FF00208FFF70DFE012719
:10A4000004A88DF805808DF8067005EB4A15FFF756
:10A41000E1FB4FF6FF72532324350592ADF810305F
:10A4200002A8FFF7CDF8218894F804E0A3796279B7
:10A4300054F8040C029102A98DF80CE08DF80F304D
:10A440008DF80E208DF80D80FFF768F8227D618869
:10A4500054F8040CFFF7C8F8237E8DF8043001A8E7
:10A460008DF80770FEF78CFCA06804A9FFF766FB67
:10A470001B48FFF7D1FDA389A0681949A9F800304E
:10A480002034FFF715FD34F8121C54F8180C012283
:10A49000FFF7E2FDAC42C3D1104D0024E86801345F
:10A4A0000121FFF7B1FBE3B2B34205F12005F5D37B
:10A4B0000CB0BDE8F08704A8FFF78CFB07A8FFF7F6
:10A4C000B9FC0748FFF7A8FD0222012304A88DF874
:10A4D00005208DF80630FFF77DFBE9E740020020FC
:10A4E000640A0020440200202DE9F0478046444CD5
:10A4F000C8EBC80882B004EB88046846FFF760F830
:10A50000238AE06800930122022369468DF8062021
:10A510008DF805308DF80430FFF700F8238B606963
:10A5200000936946FEF7FAFF218AE068FFF758F8C2
:10A53000218B6069FFF754F80DF064FA643085B23E
:10A540004FF0080A06E00A200DF030FA0DF05AFA32
:10A55000A8424CD8218AE068DFF8A490FFF73AF8C7
:10A560000028F0D0218AE068FFF73CF80A200DF0BF
:10A570001DFA218AE068FFF733F80AF1FF3A0A2052
:10A580000DF014FA1AF0FF0AE4D1218B6069FFF78D
:10A5900029F80A200DF00AFA218AE068FFF722F86C
:10A5A0000A200DF003FA218AE068FFF719F80A2063
:10A5B0000DF0FCF9218B6069FFF712F8238AE0683F
:10A5C00000930122022369468DF805308DF804308E
:10A5D0008DF80620FEF7A2FF09EB8800238B406967
:10A5E00000936946FEF79AFF02B0BDE8F087054A7E
:10A5F000137A43F00803137202B0BDE8F08700BF7E
:10A60000D8040020C48F002030B5C0EBC004A300E4
:10A61000264CE25C87B01C440AB907B030BD054641
:10A62000E27EA17CE068FEF7DFFFE27EA17E60694A
:10A63000FEF7DAFF2846FFF757FF1D4B1B7A03F0A2
:10A64000080303F0FF05002BE7D16068FEF7E2FF87
:10A6500002A8FFF789F82A4660684FF44071FFF7B7
:10A66000DFF8144B606802930121FFF78FF802A90D
:10A670006068FFF705F84FF4A060FEF777FB222231
:10A6800001A801238DF804208DF807308DF80550BE
:10A690008DF80650FEF774FB212301A88DF80550B4
:10A6A0008DF80430FEF76CFB07B030BDD8040020F5
:10A6B000C48F0020801A06002DE9F043044689B0BB
:10A6C000002568460E46174698460495039505955D
:10A6D000069507959DF84090FEF772FFA388217AB2
:10A6E000627A00938DF80410A37A20688DF8073001
:10A6F000022569468DF806208DF80550FEF70EFFFD
:10A70000E37A13B909B0BDE8F083227EE1882068BE
:10A71000FEF76AFF03A8FFF78DFB238AADF81850F8
:10A72000B9F1000F4FF070004FF001014FF480724B
:10A73000CDF8148014BF00250825ADF80C00ADF845
:10A740000E10ADF81C200C2B10D8DFE803F04D0FD5
:10A750000F0F440F0F0F3B0F0F0F070003A9E06807
:10A76000FFF72EFB2946E068FFF788FB6846FFF7F6
:10A7700031FAE068214B984210D003F5806398428B
:10A780000CD003F57053984208D003F580639842CB
:10A7900004D003F58063984218BF7608013EB6B234
:10A7A000013F01210197ADF80060FFF72DFA6946DE
:10A7B000E068FFF7C3F9E0680121FFF73DFC09B04D
:10A7C000BDE8F08303A9E068FFF7B4FA2946E06822
:10A7D000FFF74CFBCAE703A9E068FFF763FA2946D5
:10A7E000E068FFF739FBC1E703A9E068FFF71AFA51
:10A7F0002946E068FFF728FBB8E700BF00000140EA
:10A80000032803D0042802D10F4B1960704770B59C
:10A810002C2505FB00F50D4E84B00C467059002127
:10A82000FFF710FD6846FFF701FD002369467059E8
:10A83000ADF808300094FFF797FC70590121FFF73D
:10A8400001FD04B070BD00BFFC05002040030020E6
:10A85000F0B5304E9BB07069FEF784FB70692D4CEB
:10A86000FEF766FC05460028F8D10BA8FEF73EFC73
:10A8700023682269606910954C330C934FF4806310
:10A8800011934FF4006312934FF4005313934FF45A
:10A89000807306250BA914931F4F0B924FF40033BE
:10A8A00015930F950D97FEF7F5FB01216069FEF7F3
:10A8B0002FFC01A8FEF7E2FA01A8FEF7CBFA05A8E3
:10A8C000FEF7BEFA012305A920688DF828508DF8FF
:10A8D00019308DF81830FEF78BFA04F1A805227EA6
:10A8E000217B54F81C0B0223FEF7D8FAAC42F6D1B8
:10A8F00030680121FEF72CFB30680121FEF71EFBBA
:10A9000001213068FEF7C0FA3068FEF711FB1BB07A
:10A91000F0BD00BF9801002024270020F0B5A34B14
:10A920001D7897B0002D79D0042D0DD1A04AA148F3
:10A93000A149A24B15700624002200780C701A70F1
:10A94000FFF732FD17B0F0BD9B489C49984B0A2495
:10A9500000260422032D04700E701A7000F0A281EC
:10A96000974C01A8FEF72CFE022501A88DF809508E
:10A97000FEF726FE228FA38F606B8DF808501343DD
:10A980009BB201A90193FEF7C9FD94F83020618FB5
:10A99000606BFEF729FE94F83020E18F606BFEF7C4
:10A9A00023FE03A8FFF742FC636DE06A039303A94B
:10A9B000ADF81460FFF7D8FB94F842308148824923
:10A9C000824A8DF80250012546808DF801504E8054
:10A9D0008DF803505680002B40F0868094F840207C
:10A9E00082B116A894F8412000F8582D7849794A88
:10A9F0004B805380FEF7C4F92A4640F22551E06AA5
:10AA0000FFF740FC0123744AE06A53701946FFF7D0
:10AA100019FC0020FFF7C8FC17B0F0BD6649674A73
:10AA2000634B674C0A200126087001A816701E703F
:10AA30000227FEF7C5FD01A88DF80970FEF7C0FDDD
:10AA4000228FA38F8DF8087013439BB2606B019324
:10AA500001A9FEF763FD94F83020618F606BFEF76B
:10AA6000C3FD94F83020E18F606BFEF7BDFD03A8B5
:10AA7000FFF7DCFB636DE06A039303A9ADF81450A4
:10AA8000FFF772FB94F842304E484F494F4A4580D9
:10AA90008DF802704D808DF801608DF8036055804F
:10AAA000002B40F09D8094F840205AB94A4BE06A50
:10AAB000002201215A70FFF7C5FB0120FFF774FC4B
:10AAC00017B0F0BD16A894F8412000F8582D404961
:10AAD000404A4B805380FEF753F9324640F22551ED
:10AAE000E06AFFF7CFFBE1E707AF3846FEF7FEFA73
:10AAF000E36A206D4FF4806204334FF48031089391
:10AB00000D920B921191FEF72DFAE36A4FF48072C9
:10AB1000043308931092206D294DFEF709FB03467C
:10AB20000028F8D16E6C286D2C4A0A933946099298
:10AB30000796FEF7AFFA0121286D254EFEF7E8FAD9
:10AB400001224021E86AFFF793FB286DFEF7ECFA3B
:10AB500016AA95F84C3002F8583DC0F580601D49A2
:10AB600003B2104673804B80FEF70AF9A86CFEF71B
:10AB7000F9F9A06C124EFEF7DBFA05460028F8D171
:10AB80004023B06C0A9339461095FEF783FA2946A4
:10AB9000B06CFEF7C7FAB06C01221021FEF7CCFAB8
:10ABA000F06A01228021FFF763FB2BE7F805002004
:10ABB000FA050020F6050020F1050020000600201F
:10ABC00040030020088600200C860020188E0020FC
:10ABD000148600201086002004860020188A002099
:10ABE00007AF3846FEF782FAE36A206D4FF48062C1
:10ABF00004334FF4803108930D920B921191FEF7BC
:10AC0000B1F9E36A4FF48072043308931092206D17
:10AC1000334DFEF78DFA03460028F8D16E6C286D8F
:10AC2000304A0A93394609920796FEF733FA012112
:10AC3000286D2D4EFEF76CFA01224021E86AFFF7DD
:10AC400017FB286DFEF770FA16AA95F84C3002F83B
:10AC5000583DC0F58060254903B2104673804B8093
:10AC6000FEF78EF8A86CFEF77DF9A06C1C4EFEF77F
:10AC70005FFA05460028F8D14023B06C0A933946A4
:10AC80001095FEF707FA2946B06CFEF74BFAB06C48
:10AC900001221021FEF750FAF06A01228021FFF70D
:10ACA000E7FA03E70E4C124DE06A3146FFF7CAFAA5
:10ACB00007A8FFF7BBFAE06AADF824604FF48052B2
:10ACC0004FF4005307A9ADF82020ADF822300795C6
:10ACD000FFF74AFAE06A0121FFF7B4FA30462FE69F
:10ACE00040030020188A00201486002010860020CF
:10ACF000A08601002DE9F043012199B00846FEF736
:10AD0000E5FD01210220FEF7E1FD01210420FEF70F
:10AD1000DDFD01214FF48040FEF7F4FD01210846DE
:10AD2000FEF7F0FD01210220FEF7ECFD01210846AF
:10AD3000FEF7DAFD01210220FEF7D6FD01210420F5
:10AD4000FEF7D2FD01214FF48070FEF7DBFD0121FB
:10AD50004FF48000FEF7C8FD01214FF48000FEF79C
:10AD6000B5FDAF48AF4CFFF79BF9AF48FFF798F937
:10AD700001211020FEF7C6FD01214FF40030FEF73F
:10AD8000B3FD01214FF48020FEF7AEFDFEF7E4FD98
:10AD900001A8FEF715FC4FF6FF72032301A9A34893
:10ADA00001928DF80830FEF7B9FB01A9A048FEF723
:10ADB000B5FB01A99F48FEF7B1FB4FF4A060FDF77A
:10ADC000D5FF04F5A0770126022509A8FEF7F8FBB8
:10ADD0002278637834F805EC54F8090C8DF82A20B1
:10ADE00009A98DF82B308DF828608DF82950CDF801
:10ADF00024E02034FEF792FB54F8293C34F8252C4B
:10AE00005A83BC42E1D18C4C022704F1800609A888
:10AE1000FEF7D6FB6278A37834F804EC257854F872
:10AE2000080C8DF82A2009A98DF82B308DF829708F
:10AE3000CDF824E08DF828502034FEF76FFB54F84D
:10AE4000283C34F8242C1A83B442E0D1DFF80C8279
:10AE50004FF00209444608F1C00709A8FEF7B0FB0D
:10AE6000257AA688627AA37A54F8200B8DF82850A8
:10AE700009A98DF8299009968DF82A208DF82B3094
:10AE8000FEF74CFBA7424FF00205E6D115F064FE39
:10AE90000020FFF7B9FB0120FFF7B6FB0A20674C43
:10AEA0000CF0B6FD03A8FEF78BFB03A88DF811503C
:10AEB000FEF786FBA289238A8DF8105013439BB2BC
:10AEC000A068039303A9FEF729FB2279E189A06812
:10AED000FEF78AFB2279618AA068FEF785FB05A848
:10AEE000FFF7A4F90026A36A2068059305A9ADF829
:10AEF0001C60FFF739F98DF80250A37D5048514985
:10AF0000514A068001250E808DF8015016808DF87B
:10AF100003501BBB227D82B901234C4A2068137069
:10AF20001946FFF78FF9D8F88030B8F884201A83D3
:10AF3000FFF78EFC19B0BDE8F08318A8627D00F819
:10AF4000602D4349434A0B801380FDF719FF2A46C1
:10AF500040F225512068FFF795F9DDE709A8FEF7D3
:10AF6000C5F82368606A4FF4806204334FF480317F
:10AF70000A930F920D921391FDF7F4FF23684FF49B
:10AF8000807204330A931292606A2C4DFEF7D0F857
:10AF900003460028F8D1AE69686A2F4A0C9309A9C4
:10AFA0000B920996FEF776F80121686A284EFEF7A3
:10AFB000AFF8012240212868FFF75AF9686AFEF7C6
:10AFC000B3F818AA95F8203002F8603DC0F580600B
:10AFD000204903B2104633800B80FDF7D1FEE869AB
:10AFE000FDF7C0FFE069154EFEF7A2F80546002800
:10AFF000F8D14023F0690C9309A91295FEF74AF89D
:10B000002946F069FEF78EF8F06901221021FEF75B
:10B0100093F8306801228021FFF72AF97CE700BF0E
:10B020000010014061000020004400400000024088
:10B030000004024000080240A0030020400300205A
:10B04000088600200C860020188E00200486002030
:10B050001486002010860020188600201804002086
:10B06000024B03EB4010FFF757B900BF5800002018
:10B0700008B5044B03EB4010FFF74EF9B0FA80F02F
:10B08000400908BD58000020024B012103EB40108D
:10B09000FFF746B958000020024B002103EB401097
:10B0A000FFF73EB958000020024B012103EB40108E
:10B0B000FFF744B958000020024B002103EB401079
:10B0C000FFF73CB9580000202DE9F04184B0A0F111
:10B0D00030040392ADF80A100F2C00F2AC80DFE8C8
:10B0E00014F019002F00360041004A004F00AA005A
:10B0F0005900A500E900AE00CD00AA00AE00CD00C9
:10B10000100013785A1E022A40F23281092004B03E
:10B11000BDE8F081A74F3B88002B00F0D980A64BFB
:10B120001B784BB1022B40F22781032B04D103F093
:10B1300003FD002840F0CC8000233B800F20E6E791
:10B140006A2111700A9A012300201360DFE79B4BEC
:10B1500003CB1B7813720A9B1060092451600020F6
:10B160001C60D4E790200421107051700A9A0223C9
:10B1700000201360CBE7924B01221A700020C6E733
:10B18000904913780A789A4200F2E580082004B0CA
:10B19000BDE8F081874F8B4900233B801378097805
:10B1A0009942F3D98849894EDFF824820B70032431
:10B1B0003D468048019203F0E3FE019A70B1338866
:10B1C00028885BB1984200F0E280804902E0984212
:10B1D00000F0DD8031F8023F002BF8D17548019274
:10B1E00001F098FE019AE8B1B8F8003029885BB107
:10B1F000994200F0D680764802E0994200F0D18072
:10B2000030F8023F002BF8D133885BB1994200F04F
:10B21000CC806E4802E0994200F0C78030F8023FCF
:10B22000002BF8D1013CC4D13C805BE0624B1B7821
:10B23000032B00F0A780022004B0BDE8F081137852
:10B24000002B47D09BB25C4AADF808303A381378EF
:10B2500018BF012040EA430002380528EBD801A3BB
:10B2600053F820F04BB3000837B200083FB3000892
:10B2700033B3000827B3000811B300084E4AADF8F5
:10B2800008303B38137818BF012040EA43000238E9
:10B290000528D0D801A353F820F000BFDBB2000886
:10B2A00037B20008DBB20008F9B20008EDB20008BE
:10B2B00005B30008404B1B78012BBCD10A990B60E9
:10B2C000137802A85B02ADF80A3002F0CBFA48B15D
:10B2D00000201CE74FF48073B5E702A802F096FD4A
:10B2E0000028F5D10F2004B0BDE8F08102A806F0D7
:10B2F000CBFB0028F6D0EBE702A802F01DFC0028EB
:10B30000F0D0E5E702A806F0DFFE0028EAD0DFE78C
:10B3100002A805F0BBFD0028E4D00A9ABDF8083069
:10B3200013600020F3E602A804F0B2FF0028D9D091
:10B33000F3E702A802F06CF90028D3D0EDE702A8E9
:10B3400001F012FF0028CDD0E7E702A802F036F89E
:10B350000028C7D0E1E7184A1B4912780B70531E2A
:10B36000012B01D801F0F2FE124B00201880CEE62E
:10B37000114A00201370CAE601F096FE00283FF43F
:10B38000DBAEA5E704F00AFC0028ABD0A0E70A4931
:10B3900003230B70FB70386810600A9A0423136053
:10B3A00096E7054901230B70F4E7034902230B706C
:10B3B000F0E700BF7C0A0020730A00203858030819
:10B3C000700A00207A0A002040200020200500207A
:10B3D000100500202DE9F04F254CDFF8A8A02070C3
:10B3E000CBB0814615F090FC15F0B6FB9AF8003012
:10B3F00083B1204D002628460121FEF79FFF2846F5
:10B400000121FEF78DFF9AF8003001369E4205F1CA
:10B410002005F0DB184EDFF868B00025357035B92F
:10B4200048461EF05DFA78BB3578002DF8D09AF8C2
:10B43000003083B10F4C002520460021FEF77EFF2F
:10B4400020460021FEF76CFF9AF8003001359D423E
:10B4500004F12004F0DB41F288300CF0D9FA074BFC
:10B4600000221A701BF07CFA4BB0BDE8F08F00BFD1
:10B47000740A002058000020700A00207A0A002078
:10B48000780A0020F2050020C64B1D8020781EF0AF
:10B4900027FA0028FAD0C44B18781EF057FAC14B8F
:10B4A0001A8882EA002212B293B2002A4FEA4303BA
:10B4B000BCBF83F4815383F001039BB213F4004FAC
:10B4C0004FEA43031CBF83F4815383F001039BB213
:10B4D00013F4004F4FEA43031CBF83F4815383F0FE
:10B4E00001039BB213F4004F4FEA43031CBF83F4E4
:10B4F000815383F001039BB213F4004F4FEA4303DF
:10B500001CBF83F4815383F001039BB213F4004FFB
:10B510004FEA43031CBF83F4815383F001039BB2C2
:10B5200013F4004F4FEA43031CBF83F4815383F0AD
:10B5300001039BB213F4004F4FEA43031CBF83F493
:10B54000815383F00103974A9BB22F2813807FF425
:10B550006BAF002015F016FB20781EF0C1F9002813
:10B56000FAD0914B18781EF0F1F9BBF80020069044
:10B5700003021BB25A4012B2079393B25B00002A37
:10B58000BCBF83F4815383F001039BB213F4004FDB
:10B590004FEA43031CBF83F4815383F001039BB242
:10B5A00013F4004F4FEA43031CBF83F4815383F02D
:10B5B00001039BB213F4004F4FEA43031CBF83F413
:10B5C000815383F001039BB213F4004F4FEA43030E
:10B5D0001CBF83F4815383F001039BB213F4004F2B
:10B5E0004FEA43031CBF83F4815383F001039BB2F2
:10B5F00013F4004F4FEA43031CBF83F4815383F0DD
:10B6000001039BB213F4004F4FEA43031CBF83F4C2
:10B61000815383F001039BB2ABF8003020781EF019
:10B620005FF90028FAD0604B18781EF08FF9BBF84C
:10B630000030000243401AB293B25B00002ABCBF44
:10B6400083F4815383F001039BB213F4004F4FEA5C
:10B6500043031CBF83F4815383F001039BB213F4B3
:10B66000004F4FEA43031CBF83F4815383F001036F
:10B670009BB213F4004F4FEA43031CBF83F4815382
:10B6800083F001039BB213F4004F4FEA43031CBF46
:10B6900083F4815383F001039BB213F4004F4FEA0C
:10B6A00043031CBF83F4815383F001039BB213F463
:10B6B000004F4FEA43031CBF83F4815383F001031F
:10B6C0009BB213F4004F4FEA43031CBF83F4815332
:10B6D00083F001039BB2ABF8003085B220781EF0F6
:10B6E000FFF80028FAD0304B18781EF02FF9BBF87D
:10B6F000002082EA002212B293B2002A4FEA4303EA
:10B70000BCBF83F4815383F001039BB213F4004F59
:10B710004FEA43031CBF83F4815383F001039BB2C0
:10B7200013F4004F4FEA43031CBF83F4815383F0AB
:10B7300001039BB213F4004F4FEA43031CBF83F491
:10B74000815383F001039BB213F4004F4FEA43038C
:10B750001CBF83F4815383F001039BB213F4004FA9
:10B760004FEA43031CBF83F4815383F001039BB270
:10B7700013F4004F4FEA43031CBF83F4815383F05B
:10B7800001039BB213F4004F4FEA43031CBF83F441
:10B79000815383F0010328439BB282B20392ABF83A
:10B7A000003003E0780A0020740A002020781EF0A0
:10B7B00097F80028FAD0CB4B18781EF0C7F8BBF8E2
:10B7C000002082EA002212B293B2002A4FEA430319
:10B7D000BCBF83F4815383F001039BB213F4004F89
:10B7E0004FEA43031CBF83F4815383F001039BB2F0
:10B7F00013F4004F4FEA43031CBF83F4815383F0DB
:10B8000001039BB213F4004F4FEA43031CBF83F4C0
:10B81000815383F001039BB213F4004F4FEA4303BB
:10B820001CBF83F4815383F001039BB213F4004FD8
:10B830004FEA43031CBF83F4815383F001039BB29F
:10B8400013F4004F4FEA43031CBF83F4815383F08A
:10B8500001039BB213F4004F4FEA43031CBF83F470
:10B86000815383F0010300289BB214BF02464FF4BA
:10B87000807202F1FF380DF12707ABF800300AABF8
:10B88000049298443D4620781EF02AF80028FAD009
:10B89000944B18781EF05AF8BBF8002005F8010FF9
:10B8A00082EA002212B293B25B00002ABCBF83F48A
:10B8B000815383F001039BB213F4004F4FEA43031B
:10B8C0001CBF83F4815383F001039BB213F4004F38
:10B8D0004FEA43031CBF83F4815383F001039BB2FF
:10B8E00013F4004F4FEA43031CBF83F4815383F0EA
:10B8F00001039BB213F4004F4FEA43031CBF83F4D0
:10B90000815383F001039BB213F4004F4FEA4303CA
:10B910001CBF83F4815383F001039BB213F4004FE7
:10B920004FEA43031CBF83F4815383F001039BB2AE
:10B9300013F4004F4FEA43031CBF83F4815383F099
:10B9400001039BB24545ABF800309CD120781DF037
:10B95000C7FF0028FAD0634B18781DF0F7FFBBF83B
:10B96000003083EA002002B293B25B00002ABCBF21
:10B9700083F4815383F001039BB213F4004F4FEA29
:10B9800043031CBF83F4815383F001039BB213F480
:10B99000004F4FEA43031CBF83F4815383F001033C
:10B9A0009BB213F4004F4FEA43031CBF83F481534F
:10B9B00083F001039BB213F4004F4FEA43031CBF13
:10B9C00083F4815383F001039BB213F4004F4FEAD9
:10B9D00043031CBF83F4815383F001039BB213F430
:10B9E000004F4FEA43031CBF83F4815383F00103EC
:10B9F0009BB213F4004F4FEA43031CBF83F48153FF
:10BA000083F001039BB2ABF8003020781DF068FF93
:10BA10000028FAD0334B18781DF098FFBBF800309F
:10BA200083EA002002B293B2002A4FEA4303BCBF6C
:10BA300083F4815383F001039BB213F4004F4FEA68
:10BA400043031CBF83F4815383F001039BB213F4BF
:10BA5000004F4FEA43031CBF83F4815383F001037B
:10BA60009BB213F4004F4FEA43031CBF83F481538E
:10BA700083F001039BB213F4004F4FEA43031CBF52
:10BA800083F4815383F001039BB213F4004F4FEA18
:10BA900043031CBF83F4815383F001039BB213F46F
:10BAA000004F4FEA43031CBF83F4815383F001032B
:10BAB0009BB213F4004F4FEA43031CBF83F481533E
:10BAC00083F0010309AD9BB20022ABF800302A607D
:10BAD000002B00F0C0824FF44073059303230493BE
:10BAE00002E000BF740A0020002201238DF8282004
:10BAF0002B60CC4A207800232E2113801EF09EFB61
:10BB0000C84B9DF91810B3F90020207882F4385200
:10BB100093B2002A4FEA4303BCBF83F4815383F0FE
:10BB200001039BB213F4004F4FEA43031CBF83F49D
:10BB3000815383F001039BB213F4004F4FEA430398
:10BB40001CBF83F4815383F001039BB213F4004FB5
:10BB50004FEA43031CBF83F4815383F001039BB27C
:10BB600013F4004F4FEA43031CBF83F4815383F067
:10BB700001039BB213F4004F4FEA43031CBF83F44D
:10BB8000815383F001039BB213F4004F4FEA430348
:10BB90001CBF83F4815383F001039BB213F4004F65
:10BBA0004FEA43031CBF83F4815383F001039D4A92
:10BBB0009BB213801EF042FB9A4B20781A88079B99
:10BBC00053401AB293B2002A4FEA4303BCBF83F436
:10BBD000815383F001039BB213F4004F4FEA4303F8
:10BBE0001CBF83F4815383F001039BB213F4004F15
:10BBF0004FEA43031CBF83F4815383F001039BB2DC
:10BC000013F4004F4FEA43031CBF83F4815383F0C6
:10BC100001039BB213F4004F4FEA43031CBF83F4AC
:10BC2000815383F001039BB213F4004F4FEA4303A7
:10BC30001CBF83F4815383F001039BB213F4004FC4
:10BC40004FEA43031CBF83F4815383F001039BB28B
:10BC500013F4004F039A4FEA430318BF83F4815350
:10BC60004FEA122818BF83F001036E4A9BB24FFAC5
:10BC700088F113801EF0E2FA6A4B20781B8883EA71
:10BC8000082212B293B2002A4FEA4303BCBF83F4E6
:10BC9000815383F001039BB213F4004F4FEA430337
:10BCA0001CBF83F4815383F001039BB213F4004F54
:10BCB0004FEA43031CBF83F4815383F001039BB21B
:10BCC00013F4004F4FEA43031CBF83F4815383F006
:10BCD00001039BB213F4004F4FEA43031CBF83F4EC
:10BCE000815383F001039BB213F4004F4FEA4303E7
:10BCF0001CBF83F4815383F001039BB213F4004F04
:10BD00004FEA43031CBF83F4815383F001039BB2CA
:10BD100013F4004F4FEA430318BF83F48153DDF857
:10BD20000C80404A18BF83F001039BB24FFA88F1A0
:10BD300013801EF083FA3B4B20781B885FFA88F251
:10BD400083EA022212B293B2002A4FEA4303BCBF35
:10BD500083F4815383F001039BB213F4004F4FEA45
:10BD600043031CBF83F4815383F001039BB213F49C
:10BD7000004F4FEA43031CBF83F4815383F0010358
:10BD80009BB213F4004F4FEA43031CBF83F481536B
:10BD900083F001039BB213F4004F4FEA43031CBF2F
:10BDA00083F4815383F001039BB213F4004F4FEAF5
:10BDB00043031CBF83F4815383F001039BB213F44C
:10BDC000004F4FEA43031CBF83F4815383F0010308
:10BDD0009BB213F4004F4FEA430318BF83F481531F
:10BDE000D5F800800F4A18BF83F001039BB24FFAC9
:10BDF00088F113801EF022FA0A4B0A491B8883EA55
:10BE0000082212B293B2002A4FEA4303BCBF83F464
:10BE1000815383F001039BB213F4004F4FEA4303B5
:10BE200002E000BF760A00201CBF83F4815383F038
:10BE300001039BB213F4004F4FEA43031CBF83F48A
:10BE4000815383F001039BB213F4004F4FEA430385
:10BE50001CBF83F4815383F001039BB213F4004FA2
:10BE60004FEA43031CBF83F4815383F001039BB269
:10BE700013F4004F4FEA43031CBF83F4815383F054
:10BE800001039BB213F4004F4FEA43031CBF83F43A
:10BE9000815383F001039BB213F4004F4FEA430335
:10BEA00018BF83F481532A6818BF83F001039BB243
:10BEB000002A0B8069DD4FF00008CDF80C9017F8D0
:10BEC000019F20784FFA89F11EF0B8F9704B704944
:10BED0001B8883EA092212B293B2002A4FEA430375
:10BEE000BCBF83F4815383F001039BB213F4004F72
:10BEF0004FEA43031CBF83F4815383F001039BB2D9
:10BF000013F4004F4FEA43031CBF83F4815383F0C3
:10BF100001039BB213F4004F4FEA43031CBF83F4A9
:10BF2000815383F001039BB213F4004F4FEA4303A4
:10BF30001CBF83F4815383F001039BB213F4004FC1
:10BF40004FEA43031CBF83F4815383F001039BB288
:10BF500013F4004F4FEA43031CBF83F4815383F073
:10BF600001039BB213F4004F4FEA430318BF83F45D
:10BF700081532A6818BF83F0010308F101089BB2BE
:10BF800042450B809BDCDDF80C90049920781EF074
:10BF900055F93F4B1A88059B53401AB2002A93B2B9
:10BFA00068DB5B009BB213F4004F4FEA43031CBFF6
:10BFB00083F4815383F001039BB213F4004F4FEAE3
:10BFC00043031CBF83F4815383F001039BB213F43A
:10BFD000004F4FEA43031CBF83F4815383F00103F6
:10BFE0009BB213F4004F4FEA43031CBF83F4815309
:10BFF00083F001039BB213F4004F4FEA43031CBFCD
:10C0000083F4815383F001039BB213F4004F4FEA92
:10C0100043031CBF83F4815383F001039BB213F4E9
:10C02000004F4FEA43031CBF83F4815383F00103A5
:10C030009BB2174A2078138043F307211EF0FEF8C5
:10C04000134B207893F900101EF0F8F8002014F03C
:10C05000C3FDFFF7E9B9049B00950AAA0399069866
:10C06000FFF732F82B6863B103021BB2059343B2AA
:10C0700004933EE55B0083F4815383F001039BB29C
:10C0800091E703021BB2059343B204932CE500BF72
:10C09000760A00202DE9F04FD94EDFF88883DFF8CB
:10C0A0008893D84FDFF884A383B0044620461DF060
:10C0B00017FC0028FAD020461DF048FC357898F887
:10C0C00000304540EDB23570062BEFD8DFE803F0C5
:10C0D0005B554F4A444004004FF0000388F800309D
:10C0E000002DE3D1022014F04DFD99F800B0BBF112
:10C0F000240F00F09F814CD8BBF1030F00F00082A9
:10C1000000F28280BBF1010F00F0E480BBF1020F6E
:10C1100040F0AE80204624211DF044FC20464D21F5
:10C120001DF040FC20463E211DF03CFC2046042131
:10C130003D551EF083F8594620461EF07FF82046F4
:10C14000B1491EF053F8395720461EF077F88FE0BA
:10C15000062388F80030A9E7062389F8000088F84C
:10C160000030A3E70423307088F800309EE73C28B5
:10C170009CD1032388F8003098E74D2896D10223FC
:10C1800088F8003092E7242890D1012388F8003005
:10C190008CE7BBF1720F00F06B816DD8BBF1650FBE
:10C1A00000F0D680BBF1680F62D1242120461DF03B
:10C1B000F9FB4D2120461DF0F5FB3E2120461DF0E8
:10C1C000F1FB102120463D551EF038F85946204617
:10C1D0001EF034F8DFF858B210E0DBED007AFDEE27
:10C1E000E77ACDED017ABDF90410013520461EF045
:10C1F00029F8082D0BF1040B00F0DD809AF80020DF
:10C200009542EADB0021F0E7BBF1040F00F08180EA
:10C21000BBF1050F2CD1242120461DF0C3FB4D217D
:10C2200020461DF0BFFB3E2120461DF0BBFB1A211E
:10C2300020463D551EF002F8594620461DF0FEFFEF
:10C24000724920461DF0D2FF714920461DF0CEFFF5
:10C25000704920461DF0CAFF6F4920461DF0C6FFF9
:10C26000202120461DF0EAFF395720461DF0E6FF49
:10C27000022014F0B1FC19E7BBF17C0F00F0A080A4
:10C28000BBF1F50FF4D1204624211DF08BFB204695
:10C290004D211DF087FB20463E211DF083FB2046EB
:10C2A00001213D551DF0CAFF20466FF00A011DF027
:10C2B000C5FF5A4B204693F900101DF0BFFF3957B8
:10C2C00020461DF0BBFF022014F086FC284603B078
:10C2D000BDE8F08F242120461DF064FB4D2120464F
:10C2E0001DF060FB3E2120461DF05CFB0321204633
:10C2F0003D551DF0A3FF594620461DF09FFF2946DE
:10C3000020461DF09BFF594620461DF097FF19213E
:10C31000A7E7242120461DF045FB4D2120461DF0B6
:10C3200041FB3E2120461DF03DFB062120463D55A8
:10C330001DF084FF594620461DF080FF38492046F5
:10C340001DF054FF294620461DF078FF294688E756
:10C35000242120461DF026FB4D2120461DF022FB06
:10C360003E2120461DF01EFB0F2120463D551DF0AD
:10C3700065FF594620461DF061FF4FF4FA712046D3
:10C380001DF060FF294620461DF05CFF294620462F
:10C390001DF058FF294620461DF062FF2946204621
:10C3A0001DF04CFF294620461DF04CFF4FF4FA715A
:10C3B00020461DF047FF395720461DF03FFF57E745
:10C3C000242120461DF0EEFA4D2120461DF0EAFA08
:10C3D0003E2120461DF0E6FA062120463D551DF07F
:10C3E0002DFF594620461DF029FF294620461DF005
:10C3F00029FF294620461DF025FF2946D8E700BF22
:10C40000710A0020FC7D002044580308545803089A
:10C41000605803086C580308705803087A0A002013
:10C420004C580308720A002041200020F205002029
:10C43000C4750020594620461DF0B4FA20464D210F
:10C440001DF0B0FA20463E211DF0ACFA2046042132
:10C450003D551DF0F3FE594620461DF0EFFE2946DE
:10C4600020461DF0FDFE395720461DF0E7FEFFE691
:10C47000242120461DF096FA4D2120461DF092FA07
:10C480003E2120461DF08EFA122120463D551DF01A
:10C49000D5FE594620461DF0D1FE40F2DC51204623
:10C4A0001DF0D0FE4FF47A7120461DF0CBFE4FF404
:10C4B000FA6120461DF0C6FE4FF47A7120461DF049
:10C4C000C1FE4FF47A7120461DF0BCFE294620467D
:10C4D0001DF0B4FE294620461DF0B0FE2946204638
:10C4E0001DF0ACFE294620461DF0A8FE2946204638
:10C4F0001DF0A4FE294620461DF0A0FE294657E760
:10C50000242120461DF04EFA4D2120461DF04AFA06
:10C510003E2120461DF046FA594620463D551DF065
:10C520008DFE594620461DF089FE012120461DF052
:10C5300085FE0E2120461DF081FE012191E600BFFF
:10C540002DE9F84305460BF05DFA00F59C540020F8
:10C55000083414F017FB02E01DF0C2F920B90BF00B
:10C5600051FA84422846F7D80BF04CFA844203D89B
:10C57000BDE8F84314F0C8BB294E2A4F3378012296
:10C580003A705BB1591EC9B2274B013103EB41111F
:10C5900000205A6920338B421060FAD132200BF010
:10C5A00037FA33788BB1DFF88090002409EB441818
:10C5B00040460121FDF7C2FE40460121FDF7B0FED5
:10C5C00001343378E4B29C42F0D3DFF8608028462F
:10C5D00088F80030FFF75EFD2846FEF7FBFE337853
:10C5E0007BB1114C002520460021FDF7A7FE204617
:10C5F0000021FDF795FE337801359D4204F12004BA
:10C60000F1DB002441F288300BF002FA88F8004098
:10C610001AF0A6F93C70BDE8F84314F075BB00BFF2
:10C62000F2050020A01F0020580000207A0A0020F8
:10C630002DE9F843634F81463878FEF73DFD09F157
:10C64000FF38002609F1010918F8015FAD000BF071
:10C650008FF945F4806545F00105EB07044638780D
:10C660000CD5FEF711FD6D0804F134040CD00BF06D
:10C670007FF98442FBD8EB073878F2D4FEF70CFD43
:10C680006D0804F13404F2D198F8003083EA060210
:10C69000D4074FEA560644BF86F4204686F00106CA
:10C6A0005B0883EA0602D0074FEA560644BF86F4C9
:10C6B000204686F001065B0883EA0602D1074FEAAE
:10C6C000560644BF86F4204686F001065B0883EADE
:10C6D0000602D2074FEA560644BF86F4204686F08B
:10C6E00001065B0883EA0602D5074FEA560644BFF7
:10C6F00086F4204686F001065B0883EA0602D4072A
:10C700004FEA560644BF86F4204686F001065B08D1
:10C7100083EA0602D0074FEA560644BF86F4204655
:10C7200086F0010686EA5303D9074FEA560644BF4E
:10C7300086F4204686F00106C14585D1F5B2AD00EC
:10C740000BF016F945F4806545F00105EA0704464B
:10C7500038780CD5FEF798FC6D0804F134040CD041
:10C760000BF006F98442FBD8EA073878F2D4FEF7DA
:10C7700093FC6D0804F13404F2D1350AAD000BF0DE
:10C78000F7F845F4806545F00105EB070446387875
:10C790000CD5FEF779FC6D0804F134040CD00BF0D5
:10C7A000E7F88442FBD8EB073878F2D4FEF774FC44
:10C7B0006D0804F13404F2D13878BDE8F843FEF78F
:10C7C00073BC00BF402000202DE9F04F85B00C461F
:10C7D0000D888DF80C0003A88DF80D50FFF728FF89
:10C7E0006368002D00F06F819A46B84F2B44019387
:10C7F00000254FF0010B0BF0BBF800F5FA6404E0E4
:10C800000BF0B6F8844240F259813878FEF728FCE4
:10C810000028F5D106460BF0ABF8B04600F127042E
:10C8200000F22F290BF0A4F88442FBD83878FEF7E9
:10C8300017FC343418B10BFA08F31E43B6B24C455A
:10C8400008F10108EED140F201233340B3F5007F37
:10C8500040F03481ABB2C6F3470683EA0602D40740
:10C860004FEA530344BF83F4204383F0010372086B
:10C8700082EA0301C8074FEA530344BF83F420430D
:10C8800083F00103520882EA0301C9074FEA530308
:10C8900044BF83F4204383F00103520882EA03017A
:10C8A000CD074FEA530344BF83F4204383F00103D1
:10C8B000520882EA0301CC074FEA530344BF83F4D2
:10C8C000204383F00103520882EA0301C8074FEABC
:10C8D000530344BF83F4204383F00103520882EAE8
:10C8E0000301C9074FEA530344BF83F4204383F095
:10C8F000010383EA5202D50746BF5B0883F4204553
:10C900005D080AF8016B019B48BF85F0010553459E
:10C910007FF471AF4FF0020801260BF029F800F503
:10C92000FA6404E00BF024F8844240F2C7803878BF
:10C93000FEF796FB0028F5D181460BF019F8CA46A0
:10C9400000F1270400F22F2B0BF012F88442FBD8E1
:10C950003878FEF785FB343428B106FA0AF040EA4D
:10C9600009001FFA80F9A3450AF1010AECD140F24F
:10C97000012309EA0303B3F5007F40F09F80ABB2C7
:10C98000C9F3470283EA0201CC074FEA530344BFCD
:10C9900083F4204383F00103520882EA0301C807AD
:10C9A0004FEA530344BF83F4204383F0010352084A
:10C9B00082EA0301C9074FEA530344BF83F42043CB
:10C9C00083F00103520882EA0301CD074FEA5303C3
:10C9D00044BF83F4204383F00103520882EA030139
:10C9E000CC074FEA530344BF83F4204383F0010391
:10C9F000520882EA0301C8074FEA530344BF83F495
:10CA0000204383F00103520882EA0301C9074FEA79
:10CA1000530344BF83F4204383F0010383EA5202AB
:10CA2000D20745BF5B0883F420445C0884F001040E
:10CA3000B8F1010825467FF470AF0AF099FF00F5C0
:10CA4000FA6503E00AF094FF854237D93878FEF79B
:10CA500007FB06460028F5D10AF08AFFB04600F130
:10CA6000270500F22F2AB1464FF0010B0AF080FF94
:10CA70008542FBD83878FEF7F3FA343528B10BFA43
:10CA800009F343EA08081FFA88F8AA4509F10109E1
:10CA9000ECD140F2012308EA0303B3F5007F0DD186
:10CAA000C8F34F085CB95FFA88F6A6F13006B6FA0B
:10CAB00086F67609304605B0BDE8F08F0026304690
:10CAC00005B0BDE8F08F014F24E700BF40200020F3
:10CAD0002DE9F04F874C85B00346020A00908DF88F
:10CAE0000F3020780191FE2300278DF80E208DF85D
:10CAF0000C308DF80D70FEF7DFFA0DF10C090DF119
:10CB0000100B19F8018B4FEA88060AF031FF46F442
:10CB1000806646F00106F307054620780CD5FEF73F
:10CB2000B3FA760805F134050CD00AF021FF8542EE
:10CB3000FBD8F3072078F2D4FEF7AEFA760805F1B9
:10CB40003405F2D187EA0803DE074FEA570744BFEE
:10CB500087F4204787F001074FEA580383EA07026A
:10CB6000D5074FEA570744BF87F4204787F00107EE
:10CB70005B0883EA0702D0074FEA570744BF87F4F0
:10CB8000204787F001075B0883EA0702D1074FEAD5
:10CB9000570744BF87F4204787F001075B0883EA03
:10CBA0000702D2074FEA570744BF87F4204787F0B0
:10CBB00001075B0883EA0702D6074FEA570744BF1D
:10CBC00087F4204787F001075B0883EA0702D5074F
:10CBD0004FEA570744BF87F4204787F0010787EAE9
:10CBE0005303D8074FEA570744BF87F4204787F01D
:10CBF0000107CB4585D1FEB2B6000AF0B9FE46F476
:10CC0000806646F00106F107054620780CD5FEF750
:10CC10003BFA760805F134050CD00AF0A9FE8542EE
:10CC2000FBD8F1072078F2D4FEF736FA760805F142
:10CC30003405F2D13E0AB6000AF09AFE46F4806648
:10CC400046F00106F207054620780CD5FEF71CFADF
:10CC5000760805F134050CD00AF08AFE8542FBD82F
:10CC6000F2072078F2D4FEF717FA760805F13405BA
:10CC7000F2D12078FEF718FA4FF0030A4FF0010BBB
:10CC80000AF076FE00F5FA6503E00AF071FE8542CF
:10CC900032D92078FEF7E4F906460028F5D10AF0EB
:10CCA00067FEB04600F1270500F22F2937460AF04B
:10CCB0005FFE8542FBD82078FEF7D2F9343528B1E3
:10CCC0000BFA07F343EA08081FFA88F8A94507F1A9
:10CCD0000107ECD140F2012308EA0303B3F5007F1A
:10CCE0000AD1C8F34708B8F1FF0F08D0304605B0A5
:10CCF000BDE8F08F40200020BAF1010AC0D1019BAD
:10CD000020781D68FEF7D8F9009B002B00F0FD800D
:10CD10002B44A8469A46002698F80070BF000AF0F7
:10CD200027FE47F4806747F00107FB070546207898
:10CD30000CD5FEF7A9F97F0805F134050CD00AF0EF
:10CD400017FE8542FBD8FB072078F2D4FEF7A4F942
:10CD50007F0805F13405F2D118F8013B83EA060299
:10CD6000D5074FEA560644BF86F4204686F00106F2
:10CD70005B0883EA0602D0074FEA560644BF86F4F2
:10CD8000204686F001065B0883EA0602D1074FEAD7
:10CD9000560644BF86F4204686F001065B0883EA07
:10CDA0000602D2074FEA560644BF86F4204686F0B4
:10CDB00001065B0883EA0602D7074FEA560644BF1E
:10CDC00086F4204686F001065B0883EA0602D50752
:10CDD0004FEA560644BF86F4204686F001065B08FB
:10CDE00083EA0602D0074FEA560644BF86F420467F
:10CDF00086F0010686EA5303D9074FEA560644BF78
:10CE000086F4204686F00106D04585D1370AF5B272
:10CE1000BF00AD0047F4806745F4806547F0010727
:10CE200045F001050AF0A4FDEA07064620780CD576
:10CE3000FEF72AF96D0806F134060CD00AF098FDC9
:10CE40008642FBD8EA072078F2D4FEF725F96D0870
:10CE500006F13406F2D10AF08BFDFB070546207877
:10CE60000CD5FEF711F97F0805F134050CD00AF056
:10CE70007FFD8542FBD8FB072078F2D4FEF70CF942
:10CE80007F0805F13405F2D12078FEF70DF9292647
:10CE90004FF001090AF06CFD00F5FA6503E00AF0B5
:10CEA00067FD85422ED92078FEF7DAF80028F6D102
:10CEB00007460AF05DFDB84600F1270500F22F2A6B
:10CEC0000AF056FDA842FBD32078FEF7C9F83435A6
:10CED00018B109FA08F0384387B2AA4508F10108E9
:10CEE000EED140F201233B40B3F5007F0AD1C7F3F6
:10CEF0004700A0F13006B6FA86F67609304605B04E
:10CF0000BDE8F08F013EC5D1F0E640F201452F4665
:10CF100088E700BF2DE9F04F604D614EEB6869680E
:10CF2000AA688BB0074601900DF1100B28685C468B
:10CF30000FC400233B60286920602B7D307823716B
:10CF4000FEF7BAF80DF10F070DF1240817F8015F8D
:10CF5000AD000AF00DFD45F4806545F00105EB07D5
:10CF6000044630780CD5FEF78FF86D0804F13404D0
:10CF70000CD00AF0FDFC8442FBD8EB073078F2D4E9
:10CF8000FEF78AF86D0804F13404F2D14745DDD18B
:10CF90003078FEF789F80DF108094FF0010A0AF020
:10CFA000E7FC00F5FA6403E00AF0E2FC844270D981
:10CFB0003078FEF755F80028F6D105460AF0D8FC7F
:10CFC0002F4600F1270400F22F280AF0D1FCA042DE
:10CFD000FBD33078FEF744F8343418B10AFA07F37B
:10CFE0001D43ADB2444507F10107EED140F20123E4
:10CFF0002B40B3F5007F4CD16D0809F8015BCB45A0
:10D00000CDD10AF0B5FC00F5FA6403E00AF0B0FCFB
:10D0100084423ED93078FEF723F80028F6D1054641
:10D020000AF0A6FC2F4600F1270400F22F284FF04B
:10D0300001090AF09DFCA042FBD33078FEF710F8FE
:10D04000343418B109FA07F0284385B2444507F192
:10D050000107EED140F201232B40B3F5007F18D138
:10D06000C5F34700302814D102A803220D4926F049
:10D0700059FF70B99DF80C209DF80D30019C9DF86A
:10D080000B10A17043EA0223012023800BB0BDE8FE
:10D09000F08F00200BB0BDE8F08F00BFD84103082F
:10D0A00040200020745803082DE9F04782B0FD228B
:10D0B000002301A88DF804208DF80530FFF7B8FA99
:10D0C000214E4FF002084FF001090AF051FC00F523
:10D0D000FA6403E00AF04CFC84422ED93078FDF764
:10D0E000BFFF0028F6D105460AF042FC2F4600F1AA
:10D0F000270400F22F2A0AF03BFCA042FBD3307831
:10D10000FDF7AEFF343418B109FA07F0284385B2B1
:10D11000A24507F10107EED140F201232B40B3F500
:10D12000007F0AD1C5F34700C12809D1012007F0CB
:10D1300095FF012002B0BDE8F087B8F10108C4D125
:10D14000002002B0BDE8F0874020002000B583B089
:10D15000002301A88DF804308DF80530FFF768FA38
:10D1600003B05DF804FB00BF2DE9F04F43884FF694
:10D17000FF72934283B0834600F01681DFF8388255
:10D180008DF807301B0A8DF8063098F80000FF2351
:10D1900000268DF804308DF80560FDF78DFF0DF148
:10D1A00004090DF1080A19F8017BBD000AF0E0FB43
:10D1B00045F4806545F00105EB07044698F800004A
:10D1C0000DD5FDF761FF6D0804F134040DD00AF0B0
:10D1D000CFFB8442FBD8EB0798F80000F1D4FDF7B1
:10D1E0005BFF6D0804F13404F1D186EA0703D80728
:10D1F0004FEA560644BF86F4204686F001067B08B7
:10D2000083EA0602D1074FEA560644BF86F4204659
:10D2100086F001065B0883EA0602D2074FEA56064B
:10D2200044BF86F4204686F001065B0883EA0602C6
:10D23000D7074FEA560644BF86F4204686F001061B
:10D240005B0883EA0602D5074FEA560644BF86F418
:10D25000204686F001065B0883EA0602D4074FEAFF
:10D26000560644BF86F4204686F001065B0883EA32
:10D270000602D0074FEA560644BF86F4204686F0E1
:10D28000010686EA5303D9074FEA560644BF86F4DF
:10D29000204686F00106D14585D1F5B2AD000AF0F1
:10D2A00067FB45F4806545F00105EA07044698F8F8
:10D2B00000000DD5FDF7E8FE6D0804F134040DD033
:10D2C0000AF056FB8442FBD8EA0798F80000F1D434
:10D2D000FDF7E2FE6D0804F13404F1D1350AAD002A
:10D2E0000AF046FB45F4806545F00105EB0704466E
:10D2F00098F800000DD5FDF7C7FE6D0804F1340461
:10D300000DD00AF035FB8442FBD8EB0798F80000FB
:10D31000F1D4FDF7C1FE6D0804F13404F1D198F8A1
:10D320000000FDF7C1FE4FF0030901270AF020FBC2
:10D3300000F5FA6403E00AF01BFB84422DD998F84B
:10D340000000FDF78DFE0028F5D105460AF010FB20
:10D350002E4600F1270400F22F2A0AF009FBA04212
:10D36000FBD398F80000FDF77BFE343418B107FAC0
:10D3700006F0284385B2A24506F10106EDD140F240
:10D3800001232B40B3F5007F07D1C5F347003028B8
:10D390000AD0002003B0BDE8F08FB9F10109C5D172
:10D3A000002003B0BDE8F08F5946072003B0BDE868
:10D3B000F04FFFF709BA00BF402000202DE9F04FE1
:10D3C00043884FF6FF72934283B0834600F0168184
:10D3D000DFF838828DF807301B0A8DF8063098F890
:10D3E0000000FF2300268DF804308DF80560FDF75E
:10D3F00063FE0DF104090DF1080A19F8017BBD0067
:10D400000AF0B6FA45F4806545F00105EB070446DD
:10D4100098F800000DD5FDF737FE6D0804F13404CF
:10D420000DD00AF0A5FA8442FBD8EB0798F800006B
:10D43000F1D4FDF731FE6D0804F13404F1D186EA30
:10D440000703D8074FEA560644BF86F4204686F005
:10D4500001067B0883EA0602D1074FEA560644BF5D
:10D4600086F4204686F001065B0883EA0602D207AE
:10D470004FEA560644BF86F4204686F001065B0854
:10D4800083EA0602D7074FEA560644BF86F42046D1
:10D4900086F001065B0883EA0602D5074FEA5606C6
:10D4A00044BF86F4204686F001065B0883EA060244
:10D4B000D4074FEA560644BF86F4204686F001069C
:10D4C0005B0883EA0602D0074FEA560644BF86F49B
:10D4D000204686F0010686EA5303D9074FEA56062E
:10D4E00044BF86F4204686F00106D14585D1F5B2C9
:10D4F000AD000AF03DFA45F4806545F00105EA0704
:10D50000044698F800000DD5FDF7BEFD6D0804F146
:10D5100034040DD00AF02CFA8442FBD8EA0798F8BC
:10D520000000F1D4FDF7B8FD6D0804F13404F1D129
:10D53000350AAD000AF01CFA45F4806545F0010596
:10D54000EB07044698F800000DD5FDF79DFD6D082A
:10D5500004F134040DD00AF00BFA8442FBD8EB0737
:10D5600098F80000F1D4FDF797FD6D0804F134043C
:10D57000F1D198F80000FDF797FD4FF0030901275E
:10D580000AF0F6F900F5FA6403E00AF0F1F98442D2
:10D590002DD998F80000FDF763FD0028F5D1054668
:10D5A0000AF0E6F92E4600F1270400F22F2A0AF0CD
:10D5B000DFF9A042FBD398F80000FDF751FD3434A9
:10D5C00018B107FA06F0284385B2A24506F1010614
:10D5D000EDD140F201232B40B3F5007F07D1C5F315
:10D5E000470030280AD0002003B0BDE8F08FB9F121
:10D5F0000109C5D1002003B0BDE8F08F59460320D2
:10D6000003B0BDE8F04FFFF7DFB800BF40200020B7
:10D610002DE9F04F43884FF6FF72934283B0834663
:10D6200000F01681DFF838828DF807301B0A8DF87C
:10D63000063098F80000FF2300268DF804308DF89E
:10D640000560FDF739FD0DF104090DF1080A19F81F
:10D65000017BBD000AF08CF945F4806545F00105B9
:10D66000EB07044698F800000DD5FDF70DFD6D0899
:10D6700004F134040DD00AF07BF98442FBD8EB07A7
:10D6800098F80000F1D4FDF707FD6D0804F13404AB
:10D69000F1D186EA0703D8074FEA560644BF86F45D
:10D6A000204686F001067B0883EA0602D1074FEA8E
:10D6B000560644BF86F4204686F001065B0883EADE
:10D6C0000602D2074FEA560644BF86F4204686F08B
:10D6D00001065B0883EA0602D7074FEA560644BFF5
:10D6E00086F4204686F001065B0883EA0602D50729
:10D6F0004FEA560644BF86F4204686F001065B08D2
:10D7000083EA0602D4074FEA560644BF86F4204651
:10D7100086F001065B0883EA0602D0074FEA560648
:10D7200044BF86F4204686F0010686EA5303D907F3
:10D730004FEA560644BF86F4204686F00106D145DE
:10D7400085D1F5B2AD000AF013F945F4806545F0D6
:10D750000105EA07044698F800000DD5FDF794FC92
:10D760006D0804F134040DD00AF002F98442FBD8AC
:10D77000EA0798F80000F1D4FDF78EFC6D0804F17B
:10D780003404F1D1350AAD000AF0F2F845F48065B1
:10D7900045F00105EB07044698F800000DD5FDF7AC
:10D7A00073FC6D0804F134040DD00AF0E1F88442F2
:10D7B000FBD8EB0798F80000F1D4FDF76DFC6D087D
:10D7C00004F13404F1D198F80000FDF76DFC4FF03E
:10D7D000030901270AF0CCF800F5FA6403E00AF027
:10D7E000C7F884422DD998F80000FDF739FC0028CD
:10D7F000F5D105460AF0BCF82E4600F1270400F2E8
:10D800002F2A0AF0B5F8A042FBD398F80000FDF7E4
:10D8100027FC343418B107FA06F0284385B2A24534
:10D8200006F10106EDD140F201232B40B3F5007F54
:10D8300007D1C5F3470030280AD0002003B0BDE867
:10D84000F08FB9F10109C5D1002003B0BDE8F08F18
:10D850005946042003B0BDE8F04FFEF7B5BF00BF46
:10D86000402000202DE9F04F4388B14C4FF6FF7265
:10D87000934285B000F014818DF80F301B0A8DF8AB
:10D880000E302078FF2300278DF80C308DF80D70B6
:10D89000FDF712FC03AB019399460DF1100A19F83C
:10D8A000018B4FEA88060AF063F846F4806646F07A
:10D8B0000106F307054620780CD5FDF7E5FB760851
:10D8C00005F134050CD00AF053F88542FBD8F30774
:10D8D0002078F2D4FDF7E0FB760805F13405F2D1AB
:10D8E00087EA0803DD074FEA570744BF87F420475C
:10D8F00087F001074FEA580383EA0702D0074FEA8F
:10D90000570744BF87F4204787F001075B0883EA85
:10D910000702D1074FEA570744BF87F4204787F033
:10D9200001075B0883EA0702D2074FEA570744BFA3
:10D9300087F4204787F001075B0883EA0702D607D0
:10D940004FEA570744BF87F4204787F001075B0879
