:020000040800F2
:1000000000000220F54E0208E16B0108E56B0108D3
:10001000ED6B0108F56B0108FD6B010800000000A5
:10002000000000000000000000000000056C010856
:10003000096C0108000000000D6C0108C16B01088B
:100040003D4F02083D4F02083D4F02083D4F020858
:100050003D4F02083D4F02083D4F02083D4F020848
:100060003D4F02083D4F02083D4F02083D4F020838
:100070003D4F02083D4F02083D4F02083D4F020828
:100080003D4F0208116D01083D4F02083D4F020827
:100090003D4F02083D4F02083D4F02083D4F020808
:1000A0003D4F02083D4F02083D4F02083D4F0208F8
:1000B000116C0108616C01083D4F0208716D010867
:1000C000696D0108816D0108796D01083D4F0208D5
:1000D0003D4F0208596D0108616D01083D4F02084E
:1000E0003D4F02083D4F02083D4F02083D4F0208B8
:1000F0003D4F02083D4F02083D4F02083D4F0208A8
:100100003D4F02083D4F02083D4F02083D4F020897
:100110003D4F02083D4F02083D4F02083D4F020887
:100120003D4F02083D4F0208796C01083D4F02081F
:100130003D4F02083D4F02083D4F02083D4F020867
:100140003D4F02083D4F02083D4F02083D4F020857
:100150003D4F02083D4F0208C96C01083D4F02089F
:100160003D4F02083D4F02083D4F02083D4F020837
:100170003D4F02083D4F02083D4F02083D4F020827
:080180003D4F02083D4F02084B
:1080000010B5054C237833B9044B13B10448AFF3D2
:1080100000800123237010BD180E00200000000016
:1080200000BD0208084B10B51BB108490848AFF362
:1080300000800848036803B910BD074B002BFBD034
:10804000BDE81040184700BF000000001C0E0020D3
:1080500000BD0208140E00200000000081F0004165
:1080600002E000BF83F0004330B54FEA41044FEA1D
:10807000430594EA050F08BF90EA020F1FBF54EAB8
:10808000000C55EA020C7FEA645C7FEA655C00F054
:10809000E2804FEA5454D4EB5555B8BF6D420CDD25
:1080A0002C4480EA020281EA030382EA000083EAA8
:1080B000010180EA020281EA0303362D88BF30BD48
:1080C00011F0004F4FEA01314FF4801C4CEA11319E
:1080D00002D0404261EB410113F0004F4FEA0333FD
:1080E0004CEA133302D0524263EB430394EA050F88
:1080F00000F0A780A4F10104D5F1200E0DDB02FAF7
:108100000EFC22FA05F2801841F1000103FA0EF28A
:10811000801843FA05F359410EE0A5F120050EF150
:10812000200E012A03FA0EFC28BF4CF0020C43FA81
:1081300005F3C01851EBE37101F0004507D54FF08E
:10814000000EDCF1000C7EEB00006EEB0101B1F5DE
:10815000801F1BD3B1F5001F0CD349085FEA300024
:108160004FEA3C0C04F101044FEA445212F5800F2F
:1081700080F09A80BCF1004F08BF5FEA500C50F1CC
:10818000000041EB045141EA050130BD5FEA4C0CAF
:10819000404141EB010111F4801FA4F10104E9D138
:1081A00091F0000F04BF01460020B1FA81F308BF2F
:1081B0002033A3F10B03B3F120020CDA0C3208DDFB
:1081C00002F1140CC2F10C0201FA0CF021FA02F1D6
:1081D0000CE002F11402D8BFC2F1200C01FA02F146
:1081E00020FA0CFCDCBF41EA0C019040E41AA2BF6B
:1081F00001EB0451294330BD6FEA04041F3C1CDA33
:108200000C340EDC04F11404C4F1200220FA04F052
:1082100001FA02F340EA030021FA04F345EA0301FC
:1082200030BDC4F10C04C4F1200220FA02F001FABE
:1082300004F340EA0300294630BD21FA04F0294640
:1082400030BD94F0000F83F4801306BF81F48011D9
:108250000134013D4EE77FEA645C18BF7FEA655C4C
:1082600029D094EA050F08BF90EA020F05D054EA1E
:10827000000C04BF1946104630BD91EA030F1EBF23
:108280000021002030BD5FEA545C05D14000494127
:1082900028BF41F0004130BD14F580043CBF01F51A
:1082A000801130BD01F0004545F0FE4141F4700100
:1082B0004FF0000030BD7FEA645C1ABF19461046DB
:1082C0007FEA655C1CBF0B46024650EA013406BFDC
:1082D00052EA033591EA030F41F4002130BD00BF9B
:1082E00090F0000F04BF0021704730B54FF4806458
:1082F00004F132044FF000054FF0000150E700BFD9
:1083000090F0000F04BF0021704730B54FF4806437
:1083100004F1320410F0004548BF40424FF0000124
:108320003EE700BF42004FEAE2014FEA31014FEA67
:1083300002701FBF12F07F4393F07F4F81F06051B6
:10834000704792F0000F14BF93F07F4F704730B525
:108350004FF4607401F0004521F0004120E700BFB8
:1083600050EA010208BF704730B54FF000050AE03F
:1083700050EA010208BF704730B511F0004502D540
:10838000404261EB41014FF4806404F132045FEA42
:10839000915C3FF4DCAE4FF003025FEADC0C18BFE7
:1083A00003325FEADC0C18BF033202EBDC02C2F1DD
:1083B000200300FA03FC20FA02F001FA03FE40EA6F
:1083C0000E0021FA02F11444C1E600BF70B54FF06F
:1083D000FF0C4CF4E06C1CEA11541DBF1CEA135551
:1083E00094EA0C0F95EA0C0F00F0DEF82C4481EAB9
:1083F000030621EA4C5123EA4C5350EA013518BFD9
:1084000052EA033541F4801143F4801338D0A0FBC5
:1084100002CE4FF00005E1FB02E506F00042E0FB72
:1084200003E54FF00006E1FB03569CF0000F18BF78
:108430004EF0010EA4F1FF04B6F5007F64F5407420
:1084400004D25FEA4E0E6D4146EB060642EAC621B3
:1084500041EA55514FEAC52040EA5E504FEACE2E20
:10846000B4F1FD0C88BFBCF5E06F1ED8BEF1004F23
:1084700008BF5FEA500E50F1000041EB045170BD9F
:1084800006F0004646EA010140EA020081EA0301E3
:10849000B4EB5C04C2BFD4EB0C0541EA045170BDDF
:1084A00041F480114FF0000E013C00F3AB8014F159
:1084B000360FDEBF002001F0004170BDC4F10004A2
:1084C000203C35DA0C341BDC04F11404C4F1200523
:1084D00000FA05F320FA04F001FA05F240EA02007E
:1084E00001F0004221F0004110EBD37021FA04F6B4
:1084F00042EB06015EEA430E08BF20EAD37070BD6E
:10850000C4F10C04C4F1200500FA04F320FA05F0CC
:1085100001FA04F240EA020001F0004110EBD370CE
:1085200041F100015EEA430E08BF20EAD37070BD3E
:10853000C4F1200500FA05F24EEA020E20FA04F317
:1085400001FA05F243EA020321FA04F001F00041C6
:1085500021FA04F220EA020000EBD3705EEA430E37
:1085600008BF20EAD37070BD94F0000F0FD101F066
:108570000046400041EB010111F4801F08BF013C9F
:10858000F7D041EA060195F0000F18BF704703F0DD
:108590000046520043EB030313F4801F08BF013D64
:1085A000F7D043EA0603704794EA0C0F0CEA135520
:1085B00018BF95EA0C0F0CD050EA410618BF52EADA
:1085C0004306D1D181EA030101F000414FF00000E0
:1085D00070BD50EA410606BF1046194652EA4306EE
:1085E00019D094EA0C0F02D150EA013613D195EA62
:1085F0000C0F05D152EA03361CBF104619460AD1AA
:1086000081EA030101F0004141F0FE4141F47001B3
:108610004FF0000070BD41F0FE4141F4780170BDA3
:1086200070B54FF0FF0C4CF4E06C1CEA11541DBF08
:108630001CEA135594EA0C0F95EA0C0F00F0A7F80A
:10864000A4EB050481EA030E52EA03354FEA013137
:1086500000F088804FEA03334FF0805545EA13134A
:1086600043EA12634FEA022245EA111545EA106512
:108670004FEA00260EF000419D4208BF964244F1A9
:10868000FD0404F5407402D25B084FEA3202B61AC8
:1086900065EB03055B084FEA32024FF480104FF49C
:1086A000002CB6EB020E75EB030E22BFB61A754610
:1086B00040EA0C005B084FEA3202B6EB020E75EBA3
:1086C000030E22BFB61A754640EA5C005B084FEA0B
:1086D0003202B6EB020E75EB030E22BFB61A7546D8
:1086E00040EA9C005B084FEA3202B6EB020E75EBE3
:1086F000030E22BFB61A754640EADC0055EA060EA4
:1087000018D04FEA051545EA16754FEA06164FEAE6
:10871000C30343EA52734FEAC2025FEA1C1CC0D192
:1087200011F4801F0BD141EA00014FF000004FF01F
:10873000004CB6E711F4801F04BF01430020B4F1E0
:10874000FD0C88BFBCF5E06F3FF6AFAEB5EB030C98
:1087500004BFB6EB020C5FEA500C50F1000041EB95
:10876000045170BD0EF0004E4EEA113114EB5C0462
:10877000C2BFD4EB0C0541EA045170BD41F4801135
:108780004FF0000E013C90E645EA060E8DE60CEA3D
:10879000135594EA0C0F08BF95EA0C0F3FF43BAF5A
:1087A00094EA0C0F0AD150EA01347FF434AF95EA11
:1087B0000C0F7FF425AF104619462CE795EA0C0FF5
:1087C00006D152EA03353FF4FDAE1046194622E7C2
:1087D00050EA410618BF52EA43067FF4C5AE50EA9C
:1087E00041047FF40DAF52EA43057FF4EBAE12E78C
:1087F0004FF0FF3C06E000BF4FF0010C02E000BF6D
:108800004FF0010C4DF804CD4FEA410C7FEA6C5C4F
:108810004FEA430C18BF7FEA6C5C1BD001B050EAF2
:10882000410C0CBF52EA430C91EA030F02BF90EADD
:10883000020F0020704710F1000F91EA030F58BF9C
:10884000994208BF90422CBFD8176FEAE37040F0FE
:10885000010070474FEA410C7FEA6C5C02D150EA9C
:10886000013C07D14FEA430C7FEA6C5CD6D152EA57
:10887000033CD3D05DF8040B704700BF844610461C
:1088800062468C461946634600E000BF01B5FFF71B
:10889000B7FF002848BF10F1000F01BD4DF808EDEB
:1088A000FFF7F4FF0CBF012000205DF808FB00BFBC
:1088B0004DF808EDFFF7EAFF34BF012000205DF816
:1088C00008FB00BF4DF808EDFFF7E0FF94BF012063
:1088D00000205DF808FB00BF4DF808EDFFF7CEFF64
:1088E00094BF012000205DF808FB00BF4DF808EDA3
:1088F000FFF7C4FF34BF012000205DF808FB00BF74
:108900004FEA410C7FEA6C5C02D150EA013C0AD18B
:108910004FEA430C7FEA6C5C02D152EA033C02D17D
:108920004FF0000070474FF0010070474FEA4102DE
:1089300012F5001215D211D56FF47873B3EB6252B1
:1089400012D94FEAC12343F0004343EA505311F0D8
:10895000004F23FA02F018BF404270474FF000006A
:10896000704750EA013005D111F0004008BF6FF0A8
:10897000004070474FF00000704700BF4FEA4102CF
:10898000B2F1E04324BFB3F5001CDCF1FE5C0DD96D
:1089900001F0004C4FEAC0024CEA5070B2F1004FB7
:1089A00040EB830008BF20F00100704711F0804FBA
:1089B00021D113F13872BCBF01F00040704741F47F
:1089C00080114FEA5252C2F11802C2F1200C10FA83
:1089D0000CF320FA02F018BF40F001004FEAC12367
:1089E0004FEAD32303FA0CFC40EA0C0023FA02F30B
:1089F0004FEA4303CCE77FEA625307D150EA0133E1
:108A00001EBF4FF0FE4040F44000704701F00040B0
:108A100040F0FE4040F40000704700BF80F000408E
:108A200002E000BF81F0004142001FBF5FEA410346
:108A300092EA030F7FEA226C7FEA236C6AD04FEA46
:108A40001262D2EB1363C1BFD2184140484041408B
:108A5000B8BF5B42192B88BF704710F0004F40F43D
:108A6000000020F07F4018BF404211F0004F41F459
:108A7000000121F07F4118BF494292EA030F3FD025
:108A8000A2F1010241FA03FC10EB0C00C3F1200338
:108A900001FA03F100F0004302D5494260EB4000C7
:108AA000B0F5000F13D3B0F1807F06D340084FEA32
:108AB000310102F10102FE2A51D2B1F1004F40EB27
:108AC000C25008BF20F0010040EA0300704749008F
:108AD00040EB000010F4000FA2F10102EDD1B0FA5A
:108AE00080FCACF1080CB2EB0C0200FA0CF0AABF4F
:108AF00000EBC25052421843BCBFD04018437047ED
:108B000092F0000F81F4000106BF80F400000132F2
:108B1000013BB5E74FEA41037FEA226C18BF7FEAC9
:108B2000236C21D092EA030F04D092F0000F08BF0B
:108B30000846704790EA010F1CBF0020704712F0F2
:108B40007F4F04D1400028BF40F00040704712F131
:108B500000723CBF00F50000704700F0004343F096
:108B6000FE4040F4000070477FEA226216BF0846CC
:108B70007FEA23630146420206BF5FEA412390EA8F
:108B8000010F40F4800070474FF0000304E000BF85
:108B900010F0004348BF40425FEA000C08BF704736
:108BA00043F0964301464FF000001CE050EA0102FA
:108BB00008BF70474FF000030AE000BF50EA01020F
:108BC00008BF704711F0004302D5404261EB4101FC
:108BD0005FEA010C02BF84460146002043F0B64321
:108BE00008BFA3F18053A3F50003BCFA8CF2083A46
:108BF000A3EBC25310DB01FA02FC634400FA02FC4F
:108C0000C2F12002BCF1004F20FA02F243EB020055
:108C100008BF20F00100704702F1200201FA02FCB7
:108C2000C2F1200250EA4C0021FA02F243EB0200AA
:108C300008BF20EADC707047844641EA000313F065
:108C400003036DD1403A41D351F8043B40F8043B53
:108C500051F8043B40F8043B51F8043B40F8043B16
:108C600051F8043B40F8043B51F8043B40F8043B06
:108C700051F8043B40F8043B51F8043B40F8043BF6
:108C800051F8043B40F8043B51F8043B40F8043BE6
:108C900051F8043B40F8043B51F8043B40F8043BD6
:108CA00051F8043B40F8043B51F8043B40F8043BC6
:108CB00051F8043B40F8043B51F8043B40F8043BB6
:108CC00051F8043B40F8043B403ABDD2303211D356
:108CD00051F8043B40F8043B51F8043B40F8043B96
:108CE00051F8043B40F8043B51F8043B40F8043B86
:108CF000103AEDD20C3205D351F8043B40F8043B56
:108D0000043AF9D2043208D0D2071CBF11F8013B53
:108D100000F8013B01D30B8803806046704700BF19
:108D2000082A13D38B078DD010F003038AD0C3F128
:108D30000403D21ADB071CBF11F8013B00F8013B0A
:108D400080D331F8023B20F8023B7BE7043AD9D3C9
:108D5000013A11F8013B00F8013BF9D20B7803709E
:108D60004B7843708B7883706046704740F0BF60EB
:108D7000024B40F40030D860704700BF00ED00E0C7
:108D8000C3785BB9037818485A09203203F01F03EF
:108D9000012101FA03F340F822307047134BF0B47D
:108DA000D9684778827804780F4EC943C1F302210D
:108DB000C1F10405EDB20F2307FA05F50B41EDB241
:108DC00013402B4304F1604202F561421B01DBB208
:108DD00082F800330378012203F01F015B098A4007
:108DE00046F82320F0BC704700E100E000ED00E011
:108DF000F0B544680A680E79D1F810E0CD680F4BE1
:108E000024F0407424F48074224342EA0622426033
:108E100087688A684E794EEA050422433B40134333
:108E200043EA460383600A7DC36A013AD2B223F45F
:108E3000700343EA0253C362F0BD00BFFDF7FFC0F9
:108E40000023012202750360037143718360C360D4
:108E50000361704770B442680668064D8468C16853
:108E6000054B6868324322430A43034013436B6057
:108E700070BC704700230140E030FCFF002303601A
:108E800043608360C3607047836819B923F00103AE
:108E90008360704743F0010383607047092970B411
:108EA0001DD9A1F10A0606EB4606C5680724B440A1
:108EB000B34025EA04042343062AC3601BD90C2AC5
:108EC00027D90D3A02EB8202C36A1F24944001FAAB
:108ED00002F223EA04010A43C26270BC704701EB4C
:108EE000410605690724B440B34025EA040423433E
:108EF000062A0361E3D8013A02EB8202436B1F2486
:108F0000944001FA02F223EA04010A43426370BC6E
:108F10007047073A02EB8202036B1F24944001FA68
:108F200002F223EA04010A43026370BC704700BFE7
:108F3000836843F080438360704700BF836819B93A
:108F400023F480738360704743F4807383607047B9
:108F5000836819B923F400738360704743F4007386
:108F60008360704702683749002310B422F0010281
:108F7000212488420260036043608360C360036110
:108F800044614DD0304B984235D0304B984239D067
:108F90002F4B98423DD02F4B984247D02E4B9842B2
:108FA00048D02E4B98421DD02D4B98421ED02D4BB1
:108FB000984243D02C4B98421DD02C4B984221D044
:108FC0002B4B984225D02B4B98422FD02A4B9842BE
:108FD00030D02A4B984205D0294B984206D05DF8F4
:108FE000044B7047274A43F8942CF8E74FF03D5262
:108FF00043F8AC2CF3E74FF4746243F8202C5DF88F
:10900000044B70474FF4741243F8382C5DF8044B4E
:1090100070474FF0746243F8502C5DF8044B704772
:10902000194B5DF8044B3D229A607047174A43F88C
:10903000642CD4E7164A43F87C2CD0E73D2243F851
:10904000082CCCE7106002402860024040600240DB
:10905000586002407060024088600240A060024098
:10906000B86002401064024028640240406402403C
:10907000586402407064024088640240A064024068
:10908000B864024000003D20006002403D00002026
:10909000400F002001F11802F0B48CCACD680E68B0
:1090A0004C692E43264316431E434A6A8B6A4D6B16
:1090B0008C6B3E4316431E430B4A0368CF6A35430D
:1090C0002C431A40224302600B6B42690D694C68C5
:1090D00089683B4322F00702134343614560846083
:1090E000C160F0BC704700BF3F801CF000230360EC
:1090F00043608360C360036143618361C361036252
:1091000043628362C362036343638363704700BF48
:10911000036819B923F001030360704743F00103AA
:109120000360704741607047406880B2704700BF7D
:10913000006800F0010070470B060CD54369AAB126
:1091400043F08003802943610FD0036801F01E01C2
:10915000194301607047802907D0002AF5D10368C0
:1091600001F01E0123EA01010160704723F0800332
:1091700080294361F3D1704770B4104A104E114CEE
:1091800021F0F02323F0C315B04298BF14468DB1EF
:10919000006800F01E0000EAD12289004CBF606820
:1091A000206823F08213184002D0101C18BF012041
:1091B00070BC7047406900F08002EEE7006002403A
:1091C0000F6402400064024010B4094B094C0A4A83
:1091D000A04294BF1846104611F0005F21F0F02124
:1091E00021F0821114BFC16081605DF8044B7047AB
:1091F000006002400F64024000640240044B1A69A0
:10920000002A03DA0349044A59605A60704700BFD4
:10921000003C024023016745AB89EFCD024A136948
:1092200043F0004313617047003C024010B483B028
:1092300039B101294BD002290CBF4FF400714FF412
:10924000407108225A4B8DF80620DA68D4033CD4CA
:10925000DA68D20626D505238DF806309DF806304B
:10926000012B15D1524A09E0D368DB0620D505232E
:109270008DF806309DF80630012B09D1D368DC0348
:10928000F2D501238DF806309DF80630012BF5D07C
:109290009DF80630DBB2082B23D0184603B05DF8EA
:1092A000044B7047DA6812F0EF0F13D00623D3E7B0
:1092B000D36813F0EF0F01D00623D9E7D36813F07A
:1092C000020F14BF07230823D2E70123C4E74FF49A
:1092D0008071B6E7DB6813F0020F14BF0723082381
:1092E000BAE7334A146924F44074146114692143C1
:1092F0001161116921F0F8011161116941F0020158
:1093000008431061116941F4803111618DF8073013
:10931000D368DC033DD4D368D8063CD505238DF84B
:1093200007309DF80730012B15D1214A09E0D36899
:10933000DB0621D505238DF807309DF80730012B7A
:1093400009D1D368D903F2D501238DF807309DF8F0
:109350000730012BF5D0164A9DF80730116921F02E
:10936000020111611169DBB221F0F80118461161A7
:1093700003B05DF8044B7047D36813F0EF0F01D0D2
:109380000623D8E7D36813F0020F14BF072308237E
:10939000D1E70123C3E7D36813F0EF0F01D0062311
:1093A000BDE7D36813F0020F14BF07230823B6E705
:1093B000003C024010B483B00822544B8DF80620C4
:1093C000DA68D4033CD4DA68D20626D505238DF8B2
:1093D00006309DF80630012B15D14C4A09E0D368C0
:1093E000DB0620D505238DF806309DF80630012BCD
:1093F00009D1D368DC03F2D501238DF806309DF83E
:109400000630012BF5D09DF80630DBB2082B20D0BA
:10941000184603B05DF8044B7047DA6812F0EF0F9E
:1094200010D00623D3E7D36813F0EF0F01D0062343
:10943000D9E7D36813F0020F14BF07230823D2E73C
:109440000123C4E7DB6813F0020F14BF07230823CE
:10945000BDE72E4A146924F440741461146944F47D
:1094600000741461146944F00104146101608DF802
:109470000730D368DC0339D4D368D80638D5052340
:109480008DF807309DF80730012B15D11F4A09E0F0
:10949000D368DB061DD505238DF807309DF807300E
:1094A000012B09D1D368D903F2D501238DF80730F8
:1094B0009DF80730012BF5D014499DF807300A6953
:1094C000DBB222F0010218460A6103B05DF8044BDA
:1094D0007047D36813F0EF0F01D00623DCE7D368A1
:1094E00013F0020F14BF07230823D5E70123C7E7B2
:1094F000D36813F0EF0F01D00623C1E7D36813F050
:10950000020F14BF07230823BAE700BF003C024044
:10951000014BD860704700BF003C024000222DE99B
:10952000F0471346D1F800E001274FF0030C04E0A8
:109530000133102B02F1020229D007FA03F434EAB6
:109540000E05F5D1D0F800800E790CFA02F5ED4346
:1095500008EA0508C0F80080D0F8009006FA02FA80
:10956000013E4AEA0909012E0CFA02F8C0F80090FF
:109570000FD9C568CC7925EA0805C560C56894404F
:1095800001332C43102BC46002F10202D5D1BDE897
:10959000F087866891F805903540856086688D79FA
:1095A00009FA02F949EA06068660466826EA0404D2
:1095B0004460466805FA03F4A4B234434460D8E733
:1095C00000234FF6FF720260037143718371C37110
:1095D000704700BF0369194214BF01200020704783
:1095E0000183704741837047CB0800EB830001F093
:1095F000070110B48900046A0F238B4024EA030397
:109600000362036A5DF8044B8A4042EA0301016287
:10961000704700BF08B5174B984212D0164B9842BE
:109620001BD0164B984200D008BD01214FF400001A
:1096300000F076F900214FF40000BDE8084000F08A
:109640006FB901214FF4001000F06AF900214FF4C6
:109650000010BDE8084000F063B901214FF480001C
:1096600000F05EF900214FF48000BDE8084000F0F2
:1096700057B900BF0054004000580040005C004053
:10968000F0B5054685B068460E46AC8800F0D2F8C5
:10969000029B32483268DFF8CCE0A0FB031024F0D4
:1096A0003F042404800C240C87B23C43AC802988FE
:1096B00021F001010904090C7245298024D85200C7
:1096C000B3FBF2F39BB2032B07F1010798BF04230E
:1096D0002F84AB832888B7887289B489318980B296
:1096E00040F0010028802B8823F4816323F00203DB
:1096F0001B043A431B0C134344EA01029BB292B28F
:109700002B802A8105B0F0BDF4884BF6FF718C42A6
:109710001DD002EB820202EB8202B3FBF2F39BB29A
:1097200043F48043C3F30B020AB943F001034FF43F
:1097300096710B4C01FB00F284FB0201D217C2EBC5
:10974000A112013292B243F400432A84C1E702EB32
:109750004202B3FBF2F39BB2E4E700BF83DE1B439C
:10976000D34D6210A0860100002310B44BF6FF71A8
:1097700041F288344FF480420460C180828183804A
:10978000038143815DF8044B704700BF038829B90A
:1097900023F001031B041B0C038070479BB243F0B2
:1097A00001030380704700BF038829B923F4807345
:1097B0001B041B0C038070479BB243F4807303802F
:1097C000704700BF038829B923F400731B041B0CE6
:1097D000038070479BB243F400730380704700BF5F
:1097E00022B901F0FE0189B20182704741F0010106
:1097F00089B20182704700BF038829B923F48063CE
:109800001B041B0C038070479BB243F480630380EE
:10981000704700BF01827047008AC0B2704700BF26
:1098200083889BB21AB923EA0101818070471943EA
:109830008180704710B4214CA36803F00C03042B03
:109840001BD0082B1CD01E4B03601C4A1D4994687A
:10985000C4F303140C5DE34043609468C4F38224B2
:109860000C5D23FA04F4846092685DF8044BC2F343
:1098700042328A5CD340C3607047134B0360E4E715
:109880006368616813F4800F636818BF0E4C01F0C1
:109890003F020CBF0A49B4FBF2F1C3F3881308BFBF
:1098A000B1FBF2F101FB03F2044B5B68C3F301432C
:1098B00001335B00B2FBF3F30360C6E700380240FC
:1098C0000024F4000000002000127A0029B9054AA3
:1098D000136B23EA000010637047024B1A6B1043AE
:1098E000186370470038024029B9054A136C23EA0F
:1098F000000010647047024B1A6C104318647047E4
:109900000038024029B9054A536C23EA000050642C
:109910007047024B5A6C104358647047003802403D
:1099200029B9054A136A23EA000010627047024B06
:109930001A6A1043186270470038024029B9054A74
:10994000536A23EA000050627047024B5A6A104380
:109950005862704700380240024A536F43F08073E8
:109960005367704700380240038829B923F0400349
:109970001B041B0C038070479BB243F04003038021
:10998000704700BF08B5604B984235D0B0F1804FAA
:109990003CD05E4B984243D05D4B98424AD05D4BE1
:1099A000984251D05C4B984258D05C4B98425FD063
:1099B0005B4B984266D05B4B98426DD05A4B9842B5
:1099C00076D05A4B98427FD0594B984200F088800D
:1099D000584B984200F08E80574B984200D008BDFB
:1099E00001214FF48070FFF79BFF00214FF480703E
:1099F000BDE80840FFF794BF01210846FFF79EFF2E
:109A000000210120BDE80840FFF798BF012108466A
:109A1000FFF786FF00210120BDE80840FFF780BF67
:109A200001210220FFF77CFF00210220BDE8084051
:109A3000FFF776BF01210420FFF772FF0021042009
:109A4000BDE80840FFF76CBF01210820FFF768FF61
:109A500000210820BDE80840FFF762BF0121102067
:109A6000FFF75EFF00211020BDE80840FFF758BF58
:109A700001212020FFF754FF00212020BDE80840ED
:109A8000FFF74EBF01210220FFF758FF00210220FF
:109A9000BDE80840FFF752BF01214FF48030FFF7C7
:109AA0004DFF00214FF48030BDE80840FFF746BF6E
:109AB00001214FF40030FFF741FF00214FF4003047
:109AC000BDE80840FFF73ABF01214FF48020FFF7BF
:109AD00035FF00214FF48020BDE80840FFF72EBF7E
:109AE00001214020FFF71CFF00214020BDE8084075
:109AF000FFF716BF01218020FFF712FF0021802011
:109B0000BDE80840FFF70CBF000001400004004022
:109B100000080040000C004000100040001400400D
:109B20000004014000400140004401400048014061
:109B300000180040001C004000200040224A03881A
:109B400090429BB212D002F5806290420ED0B0F1EA
:109B5000804F0BD0A2F58032904207D002F5806290
:109B6000904203D002F58062904203D14A8823F0EC
:109B700070031343154A90421ED002F58062904252
:109B80001AD00A8970B423F440730F4C4E680D88C4
:109B90009BB21343A0420380C662058506D00C4BDE
:109BA000984203D00123838270BC70478B7A03866E
:109BB0000123838270BC704703800B884A68C262AD
:109BC000038501238382704700000140001000409C
:109BD0000004014000234FF0FF3242600380038104
:109BE00043808372704700BF41627047038829B980
:109BF00023F080031B041B0C038070479BB243F0CF
:109C000080030380704700BF038829B923F0010354
:109C10001B041B0C038070479BB243F001030380BD
:109C2000704700BFF0B5048CB1F80CC04B880F88AA
:109C30001A4E24F001042404240C0484058CB0F88A
:109C400004E0048B25F0020524F073022D042D0C92
:109C50004CEA030312042B43120CB0429BB21FFACE
:109C60008EF442EA070208D00D4DA84205D089685B
:109C70008480028341630384F0BDCE890F8A4D8ABC
:109C800023F00803334324F440748E883D4323F0CB
:109C900004032C433343A4B2E9E700BF00000140B2
:109CA00000040140F0B5058C0C88B1F80CC0B1F887
:109CB00002E01E4E25F010052D042D0C0584028CAB
:109CC0008788058B22F020031B0425F4E6421B0C39
:109CD000120443EA0C13120C43EA0E1342EA042264
:109CE000B0429BB2BDB294B208D0114A904205D0A6
:109CF0008A688580048382630384F0BD23F0800238
:109D0000CB890F8A8E8892B242EA03124FF6BF7354
:109D1000134025F440654A8A45EA870543EA06135D
:109D200045EA82059BB2ADB2E2E700BF0000014008
:109D300000040140F0B5058CB1F80CC0B1F802E0A8
:109D40000C881D4F25F480752D042D0C0584028C84
:109D50008688858B22F400731B0425F073021B0C8C
:109D600043EA0C23120443EA0E23120CB8429BB2BE
:109D7000B5B244EA020408D0104A904205D08A687D
:109D800085808483C2630384F0BD23F40062CB89A1
:109D90000F8A8E8892B242EA03224FF6FF331340B5
:109DA00025F440554A8A45EA071543EA062345EA61
:109DB00002159BB2ADB2E2E7000001400004014091
:109DC000028CB1F802C022F480521204120C2DE968
:109DD000F041B1F80C80B1F800E00284058C87886E
:109DE000828B124E25F4005422F4E6432404240C02
:109DF0001B0444EA08341B0C44EA0C3443EA0E23E7
:109E0000B042A4B2BAB29BB209D0094DA84206D062
:109E100089688280838301640484BDE8F0810D8AAF
:109E200022F4804242EA851292B2F1E7000001403A
:109E3000000401400023038043808380836083818A
:109E4000C381038243827047038B23F008031B0402
:109E50001B0C194301837047038B23F400631B041D
:109E60001B0C43EA012189B201837047838B23F0E5
:109E700008031B041B0C194381837047838B23F455
:109E800000631B041B0C43EA012189B281837047E4
:109E900010B4048C01238B40A4B224EA030404848C
:109EA000038C5DF8044B8A4013439BB203847047D4
:109EB0000B88F0B5002B32D0042B57D0082B00F0C4
:109EC0008380028C4F88B1F804E00E89CD8822F49B
:109ED00080521204120C0284848B028C24F4407190
:109EE00022F4005309055B04090D5B0C41EA0E21C5
:109EF00043EA073341EA06319BB243F4805389B207
:109F000081830384828B22F440621204120C8283C8
:109F1000838B9BB243EA05239BB28383F0BD028C03
:109F20004E888D880B89CC8822F001021204120C15
:109F30000284028B018C92B222F0F30221F00A011A
:109F400042EA0313090446F001029BB2090C2B43B9
:109F5000114303830184038B23F00C031B041B0CAC
:109F60000383038B9BB223430383F0BD058C4F888F
:109F70008E88B1F808E0CC8825F010010904090C9E
:109F80000184028B018C22F440731B051B0D8AB2E5
:109F900043EA0E3322F0A0029BB242EA071243EAE0
:109FA000062392B29BB242F0100203830284038B19
:109FB00023F440631B041B0C0383038B9BB243EA13
:109FC00004239BB20383F0BD068C4F888D880A89D9
:109FD000CC8826F480710904090C0184818B038CE0
:109FE00089B29BB221F0F30123F4206341EA02120B
:109FF00043EA072392B29BB243F480732A438283DD
:10A000000384838B23F00C031B041B0C8383838B3F
:10A010009BB21C438483F0BD002301228280038015
:10A020004380C38003817047406B7047806B7047EB
:10A03000C06B7047006C7047B0F8443021B9C3F36F
:10A040000E03A0F8443070476FEA43436FEA53436E
:10A050009BB2A0F84430704783899BB21AB923EAB7
:10A06000010181817047194381817047038A828988
:10A0700011EA030092B203D0114214BF0120002064
:10A08000704700BFC94389B20182704783899BB280
:10A090001AB923EA01018181704719438181704710
:10A0A00008B52B4B984219D02A4B984220D02A4B06
:10A0B000984229D0294B984232D0294B98423BD024
:10A0C000284B984200D008BD01212020FFF736FC24
:10A0D00000212020BDE80840FFF730BC01211020FE
:10A0E000FFF72CFC00211020BDE80840FFF726BC3C
:10A0F00001214FF40030FFF713FC00214FF4003032
:10A10000BDE80840FFF70CBC01214FF48020FFF7A9
:10A1100007FC00214FF48020BDE80840FFF700BC99
:10A1200001214FF40020FFF7FBFB00214FF400203A
:10A13000BDE80840FFF7F4BB01214FF48010FFF7A2
:10A14000EFFB00214FF48010BDE80840FFF7E8BBAB
:10A15000001001400044004000480040004C004016
:10A160000050004000140140028A0B89F0B592B201
:10A17000CF888E88044622F440523A4348890D46DF
:10A1800089892282A289334392B2034322F4B052D6
:10A1900022F00C029BB21343A381A38A9BB223F447
:10A1A00040730B4385B0A3826846FFF743FB1D4B0A
:10A1B0009C4228D003F580639C4224D0029AA38954
:10A1C000A18913F4004F2B6802EB820214BF5B00DD
:10A1D0009B0002EB8202B2FBF3F0134AA2FB0035B4
:10A1E0006D096423090405FB13034FEA05150CD41C
:10A1F0001B013233A2FB0323C3F343132B439BB254
:10A20000238105B0F0BD039AD9E7D9003231A2FB12
:10A210000131C1F3421242EA05039BB2238105B02A
:10A22000F0BD00BF001001401F85EB5100234FF42B
:10A2300016510C22016042818380C3800381838197
:10A24000704700BF838929B923F400531B041B0CFA
:10A25000838170479BB243F400538381704700BFF2
:10A26000C1F30801818070478088C0F308007047FF
:10A27000838A9BB21AB923EA01018182704719438C
:10A280008182704710B401F01F04C1F34211012311
:10A29000012903FA04F311D002290CBF1030143045
:10A2A00032B902685DF8044B22EA03030360704789
:10A2B00002685DF8044B1343036070470C30EFE70E
:10A2C0000388194214BF012000207047C1F34212D5
:10A2D00010B4012301F01F04012A03FA04F317D07C
:10A2E000022A0CBF028A828A92B21340028892B27A
:10A2F00053B10123090A03FA01F10A4214BF1846B7
:10A3000000205DF8044B704718465DF8044B704719
:10A31000828992B21340E9E781880068FFF75AB951
:10A320000368828809B95A8370471A83704700BF4F
:10A330000268818853694B405361704770B5044689
:10A3400082B06846FFF73CF9A388667AA57A009345
:10A3500001220223694620688DF806608DF80750B7
:10A360008DF804208DF80530FFF7D8F802B070BDE5
:10A370002DE9F0478CB00023059304930693002841
:10A380007DD0451E5FFA85FA464D0AF10107064663
:10A3900005EB47172C46E0680021FFF74DFE2034FF
:10A3A00054F8140CFFF7EEFABC42F4D104A8FFF7FE
:10A3B00011FC07A8FFF73EFD3B483C4C81464FF09F
:10A3C0000208FFF729FE012704A88DF805808DF803
:10A3D000067005EB4A15FFF7FDFB4FF6FF7253239E
:10A3E00024350592ADF8103002A8FFF7E9F821886E
:10A3F00094F804E0A379627954F8040C029102A95C
:10A400008DF80CE08DF80F308DF80E208DF80D8052
:10A41000FFF784F8227D618854F8040CFFF7E4F814
:10A42000237E8DF8043001A88DF80770FEF7A8FC94
:10A43000A06804A9FFF782FB1B48FFF7EDFDA38985
:10A44000A0681949A9F800302034FFF731FD34F82D
:10A45000121C54F8180C0122FFF7FEFDAC42C3D1C8
:10A46000104D0024E86801340121FFF7CDFBE3B271
:10A47000B34205F12005F5D30CB0BDE8F08704A880
:10A48000FFF7A8FB07A8FFF7D5FC0748FFF7C4FDB7
:10A490000222012304A88DF805208DF80630FFF76D
:10A4A00099FBE9E740020020340E0020440200201E
:10A4B0002DE9F0478046444CC8EBC80882B004EB55
:10A4C00088046846FFF77CF8238AE068009301223D
:10A4D000022369468DF806208DF805308DF804308A
:10A4E000FFF71CF8238B606900936946FFF716F8A5
:10A4F000218AE068FFF774F8218B6069FFF770F834
:10A5000004F0F8FF643085B24FF0080A06E00A2034
:10A5100004F0C4FF04F0EEFFA8424CD8218AE068A2
:10A52000DFF8A490FFF756F80028F0D0218AE06801
:10A53000FFF758F80A2004F0B1FF218AE068FFF71E
:10A540004FF80AF1FF3A0A2004F0A8FF1AF0FF0AB8
:10A55000E4D1218B6069FFF745F80A2004F09EFFE3
:10A56000218AE068FFF73EF80A2004F097FF218A6D
:10A57000E068FFF735F80A2004F090FF218B60694E
:10A58000FFF72EF8238AE068009301220223694630
:10A590008DF805308DF804308DF80620FEF7BEFFEB
:10A5A00009EB8800238B406900936946FEF7B6FFEC
:10A5B00002B0BDE8F087054A137A43F0080313722E
:10A5C00002B0BDE8F08700BFD804002078950020D5
:10A5D00030B5C0EBC004A300264CE25C87B01C443D
:10A5E0000AB907B030BD0546E27EA17CE068FEF7FF
:10A5F000FBFFE27EA17E6069FEF7F6FF2846FFF7CB
:10A6000057FF1D4B1B7A03F0080303F0FF05002BD7
:10A61000E7D16068FEF7FEFF02A8FFF7A5F82A461B
:10A6200060684FF44071FFF7FBF8144B60680293C9
:10A630000121FFF7ABF802A96068FFF721F84FF49A
:10A64000A060FEF793FB222201A801238DF80420CD
:10A650008DF807308DF805508DF80650FEF790FB09
:10A66000212301A88DF805508DF80430FEF788FBF2
:10A6700007B030BDD804002078950020801A06006D
:10A680002DE9F043044689B0002568460E4617467A
:10A690009846049503950595069507959DF8409075
:10A6A000FEF78EFFA388217A627A00938DF804105A
:10A6B000A37A20688DF80730022569468DF80620B8
:10A6C0008DF80550FEF72AFFE37A13B909B0BDE80B
:10A6D000F083227EE1882068FEF786FF03A8FFF75B
:10A6E000A9FB238AADF81850B9F1000F4FF07000A4
:10A6F0004FF001014FF48072CDF8148014BF002593
:10A700000825ADF80C00ADF80E10ADF81C200C2B90
:10A7100010D8DFE803F04D0F0F0F440F0F0F3B0F62
:10A720000F0F070003A9E068FFF74AFB2946E0681E
:10A73000FFF7A4FB6846FFF74DFAE068214B98420B
:10A7400010D003F5806398420CD003F57053984203
:10A7500008D003F58063984204D003F580639842E3
:10A7600018BF7608013EB6B2013F01210197ADF84E
:10A770000060FFF749FA6946E068FFF7DFF9E06833
:10A780000121FFF759FC09B0BDE8F08303A9E06897
:10A79000FFF7D0FA2946E068FFF768FBCAE703A98C
:10A7A000E068FFF77FFA2946E068FFF755FBC1E74D
:10A7B00003A9E068FFF736FA2946E068FFF744FB93
:10A7C000B8E700BF00000140032803D0042802D1ED
:10A7D0000F4B1960704770B52C2505FB00F50D4E29
:10A7E00084B00C4670590021FFF72CFD6846FFF736
:10A7F0001DFD002369467059ADF808300094FFF73D
:10A80000B3FC70590121FFF71DFD04B070BD00BFFE
:10A81000BC05002040030020F0B5304E9BB07069AD
:10A82000FEF7A0FB70692D4CFEF782FC0546002860
:10A83000F8D10BA8FEF75AFC2368226960691095CD
:10A840004C330C934FF4806311934FF400631293D5
:10A850004FF4005313934FF4807306250BA9149300
:10A860001F4F0B924FF4003315930F950D97FEF782
:10A8700011FC01216069FEF74BFC01A8FEF7FEFA0E
:10A8800001A8FEF7E7FA05A8FEF7DAFA012305A901
:10A8900020688DF828508DF819308DF81830FEF7A3
:10A8A000A7FA04F1A805227E217B54F81C0B022391
:10A8B000FEF7F4FAAC42F6D130680121FEF748FB0E
:10A8C00030680121FEF73AFB01213068FEF7DCFA1F
:10A8D0003068FEF72DFB1BB0F0BD00BF98010020D3
:10A8E000602B0020F0B5A34B1D7897B0002D79D0D8
:10A8F000042D0DD1A04AA148A149A24B15700624F0
:10A90000002200780C701A70FFF732FD17B0F0BD0E
:10A910009B489C49984B0A2400260422032D04706E
:10A920000E701A7000F0A281974C01A8FEF748FE45
:10A93000022501A88DF80950FEF742FE228FA38F51
:10A94000606B8DF8085013439BB201A90193FEF789
:10A95000E5FD94F83020618F606BFEF745FE94F8BA
:10A960003020E18F606BFEF73FFE03A8FFF75EFC2F
:10A97000636DE06A039303A9ADF81460FFF7F4FB7D
:10A9800094F8423081488249824A8DF8025001256C
:10A9900046808DF801504E808DF803505680002B74
:10A9A00040F0868094F8402082B116A894F84120A7
:10A9B00000F8582D7849794A4B805380FEF7E0F92A
:10A9C0002A4640F22551E06AFFF75CFC0123744AF5
:10A9D000E06A53701946FFF735FC0020FFF7C8FC0A
:10A9E00017B0F0BD6649674A634B674C0A200126E1
:10A9F000087001A816701E700227FEF7E1FD01A87D
:10AA00008DF80970FEF7DCFD228FA38F8DF808709A
:10AA100013439BB2606B019301A9FEF77FFD94F88D
:10AA20003020618F606BFEF7DFFD94F83020E18FFE
:10AA3000606BFEF7D9FD03A8FFF7F8FB636DE06AD2
:10AA4000039303A9ADF81450FFF78EFB94F842303E
:10AA50004E484F494F4A45808DF802704D808DF821
:10AA600001608DF803605580002B40F09D8094F8C4
:10AA700040205AB94A4BE06A002201215A70FFF780
:10AA8000E1FB0120FFF774FC17B0F0BD16A894F8A5
:10AA9000412000F8582D4049404A4B805380FEF732
:10AAA0006FF9324640F22551E06AFFF7EBFBE1E730
:10AAB00007AF3846FEF71AFBE36A206D4FF4806259
:10AAC00004334FF4803108930D920B921191FEF7ED
:10AAD00049FAE36A4FF48072043308931092206DB0
:10AAE000294DFEF725FB03460028F8D16E6C286D32
:10AAF0002C4A0A93394609920796FEF7CBFA0121B0
:10AB0000286D254EFEF704FB01224021E86AFFF77D
:10AB1000AFFB286DFEF708FB16AA95F84C3002F83B
:10AB2000583DC0F580601D4903B2104673804B80CC
:10AB3000FEF726F9A86CFEF715FAA06C124EFEF788
:10AB4000F7FA05460028F8D14023B06C0A9339463D
:10AB50001095FEF79FFA2946B06CFEF7E3FAB06C49
:10AB600001221021FEF7E8FAF06A01228021FFF7A6
:10AB70007FFB2BE7B8050020BA050020B6050020B2
:10AB8000B1050020C005002040030020E88A002015
:10AB9000EC8A0020F8920020F48A0020F08A00203D
:10ABA000E48A0020F88E002007AF3846FEF79EFAB0
:10ABB000E36A206D4FF4806204334FF480310893D0
:10ABC0000D920B921191FEF7CDF9E36A4FF480726A
:10ABD000043308931092206D334DFEF7A9FA034613
:10ABE0000028F8D16E6C286D304A0A9339460992D4
:10ABF0000796FEF74FFA0121286D2D4EFEF788FAD1
:10AC000001224021E86AFFF733FB286DFEF78CFA3A
:10AC100016AA95F84C3002F8583DC0F580602549D9
:10AC200003B2104673804B80FEF7AAF8A86CFEF7BB
:10AC300099F9A06C1C4EFEF77BFA05460028F8D166
:10AC40004023B06C0A9339461095FEF723FA294643
:10AC5000B06CFEF767FAB06C01221021FEF76CFAB7
:10AC6000F06A01228021FFF703FB03E70E4C124D2F
:10AC7000E06A3146FFF7E6FA07A8FFF7D7FAE06A7D
:10AC8000ADF824604FF480524FF4005307A9ADF89B
:10AC90002020ADF822300795FFF766FAE06A01211F
:10ACA000FFF7D0FA30462FE640030020F88E002050
:10ACB000F48A0020F08A0020A08601002DE9F043EC
:10ACC000012199B00846FEF701FE01210220FEF79E
:10ACD000FDFD01210420FEF7F9FD01214FF4804024
:10ACE000FEF710FE01210846FEF70CFE01210220AE
:10ACF000FEF708FE01210846FEF7F6FD01210220BD
:10AD0000FEF7F2FD01210420FEF7EEFD01214FF4D4
:10AD10008070FEF7F7FD01214FF48000FEF7E4FD9F
:10AD200001214FF48000FEF7D1FDAF48AF4CFFF793
:10AD3000B7F9AF48FFF7B4F901211020FEF7E2FDA3
:10AD400001214FF40030FEF7CFFD01214FF48020A8
:10AD5000FEF7CAFDFEF700FE01A8FEF731FC4FF634
:10AD6000FF72032301A9A34801928DF80830FEF772
:10AD7000D5FB01A9A048FEF7D1FB01A99F48FEF72A
:10AD8000CDFB4FF4A060FDF7F1FF04F5A07701269D
:10AD9000022509A8FEF714FC2278637834F805EC44
:10ADA00054F8090C8DF82A2009A98DF82B308DF85C
:10ADB00028608DF82950CDF824E02034FEF7AEFB52
:10ADC00054F8293C34F8252C5A83BC42E1D18C4CF0
:10ADD000022704F1800609A8FEF7F2FB6278A37847
:10ADE00034F804EC257854F8080C8DF82A2009A9C9
:10ADF0008DF82B308DF82970CDF824E08DF828508F
:10AE00002034FEF78BFB54F8283C34F8242C1A83AA
:10AE1000B442E0D1DFF80C824FF00209444608F159
:10AE2000C00709A8FEF7CCFB257AA688627AA37A28
:10AE300054F8200B8DF8285009A98DF8299009960F
:10AE40008DF82A208DF82B30FEF768FBA7424FF0D3
:10AE50000205E6D10CF0E4FA0020FFF7B9FB01206F
:10AE6000FFF7B6FB0A20674C04F04AFB03A8FEF785
:10AE7000A7FB03A88DF81150FEF7A2FBA289238A35
:10AE80008DF8105013439BB2A068039303A9FEF7FB
:10AE900045FB2279E189A068FEF7A6FB2279618A49
:10AEA000A068FEF7A1FB05A8FFF7C0F90026A36A7A
:10AEB0002068059305A9ADF81C60FFF755F98DF8DA
:10AEC0000250A37D50485149514A068001250E8009
:10AED0008DF8015016808DF803501BBB227D82B97E
:10AEE00001234C4A206813701946FFF7ABF9D8F8D4
:10AEF0008030B8F884201A83FFF78EFC19B0BDE8C3
:10AF0000F08318A8627D00F8602D4349434A0B8006
:10AF10001380FDF735FF2A4640F225512068FFF7E0
:10AF2000B1F9DDE709A8FEF7E1F82368606A4FF49C
:10AF3000806204334FF480310A930F920D92139183
:10AF4000FEF710F823684FF4807204330A931292CC
:10AF5000606A2C4DFEF7ECF803460028F8D1AE6984
:10AF6000686A2F4A0C9309A90B920996FEF792F88A
:10AF70000121686A284EFEF7CBF80122402128689B
:10AF8000FFF776F9686AFEF7CFF818AA95F820302F
:10AF900002F8603DC0F58060204903B2104633805E
:10AFA0000B80FDF7EDFEE869FDF7DCFFE069154E6B
:10AFB000FEF7BEF805460028F8D14023F0690C934F
:10AFC00009A91295FEF766F82946F069FEF7AAF876
:10AFD000F06901221021FEF7AFF8306801228021CC
:10AFE000FFF746F97CE700BF001001406100002038
:10AFF00000440040000002400004024000080240FB
:10B00000A003002040030020E88A0020EC8A0020F2
:10B01000F8920020E48A0020F48A0020F08A0020C0
:10B02000F88A0020180400202DE9F04F2DED088B40
:10B03000B0EE409AF0EE609AADF52E5D8DB04FF413
:10B04000A9621A9025915CA8D3495BEC12AB8DEDF7
:10B05000181BFDF7F1FD4FF4A962D0490DF5D7603B
:10B06000FDF7EAFD4FF4A962CD490DF54060FDF70B
:10B07000E3FD0DF58A504FF4A962CA490830FDF787
:10B08000DBFDB0EE490AF0EE690A19F0B9FF55ECA4
:10B09000104BB0EE490AF0EE690A19F051FFB2A365
:10B0A000D3E9002351EC100B8DED000BFDF78EF969
:10B0B000AFA3D3E9002306460F4620462946FDF7F5
:10B0C00085F9DDE900238046894630463946FDF79B
:10B0D0007DF9224606460F462B4640464946FDF777
:10B0E00075F902460B4630463946FCF7BDFF41EC88
:10B0F000100B1AF095F959EC108B10EE100A52460D
:10B100005B464946FDF762F999A3D3E90023064659
:10B110000F46FCF7A9FF22462B46FDF757F992A3ED
:10B12000D3E90023CDE9020130463946FCF79CFF04
:10B13000DDE90023FDF74AF99DED021B41EC100B00
:10B140001AF06CF98CA3D3E90023204629468DED33
:10B15000260BFDF73BF922462B46FDF737F9024651
:10B160000B4687A1D1E90001FCF77CFF86A3D3E958
:10B17000002306460F4620462946FDF727F92246BA
:10B180002B46FDF723F902460B4677A1D1E90001D2
:10B19000FCF768FF02460B4630463946FDF740FA99
:10B1A000524604460D465B4650465946FCF75CFF46
:10B1B00042464B46FDF70AF9524606460F465B46A5
:10B1C00050465946FDF702F902460B4630463946CD
:10B1D000FCF74AFF02460B4620462946FCF744FF8F
:10B1E00041EC100B1AF01CF9DDE92601B0EE40AA83
:10B1F000F0EE60AAFDF7C2FB00EE100A08EE100A9E
:10B200001AF072F810EE100AFDF78CF8B0EE480A4A
:10B21000CDE900011AF0B8F810EE100AFDF782F837
:10B22000002204460D460023CDE90845FDF736FB14
:10B23000002801F0928556A3D3E900232046294631
:10B24000FCF712FF02460B4600205749FDF7E8F9CC
:10B250000DF5DE54CDE922010DF5B450183410304F
:10B260000125002100220023C4E90023C0E90023B6
:10B27000002901F067850129C4E90223C0E90223FE
:10B2800001F060850229C4E90423C0E9042301F028
:10B2900059850329C4E90623C0E9062301F0528534
:10B2A0000429C4E90823C0E9082301F04B850529D6
:10B2B000C4E90A23C0E90A2301F044850629C4E948
:10B2C0000C23C0E90C2301F03D850729C4E90E23B6
:10B2D000C0E90E2301F036850829C4E91023C0E92E
:10B2E000102301F02F850929C4E91223C0E9122394
:10B2F00001F028850A29C4E91423C0E914234FF07A
:10B3000000064FF0000701F01D850C29C4E9162343
:10B31000C0E9162341F037850DF504530DF5DE52D3
:10B3200018331032C3E90067C2E900670293049240
:10B330009DED087B0DF5B85282ED007B9DED007B05
:10B340000DF5E252083282ED007B0DF5B75218324E
:10B3500082ED007B1449154B0DF5B45200201032DC
:10B3600026E000BFAFF300804082E2E7EE65834154
:10B37000E811A546B044834140EC89C8D015B442D9
:10B38000B8C0D8CCA0841743002CB89E509F104161
:10B390003A8C30E28E79453EE09B020828A10208F3
:10B3A00070A60208B8AB02080000F03F3819002070
:10B3B000DDE90867C2E900010DF5DE520DF5E25145
:10B3C0001832002400250DF5E25004311B78066088
:10B3D000C2E9004507F100420A60002B68D1CE4F58
:10B3E00002263046FCF78CFF02460B46FCF73CFE7B
:10B3F000002204460D46C94BFCF734FE22462B467C
:10B40000FDF70EF941EC100B1AF00AF801360D2E7B
:10B41000A7EC020BE5D14FF0000ADFF80CB3D046E1
:10B420004FF0010908FB08F0FCF76AFF06460F46DB
:10B43000B8F1000F01F0A484B9F10D0F4C462BD0E8
:10B4400004EB0A050BEB0515601E00FB00F0FCF792
:10B4500057FF32463B46FCF705FE41EC100B19F056
:10B46000DFFF04FB04F085ED000BFCF749FF3246DB
:10B470003B46FCF7F7FD41EC100B19F0D1FF002023
:10B4800053EC102BA549FDF7CBF801340D2CC5E981
:10B49000020105F11005D7D108F10108B8F10D0F2F
:10B4A00009F101090AF10D0ABCD19D4A012313706B
:10B4B0009C4E0DF5B853D3E900AB96ED047B0DF52A
:10B4C000E25452465B46DDE9080108348DED067B07
:10B4D000D4E90045FCF77AFFDDE90623FCF776FFA7
:10B4E00022460DF5BB54804689461034C4E90089D4
:10B4F0002B46DDE90801FCF769FF524604460D467C
:10B500005B46DDE90001FCF761FF02460B46204681
:10B510002946FCF7A9FDDDE90623FCF757FF0DF5E9
:10B52000E55796ED067B04460D461837C7E90045FA
:10B5300042464B46DDE908018DED067BFCF746FFF0
:10B54000DDE90623FCF742FF224682468B460DF5D5
:10B55000BF54C4E900AB2B46DDE90801FCF736FF18
:10B56000424604460D464B46DDE90001FCF72EFF3E
:10B5700002460B4620462946FCF776FDDDE9062308
:10B58000FCF724FF0DF5E95796ED087B04460D46C0
:10B590000837C7E9004552465B46DDE908018DEDF5
:10B5A000067BFCF713FFDDE90623FCF70FFF2246BD
:10B5B0000DF5C254804689462B46DDE9080110345A
:10B5C000C4E90089FCF702FF524604460D465B467B
:10B5D000DDE90001FCF7FAFE02460B46204629464B
:10B5E000FCF742FDDDE90623FCF7F0FE0DF5EC5714
:10B5F00096ED0A7B04460D461837C7E900454246DA
:10B600004B46DDE908018DED067BFCF7DFFEDDE949
:10B610000623FCF7DBFE224682468B460DF5C65418
:10B62000C4E900AB2B46DDE90801FCF7CFFE42463A
:10B6300004460D464B46DDE90001FCF7C7FE024615
:10B640000B4620462946FCF70FFDDDE90623FCF7F3
:10B65000BDFE0DF5F05796ED0C7B04460D46083700
:10B66000C7E9004552465B46DDE908018DED067BE2
:10B67000FCF7ACFEDDE90623FCF7A8FE22460DF53B
:10B68000C954804689461034C4E900892B46DDE957
:10B690000801FCF79BFE524604460D465B46DDE979
:10B6A0000001FCF793FE02460B4620462946FCF7B4
:10B6B000DBFCDDE90623FCF789FE96ED0E7B0DF53C
:10B6C000F35704460D4618378DED067B42464B4630
:10B6D000DDE90801C7E90045FCF778FEDDE906234E
:10B6E000FCF774FE224682468B460DF5CD542B4660
:10B6F000C4E900ABDDE90801FCF768FE42460446F8
:10B700000D464B46DDE90001FCF760FE02460B46A4
:10B71000204629460AE000BFE01800200000F03F64
:10B7200038190020D0180020400E0020FCF79CFCA7
:10B73000DDE90623FCF74AFE0DF5F75796ED107B81
:10B7400004460D460837C7E9004552465B46DDE929
:10B7500008018DED067BFCF739FEDDE90623FCF7D9
:10B7600035FE22460DF5D054804689461034C4E992
:10B7700000892B46DDE90801FCF728FE5246044605
:10B780000D465B46DDE90001FCF720FE02460B4654
:10B7900020462946FCF768FCDDE90623FCF716FE87
:10B7A0000DF5FA57D6E912AB04460D461837C7E92E
:10B7B000004542464B46DDE90801FCF707FE5246CC
:10B7C0005B46FCF703FECDE906019DED067B2246B4
:10B7D0000DF5D45484ED007B2B46DDE90801FCF720
:10B7E000F5FD424604460D464B46DDE90001FCF7F7
:10B7F000EDFD02460B4620462946FCF735FC524635
:10B800005B46FCF7E3FD0DF5FE57D6E914AB0446A5
:10B810000D460837DDE90623C7E90045DDE90801E3
:10B82000FCF7D4FD52465B46FCF7D0FD89460DF58A
:10B83000D75180461031C1E9008922462B46DDE907
:10B840000801FCF7C3FDDDE9062304460D46DDE9EA
:10B850000001FCF7BBFD02460B4620462946FCF7DB
:10B8600003FC52465B46FCF7B1FD82468B464BEC2F
:10B8700017ABD6E916450DF50051383181ED007B47
:10B8800042464B46DDE90801CDE906ABFCF79EFDDB
:10B8900022462B46FCF79AFD82468B460DF5DB517E
:10B8A00042464B46C1E900ABDDE90001FCF78EFDE5
:10B8B000DDE9062380468946DDE90801FCF786FDBF
:10B8C00002460B4640464946FCF7CEFB22462B4635
:10B8D000FCF77CFDDDE90889D6E918670DF5025E05
:10B8E0000EF1280E04460D46CEE9004552465B4651
:10B8F00040464946FCF76AFD32463B46FCF766FD8A
:10B900002246049C2B46C4E9000140464946FCF708
:10B910005DFD524604460D465B46DDE90001FCF73D
:10B9200055FD02460B4620462946FCF79DFB3B464B
:10B930003246FCF74BFD029BC3E9000100230B9349
:10B940000D9301230C930B9BF0EE008ABFEE008A4F
:10B95000B2EE06BA002B01F00F820C9B0D2B9A461B
:10B9600000F095850AEB4A0B0B9E0AEB8B0BB34458
:10B970000DF5DE534FEACB0B183303EB0B050DF53A
:10B98000B4531033BAF10A0F03EB0B070AF10104A9
:10B9900001F3DE8117ED1A7B8DED047B07EE90AA93
:10B9A000F8EEE77AB0EE487AA7EEA87A17EE100A1A
:10B9B000FCF7B8FC06EB460306EB830BC24B0B9679
:10B9C0000BEB0A0603EB061696ED007BDDE904237C
:10B9D000CDE90E01DDE900018DED067BFCF7F6FCFB
:10B9E000DDE90E23FCF7F2FC57E93423CDE902012F
:10B9F000DDE90601FCF7EAFCD6E9028915ED1A7BC0
:10BA000002460B46DDE902018DED107BFCF72AFBB7
:10BA100042464B46FCF7DAFC15ED347BCDE90201DA
:10BA20008DED127B9DED027BDDE9102387ED007B20
:10BA3000DDE90001FCF7CAFCDDE9042306460F46F8
:10BA4000DDE90801FCF7C2FC02460B4630463946E8
:10BA5000FCF708FBDDE90E23FCF7B8FCDDE9122357
:10BA600006460F46DDE90601FCF7B0FC02460B4630
:10BA700030463946FCF7F6FA42464B46FCF7A6FC40
:10BA800007EE904AF8EEE77AB0EE487AA7EEA87A89
:10BA9000CDE91201C5E9000117EE100AFCF742FCDE
:10BAA000894B0BEB040503EB051595ED007B8DED44
:10BAB0000E7B95ED027B89468046DDE90223DDE9B8
:10BAC00000018DED067BFCF781FC4B464246FCF7FE
:10BAD0007DFCDDE9042306460F46DDE90E01FCF797
:10BAE00075FC02460B4630463946FCF7BBFADDE9E9
:10BAF0000623FCF76BFC04EB44060B9BCDE9040129
:10BB000004EB86069DED047B1E440DF5B454F6004F
:10BB10001034344484ED007BDDE91223DDE90001BB
:10BB2000FCF754FCDDE9022304460D46DDE908017B
:10BB3000FCF74CFC02460B4620462946FCF792FADD
:10BB40004B464246FCF742FCDDE9102304460D4615
:10BB5000DDE90E01FCF73AFC02460B462046294679
:10BB6000FCF780FADDE90623FCF730FC0DF5DE5426
:10BB70001834A3190AF10306CDE91401C3E9000141
:10BB80000B2E514816900AF1020900F3F88307EED4
:10BB9000909AF8EEE77AB0EE487AA7EEA87A4A4D86
:10BBA0000BEB090405EB041417EE100AFCF7BAFBC3
:10BBB00094ED007B8DED0E7B94ED027BDDE904239B
:10BBC000CDE91001DDE900018DED067BFCF7FEFB00
:10BBD000DDE91023FCF7FAFBDDE9022304460D46FC
:10BBE000DDE90E01FCF7F2FB02460B462046294632
:10BBF000FCF738FADDE90623FCF7E8FB09EB490717
:10BC00000B9CCDE9020109EB87079DED027B2744E0
:10BC10000DF5B451FF001031CC1984ED007BDDE946
:10BC20001423DDE90001FCF7D1FBDDE90423044620
:10BC30000D46DDE90801FCF7C9FB02460B4620462C
:10BC40002946FCF70FFADDE91023FCF7BFFBDDE91D
:10BC5000122304460D46DDE90E01FCF7B7FB024650
:10BC60000B4620462946FCF7FDF9DDE90623FCF7E3
:10BC7000ADFB07EE906AF8EEE77AB0EE487AA7EEF1
:10BC8000A87A0A4601460DF5DE501830074417EE33
:10BC9000100A42EC171BCDE9121287ED007BFCF76E
:10BCA00041FBCDE9100108490BEB060401EB04143C
:10BCB00094ED007B8DED0E7B94ED027BDDE902239C
:10BCC000DDE9000102E000BF400E00208DED067BA3
:10BCD000FCF77CFBDDE91023FCF778FBDDE90423AE
:10BCE00004460D46DDE90E01FCF770FB02460B46EB
:10BCF00020462946FCF7B6F9DDE90623FCF766FB8A
:10BD000006EB4603CDE904010B9906EB83069DED96
:10BD1000047B0E440DF5B453F60010339C1984EDEA
:10BD2000007BDDE91223DDE90001FCF74FFBDDE9D3
:10BD3000022304460D46DDE90801FCF747FB0246F5
:10BD40000B4620462946FCF78DF9DDE91023FCF768
:10BD50003DFBDDE9142304460D46DDE90E01FCF749
:10BD600035FB02460B4620462946FCF77BF9DDE908
:10BD70000623FCF72BFB0DF5DE530AF105081833FB
:10BD80001E44B8F10B0FCDE914010AF10409C6E90C
:10BD9000000100F3F48207EE909AF8EEE77AB0EE35
:10BDA000487AA7EEA87A0BEB09040AF1070717EE09
:10BDB000100AFCF7B7FAC64B03EB041494ED007BB2
:10BDC0008DED0E7B94ED027B05460E46DDE90423E6
:10BDD000DDE900018DED067BFCF7F8FA2A463346D3
:10BDE000CDE91056FCF7F2FADDE9022304460D46D0
:10BDF000DDE90E01FCF7EAFA02460B462046294629
:10BE0000FCF730F9DDE90623FCF7E0FA09EB490617
:10BE10000B9BCDE9020109EB86069DED027B1E44DA
:10BE20000DF5B454F6001034344484ED007BDDE9A4
:10BE30001423DDE90001FCF7C9FADDE90423044617
:10BE40000D46DDE90801FCF7C1FA02460B46204623
:10BE50002946FCF707F9DDE91023FCF7B7FADDE91D
:10BE6000122304460D46DDE90E01FCF7AFFA024647
:10BE70000B4620462946FCF7F5F8DDE90623FCF7DA
:10BE8000A5FA07EE908AF8EEE77AB0EE487AA7EEC8
:10BE9000A87A04460DF5DE500D461830CDE912455E
:10BEA000064417EE100A45EC174B894D0BEB0804BE
:10BEB00005EB041486ED007BFCF734FA94ED007B6F
:10BEC0008DED0E7B94ED027BDDE90223CDE91001BF
:10BED000DDE900018DED067BFCF778FADDE9102342
:10BEE000FCF774FADDE9042304460D46DDE90E0192
:10BEF000FCF76CFA02460B4620462946FCF7B2F8DE
:10BF0000DDE90623FCF762FA08EB48060B9CCDE955
:10BF1000040108EB86069DED047B26440DF5B45123
:10BF2000F60010318C1984ED007BDDE91223DDE988
:10BF30000001FCF74BFADDE9022304460D46DDE97A
:10BF40000801FCF743FA02460B4620462946FCF757
:10BF500089F8DDE91023FCF739FADDE914230D46F1
:10BF60000446DDE90E01FCF731FA02460B46204695
:10BF70002946FCF777F8DDE90623FCF727FA0DF5EB
:10BF8000DE5518352E440B2FCDE910010AF10609B4
:10BF9000C6E9000100F3F38107EE909AF8EEE77A24
:10BFA000B0EE487AA7EEA87A0BEB090417EE100A58
:10BFB000FCF7B8F90E46464901EB041494ED007BFA
:10BFC0008DED067B94ED027B0546DDE90423DDE97A
:10BFD00000018DED0E7BFCF7F9F92A463346CDE9D9
:10BFE0001456FCF7F3F9DDE9022304460D46DDE9BA
:10BFF0000601FCF7EBF902460B4620462946FCF702
:10C0000031F8DDE90E23FCF7E1F909EB4906CDE94A
:10C0100002010B9909EB86069DED027B0E440DF59E
:10C02000B453F60010339C1984ED007BDDE9002346
:10C03000DDE91001FCF7CAF9DDE9042304460D46E9
:10C04000DDE90801FCF7C2F902460B462046294605
:10C05000FCF708F8DDE91423FCF7B8F9DDE9122351
:10C0600004460D46DDE90601FCF7B0F902460B4631
:10C0700020462946FBF7F6FFDDE90E23FCF7A6F97B
:10C0800007EE907AF8EEE77AB0EE487AA7EEA87A53
:10C0900003460C460DF5DE52183217EE100A44EC3A
:10C0A000173B164486ED007BCDE91234FCF73AF9D4
:10C0B000074B0BEB070403EB041494ED007B8DEDB1
:10C0C0000E7B94ED027B05460E46DDE9022301E07E
:10C0D000400E0020DDE900018DED067BFCF776F9CE
:10C0E0002A463346CDE91456FCF770F9DDE90E23F4
:10C0F00004460D46DDE90401FCF768F902460B46EB
:10C1000020462946FBF7AEFFDDE90623FCF75EF982
:10C1100007EB47060B9BCDE9040107EB86069DED77
:10C12000047B1E440DF5B454F6001034344484ED01
:10C13000007BDDE91223DDE90001FCF747F9DDE9C9
:10C14000022304460D46DDE90801FCF73FF90246EB
:10C150000B4620462946FBF785FFDDE91423FCF753
:10C1600035F9DDE90E2304460D46DDE91001FCF743
:10C170002DF902460B4620462946FBF773FFDDE901
:10C180000623FCF723F90DF5DE5418342644BAF1E2
:10C19000020F0AF10809CDE91001C6E9000140F0DB
:10C1A000EE8007EE909AF8EEE77AB0EE487AA7EEC6
:10C1B000A87A0BEB090409EB490809EB880817EE8C
:10C1C000100AFCF7AFF80646C94800EB041494EDDA
:10C1D000007B8DED067B94ED027B0F46DDE90423A9
:10C1E000DDE900018DED0E7BFCF7F0F832463B46B1
:10C1F000FCF7ECF8DDE9022304460D46DDE9060113
:10C20000FCF7E4F802460B4620462946FBF72AFFD6
:10C21000DDE90E23FCF7DAF80B9CCDE902019DED78
:10C22000027BA0440DF5B4514FEAC808103101EB70
:10C23000080484ED007BDDE91023DDE90001FCF753
:10C24000C5F8DDE9042304460D46DDE90801FCF7E5
:10C25000BDF802460B4620462946FBF703FF32464F
:10C260003B46FCF7B3F8DDE9122304460D46DDE951
:10C270000601FCF7ABF802460B4620462946FBF7C1
:10C28000F1FEDDE90E23FCF7A1F8F0EE487AEBEEC3
:10C29000287A0A460DF5DE550146183517EE900A44
:10C2A00042EC171BA84488ED007BCDE91212FCF785
:10C2B00039F80F468E490B9C0BF10B0501EB051568
:10C2C0000646DDE90223DDE9000195ED027B8DEDF7
:10C2D000067BFCF77BF832463B46D5E900ABCDE95F
:10C2E0000E67FCF773F8DDE9042306460F46504657
:10C2F0005946FCF76BF802460B4630463946FBF7C9
:10C30000B1FEDDE90623FCF761F88F340DF5B45377
:10C31000E40010331D19C5E90001DDE91223DDE950
:10C320000001FCF753F8DDE9022306460F46DDE97C
:10C330000801FCF74BF802460B4630463946FBF73E
:10C3400091FEDDE90E23FCF741F8DDE910230646F6
:10C350000F4650465946FCF739F802460B46304620
:10C360003946FBF77FFEDDE90623FCF72FF80DF5D4
:10C37000DE5318331C44C4E900014FF00C090B9A3A
:10C3800009EB490302F1005209EB8303A2F11A0100
:10C390000DF5B4500D3A1944103013440D9A00EBCA
:10C3A000C1080DF5DE514A44183101EBC3051346AF
:10C3B000169A02EB031407EE909AF8EEE77AB0EEC5
:10C3C000487AA7EEA87A09F10109103498ED1A6BA2
:10C3D00017EE100A8DED046BFBF7A4FF14ED047B40
:10C3E00006460F46DDE90423DDE900018DED027B01
:10C3F000FBF7ECFF32463B46CDE90667FBF7E6FF6D
:10C40000D8E9002306460F46DDE90201FBF7DEFF0F
:10C4100054E902AB02460B4630463946FBF722FE92
:10C4200052465B46FBF7D2FFD5E90023C8E9340149
:10C43000DDE90001FBF7CAFFDDE9042306460F46EC
:10C44000DDE90801FBF7C2FF02460B4630463946DC
:10C45000FBF708FEDDE90623FBF7B8FF55E91A23D1
:10C4600006460F46DDE90201FBF7B0FF02460B4628
:10C4700030463946FBF7F6FD52465B46FBF7A6FF12
:10C48000B9F10D0F08F16808E5E91A0193D10C9A8A
:10C490000B9B01320C920D9A01330D320D2B0B9335
:10C4A0000D927FF457AA13481A9B03441846FBF7D2
:10C4B00027FF0DA3D3E90023FCF7B2F80DF58A5648
:10C4C0000DF5045B0DF5195A012304460D460DF5D3
:10C4D000B8790DF540680DF5D76708360BF1200BDC
:10C4E0000AE000BFAFF300800000000000D47640F7
:10C4F000400E00206289DAFF0AF1280A0093D8E989
:10C500001A2320462946FBF761FFD9E91A23FBF7D6
:10C51000ABFDD6E91A23CBE91A0120462946FBF7E1
:10C5200055FFD7E91A23FBF79FFDD8E91C23CAE979
:10C530001A0120462946FBF749FFD9E91C23FBF7DE
:10C5400093FDD6E91C23CBE91C0120462946FBF7C5
:10C550003DFFD7E91C23FBF787FDD8E91E23CAE975
:10C560001C0120462946FBF731FFD9E91E23FBF7C2
:10C570007BFDD6E91E23CBE91E0120462946FBF7A9
:10C5800025FFD7E91E23FBF76FFDD8E92023CAE971
:10C590001E0120462946FBF719FFD9E92023FBF7A6
:10C5A00063FDD6E92023CBE9200120462946FBF78D
:10C5B0000DFFD7E92023FBF757FDCAE92001D8E991
:10C5C000222320462946FBF701FFD9E92223FBF766
:10C5D0004BFDD6E92223CBE9220120462946FBF771
:10C5E000F5FED7E92223FBF73FFDD8E92423CAE96A
:10C5F000220120462946FBF7E9FED9E92423FBF76F
:10C6000033FDD6E92423CBE9240120462946FBF754
:10C61000DDFED7E92423FBF727FDD8E92623CAE965
:10C62000240120462946FBF7D1FED9E92623FBF752
:10C630001BFDD6E92623CBE9260120462946FBF738
:10C64000C5FED7E92623FBF70FFDD8E92823CAE961
:10C65000260120462946FBF7B9FED9E92823FBF736
:10C6600003FDD6E92823CBE9280120462946FBF71C
:10C67000ADFED7E92823FBF7F7FCCAE92801D8E982
:10C680002A2320462946FBF7A1FED9E92A23FBF7F6
:10C69000EBFCD6E92A23CBE92A0120462946FBF701
:10C6A00095FED7E92A23FBF7DFFCD8E92C23CAE95A
:10C6B0002A0120462946FBF789FED9E92C23FBF7FE
:10C6C000D3FCD6E92C23CBE92C0120462946FBF7E5
:10C6D0007DFED7E92C23FBF7C7FCD8E92E23CAE956
:10C6E0002C0120462946FBF771FED9E92E23FBF7E2
:10C6F000BBFCD6E92E23CBE92E0120462946FBF7C9
:10C7000065FED7E92E23FBF7AFFCD8E93023CAE951
:10C710002E0120462946FBF759FED9E93023FBF7C5
:10C72000A3FCD6E93023CBE9300120462946FBF7AC
:10C730004DFED7E93023FBF797FCCAE93001D8E971
:10C74000322320462946FBF741FED9E93223FBF785
:10C750008BFCD6E93223CBE9320120462946FBF790
:10C7600035FED7E93223FBF77FFC009B01330D2B0D
:10C77000CAE93201009308F1680809F168090BF170
:10C78000680B06F1680607F168070AF1680A7FF48A
:10C79000B6AEDDE918560022002328463146FBF7E5
:10C7A00015FE41EC100B41EC180B18F029FC28ABDE
:10C7B0008DED280BB0EE480AF0EE680A1F9318F0D2
:10C7C000BFFB42AB8DED420B46EC105B249318F09F
:10C7D00017FC1F9B83ED020B46EC105B18F0B0FBBF
:10C7E000249C2A46334684ED020B28463146FBF74B
:10C7F0003BFC41EC100B41EC180B18F001FC1F9BAB
:10C8000083ED040BB0EE480AF0EE680A18F098FBCE
:10C81000249C9D4B002284ED040B28463146FBF7F7
:10C82000D5FD41EC100B41EC180B18F0E9FB1F9BF8
:10C8300083ED060BB0EE480AF0EE680A18F080FBB4
:10C84000249C924B002284ED060B28463146FBF7D0
:10C85000BDFD41EC100B41EC180B18F0D1FB1F9BF8
:10C8600083ED080BB0EE480AF0EE680A18F068FB9A
:10C87000249C874B002284ED080B28463146FBF7A9
:10C88000A5FD41EC100B41EC180B18F0B9FB1F9BF8
:10C8900083ED0A0BB0EE480AF0EE680A18F050FB80
:10C8A000249C7C4B002284ED0A0B28463146FBF782
:10C8B0008DFD41EC100B41EC180B18F0A1FB1F9BF8
:10C8C00083ED0C0BB0EE480AF0EE680A18F038FB66
:10C8D000249C714B002284ED0C0B28463146FBF75B
:10C8E00075FD41EC100B41EC180B18F089FB1F9BF8
:10C8F00083ED0E0BB0EE480AF0EE680A18F020FB4C
:10C90000249C664B002284ED0E0B28463146FBF733
:10C910005DFD41EC100B41EC180B18F071FB1F9BF7
:10C9200083ED100BB0EE480AF0EE680A18F008FB31
:10C93000249C5B4B002284ED100B28463146FBF70C
:10C9400045FD41EC100B41EC180B18F059FB1F9BF7
:10C9500083ED120BB0EE480AF0EE680A18F0F0FA18
:10C96000249C504B002284ED120B28463146FBF7E5
:10C970002DFD41EC100B41EC180B18F041FB1F9BF7
:10C9800083ED140BB0EE480AF0EE680A18F0D8FAFE
:10C99000249C454B002284ED140B28463146FBF7BE
:10C9A00015FD41EC100B41EC180B18F029FB1F9BF7
:10C9B00083ED160BB0EE480AF0EE680A18F0C0FAE4
:10C9C000249C3A4B002284ED160B28463146FBF797
:10C9D000FDFC41EC100B41EC180B18F011FB1F9BF8
:10C9E00083ED180BB0EE480AF0EE680A18F0A8FACA
:10C9F0009FED217B8DED1A7B249C53EC1A2B84ED4B
:10CA0000180B1FA1D1E90001FBF70AFE02460B46F5
:10CA1000CDE92023FBF7DAFC9FED177BCDE91C0164
:10CA20008DED187B8DED167B0222002314920DF5FF
:10CA30000452683320321A440B920DF519522832F1
:10CA40001A440D920DF5B45210329FED0B7B1A442F
:10CA50000E920DF5DE5218321E938DED087BD31821
:10CA60008DED067B8DED047B1093DDF87C90249B8F
:10CA70000C934FF000081BE00000000000000000D5
:10CA80003333333333E3B840000008400000104034
:10CA9000000014400000184000001C40000020402E
:10CAA00000002240000024400000264000002840F2
:10CAB0000B9B0D9CF3E802AB0B930C9BB3EC027B3E
:10CAC0008DED007B0C9353EC172BB4EC027B50469E
:10CAD00059468DED027B0D94FBF778FCF9E8024591
:10CAE00006460F4622462B46DDE90201FBF76EFCA7
:10CAF00002460B4630463946FBF7B6FA0E9BF3E882
:10CB000002670E9332463B46CDE91201FBF75EFC0D
:10CB100002460B46DDE90401FBF7A6FACDE9040164
:10CB20001099F1E802231091DDE91201FBF74EFCA8
:10CB300002460B46DDE90601FBF796FA2246CDE9EF
:10CB400006012B4650465946FBF740FCDDE902231F
:10CB500004460D46DDE90001FBF738FC02460B46B2
:10CB600020462946FBF77EFA044640460D46FBF771
:10CB7000C7FB02460B4620462946FBF727FC3246F8
:10CB80003B46FBF723FC0B460246DDE90801FBF7B9
:10CB90006BFACDE90801149B08F10108984587D18B
:10CBA000DDE92023DDE91C01FBF710FC04460D46FE
:10CBB0004046CDE91C45FBF7A3FBDDE90423FBF769
:10CBC00005FC22462B46FBF701FC02460B46DDE93D
:10CBD0001601FBF749FA2246CDE916012B46DDE99D
:10CBE0000601FBF7F3FB02460B46DDE91801FBF7F4
:10CBF00039FA2246CDE918012B46DDE90801FBF799
:10CC0000E5FB08F10104DDE922231494FBF7DEFBC8
:10CC10000B460246DDE91A01FBF726FA0E2CCDE998
:10CC20001A011E9B7FF403AF53EC192B5EA1D1E9CF
:10CC30000001FBF717FA02460B46DDE92601FBF778
:10CC400011FA41EC100B41EC180B18F0D9F957EC24
:10CC5000106BB0EE480AF0EE680A18F071F9DDE9E1
:10CC600018AB59EC108B10EE102A50464B460BF1C6
:10CC70000041FBF7ABFB324604460D463B46DDE97F
:10CC80001601FBF7A3FB02460B4620462946FBF79D
:10CC9000E9F904460D46DDE91601FBF76FFE259B19
:10CCA000594618605046CDE918ABFBF767FE259A48
:10CCB0005060DDE91A01FBF761FE259B824629469B
:10CCC000C3F808A02046FBF759FE259B3246D860E2
:10CCD000C3F810A0DDE918013B46FBF777FB42469D
:10CCE00006460F464B46DDE91601FBF76FFB024691
:10CCF0000B4630463946FBF7B5F9FBF73FFE259961
:10CD000000224861002320462946FBF7C7FD30B1C9
:10CD100000220023DDE91A01FBF7C0FD18BB45EC3A
:10CD2000114B9DED1A0B18F079FB51EC100BFBF732
:10CD300025FE00EE100A0DF52E5D0DB0BDEC088B42
:10CD4000BDE8F08F0131683468300135FEF78CBAE8
:10CD5000134B1693D146FFF712BB204629460022FB
:10CD60000023FEF76DBA9FED0F0A0DF52E5D0DB095
:10CD7000BDEC088BBDE8F08F4FF0020AFEF7F2BD64
:10CD80000224FEF75DBB0D2DDCD10DF504531833E5
:10CD900002930DF5DE5310330493FEF7C9BA00BFBA
:10CDA000400E00200000000000000060FB21F93F61
:10CDB0002DE9F0413C4D3D4995F80680B5F9042038
:10CDC0003A4CA8F10E004FEAE07E81FB0031CEEB39
:10CDD000610102F5965C0CEB010340F2B55C0CFBC3
:10CDE00003FC84FB0030AEEB6000A8F1020800EB0E
:10CDF000400702F59952E8792D4B40F26F1E08EB7F
:10CE000087070432BCF1000F0EFB07F70A44A0F5B8
:10CE1000FA41B8BF0CF1030C84FB070483FB020347
:10CE2000FF17D2174B3901EBAC01C7EB6404C2EB1F
:10CE3000631388B0661813EB4304D5E9260114A3E5
:10CE4000D3E9002348BF0334FBF7C0FA12A3D3E9A8
:10CE50000023FBF7BBFA0EA3D3E90023CDE90001C1
:10CE6000D5E92401FBF7B2FA0BA3D3E90023FBF7C2
:10CE7000ADFAA6EBA40441EC100B9DED001B02A93A
:10CE800020469FED072BFEF7CFF808B0BDE8F081F4
:10CE900048AFBC9AF2D77A3E000000A046DF913F2F
:10CEA000000000000000000058220020ABAAAA2ABF
:10CEB0001F85EB514FF0FF30704700BF39493A4BA7
:10CEC000D1F88820394842F47002C1F888201A68E5
:10CED000002142F001021A6099601A6822F08472FF
:10CEE00022F480321A6058601A6882B022F48022DC
:10CEF0001A60D960009101911A6842F480321A6078
:10CF00001A4603E0009BB3F5A06F09D0136803F441
:10CF100000330193009B01330093019B002BF1D060
:10CF2000214B1B6813F4003318BF01230193019BAD
:10CF3000012B05D01B4B4FF000629A6002B0704786
:10CF4000194B1B491A6C1B4842F080521A640A683C
:10CF500042F480420A609A689A609A6842F40042F9
:10CF60009A609A6842F4A0529A6058601A6842F037
:10CF700080721A601A4611680B4B8901FBD50E4A64
:10CF800040F2056111609A6822F003029A609A6883
:10CF900042F002029A601A46936803F00C03082BD1
:10CFA000FAD1C7E700ED00E000380240103000245D
:10CFB0000070004008544007003C0240F8B5244887
:10CFC000244CFDF7A9F92378834212D0224B1B7819
:10CFD000052B0ED00AF02AFA4FF4967002F090FA60
:10CFE0000AF01EFA002002F08BFA1948FDF794F9B6
:10CFF00020701A4B16481B78012B25D0FDF78CF9B1
:10D00000E0B9174B1B78BBB9B0FA80F25209154949
:10D010004B79C3F3C004A2420DD062F3C303124C98
:10D02000124F134E134D4B710022012322703A8090
:10D0300032802A802370F8BD0122E8E70E4B187871
:10D04000003018BF0120DCE7FDF766F9D9E700BF23
:10D050003804002040190020E5940020C42300205B
:10D06000C005002078950020E48A0020F08A002086
:10D07000F48A0020E0820020D620002010B5374C32
:10D080002379DB0704D5364B93F90030002B1CDDE8
:10D09000237A324A990613D49378012003405BB96E
:10D0A00063782E4A1B0607D413792E4A03F0010336
:10D0B00083F00103137010BD2A4A0123137010BDC1
:10D0C000284A01231370184610BDFFF777FFF8B9FF
:10D0D000227A22499006F3D4CB7913F0C00F1CD1E9
:10D0E000214B1B78112B18D00879830615D58B7826
:10D0F00013F0200F06D0400604D5487900F0240034
:10D10000242810D003F001030120002BC8D0D3E75E
:10D11000164B1B78002BBBD1DAE7A3780120034024
:10D12000002BBDD0C8E708788006EBD4497AC90641
:10D13000E8D41007E6D413F0010306D1627822F098
:10D140007F0202F0FF00002AAAD0E07880F00200FF
:10D15000C0F34000002BA3D0AEE700BF78950020BD
:10D160003482002041190020B5050020C52300208D
:10D1700038B50B4B587910F0240400D038BD094D58
:10D1800002F0B8F92B689842F8D902F0B3F900F52B
:10D19000FA732B602046BDE838400AF0A3B900BFFF
:10D1A000789500203C19002038B5054605EB85052B
:10D1B0000C4605EB85050AF039F904EB8404A80058
:10D1C00080B204EB840402F09BF90AF029F9A00074
:10D1D00080B2BDE8384002F093B900BF90B138B5D5
:10D1E000054600240AF022F90134C82002F088F92B
:10D1F000E4B20AF015F94FF4487002F081F9A54243
:10D20000F0D138BD704700BF38B5364B1B7833B905
:10D21000354A137813F0280F3AD0012101E0324A41
:10D2200001219379304861F3410393719A073BD50B
:10D2300003789B060FD42D4B2D4D1B782D4C042BC2
:10D240004AD07D232B80238002F054F92A4BDB6DDA
:10D2500098420CD838BD264D264C4FF416732B80BF
:10D26000238002F047F9244BDB6D9842F2D90AF093
:10D27000E3F818B302F03EF9B5F90020172102F0E7
:10D2800073F90AF0CDF80120BDE838400AF008B97A
:10D29000164B1B78042BC0D0184B1978A1F1030151
:10D2A000B1FA81F14909BCE702F024F9124B5B693C
:10D2B0009842CFD9BDE838400AF0B2B802F01AF966
:10D2C000B4F90020172102F04FF90AF0AFF801205D
:10D2D000BDE838400AF0BAB841F28E22FA232A801B
:10D2E0002380B1E74119002078950020E5940020C3
:10D2F000140500201C050020E8940020702B00205D
:10D3000008B50FF031FF0AF02DF94FF4FA7002F072
:10D31000F7F80AF05DF94FF4FA7002F0F1F8F2E76D
:10D3200010B53C4C63791A064BD53B4BD3EDB87A1C
:10D33000F5EEC07AF1EE10FA44D49FED387AF4EEAF
:10D34000C77AF1EE10FA0DD5D3ED117AF5EEC07A69
:10D35000F1EE10FA3ED49FED317AF4EEC77AF1EE99
:10D3600010FA3ED402F0C6F82D4BD3F8883098421C
:10D3700027D92C4A2C4BD2ED007A93ED007A77EE28
:10D38000C77AF5EEC07AF1EE10FA36D4B6EE007A2E
:10D39000F4EEC77AF1EE10FA4CBF0123002383B1FB
:10D3A000224A234B92ED007AD3ED007AB4EEE77A6D
:10D3B000F1EE10FA05DDE3785B0702D41D4B042281
:10D3C0001A7010BD9FED1C7AF4EEC77AF1EE10FAD8
:10D3D000BADCC7E79FED187AF4EEC77AF1EE10FADF
:10D3E000C0DD02F087F84FF47A72222102F0BCF817
:10D3F0000D4A0C4B12681A6010BDBEEE007AF4EEB6
:10D40000C77AF1EE10FACCBF01230023002BC7D15D
:10D41000D7E700BF78950020CC340020AA619C3F5C
:10D42000E894002018050020AC3C00203082002049
:10D43000FC810020E5940020AA619CBFF0B585B076
:10D44000032003AE02F05CF80223A022EE21009636
:10D45000012012F0DFFF9DF80C109DF80D301C4AE2
:10D460001C4D43EA01231380A02422460223009688
:10D47000EE21012012F0CEFF02349DF80C209DF821
:10D480000D30E4B243EA0223B02C25F8023FECD180
:10D49000114A124B1489D0885689E409000AA4B2B3
:10D4A000002580B20021C3E90845C3E9060194883C
:10D4B000508835022104C203360E240C400C9D62B4
:10D4C000DE6219615C619A60D86005B0F0BD00BF92
:10D4D000C0280020CE230020D0230020082B0020CD
:10D4E0002DE9F04FDFF814E27F4CDEF82450B4F859
:10D4F0000C80DEF820C0DEE90A230027861A67EBDD
:10D500000307B246BB46A8FB06678BB008FB0B7748
:10D51000F30D43EA47230093DEF81C30DEF81800D1
:10D5200009910AFB03F4FB150AFB05F50193ACFB1B
:10D530000A6700FB0B440CFB0B55DDE900BCA0FBAC
:10D540000A23DEE904892F442344DEE902451BF562
:10D55000FA6B4CF1000C18EB0600DA4649EB0701B8
:10D56000161943EB0507BAF5FA6FE3467CF10003A1
:10D57000CDE906ABCDE9020143DADDE90045A4FBC4
:10D58000042304FB05F103EB4103941843EB03056B
:10D590004FEA84084FEA85094FEA830E18EB04002E
:10D5A00049EA94794FEA82014EEA92740491059413
:10D5B00049EB0501DDE9048918EB020849EB030991
:10D5C00042464B465B104FEA32029046474A994624
:10D5D00092454FF0FF334FEAD0047CEB030344EA5B
:10D5E00041744FEAE1053ADBDDE90223B2EB0802C0
:10D5F00063EB090390469946CDE90289361B67EB38
:10D600000507DDE90601FBF7D9FADDE9028907EE36
:10D61000100A49460998DFED367A364C4B054146EB
:10D6200067EE277A43EAD8234A05A0FB068900FB68
:10D630000799B8EB020069EB0301C4ED007AFAF731
:10D6400097FE27A3D3E90023FAF7C0FEFBF796F96C
:10D65000294B00EE100A18600BB0BDE8F08FDDE931
:10D6600000AB40F6AC521AEB020A4FF000034BEB52
:10D67000030B0AFB0BF3AAFB0AAB0BEB430B1AEBF6
:10D680000A004BEB0B018B0043EA9073019383007C
:10D6900000934FEACA030493DDE900234FEACB0E5F
:10D6A00012184B414EEA5A7112EB0A00059143EBF6
:10D6B0000B01DDE90423B2EB0A0263EB0B03924694
:10D6C0009B464B104FEA300218EB0A0049EB0B0166
:10D6D000A418804689465D4186E700BFAFF300800D
:10D6E000D52293F7FFFFAF3DD023002024FAFFFFA0
:10D6F0000AD7233C1425002048260020082B0020B0
:10D700002DE9F0432DED028B85B003AB0093002291
:10D710000323EE21012012F07DFE994C9DF80D109F
:10D720009DF80C009DF80E302278090201EB0041B3
:10D7300019440ABB934A1368CBB9012311602370C3
:10D74000402200230093EE21012012F071FE01F02F
:10D7500087FE8D4A8D49138800F57A7008600BB1F9
:10D76000013B138005B0BDEC028BBDE8F083C3EB39
:10D77000C3131944C909E0E7854D8248854B2A68DF
:10D7800000681A60FFF7ACFE834B10EE100A83EDC1
:10D79000000AFAF7C7FD02460B4671A1D1E9000164
:10D7A000FAF760FC70A3D3E90023FAF70FFEFBF74A
:10D7B000E5F89FED7A7A07EE900AF4EEC77AF1EE7B
:10D7C00010FA00F182809FED767AF4EE477AF1EE5E
:10D7D00010FAC8BFF0EE477AC5ED007A01F040FEBE
:10D7E000704ADFED717A116895ED000A6F4F0346BC
:10D7F00013605B1A08EE103AB8EE488A20216C4894
:10D8000028EE278A03F020FCB0EE481AD7ED000A74
:10D81000684885ED000A03F069FC85ED000A07F011
:10D8200081FEDFED657AB4EEE70AF1EE10FA55D528
:10D83000B0EE670A20216148614E03F005FCB0EEAE
:10D84000481AD7ED000A5F4886ED000A03F04EFC47
:10D850005D4B86ED000A1B78052BF0EE408A20D048
:10D860005A4ED6F81C02FAF75DFD41A3D3E9002316
:10D87000FAF7ACFD804618EE900A8946FAF752FD99
:10D880003DA3D3E90023FAF7A1FD0B460246494622
:10D890004046FAF7E9FBFBF771F84D4BC6F81C025E
:10D8A00018604C4B1B7823B14B4B1B789BB3012B5F
:10D8B00020D04A4A13780133DBB2142B137007D9F6
:10D8C00000231370237050223BE7F0EE477A83E782
:10D8D0002378002B14BF4022502232E707F022FEAB
:10D8E000DFED3F7AB4EEE70AF1EE10FAA0DC07F0C4
:10D8F00019FE9FE7DFED3B7A95ED000A3A493B4878
:10D9000068EEA70AB0EE481A60EEA70A20EE270AD2
:10D9100009F086FACDE72D4B334AD3F81C3292ED4D
:10D92000007AD5ED006ADFED325A9FED326A00EEE3
:10D93000103A78EEC08A2D4BA8EE287AD3ED007A03
:10D94000E8EE077A77EEE66AA6EEA57AE6EE867A44
