:020000040800F2
:1000000000000220AD3B0208515E0108555E010868
:100010005D5E0108655E01086D5E0108000000007C
:10002000000000000000000000000000755E0108F4
:10003000795E0108000000007D5E0108315E010864
:10004000F53B0208F53B0208F53B0208F53B0208C8
:10005000F53B0208F53B0208F53B0208F53B0208B8
:10006000F53B0208F53B0208F53B0208F53B0208A8
:10007000F53B0208F53B0208F53B0208F53B020898
:10008000F53B0208815F0108F53B0208F53B0208D9
:10009000F53B0208F53B0208F53B0208F53B020878
:1000A000F53B0208F53B0208F53B0208F53B020868
:1000B000815E0108D15E0108F53B0208E15F01089D
:1000C000D95F0108F15F0108E95F0108F53B02080B
:1000D000F53B0208C95F0108D15F0108F53B020842
:1000E000F53B0208F53B0208F53B0208F53B020828
:1000F000F53B0208F53B0208F53B0208F53B020818
:10010000F53B0208F53B0208F53B0208F53B020807
:10011000F53B0208F53B0208F53B0208F53B0208F7
:10012000F53B0208F53B0208E95E0108F53B0208D1
:10013000F53B0208F53B0208F53B0208F53B0208D7
:10014000F53B0208F53B0208F53B0208F53B0208C7
:10015000F53B0208F53B0208395F0108F53B020850
:10016000F53B0208F53B0208F53B0208F53B0208A7
:10017000F53B0208F53B0208F53B0208F53B020897
:08018000F53B0208F53B020803
:1080000010B5054C237833B9044B13B10448AFF3D2
:1080100000800123237010BD100E0020000000001E
:1080200078A50208084B10B51BB108490848AFF302
:1080300000800848036803B910BD074B002BFBD034
:10804000BDE81040184700BF00000000140E0020DB
:1080500078A502080C0E00200000000081F000410D
:1080600002E000BF83F0004330B54FEA41044FEA1D
:10807000430594EA050F08BF90EA020F1FBF54EAB8
:10808000000C55EA020C7FEA645C7FEA655C00F054
:10809000E2804FEA5454D4EB5555B8BF6D420CDD25
:1080A0002C4480EA020281EA030382EA000083EAA8
:1080B000010180EA020281EA0303362D88BF30BD48
:1080C00011F0004F4FEA01314FF4801C4CEA11319E
:1080D00002D0404261EB410113F0004F4FEA0333FD
:1080E0004CEA133302D0524263EB430394EA050F88
:1080F00000F0A780A4F10104D5F1200E0DDB02FAF7
:108100000EFC22FA05F2801841F1000103FA0EF28A
:10811000801843FA05F359410EE0A5F120050EF150
:10812000200E012A03FA0EFC28BF4CF0020C43FA81
:1081300005F3C01851EBE37101F0004507D54FF08E
:10814000000EDCF1000C7EEB00006EEB0101B1F5DE
:10815000801F1BD3B1F5001F0CD349085FEA300024
:108160004FEA3C0C04F101044FEA445212F5800F2F
:1081700080F09A80BCF1004F08BF5FEA500C50F1CC
:10818000000041EB045141EA050130BD5FEA4C0CAF
:10819000404141EB010111F4801FA4F10104E9D138
:1081A00091F0000F04BF01460020B1FA81F308BF2F
:1081B0002033A3F10B03B3F120020CDA0C3208DDFB
:1081C00002F1140CC2F10C0201FA0CF021FA02F1D6
:1081D0000CE002F11402D8BFC2F1200C01FA02F146
:1081E00020FA0CFCDCBF41EA0C019040E41AA2BF6B
:1081F00001EB0451294330BD6FEA04041F3C1CDA33
:108200000C340EDC04F11404C4F1200220FA04F052
:1082100001FA02F340EA030021FA04F345EA0301FC
:1082200030BDC4F10C04C4F1200220FA02F001FABE
:1082300004F340EA0300294630BD21FA04F0294640
:1082400030BD94F0000F83F4801306BF81F48011D9
:108250000134013D4EE77FEA645C18BF7FEA655C4C
:1082600029D094EA050F08BF90EA020F05D054EA1E
:10827000000C04BF1946104630BD91EA030F1EBF23
:108280000021002030BD5FEA545C05D14000494127
:1082900028BF41F0004130BD14F580043CBF01F51A
:1082A000801130BD01F0004545F0FE4141F4700100
:1082B0004FF0000030BD7FEA645C1ABF19461046DB
:1082C0007FEA655C1CBF0B46024650EA013406BFDC
:1082D00052EA033591EA030F41F4002130BD00BF9B
:1082E00090F0000F04BF0021704730B54FF4806458
:1082F00004F132044FF000054FF0000150E700BFD9
:1083000090F0000F04BF0021704730B54FF4806437
:1083100004F1320410F0004548BF40424FF0000124
:108320003EE700BF42004FEAE2014FEA31014FEA67
:1083300002701FBF12F07F4393F07F4F81F06051B6
:10834000704792F0000F14BF93F07F4F704730B525
:108350004FF4607401F0004521F0004120E700BFB8
:1083600050EA010208BF704730B54FF000050AE03F
:1083700050EA010208BF704730B511F0004502D540
:10838000404261EB41014FF4806404F132045FEA42
:10839000915C3FF4DCAE4FF003025FEADC0C18BFE7
:1083A00003325FEADC0C18BF033202EBDC02C2F1DD
:1083B000200300FA03FC20FA02F001FA03FE40EA6F
:1083C0000E0021FA02F11444C1E600BF70B54FF06F
:1083D000FF0C4CF4E06C1CEA11541DBF1CEA135551
:1083E00094EA0C0F95EA0C0F00F0DEF82C4481EAB9
:1083F000030621EA4C5123EA4C5350EA013518BFD9
:1084000052EA033541F4801143F4801338D0A0FBC5
:1084100002CE4FF00005E1FB02E506F00042E0FB72
:1084200003E54FF00006E1FB03569CF0000F18BF78
:108430004EF0010EA4F1FF04B6F5007F64F5407420
:1084400004D25FEA4E0E6D4146EB060642EAC621B3
:1084500041EA55514FEAC52040EA5E504FEACE2E20
:10846000B4F1FD0C88BFBCF5E06F1ED8BEF1004F23
:1084700008BF5FEA500E50F1000041EB045170BD9F
:1084800006F0004646EA010140EA020081EA0301E3
:10849000B4EB5C04C2BFD4EB0C0541EA045170BDDF
:1084A00041F480114FF0000E013C00F3AB8014F159
:1084B000360FDEBF002001F0004170BDC4F10004A2
:1084C000203C35DA0C341BDC04F11404C4F1200523
:1084D00000FA05F320FA04F001FA05F240EA02007E
:1084E00001F0004221F0004110EBD37021FA04F6B4
:1084F00042EB06015EEA430E08BF20EAD37070BD6E
:10850000C4F10C04C4F1200500FA04F320FA05F0CC
:1085100001FA04F240EA020001F0004110EBD370CE
:1085200041F100015EEA430E08BF20EAD37070BD3E
:10853000C4F1200500FA05F24EEA020E20FA04F317
:1085400001FA05F243EA020321FA04F001F00041C6
:1085500021FA04F220EA020000EBD3705EEA430E37
:1085600008BF20EAD37070BD94F0000F0FD101F066
:108570000046400041EB010111F4801F08BF013C9F
:10858000F7D041EA060195F0000F18BF704703F0DD
:108590000046520043EB030313F4801F08BF013D64
:1085A000F7D043EA0603704794EA0C0F0CEA135520
:1085B00018BF95EA0C0F0CD050EA410618BF52EADA
:1085C0004306D1D181EA030101F000414FF00000E0
:1085D00070BD50EA410606BF1046194652EA4306EE
:1085E00019D094EA0C0F02D150EA013613D195EA62
:1085F0000C0F05D152EA03361CBF104619460AD1AA
:1086000081EA030101F0004141F0FE4141F47001B3
:108610004FF0000070BD41F0FE4141F4780170BDA3
:1086200070B54FF0FF0C4CF4E06C1CEA11541DBF08
:108630001CEA135594EA0C0F95EA0C0F00F0A7F80A
:10864000A4EB050481EA030E52EA03354FEA013137
:1086500000F088804FEA03334FF0805545EA13134A
:1086600043EA12634FEA022245EA111545EA106512
:108670004FEA00260EF000419D4208BF964244F1A9
:10868000FD0404F5407402D25B084FEA3202B61AC8
:1086900065EB03055B084FEA32024FF480104FF49C
:1086A000002CB6EB020E75EB030E22BFB61A754610
:1086B00040EA0C005B084FEA3202B6EB020E75EBA3
:1086C000030E22BFB61A754640EA5C005B084FEA0B
:1086D0003202B6EB020E75EB030E22BFB61A7546D8
:1086E00040EA9C005B084FEA3202B6EB020E75EBE3
:1086F000030E22BFB61A754640EADC0055EA060EA4
:1087000018D04FEA051545EA16754FEA06164FEAE6
:10871000C30343EA52734FEAC2025FEA1C1CC0D192
:1087200011F4801F0BD141EA00014FF000004FF01F
:10873000004CB6E711F4801F04BF01430020B4F1E0
:10874000FD0C88BFBCF5E06F3FF6AFAEB5EB030C98
:1087500004BFB6EB020C5FEA500C50F1000041EB95
:10876000045170BD0EF0004E4EEA113114EB5C0462
:10877000C2BFD4EB0C0541EA045170BD41F4801135
:108780004FF0000E013C90E645EA060E8DE60CEA3D
:10879000135594EA0C0F08BF95EA0C0F3FF43BAF5A
:1087A00094EA0C0F0AD150EA01347FF434AF95EA11
:1087B0000C0F7FF425AF104619462CE795EA0C0FF5
:1087C00006D152EA03353FF4FDAE1046194622E7C2
:1087D00050EA410618BF52EA43067FF4C5AE50EA9C
:1087E00041047FF40DAF52EA43057FF4EBAE12E78C
:1087F0004FF0FF3C06E000BF4FF0010C02E000BF6D
:108800004FF0010C4DF804CD4FEA410C7FEA6C5C4F
:108810004FEA430C18BF7FEA6C5C1BD001B050EAF2
:10882000410C0CBF52EA430C91EA030F02BF90EADD
:10883000020F0020704710F1000F91EA030F58BF9C
:10884000994208BF90422CBFD8176FEAE37040F0FE
:10885000010070474FEA410C7FEA6C5C02D150EA9C
:10886000013C07D14FEA430C7FEA6C5CD6D152EA57
:10887000033CD3D05DF8040B704700BF844610461C
:1088800062468C461946634600E000BF01B5FFF71B
:10889000B7FF002848BF10F1000F01BD4DF808EDEB
:1088A000FFF7F4FF0CBF012000205DF808FB00BFBC
:1088B0004DF808EDFFF7EAFF34BF012000205DF816
:1088C00008FB00BF4DF808EDFFF7E0FF94BF012063
:1088D00000205DF808FB00BF4DF808EDFFF7CEFF64
:1088E00094BF012000205DF808FB00BF4DF808EDA3
:1088F000FFF7C4FF34BF012000205DF808FB00BF74
:108900004FEA410C7FEA6C5C02D150EA013C0AD18B
:108910004FEA430C7FEA6C5C02D152EA033C02D17D
:108920004FF0000070474FF0010070474FEA4102DE
:1089300012F5001215D211D56FF47873B3EB6252B1
:1089400012D94FEAC12343F0004343EA505311F0D8
:10895000004F23FA02F018BF404270474FF000006A
:10896000704750EA013005D111F0004008BF6FF0A8
:10897000004070474FF00000704700BF4FEA4102CF
:10898000B2F1E04324BFB3F5001CDCF1FE5C0DD96D
:1089900001F0004C4FEAC0024CEA5070B2F1004FB7
:1089A00040EB830008BF20F00100704711F0804FBA
:1089B00021D113F13872BCBF01F00040704741F47F
:1089C00080114FEA5252C2F11802C2F1200C10FA83
:1089D0000CF320FA02F018BF40F001004FEAC12367
:1089E0004FEAD32303FA0CFC40EA0C0023FA02F30B
:1089F0004FEA4303CCE77FEA625307D150EA0133E1
:108A00001EBF4FF0FE4040F44000704701F00040B0
:108A100040F0FE4040F40000704700BF844641EA49
:108A2000000313F003036DD1403A41D351F8043BE6
:108A300040F8043B51F8043B40F8043B51F8043B38
:108A400040F8043B51F8043B40F8043B51F8043B28
:108A500040F8043B51F8043B40F8043B51F8043B18
:108A600040F8043B51F8043B40F8043B51F8043B08
:108A700040F8043B51F8043B40F8043B51F8043BF8
:108A800040F8043B51F8043B40F8043B51F8043BE8
:108A900040F8043B51F8043B40F8043B51F8043BD8
:108AA00040F8043B51F8043B40F8043B403ABDD247
:108AB000303211D351F8043B40F8043B51F8043BE9
:108AC00040F8043B51F8043B40F8043B51F8043BA8
:108AD00040F8043B103AEDD20C3205D351F8043B78
:108AE00040F8043B043AF9D2043208D0D2071CBF44
:108AF00011F8013B00F8013B01D30B88038060466D
:108B0000704700BF082A13D38B078DD010F00303E2
:108B10008AD0C3F10403D21ADB071CBF11F8013B52
:108B200000F8013B80D331F8023B20F8023B7BE7A1
:108B3000043AD9D3013A11F8013B00F8013BF9D2CC
:108B40000B7803704B7843708B7883706046704766
:108B500040F0BF60024B40F40030D860704700BF67
:108B600000ED00E0C3785BB9037818485A09203259
:108B700003F01F03012101FA03F340F8223070478C
:108B8000134BF0B4D9684778827804780F4EC94304
:108B9000C1F30221C1F10405EDB20F2307FA05F577
:108BA0000B41EDB213402B4304F1604202F56142E8
:108BB0001B01DBB282F800330378012203F01F01AE
:108BC0005B098A4046F82320F0BC704700E100E0D2
:108BD00000ED00E0F0B544680A680E79D1F810E0C5
:108BE000CD680F4B24F0407424F48074224342EA91
:108BF0000622426087688A684E794EEA050422435D
:108C00003B40134343EA460383600A7DC36A013A4B
:108C1000D2B223F4700343EA0253C362F0BD00BF33
:108C2000FDF7FFC000230122027503600371437149
:108C30008360C3600361704770B442680668064D84
:108C40008468C168054B6868324322430A43034085
:108C500013436B6070BC704700230140E030FCFFA1
:108C60000023036043608360C3607047836819B961
:108C700023F001038360704743F001038360704772
:108C8000092970B41DD9A1F10A0606EB4606C5688C
:108C90000724B440B34025EA04042343062AC360F2
:108CA0001BD90C2A27D90D3A02EB8202C36A1F2472
:108CB000944001FA02F223EA04010A43C26270BC42
:108CC000704701EB410605690724B440B34025EA2B
:108CD00004042343062A0361E3D8013A02EB82022B
:108CE000436B1F24944001FA02F223EA04010A4371
:108CF000426370BC7047073A02EB8202036B1F2489
:108D0000944001FA02F223EA04010A43026370BCB0
:108D1000704700BF836843F080438360704700BFA3
:108D2000836819B923F480738360704743F48073B8
:108D300083607047836819B923F4007383607047B8
:108D400043F400738360704702683749002310B40E
:108D500022F00102212488420260036043608360A4
:108D6000C360036144614DD0304B984235D0304BE5
:108D7000984239D02F4B98423DD02F4B984247D044
:108D80002E4B984248D02E4B98421DD02D4B9842E6
:108D90001ED02D4B984243D02C4B98421DD02C4BCB
:108DA000984221D02B4B984225D02B4B98422FD064
:108DB0002A4B984230D02A4B984205D0294B9842F2
:108DC00006D05DF8044B7047274A43F8942CF8E727
:108DD0004FF03D5243F8AC2CF3E74FF4746243F884
:108DE000202C5DF8044B70474FF4741243F8382C74
:108DF0005DF8044B70474FF0746243F8502C5DF8F7
:108E0000044B7047194B5DF8044B3D229A60704744
:108E1000174A43F8642CD4E7164A43F87C2CD0E771
:108E20003D2243F8082CCCE7106002402860024045
:108E3000406002405860024070600240886002401A
:108E4000A0600240B8600240106402402864024002
:108E500040640240586402407064024088640240EA
:108E6000A0640240B864024000003D20006002405F
:108E70003D000020400F002001F11802F0B48CCA20
:108E8000CD680E684C692E43264316431E434A6A3A
:108E90008B6A4D6B8C6B3E4316431E430B4A036833
:108EA000CF6A35432C431A40224302600B6B426960
:108EB0000D694C6889683B4322F007021343436104
:108EC00045608460C160F0BC704700BF3F801CF00B
:108ED0000023036043608360C36003614361836177
:108EE000C361036243628362C36203634363836358
:108EF000704700BF036819B923F00103036070478E
:108F000043F001030360704741607047406880B2DE
:108F1000704700BF006800F0010070470B060CD5D9
:108F20004369AAB143F08003802943610FD00368ED
:108F300001F01E01194301607047802907D0002A03
:108F4000F5D1036801F01E0123EA010101607047B9
:108F500023F0800380294361F3D1704770B4104A35
:108F6000104E114C21F0F02323F0C315B04298BFEE
:108F700014468DB1006800F01E0000EAD12289007D
:108F80004CBF6068206823F08213184002D0101C88
:108F900018BF012070BC7047406900F08002EEE706
:108FA000006002400F6402400064024010B4094BAC
:108FB000094C0A4AA04294BF1846104611F0005FBF
:108FC00021F0F02121F0821114BFC16081605DF8B1
:108FD000044B7047006002400F640240006402408E
:108FE000044B1A69002A03DA0349044A59605A609B
:108FF000704700BF003C024023016745AB89EFCDBD
:10900000024A136943F0004313617047003C024079
:1090100010B483B039B101294BD002290CBF4FF4F1
:1090200000714FF4407108225A4B8DF80620DA681F
:10903000D4033CD4DA68D20626D505238DF8063051
:109040009DF80630012B15D1524A09E0D368DB06A2
:1090500020D505238DF806309DF80630012B09D167
:10906000D368DC03F2D501238DF806309DF8063075
:10907000012BF5D09DF80630DBB2082B23D0184623
:1090800003B05DF8044B7047DA6812F0EF0F13D0AD
:109090000623D3E7D36813F0EF0F01D00623D9E7F7
:1090A000D36813F0020F14BF07230823D2E701236C
:1090B000C4E74FF48071B6E7DB6813F0020F14BF0A
:1090C00007230823BAE7334A146924F4407414616F
:1090D000146921431161116921F0F80111611169CD
:1090E00041F0020108431061116941F480311161BE
:1090F0008DF80730D368DC033DD4D368D8063CD55F
:1091000005238DF807309DF80730012B15D1214A32
:1091100009E0D368DB0621D505238DF807309DF8DB
:109120000730012B09D1D368D903F2D501238DF87B
:1091300007309DF80730012BF5D0164A9DF807300F
:10914000116921F0020111611169DBB221F0F8010E
:109150001846116103B05DF8044B7047D36813F0F3
:10916000EF0F01D00623D8E7D36813F0020F14BF26
:1091700007230823D1E70123C3E7D36813F0EF0FD8
:1091800001D00623BDE7D36813F0020F14BF0723F5
:109190000823B6E7003C024010B483B00822544BC9
:1091A0008DF80620DA68D4033CD4DA68D20626D5D6
:1091B00005238DF806309DF80630012B15D14C4A59
:1091C00009E0D368DB0620D505238DF806309DF82D
:1091D0000630012B09D1D368DC03F2D501238DF8C9
:1091E00006309DF80630012BF5D09DF80630DBB235
:1091F000082B20D0184603B05DF8044B7047DA689E
:1092000012F0EF0F10D00623D3E7D36813F0EF0F5F
:1092100001D00623D9E7D36813F0020F14BF072348
:109220000823D2E70123C4E7DB6813F0020F14BF61
:1092300007230823BDE72E4A146924F440741461FF
:10924000146944F400741461146944F00104146155
:1092500001608DF80730D368DC0339D4D368D806B1
:1092600038D505238DF807309DF80730012B15D12F
:109270001F4A09E0D368DB061DD505238DF80730AA
:109280009DF80730012B09D1D368D903F2D501230A
:109290008DF807309DF80730012BF5D014499DF863
:1092A00007300A69DBB222F0010218460A6103B0F6
:1092B0005DF8044B7047D36813F0EF0F01D006231D
:1092C000DCE7D36813F0020F14BF07230823D5E7A8
:1092D0000123C7E7D36813F0EF0F01D00623C1E7DE
:1092E000D36813F0020F14BF07230823BAE700BFA7
:1092F000003C0240014BD860704700BF003C024078
:1093000000222DE9F0471346D1F800E001274FF085
:10931000030C04E00133102B02F1020229D007FAFA
:1093200003F434EA0E05F5D1D0F800800E790CFA7A
:1093300002F5ED4308EA0508C0F80080D0F8009077
:1093400006FA02FA013E4AEA0909012E0CFA02F86D
:10935000C0F800900FD9C568CC7925EA0805C5602A
:10936000C568944001332C43102BC46002F1020203
:10937000D5D1BDE8F087866891F8059035408560C5
:1093800086688D7909FA02F949EA06068660466818
:1093900026EA04044460466805FA03F4A4B23443A0
:1093A0004460D8E700234FF6FF72026003714371F7
:1093B0008371C371704700BF0369194214BF012054
:1093C000002070470183704741837047CB0800EB52
:1093D000830001F0070110B48900046A0F238B4059
:1093E00024EA03030362036A5DF8044B8A4042EAFD
:1093F00003010162704700BF08B5174B984212D0B5
:10940000164B98421BD0164B984200D008BD012144
:109410004FF4000000F076F900214FF40000BDE8A1
:10942000084000F06FB901214FF4001000F06AF914
:1094300000214FF40010BDE8084000F063B901219D
:109440004FF4800000F05EF900214FF48000BDE889
:10945000084000F057B900BF0054004000580040D9
:10946000005C0040F0B5054685B068460E46AC8805
:1094700000F0D2F8029B32483268DFF8CCE0A0FB63
:10948000031024F03F042404800C240C87B23C43D6
:10949000AC80298821F001010904090C724529805A
:1094A00024D85200B3FBF2F39BB2032B07F1010760
:1094B00098BF04232F84AB832888B7887289B48926
:1094C000318980B240F0010028802B8823F4816329
:1094D00023F002031B043A431B0C134344EA01022A
:1094E0009BB292B22B802A8105B0F0BDF4884BF676
:1094F000FF718C421DD002EB820202EB8202B3FBB1
:10950000F2F39BB243F48043C3F30B020AB943F076
:1095100001034FF496710B4C01FB00F284FB020136
:10952000D217C2EBA112013292B243F400432A8453
:10953000C1E702EB4202B3FBF2F39BB2E4E700BFE8
:1095400083DE1B43D34D6210A0860100002310B4BC
:109550004BF6FF7141F288344FF480420460C180C1
:1095600082818380038143815DF8044B704700BF93
:10957000038829B923F001031B041B0C03807047E7
:109580009BB243F001030380704700BF038829B9F1
:1095900023F480731B041B0C038070479BB243F4BD
:1095A00080730380704700BF038829B923F40073D8
:1095B0001B041B0C038070479BB243F400730380B1
:1095C000704700BF22B901F0FE0189B201827047E5
:1095D00041F0010189B20182704700BF038829B9B7
:1095E00023F480631B041B0C038070479BB243F47D
:1095F00080630380704700BF01827047008AC0B259
:10960000704700BF83889BB21AB923EA01018180A9
:10961000704719438180704710B4214CA36803F050
:109620000C03042B1BD0082B1CD01E4B03601C4AC0
:109630001D499468C4F303140C5DE34043609468CF
:10964000C4F382240C5D23FA04F4846092685DF80C
:10965000044BC2F342328A5CD340C3607047134B61
:109660000360E4E76368616813F4800F636818BF00
:109670000E4C01F03F020CBF0A49B4FBF2F1C3F3F8
:10968000881308BFB1FBF2F101FB03F2044B5B68E6
:10969000C3F3014301335B00B2FBF3F30360C6E79E
:1096A000003802400024F4000000002000127A007C
:1096B00029B9054A136B23EA000010637047024B77
:1096C0001A6B1043186370470038024029B9054AE5
:1096D000136C23EA000010647047024B1A6C1043AD
:1096E000186470470038024029B9054A536C23EAD0
:1096F000000050647047024B5A6C10435864704726
:109700000038024029B9054A136A23EA00001062B2
:109710007047024B1A6A10431862704700380240C3
:1097200029B9054A536A23EA000050627047024B88
:109730005A6A10435862704700380240024A536F19
:1097400043F080735367704700380240038829B99B
:1097500023F040031B041B0C038070479BB243F0B3
:1097600040030380704700BF08B5604B984235D076
:10977000B0F1804F3CD05E4B984243D05D4B984255
:109780004AD05D4B984251D05C4B984258D05C4BCC
:1097900098425FD05B4B984266D05B4B98426DD04D
:1097A0005A4B984276D05A4B98427FD0594B9842A8
:1097B00000F08880584B984200F08E80574B9842BA
:1097C00000D008BD01214FF48070FFF79BFF0021FE
:1097D0004FF48070BDE80840FFF794BF01210846B0
:1097E000FFF79EFF00210120BDE80840FFF798BF6A
:1097F00001210846FFF786FF00210120BDE808404F
:10980000FFF780BF01210220FFF77CFF002102202B
:10981000BDE80840FFF776BF01210420FFF772FF83
:1098200000210420BDE80840FFF76CBF012108209B
:10983000FFF768FF00210820BDE80840FFF762BF7E
:1098400001211020FFF75EFF00211020BDE8084035
:10985000FFF758BF01212020FFF754FF00212020EF
:10986000BDE80840FFF74EBF01210220FFF758FF77
:1098700000210220BDE80840FFF752BF01214FF44C
:109880008030FFF74DFF00214FF48030BDE80840E5
:10989000FFF746BF01214FF40030FFF741FF0021E1
:1098A0004FF40030BDE80840FFF73ABF01214FF404
:1098B0008020FFF735FF00214FF48020BDE80840ED
:1098C000FFF72EBF01214020FFF71CFF00214020A1
:1098D000BDE80840FFF716BF01218020FFF712FF07
:1098E00000218020BDE80840FFF70CBF00000140C8
:1098F0000004004000080040000C00400010004040
:1099000000140040000401400040014000440140B8
:109910000048014000180040001C004000200040AA
:10992000224A038890429BB212D002F58062904294
:109930000ED0B0F1804F0BD0A2F58032904207D00C
:1099400002F58062904203D002F58062904203D11A
:109950004A8823F070031343154A90421ED002F543
:10996000806290421AD00A8970B423F440730F4C7D
:109970004E680D889BB21343A0420380C6620585E2
:1099800006D00C4B984203D00123838270BC7047F1
:109990008B7A03860123838270BC704703800B8817
:1099A0004A68C26203850123838270470000014038
:1099B000001000400004014000234FF0FF324260DD
:1099C0000380038143808372704700BF4162704708
:1099D000038829B923F080031B041B0C0380704704
:1099E0009BB243F080030380704700BF038829B90E
:1099F00023F001031B041B0C038070479BB243F050
:109A000001030380704700BFF0B5048CB1F80CC0AF
:109A10004B880F881A4E24F001042404240C04847B
:109A2000058CB0F804E0048B25F0020524F07302E5
:109A30002D042D0C4CEA030312042B43120CB042EC
:109A40009BB21FFA8EF442EA070208D00D4DA842DD
:109A500005D089688480028341630384F0BDCE8988
:109A60000F8A4D8A23F00803334324F440748E8810
:109A70003D4323F004032C433343A4B2E9E700BF82
:109A80000000014000040140F0B5058C0C88B1F8DD
:109A90000CC0B1F802E01E4E25F010052D042D0C6F
:109AA0000584028C8788058B22F020031B0425F493
:109AB000E6421B0C120443EA0C13120C43EA0E1389
:109AC00042EA0422B0429BB2BDB294B208D0114A1D
:109AD000904205D08A688580048382630384F0BD48
:109AE00023F08002CB890F8A8E8892B242EA031259
:109AF0004FF6BF73134025F440654A8A45EA87054F
:109B000043EA061345EA82059BB2ADB2E2E700BF25
:109B10000000014000040140F0B5058CB1F80CC014
:109B2000B1F802E00C881D4F25F480752D042D0C32
:109B30000584028C8688858B22F400731B0425F033
:109B400073021B0C43EA0C23120443EA0E23120C8B
:109B5000B8429BB2B5B244EA020408D0104A90421F
:109B600005D08A6885808483C2630384F0BD23F4B2
:109B70000062CB890F8A8E8892B242EA03224FF6A6
:109B8000FF33134025F440554A8A45EA071543EA56
:109B9000062345EA02159BB2ADB2E2E700000140A0
:109BA00000040140028CB1F802C022F48052120479
:109BB000120C2DE9F041B1F80C80B1F800E00284FC
:109BC000058C8788828B124E25F4005422F4E643DC
:109BD0002404240C1B0444EA08341B0C44EA0C340F
:109BE00043EA0E23B042A4B2BAB29BB209D0094DE7
:109BF000A84206D089688280838301640484BDE81A
:109C0000F0810D8A22F4804242EA851292B2F1E795
:109C10000000014000040140002303804380838052
:109C200083608381C381038243827047038B23F067
:109C300008031B041B0C194301837047038B23F497
:109C400000631B041B0C43EA012189B201837047A6
:109C5000838B23F008031B041B0C1943818370477B
:109C6000838B23F400631B041B0C43EA012189B29C
:109C70008183704710B4048C01238B40A4B224EA82
:109C800003040484038C5DF8044B8A4013439BB2A5
:109C9000038470470B88F0B5002B32D0042B57D0CB
:109CA000082B00F08380028C4F88B1F804E00E8905
:109CB000CD8822F480521204120C0284848B028C10
:109CC00024F4407122F4005309055B04090D5B0C78
:109CD00041EA0E2143EA073341EA06319BB243F4DD
:109CE000805389B281830384828B22F44062120400
:109CF000120C8283838B9BB243EA05239BB283833E
:109D0000F0BD028C4E888D880B89CC8822F0010230
:109D10001204120C0284028B018C92B222F0F30224
:109D200021F00A0142EA0313090446F001029BB242
:109D3000090C2B43114303830184038B23F00C0391
:109D40001B041B0C0383038B9BB223430383F0BDD3
:109D5000058C4F888E88B1F808E0CC8825F010017A
:109D60000904090C0184028B018C22F440731B0549
:109D70001B0D8AB243EA0E3322F0A0029BB242EAE4
:109D8000071243EA062392B29BB242F01002038309
:109D90000284038B23F440631B041B0C0383038B9B
:109DA0009BB243EA04239BB20383F0BD068C4F8829
:109DB0008D880A89CC8826F480710904090C0184F5
:109DC000818B038C89B29BB221F0F30123F42063D1
:109DD00041EA021243EA072392B29BB243F4807332
:109DE0002A4382830384838B23F00C031B041B0C04
:109DF0008383838B9BB21C438483F0BD00230122A9
:109E0000828003804380C38003817047406B70472A
:109E1000806B7047C06B7047006C7047B0F844307F
:109E200021B9C3F30E03A0F8443070476FEA4343EF
:109E30006FEA53439BB2A0F84430704783899BB2CA
:109E40001AB923EA01018181704719438181704762
:109E5000038A828911EA030092B203D0114214BF2F
:109E600001200020704700BFC94389B201827047BA
:109E700083899BB21AB923EA010181817047194392
:109E80008181704708B52B4B984219D02A4B9842D4
:109E900020D02A4B984229D0294B984232D0294BC6
:109EA00098423BD0284B984200D008BD0121202089
:109EB000FFF736FC00212020BDE80840FFF730BC4A
:109EC00001211020FFF72CFC00211020BDE80840E4
:109ED000FFF726BC01214FF40030FFF713FC0021EF
:109EE0004FF40030BDE80840FFF70CBC01214FF4EF
:109EF0008020FFF707FC00214FF48020BDE80840D8
:109F0000FFF700BC01214FF40020FFF7FBFB00210D
:109F10004FF40020BDE80840FFF7F4BB01214FF4E7
:109F20008010FFF7EFFB00214FF48010BDE80840E0
:109F3000FFF7E8BB0010014000440040004800402B
:109F4000004C00400050004000140140028A0B8980
:109F5000F0B592B2CF888E88044622F440523A433C
:109F600048890D4689892282A289334392B20343EC
:109F700022F4B05222F00C029BB21343A381A38AB5
:109F80009BB223F440730B4385B0A3826846FFF76E
:109F900043FB1D4B9C4228D003F580639C4224D098
:109FA000029AA389A18913F4004F2B6802EB820265
:109FB00014BF5B009B0002EB8202B2FBF3F0134A7A
:109FC000A2FB00356D096423090405FB13034FEA66
:109FD00005150CD41B013233A2FB0323C3F3431337
:109FE0002B439BB2238105B0F0BD039AD9E7D9007A
:109FF0003231A2FB0131C1F3421242EA05039BB2A6
:10A00000238105B0F0BD00BF001001401F85EB515A
:10A0100000234FF416510C22016042818380C380DB
:10A0200003818381704700BF838929B923F40053DA
:10A030001B041B0C838170479BB243F40053838144
:10A04000704700BFC1F30801818070478088C0F36A
:10A0500008007047838A9BB21AB923EA0101818202
:10A06000704719438182704710B401F01F04C1F397
:10A0700042110123012903FA04F311D002290CBF74
:10A080001030143032B902685DF8044B22EA030341
:10A090000360704702685DF8044B13430360704728
:10A0A0000C30EFE70388194214BF012000207047ED
:10A0B000C1F3421210B4012301F01F04012A03FA74
:10A0C00004F317D0022A0CBF028A828A92B213408C
:10A0D000028892B253B10123090A03FA01F10A423C
:10A0E00014BF184600205DF8044B704718465DF811
:10A0F000044B7047828992B21340E9E78188006877
:10A10000FFF75AB90368828809B95A8370471A83DE
:10A11000704700BF0268818853694B4053617047A4
:10A1200070B5044682B06846FFF73CF9A388667AAA
:10A13000A57A009301220223694620688DF8066003
:10A140008DF807508DF804208DF80530FFF7D8F80A
:10A1500002B070BD2DE9F0478CB000230593049345
:10A16000069300287DD0451E5FFA85FA464D0AF118
:10A170000107064605EB47172C46E0680021FFF76C
:10A180004DFE203454F8140CFFF7EEFABC42F4D123
:10A1900004A8FFF711FC07A8FFF73EFD3B483C4C25
:10A1A00081464FF00208FFF729FE012704A88DF829
:10A1B00005808DF8067005EB4A15FFF7FDFB4FF69D
:10A1C000FF72532324350592ADF8103002A8FFF733
:10A1D000E9F8218894F804E0A379627954F8040C32
:10A1E000029102A98DF80CE08DF80F308DF80E2049
:10A1F0008DF80D80FFF784F8227D618854F8040CF7
:10A20000FFF7E4F8237E8DF8043001A88DF807707D
:10A21000FEF7A8FCA06804A9FFF782FB1B48FFF724
:10A22000EDFDA389A0681949A9F800302034FFF793
:10A2300031FD34F8121C54F8180C0122FFF7FEFD12
:10A24000AC42C3D1104D0024E86801340121FFF76E
:10A25000CDFBE3B2B34205F12005F5D30CB0BDE868
:10A26000F08704A8FFF7A8FB07A8FFF7D5FC07486D
:10A27000FFF7C4FD0222012304A88DF805208DF804
:10A280000630FFF799FBE9E7400200202C0E002082
:10A29000440200202DE9F0478046444CC8EBC80832
:10A2A00082B004EB88046846FFF77CF8238AE068F4
:10A2B00000930122022369468DF806208DF80530AF
:10A2C0008DF80430FFF71CF8238B60690093694612
:10A2D000FFF716F8218AE068FFF774F8218B6069B0
:10A2E000FFF770F804F0D2FF643085B24FF0080A2F
:10A2F00006E00A2004F09EFF04F0C8FFA8424CD8F4
:10A30000218AE068DFF8A490FFF756F80028F0D023
:10A31000218AE068FFF758F80A2004F08BFF218AB1
:10A32000E068FFF74FF80AF1FF3A0A2004F082FFD5
:10A330001AF0FF0AE4D1218B6069FFF745F80A2083
:10A3400004F078FF218AE068FFF73EF80A2004F065
:10A3500071FF218AE068FFF735F80A2004F06AFFF0
:10A36000218B6069FFF72EF8238AE06800930122B1
:10A37000022369468DF805308DF804308DF80620EB
:10A38000FEF7BEFF09EB8800238B40690093694606
:10A39000FEF7B6FF02B0BDE8F087054A137A43F036
:10A3A0000803137202B0BDE8F08700BFD804002094
:10A3B0004C90002030B5C0EBC004A300264CE25CFA
:10A3C00087B01C440AB907B030BD0546E27EA17CC7
:10A3D000E068FEF7FBFFE27EA17E6069FEF7F6FF14
:10A3E0002846FFF757FF1D4B1B7A03F0080303F0C5
:10A3F000FF05002BE7D16068FEF7FEFF02A8FFF71C
:10A40000A5F82A4660684FF44071FFF7FBF8144B3B
:10A41000606802930121FFF7ABF802A96068FFF7BB
:10A4200021F84FF4A060FEF793FB222201A801233C
:10A430008DF804208DF807308DF805508DF8065002
:10A44000FEF790FB212301A88DF805508DF804300C
:10A45000FEF788FB07B030BDD80400204C900020E8
:10A46000801A06002DE9F043044689B000256846AD
:10A470000E4617469846049503950595069507954B
:10A480009DF84090FEF78EFFA388217A627A0093B0
:10A490008DF80410A37A20688DF8073002256946EC
:10A4A0008DF806208DF80550FEF72AFFE37A13B9E0
:10A4B00009B0BDE8F083227EE1882068FEF786FFC0
:10A4C00003A8FFF7A9FB238AADF81850B9F1000FD4
:10A4D0004FF070004FF001014FF48072CDF81480FE
:10A4E00014BF00250825ADF80C00ADF80E10ADF82E
:10A4F0001C200C2B10D8DFE803F04D0F0F0F440F7A
:10A500000F0F3B0F0F0F070003A9E068FFF74AFB8F
:10A510002946E068FFF7A4FB6846FFF74DFAE068BC
:10A52000214B984210D003F5806398420CD003F57C
:10A530007053984208D003F58063984204D003F525
:10A540008063984218BF7608013EB6B2013F0121F0
:10A550000197ADF80060FFF749FA6946E068FFF738
:10A56000DFF9E0680121FFF759FC09B0BDE8F0838D
:10A5700003A9E068FFF7D0FA2946E068FFF768FB17
:10A58000CAE703A9E068FFF77FFA2946E068FFF70A
:10A5900055FBC1E703A9E068FFF736FA2946E068F2
:10A5A000FFF744FBB8E700BF00000140032803D0D9
:10A5B000042802D10F4B1960704770B52C2505FB9C
:10A5C00000F50D4E84B00C4670590021FFF72CFDAC
:10A5D0006846FFF71DFD002369467059ADF8083045
:10A5E0000094FFF7B3FC70590121FFF71DFD04B083
:10A5F00070BD00BFBC05002040030020F0B5304E08
:10A600009BB07069FEF7A0FB70692D4CFEF782FCD1
:10A6100005460028F8D10BA8FEF75AFC23682269EA
:10A62000606910954C330C934FF4806311934FF491
:10A63000006312934FF4005313934FF48073062575
:10A640000BA914931F4F0B924FF4003315930F95E2
:10A650000D97FEF711FC01216069FEF74BFC01A884
:10A66000FEF7FEFA01A8FEF7E7FA05A8FEF7DAFA08
:10A67000012305A920688DF828508DF819308DF830
:10A680001830FEF7A7FA04F1A805227E217B54F8C2
:10A690001C0B0223FEF7F4FAAC42F6D1306801211C
:10A6A000FEF748FB30680121FEF73AFB01213068D4
:10A6B000FEF7DCFA3068FEF72DFB1BB0F0BD00BFE3
:10A6C0009801002038260020F0B5A34B1D7897B0E4
:10A6D000002D79D0042D0DD1A04AA148A149A24B4B
:10A6E00015700624002200780C701A70FFF732FDF6
:10A6F00017B0F0BD9B489C49984B0A2400260422C1
:10A70000032D04700E701A7000F0A281974C01A8FE
:10A71000FEF748FE022501A88DF80950FEF742FE1B
:10A72000228FA38F606B8DF8085013439BB201A951
:10A730000193FEF7E5FD94F83020618F606BFEF722
:10A7400045FE94F83020E18F606BFEF73FFE03A8D2
:10A75000FFF75EFC636DE06A039303A9ADF8146034
:10A76000FFF7F4FB94F8423081488249824A8DF821
:10A770000250012546808DF801504E808DF803501F
:10A780005680002B40F0868094F8402082B116A8B5
:10A7900094F8412000F8582D7849794A4B8053802D
:10A7A000FEF7E0F92A4640F22551E06AFFF75CFC2B
:10A7B0000123744AE06A53701946FFF735FC002004
:10A7C000FFF7C8FC17B0F0BD6649674A634B674C9A
:10A7D0000A200126087001A816701E700227FEF7D5
:10A7E000E1FD01A88DF80970FEF7DCFD228FA38F33
:10A7F0008DF8087013439BB2606B019301A9FEF7BB
:10A800007FFD94F83020618F606BFEF7DFFD94F8D8
:10A810003020E18F606BFEF7D9FD03A8FFF7F8FB4E
:10A82000636DE06A039303A9ADF81450FFF78EFB44
:10A8300094F842304E484F494F4A45808DF8027097
:10A840004D808DF801608DF803605580002B40F03D
:10A850009D8094F840205AB94A4BE06A00220121B9
:10A860005A70FFF7E1FB0120FFF774FC17B0F0BD51
:10A8700016A894F8412000F8582D4049404A4B80D2
:10A880005380FEF76FF9324640F22551E06AFFF738
:10A89000EBFBE1E707AF3846FEF71AFBE36A206DF2
:10A8A0004FF4806204334FF4803108930D920B9281
:10A8B0001191FEF749FAE36A4FF48072043308936A
:10A8C0001092206D294DFEF725FB03460028F8D194
:10A8D0006E6C286D2C4A0A93394609920796FEF74A
:10A8E000CBFA0121286D254EFEF704FB0122402101
:10A8F000E86AFFF7AFFB286DFEF708FB16AA95F88C
:10A900004C3002F8583DC0F580601D4903B2104636
:10A9100073804B80FEF726F9A86CFEF715FAA06C41
:10A92000124EFEF7F7FA05460028F8D14023B06C26
:10A930000A9339461095FEF79FFA2946B06CFEF748
:10A94000E3FAB06C01221021FEF7E8FAF06A012266
:10A950008021FFF77FFB2BE7B8050020BA05002018
:10A96000B6050020B1050020C005002040030020EE
:10A97000C0850020C4850020D08D0020CC8500201B
:10A98000C8850020BC850020D089002007AF38464C
:10A99000FEF79EFAE36A206D4FF4806204334FF4B1
:10A9A000803108930D920B921191FEF7CDF9E36A75
:10A9B0004FF48072043308931092206D334DFEF7EC
:10A9C000A9FA03460028F8D16E6C286D304A0A9324
:10A9D000394609920796FEF74FFA0121286D2D4E50
:10A9E000FEF788FA01224021E86AFFF733FB286D61
:10A9F000FEF78CFA16AA95F84C3002F8583DC0F5CF
:10AA00008060254903B2104673804B80FEF7AAF898
:10AA1000A86CFEF799F9A06C1C4EFEF77BFA054670
:10AA20000028F8D14023B06C0A9339461095FEF700
:10AA300023FA2946B06CFEF767FAB06C01221021A8
:10AA4000FEF76CFAF06A01228021FFF703FB03E7AF
:10AA50000E4C124DE06A3146FFF7E6FA07A8FFF701
:10AA6000D7FAE06AADF824604FF480524FF40053F7
:10AA700007A9ADF82020ADF822300795FFF766FA58
:10AA8000E06A0121FFF7D0FA30462FE640030020AC
:10AA9000D0890020CC850020C8850020A086010038
:10AAA0002DE9F043012199B00846FEF701FE01218E
:10AAB0000220FEF7FDFD01210420FEF7F9FD012132
:10AAC0004FF48040FEF710FE01210846FEF70CFE11
:10AAD00001210220FEF708FE01210846FEF7F6FDDF
:10AAE00001210220FEF7F2FD01210420FEF7EEFD18
:10AAF00001214FF48070FEF7F7FD01214FF4800033
:10AB0000FEF7E4FD01214FF48000FEF7D1FDAF48D0
:10AB1000AF4CFFF7B7F9AF48FFF7B4F901211020A8
:10AB2000FEF7E2FD01214FF40030FEF7CFFD0121D9
:10AB30004FF48020FEF7CAFDFEF700FE01A8FEF7E5
:10AB400031FC4FF6FF72032301A9A34801928DF84F
:10AB50000830FEF7D5FB01A9A048FEF7D1FB01A9FB
:10AB60009F48FEF7CDFB4FF4A060FDF7F1FF04F521
:10AB7000A0770126022509A8FEF714FC2278637845
:10AB800034F805EC54F8090C8DF82A2009A98DF841
:10AB90002B308DF828608DF82950CDF824E0203432
:10ABA000FEF7AEFB54F8293C34F8252C5A83BC42FE
:10ABB000E1D18C4C022704F1800609A8FEF7F2FBD4
:10ABC0006278A37834F804EC257854F8080C8DF8F2
:10ABD0002A2009A98DF82B308DF82970CDF824E0B2
:10ABE0008DF828502034FEF78BFB54F8283C34F8BD
:10ABF000242C1A83B442E0D1DFF80C824FF0020912
:10AC0000444608F1C00709A8FEF7CCFB257AA688C0
:10AC1000627AA37A54F8200B8DF8285009A98DF890
:10AC2000299009968DF82A208DF82B30FEF768FBC5
:10AC3000A7424FF00205E6D10BF0A4FB0020FFF77E
:10AC4000B9FB0120FFF7B6FB0A20674C04F024FB98
:10AC500003A8FEF7A7FB03A88DF81150FEF7A2FB8F
:10AC6000A289238A8DF8105013439BB2A0680393E6
:10AC700003A9FEF745FB2279E189A068FEF7A6FB50
:10AC80002279618AA068FEF7A1FB05A8FFF7C0F949
:10AC90000026A36A2068059305A9ADF81C60FFF79C
:10ACA00055F98DF80250A37D50485149514A06800C
:10ACB00001250E808DF8015016808DF803501BBBC6
:10ACC000227D82B901234C4A206813701946FFF790
:10ACD000ABF9D8F88030B8F884201A83FFF78EFCDF
:10ACE00019B0BDE8F08318A8627D00F8602D4349D3
:10ACF000434A0B801380FDF735FF2A4640F2255169
:10AD00002068FFF7B1F9DDE709A8FEF7E1F823684D
:10AD1000606A4FF4806204334FF480310A930F92DB
:10AD20000D921391FEF710F823684FF480720433EC
:10AD30000A931292606A2C4DFEF7ECF80346002845
:10AD4000F8D1AE69686A2F4A0C9309A90B9209964B
:10AD5000FEF792F80121686A284EFEF7CBF801222F
:10AD600040212868FFF776F9686AFEF7CFF818AA3D
:10AD700095F8203002F8603DC0F58060204903B2AC
:10AD8000104633800B80FDF7EDFEE869FDF7DCFF30
:10AD9000E069154EFEF7BEF805460028F8D14023BD
:10ADA000F0690C9309A91295FEF766F82946F06937
:10ADB000FEF7AAF8F06901221021FEF7AFF830681B
:10ADC00001228021FFF746F97CE700BF0010014017
:10ADD00061000020004400400000024000040240E6
:10ADE00000080240A003002040030020C08500208E
:10ADF000C4850020D08D0020BC850020CC8500209B
:10AE0000C8850020D0850020180400200000000024
:10AE10002DE9F04F2DED088BB0EE409AF0EE609AE0
:10AE2000ADF52E5D8DB04FF4A9621A9025915CA806
:10AE3000D3495BEC12AB8DED181BFDF7EFFD4FF422
:10AE4000A962D0490DF5D760FDF7E8FD4FF4A9627E
:10AE5000CD490DF54060FDF7E1FD0DF58A504FF449
:10AE6000A962CA490830FDF7D9FDB0EE490AF0EEF3
:10AE7000690A18F021FF55EC104BB0EE490AF0EECC
:10AE8000690A18F0B9FEB2A3D3E9002351EC100B04
:10AE90008DED000BFDF79AFAAFA3D3E90023064628
:10AEA0000F4620462946FDF791FADDE9002380464A
:10AEB000894630463946FDF789FA224606460F464E
:10AEC0002B4640464946FDF781FA02460B4630467E
:10AED0003946FDF7C9F841EC100B19F0C5F859ECEB
:10AEE000108B10EE100A52465B464946FDF76EFA8B
:10AEF00099A3D3E9002306460F46FDF7B5F822468D
:10AF00002B46FDF763FA92A3D3E90023CDE90201B2
:10AF100030463946FDF7A8F8DDE90023FDF756FA7B
:10AF20009DED021B41EC100B19F09CF88CA3D3E9AA
:10AF30000023204629468DED260BFDF747FA2246D1
:10AF40002B46FDF743FA02460B4687A1D1E90001E3
:10AF5000FDF788F886A3D3E9002306460F4620466E
:10AF60002946FDF733FA22462B46FDF72FFA024613
:10AF70000B4677A1D1E90001FDF774F802460B46B4
:10AF800030463946FDF74CFB524604460D465B46BB
:10AF900050465946FDF768F842464B46FDF716FA0B
:10AFA000524606460F465B4650465946FDF70EFA96
:10AFB00002460B4630463946FDF756F802460B4628
:10AFC00020462946FDF750F841EC100B19F04CF8DB
:10AFD000DDE92601B0EE40AAF0EE60AAFDF7CEFC56
:10AFE00000EE100A08EE100A18F0A2FF10EE100A88
:10AFF000FDF798F9B0EE480ACDE9000118F0E8FF36
:10B0000010EE100AFDF78EF9002204460D460023CB
:10B01000CDE90845FDF742FC002801F0928556A3D2
:10B02000D3E9002320462946FDF71EF802460B46C9
:10B0300000205749FDF7F4FA0DF5DE54CDE9220161
:10B040000DF5B450183410300125002100220023E2
:10B05000C4E90023C0E90023002901F06785012924
:10B06000C4E90223C0E9022301F060850229C4E992
:10B070000423C0E9042301F059850329C4E9062308
:10B08000C0E9062301F052850429C4E90823C0E978
:10B09000082301F04B850529C4E90A23C0E90A23E6
:10B0A00001F044850629C4E90C23C0E90C2301F012
:10B0B0003D850729C4E90E23C0E90E2301F036853A
:10B0C0000829C4E91023C0E9102301F02F850929BC
:10B0D000C4E91223C0E9122301F028850A29C4E932
:10B0E0001423C0E914234FF000064FF0000701F0CD
:10B0F0001D850C29C4E91623C0E9162341F03785C4
:10B100000DF504530DF5DE5218331032C3E9006714
:10B11000C2E90067029304929DED087B0DF5B852D9
:10B1200082ED007B9DED007B0DF5E252083282ED51
:10B13000007B0DF5B752183282ED007B1449154B98
:10B140000DF5B4520020103226E000BFAFF30080AE
:10B150004082E2E7EE658341E811A546B0448341B1
:10B1600040EC89C8D015B442B8C0D8CCA0841743ED
:10B17000002CB89E509F10413A8C30E28E79453EAB
:10B1800058840208A0890208E88E02083094020858
:10B190000000F03F30190020DDE90867C2E9000136
:10B1A0000DF5DE520DF5E2511832002400250DF5A3
:10B1B000E25004311B780660C2E9004507F1004205
:10B1C0000A60002B68D1CE4F02263046FDF798F872
:10B1D00002460B46FCF748FF002204460D46C94BC9
:10B1E000FCF740FF22462B46FDF71AFA41EC100B04
:10B1F00018F03AFF01360D2EA7EC020BE5D14FF007
:10B20000000ADFF80CB3D0464FF0010908FB08F044
:10B21000FDF776F806460F46B8F1000F01F0A4845A
:10B22000B9F10D0F4C462BD004EB0A050BEB0515BD
:10B23000601E00FB00F0FDF763F832463B46FCF76A
:10B2400011FF41EC100B18F00FFF04FB04F085ED2B
:10B25000000BFDF755F832463B46FCF703FF41EC87
:10B26000100B18F001FF002053EC102BA549FDF73F
:10B27000D7F901340D2CC5E9020105F11005D7D12C
:10B2800008F10108B8F10D0F09F101090AF10D0AE1
:10B29000BCD19D4A012313709C4E0DF5B853D3E9E0
:10B2A00000AB96ED047B0DF5E25452465B46DDE9BA
:10B2B000080108348DED067BD4E90045FDF786F8DA
:10B2C000DDE90623FDF782F822460DF5BB548046E2
:10B2D00089461034C4E900892B46DDE90801FDF7F1
:10B2E00075F8524604460D465B46DDE90001FDF760
:10B2F0006DF802460B4620462946FCF7B5FEDDE90F
:10B300000623FDF763F80DF5E55796ED067B044639
:10B310000D461837C7E9004542464B46DDE90801AE
:10B320008DED067BFDF752F8DDE90623FDF74EF8BB
:10B33000224682468B460DF5BF54C4E900AB2B462E
:10B34000DDE90801FDF742F8424604460D464B464A
:10B35000DDE90001FDF73AF802460B462046294692
:10B36000FCF782FEDDE90623FDF730F80DF5E9571D
:10B3700096ED087B04460D460837C7E9004552465E
:10B380005B46DDE908018DED067BFDF71FF8DDE981
:10B390000623FDF71BF822460DF5C2548046894668
:10B3A0002B46DDE908011034C4E90089FDF70EF8E9
:10B3B000524604460D465B46DDE90001FDF706F8FE
:10B3C00002460B4620462946FCF74EFEDDE90623E1
:10B3D000FCF7FCFF0DF5EC5796ED0A7B04460D4695
:10B3E0001837C7E9004542464B46DDE908018DEDB7
:10B3F000067BFCF7EBFFDDE90623FCF7E7FF2246BF
:10B4000082468B460DF5C654C4E900AB2B46DDE9F8
:10B410000801FCF7DBFF424604460D464B46DDE9DA
:10B420000001FCF7D3FF02460B4620462946FCF7F5
:10B430001BFEDDE90623FCF7C9FF0DF5F05796ED7D
:10B440000C7B04460D460837C7E9004552465B466B
:10B45000DDE908018DED067BFCF7B8FFDDE9062389
:10B46000FCF7B4FF22460DF5C954804689461034D6
:10B47000C4E900892B46DDE90801FCF7A7FF524625
:10B4800004460D465B46DDE90001FCF79FFF0246DE
:10B490000B4620462946FCF7E7FDDDE90623FCF7CD
:10B4A00095FF96ED0E7B0DF5F35704460D461837C4
:10B4B0008DED067B42464B46DDE90801C7E90045B4
:10B4C000FCF784FFDDE90623FCF780FF2246824675
:10B4D0008B460DF5CD542B46C4E900ABDDE90801E0
:10B4E000FCF774FF424604460D464B46DDE9000179
:10B4F000FCF76CFF02460B46204629460AE000BFD7
:10B50000D81800200000F03F30190020C818002093
:10B51000380E0020FCF7A8FDDDE90623FCF756FFF6
:10B520000DF5F75796ED107B04460D460837C7E931
:10B53000004552465B46DDE908018DED067BFCF7D0
:10B5400045FFDDE90623FCF741FF22460DF5D05407
:10B55000804689461034C4E900892B46DDE908019C
:10B56000FCF734FF524604460D465B46DDE9000118
:10B57000FCF72CFF02460B4620462946FCF774FDDB
:10B58000DDE90623FCF722FF0DF5FA57D6E912ABE9
:10B5900004460D461837C7E9004542464B46DDE9EB
:10B5A0000801FCF713FF52465B46FCF70FFFCDE99D
:10B5B00006019DED067B22460DF5D45484ED007BFB
:10B5C0002B46DDE90801FCF701FF424604460D4623
:10B5D0004B46DDE90001FCF7F9FE02460B4620462A
:10B5E0002946FCF741FD52465B46FCF7EFFE0DF5A0
:10B5F000FE57D6E914AB04460D460837DDE90623AD
:10B60000C7E90045DDE90801FCF7E0FE52465B466C
:10B61000FCF7DCFE89460DF5D75180461031C1E9B3
:10B62000008922462B46DDE90801FCF7CFFEDDE963
:10B63000062304460D46DDE90001FCF7C7FE02467D
:10B640000B4620462946FCF70FFD52465B46FCF7A9
:10B65000BDFE82468B464BEC17ABD6E916450DF581
:10B660000051383181ED007B42464B46DDE908014F
:10B67000CDE906ABFCF7AAFE22462B46FCF7A6FE58
:10B6800082468B460DF5DB5142464B46C1E900AB85
:10B69000DDE90001FCF79AFEDDE9062380468946D4
:10B6A000DDE90801FCF792FE02460B46404649469A
:10B6B000FCF7DAFC22462B46FCF788FEDDE9088918
:10B6C000D6E918670DF5025E0EF1280E04460D4608
:10B6D000CEE9004552465B4640464946FCF776FEB9
:10B6E00032463B46FCF772FE2246049C2B46C4E9D8
:10B6F000000140464946FCF769FE524604460D46A5
:10B700005B46DDE90001FCF761FE02460B46204680
:10B710002946FCF7A9FC3B463246FCF757FE029B44
:10B72000C3E9000100230B930D9301230C930B9BA2
:10B73000F0EE008ABFEE008AB2EE06BA002B01F0EE
:10B740000F820C9B0D2B9A4600F095850AEB4A0B55
:10B750000B9E0AEB8B0BB3440DF5DE534FEACB0B7C
:10B76000183303EB0B050DF5B4531033BAF10A0F80
:10B7700003EB0B070AF1010401F3DE8117ED1A7BDD
:10B780008DED047B07EE90AAF8EEE77AB0EE487AEA
:10B79000A7EEA87A17EE100AFCF7C4FD06EB4603E5
:10B7A00006EB830BC24B0B960BEB0A0603EB06165C
:10B7B00096ED007BDDE90423CDE90E01DDE9000112
:10B7C0008DED067BFCF702FEDDE90E23FCF7FEFDA6
:10B7D00057E93423CDE90201DDE90601FCF7F6FD66
:10B7E000D6E9028915ED1A7B02460B46DDE9020116
:10B7F0008DED107BFCF736FC42464B46FCF7E6FD30
:10B8000015ED347BCDE902018DED127B9DED027BC0
:10B81000DDE9102387ED007BDDE90001FCF7D6FDB3
:10B82000DDE9042306460F46DDE90801FCF7CEFDFD
:10B8300002460B4630463946FCF714FCDDE90E2380
:10B84000FCF7C4FDDDE9122306460F46DDE90601DB
:10B85000FCF7BCFD02460B4630463946FCF702FCBD
:10B8600042464B46FCF7B2FD07EE904AF8EEE77A07
:10B87000B0EE487AA7EEA87ACDE91201C5E9000139
:10B8800017EE100AFCF74EFD894B0BEB040503EB9A
:10B89000051595ED007B8DED0E7B95ED027B8946C0
:10B8A0008046DDE90223DDE900018DED067BFCF732
:10B8B0008DFD4B464246FCF789FDDDE90423064633
:10B8C0000F46DDE90E01FCF781FD02460B463046CE
:10B8D0003946FCF7C7FBDDE90623FCF777FD04EBEF
:10B8E00044060B9BCDE9040104EB86069DED047B29
:10B8F0001E440DF5B454F6001034344484ED007B3E
:10B90000DDE91223DDE90001FCF760FDDDE902233A
:10B9100004460D46DDE90801FCF758FD02460B46DA
:10B9200020462946FCF79EFB4B464246FCF74EFD5F
:10B93000DDE9102304460D46DDE90E01FCF746FD66
:10B9400002460B4620462946FCF78CFBDDE9062320
:10B95000FCF73CFD0DF5DE541834A3190AF103067B
:10B96000CDE91401C3E900010B2E514816900AF1EC
:10B97000020900F3F88307EE909AF8EEE77AB0EE4A
:10B98000487AA7EEA87A4A4D0BEB090405EB04149C
:10B9900017EE100AFCF7C6FC94ED007B8DED0E7BD4
:10B9A00094ED027BDDE90423CDE91001DDE900011E
:10B9B0008DED067BFCF70AFDDDE91023FCF706FDA3
:10B9C000DDE9022304460D46DDE90E01FCF7FEFC2D
:10B9D00002460B4620462946FCF744FBDDE90623D8
:10B9E000FCF7F4FC09EB49070B9CCDE9020109EBDC
:10B9F00087079DED027B27440DF5B451FF00103100
:10BA0000CC1984ED007BDDE91423DDE90001FCF7AE
:10BA1000DDFCDDE9042304460D46DDE90801FCF701
:10BA2000D5FC02460B4620462946FCF71BFBDDE908
:10BA30001023FCF7CBFCDDE9122304460D46DDE9BB
:10BA40000E01FCF7C3FC02460B4620462946FCF7D4
:10BA500009FBDDE90623FCF7B9FC07EE906AF8EE76
:10BA6000E77AB0EE487AA7EEA87A0A4601460DF5C5
:10BA7000DE501830074417EE100A42EC171BCDE9D0
:10BA8000121287ED007BFCF74DFCCDE9100108494F
:10BA90000BEB060401EB041494ED007B8DED0E7BA3
:10BAA00094ED027BDDE90223DDE9000102E000BF45
:10BAB000380E00208DED067BFCF788FCDDE91023B5
:10BAC000FCF784FCDDE9042304460D46DDE90E01A4
:10BAD000FCF77CFC02460B4620462946FCF7C2FADE
:10BAE000DDE90623FCF772FC06EB4603CDE9040111
:10BAF0000B9906EB83069DED047B0E440DF5B453C4
:10BB0000F60010339C1984ED007BDDE91223DDE99A
:10BB10000001FCF75BFCDDE9022304460D46DDE98C
:10BB20000801FCF753FC02460B4620462946FCF769
:10BB300099FADDE91023FCF749FCDDE914230446FA
:10BB40000D46DDE90E01FCF741FC02460B4620469E
:10BB50002946FCF787FADDE90623FCF737FC0DF5EB
:10BB6000DE530AF1050818331E44B8F10B0FCDE976
:10BB700014010AF10409C6E9000100F3F48207EE9A
:10BB8000909AF8EEE77AB0EE487AA7EEA87A0BEB37
:10BB900009040AF1070717EE100AFCF7C3FBC64BAE
:10BBA00003EB041494ED007B8DED0E7B94ED027B92
:10BBB00005460E46DDE90423DDE900018DED067B37
:10BBC000FCF704FC2A463346CDE91056FCF7FEFB91
:10BBD000DDE9022304460D46DDE90E01FCF7F6FB24
:10BBE00002460B4620462946FCF73CFADDE90623CF
:10BBF000FCF7ECFB09EB49060B9BCDE9020109EBD5
:10BC000086069DED027B1E440DF5B454F6001034FB
:10BC1000344484ED007BDDE91423DDE90001FCF709
:10BC2000D5FBDDE9042304460D46DDE90801FCF7F8
:10BC3000CDFB02460B4620462946FCF713FADDE908
:10BC40001023FCF7C3FBDDE9122304460D46DDE9B2
:10BC50000E01FCF7BBFB02460B4620462946FCF7CB
:10BC600001FADDE90623FCF7B1FB07EE908AF8EE56
:10BC7000E77AB0EE487AA7EEA87A04460DF5DE50D2
:10BC80000D461830CDE91245064417EE100A45EC72
:10BC9000174B894D0BEB080405EB041486ED007B74
:10BCA000FCF740FB94ED007B8DED0E7B94ED027B69
:10BCB000DDE90223CDE91001DDE900018DED067B10
:10BCC000FCF784FBDDE91023FCF780FBDDE90423AE
:10BCD00004460D46DDE90E01FCF778FB02460B46F3
:10BCE00020462946FCF7BEF9DDE90623FCF76EFB8A
:10BCF00008EB48060B9CCDE9040108EB86069DED98
:10BD0000047B26440DF5B451F60010318C1984EDF6
:10BD1000007BDDE91223DDE90001FCF757FBDDE9DB
:10BD2000022304460D46DDE90801FCF74FFB0246FD
:10BD30000B4620462946FCF795F9DDE91023FCF770
:10BD400045FBDDE914230D460446DDE90E01FCF751
:10BD50003DFB02460B4620462946FCF783F9DDE908
:10BD60000623FCF733FB0DF5DE5518352E440B2F5B
:10BD7000CDE910010AF10609C6E9000100F3F381DB
:10BD800007EE909AF8EEE77AB0EE487AA7EEA87A36
:10BD90000BEB090417EE100AFCF7C4FA0E464649ED
:10BDA00001EB041494ED007B8DED067B94ED027B9A
:10BDB0000546DDE90423DDE900018DED0E7BFCF78E
:10BDC00005FB2A463346CDE91456FCF7FFFADDE9B8
:10BDD000022304460D46DDE90601FCF7F7FA0246A8
:10BDE0000B4620462946FCF73DF9DDE90E23FCF71A
:10BDF000EDFA09EB4906CDE902010B9909EB86063C
:10BE00009DED027B0E440DF5B453F60010339C19E2
:10BE100084ED007BDDE90023DDE91001FCF7D6FAB3
:10BE2000DDE9042304460D46DDE90801FCF7CEFAFE
:10BE300002460B4620462946FCF714F9DDE9142397
:10BE4000FCF7C4FADDE9122304460D46DDE90601DC
:10BE5000FCF7BCFA02460B4620462946FCF702F9DD
:10BE6000DDE90E23FCF7B2FA07EE907AF8EEE77AF6
:10BE7000B0EE487AA7EEA87A03460C460DF5DE52DE
:10BE8000183217EE100A44EC173B164486ED007B7F
:10BE9000CDE91234FCF746FA074B0BEB070403EB32
:10BEA000041494ED007B8DED0E7B94ED027B054632
:10BEB0000E46DDE9022301E0380E0020DDE9000135
:10BEC0008DED067BFCF782FA2A463346CDE91456FF
:10BED000FCF77CFADDE90E2304460D46DDE904019A
:10BEE000FCF774FA02460B4620462946FCF7BAF8DE
:10BEF000DDE90623FCF76AFA07EB47060B9BCDE961
:10BF0000040107EB86069DED047B1E440DF5B45439
:10BF1000F6001034344484ED007BDDE91223DDE9C2
:10BF20000001FCF753FADDE9022304460D46DDE982
:10BF30000801FCF74BFA02460B4620462946FCF75F
:10BF400091F8DDE91423FCF741FADDE90E230446FC
:10BF50000D46DDE91001FCF739FA02460B46204692
:10BF60002946FCF77FF8DDE90623FCF72FFA0DF5EB
:10BF7000DE5418342644BAF1020F0AF10809CDE95B
:10BF80001001C6E9000140F0EE8007EE909AF8EE4D
:10BF9000E77AB0EE487AA7EEA87A0BEB090409EB32
:10BFA000490809EB880817EE100AFCF7BBF90646AA
:10BFB000C94800EB041494ED007B8DED067B94EDF5
:10BFC000027B0F46DDE90423DDE900018DED0E7BE8
:10BFD000FCF7FCF932463B46FCF7F8F9DDE90223B1
:10BFE00004460D46DDE90601FCF7F0F902460B4672
:10BFF00020462946FCF736F8DDE90E23FCF7E6F982
:10C000000B9CCDE902019DED027BA0440DF5B451DE
:10C010004FEAC808103101EB080484ED007BDDE92C
:10C020001023DDE90001FCF7D1F9DDE90423044622
:10C030000D46DDE90801FCF7C9F902460B4620462A
:10C040002946FCF70FF832463B46FCF7BFF9DDE91D
:10C05000122304460D46DDE90601FCF7B7F9024656
:10C060000B4620462946FBF7FDFFDDE90E23FCF7D2
:10C07000ADF9F0EE487AEBEE287A0A460DF5DE557A
:10C080000146183517EE900A42EC171BA84488EDBC
:10C09000007BCDE91212FCF745F90F468E490B9C47
:10C0A0000BF10B0501EB05150646DDE90223DDE981
:10C0B000000195ED027B8DED067BFCF787F932469A
:10C0C0003B46D5E900ABCDE90E67FCF77FF9DDE92A
:10C0D000042306460F4650465946FCF777F90246B8
:10C0E0000B4630463946FBF7BDFFDDE90623FCF77A
:10C0F0006DF98F340DF5B453E40010331D19C5E903
:10C100000001DDE91223DDE90001FCF75FF9DDE95B
:10C11000022306460F46DDE90801FCF757F90246FF
:10C120000B4630463946FBF79DFFDDE90E23FCF751
:10C130004DF9DDE9102306460F4650465946FCF7F7
:10C1400045F902460B4630463946FBF78BFFDDE9E1
:10C150000623FCF73BF90DF5DE5318331C44C4E904
:10C1600000014FF00C090B9A09EB490302F1005250
:10C1700009EB8303A2F11A010DF5B4500D3A1944ED
:10C18000103013440D9A00EBC1080DF5DE514A44FE
:10C19000183101EBC3051346169A02EB031407EEA0
:10C1A000909AF8EEE77AB0EE487AA7EEA87A09F10D
:10C1B0000109103498ED1A6B17EE100A8DED046B1F
:10C1C000FCF7B0F814ED047B06460F46DDE90423C6
:10C1D000DDE900018DED027BFCF7F8F832463B46C5
:10C1E000CDE90667FCF7F2F8D8E9002306460F46CA
:10C1F000DDE90201FCF7EAF854E902AB02460B461E
:10C2000030463946FBF72EFF52465B46FCF7DEF818
:10C21000D5E90023C8E93401DDE90001FCF7D6F8CF
:10C22000DDE9042306460F46DDE90801FCF7CEF8F8
:10C2300002460B4630463946FBF714FFDDE906237C
:10C24000FCF7C4F855E91A2306460F46DDE902015A
:10C25000FCF7BCF802460B4630463946FBF702FFB6
:10C2600052465B46FCF7B2F8B9F10D0F08F16808C9
:10C27000E5E91A0193D10C9A0B9B01320C920D9AAD
:10C2800001330D320D2B0B930D927FF457AA1348F7
:10C290001A9B03441846FCF733F80DA3D3E9002397
:10C2A000FCF7BEF90DF58A560DF5045B0DF5195A2C
:10C2B000012304460D460DF5B8790DF540680DF5DE
:10C2C000D76708360BF1200B0AE000BFAFF3008000
:10C2D0000000000000D47640380E00206289DAFFAA
:10C2E0000AF1280A0093D8E91A2320462946FCF7C8
:10C2F0006DF8D9E91A23FBF7B7FED6E91A23CBE983
:10C300001A0120462946FCF761F8D7E91A23FBF702
:10C31000ABFED8E91C23CAE91A0120462946FCF7DE
:10C3200055F8D9E91C23FBF79FFED6E91C23CBE97E
:10C330001C0120462946FCF749F8D7E91C23FBF7E6
:10C3400093FED8E91E23CAE91C0120462946FCF7C2
:10C350003DF8D9E91E23FBF787FED6E91E23CBE97A
:10C360001E0120462946FCF731F8D7E91E23FBF7CA
:10C370007BFED8E92023CAE91E0120462946FCF7A6
:10C3800025F8D9E92023FBF76FFED6E92023CBE976
:10C39000200120462946FCF719F8D7E92023FBF7AE
:10C3A00063FECAE92001D8E9222320462946FCF78A
:10C3B0000DF8D9E92223FBF757FED6E92223CBE972
:10C3C000220120462946FCF701F8D7E92223FBF792
:10C3D0004BFED8E92423CAE9220120462946FBF76F
:10C3E000F5FFD9E92423FBF73FFED6E92423CBE967
:10C3F000240120462946FBF7E9FFD7E92423FBF770
:10C4000033FED8E92623CAE9240120462946FBF752
:10C41000DDFFD9E92623FBF727FED6E92623CBE962
:10C42000260120462946FBF7D1FFD7E92623FBF753
:10C430001BFED8E92823CAE9260120462946FBF736
:10C44000C5FFD9E92823FBF70FFED6E92823CBE95E
:10C45000280120462946FBF7B9FFD7E92823FBF737
:10C4600003FECAE92801D8E92A2320462946FBF71A
:10C47000ADFFD9E92A23FBF7F7FDD6E92A23CBE95B
:10C480002A0120462946FBF7A1FFD7E92A23FBF71B
:10C49000EBFDD8E92C23CAE92A0120462946FBF7FF
:10C4A00095FFD9E92C23FBF7DFFDD6E92C23CBE957
:10C4B0002C0120462946FBF789FFD7E92C23FBF7FF
:10C4C000D3FDD8E92E23CAE92C0120462946FBF7E3
:10C4D0007DFFD9E92E23FBF7C7FDD6E92E23CBE953
:10C4E0002E0120462946FBF771FFD7E92E23FBF7E3
:10C4F000BBFDD8E93023CAE92E0120462946FBF7C7
:10C5000065FFD9E93023FBF7AFFDD6E93023CBE94E
:10C51000300120462946FBF759FFD7E93023FBF7C6
:10C52000A3FDCAE93001D8E9322320462946FBF7AA
:10C530004DFFD9E93223FBF797FDD6E93223CBE94A
:10C54000320120462946FBF741FFD7E93223FBF7AA
:10C550008BFD009B01330D2BCAE93201009308F1DA
:10C56000680809F168090BF1680B06F1680607F124
:10C5700068070AF1680A7FF4B6AEDDE918560022B2
:10C58000002328463146FBF721FF41EC100B41EC1C
:10C59000180B17F091FB28AB8DED280BB0EE480A75
:10C5A000F0EE680A1F9317F027FB42AB8DED420BAC
:10C5B00046EC105B249317F07FFB1F9B83ED020B6F
:10C5C00046EC105B17F018FB249C2A46334684ED9A
:10C5D000020B28463146FBF747FD41EC100B41ECBE
:10C5E000180B17F069FB1F9B83ED040BB0EE480A94
:10C5F000F0EE680A17F000FB249C9D4B002284EDAE
:10C60000040B28463146FBF7E1FE41EC100B41ECF0
:10C61000180B17F051FB1F9B83ED060BB0EE480A79
:10C62000F0EE680A17F0E8FA249C924B002284EDA1
:10C63000060B28463146FBF7C9FE41EC100B41ECD6
:10C64000180B17F039FB1F9B83ED080BB0EE480A5F
:10C65000F0EE680A17F0D0FA249C874B002284ED94
:10C66000080B28463146FBF7B1FE41EC100B41ECBC
:10C67000180B17F021FB1F9B83ED0A0BB0EE480A45
:10C68000F0EE680A17F0B8FA249C7C4B002284ED87
:10C690000A0B28463146FBF799FE41EC100B41ECA2
:10C6A000180B17F009FB1F9B83ED0C0BB0EE480A2B
:10C6B000F0EE680A17F0A0FA249C714B002284ED7A
:10C6C0000C0B28463146FBF781FE41EC100B41EC88
:10C6D000180B17F0F1FA1F9B83ED0E0BB0EE480A12
:10C6E000F0EE680A17F088FA249C664B002284ED6D
:10C6F0000E0B28463146FBF769FE41EC100B41EC6E
:10C70000180B17F0D9FA1F9B83ED100BB0EE480AF7
:10C71000F0EE680A17F070FA249C5B4B002284ED5F
:10C72000100B28463146FBF751FE41EC100B41EC53
:10C73000180B17F0C1FA1F9B83ED120BB0EE480ADD
:10C74000F0EE680A17F058FA249C504B002284ED52
:10C75000120B28463146FBF739FE41EC100B41EC39
:10C76000180B17F0A9FA1F9B83ED140BB0EE480AC3
:10C77000F0EE680A17F040FA249C454B002284ED45
:10C78000140B28463146FBF721FE41EC100B41EC1F
:10C79000180B17F091FA1F9B83ED160BB0EE480AA9
:10C7A000F0EE680A17F028FA249C3A4B002284ED38
:10C7B000160B28463146FBF709FE41EC100B41EC05
:10C7C000180B17F079FA1F9B83ED180BB0EE480A8F
:10C7D000F0EE680A17F010FA9FED217B8DED1A7BC1
:10C7E000249C53EC1A2B84ED180B1FA1D1E90001F6
:10C7F000FBF716FF02460B46CDE92023FBF7E6FDCB
:10C800009FED177BCDE91C018DED187B8DED167B1F
:10C810000222002314920DF50452683320321A4488
:10C820000B920DF5195228321A440D920DF5B4529F
:10C8300010329FED0B7B1A440E920DF5DE5218322A
:10C840001E938DED087BD3188DED067B8DED047B5B
:10C850001093DDF87C90249B0C934FF000081BE0B4
:10C8600000000000000000003333333333E3B840EE
:10C870000000084000001040000014400000184074
:10C8800000001C4000002040000022400000244026
:10C8900000002640000028400B9B0D9CF3E802ABF3
:10C8A0000B930C9BB3EC027B8DED007B0C9353EC54
:10C8B000172BB4EC027B504659468DED027B0D944C
:10C8C000FBF784FDF9E8024506460F4622462B4653
:10C8D000DDE90201FBF77AFD02460B463046394698
:10C8E000FBF7C2FB0E9BF3E802670E9332463B4612
:10C8F000CDE91201FBF76AFD02460B46DDE90401B2
:10C90000FBF7B2FBCDE904011099F1E80223109185
:10C91000DDE91201FBF75AFD02460B46DDE906018F
:10C92000FBF7A2FB2246CDE906012B4650465946AD
:10C93000FBF74CFDDDE9022304460D46DDE900016D
:10C94000FBF744FD02460B4620462946FBF78AFBCF
:10C95000044640460D46FBF7D3FC02460B462046F4
:10C960002946FBF733FD32463B46FBF72FFD0B46CE
:10C970000246DDE90801FBF777FBCDE90801149BCE
:10C9800008F10108984587D1DDE92023DDE91C0184
:10C99000FBF71CFD04460D464046CDE91C45FBF760
:10C9A000AFFCDDE90423FBF711FD22462B46FBF724
:10C9B0000DFD02460B46DDE91601FBF755FB22464D
:10C9C000CDE916012B46DDE90601FBF7FFFC024627
:10C9D0000B46DDE91801FBF745FB2246CDE91801BE
:10C9E0002B46DDE90801FBF7F1FC08F10104DDE964
:10C9F00022231494FBF7EAFC0B460246DDE91A01F8
:10CA0000FBF732FB0E2CCDE91A011E9B7FF403AF1E
:10CA100053EC192B5EA1D1E90001FBF723FB024681
:10CA20000B46DDE92601FBF71DFB41EC100B41EC49
:10CA3000180B17F041F957EC106BB0EE480AF0EE06
:10CA4000680A17F0D9F8DDE918AB59EC108B10EE35
:10CA5000102A50464B460BF10041FBF7B7FC32461B
:10CA600004460D463B46DDE91601FBF7AFFC0246E6
:10CA70000B4620462946FBF7F5FA04460D46DDE94C
:10CA80001601FBF77BFF259B594618605046CDE900
:10CA900018ABFBF773FF259A5060DDE91A01FBF72D
:10CAA0006DFF259B82462946C3F808A02046FBF768
:10CAB00065FF259B3246D860C3F810A0DDE9180158
:10CAC0003B46FBF783FC424606460F464B46DDE9F4
:10CAD0001601FBF77BFC02460B4630463946FBF756
:10CAE000C1FAFBF74BFF259900224861002320463D
:10CAF0002946FBF7D3FE30B100220023DDE91A01FD
:10CB0000FBF7CCFE18BB45EC114B9DED1A0B17F053
:10CB1000A9FA51EC100BFBF731FF00EE100A0DF5EE
:10CB20002E5D0DB0BDEC088BBDE8F08F013168348F
:10CB300068300135FEF78CBA134B1693D146FFF7D8
:10CB400012BB2046294600220023FEF76DBA9FED56
:10CB50000F0A0DF52E5D0DB0BDEC088BBDE8F08F12
:10CB60004FF0020AFEF7F2BD0224FEF75DBB0D2D69
:10CB7000DCD10DF50453183302930DF5DE53103359
:10CB80000493FEF7C9BA00BF380E00200000000071
:10CB900000000060FB21F93F2DE9F0413C4D3D498B
:10CBA00095F80680B5F904203A4CA8F10E004FEA3A
:10CBB000E07E81FB0031CEEB610102F5965C0CEB6F
:10CBC000010340F2B55C0CFB03FC84FB0030AEEBD0
:10CBD0006000A8F1020800EB400702F59952E879DD
:10CBE0002D4B40F26F1E08EB87070432BCF1000F9B
:10CBF0000EFB07F70A44A0F5FA41B8BF0CF1030C8D
:10CC000084FB070483FB0203FF17D2174B3901EBA8
:10CC1000AC01C7EB6404C2EB631388B0661813EB76
:10CC20004304D5E9260114A3D3E9002348BF033404
:10CC3000FBF7CCFB12A3D3E90023FBF7C7FB0EA342
:10CC4000D3E90023CDE90001D5E92401FBF7BEFBC0
:10CC50000BA3D3E90023FBF7B9FBA6EBA40441EC3B
:10CC6000100B9DED001B02A920469FED072BFEF740
:10CC7000CFF808B0BDE8F08148AFBC9AF2D77A3E51
:10CC8000000000A046DF913F00000000000000000F
:10CC900040220020ABAAAA2A1F85EB514FF0FF309B
:10CCA000704700BF39493A4BD1F88820394842F4DF
:10CCB0007002C1F888201A68002142F001021A604F
:10CCC00099601A6822F0847222F480321A605860E7
:10CCD0001A6882B022F480221A60D9600091019112
:10CCE0001A6842F480321A601A4603E0009BB3F5DA
:10CCF000A06F09D0136803F400330193009B013344
:10CD00000093019B002BF1D0214B1B6813F40033DF
:10CD100018BF01230193019B012B05D01B4B4FF042
:10CD200000629A6002B07047194B1B491A6C1B488D
:10CD300042F080521A640A6842F480420A609A689B
:10CD40009A609A6842F400429A609A6842F4A0524B
:10CD50009A6058601A6842F080721A601A46116828
:10CD60000B4B8901FBD50E4A40F2056111609A68B0
:10CD700022F003029A609A6842F002029A601A4610
:10CD8000936803F00C03082BFAD1C7E700ED00E02D
:10CD90000038024010300024007000400854400762
:10CDA000003C024001460148FDF7ACB9B804002040
:10CDB000F8B52448244CFDF7A1F92378834212D01A
:10CDC000224B1B78052B0ED009F0E2FA4FF4967037
:10CDD00002F062FA09F0D6FA002002F05DFA194872
:10CDE000FDF78CF920701A4B16481B78012B25D0C3
:10CDF000FDF784F9E0B9174B1B78BBB9B0FA80F2A4
:10CE0000520915494B79C3F3C004A2420DD062F315
:10CE1000C303124C124F134E134D4B7100220123CA
:10CE200022703A8032802A802370F8BD0122E8E720
:10CE30000E4B1878003018BF0120DCE7FDF75EF9D3
:10CE4000D9E700BF3804002038190020BD8F00202A
:10CE500078230020C00500204C900020BC850020D5
:10CE6000C8850020CC850020B87D0020D22000207D
:10CE700010B5374C2379DB0704D5364B93F90030D6
:10CE8000002B1CDD237A324A990613D493780120B3
:10CE900003405BB963782E4A1B0607D413792E4AE8
:10CEA00003F0010383F00103137010BD2A4A01232C
:10CEB000137010BD284A01231370184610BDFFF7E8
:10CEC00077FFF8B9227A22499006F3D4CB7913F090
:10CED000C00F1CD1214B1B78112B18D00879830669
:10CEE00015D58B7813F0200F06D0400604D548796D
:10CEF00000F02400242810D003F001030120002BAF
:10CF0000C8D0D3E7164B1B78002BBBD1DAE7A37848
:10CF100001200340002BBDD0C8E708788006EBD481
:10CF2000497AC906E8D41007E6D413F0010306D104
:10CF3000627822F07F0202F0FF00002AAAD0E07897
:10CF400080F00200C0F34000002BA3D0AEE700BF8A
:10CF50004C9000200C7D002039190020B5050020E0
:10CF60007923002038B50B4B587910F0240400D0F9
:10CF700038BD094D02F08AF92B689842F8D902F0C1
:10CF800085F900F5FA732B602046BDE8384009F0BA
:10CF90005BBA00BF4C9000203419002038B505461C
:10CFA00005EB85050C4605EB850509F0F1F904EB69
:10CFB0008404A80080B204EB840402F06DF909F047
:10CFC000E1F9A00080B2BDE8384002F065B900BFC9
:10CFD00090B138B50546002409F0DAF90134C820CB
:10CFE00002F05AF9E4B209F0CDF94FF4487002F0BA
:10CFF00053F9A542F0D138BD704700BF38B5364B64
:10D000001B7833B9354A137813F0280F3AD0012131
:10D0100001E0324A01219379304861F34103937171
:10D020009A073BD503789B060FD42D4B2D4D1B78CB
:10D030002D4C042B4AD07D232B80238002F026F92F
:10D040002A4BDB6D98420CD838BD264D264C4FF448
:10D0500016732B80238002F019F9244BDB6D984264
:10D06000F2D909F09BF918B302F010F9B5F90020D4
:10D07000172102F045F909F085F90120BDE8384093
:10D0800009F0C0B9164B1B78042BC0D0184B197887
:10D09000A1F10301B1FA81F14909BCE702F0F6F808
:10D0A000124B5B699842CFD9BDE8384009F06AB9A4
:10D0B00002F0ECF8B4F90020172102F021F909F090
:10D0C00067F90120BDE8384009F072B941F28E22BB
:10D0D000FA232A802380B1E7391900204C900020E0
:10D0E000BD8F0020140500201C050020C08F0020EB
:10D0F0004826002008B50EF0E7FF09F0E5F94FF4E7
:10D10000FA7002F0C9F809F015FA4FF4FA7002F05B
:10D11000C3F8F2E710B53C4C63791A064BD53B4B8C
:10D12000D3EDB87AF5EEC07AF1EE10FA44D49FED63
:10D13000387AF4EEC77AF1EE10FA0DD5D3ED117A04
:10D14000F5EEC07AF1EE10FA3ED49FED317AF4EEAE
:10D15000C77AF1EE10FA3ED402F098F82D4BD3F8CE
:10D160008430984227D92C4A2C4BD2ED007A93ED8B
:10D17000007A77EEC77AF5EEC07AF1EE10FA36D47F
:10D18000B6EE007AF4EEC77AF1EE10FA4CBF012346
:10D19000002383B1224A234B92ED007AD3ED007A2B
:10D1A000B4EEE77AF1EE10FA05DDE3785B0702D41E
:10D1B0001D4B04221A7010BD9FED1C7AF4EEC77A45
:10D1C000F1EE10FABADCC7E79FED187AF4EEC77AF1
:10D1D000F1EE10FAC0DD02F059F84FF47A72212115
:10D1E00002F08EF80D4A0C4B12681A6010BDBEEEAC
:10D1F000007AF4EEC77AF1EE10FACCBF01230023D7
:10D20000002BC7D1D7E700BF4C900020A02F0020F3
:10D21000AA619C3FC08F00201805002080370020A5
:10D22000087D0020D47C0020BD8F0020AA619CBF17
:10D2300070B52DED028B664E664C674D84B002F0E2
:10D2400025F8337803EB43031E2134F8232002F042
:10D2500057F8337895ED008A042B00F2B180DFE8AF
:10D2600003F03944666B0300002000F015FEDFED8B
:10D270005B7ADFED5B0AB4EE670AF1EE10FAC8BF25
:10D28000B0EE670A17F034F8DFED567A337820EE07
:10D29000270A85ED000A03EB430304EB8303D3ED78
:10D2A000017AF4EEC07AF1EE10FA5DD8D3ED027A8D
:10D2B000F4EEC07AF1EE10FAACBF012100214A4A27
:10D2C000937861F3C71393701B064FD404B0BDEC81
:10D2D000028B70BD002000F0DFFDDFED447A337873
:10D2E00020EE270A85ED000AD5E703AA0223009263
:10D2F0001A46E021052012F025F89DF80C209DF833
:10D300000D309FED3B7A03EB022307EE903AF8EEE7
:10D31000E77A012367EE877A5122E0210520C5EDE7
:10D32000007A12F049F8337895ED000AB3E703ABC1
:10D33000009300220223DCE7002000F0ADFDDFEDCA
:10D340002D7ADFED2D0AB4EE670AF1EE10FAC8BFB0
:10D35000B0EE670A16F0CCFFDFED287A337820EEC6
:10D36000270A85ED000A96E70021A8E701F044FFAF
:10D370002349244C01F09AFFF7EE007A87EE807A79
:10D38000214A224BD5ED007A82ED000AF0EE401AD8
:10D39000F0EE670AB0EE480AB1EE041AC4ED007A66
:10D3A00083ED007A03F0C8FDD4ED007A85ED000A24
:10D3B00037EEC00A84ED000A04B0BDEC028B70BDEC
:10D3C000DFED137AB0EE670AC5ED007A63E700BFC0
:10D3D0008C230020109A02082C260020FA7E2A3F77
:10D3E000BBB8F5BF1799BE424C9000200AD7234125
:10D3F0000AD7233CC1CA413FE17A94BF9CC4704123
:10D40000441900209837002028260020E825002015
:10D410000000000070B584B0032003AE01F03CFFB3
:10D420000223A022EE210096012011F08BFF9DF82F
:10D430000C109DF80D30294A294D43EA0123138031
:10D44000A024224602230096EE21012011F07AFF4B
:10D4500002349DF80C209DF80D30E4B243EA02231B
:10D46000B02C25F8023FECD11E4BDFED1F3A5A8954
:10D470009FED1E4ADFED1E4A06EE902A9A8807EEBF
:10D48000102A5A8807EE902A1A8905EE102ADA889F
:10D490009B8905EE902A06EE103AF8EE666AB8EE21
:10D4A000477AF8EE677A134B66EEA36A27EE047AA2
:10D4B000BBEEEC5A67EEA47AFBEECC5ABBEEE46A04
:10D4C000C3ED056A83ED027A83ED045AC3ED017A58
:10D4D000C3ED035A83ED066A04B070BDFE2500203B
:10D4E0007A2300207C230020000080430000804736
:10D4F00000000047082600202DE9F04F2DED088B95
:10D5000087B006AB1E2203F8052DD74D00930024EB
:10D510002C60D64DDFEDD68A2C6001231846002200
:10D52000EE2111F01DFFFFF775FFD24BD1489B781C
:10D53000D14CD24AD2499FEDD39AD34FDFF8ACB346
:10D54000D24E43F0200383700020009084F81C0129
:10D55000CF4C82F81C010870034620705822EE213F
:10D56000012011F0FDFEC8255CE03368C74A9C42EB
:10D5700053D9C8499FEDC87A0B68DFF868A3DFF874
:10D5800070830C60E31A07EE903AF8EE677AB7EE14
:10D59000008A67EE877A9AED007AC049C04BDFF8BF
:10D5A0005493D8ED001A83ED007AC8EE276A6434EC
:10D5B0001460B0EE672AB0EE481AF0EE470AB0EEFB
:10D5C000470AC1ED006AC9ED007A03F0F9FC9BED52
:10D5D000007ADFEDB47A8AED000ADFEDB30A87EE58
:10D5E000270A16F085FEA04B38EE408ADFEDAF0A21
:10D5F00093ED000A99ED002AD8ED001A9FEDAC1AC0
:10D6000068EE200A03F0DCFC9A4B974A9B7982ED86
:10D61000000A984A43F001039371013DADB2002D19
:10D6200000F0F5800A2001F037FE01F02FFE3B6884
:10D6300004469C42944898D905AB04F10A0E009325
:10D6400000220323EE21C0F800E0012011F07AFE51
:10D650009DF815308E4A9DF814A09DF8161012788A
:10D660008B481B0203EB0A4303EB010A62B9914AA0
:10D670000123C2F800A00370402200230093EE2192
:10D68000012011F06DFE70E78A4A8B4BD2ED007AD3
:10D6900093ED057AD3ED065A93ED046A93ED02AA51
:10D6A000D3ED036AD3ED01AAF8EE677AF0EE689A3B
:10D6B00077EEC77AE7EEA59AA7EE86AAF4EEE89A87
:10D6C000F1EE10FAE7EEA6AA4CD539EEE88A9FED06
:10D6D0007B7A68EE087AF4EEC79AB0EE04BAB7EE39
:10D6E000048AF1EE10FA27EE8BBA27EE888A35D538
:10D6F000DFED737A79EEA77A67EEA77A17EE900AD4
:10D70000FAF710FE00226F4BCDE90201FAF75EFE38
:10D7100080461BEE100A8946FAF704FE02460B46C5
:10D7200040464946FAF7A0FCFBF728F90022664B71
:10D730000BEE100ADDE90201FAF748FE804618EE0A
:10D74000100A8946FAF7EEFD02460B464046494666
:10D75000FAF78AFCFBF712F908EE100A3AEE4BAA28
:10D760007AEEC8AA07EE90AAF8EEE77A69EE899AEF
:10D7700067EEAA7A17EE900AFAF7D4FD80461AEE01
:10D78000100A8946FAF7CEFD0022504BFAF71EFE2A
:10D7900002460B4640464946FAF764FC30A3D3E9FB
:10D7A0000023FAF713FEFBF7E9F8494B494AC3EDAA
:10D7B000009A00EE100A0421304882ED000A03F0BE
:10D7C00043FB454B9FED457AD3ED027ADFED446A8A
:10D7D0008BED000A37EE870AB4EEE60AF1EE10FA96
:10D7E00012D4B4EE470AF1EE10FAC8BFB0EE470A01
:10D7F0002021214803F028FB3A4A82ED000A244AFE
:10D8000000231370582238E7B0EE660AF0E701F003
:10D810003DFD1B210A2201F073FD9BED000ADFEDA7
:10D82000217A314BDFED200A002280EE270A1A60B0
:10D8300016F05EFD0C4BF7EE007A37EEC00A9FED56
:10D840001B7A60EE077AC3ED007A084BC3ED007ACD
:10D8500007B0BDEC088BBDE8F08F00BFAFF30080D0
:10D86000D52293F7FFFFAF3D90230020E025002055
:10D870000000FA444C9000209C230020BC2400208F
:10D88000342600200AD7233C481900203C190020E8
:10D89000FC250020401900206F12833A0426002046
:10D8A000FC1B002080E6C547B1DC423E002A2D4724
:10D8B0006766664020050020082600200080BBC463
:10D8C0000080BB4400001C400000164000004041A6
:10D8D00094230020E42500204C3A00200AE81C4153
:10D8E0000AE81CC1F0250020E8370020302600207F
:10D8F000EC2500209823002038B5224CA378E2784C
:10D9000043F040031207A3702CD41F4D2B78042B37
:10D9100004D8DFE803F0072020070700A3786FF39F
:10D920008613A37001F0B2FC2B78184A03EB430373
:10D930001E2132F8232001F0E3FC154AA378114898
:10D940000021116003F0400202F0FF017AB961F397
