:020000040800F2
:1000000000000220A9ED0108054D0108074D010877
:100010000F4D0108174D01081F4D01080000000099
:10002000000000000000000000000000274D010853
:10003000294D0108000000002B4D0108E54C010886
:10004000FDED0108FDED0108FDED0108FDED0108E4
:10005000FDED0108FDED0108FDED0108FDED0108D4
:10006000FDED0108FDED0108FDED0108FDED0108C4
:10007000FDED0108FDED0108FDED0108FDED0108B4
:10008000FDED0108254E0108FDED0108FDED01081B
:10009000FDED0108FDED0108FDED0108FDED010894
:1000A000FDED0108FDED0108FDED0108FDED010884
:1000B0002D4D0108794D0108FDED01087F4E010825
:1000C000794E01088B4E0108854E0108FDED0108AF
:1000D000FDED01086D4E0108734E0108FDED0108AC
:1000E000FDED0108FDED0108FDED0108FDED010844
:1000F000FDED0108FDED0108FDED0108FDED010834
:10010000FDED0108FDED0108FDED0108FDED010823
:10011000FDED0108FDED0108FDED0108FDED010813
:10012000FDED0108FDED0108914D0108FDED01080F
:10013000FDED0108FDED0108FDED0108FDED0108F3
:10014000FDED0108FDED0108FDED0108FDED0108E3
:10015000FDED0108FDED0108DD4D0108FDED010893
:10016000FDED0108FDED0108FDED0108FDED0108C3
:10017000FDED0108FDED0108FDED0108FDED0108B3
:08018000FDED0108FDED010891
:1080000010B540F2E864C2F20004237863B940F28C
:108010000000C0F2000028B140F68470C0F60200F3
:10802000AFF300800121217010BD00BF08B540F200
:108030000003C0F200034BB140F6847040F2EC61E3
:10804000C0F60200C2F20001AFF3008040F2E4602B
:10805000C2F20000016829B140F20003C0F200033F
:1080600003B1984708BD00BF70B542F2FB16C3F6D6
:10807000E97621F00043B34286B01CDD4FF6FF7273
:10808000C7F6EF72934205DD02460B4603F086FB0E
:1080900006B070BD02AA00F0AFFB00F00303DDE9FB
:1080A0000201012B13D0022B0AD0C3B9DDE904234E
:1080B00001F0F2FBECE70022002301F0EDFBE7E723
:1080C000DDE9042301F0E8FB01F10041E0E7009362
:1080D000DDE9042302F024F901F10041D8E701238E
:1080E0000093DDE9042302F01BF9D1E770B542F2F9
:1080F000FB16C3F6E97621F00043B34286B01EDDDD
:108100004FF6FF72C7F6EF72934205DD02460B464B
:1081100003F044FB06B070BD02AA00F06DFB00F056
:10812000030001281DD0022810D008BB0123DDE97F
:1081300002010093DDE9042302F0F2F8EAE70022ED
:1081400000230024009402F0EBF8E3E70123DDE9CB
:1081500002010093DDE9042302F0E2F801F100419D
:10816000D8E7DDE90201DDE9042301F095FBD1E761
:10817000DDE90201DDE9042301F08EFB01F100419C
:10818000C8E700BF40F6D87320F00042C3F6497339
:1081900001469A4200B583B015DDB2F1FF4F03DB13
:1081A00003F0C6FF03B000BD694601F071F900F0AD
:1081B00003020098012A10D0022A08D09AB9019926
:1081C00002F062F9EEE7002102F05EF9EAE70199B8
:1081D00002F05AF900F10040E4E7019902F046FD8F
:1081E00000F10040DEE70122019902F03FFDD9E7EE
:1081F000D0F1010338BF0023B0F1004F08BF43F0B6
:1082000001030BB102207047A0F5000300F1FF420B
:10821000B3F1FE4F2CBF00230123B2F1FE4F38BF54
:1082200043F001030BB1042070474FF6FE73411E6B
:10823000C0F27F0300F10042013A99428CBF002155
:1082400001219A428CBF0B4641F001030BB1032080
:10825000704710F5000F14BF00230123B0F1FF4F4A
:1082600014BF184643F00100704700BF40F6D873B2
:1082700020F00042C3F6497301469A4200B583B02C
:1082800016DDB2F1FF4F03DB03F052FF03B000BD78
:10829000694601F0FDF800F00300012815D002281E
:1082A0000BD0B8B900980122019902F0DFFCEDE78C
:1082B0000021002202F0DAFCE8E70098012201998F
:1082C00002F0D4FC00F10040E0E70098019902F0D0
:1082D000DBF8DBE70098019902F0D6F800F10040E6
:1082E000D4E700BF00F074B92DE9D04F8AB006463C
:1082F0000F4600F0A5FC40F20004C2F2000494F91D
:10830000003001338046894631D03046394602F08C
:108310007BFF00282BD04FF0000A4FF0000B3046B7
:10832000394652465B4603F05FFE00B3247840F6C0
:108330006073C0F602030122CDE904678DE80C00EA
:108340000023CDE902670893B4B15046594652461E
:108350005B4603F001FD022CCDE906010ED104F0CD
:10836000DDF921230360089B73B9DDE906894046E6
:1083700049460AB0BDE8D08FCDE906AB684602F0A9
:108380008BFF0028EFD1EAE704F0C8F9089B0360EF
:10839000EBE700BF70B58AB0064600F02DFD40F255
:1083A0000004C2F2000494F900300133054603D002
:1083B0003046FFF71DFF10B928460AB070BD3046A1
:1083C00003F01CF94FF07E5104F078F90028F3D047
:1083D00040F668733046C0F6020301930123009310
:1083E0000023089303F03AFB024640F67470C0F68F
:1083F00002000B46CDE90423CDE9022302F04EFF33
:1084000094F90030022BCDE906010BD0684602F04A
:1084100043FF38B1089B53B9DDE9060103F034FE90
:108420000546C9E704F07AF921230360F2E704F076
:1084300075F9089B0360EFE700F06ABE70B58AB07B
:10844000054600F011FF40F20004C2F2000494F966
:108450000030013306463DD0284603F0D3F800280B
:1084600038D04FF4E3412846C4F2B12104F026F994
:10847000002832D14FF2B5112846CCF2CF2104F0BA
:10848000FFF838B340F670732846C0F60203019334
:10849000042300930023089303F0E0FA94F90040CA
:1084A00000220023022CCDE90623CDE90401CDE909
:1084B000020135D0684602F0EFFE002830D0089B5C
:1084C0001BB104F02BF9089B0360DDE9060103F002
:1084D000DBFD064630460AB070BD40F67073284694
:1084E000C0F602030193032300930023089303F0D3
:1084F000B5FA2478CDE90401CDE9020144B94FF67B
:10850000FF734FF06042C4F2EF73CDE90623D1E769
:1085100000220023022CC7F6F073CDE90623C9D14F
:1085200004F0FCF822230360C9E700BF70B58AB0ED
:10853000064601F059F940F20004C2F2000494F931
:1085400000300133054630D03046FFF751FE002899
:108550002BD03046002104F093F830B340F6787306
:108560003046C0F6020301930123009300230893D1
:1085700003F074FA2478CDE90401CDE90201BCB11D
:108580000020002102460B4603F0E6FB022CCDE959
:10859000060111D104F0C2F821230360089B8BB9B6
:1085A000DDE9060103F070FD054628460AB070BDFE
:1085B00000220023CDE90623684602F06DFE002864
:1085C000ECD1E7E704F0AAF8089B0360E8E700BFF6
:1085D0002DE9F04F83B014461D46CDE900235242E9
:1085E0002243002325F00047C7F6F07347EAD27212
:1085F00082469A428B4606464ED8424221F0004CB3
:10860000024388464CEAD2729A4245D805F140436B
:1086100003F58013234363D0AB175CEA060603F02F
:10862000020343EAD17944D03C4351D00023C7F63A
:10863000F0739F4267D00023C7F6F0739C4547D084
:10864000C7EB0C073F153C2F59DC17F13C0FACBFB3
:108650000027012717EAD57700F084800020002149
:10866000B9F1010F04BF824601F1004B1CD0B9F1F2
:10867000020F68D082468B46B9F1000F14D04CA38C
:10868000D3E9002303F08AF84BA3D3E9002303F0D6
:1086900085F882468B4607E050465946DDE90023BF
:1086A00003F07EF882468B465046594603B0BDE83B
:1086B000F08FB9F1030FB7D801A353F829F000BF29
:1086C000A9860008A9860008F5860008EB86000840
:1086D000B8F1000F32DB0FF2E80BDBE900ABE3E7A8
:1086E00003B0BDE8F04F02F043BB0FF2DC0BDBE957
:1086F00000ABD9E70FF2C00BDBE900ABD4E730A148
:10870000D1E90001ACE7BC4537D0B9F1030F92D8ED
:1087100001A353F829F000BF338700082987000818
:10872000F5860008EB8600084FF0000A4FF0004B7A
:10873000BAE74FF0000A4FF0000BB5E70FF2900BCD
:10874000DBE900ABB0E71AA3D3E9002303F026F876
:1087500002460B4618A1D1E9000103F01FF882463A
:108760008B46A1E7DDE900235046594603F0F4FAB1
:1087700002F0A6FC02F0FCFA72E7B9F1030FA7D8E9
:10878000DFE809F0110C07020FF24C0BDBE900AB3C
:108790008AE70FF24C0BDBE900AB85E70FF2480BE1
:1087A000DBE900AB80E70FF2480BDBE900AB7BE7CE
:1087B000075C143326A6A13C182D4454FB21094024
:1087C000182D4454FB21F93F182D4454FB2109C0B6
:1087D000182D4454FB21F9BFD221337F7CD902C02C
:1087E000D221337F7CD90240182D4454FB21E9BFAC
:1087F000182D4454FB21E93F42F2FB132DE9F04FC1
:10880000C3F6E97321F000468FB09E4204460D4640
:108810008846174640F3A3804DF67B13C4F202034B
:108820009E4226DC002996A3D3E9002340F3B281BF
:1088300002F0B4FF42F2FB13C3F6F9739E42804686
:10884000894600F0A18090A3D3E90023012402F01F
:10885000A5FF02460B46C7E900014046494602F023
:108860009DFF89A3D3E9002302F098FFC7E9020125
:108870007CE042F2FB13C4F239139E4240F3A18024
:108880004FF6FF73C7F6EF739E4273DC4FEA26592B
:108890008246A9F58269A9F106094FEA0951731ABE
:1088A00019469B4603F0C8FB03F0C6F804460D4684
:1088B00002460B4650465946CDE9084502F06EFF88
:1088C00000230022C4F2701303F01CF904460D4685
:1088D00003F0B2FB03F0B0F802460B4682468B462B
:1088E00020462946CDE90AAB02F058FF00230022BA
:1088F000C4F27013032403F005F900220023CDE92C
:108900000C0103F067FB90B1032450465946002246
:1089100000230AAD013C03F05DFB40B175E90201A3
:1089200000220023013C03F055FB0028F6D123462A
:108930005D4C08A839464A4601940224009401F08F
:10894000D3F8B8F1000F044610DA7A684442FB68A5
:1089500002F100427A6003F10043FB6006E0C2E9E5
:108960000045002400220023C7E9022320460FB05F
:10897000BDE8F08F02460B4602F010FF0024C7E965
:108980000201C7E90001F1E741A3D3E90023012473
:1089900002F004FF40A3D3E900238046894602F099
:1089A000FDFE02460B46C7E900014046494602F07B
:1089B000F5FE39A3D3E9002302F0F0FEC7E9020176
:1089C000D4E702F07DFB36A3D3E9002382468B4631
:1089D00003F098F800230022C3F6E07302F0E0FEF3
:1089E00003F02AFB044603F027F825A3D3E900236C
:1089F000CDE9040103F086F802460B46504659467D
:108A000002F0CCFE20A3D3E9002382468B46DDE9A9
:108A1000040103F077F81F2CCDE9020150465946B6
:108A200044DC40F24C33621EC0F6020353F822309D
:108A3000B3423BD0DDE9022302F0B0FE81460D4691
:108A400002460B46C7E900234A462B465046594684
:108A500002F0A4FEDDE9022302F0A0FEB8F1000F4F
:108A600002460B46C7E9022380DA05F1004501F111
:108A70000041C7F8009064427D60B860F96075E716
:108A800000004054FB21F93F3163621A61B4D03DCC
:108A90000000601A61B4D03D7370032E8A19A33BA5
:108AA00083C8C96D305FE43FCC030208DDE90223CF
:108AB000361502F073FEC1F30A538146F31A0D46D0
:108AC000102BC7E90001BFDD53A3D3E90023DDE983
:108AD000040103F017F8CDE902015046DDE9022355
:108AE000594602F05BFECDE9060150465946DDE9E4
:108AF000062302F053FEDDE9022302F04FFE48A3F5
:108B0000D3E9002382468B46DDE9040102F0FAFF37
:108B100052465B4602F042FECDE90201DDE9022346
:108B2000DDE9060102F03AFEC1F30A538146F31A69
:108B30000D46312BC7E900016BDD3BA3D3E90023D0
:108B4000DDE9040102F0DEFFCDE90201DDE90223E7
:108B5000DDE9060102F022FE82468B4652465B4664
:108B6000DDE9060102F01AFEDDE9022302F016FE3D
:108B70002FA3D3E90023CDE90201DDE9040102F0CE
:108B8000C1FFDDE9022302F009FECDE902015046F2
:108B900059464FE702F004FE42F2FB13C3F6F973A5
:108BA0009E428046894616D023A3D3E900234FF086
:108BB000FF3402F0F5FD02460B46C7E900014046CE
:108BC000494602F0EBFD1CA3D3E9002302F0E8FDC7
:108BD000C7E90201CAE610A3D3E900234FF0FF342E
:108BE00002F0DEFD0EA3D3E900238046894602F0A1
:108BF000D7FD02460B46C7E900014046494602F050
:108C0000CDFD07A3D3E9002302F0CAFDC7E90201A5
:108C1000ACE6DDE906AB17E70000601A61B4D03DB1
:108C20007370032E8A19A33B0000002E8A19A33B00
:108C3000C14920259A837B393163621A61B4D03DE2
:108C40002DE9F84300242546C7F6F074C7F6F07501
:108C50000C40AC4206460F4689460B46024600F0E1
:108C6000AB8000297FDD091500F08880A1F57E7CAE
:108C700023F07F43C90723F47003ACF1070C43F4DE
:108C8000801362D5D10F002701EB43034FEA6C0C30
:108C90005200162438464FF400114518D60F9D4255
:108CA0004FEA4202DEBFC5EB030368187F1849088C
:108CB000013C06EB4303F0D12026A0464FF00041D3
:108CC000984201EB08050EDB834214BF4FF0000908
:108CD0004FF0010995428CBF4FF0000909F00109DE
:108CE000B9F1000F0ED005F0004905EB0108B9F10C
:108CF000004F23D081461B1A954288BF013B521B6F
:108D000064184846D50F49085200013E05EB43035D
:108D1000D6D113431ED164087B10FA0703F17E53AA
:108D200048BF44F0004403F5C0034FEA0C5C0CEB71
:108D30000307264630463946BDE8F883B8F1000FF0
:108D4000A8BF00F10109D6DAD4E7D10F520001EB38
:108D5000430397E7611C1CBF04F001031C19DAD11F
:108D600001373446D8E721F000440443E2D000291B
:108D700036D1D30A15395205002BFAD013F48010DE
:108D80002AD15B000130DC02FBD5C0F10105C0F146
:108D9000200432FA04F449192343A1F57E7C824071
:108DA00023F07F43C90723F47003ACF1070C43F4AD
:108DB00080133FF567AFC8E702460B4602F0A2FEFC
:108DC00002460B463046394602F0EAFC06460F469C
:108DD00030463946BDE8F883202401250020D8E735
:108DE00002460B4602F0DAFC02460B4602F0B4FFE4
:108DF00006460F469EE700BF2DE9F04720F00045EC
:108E0000B5F17E5F0446064600F0FD8000F3D58094
:108E1000B5F17C5F10DAB5F1485F80F20A814FF25C
:108E2000CA21C7F2491103F085F94FF07E5103F0D2
:108E300045FC002840F0C880204602F0DFFB0146D8
:108E40004FF07E5003F074F94FF07C5103F07AFA42
:108E50004EF60871C3F61101044603F073FA47F6A3
:108E60000471C3F64F2103F065F9214603F06AFA55
:108E700041F24611C3F6245103F05AF9214603F09A
:108E800061FA40F6A821C3F64E6103F053F921467A
:108E900003F058FA4BF29001C3F6A66103F048F9CB
:108EA000214603F04FFA4AF6AB21C3F62A6103F0DC
:108EB00041F9214603F046FA4CF22E61C3F69D516A
:108EC0008146204603F03EFA43F26131C3F6307129
:108ED00003F02EF9214603F035FA45F22D71C4F264
:108EE000010103F027F9214603F02CFA4DF2391164
:108EF000C4F2190103F01CF9214603F023FA4FF0E4
:108F00007E5103F017F98046204600F06DFC49F6CB
:108F10009913C3F679739D42074658DC014620F445
:108F20007E6503F007F9414625F01F058246484655
:108F300003F0BCFA0146504603F004FA2946804685
:108F4000284603F0FFF90146204603F0F1F82946D0
:108F50000446384603F0EEF80146204603F0A6FA30
:108F6000014603F0E7F801464BF62E50CBF23B30BA
:108F700003F0DEF80146404603F0DAF829460446DD
:108F8000284603F0D7F8014640F6DB70C3F6497077
:108F900003F0CEF80146204603F0CAF8014640F639
:108FA000DB70C3F6497003F0C3F8002ED4BF00F1A4
:108FB000004404462046BDE8F087014603F0B8F8B7
:108FC000014603F073FA04462046BDE8F0874146A7
:108FD000484603F06BFA0146384603F0B3F93946C8
:108FE00003F0A8F8014603F0A5F84BF62E51C3F2A2
:108FF0003B3103F09FF8014640F6DB70C3F6C970C1
:1090000003F096F8D1E740F6DB71C3F6C97103F0BF
:1090100099F94BF62E51CBF23B310546204603F031
:1090200091F90146284603F085F804462046BDE83C
:10903000F087014603F086F94EF60871C3F6110178
:10904000054603F07FF947F60471C3F64F2103F09C
:1090500071F8294603F076F941F24611C3F624511E
:1090600003F066F8294603F06DF940F6A821C3F62F
:109070004E6103F05FF8294603F064F94BF290016A
:10908000C3F6A66103F054F8294603F05BF94AF6EB
:10909000AB21C3F62A6103F04DF8294603F052F9DB
:1090A0004CF22E61C3F69D510646284603F04AF95C
:1090B00043F26131C3F6307103F03AF8294603F008
:1090C00041F945F22D71C4F2010103F033F829464C
:1090D00003F038F94DF23911C4F2190103F028F800
:1090E000294603F02FF94FF07E5103F023F8014693
:1090F000304603F0DBF90146204603F023F9014630
:10910000204603F017F804462046BDE8F08700BF6C
:10911000F8B520F00044B4F1FF4F21F00046D4BF71
:1091200000270127B6F1FF4FC8BF47F001070346EC
:10913000002F45D1B1F17E5F4CD08F1707F00207A9
:1091400047EAD0774CB9022F3FD0032F03D140F626
:10915000DB73CCF249031846F8BD36B3B6F1FF4FC6
:1091600055D0B4F1FF4F20D0A41BE4153C2CC4BF54
:1091700040F6DB70C3F6C97030DD012F08BF00F187
:109180000043E8D0022F33D00346002FE3D04BF644
:109190002E51C3F2BB3102F0CDFF40F6DB71C4F2B9
:1091A000490102F0C5FF0346D5E7002840F6DB730E
:1091B000B8BFCBF6C973CEDBC3F6C9731846F8BD8A
:1091C00002F0B8FF03461846F8BD40F6DB73C4F260
:1091D0004903C0E7BDE8F84002F0F2B814F13C0FD3
:1091E000ACBF0024012414EAD1741DD00020C4E7D0
:1091F0004BF62E51C3F2BB3102F09CFF014640F604
:10920000DB70C4F2490002F093FF0346A3E7B4F118
:10921000FF4F10D0022FD8D0032F98D00023012F5A
:1092200099D14FF0004396E703F040F902F0E6F9D8
:1092300002F0C6F8A1E7022F04BF4CF6E433C4F2F3
:10924000160388D0032F04BF4CF6E433CCF2160388
:1092500081D0012F40F6DB7318BFC3F649737FF44A
:109260007AAFCBF6497376E720F00042B2F1FF4FB8
:109270002DE9F843044600F2B0804FEAD07500F0C3
:10928000B38047F21721C4F2B121884200F3B280C3
:109290004FF2B513C4F2CF239A4294BF002305F0D6
:1092A0000103002B40F0A28047F21821C3F6B16100
:1092B0008A4240F2AA8041F29153C3F685739A42E2
:1092C00040F2D4804AF63B21C3F6B87103F03AF875
:1092D00040F2D443C0F6020303EB8503196902F0A0
:1092E00029FF03F0F5F9074602F0D8FF4FF4E341F8
:1092F000C3F63171054603F025F80146204602F019
:1093000017FF4FF2D171C3F217718046284603F060
:1093100019F881464046494602F00AFF04462146B4
:10932000204603F00FF84BF64C31C3F231310646BC
:1093300003F008F84EF60E21C3F2DD5102F0F8FEFC
:10934000314602F0FFFF4BF25531C3F68A0102F0BD
:10935000F1FE314602F0F6FF40F66131C3F63631D8
:1093600002F0E6FE314602F0EDFF4AF6AB21C3F60D
:109370002A6102F0DFFE314602F0E4FF014620469A
:1093800002F0D6FE0546002F58D00146204602F0D6
:10939000D9FF294604464FF0804002F0C9FE01463D
:1093A000204603F083F8FC050146484602F0C0FE63
:1093B000414602F0BDFE01464FF07E5002F0B8FE7D
:1093C00017F17D0F04440CDA64374FF05861FF0544
:1093D000381802F0B7FF044603E0014602F0AAFE87
:1093E00004462046BDE8F883002DFAD0002420462C
:1093F000BDE8F8834FF2CA20C7F24910014602F0D7
:10940000A1FF04462046BDE8F883B2F1465F28BFBD
:109410001F4684D24FF2CA21C7F2491102F08AFED8
:109420004FF07E5103F04AF900283FF478AF204610
:109430004FF07E5102F07EFE0446D2E720462946D8
:1094400002F080FF4FF080410646284602F070FE91
:109450000146304603F02AF8214602F069FE014633
:109460004FF07E5002F064FE0446BAE740F2D44466
:109470006F42C0F6020454F8251004EB850402F094
:1094800057FE7D1BD4F808906F1C804642E700BF52
:1094900040F6D8732DE9F04FC3F6497320F0004B26
:1094A00089B09B4505460C4640F38C804CF6E3336F
:1094B000C4F216039B4526DC00284FF47861C3F6FE
:1094C000C97140F3538102F033FE4FF47D632BF0FA
:1094D0000F0BC3F6C9739B45054600F0828044F22A
:1094E00043410126C3F2357102F022FE014620609D
:1094F000284602F01DFE44F24341C3F2357102F0EA
:1095000017FE606062E04FF47863C4F249339B4514
:1095100040F38280BBF1FF4F5CDA4FEAEB59A9F1CF
:1095200086094FEAC953C3EB0B0B584603F0D0F83A
:1095300002F0B4FE034601465846059302F0F8FDDA
:109540004FF0874102F0FEFE064603F0C1F802F03C
:10955000A5FE014607463046069702F0E9FD4FF0AA
:10956000874102F0EFFE00210326079003F07EF80A
:1095700088B10326384600210DF11808013E03F09A
:1095800075F840B158F8047D0021013E384603F0DB
:109590006DF80028F6D13346924E05A821464A467A
:1095A00001960226009601F04BF8002D06460DDAD2
:1095B00022684642636802F10042226003F10043E0
:1095C000636003E00026002308604B60304609B06A
:1095D000BDE8F08F0146002602F0AAFD6060206021
:1095E000F4E74FF488410126C3F2357102F0A0FD83
:1095F0004AF20831C2F68561054602F099FD01463E
:109600002060284602F094FD4AF20831C2F68561D6
:1096100002F08EFD6060D9E701F0F0FF4FF6841193
:10962000C3F62271074602F08DFE4FF07C5102F026
:1096300081FD03F04DF8064602F030FE4FF47861EC
:10964000C3F6C971824602F07DFE0146384602F03B
:109650006FFD44F24341C3F235718046504602F03B
:1096600071FE1F2E8146404621DC40F2EC43711E04
:10967000C0F602032BF0FF0253F821309A4216D0B5
:10968000494602F055FD074620603946404602F043
:109690004FFD494602F04CFD002D606096DA07F15F
:1096A000004700F100402760764260608EE749463F
:1096B0004FEAEB5B02F03CFDC0F3C7530746C3EB38
:1096C0000B032060082BE0DD4FF488415046C3F2C5
:1096D000357102F037FE07464046394602F028FD54
:1096E00003904046039902F023FD394602F020FD25
:1096F0004AF20831C2F685610746504602F022FE62
:10970000394602F015FD81460398494602F010FDE6
:10971000C0F3C7530746C3EB0B0B2060BBF1190F17
:10972000D8BFDDF80C80B0DD4FF423415046C2F6BF
:10973000856102F007FE07460398394602F0F8FCFF
:1097400080460398414602F0F3FC394602F0F0FCF3
:1097500043F23211C2F28D410746504602F0F2FD4B
:10976000394602F0E5FC8146404689E702F0E2FC1A
:109770004FF47D632BF00F0BC3F6C9739B45054671
:1097800014D044F243414FF0FF36C3F2357102F07A
:10979000D1FC01462060284602F0CAFC44F2434155
:1097A000C3F2357102F0C6FC60600FE74FF48841E8
:1097B0004FF0FF36C3F2357102F0BCFC4AF20831BB
:1097C000C2F68561054602F0B5FC014620602846D8
:1097D00002F0AEFC4AF20831C2F6856102F0AAFC42
:1097E0006060F3E66C05020820F000420346B2F127
:1097F000FF4F70B5044639D2002A35D000283FDB30
:10980000C115B2F5000F09D210F4000240D15B007F
:1098100001321802FBD5C2F10102891823F07F43FF
:10982000A1F17F0223F40003D10743F4000348BFF2
:109830005B000026541019215B0035464FF0807202
:10984000A8189842DEBFC0EB03038518B61852086B
:109850005B000139F4D113B106F001039E197610B3
:10986000E40506F17C56A419204670BD014602F0BD
:1098700069FD0146204602F05DFC0446204670BDAD
:10988000014602F055FC014602F010FE0446EBE7EB
:1098900001228918C2E700BF2DE9F04F21F00044F2
:1098A00087B0B4F1795F80468946CDE900236DDA4F
:1098B00002F0C2FB002800F0F78042464B464046CB
:1098C000494602F01FF97CA3D3E9002306460F4660
:1098D00002F018F97AA3D3E9002301F061FF3246C0
:1098E0003B4602F00FF978A3D3E9002301F056FFBD
:1098F00032463B4602F006F975A3D3E9002301F096
:109900004FFF32463B4602F0FDF873A3D3E9002334
:1099100001F044FF32463B4602F0F4F870A3D3E96D
:10992000002301F03DFF32463B4602F0EBF8824651
:109930008B460023002230463946C3F6E07302F01E
:10994000E1F852465B46CDE902013046394602F065
:10995000D9F8DDE9002304460D464046494602F0A9
:10996000D1F802460B462046294601F017FF024671
:109970000B46DDE9020101F011FF0B460021024612
:10998000C3F6F071002001F009FF7FE002460B46AC
:1099900002F0B8F848A3D3E9002306460F4602F0C8
:1099A000B1F847A3D3E9002301F0FAFE32463B4663
:1099B00002F0A8F844A3D3E9002301F0EFFE3246F9
:1099C0003B4602F09FF842A3D3E9002301F0E8FEF2
:1099D00032463B4602F096F83FA3D3E9002301F05C
:1099E000DDFE32463B4602F08DF83DA3D3E900236D
:1099F00001F0D6FE3B46324602F084F843F23233A1
:109A0000C3F6D3739C4282468B4692DD0023C3F695
:109A1000E9739C423DDC0021A4F5001300220020E4
:109A2000C3F6F07114461D4601F0B8FECDE90401FD
:109A300000230022C3F6E0733046394602F062F894
:109A400022462B4601F0AAFE52465B46CDE90201B2
:109A50003046394602F056F8DDE9002304460D464B
:109A60004046494602F04EF802460B46204629463B
:109A700001F094FE02460B46DDE9020101F08EFE84
:109A800002460B46DDE9040101F088FE07B0BDE89F
:109A9000F08F002300250022C3F6E7730024CDE9F0
:109AA0000423C3F6D275C3E700210020C3F6F0718A
:109AB000ECE700BFAFF30080D43888BEE9FAA8BD58
:109AC000C4B1B4BD9EEE213EAD529C804F7E923E0D
:109AD0009015CB19A001FA3E7751C1166CC1563FC3
:109AE0004C5555555555A53F2DE9F04F4AF6AB2538
:109AF000D41EC2F6AA25ADF51B7D03F1FF3C85FB04
:109B00000475CDF808C0E41740F68806DDF890C269
:109B1000C0F602061F4606900891C4EBA50456F84D
:109B20002C6024EAE4740A94E343029C099603EB54
:109B3000430314EB060802EBC303079318D40A9EF1
:109B400008F10108A598351B4FEA88080CAE0024DF
:109B500000EB850900200021002D03DB59F80400EB
:109B600001F06AFF043401354445E6E90201F1D110
:109B7000099C002C33DB099D0DF5B87ABB465EAE1F
:109B800006EBC5060096DDF808C0BCF1000FBCBFAF
:109B90004FF000084FF000091ADB0DF1380E069D5A
:109BA0000EEBCB064FF000084FF00009002476E9D9
:109BB00002230134F5E8020101F0A4FF02460B463E
:109BC0004046494601F0ECFDBC4280468946EED154
:109BD000009D0BF1010BEAE90289AA45D3D1099E48
:109BE0000DF5067C9AAC731E0CEB860C00969B0060
:109BF000CDF830C0E4180B930D94009C9AAD009EF4
:109C0000E400002E05EB0403049453E93C892ADDAB
:109C10005EAE85AD341900230022C3F67063404662
:109C2000494601F06FFF02F007FA01F005FF00233B
:109C30000022C4F2701382468B4601F063FF024695
:109C40000B464046494601F0A9FD02F0F5F952469F
:109C50005B4645F8040F74E9020101F0A1FDB4422E
:109C600080468946D7D1079A4046494601F01CFBF9
:109C700000224FF07F5304460D4601F043FF01F0F0
:109C800023FA00230022C4F2200301F03BFF024626
:109C90000B462046294601F081FD0D46044602F0A0
:109CA000CBF9064601F0C8FE02460B46204629467F
:109CB00001F074FDDDF81CC0BCF1000F8046894640
:109CC00040F3C081009C9AADCCF11801631ECCF129
:109CD000170405EB830353F8502C52FA01F03618A1
:109CE00010FA01F1521A43F8502C52FA04F5002DE3
:109CF0003FDD009C0136002C40F3D08186AB03EBA6
:109D00008400002407E021B10124C1F1807143F8EF
:109D1000041C83420ED053F8041B002CF3D04FF6E2
:109D2000FF7201248342C0F2FF02C1EB020243F83A
:109D3000042CF0D1DDF81CC0BCF1000F16DDBCF125
:109D4000010F00F08A81BCF1020F0FD1DDF800C0D5
:109D50000DF51A7E0CF1FF330EEB830353F8502CF4
:109D600022F07F4222F4400243F8502C022D00F0F2
:109D70008580404649460022002302F02BF9002846
:109D800000F0A180009C601E099C844210DCDDF87C
:109D900000C00DF5067E0C9C00220EEB8C0353F8E0
:109DA000041DA34242EA0102F9D1002A40F07C825C
:109DB0000D9C54F8503C002B40F074820B9D86AEF5
:109DC0000123721952F8041D01330029FAD0DDF87D
:109DD00000C063440CF1010A9A4505934BDC0A9DCF
:109DE000029C0CEB050BA59E04EB0A03049D013BB2
:109DF00006EB8B0B0DF1380C5EAC0CEBC30C64194D
:109E0000CDF800C004945BF8040F01F015FEDDF8F6
:109E100008C0009EBCF1000FBCBF4FF000084FF01F
:109E20000009E6E9020100961CDB0AEB07060DF1CA
:109E3000380E069D4FF000084FF0000900240EEB8D
:109E4000C60676E902230134F5E8020101F05AFE64
:109E500002460B464046494601F0A2FCBC42804601
:109E60008946EED1059D0AF1010A049CAA45E4E960
:109E700002890494C7DD059E0096BEE60021424695
:109E80004B460020C3F6F07101F088FC80468946FD
:109E9000002C3FF46EAF0021079A0020C3F6F0714A
:109EA00001F002FA02460B464046494601F076FCB4
:109EB00000220023804689464046494602F08AF83F
:109EC00000287FF45FAF05960495002840F00782D4
:109ED000DDF81CC040464946CCF1000201F0E4F92F
:109EE00000230022C4F2701306460F4602F090F8D9
:109EF000002800F0F98100230022C3F67063304689
:109F0000394601F0FFFD009D0DF51A7C0CEB850430
:109F100002F092F80135009501F08EFD009D0023BE
:109F20000DF51A7E0022C4F270130EEB85058046F3
:109F3000894601F0E7FD02460B463046394601F0FE
:109F40002DFC079E1836079602F076F8494644F82D
:109F5000500C404602F070F845F8500C00210020EB
:109F6000C3F6F071079A01F09FF9009C002C064699
:109F70000F465DDB01340DF5067C0DF5BC7E5EAD54
:109F800006950CEB84050EEBC40455F8040D01F0A6
:109F900053FD32463B4601F0B5FD00230022C3F6D7
:109FA000706364E902013046394601F0ABFDDDF82B
:109FB00018C0644506460F46E7D1009C0027DDF82F
:109FC00024800DF1D80B04F1FF3ACDF808B0D1464A
:109FD000B8F1000FC0F25581002FC0F252810DF58B
:109FE000BC7C994D0CEBC9064FF0000A4FF0000BFA
:109FF000002401E0BC4210DCF6E902230134F5E95B
:10A00000020101F07FFD02460B465046594601F021
:10A01000C7FBA04582468B46ECDA029D09F1FF3969
:10A0200005EBC703013719F1020FC3E900ABCFD12C
:10A03000A49C032C00F2B580DFE814F00801BB00FB
:10A04000BB0032001AD1DDF800C00DF51A7E0EEB10
:10A050008C0353F8545CED1549E6DDF800C00DF5AE
:10A060001A7E0CF1FF330EEB830353F8502C22F0D1
:10A070007F4222F4000243F8502C77E600230022AE
:10A08000C3F6E073002501F0C3FF00283FF471AE72
:10A09000009C02250136002C3FF730AE002449E633
:10A0A000009E00230DF1D80B1946002E60DDDDF86F
:10A0B00000C00DF1D80B0DF1E00A0CF101050BEB1E
:10A0C000C5052C4654E9028954E9046742464B46CB
:10A0D0003046394601F064FBCDE902013046DDE946
:10A0E0000223394601F05AFB02460B4640464946D8
:10A0F00001F056FBDDE9026764E90201544544E9D9
:10A100000267DFD1DDF800C000231946BCF1010F62
:10A110002EDD0BF1100A2C4654E9028954E904673C
:10A1200042464B463046394601F03AFBCDE9000144
:10A130003046DDE90023394601F030FB02460B468C
:10A140004046494601F02CFBDDE9006764E9020165
:10A15000544544E90267DFD100231C4618462146D6
:10A1600075E9022301F01CFB554503460C46F5D169
:10A17000049C002C00F0C580089E01F10041DBF832
:10A180000050DBF80800DBF80440DBF80C2004F199
:10A190000044356002F100427460B060F2603361E7
:10A1A0007161DDF814C00CF007000DF51B7DBDE8F2
:10A1B000F08FDDF800C000230DF1D80B1946BCF17B
:10A1C000000F13DBDDF800C00DF1D80B00230CF1FC
:10A1D00001041D460BEBC4041846294674E902230A
:10A1E00001F0DEFA5C4503460D46F5D1049C01F111
:10A1F000004204B90A46DDF820C00D461E46174647
:10A20000DBE900011A46CCE900672B4601F0C6FAEB
:10A21000009C002C03460CDD0BEBC4040D461846D5
:10A220002946FBE9022301F0BBFAA34503460D468C
:10A23000F5D1049D0DB101F10041089E1C460D466B
:10A24000C6E90245ADE700BF90080208009C002067
:10A250000146002C0BDB013436AD002005EBC404B5
:10A26000014674E9022301F09BFAAC42F9D1049D46
:10A270000DB101F10041089E02460B46C6E90023DC
:10A280008FE7029D09F1FF394FF0000A4FF0000BF4
:10A2900005EBC703013719F1020FC3E900AB7FF4E7
:10A2A00097AEC5E6012392E50596049583009AAD25
:10A2B000EA18079C009052F8502C183C0794002A8A
:10A2C0007FF44CAE86AE0246F318214653F8040DD7
:10A2D000013A18390028F9D0009207913EE6DDF8DE
:10A2E00000C00CF1FF30E1E7DDF800C00DF51A7E8B
:10A2F000304639460EEB8C0401F09EFE44F8500CBB
:10A300002CE6DDF820C01C46DBE900670D46DBE9E2
:10A310000223CCE90445CCE90067CCE9022340E7FD
:10A320002DE9F04F85B006460F46CDE9002321F018
:10A330000043B3F1795F03DA01F07EFE00286ED0AE
:10A3400032463B463046394601F0DCFB32463B465E
:10A3500004460D4601F0D6FB3FA3D3E90023804617
:10A3600089462046294601F0CDFB3DA3D3E90023D1
:10A3700001F014FA22462B4601F0C4FB3AA3D3E9BC
:10A38000002301F00DFA22462B4601F0BBFB38A357
:10A39000D3E9002301F002FA22462B4601F0B2FB7A
:10A3A00035A3D3E9002301F0FBF90E9B82468B46CF
:10A3B000002B39D000230022C3F6E073DDE9000151
:10A3C00001F0A0FB52465B46CDE9020140464946FA
:10A3D00001F098FB02460B46DDE9020101F0DEF9CF
:10A3E00022462B4601F08EFBDDE9002301F0D6F971
:10A3F00023A3D3E9002304460D464046494601F015
:10A4000081FB02460B462046294601F0C9F9024667
:10A410000B463046394601F0C1F906460F46304634
:10A42000394605B0BDE8F08F02460B462046294666
:10A4300001F068FB12A3D3E9002301F0AFF9424613
:10A440004B4601F05FFB02460B463046394601F0B1
:10A45000A7F906460F46E2E77CD5CF5A3AD9E53D43
:10A46000EB9C2B8AE6E55A3E7DFEB157E31DC73EC5
:10A47000D561C119A0012A3FA6F810111111813F21
:10A48000495555555555C53F2DE9F84320F000462F
:10A49000B6F1485F05460F465BDA02F019F900286D
:10A4A00000F0CA802946284601F04CFF4DF24E715B
:10A4B000CAF64751044601F045FF47F2F641C3F2A0
:10A4C0000F1101F037FE214601F03CFF4FF27C21D5
:10A4D000C3F2934101F02CFE214601F033FF40F618
:10A4E0000151C3F2D07101F025FE214601F02AFF8F
:10A4F00040F66131C3F6B62101F01AFE214601F0A3
:10A5000021FF4AF6AB21C3F62A5101F013FE214682
:10A5100001F018FF804620464FF07C5101F012FFF9
:10A5200041460646204601F00DFF394604462846BE
:10A5300001F008FF0146204601F0FAFD01463046D1
:10A5400001F0F6FD01464FF07E5001F0F1FDBDE84F
:10A55000F883014601F0F6FE4DF24E71CAF64751FE
:10A56000044601F0EFFE47F2F641C3F20F1101F08D
:10A57000E1FD214601F0E6FE4FF27C21C3F293415A
:10A5800001F0D6FD214601F0DDFE40F60151C3F297
:10A59000D07101F0CFFD214601F0D4FE40F66131CB
:10A5A000C3F6B62101F0C4FD214601F0CBFE4AF608
:10A5B000AB21C3F62A5101F0BDFD214601F0C2FED8
:10A5C00049F69913C3F699639E428046A3DD0023A2
:10A5D000C3F648739E4227DC06F17F464FF07E505B
:10A5E000314601F0A5FD814620464FF07C5101F037
:10A5F000A9FE314601F09CFD41460646204601F089
:10A60000A1FE39460446284601F09CFE014620463C
:10A6100001F08EFD0146304601F08AFD01464846B4
:10A6200001F086FDBDE8F8834FF000090026C3F66F
:10A630003879C3F69066D7E74FF07E50BDE8F883CF
:10A640002DE9F04F151DDDB0D41E58BF254640F64C
:10A65000D8040493013B0293ED10669BC0F60204FC
:10A6600025EAE5750746099554F82340EB43089120
:10A6700002EBC303029A07941619069315D4013608
:10A68000AD1A679B00240DF18008B60003EB850925
:10A690000020002D03DB59F8040001F0FFFD48F80D
:10A6A000040004340135B442F2D1079C002C25DBB0
:10A6B000079A48ABDDF810A00DF58E7903EB820BFD
:10A6C0004FEA8A08029C0025002C11DB20A80024F8
:10A6D00000EB8A0600253859043456F8041D01F0B1
:10A6E00031FE0146284601F025FD44450546F2D1DC
:10A6F00049F8045FD9450AF1010AE3D1079A0CAB86
:10A70000DDF81C80013A0093C2460A9203EB8204F2
:10A710000B944FEA8A025CACA318BAF1000F0192C5
:10A7200053F8504C22DD0DF590790BAE09EB020584
:10A730004FF06E51204601F005FE01F0C9FF01F017
:10A74000ADFD4FF08741804601F0FCFD01462046FB
:10A7500001F0EEFC01F0BCFF414646F8040F55F84D
:10A76000040D01F0E7FC4D450446E1D10699204671
:10A7700000F09EFF4FF07851044601F0E3FD00F039
:10A7800049FF4FF0824101F0DDFD0146204601F016
:10A79000CFFC044601F09CFF064601F07FFD014618
:10A7A000204601F0C5FC069A002A054640F30681C2
:10A7B0000AF1FF330CA8C2F10801C2F1070450F8F6
:10A7C000232052FA01F0361810FA01F1521A0CA99E
:10A7D00042FA04FB41F82320BBF1000F30DD0136C3
:10A7E0000024BAF1000F17DD019C0CAB19190024ED
:10A7F00007E022B10124C2F5807243F8042C8B4299
:10A800000AD053F8042B002CF3D001248B42C2F160
:10A81000FF0243F8042CF4D1069A002A0DDD012A28
:10A8200000F0D580022A08D10AF1FF330CA951F8B3
:10A83000232002F03F0241F82320BBF1020F6ED02B
:10A840002846002101F012FF002800F08180079ABD
:10A850000AF1FF34A2420FDC019A0CA88318079A70
:10A8600000EB8200002253F8041D834242EA0102F9
:10A87000F9D1002A40F0C3800A9C0CA850F824307B
:10A88000002B40F0BA800B9A012352F8041D0133CB
:10A890000029FAD053440AF10109994503933BDC9E
:10A8A000099C029AA244679C02EB090320AA04EBCC
:10A8B0008A0B049C013B059202EB830A4FEA840851
:10A8C000019B48AAD21801925BF8040F002501F001
:10A8D000E5FC029A002A4AF8040F14DB049B0025C9
:10A8E000059A002409EB030602EB86063859043466
:10A8F00056F8041D01F026FD0146284601F01AFC19
:10A9000044450546F2D1039C09F10109019BA1458B
:10A9100043F8045F0193D7DDDDF80CA0F9E6294682
:10A920004FF07E5001F004FC0546002C88D00699BB
:10A930004FF07E5000F0BCFE0146284601F0F8FBC7
:10A9400000210546284601F091FE00287FF47FAFE4
:10A950000296D0460AF1FF34002851D1069B2846C2
:10A96000594200F0A5FE4FF08741044601F09CFEDD
:10A97000002800F071814FF06E51204601F0E2FC9A
:10A98000069A0AF101080832069201F0A1FE01F0D0
:10A9900085FC4FF08741054601F0D4FC0146204676
:10A9A00001F0C6FB0CAC01F093FE0CAB43F82A009F
:10A9B000284601F08DFE44F8280034E011D10AF158
:10A9C000FF330CAA52F823304FEA232B04E70AF195
:10A9D000FF330CA850F8232002F07F0240F8232018
:10A9E0002BE74FF07C514FF0000B01F05DFE00288B
:10A9F0003FF426AF4FF0020BF1E601234AE702963F
:10AA00000CA8069AA04650F82430083A069253B98A
:10AA100000EB8403A04653F8041D08F1FF38083A00
:10AA20000029F8D006924FF07E50069900F040FEC3
:10AA3000B8F1000F05464CDB08F101020CAB48A849
:10AA4000019296009C19861954F8040D01F026FC19
:10AA5000294601F077FC4FF06E5146F8040D284668
:10AA600001F070FC009A94420546EDD148ABCDF858
:10AA70000C8003EB8809DFF8F0A1DDF81C800027CB
:10AA8000B8F1000FC0F2DA80002FC0F2D7800024A6
:10AA90000026254601E0BD420EDC59F804100135C0
:10AAA0005AF80400043401F04DFC0146304601F030
:10AAB00041FBA8450646EEDA5CAC019A04EB87033D
:10AAC0000137BA42A9F1040943F8A06CD8D1DDF8E6
:10AAD0000C80669C032C14D8DFE804F09868681991
:10AAE0000020BBF1000F59D0089B00F10040089CEA
:10AAF000349A9860359B02F10042226003F10043D2
:10AB00006360029A02F007005DB0BDE8F08FB8F113
:10AB1000000FC4BF34AD05EB8804E1DD54F8049C9C
:10AB200054F804794846394601F004FB0646484685
:10AB3000314601F0FDFA0146384601F0FBFAAC421D
:10AB400026606060EAD1B8F1010FC9DD08F1FF3479
:10AB500005EB840454F80499A7684846394601F087
:10AB6000E9FA06464846314601F0E2FA014638461F
:10AB700001F0E0FAAC426660A060EBD108F1010898
:10AB800004F10805002004EB880454F8041D01F0CA
:10AB9000D1FAAC42F9D1BBF1000FA5D1089B089CBA
:10ABA0009860349B2360359B6360AAE70020B8F16E
:10ABB000000F0BDB08F1010434AD002005EB840429
:10ABC00054F8041D01F0B6FAAC42F9D100F100438B
:10ABD000BBF1000F00D10346089C01463498236066
:10ABE00001F0A6FAB8F1000F08DD34AC04EB8808D8
:10ABF00054F8041F01F09EFA4445F9D1BBF1000F4F
:10AC000001D000F10040089A50607AE70020B8F1C6
:10AC1000000F0BDB08F1010434AD002005EB8404C8
:10AC200054F8041D01F086FAAC42F9D1BBF1000FD3
:10AC300001D000F10040089A106062E75CAC019A14
:10AC400004EB870301370026BA42A9F1040943F84F
:10AC5000A06C7FF415AF3AE7204601F039FD0CA94E
:10AC600041F82A00DFE600BFE40802082DE9F843B6
:10AC700020F00043B3F1485F04460D46904603DAE6
:10AC800001F026FD002859D02146204601F05AFB4C
:10AC90002146064601F056FB4CF6D311C2F62E7142
:10ACA0000746304601F04EFB42F63471C3F2D7211D
:10ACB00001F03EFA314601F045FB4EF61B71C3F23E
:10ACC000386101F037FA314601F03CFB40F60151A2
:10ACD000C3F6501101F02CFA314601F033FB48F66F
:10ACE0008901C3F6084101F025FA8146B8F1000F49
:10ACF00027D028464FF07C5101F024FB494680467E
:10AD0000384601F01FFB0146404601F011FA31467A
:10AD100001F018FB294601F00BFA4AF6AB21C3F605
:10AD20002A610546384601F00DFB0146284601F030
:10AD300001FA0146204601F0FBF904462046BDE831
:10AD4000F8830146304601F0FDFA4AF6AB21C3F61E
:10AD50002A6101F0EDF9394601F0F4FA0146204686
:10AD600001F0E8F904462046BDE8F8830000000041
:10AD70004FF6FF732DE9F04FC4F20F4321F0004569
:10AD800083B09D420E460F4604461FDD0023C7F6E2
:10AD9000F0739D4200F3C38014BF002301230028F9
:10ADA0000CBF002203F00102002A40F0B88042F2FA
:10ADB000FB1642F618543346CBF6F976C3F6F97310
:10ADC000C5F244440029C8BF1E46B0E04FF6FF73E9
:10ADD000C3F6DB739D4200F3BE804FF6FF73C3F6EC
:10ADE0001F639D4240F3A8804FF0FF3C224633464C
:10ADF00020463146CDF804C000F084FE02460B46E2
:10AE000082468B4600F07EFE95A3D3E90023804660
:10AE1000894600F077FE94A3D3E9002300F0C0FC3C
:10AE200042464B4600F06EFE91A3D3E9002300F0AA
:10AE3000B7FC42464B4600F065FE8FA3D3E90023E2
:10AE400000F0AEFC42464B4600F05CFE8CA3D3E91A
:10AE5000002300F0A5FC42464B4600F053FE8AA3B7
:10AE6000D3E9002300F09CFC52465B4600F04AFE0A
:10AE700087A3D3E9002382468B464046494600F02B
:10AE800041FE85A3D3E9002300F088FC42464B46EF
:10AE900000F038FE82A3D3E9002300F07FFC424695
:10AEA0004B4600F02FFE80A3D3E9002300F076FC90
:10AEB00042464B4600F026FE7DA3D3E9002300F076
:10AEC0006DFC42464B4600F01DFEDDF804C0BCF1AF
:10AED000FF3F02460B4664D040F610155046C0F6C0
:10AEE0000205594605EBCC0500F05AFC22463346D4
:10AEF00000F008FED5E9082300F050FC2246334656
:10AF000000F04CFC02460B46D5E9000100F046FC7F
:10AF1000002F0E460446B8BF01F1004607E0204668
:10AF200022463146334600F03BFC04460E4620469E
:10AF3000314603B0BDE8F08F5FA3D3E9002300F0F2
:10AF40002FFC00230022C3F6F07301F06BF80028F9
:10AF50003FF44AAFEBE700F0B3F84FF6FF73C3F6E8
:10AF6000F2739D42804689462CDC4FF6FF73C3F690
:10AF7000E5739D425EDC02460B464FF0000CCDF8B7
:10AF800004C000F00DFC00230022C3F6F07300F0B3
:10AF900005FC00224FF0804304460D4640464946DA
:10AFA0002EE05046594600F0FBFB2246334600F0A7
:10AFB000A9FD02460B462046314600F0EFFB044651
:10AFC0000E46B4E747F6FF73C4F203039D4224DC48
:10AFD00000230022C3F6F8734FF0020CCDF804C032
:10AFE00000F0DCFB00230022C3F6F87304460D4694
:10AFF0004046494600F086FD00230022C3F6F07368
:10B0000000F0CEFB02460B462046294600F0A4FE87
:10B01000DDF804C004460E46E8E600210020CBF629
:10B02000F07142464B4600F097FE4FF0030C044689
:10B030000E46DBE600230022C3F6F0734FF0010C4E
:10B04000CDF804C000F0AAFB00230022C3F6F07381
:10B0500004460D4640464946D2E700BFAFF30080A4
:10B0600011DA22E33AAD903FEB0D76244B7BA93FFA
:10B07000513DD0A0660DB13F6E204CC5CD45B73FC8
:10B08000FF8300922449C23F0D5555555555D53F74
:10B090002F6C6A2C44B4A2BF9AFDDE522DDEAD3F68
:10B0A0006D9A74AFF2B0B33F711623FEC671BC3F08
:10B0B000C4EB98999999C93F9C7500883CE4377E08
:10B0C00021F00041704700BF2DE9F04FC1F30A564F
:10B0D000A6F57E7483B0073C8246132C8B468046CF
:10B0E00027DC002C51DB4FF6FF73C0F20F0353FA3D
:10B0F00004F606EA0105054316D041A3D3E900236F
:10B10000019100F04DFB0022002300F08BFFDDF8E1
:10B1100004C0002835D0BCF1000F69DB2CEA060C16
:10B120004FF00008E346C2465046594603B0BDE81A
:10B13000F08F332C09DDB4F5806FF5D102460B4654
:10B1400000F02EFB82468B46EEE7A6F582634FF0B9
:10B15000FF32033B32FA03F50542E5D028A3D3E9D9
:10B160000023019100F01CFB0022002300F05AFF95
:10B17000DDF804C028B1BCF1000F28DB28EA05087F
:10B1800000E0DC46E346C246CEE71DA3D3E9002338
:10B1900000F006FB0022002300F044FF0028F0D05E
:10B1A000BBF1000FA4BF4FF00008C446EADA2BF051
:10B1B00000484FF0000C48EA0A08CBF6F07CB8F1E2
:10B1C000000F08BFDC4618BF4FF00008DAE7142C68
:10B1D00009D0C6F586634FF00108033308FA03F877
:10B1E00018EB0A08CAD30CF1010C28EA0508C9E7D4
:10B1F0004FF4801353FA04F4A4448FE7AFF30080B4
:10B200009C7500883CE4377E0B4650EA030110B47D
:10B2100002D1022010BC7047D0F1010238BF0022D9
:10B22000B3F1004F14BF002102F001010029F0D159
:10B230004FF6FF71A3F58010C7F6DF7103F1FE44EE
:10B24000884204F570048CBF002001208C428CBF22
:10B25000014640F0010104200029DBD1B3F5801F35
:10B2600003F100402CBF00210121B0F5801F38BF41
:10B2700041F0010109B10320CCE713F5801FC7F6A7
:10B28000F07114BF002001208B4214BF034640F030
:10B29000010302EA0300BDE70020704700210020FF
:10B2A000C7F6F871704700BF2DE9F843C1F30A579C
:10B2B00004460D4616460B46002F2DD121F00043C3
:10B2C000034325D000230022C4F2503300F01AFCBF
:10B2D00043F6B043CFF6FF739E4204460D463EDB75
:10B2E000C1F30A5740F2FE72363F0B46BF19974230
:10B2F000C4BF22462B461BDD2DA1D1E9000100F081
:10B3000039FA2BA3D3E9002300F0FCFB04460D46D9
:10B3100020462946BDE8F88340F2FF72974229D0C3
:10B3200040F2FE72BF199742C4BF22462B46E3DCAF
:10B33000002FC2BF23F0FE4323F4700343EA0755F6
:10B34000E6DC17F1350F1FDA4CF2503322469E42ED
:10B350002B46D1DC18A1D1E9000100F00BFA16A3AD
:10B36000D3E9002300F0CEFB04460D4620462946D3
:10B37000BDE8F88302460B4600F012FA04460D467B
:10B3800020462946BDE8F883363723F0FE4323F4F0
:10B390007003204643EA0755002329460022C3F6DE
:10B3A000904300F0AFFB04460D46B1E7AFF30080D9
:10B3B0009C7500883CE4377E59F3F8C21F6EA501E6
:10B3C0002DE9F04120F00045B5F1A14F04460646B5
:10B3D0000EDBB5F1FF4F00F3A480002840F6DB74CC
:10B3E000C8BFC3F6C97440F3D9802046BDE8F081D8
:10B3F0004FF6FF73C3F6DF639D4200F3A780B5F1FC
:10B40000445FC0F295804FF0FF372146204600F0A0
:10B4100099FF0146804600F095FF46F6D711C3F626
:10B420008541054600F08EFF4DF65921C3F64B517C
:10B4300000F080FE294600F085FF46F63531C3F660
:10B44000885100F077FE294600F07CFF42F66E61DD
:10B45000C3F6BA5100F06EFE294600F073FF44F6C1
:10B460002511C3F6126100F065FE294600F06AFF5F
:10B470004AF6AB21C3F6AA6100F05CFE414600F03B
:10B4800061FF4AF22121CBF615518046284600F093
:10B4900059FF4FF26B11C3F66E5100F049FE294679
:10B4A00000F050FF48F29571C3F69D5100F040FE48
:10B4B000294600F047FF48F63861C3F6E35100F033
:10B4C00037FE294600F03EFF4CF6CD41C3F64C61F5
:10B4D00000F02EFE294600F035FF7B1C014651D0BE
:10B4E00040F65015404600F025FEC0F60205214604
:10B4F00000F028FF05EB8703196900F019FE2146CB
:10B5000000F016FE014655F8270000F011FE002E4F
:10B51000B8BF00F10044FFF668AF04462046BDE81E
:10B52000F081014600F006FE04462046BDE8F081A9
:10B530004FF2CA21C7F2491100F0FCFD4FF07E51D5
:10B5400001F0BCF800283FF45EAF4EE700F056F87B
:10B550004FF6FF73C3F697739D424FF6FF73044691
:10B560001FDCC3F62F739D423DDC0146002700F02F
:10B57000E1FD4FF07E5100F0DBFD4FF080410546CC
:10B5800020461FE0404600F0D5FD214600F0DAFEDF
:10B590000146204600F0CCFD044626E7CBF6C974F0
:10B5A00023E7C4F21B039D4214DC4FF07F510227B6
:10B5B00000F0BEFD4FF07F510546204600F0C2FE70
:10B5C0004FF07E5100F0B6FD0146284600F06EFFB8
:10B5D00004461AE700202146CBF68070032700F0CE
:10B5E00065FF044611E74FF07E51012700F0A0FDF2
:10B5F0004FF07E5105462046E4E700BF20F00040B2
:10B60000704700BF20F00040B0F1FF4FACBF0020FA
:10B61000012070472DE9F04120F000460146044624
:10B62000F50D7F3D162D1ADC002D804620DB4FF6F0
:10B63000FF77C0F27F072F4107420DD04FF2CA219A
:10B64000C7F2491100F076FD002101F037F810B380
:10B65000002C24DB28EA07010846BDE8F081B6F19A
:10B66000FF4FF9D300F066FD01460846BDE8F081C2
:10B670004FF2CA21C7F2491100F05CFD002101F030
:10B680001DF840B10021002CE6DACBF68071002EC7
:10B6900008BF2146E0E721460846BDE8F0814FF4A7
:10B6A000000353FA05F504EB050828EA0701D3E780
:10B6B00010B50C4630F000410346024627D0B1F1E8
:10B6C000FF4F26D2B1F5000F29D3C90D0919FE2964
:10B6D000C8BF194633DC0029C4BF22F0FF4242EA4A
:10B6E000C15314DC11F1160F37DA4CF250321946FF
:10B6F000944224DC44F26020C0F6A25000F044F8EA
:10B7000044F26021C0F6A25100F01CFE0346184628
:10B7100010BD014600F00EFD0346184610BD4FF067
:10B72000984100F00FFE43F6B042CFF6FF7294420C
:10B730000346E5DBC0F3C75102461939C6E74FF2AD
:10B74000CA20C7F2491000F01FF84FF2CA21C7F211
:10B75000491100F0F7FD0346D9E701F1190022F085
:10B76000FF424FF04C5142EAC05000F0EBFD03465F
:10B77000CDE700BF03F0004321F0004230B443EABC
:10B78000020130BC704700BF01F0004120F00040D2
:10B790000843704781F0004102E000BF83F000439E
:10B7A00030B54FEA41044FEA430594EA050F08BF5C
:10B7B00090EA020F1FBF54EA000C55EA020C7FEA20
:10B7C000645C7FEA655C00F0E2804FEA5454D4EB9D
:10B7D0005555B8BF6D420CDD2C4480EA020281EA67
:10B7E000030382EA000083EA010180EA020281EA9F
:10B7F0000303362D88BF30BD11F0004F4FEA0131F1
:10B800004FF4801C4CEA113102D0404261EB4101FF
:10B8100013F0004F4FEA03334CEA133302D0524285
:10B8200063EB430394EA050F00F0A780A4F1010441
:10B83000D5F1200E0DDB02FA0EFC22FA05F280187B
:10B8400041F1000103FA0EF2801843FA05F3594161
:10B850000EE0A5F120050EF1200E012A03FA0EFCE0
:10B8600028BF4CF0020C43FA05F3C01851EBE3710A
:10B8700001F0004507D54FF0000EDCF1000C7EEB27
:10B8800000006EEB0101B1F5801F1BD3B1F5001F65
:10B890000CD349085FEA30004FEA3C0C04F1010484
:10B8A0004FEA445212F5800F80F09A80BCF1004FAD
:10B8B00008BF5FEA500C50F1000041EB045141EA2F
:10B8C000050130BD5FEA4C0C404141EB010111F430
:10B8D000801FA4F10104E9D191F0000F04BF0146DB
:10B8E0000020B1FA81F308BF2033A3F10B03B3F1B9
:10B8F00020020CDA0C3208DD02F1140CC2F10C0249
:10B9000001FA0CF021FA02F10CE002F11402D8BFA6
:10B91000C2F1200C01FA02F120FA0CFCDCBF41EA72
:10B920000C019040E41AA2BF01EB0451294330BD41
:10B930006FEA04041F3C1CDA0C340EDC04F114041E
:10B94000C4F1200220FA04F001FA02F340EA0300F5
:10B9500021FA04F345EA030130BDC4F10C04C4F13B
:10B96000200220FA02F001FA04F340EA030029461B
:10B9700030BD21FA04F0294630BD94F0000F83F465
:10B98000801306BF81F480110134013D4EE77FEA48
:10B99000645C18BF7FEA655C29D094EA050F08BF94
:10B9A00090EA020F05D054EA000C04BF1946104675
:10B9B00030BD91EA030F1EBF0021002030BD5FEAB9
:10B9C000545C05D14000494128BF41F0004130BDE1
:10B9D00014F580043CBF01F5801130BD01F0004535
:10B9E00045F0FE4141F470014FF0000030BD7FEAA8
:10B9F000645C1ABF194610467FEA655C1CBF0B46A3
:10BA0000024650EA013406BF52EA033591EA030FB9
:10BA100041F4002130BD00BF90F0000F04BF0021B1
:10BA2000704730B54FF4806404F132044FF00005E4
:10BA30004FF0000150E700BF90F0000F04BF00215D
:10BA4000704730B54FF4806404F1320410F00045C3
:10BA500048BF40424FF000013EE700BF42004FEABE
:10BA6000E2014FEA31014FEA02701FBF12F07F433B
:10BA700093F07F4F81F06051704792F0000F14BF38
:10BA800093F07F4F704730B54FF4607401F000457C
:10BA900021F0004120E700BF50EA010208BF7047D3
:10BAA00030B54FF000050AE050EA010208BF7047C8
:10BAB00030B511F0004502D5404261EB41014FF431
:10BAC000806404F132045FEA915C3FF4DCAE4FF035
:10BAD00003025FEADC0C18BF03325FEADC0C18BF1C
:10BAE000033202EBDC02C2F1200300FA03FC20FA6D
:10BAF00002F001FA03FE40EA0E0021FA02F11444BA
:10BB0000C1E600BF70B54FF0FF0C4CF4E06C1CEACE
:10BB100011541DBF1CEA135594EA0C0F95EA0C0F43
:10BB200000F0DEF82C4481EA030621EA4C5123EAB6
:10BB30004C5350EA013518BF52EA033541F48011E5
:10BB400043F4801338D0A0FB02CE4FF00005E1FB98
:10BB500002E506F00042E0FB03E54FF00006E1FBE2
:10BB600003569CF0000F18BF4EF0010EA4F1FF0425
:10BB7000B6F5007F64F5407404D25FEA4E0E6D4165
:10BB800046EB060642EAC62141EA55514FEAC52076
:10BB900040EA5E504FEACE2EB4F1FD0C88BFBCF5F2
:10BBA000E06F1ED8BEF1004F08BF5FEA500E50F1A3
:10BBB000000041EB045170BD06F0004646EA010169
:10BBC00040EA020081EA0301B4EB5C04C2BFD4EB9B
:10BBD0000C0541EA045170BD41F480114FF0000E94
:10BBE000013C00F3AB8014F1360FDEBF002001F002
:10BBF000004170BDC4F10004203C35DA0C341BDC7C
:10BC000004F11404C4F1200500FA05F320FA04F04D
:10BC100001FA05F240EA020001F0004221F0004181
:10BC200010EBD37021FA04F642EB06015EEA430EF4
:10BC300008BF20EAD37070BDC4F10C04C4F1200524
:10BC400000FA04F320FA05F001FA04F240EA0200D7
:10BC500001F0004110EBD37041F100015EEA430EA8
:10BC600008BF20EAD37070BDC4F1200500FA05F2C8
:10BC70004EEA020E20FA04F301FA05F243EA020347
:10BC800021FA04F001F0004121FA04F220EA020056
:10BC900000EBD3705EEA430E08BF20EAD37070BD9C
:10BCA00094F0000F0FD101F00046400041EB01017C
:10BCB00011F4801F08BF013CF7D041EA060195F05E
:10BCC000000F18BF704703F00046520043EB030318
:10BCD00013F4801F08BF013DF7D043EA0603704705
:10BCE00094EA0C0F0CEA135518BF95EA0C0F0CD010
:10BCF00050EA410618BF52EA4306D1D181EA030156
:10BD000001F000414FF0000070BD50EA410606BF4F
:10BD10001046194652EA430619D094EA0C0F02D194
:10BD200050EA013613D195EA0C0F05D152EA0336D9
:10BD30001CBF104619460AD181EA030101F00041F7
:10BD400041F0FE4141F470014FF0000070BD41F040
:10BD5000FE4141F4780170BD70B54FF0FF0C4CF41A
:10BD6000E06C1CEA11541DBF1CEA135594EA0C0F39
:10BD700095EA0C0F00F0A7F8A4EB050481EA030E86
:10BD800052EA03354FEA013100F088804FEA03336D
:10BD90004FF0805545EA131343EA12634FEA02223B
:10BDA00045EA111545EA10654FEA00260EF00041FC
:10BDB0009D4208BF964244F1FD0404F5407402D24E
:10BDC0005B084FEA3202B61A65EB03055B084FEADF
:10BDD00032024FF480104FF4002CB6EB020E75EBDC
:10BDE000030E22BFB61A754640EA0C005B084FEA04
:10BDF0003202B6EB020E75EB030E22BFB61A754681
:10BE000040EA5C005B084FEA3202B6EB020E75EBCB
:10BE1000030E22BFB61A754640EA9C005B084FEA43
:10BE20003202B6EB020E75EB030E22BFB61A754650
:10BE300040EADC0055EA060E18D04FEA051545EA3F
:10BE400016754FEA06164FEAC30343EA52734FEAE8
:10BE5000C2025FEA1C1CC0D111F4801F0BD141EA61
:10BE600000014FF000004FF0004CB6E711F4801FC6
:10BE700004BF01430020B4F1FD0C88BFBCF5E06FA6
:10BE80003FF6AFAEB5EB030C04BFB6EB020C5FEAB6
:10BE9000500C50F1000041EB045170BD0EF0004E0B
:10BEA0004EEA113114EB5C04C2BFD4EB0C0541EA3D
:10BEB000045170BD41F480114FF0000E013C90E63A
:10BEC00045EA060E8DE60CEA135594EA0C0F08BFFE
:10BED00095EA0C0F3FF43BAF94EA0C0F0AD150EAFD
:10BEE00001347FF434AF95EA0C0F7FF425AF104690
:10BEF00019462CE795EA0C0F06D152EA03353FF4B8
:10BF0000FDAE1046194622E750EA410618BF52EA34
:10BF100043067FF4C5AE50EA41047FF40DAF52EA08
:10BF200043057FF4EBAE12E74FF0FF3C06E000BFA5
:10BF30004FF0010C02E000BF4FF0010C4DF804CDB2
:10BF40004FEA410C7FEA6C5C4FEA430C18BF7FEA72
:10BF50006C5C1BD001B050EA410C0CBF52EA430CA0
:10BF600091EA030F02BF90EA020F0020704710F120
:10BF7000000F91EA030F58BF994208BF90422CBFAF
:10BF8000D8176FEAE37040F0010070474FEA410CA8
:10BF90007FEA6C5C02D150EA013C07D14FEA430CC6
:10BFA0007FEA6C5CD6D152EA033CD3D05DF8040B37
:10BFB000704700BF8446104662468C461946634669
:10BFC00000E000BF01B5FFF7B7FF002848BF10F140
:10BFD000000F01BD4DF808EDFFF7F4FF0CBF012085
:10BFE00000205DF808FB00BF4DF808EDFFF7EAFF01
:10BFF00034BF012000205DF808FB00BF4DF808EDBC
:10C00000FFF7E0FF94BF012000205DF808FB00BFB0
:10C010004DF808EDFFF7CEFF94BF012000205DF83A
:10C0200008FB00BF4DF808EDFFF7C4FF34BF012047
:10C0300000205DF808FB00BF4FEA410212F5001234
:10C0400015D211D56FF47873B3EB625212D94FEA5F
:10C05000C12343F0004343EA505311F0004F23FA49
:10C0600002F018BF404270474FF00000704750EA9E
:10C07000013005D111F0004008BF6FF0004070475B
:10C080004FF00000704700BF4FEA4102B2F1E043B9
:10C0900024BFB3F5001CDCF1FE5C0DD901F0004CAF
:10C0A0004FEAC0024CEA5070B2F1004F40EB8300FF
:10C0B00008BF20F00100704711F0804F21D113F12B
:10C0C0003872BCBF01F00040704741F480114FEA64
:10C0D0005252C2F11802C2F1200C10FA0CF320FAED
:10C0E00002F018BF40F001004FEAC1234FEAD3230A
:10C0F00003FA0CFC40EA0C0023FA02F34FEA430374
:10C10000CCE77FEA625307D150EA01331EBF4FF0FC
:10C11000FE4040F44000704701F0004040F0FE4017
:10C1200040F40000704700BF80F0004002E000BF14
:10C1300081F0004142001FBF5FEA410392EA030F12
:10C140007FEA226C7FEA236C6AD04FEA1262D2EB5C
:10C150001363C1BFD218414048404140B8BF5B4261
:10C16000192B88BF704710F0004F40F4000020F0FA
:10C170007F4018BF404211F0004F41F4000121F010
:10C180007F4118BF494292EA030F3FD0A2F101025A
:10C1900041FA03FC10EB0C00C3F1200301FA03F198
:10C1A00000F0004302D5494260EB4000B0F5000FBB
:10C1B00013D3B0F1807F06D340084FEA310102F17A
:10C1C0000102FE2A51D2B1F1004F40EBC25008BF2C
:10C1D00020F0010040EA03007047490040EB0000F6
:10C1E00010F4000FA2F10102EDD1B0FA80FCACF125
:10C1F000080CB2EB0C0200FA0CF0AABF00EBC25024
:10C2000052421843BCBFD0401843704792F0000F11
:10C2100081F4000106BF80F400000132013BB5E764
:10C220004FEA41037FEA226C18BF7FEA236C21D0DA
:10C2300092EA030F04D092F0000F08BF084670473F
:10C2400090EA010F1CBF0020704712F07F4F04D10D
:10C25000400028BF40F00040704712F100723CBF20
:10C2600000F50000704700F0004343F0FE4040F44A
:10C27000000070477FEA226216BF08467FEA236308
:10C280000146420206BF5FEA412390EA010F40F4F3
:10C29000800070474FF0000304E000BF10F000433F
:10C2A00048BF40425FEA000C08BF704743F0964326
:10C2B00001464FF000001CE050EA010208BF704741
:10C2C0004FF000030AE000BF50EA010208BF7047C8
:10C2D00011F0004302D5404261EB41015FEA010CDD
:10C2E00002BF84460146002043F0B64308BFA3F1D5
:10C2F0008053A3F50003BCFA8CF2083AA3EBC253B7
:10C3000010DB01FA02FC634400FA02FCC2F12002D5
:10C31000BCF1004F20FA02F243EB020008BF20F00C
:10C320000100704702F1200201FA02FCC2F1200272
:10C3300050EA4C0021FA02F243EB020008BF20EA67
:10C34000DC7070474FF0FF0C1CEAD0521EBF1CEA95
:10C35000D15392EA0C0F93EA0C0F6FD01A4480EA83
:10C36000010C400218BF5FEA41211ED04FF000636C
:10C3700043EA501043EA5111A0FB01310CF0004098
:10C38000B1F5000F3EBF490041EAD3715B0040EABE
:10C39000010062F17F02FD2A1DD8B3F1004F40EB8E
:10C3A000C25008BF20F00100704790F0000F0CF061
:10C3B000004C08BF49024CEA502040EA51207F3A25
:10C3C000C2BFD2F1FF0340EAC250704740F4000000
:10C3D0004FF00003013A5DDC12F1190FDCBF00F0F1
:10C3E00000407047C2F10002410021FA02F1C2F19F
:10C3F000200200FA02FC5FEA310040F1000053EA3B
:10C400004C0308BF20EADC70704792F0000F00F088
:10C41000004C02BF400010F4000F013AF9D040EA8E
:10C420000C0093F0000F01F0004C02BF490011F422
:10C43000000F013BF9D041EA0C018FE70CEAD15320
:10C4400092EA0C0F18BF93EA0C0F0AD030F0004CA0
:10C4500018BF31F0004CD8D180EA010000F0004054
:10C46000704790F0000F17BF90F0004F084691F012
:10C47000000F91F0004F14D092EA0C0F01D142024C
:10C480000FD193EA0C0F03D14B0218BF084608D115
:10C4900080EA010000F0004040F0FE4040F400005F
:10C4A000704740F0FE4040F4400070474FF0FF0CF2
:10C4B0001CEAD0521EBF1CEAD15392EA0C0F93EA39
:10C4C0000C0F69D0A2EB030280EA010C49024FEA8B
:10C4D000402037D04FF0805343EA111143EA101344
:10C4E0000CF000408B4238BF5B0042F17D024FF4FC
:10C4F000000C8B4224BF5B1A40EA0C00B3EB510FD7
:10C5000024BFA3EB510340EA5C00B3EB910F24BFBF
:10C51000A3EB910340EA9C00B3EBD10F24BFA3EB44
:10C52000D10340EADC001B0118BF5FEA1C1CE0D10C
:10C53000FD2A3FF650AF8B4240EBC25008BF20F0BF
:10C54000010070470CF0004C4CEA50207F32C2BF13
:10C55000D2F1FF0340EAC250704740F400004FF0B0
:10C560000003013A37E792F0000F00F0004C02BFE1
:10C57000400010F4000F013AF9D040EA0C0093F0AB
:10C58000000F01F0004C02BF490011F4000F013B05
:10C59000F9D041EA0C0195E70CEAD15392EA0C0F6D
:10C5A00008D142027FF47DAF93EA0C0F7FF470AFA5
:10C5B000084676E793EA0C0F04D14B023FF44CAFE8
:10C5C00008466EE730F0004C18BF31F0004CCAD17D
:10C5D00030F000427FF45CAF31F000437FF43CAFB9
:10C5E0005FE700BF4FF0FF3C06E000BF4FF0010CDB
:10C5F00002E000BF4FF0010C4DF804CD4FEA4002BD
:10C600004FEA41037FEA226C18BF7FEA236C11D006
:10C6100001B052EA530C18BF90EA010F58BFB2EBB9
:10C62000030088BFC81738BF6FEAE17018BF40F039
:10C63000010070477FEA226C02D15FEA402C05D1ED
:10C640007FEA236CE4D15FEA412CE1D05DF8040B72
:10C65000704700BF844608466146FFE70FB5FFF705
:10C66000C9FF002848BF10F1000F0FBD4DF808EDBD
:10C67000FFF7F4FF0CBF012000205DF808FB00BFAE
:10C680004DF808EDFFF7EAFF34BF012000205DF808
:10C6900008FB00BF4DF808EDFFF7E0FF94BF012055
:10C6A00000205DF808FB00BF4DF808EDFFF7D2FF52
:10C6B00094BF012000205DF808FB00BF4DF808ED95
:10C6C000FFF7C8FF34BF012000205DF808FB00BF62
:10C6D0004FEA4002B2F1FE4F0FD34FF09E03B3EB8F
:10C6E00012620DD94FEA002343F0004310F0004FCF
:10C6F00023FA02F018BF404270474FF00000704725
:10C7000012F1610F01D1420205D110F0004008BFC3
:10C710006FF0004070474FF00000704740F2040394
:10C72000C2F200031868704770B540F69C7640F678
:10C730009C75C0F60206C0F60205761BB61006D040
:10C74000002455F8043B01349847A642F9D140F63D
:10C75000A07640F69C75C0F60206C0F60205761B70
:10C7600014F010FCB61006D0002455F8043B013438
:10C770009847A642F9D170BD032A2DE9F00109D8E6
:10C780002AB10023CC5CC45401339342FAD1BDE8F2
:10C79000F001704785070244034605D011F8014BAC
:10C7A00003F8014B9C07F9D111F0030542D0D41ACC
:10C7B0006E42032C8F5912DDC5F1040CED004FEAD7
:10C7C000CC0C043127FA05F88C59274604FA0CF4EE
:10C7D00044EA080443F8044BD41A032CF1DC9A42CF
:10C7E000D5D900228D5C9D540132A242FAD1CEE708
:10C7F0000C681C604C685C608C689C60CC68DC6079
:10C800000C691C614C695C618C699C61CC69DC6160
:10C810000C6A1C624C6A5C628C6A9C62CC6ADC6248
:10C820000C6B1C634C6B5C638C6B9C63CC6B4031FE
:10C83000DC634033D41A3F2CDADC0AE00C681C605D
:10C840004C685C608C689C60CC681031DC60103394
:10C85000D41A0F2CF2DC04E051F8044B43F8044BDB
:10C86000D41A032CF8DCBAE7032AC9B270B407D88B
:10C8700022B10023C15401339342FBD170BC7047F5
:10C8800085070244034603D003F8011B9C07FBD134
:10C890000C02D51A641826043F2D34441ADD1C609E
:10C8A0005C609C60DC601C615C619C61DC611C62A2
:10C8B0005C629C62DC621C635C639C63DC6340338F
:10C8C000D51A3F2DEBDC05E01C605C609C60DC60F1
:10C8D0001033D51A0F2DF7DC02E043F8044BD51ABC
:10C8E000032DFADC9342C9D203F8011B9342FBD11A
:10C8F000C4E700BF40F0BE61024B41F42020D86085
:10C90000704700BF00ED00E0C37810B52BB3184AA4
:10C91000D4684278E14301F4E0631B0AC3F1040CDC
:10C920005FFA8CF412FA04F10F2454FA03F28478BB
:10C9300090F800C0C9B202EA040343EA01020D4BB9
:10C940000CEB0301120181F800230378012203F0AC
:10C950001F00590912FA00F306E002780123510979
:10C9600002F01F0083402031024840F8213010BD02
:10C9700000ED00E000E100E043680A6830B523F014
:10C98000407424F480750B7945EA020C4CEA0324C8
:10C99000CD680A694460846845EA02038D680A4AE2
:10C9A00043EA050C04EA02034A794CEA030C4CEA18
:10C9B00042038360097DC26A4B1E22F47002D9B221
:10C9C00042EA0153C36230BDFDF7FFC000210123DD
:10C9D0000160017141718160C1600161037570473F
:10C9E000094A10B55368094C03EA040C90E8120098
:10C9F00021438468C06841EA040343EA000141EA34
:10CA00000C03536010BD00BF00230140E030FCFF69
:10CA10000023036043608360C3607047836811B183
:10CA200043F0010301E023F001038360704709290B
:10CA300070B54FEA41040BD964181E3CC66807253F
:10CA4000A54026EA0505A34045EA0304C4600AE0C0
:10CA5000066964180725A54026EA050513FA04F4BB
:10CA600045EA04030361062A0CD8013A02EB82026C
:10CA7000446B1F23934024EA030C91404CEA0102CB
:10CA8000426370BD0C2A4FEA82030CD89A18046BDB
:10CA9000233A1F23934024EA030C11FA02F24CEAD2
:10CAA0000201016370BD9A18C46A413A1F23934082
:10CAB00024EA030C11FA02F24CEA0201C16270BDD1
:10CAC000816841F0804383607047836811B143F40B
:10CAD000807301E023F4807383607047836811B131
:10CAE00043F4007301E023F4007383607047000097
:10CAF000016821F0010303600021212301604160EE
:10CB00008160C160016143612C4B98421CD02C4B69
:10CB1000984220D02B4B984225D02B4B98422AD0BC
:10CB20002A4B98422FD02A4B984233D0294B984217
:10CB300037D0294B984204D14FF03D5243F8AC2CEA
:10CB40007047264B984203D13D2043F8080C7047AC
:10CB5000234B984204D14FF4746143F8201C704772
:10CB6000204B984204D14FF4741243F8382C70478C
:10CB70001D4B984204D14FF0746043F8500C70473D
:10CB80001A4B984203D11A4943F8641C7047194B59
:10CB9000984203D1184A43F87C2C7047174B9842AF
:10CBA00003D1174843F8940C7047164B984204BFC2
:10CBB0004FF03D5243F8AC2C704700BF106002406C
:10CBC00028600240406002405860024070600240AD
:10CBD00088600240A0600240B860024010640240D9
:10CBE000286402404064024058640240706402407D
:10CBF0003D00002088640240400F0020A0640240F5
:10CC000000003D20B86402400268164B10B502EAED
:10CC1000030CCC680A684B6922438C691343CA69C8
:10CC200023430C6A1A434B6A22438C6A13434A6BB0
:10CC300023438C6B1A4342EA040343EA0C0202606A
:10CC40004469CB6A24F007020C6B44EA030C0B69BD
:10CC50004CEA0202426143604A688B688260C360AA
:10CC600010BD00BF3F801CF0002303604360836061
:10CC7000C360036143618361C36103624362836292
:10CC8000C3620363436383637047036811B143F076
:10CC9000010301E023F00103036070474160704726
:10CCA000406880B27047006800F0010070470B06D2
:10CCB00007D5436912B143F0800301E023F08003FC
:10CCC0004361802909D001F01E01036812B11943A4
:10CCD0000160704723EA010202607047104B114A5D
:10CCE00010B5114CA0428CBF14461C460F4A01EAF5
:10CCF00002032BB1026802F01E0000EAD12202E01A
:10CD0000436903F080028800094B4CBF60682068CB
:10CD10001940084002D0101C18BF012010BD00BFF0
:10CD200000600240006402400F6402403C0F3C0F70
:10CD30007D0F7D0F30B5074B074A084C084DA042C8
:10CD400088BF13460D4011F0005F14BFDD609D6089
:10CD500030BD00BF00600240006402400F6402402A
:10CD60007D0F7D0F044B1A69002A03DA034904483A
:10CD700059605860704700BF003C0240230167457E
:10CD8000AB89EFCD024B186940F000421A61704741
:10CD9000003C0240014BD860704700BF003C02409D
:10CDA0000C4BDA68D0030ED4D868C1060DD4D9680C
:10CDB00011F0EF0F0BD1DA6802F00203002B0CBF69
:10CDC0000820072070470120704705207047062083
:10CDD000704700BF003C024007B508238DF80730BC
:10CDE000FFF7DEFF8DF807009DF807000128F7D058
:10CDF0009DF807000EBD000070B504460E46FFF713
:10CE0000EBFF082813D10A4D2A6922F440702861EB
:10CE1000296941F400732B612A6942F001002861FD
:10CE20002660FFF7D9FF296921F001032B6170BD4E
:10CE3000003C024070B5044641B1012908D00229E6
:10CE400014BF4FF440764FF4007603E00E4601E045
:10CE50004FF48076FFF7C0FF08281ED10F4D2869D8
:10CE600020F440732B612A6916432E61296921F051
:10CE7000F80028612B6943F0020214432C612969F0
:10CE800041F480302861FFF7A7FF2B6923F00202ED
:10CE90002A61296921F0F8032B6170BD003C024032
:10CEA0002DE9F04100230F681A460124944004EA5A
:10CEB0000705A54231D1032406689C40E44326407F
:10CEC00006600E79D0F800C006FA03F8013EF6B20B
:10CED00048EA0C0C012EC0F800C016D8866891F8FC
:10CEE00005C02640866086680CFA03FC4CEA0606FC
:10CEF0008660466826EA05068D7946604668954054
:10CF00001FFA85FC4CEA06054560C5682540C560EA
:10CF1000CC79C5689C402C43C46001320233102A8E
:10CF2000C3D1BDE8F08100234FF6FF7101600371AA
:10CF300043718371C3717047036919420CBF0020AC
:10CF400001207047018370474183704730B501F07D
:10CF50000705C9080831AB000F2450F821509C4048
:10CF600025EA040440F8214050F8214012FA03F366
:10CF70001C4340F8214030BD08B5134B984207D1FF
:10CF80004FF40010012100F05FF94FF4001014E09D
:10CF90000E49884207D14FF48000012100F054F976
:10CFA0004FF4800009E00A4A90420BD14FF4000090
:10CFB000012100F049F94FF400000021BDE80840CC
:10CFC00000F042B908BD00BF0054004000580040C6
:10CFD000005C0040F0B5838823F03F02044685B032
:10CFE0001004060C68460D4600F0B6F82E4902986B
:10CFF000B0FBF1F7BFB23E43A680B4F800C02CF0FE
:10D0000001031A04110C294B2A6821809A4209D87D
:10D010005200B0FBF2F18BB201372784032B98BF8B
:10D02000042322E0B5F806E04BF6FF7CE64505D187
:10D0300002EB4203B0FBF3F083B206E01923534343
:10D04000B0FBF3F291B241F480431905080D08B921
:10D0500043F001034FF4967257434FF47A7E97FBE7
:10D06000FEF7013743F400432784A383B4F800E0BC
:10D070001FFA8EFC4CF001012180208820F4806290
:10D0800022F00A036889AA8819040B0C40EA020EF0
:10D0900043EA0E012889AB89218040EA030CA4F8F9
:10D0A00008C005B0F0BD00BF40420F00A0860100DF
:10D0B00041F28833002103604BF6FF724FF4804346
:10D0C0008180C2800181418183817047038819B1C9
:10D0D0009BB243F0010303E023F0010211040B0CA7
:10D0E00003807047038819B19BB243F4807303E057
:10D0F00023F4807211040B0C03807047038819B16C
:10D100009BB243F4007303E023F4007211040B0C90
:10D110000380704712B141F0010101E001F0FE010E
:10D1200001827047038819B19BB243F4806303E026
:10D1300023F4806211040B0C038070470182704756
:10D14000008AC0B2704783889BB20AB1194301E0DC
:10D1500023EA010181807047254B9A6802F00C0296
:10D16000042A10B503D0082A03D0224B24E0224B16
:10D1700022E05C685968620201F03F010AD55A68F2
:10D180001D4B47F6C07C02EA0C04A209B3FBF1F385
:10D19000534309E05A6847F6C07402EA0403154C89
:10D1A0009B09B4FBF1F14B43114C616801F440322F
:10D1B000D40BA11CB3FBF1F30D4903608C6804F0A0
:10D1C000F00213090D4A0468D35C34FA03F3436098
:10D1D0008C6804F4E054A40A145D33FA04F4846007
:10D1E000896801F46041490B525CD340C36010BDB3
:10D1F000003802400024F40000127A00F8000020F9
:10D20000044B1A6B09B1104301E022EA00001863D5
:10D21000704700BF00380240044B1A6C09B110433C
:10D2200001E022EA00001864704700BF00380240A5
:10D23000044B5A6C09B1104301E022EA0000586423
:10D24000704700BF00380240044B1A6A09B110430E
:10D2500001E022EA00001862704700BF0038024077
:10D26000044B5A6A09B1104301E022EA00005862F7
:10D27000704700BF00380240024B586F40F0807288
:10D280005A67704700380240038819B19BB243F0D7
:10D29000400303E023F0400211040B0C03807047AD
:10D2A000B0F820C030B52CF001052C04250C058405
:10D2B000048BB0F820C024F0F3052C04250C42EABE
:10D2C00005042CF00A0544EA03142B041A0C42F05E
:10D2D00001050D430483058430BDB0F820C030B58E
:10D2E0002CF010052C04250C0584048BB0F820C00C
:10D2F00024F440752C05250D45EA02242CF0A005E8
:10D3000044EA03342B041A0C42F0100545EA0115D7
:10D310000483058430BD000008B5474B984205D111
:10D3200001200146FFF79CFF01203DE0B0F1804F56
:10D3300005D101200146FFF787FF012076E03F4934
:10D34000884205D102200121FFF77EFF02206DE017
:10D350003B4A904205D104200121FFF775FF0420CC
:10D3600064E0384B984205D108200121FFF76CFF9B
:10D3700008205BE03449884205D110200121FFF7E5
:10D3800063FF102052E0314A904205D12020012154
:10D39000FFF75AFF202049E02D4B984209D1022087
:10D3A0000121FFF75DFF02200021BDE80840FFF7E3
:10D3B00057BF2849884207D14FF480300121FFF739
:10D3C0004FFF4FF48030EFE7234A904207D14FF4EC
:10D3D00000300121FFF744FF4FF40030E4E71F4B1A
:10D3E000984207D14FF480200121FFF739FF4FF415
:10D3F0008020D9E71A49884205D140200121FFF752
:10D4000023FF402012E0174A904205D180200121DD
:10D41000FFF71AFF802009E0134B98420BD14FF41D
:10D4200080700121FFF710FF4FF480700021BDE8EC
:10D430000840FFF709BF08BD00000140000400409C
:10D4400000080040000C00400010004000140040A4
:10D4500000040140004001400044014000480140F8
:10D4600000180040001C0040002000401B4A0388B8
:10D4700090420ED01A4A90420BD0B0F1804F08D0A3
:10D48000184A904205D0184A904202D0174A90425A
:10D4900006D14FF68F7203EA020C4B884CEA030365
:10D4A000134A904209D0134A904206D04FF6FF42E9
:10D4B00003EA020C0B894CEA030303804B680A88D9
:10D4C000C362064B0285984202D0054A904201D1C0
:10D4D000897A018601238382704700BF00000140E2
:10D4E000000401400004004000080040000C00401F
:10D4F000001000400014004000234FF0FF31416055
:10D5000003800381438083727047416270470388C0
:10D5100019B19BB243F0800303E023F080021104B1
:10D520000B0C03807047038819B19BB243F00103D1
:10D5300003E023F0010211040B0C0380704700008C
:10D54000028CB1F80CC022F0010370B51E04340C3B
:10D550000484068C8488058B25F0730213041A0C4E
:10D5600026F002031E04330C0D884E882A4346EA37
:10D570000C051FFA85FC134DA8424CEA030302D0A8
:10D58000114DA84218D14FF6F77603EA0605CB896C
:10D590004FF6FB7645EA030C8B880CEA060633430C
:10D5A000B1F810C04E8A4FF6FF45254046EA0C04FC
:10D5B0001FFA84FC4CEA0504896884800283416375
:10D5C000038470BD0000014000040140B0F820C099
:10D5D0002CF0100230B515042C0C0484B0F820C0D7
:10D5E0008488038B23F4E64215040B882A0C2CF064
:10D5F000200542EA03222B048D89B1F802C01B0CDE
:10D6000043EA0513124DA84243EA0C1302D0114D10
:10D61000A84217D14FF67F7503EA050CCB894CEA77
:10D620000315B1F804C04FF6BF732B4043EA0C1347
:10D630004FF2FF35B1F810C025404C8A45EA8C0501
:10D6400045EA84048968848002838163038430BD51
:10D650000000014000040140B0F820C02CF48072AA
:10D6600030B515042C0C0484B0F820C08488838B5A
:10D6700023F0730215040B882A0C2CF400751A434E
:10D680002B048D89B1F802C01B0C43EA0523134D0E
:10D69000A84243EA0C2302D0114DA84217D14FF201
:10D6A000FF7503EA050CCB894CEA0325B1F804C0E9
:10D6B0004FF6FF332B4043EA0C234CF6FF75B1F8CD
:10D6C00010C025404C8A45EA0C1545EA04148968C7
:10D6D00084808283C163038430BD00BF00000140A9
:10D6E00000040140B0F820C02CF4805230B515047D
:10D6F0002C0C0484B0F820C08488838B23F4E64289
:10D7000015040B882A0C2CF4005542EA03222B0442
:10D710008D89B1F802C01B0C43EA0533094DA842BC
:10D7200043EA0C3302D0084DA84205D14BF6FF75F1
:10D7300025400C8A45EA84148968848082830164C8
:10D74000038430BD00000140000401400023038039
:10D750004380838083608381C381038243827047D7
:10D76000B0F818C02CF0080213041A0C41EA0203A6
:10D7700003837047B0F818C02CF4006213041A0C2D
:10D7800042EA012303837047B0F81CC02CF0080262
:10D7900013041A0C41EA020383837047B0F81CC0DB
:10D7A0002CF4006213041A0C42EA012383837047AD
:10D7B00010B5048C01238B40A4B224EA0303038434
:10D7C000B0F820C012FA01F141EA0C03038410BD45
:10D7D00000230122038043808280C380038170473D
:10D7E000406B7047806B7047C06B7047006C704730
:10D7F000028B22F00C031A04130C0383B0F818C038
:10D800001FFA8CF241EA020303837047028B22F471
:10D8100040631A04130C0383B0F818C01FFA8CF28B
:10D8200042EA012303837047828B22F00C031A041F
:10D83000130C8383B0F81CC01FFA8CF241EA020378
:10D8400083837047828B22F440631A04130C838312
:10D85000B0F81CC01FFA8CF242EA012383837047A0
:10D860002DE9F0410B880D4604464988AA8843B942
:10D870002B89FFF715FDE9882046BDE8F041FFF749
:10D88000B7BF042B08D12B89FFF727FDE988204675
:10D89000BDE8F041FFF7BABF082BB5F8088023D1E7
:10D8A000038C23F480764FEA06474FEA174303843C
:10D8B000868BB0F820C026F0F3073B041E0C2CF436
:10D8C000206346EA08171E04360C46EA012CBFB254
:10D8D0001FFA8CF343F480713A4382830184E98810
:10D8E000BDE8F041FFF7A0BF068C26F480531F046B
:10D8F0003F0C0784868BB0F820C026F440731E05C9
:10D90000360D46EA02222CF4005342EA08385A0443
:10D91000530C43EA013C1FFA8CF242F48051A0F808
:10D920001C800184E988BDE8F041FFF78BBFB0F8A7
:10D93000443021B16FEA43436FEA534301E0590495
:10D940004B0CA0F84430704783899BB20AB119434D
