:020000040800F2
:100000000000022055A501089D2F01089F2F01081F
:10001000A72F0108AF2F0108B72F0108000000002B
:10002000000000000000000000000000BF2F0108D9
:10003000C12F010800000000C32F01087D2F010817
:10004000A9A50108A9A50108A9A50108A9A5010854
:10005000A9A50108A9A50108A9A50108A9A5010844
:10006000A9A50108A9A50108A9A50108A9A5010834
:10007000A9A50108A9A50108A9A50108A9A5010824
:10008000A9A5010871300108A9A50108A9A50108C1
:10009000A9A50108A9A50108A9A50108A9A5010804
:1000A000A9A50108A9A50108A9A50108A9A50108F4
:1000B000C52F010811300108A9A50108CB3001089E
:1000C000C5300108D7300108D1300108A9A50108C1
:1000D000A9A50108B9300108BF300108A9A5010888
:1000E000A9A50108A9A50108A9A50108A9A50108B4
:1000F000A9A50108A9A50108A9A50108A9A50108A4
:10010000A9A50108A9A50108A9A50108A9A5010893
:10011000A9A50108A9A50108A9A50108A9A5010883
:10012000A9A50108A9A50108A9A50108A9A5010873
:10013000A9A50108A9A50108A9A50108A9A5010863
:10014000A9A50108A9A50108A9A50108A9A5010853
:10015000A9A50108A9A5010829300108A9A5010838
:10016000A9A50108A9A50108A9A50108A9A5010833
:10017000A9A50108A9A50108A9A50108A9A5010823
:08018000A9A50108A9A50108C9
:1080000010B540F2F074C2F20004237863B940F274
:108010000000C0F2000028B14AF6E040C0F60100BE
:10802000AFF300800121217010BD00BF08B540F200
:108030000003C0F200034BB14AF6E04040F2F47195
:10804000C0F60100C2F20001AFF3008040F2F07010
:10805000C2F20000016829B140F20003C0F200033F
:1080600003B1984708BD00BF70B542F2FB16C3F6D6
:10807000E97621F00043B34286B01CDD4FF6FF7273
:10808000C7F6EF72934205DD02460B4602F00CFD87
:1080900006B070BD02AA00F0ABFE00F00303DDE9FC
:1080A0000201012B13D0022B0AD0C3B9DDE904234E
:1080B00001F0A2FAECE70022002301F09DFAE7E7C5
:1080C000DDE9042301F098FA01F10041E0E70093B3
:1080D000DDE9042301F0D4FF01F10041D8E70123D9
:1080E0000093DDE9042301F0CBFFD1E770B542F244
:1080F000FB16C3F6E97621F00043B34286B01EDDDD
:108100004FF6FF72C7F6EF72934205DD02460B464B
:1081100002F0CAFC06B070BD02AA00F069FE00F0D1
:10812000030001281DD0022810D008BB0123DDE97F
:1081300002010093DDE9042301F0A2FFEAE7002237
:1081400000230024009401F09BFFE3E70123DDE915
:1081500002010093DDE9042301F092FF01F10041E7
:10816000D8E7DDE90201DDE9042301F045FAD1E7B2
:10817000DDE90201DDE9042301F03EFA01F10041ED
:10818000C8E700BFD0F1010338BF0023B0F1004FB2
:1081900008BF43F001030BB102207047A0F50003B4
:1081A00000F1FF42B3F1FE4F2CBF00230123B2F1D7
:1081B000FE4F38BF43F001030BB1042070474FF668
:1081C000FE73411EC0F27F0300F10042013A994262
:1081D0008CBF002101219A428CBF0B4641F0010364
:1081E0000BB10320704710F5000F14BF00230123CB
:1081F000B0F1FF4F14BF184643F00100704700BFB5
:108200002DE9D0438AB08046894600F021F940F23A
:108210000004C2F2000494F90030013306460F4610
:1082200004D04046494602F033FA20B93046394678
:108230000AB0BDE8D0834046494602F07DF90023EC
:108240000022C3F6F07303F073F80028EED04AF66C
:10825000CC404AF6C843C0F60100C0F60103CDE9A0
:10826000048901930123CDE9028900930023089337
:1082700002F058FA94F90030022BCDE9060108D03B
:10828000684602F04DFA20B1089B3BB9DDE906676C
:10829000CCE703F0A3FB21230360F5E703F09EFB8B
:1082A000089B0360F2E700BF00F006BB000000007F
:1082B0002DE9D0438AB006460F4600F011FC40F28B
:1082C0000004C2F2000494F900300133804689466C
:1082D00038D03046394602F033F9002832D03046E3
:1082E00039462DA3D3E9002303F022F800282ED12C
:1082F000304639462AA3D3E9002302F0FBFF08B336
:1083000094F900104AF6D0430422C0F601038DE828
:108310000C0000230022089300230229CDE9046702
:10832000CDE90267CDE9062331D0684602F0F8F9BD
:1083300000282CD0089B1BB103F050FB089B036066
:10834000DDE90689404649460AB0BDE8D083217878
:108350004AF6D043C0F601030322CDE904678DE855
:108360000C000023CDE90267089341B94FF6FF7373
:108370004FF06042C4F2EF73CDE90623D5E7002247
:1083800000230229C7F6F073CDE90623CDD103F00F
:1083900025FB22230360CDE7EF39FAFE422E86400B
:1083A00051302DD5104987C001F022B870B58AB080
:1083B000064601F0C9F840F20004C2F2000494F944
:1083C00000300133054630D03046FFF7DBFE002891
:1083D0002BD03046002103F0D9FA30B34AF6D4430B
:1083E0003046C0F601030193012300930023089354
:1083F00002F0BAFC2478CDE90401CDE90201BCB158
:108400000020002102460B4602F02CFE022CCDE992
:10841000060111D103F0E2FA21230360089B8BB916
:10842000DDE9060102F0B6FF054628460AB070BD38
:1084300000220023CDE90623684602F071F90028E6
:10844000ECD1E7E703F0CAFA089B0360E8E700BF56
:108450004FF6FF732DE9F04FC3F6EF7321F00044A0
:1084600087B09C420D468846064616DD04F140441E
:10847000034604F58014234300F00B8102460B46AB
:1084800002F012FB02460B4602F0ECFD06460D46DA
:108490003046294607B0BDE8F08F4FF6FF73C3F6AC
:1084A000DF739C4210DCB4F1795F80F2658196A3A2
:1084B000D3E9002302F0FAFA00230022C3F6F07396
:1084C00002F036FF0028E3D13046294602F034F8A6
:1084D0000B4600210246C3F6F071002002F0E4FAD8
:1084E00000230022C3F6E07302F092FC88A3D3E9D4
:1084F000002306460F4602F08BFC87A3D3E9002336
:1085000002F0D4FA32463B4602F082FC84A3D3E95F
:10851000002302F0C9FA32463B4602F079FC82A3FE
:10852000D3E9002302F0C2FA32463B4602F070FC67
:108530007FA3D3E9002302F0B7FA32463B4602F0AC
:1085400067FC7DA3D3E9002302F0B0FA32463B4634
:1085500002F05EFC7AA3D3E90023CDE900013046A6
:10856000394602F055FC78A3D3E9002302F09CFAC7
:1085700032463B4602F04CFC75A3D3E9002302F0DF
:1085800095FA32463B4602F043FC73A3D3E900233D
:1085900002F08AFA32463B4602F03AFC00230022FF
:1085A000C3F6F07302F082FACDE904013046394691
:1085B00000F042FE43F23233C3F6EF739C42824630
:1085C0008B467DDC02460B460D460024CDE9024574
:1085D00002F06CFADDE9042304460D46DDE90001F2
:1085E00002F040FD02460B462046294602F010FCF0
:1085F000CDE90001DDE9020102460B4602F008FC6C
:1086000002460B463046394602F04EFADDE90223B7
:1086100004460D465046594602F048FA02460B46BB
:108620002046294602F01EFD02460B4602F03EFAA5
:1086300002460B464AA1D1E9000102F035FA024692
:108640000B46DDE9000102F02FFA0D460446DDE994
:10865000020102460B4602F029FA02460B4642A1ED
:10866000D1E9000102F020FA02460B4620462946D5
:1086700002F01AFA02460B463BA1D1E9000102F0D2
:1086800013FA06460D46B8F1000FD8BF05F10045B4
:10869000FEE637A3D3E9002302F0BAFB30A3D3E907
:1086A0000023804689463046294602F0B1FB024647
:1086B0000B464046494602F0F9F906460D46E7E604
:1086C000DDE90423DDE9000102F0CCFC02460B46A3
:1086D0005046594602F09CFB52465B4602F0E6F9D2
:1086E00002460B4602F0E2F91DA3D3E9002302F093
:1086F000DBF902460B461EA1D1E9000102F0D4F9D4
:1087000006460D46BFE700BF9C7500883CE4377EF7
:1087100009F7FD0DE13D023F88B20175E0EF493FE9
:108720003B8F68B52882A43F5544880E55C1C93F88
:108730007D6FEB0312D6D43F555555555555C53F62
:1087400082922EB1C5B8B33F59018D1B6C06E63F2E
:10875000C88A599CE52A00404B2D8A1C273A0340C1
:10876000075C143326A6913C182D4454FB21E93FA5
:10877000182D4454FB21F93F02460B4602F048FBFA
:1087800039A3D3E900238046894602F041FB38A390
:10879000D3E9002302F08AF942464B4602F038FB47
:1087A00035A3D3E9002302F07FF942464B4602F09D
:1087B0002FFB33A3D3E9002302F078F942464B465E
:1087C00002F026FB30A3D3E9002302F06DF9424604
:1087D0004B4602F01DFB2EA3D3E9002302F066F9FD
:1087E00042464B4602F014FB2BA3D3E900238246FA
:1087F0008B464046494602F00BFB29A3D3E90023F0
:1088000002F052F942464B4602F002FB26A3D3E99E
:10881000002302F04BF942464B4602F0F9FA24A33A
:10882000D3E9002302F040F942464B4602F0F0FA49
:1088300000230022C3F6F07302F038F902460B461B
:108840005046594602F00EFC02460B463046294679
:1088500002F0DEFA02460B463046294602F026F9BF
:1088600006460D4614E600BF09F7FD0DE13D023F47
:1088700088B20175E0EF493F3B8F68B52882A43F7D
:108880005544880E55C1C93F7D6FEB0312D6D43FC6
:10889000555555555555C53F82922EB1C5B8B33F74
:1088A00059018D1B6C06E63FC88A599CE52A004099
:1088B0004B2D8A1C273A03402DE9F04F83B0144614
:1088C0001D46CDE9002352422243002325F00047F4
:1088D000C7F6F07347EAD27282469A428B46064642
:1088E0004ED8424221F0004C024388464CEAD272F4
:1088F0009A4245D805F1404303F58013234363D0E2
:10890000AB175CEA060603F0020343EAD17944D0D0
:108910003C4351D00023C7F6F0739F4267D0002339
:10892000C7F6F0739C4547D0C7EB0C073F153C2FAB
:1089300059DC17F13C0FACBF0027012717EAD577A8
:1089400000F0848000200021B9F1010F04BF8246AD
:1089500001F1004B1CD0B9F1020F68D082468B4662
:10896000B9F1000F14D04CA3D3E9002302F09CF816
:108970004BA3D3E9002302F097F882468B4607E029
:1089800050465946DDE9002302F090F882468B46B6
:108990005046594603B0BDE8F08FB9F1030FB7D880
:1089A00001A353F829F000BF9189000891890008BC
:1089B000DD890008D3890008B8F1000F32DB0FF21F
:1089C000E80BDBE900ABE3E703B0BDE8F04F01F0F3
:1089D0000BBC0FF2DC0BDBE900ABD9E70FF2C00BED
:1089E000DBE900ABD4E730A1D1E90001ACE7BC453D
:1089F00037D0B9F1030F92D801A353F829F000BF83
:108A00001B8A0008118A0008DD890008D389000844
:108A10004FF0000A4FF0004BBAE74FF0000A4FF05A
:108A2000000BB5E70FF2900BDBE900ABB0E71AA340
:108A3000D3E9002302F038F802460B4618A1D1E929
:108A4000000102F031F882468B46A1E7DDE9002300
:108A50005046594602F006FB01F06EFD01F0C4FBE2
:108A600072E7B9F1030FA7D8DFE809F0110C07028C
:108A70000FF24C0BDBE900AB8AE70FF24C0BDBE9A2
:108A800000AB85E70FF2480BDBE900AB80E70FF2A4
:108A9000480BDBE900AB7BE7075C143326A6A13C5F
:108AA000182D4454FB210940182D4454FB21F93F53
:108AB000182D4454FB2109C0182D4454FB21F9BF43
:108AC000D221337F7CD902C0D221337F7CD90240AE
:108AD000182D4454FB21E9BF182D4454FB21E93FD4
:108AE00042F6416321F00042C4F286032DE9F04FC3
:108AF000CD0F9A4283B006460F4615D94FF6FF7345
:108B0000C7F6EF739A4237D921F07F44024624F426
:108B100070040B4604432AD1002D40F039813046C1
:108B2000394603B0BDE8F08F42F64263C3F6D67310
:108B30009A4200F2E3804FF6FF73C3F62F639A4226
:108B400088BF4FF000085FD893A3D3E9002301F05A
:108B5000ADFF00230022C3F6F07302F0E9FB00280A
:108B600052D00023304639460022C3F6F07301F09C
:108B70009DFF06460F46D2E789A3D3E9002302F002
:108B8000D7FB002840F0FA803046394686A3D3E967
:108B9000002302F0AFFB002840F0FA8084A3D3E961
:108BA00000233046394602F033F94AF20863C0F632
:108BB000010303EBC505D5E9082301F077FF02F0B7
:108BC000C1FB804602F0BEF87BA3D3E90023044634
:108BD0000D4602F01DF902460B463046394601F0BB
:108BE00063FF77A3D3E90023CDE90001204629469E
:108BF00002F00EF982468B46DDE9000152465B46E3
:108C000001F052FF06460F4632463B463046394693
:108C100002F0FEF86CA3D3E9002304460D4602F0EF
:108C2000F7F86BA3D3E9002301F03EFF22462B4661
:108C300002F0EEF868A3D3E9002301F037FF2246E3
:108C40002B4602F0E5F866A3D3E9002301F02CFFE0
:108C500022462B4602F0DCF863A3D3E9002301F09F
:108C600025FF22462B4602F0D3F802460B4630463B
:108C7000394601F019FF04460D46B8F1000F59D0EE
:108C800002460B463046394602F0C2F822462B46D1
:108C900006460F4600204FF0804101F005FF0246D6
:108CA0000B463046394602F0DDF902460B46504687
:108CB000594601F0F9FEDDE9002301F0F5FE0B460F
:108CC00000210246C3F6F071002001F0EDFE6FF4C2
:108CD0007F739845A2BF4FEA0858064608EB010784
:108CE000BFF61DAF08F57A7500224FF0B8732D0559
:108CF000691802F08DF806460F4610E74AF2B123D4
:108D0000C3F6F0739A423FF649AF4AF20864C5F1E0
:108D10000008C0F6010404EBC504C5EB080505F125
:108D20000108D4E9002301F0BFFED4E904ABCDE98A
:108D3000000161E73046394622462B4602F068F8CA
:108D400000224FF08043804689462046294601F0A4
:108D5000ABFE02460B464046494602F083F93246D6
:108D60003B4601F0A1FE0B4600210246C3F6F0711E
:108D7000002001F099FE06460F46D0E606A1D1E993
:108D8000000102460B4602F043F806460F46C6E6CF
:108D900000260027C3E600BF9C7500883CE4377EB0
:108DA000EF39FAFE422E864051302DD5104987C04A
:108DB000FE822B654715F73F0000E0FE422EE63F9E
:108DC000763C7935EF39EA3DD0A4BE726937663E0C
:108DD000F16BD2C541BDBB3E2CDE25AF6A56113FBB
:108DE00093BDBE166CC1663F3E5555555555C53FA2
:108DF00042F2FB132DE9F04FC3F6E97321F0004670
:108E00008FB09E4204460D468846174640F3A38025
:108E10004DF67B13C4F202039E4226DC002996A382
:108E2000D3E9002340F3B28101F03EFE42F2FB138E
:108E3000C3F6F9739E428046894600F0A18090A354
:108E4000D3E90023012401F02FFE02460B46C7E9B7
:108E500000014046494601F027FE89A3D3E90023DB
:108E600001F022FEC7E902017CE042F2FB13C4F2EA
:108E700039139E4240F3A1804FF6FF73C7F6EF739C
:108E80009E4273DC4FEA26598246A9F58269A9F110
:108E900006094FEA0951731A19469B4602F052FA25
:108EA00001F050FF04460D4602460B465046594617
:108EB000CDE9084501F0F8FD00230022C4F270134B
:108EC00001F0A6FF04460D4602F03CFA01F03AFF1D
:108ED00002460B4682468B4620462946CDE90AAB20
:108EE00001F0E2FD00230022C4F27013032401F01C
:108EF0008FFF00220023CDE90C0102F0F1F990B1BF
:108F0000032450465946002200230AAD013C02F0DA
:108F1000E7F940B175E9020100220023013C02F0AB
:108F2000DFF90028F6D123465D4C08A839464A46A9
:108F300001940224009400F087FCB8F1000F04466D
:108F400010DA7A684442FB6802F100427A6003F169
:108F50000043FB6006E0C2E9004500240022002334
:108F6000C7E9022320460FB0BDE8F08F02460B464A
:108F700001F09AFD0024C7E90201C7E90001F1E709
:108F800041A3D3E90023012401F08EFD40A3D3E9DE
:108F900000238046894601F087FD02460B46C7E95B
:108FA00000014046494601F07FFD39A3D3E9002383
:108FB00001F07AFDC7E90201D4E701F0BDFA36A35A
:108FC000D3E9002382468B4601F022FF00230022D2
:108FD000C3F6E07301F06AFD02F0B4F9044601F053
:108FE000B1FE25A3D3E90023CDE9040101F010FF70
:108FF00002460B465046594601F056FD20A3D3E9E0
:10900000002382468B46DDE9040101F001FF1F2C9D
:10901000CDE902015046594644DC4AF23863621EEB
:10902000C0F6010353F82230B3423BD0DDE90223FE
:1090300001F03AFD81460D4602460B46C7E9002382
:109040004A462B465046594601F02EFDDDE90223E3
:1090500001F02AFDB8F1000F02460B46C7E90223D2
:1090600080DA05F1004501F10041C7F80090644243
:109070007D60B860F96075E700004054FB21F93F5E
:109080003163621A61B4D03D0000601A61B4D03D12
:109090007370032E8A19A33B83C8C96D305FE43F08
:1090A000B8A60108DDE90223361501F0FDFCC1F385
:1090B0000A538146F31A0D46102BC7E90001BFDDA4
:1090C00053A3D3E90023DDE9040101F0A1FECDE9BA
:1090D00002015046DDE90223594601F0E5FCCDE9E5
:1090E000060150465946DDE9062301F0DDFCDDE9C5
:1090F000022301F0D9FC48A3D3E9002382468B4622
:10910000DDE9040101F084FE52465B4601F0CCFC2F
:10911000CDE90201DDE90223DDE9060101F0C4FC2D
:10912000C1F30A538146F31A0D46312BC7E90001FA
:109130006BDD3BA3D3E90023DDE9040101F068FE08
:10914000CDE90201DDE90223DDE9060101F0ACFC15
:1091500082468B4652465B46DDE9060101F0A4FCDF
:10916000DDE9022301F0A0FC2FA3D3E90023CDE920
:109170000201DDE9040101F04BFEDDE9022301F00B
:1091800093FCCDE90201504659464FE701F08EFCB1
:1091900042F2FB13C3F6F9739E428046894616D00D
:1091A00023A3D3E900234FF0FF3401F07FFC0246F4
:1091B0000B46C7E900014046494601F075FC1CA377
:1091C000D3E9002301F072FCC7E90201CAE610A34B
:1091D000D3E900234FF0FF3401F068FC0EA3D3E97C
:1091E00000238046894601F061FC02460B46C7E930
:1091F00000014046494601F057FC07A3D3E900238C
:1092000001F054FCC7E90201ACE6DDE906AB17E763
:109210000000601A61B4D03D7370032E8A19A33B1D
:109220000000002E8A19A33BC14920259A837B396F
:109230003163621A61B4D03D2DE9F843002425461C
:10924000C7F6F074C7F6F0750C40AC4206460F4600
:1092500089460B46024600F0AB8000297FDD0915E8
:1092600000F08880A1F57E7C23F07F43C90723F4BA
:109270007003ACF1070C43F4801362D5D10F0027C3
:1092800001EB43034FEA6C0C5200162438464FF4AE
:1092900000114518D60F9D424FEA4202DEBFC5EBD2
:1092A000030368187F184908013C06EB4303F0D11B
:1092B0002026A0464FF00041984201EB08050EDB46
:1092C000834214BF4FF000094FF0010995428CBF53
:1092D0004FF0000909F00109B9F1000F0ED005F0B7
:1092E000004905EB0108B9F1004F23D081461B1A54
:1092F000954288BF013B521B64184846D50F490868
:109300005200013E05EB4303D6D113431ED164083E
:109310007B10FA0703F17E5348BF44F0004403F585
:10932000C0034FEA0C5C0CEB030726463046394677
:10933000BDE8F883B8F1000FA8BF00F10109D6DA43
:10934000D4E7D10F520001EB430397E7611C1CBF28
:1093500004F001031C19DAD101373446D8E721F0B3
:1093600000440443E2D0002936D1D30A153952050E
:10937000002BFAD013F480102AD15B000130DC02FC
:10938000FBD5C0F10105C0F1200432FA04F44919FB
:109390002343A1F57E7C824023F07F43C90723F459
:1093A0007003ACF1070C43F480133FF567AFC8E7D7
:1093B00002460B4601F02CFD02460B46304639466C
:1093C00001F074FB06460F4630463946BDE8F88387
:1093D000202401250020D8E702460B4601F064FB5B
:1093E00002460B4601F03EFE06460F469EE700BFD2
:1093F000F8B520F00044B4F1FF4F21F00046D4BF8F
:1094000000270127B6F1FF4FC8BF47F00107034609
:10941000002F45D1B1F17E5F4CD08F1707F00207C6
:1094200047EAD0774CB9022F3FD0032F03D140F643
:10943000DB73CCF249031846F8BD36B3B6F1FF4FE3
:1094400055D0B4F1FF4F20D0A41BE4153C2CC4BF71
:1094500040F6DB70C3F6C97030DD012F08BF00F1A4
:109460000043E8D0022F33D00346002FE3D04BF661
:109470002E51C3F2BB3101F0E3FF40F6DB71C4F2C1
:10948000490101F0DBFF0346D5E7002840F6DB7316
:10949000B8BFCBF6C973CEDBC3F6C9731846F8BDA7
:1094A00001F0CEFF03461846F8BD40F6DB73C4F268
:1094B0004903C0E7BDE8F84001F0C6B914F13C0F1C
:1094C000ACBF0024012414EAD1741DD00020C4E7ED
:1094D0004BF62E51C3F2BB3101F0B2FF014640F60C
:1094E000DB70C4F2490001F0A9FF0346A3E7B4F121
:1094F000FF4F10D0022FD8D0032F98D00023012F78
:1095000099D14FF0004396E702F056F901F0BAFA0C
:1095100001F09AF9A1E7022F04BF4CF6E433C4F23C
:10952000160388D0032F04BF4CF6E433CCF21603A5
:1095300081D0012F40F6DB7318BFC3F649737FF467
:109540007AAFCBF6497376E720F000420346B2F1DA
:10955000FF4F70B5044639D2002A35D000283FDBD2
:10956000C115B2F5000F09D210F4000240D15B0022
:1095700001321802FBD5C2F10102891823F07F43A2
:10958000A1F17F0223F40003D10743F4000348BF95
:109590005B000026541019215B0035464FF08072A5
:1095A000A8189842DEBFC0EB03038518B61852080E
:1095B0005B000139F4D113B106F001039E19761056
:1095C000E40506F17C56A419204670BD014602F060
:1095D0003FF80146204601F033FF0446204670BDA7
:1095E000014601F02BFF014602F0E6F80446EBE7E6
:1095F00001228918C2E700BF2DE9F04F21F0004495
:1096000087B0B4F1795F80468946CDE900236DDAF1
:1096100001F098FE002800F0F78042464B46404695
:10962000494601F0F5FB7CA3D3E9002306460F462B
:1096300001F0EEFB7AA3D3E9002301F037FA3246BA
:109640003B4601F0E5FB78A3D3E9002301F02CFAB7
:1096500032463B4601F0DCFB75A3D3E9002301F061
:1096600025FA32463B4601F0D3FB73A3D3E900232E
:1096700001F01AFA32463B4601F0CAFB70A3D3E967
:10968000002301F013FA32463B4601F0C1FB82464B
:109690008B460023002230463946C3F6E07301F0C2
:1096A000B7FB52465B46CDE902013046394601F030
:1096B000AFFBDDE9002304460D464046494601F074
:1096C000A7FB02460B462046294601F0EDF902466B
:1096D0000B46DDE9020101F0E7F90B4600210246E5
:1096E000C3F6F071002001F0DFF97FE002460B467F
:1096F00001F08EFB48A3D3E9002306460F4601F094
:1097000087FB47A3D3E9002301F0D0F932463B465B
:1097100001F07EFB44A3D3E9002301F0C5F93246F2
:109720003B4601F075FB42A3D3E9002301F0BEF9EB
:1097300032463B4601F06CFB3FA3D3E9002301F026
:10974000B3F932463B4601F063FB3DA3D3E9002366
:1097500001F0ACF93B46324601F05AFB43F232339A
:10976000C3F6D3739C4282468B4692DD0023C3F638
:10977000E9739C423DDC0021A4F500130022002087
:10978000C3F6F07114461D4601F08EF9CDE90401CF
:1097900000230022C3F6E0733046394601F038FB5F
:1097A00022462B4601F080F952465B46CDE9020184
:1097B0003046394601F02CFBDDE9002304460D4616
:1097C0004046494601F024FB02460B462046294606
:1097D00001F06AF902460B46DDE9020101F064F985
:1097E00002460B46DDE9040101F05EF907B0BDE871
:1097F000F08F002300250022C3F6E7730024CDE993
:109800000423C3F6D275C3E700210020C3F6F0712C
:10981000ECE700BFAFF30080D43888BEE9FAA8BDFA
:10982000C4B1B4BD9EEE213EAD529C804F7E923EAF
:109830009015CB19A001FA3E7751C1166CC1563F65
:109840004C5555555555A53F2DE9F04F4AF6AB25DA
:10985000D41EC2F6AA25ADF51B7D03F1FF3C85FBA6
:109860000475CDF808C0E4174AF2C076DDF890C25E
:10987000C0F601061F4606900891C4EBA50456F8F1
:109880002C6024EAE4740A94E343029C099603EBF7
:10989000430314EB060802EBC303079318D40A9E94
:1098A00008F10108A598351B4FEA88080CAE002482
:1098B00000EB850900200021002D03DB59F804008E
:1098C00001F040FA043401354445E6E90201F1D1E2
:1098D000099C002C33DB099D0DF5B87ABB465EAEC2
:1098E00006EBC5060096DDF808C0BCF1000FBCBF52
:1098F0004FF000084FF000091ADB0DF1380E069DFD
:109900000EEBCB064FF000084FF00009002476E97B
:1099100002230134F5E8020101F07AFA02460B460F
:109920004046494601F0C2F8BC4280468946EED125
:10993000009D0BF1010BEAE90289AA45D3D1099EEA
:109940000DF5067C9AAC731E0CEB860C00969B0002
:10995000CDF830C0E4180B930D94009C9AAD009E96
:10996000E400002E05EB0403049453E93C892ADD4E
:109970005EAE85AD341900230022C3F67063404605
:10998000494601F045FA01F0DDFC01F0DBF9002366
:109990000022C4F2701382468B4601F039FA024667
:1099A0000B464046494601F07FF801F0CBFC524699
:1099B0005B4645F8040F74E9020101F077F8B44200
:1099C00080468946D7D1079A4046494600F0B0FE06
:1099D00000224FF07F5304460D4601F019FA00F0C3
:1099E000B7FD00230022C4F2200301F011FA024661
:1099F0000B462046294601F057F80D46044601F073
:109A0000A1FC064601F09EF902460B462046294677
:109A100001F04AF8DDF81CC0BCF1000F8046894611
:109A200040F3C081009C9AADCCF11801631ECCF1CB
:109A3000170405EB830353F8502C52FA01F0361843
:109A400010FA01F1521A43F8502C52FA04F5002D85
:109A50003FDD009C0136002C40F3D08186AB03EB48
:109A60008400002407E021B10124C1F1807143F892
:109A7000041C83420ED053F8041B002CF3D04FF685
:109A8000FF7201248342C0F2FF02C1EB020243F8DD
:109A9000042CF0D1DDF81CC0BCF1000F16DDBCF1C8
:109AA000010F00F08A81BCF1020F0FD1DDF800C078
:109AB0000DF51A7E0CF1FF330EEB830353F8502C97
:109AC00022F07F4222F4400243F8502C022D00F095
:109AD0008580404649460022002301F001FC002811
:109AE00000F0A180009C601E099C844210DCDDF81F
:109AF00000C00DF5067E0C9C00220EEB8C0353F883
:109B0000041DA34242EA0102F9D1002A40F07C82FE
:109B10000D9C54F8503C002B40F074820B9D86AE97
:109B20000123721952F8041D01330029FAD0DDF81F
:109B300000C063440CF1010A9A4505934BDC0A9D71
:109B4000029C0CEB050BA59E04EB0A03049D013B54
:109B500006EB8B0B0DF1380C5EAC0CEBC30C6419EF
:109B6000CDF800C004945BF8040F01F0EBF8DDF8C9
:109B700008C0009EBCF1000FBCBF4FF000084FF0C2
:109B80000009E6E9020100961CDB0AEB07060DF16D
:109B9000380E069D4FF000084FF0000900240EEB30
:109BA000C60676E902230134F5E8020101F030F936
:109BB00002460B464046494600F078FFBC428046CC
:109BC0008946EED1059D0AF1010A049CAA45E4E903
:109BD00002890494C7DD059E0096BEE60021424638
:109BE0004B460020C3F6F07100F05EFF80468946C8
:109BF000002C3FF46EAF0021079A0020C3F6F071ED
:109C000000F096FD02460B464046494600F04CFFE8
:109C100000220023804689464046494601F060FB09
:109C200000287FF45FAF05960495002840F0078276
:109C3000DDF81CC040464946CCF1000200F078FD3A
:109C400000230022C4F2701306460F4601F066FBA3
:109C5000002800F0F98100230022C3F6706330462B
:109C6000394601F0D5F8009D0DF51A7C0CEB850402
:109C700001F068FB0135009501F064F8009D0023B8
:109C80000DF51A7E0022C4F270130EEB8505804696
:109C9000894601F0BDF802460B463046394600F0D1
:109CA00003FF079E1836079601F04CFB494644F81F
:109CB000500C404601F046FB45F8500C00210020B6
:109CC000C3F6F071079A00F033FD009C002C0646A5
:109CD0000F465DDB01340DF5067C0DF5BC7E5EADF7
:109CE00006950CEB84050EEBC40455F8040D01F049
:109CF00029F832463B4601F08BF800230022C3F6D8
:109D0000706364E902013046394601F081F8DDF8FC
:109D100018C0644506460F46E7D1009C0027DDF8D1
:109D200024800DF1D80B04F1FF3ACDF808B0D146EC
:109D3000B8F1000FC0F25581002FC0F252810DF52D
:109D4000BC7C994D0CEBC9064FF0000A4FF0000B9C
:109D5000002401E0BC4210DCF6E902230134F5E9FD
:109D6000020101F055F802460B465046594600F0F4
:109D70009DFEA04582468B46ECDA029D09F1FF3933
:109D800005EBC703013719F1020FC3E900ABCFD1CF
:109D9000A49C032C00F2B580DFE814F00801BB009E
:109DA000BB0032001AD1DDF800C00DF51A7E0EEBB3
:109DB0008C0353F8545CED1549E6DDF800C00DF551
:109DC0001A7E0CF1FF330EEB830353F8502C22F074
:109DD0007F4222F4000243F8502C77E60023002251
:109DE000C3F6E073002501F099FA00283FF471AE44
:109DF000009C02250136002C3FF730AE002449E6D6
:109E0000009E00230DF1D80B1946002E60DDDDF811
:109E100000C00DF1D80B0DF1E00A0CF101050BEBC0
:109E2000C5052C4654E9028954E9046742464B466D
:109E30003046394600F03AFECDE902013046DDE910
:109E40000223394600F030FE02460B4640464946A2
:109E500000F02CFEDDE9026764E90201544544E9A3
:109E60000267DFD1DDF800C000231946BCF1010F05
:109E70002EDD0BF1100A2C4654E9028954E90467DF
:109E800042464B463046394600F010FECDE900010F
:109E90003046DDE90023394600F006FE02460B4657
:109EA0004046494600F002FEDDE9006764E9020130
:109EB000544544E90267DFD100231C461846214679
:109EC00075E9022300F0F2FD554503460C46F5D135
:109ED000049C002C00F0C580089E01F10041DBF8D5
:109EE0000050DBF80800DBF80440DBF80C2004F13C
:109EF0000044356002F100427460B060F26033618A
:109F00007161DDF814C00CF007000DF51B7DBDE894
:109F1000F08FDDF800C000230DF1D80B1946BCF11D
:109F2000000F13DBDDF800C00DF1D80B00230CF19E
:109F300001041D460BEBC4041846294674E90223AC
:109F400000F0B4FD5C4503460D46F5D1049C01F1DB
:109F5000004204B90A46DDF820C00D461E461746E9
:109F6000DBE900011A46CCE900672B4600F09CFDB6
:109F7000009C002C03460CDD0BEBC4040D46184678
:109F80002946FBE9022300F091FDA34503460D4657
:109F9000F5D1049D0DB101F10041089E1C460D460E
:109FA000C6E90245ADE700BFC8A70108009C002034
:109FB0000146002C0BDB013436AD002005EBC40458
:109FC000014674E9022300F071FDAC42F9D1049D11
:109FD0000DB101F10041089E02460B46C6E900237F
:109FE0008FE7029D09F1FF394FF0000A4FF0000B97
:109FF00005EBC703013719F1020FC3E900AB7FF48A
:10A0000097AEC5E6012392E50596049583009AADC7
:10A01000EA18079C009052F8502C183C0794002A2C
:10A020007FF44CAE86AE0246F318214653F8040D79
:10A03000013A18390028F9D0009207913EE6DDF880
:10A0400000C00CF1FF30E1E7DDF800C00DF51A7E2D
:10A05000304639460EEB8C0401F074F944F8500C8C
:10A060002CE6DDF820C01C46DBE900670D46DBE985
:10A070000223CCE90445CCE90067CCE9022340E7A0
:10A080002DE9F04F85B006460F46CDE9002321F0BB
:10A090000043B3F1795F03DA01F054F900286ED080
:10A0A00032463B463046394600F0B2FE32463B4629
:10A0B00004460D4600F0ACFE3FA3D3E900238046E2
:10A0C00089462046294600F0A3FE3DA3D3E900239C
:10A0D00000F0EAFC22462B4600F09AFE3AA3D3E9B0
:10A0E000002300F0E3FC22462B4600F091FE38A34B
:10A0F000D3E9002300F0D8FC22462B4600F088FE6E
:10A1000035A3D3E9002300F0D1FC0E9B82468B4699
:10A11000002B39D000230022C3F6E073DDE90001F3
:10A1200000F076FE52465B46CDE9020140464946C4
:10A1300000F06EFE02460B46DDE9020100F0B4FCC1
:10A1400022462B4600F064FEDDE9002300F0ACFC63
:10A1500023A3D3E9002304460D464046494600F0B8
:10A1600057FE02460B462046294600F09FFC024659
:10A170000B463046394600F097FC06460F463046FF
:10A18000394605B0BDE8F08F02460B462046294609
:10A1900000F03EFE12A3D3E9002300F085FC424606
:10A1A0004B4600F035FE02460B463046394600F07D
:10A1B0007DFC06460F46E2E77CD5CF5A3AD9E53D0D
:10A1C000EB9C2B8AE6E55A3E7DFEB157E31DC73E68
:10A1D000D561C119A0012A3FA6F810111111813FC4
:10A1E000495555555555C53F4FF6FF732DE9F04F6D
:10A1F000C4F20F4321F0004583B09D420E460F4646
:10A2000004461FDD0023C7F6F0739D4200F3C380B0
:10A2100014BF0023012300280CBF002203F0010219
:10A22000002A40F0B88042F2FB1642F6185433463A
:10A23000CBF6F976C3F6F973C5F244440029C8BFDA
:10A240001E46B0E04FF6FF73C3F6DB739D4200F38A
:10A25000BE804FF6FF73C3F61F639D4240F3A88094
:10A260004FF0FF3C2246334620463146CDF804C02D
:10A2700000F0CEFD02460B4682468B4600F0C8FD3C
:10A2800095A3D3E900238046894600F0C1FD94A33D
:10A29000D3E9002300F00AFC42464B4600F0B8FD2B
:10A2A00091A3D3E9002300F001FC42464B4600F0A5
:10A2B000AFFD8FA3D3E9002300F0F8FB42464B46E5
:10A2C00000F0A6FD8CA3D3E9002300F0EFFB42468B
:10A2D0004B4600F09DFD8AA3D3E9002300F0E6FB86
:10A2E00052465B4600F094FD87A3D3E900238246E3
:10A2F0008B464046494600F08BFD85A3D3E90023F9
:10A3000000F0D2FB42464B4600F082FD82A3D3E927
:10A31000002300F0C9FB42464B4600F079FD80A3C4
:10A32000D3E9002300F0C0FB42464B4600F070FD2D
:10A330007DA3D3E9002300F0B7FB42464B4600F073
:10A3400067FDDDF804C0BCF1FF3F02460B4664D058
:10A350004AF610055046C0F60105594605EBCC05F6
:10A3600000F0A4FB2246334600F052FDD5E9082355
:10A3700000F09AFB2246334600F096FB02460B465D
:10A38000D5E9000100F090FB002F0E460446B8BF4F
:10A3900001F1004607E0204622463146334600F0F0
:10A3A00085FB04460E462046314603B0BDE8F08FDB
:10A3B0005FA3D3E9002300F079FB00230022C3F65A
:10A3C000F07300F0B5FF00283FF44AAFEBE700F070
:10A3D000B3F84FF6FF73C3F6F2739D428046894689
:10A3E0002CDC4FF6FF73C3F6E5739D425EDC02463C
:10A3F0000B464FF0000CCDF804C000F057FB0023D3
:10A400000022C3F6F07300F04FFB00224FF08043B0
:10A4100004460D46404649462EE05046594600F057
:10A4200045FB2246334600F0F3FC02460B4620462D
:10A43000314600F039FB04460E46B4E747F6FF7399
:10A44000C4F203039D4224DC00230022C3F6F87308
:10A450004FF0020CCDF804C000F026FB00230022D0
:10A46000C3F6F87304460D464046494600F0D0FC5A
:10A4700000230022C3F6F07300F018FB02460B46DF
:10A480002046294600F0EEFDDDF804C004460E46E5
:10A49000E8E600210020CBF6F07142464B4600F082
:10A4A000E1FD4FF0030C04460E46DBE600230022DC
:10A4B000C3F6F0734FF0010CCDF804C000F0F4FACD
:10A4C00000230022C3F6F07304460D464046494679
:10A4D000D2E700BFAFF3008011DA22E33AAD903F3C
:10A4E000EB0D76244B7BA93F513DD0A0660DB13FCB
:10A4F0006E204CC5CD45B73FFF8300922449C23F33
:10A500000D5555555555D53F2F6C6A2C44B4A2BFF7
:10A510009AFDDE522DDEAD3F6D9A74AFF2B0B33FBF
:10A52000711623FEC671BC3FC4EB98999999C93F37
:10A530009C7500883CE4377E21F00041704700BFE5
:10A5400021F0004000F1004000F58010C00F70477E
:10A550002DE9F04FC1F30A56A6F57E7483B0073C8F
:10A560008246132C8B46804627DC002C51DB4FF6AD
:10A57000FF73C0F20F0353FA04F606EA0105054320
:10A5800016D041A3D3E90023019100F08FFA0022F5
:10A59000002300F0CDFEDDF804C0002835D0BCF16A
:10A5A000000F69DB2CEA060C4FF00008E346C246B8
:10A5B0005046594603B0BDE8F08F332C09DDB4F5A1
:10A5C000806FF5D102460B4600F070FA82468B464A
:10A5D000EEE7A6F582634FF0FF32033B32FA03F554
:10A5E0000542E5D028A3D3E90023019100F05EFAEB
:10A5F0000022002300F09CFEDDF804C028B1BCF16D
:10A60000000F28DB28EA050800E0DC46E346C246E6
:10A61000CEE71DA3D3E9002300F048FA002200236F
:10A6200000F086FE0028F0D0BBF1000FA4BF4FF071
:10A630000008C446EADA2BF000484FF0000C48EA64
:10A640000A08CBF6F07CB8F1000F08BFDC4618BF53
:10A650004FF00008DAE7142C09D0C6F586634FF0F6
:10A660000108033308FA03F818EB0A08CAD30CF1FF
:10A67000010C28EA0508C9E74FF4801353FA04F4E3
:10A68000A4448FE7AFF300809C7500883CE4377EDC
:10A690000B4650EA030110B402D1022010BC7047EF
:10A6A000D0F1010238BF0022B3F1004F14BF0021E6
:10A6B00002F001010029F0D14FF6FF71A3F58010DF
:10A6C000C7F6DF7103F1FE44884204F570048CBFC5
:10A6D000002001208C428CBF014640F00101042083
:10A6E0000029DBD1B3F5801F03F100402CBF00210E
:10A6F0000121B0F5801F38BF41F0010109B10320ED
:10A70000CCE713F5801FC7F6F07114BF00200120BD
:10A710008B4214BF034640F0010302EA0300BDE789
:10A720000020704700210020C7F6F871704700BF75
:10A730002DE9F843C1F30A5704460D4616460B4669
:10A74000002F2DD121F00043034325D00023002208
:10A75000C4F2503300F05CFB43F6B043CFF6FF7316
:10A760009E4204460D463EDBC1F30A5740F2FE729C
:10A77000363F0B46BF199742C4BF22462B461BDD0E
:10A780002DA1D1E9000100F081F92BA3D3E9002329
:10A7900000F03EFB04460D4620462946BDE8F883FE
:10A7A00040F2FF72974229D040F2FE72BF199742E1
:10A7B000C4BF22462B46E3DC002FC2BF23F0FE437A
:10A7C00023F4700343EA0755E6DC17F1350F1FDA6F
:10A7D0004CF2503322469E422B46D1DC18A1D1E9DF
:10A7E000000100F053F916A3D3E9002300F010FB99
:10A7F00004460D4620462946BDE8F88302460B462E
:10A8000000F054F904460D4620462946BDE8F88379
:10A81000363723F0FE4323F47003204643EA0755FE
:10A82000002329460022C3F6904300F0F1FA0446C3
:10A830000D46B1E7AFF300809C7500883CE4377E9D
:10A8400059F3F8C21F6EA5012DE9F04120F0004533
:10A85000B5F1A14F044606460EDBB5F1FF4F00F3FC
:10A86000A480002840F6DB74C8BFC3F6C97440F367
:10A87000D9802046BDE8F0814FF6FF73C3F6DF6351
:10A880009D4200F3A780B5F1445FC0F295804FF080
:10A89000FF372146204600F0DBFE0146804600F0EF
:10A8A000D7FE46F6D711C3F68541054600F0D0FE27
:10A8B0004DF65921C3F64B5100F0C2FD294600F078
:10A8C000C7FE46F63531C3F6885100F0B9FD29467A
:10A8D00000F0BEFE42F66E61C3F6BA5100F0B0FD64
:10A8E000294600F0B5FE44F62511C3F6126100F0CA
:10A8F000A7FD294600F0ACFE4AF6AB21C3F6AA61DB
:10A9000000F09EFD414600F0A3FE4AF22121CBF665
:10A9100015518046284600F09BFE4FF26B11C3F69E
:10A920006E5100F08BFD294600F092FE48F29571C1
:10A93000C3F69D5100F082FD294600F089FE48F6DD
:10A940003861C3F6E35100F079FD294600F080FE3E
:10A950004CF6CD41C3F64C6100F070FD294600F085
:10A9600077FE7B1C014651D04AF65005404600F068
:10A9700067FDC0F60105214600F06AFE05EB87037E
:10A98000196900F05BFD214600F058FD014655F8BD
:10A99000270000F053FD002EB8BF00F10044FFF681
:10A9A00068AF04462046BDE8F081014600F048FD4E
:10A9B00004462046BDE8F0814FF2CA21C7F2491192
:10A9C00000F03EFD4FF07E5100F0FEFF00283FF406
:10A9D0005EAF4EE700F056F84FF6FF73C3F697737D
:10A9E0009D424FF6FF7304461FDCC3F62F739D4252
:10A9F0003DDC0146002700F023FD4FF07E5100F0C2
:10AA00001DFD4FF08041054620461FE0404600F006
:10AA100017FD214600F01CFE0146204600F00EFD09
:10AA2000044626E7CBF6C97423E7C4F21B039D4214
:10AA300014DC4FF07F51022700F000FD4FF07F51F2
:10AA40000546204600F004FE4FF07E5100F0F8FC71
:10AA50000146284600F0B0FE04461AE700202146D1
:10AA6000CBF68070032700F0A7FE044611E74FF0F5
:10AA70007E51012700F0E2FC4FF07E510546204652
:10AA8000E4E700BF20F00040704700BF03F0004340
:10AA900021F0004230B443EA020130BC704700BFED
:10AAA00081F0004102E000BF83F0004330B54FEA7F
:10AAB00041044FEA430594EA050F08BF90EA020FEC
:10AAC0001FBF54EA000C55EA020C7FEA645C7FEA7F
:10AAD000655C00F0E2804FEA5454D4EB5555B8BFA2
:10AAE0006D420CDD2C4480EA020281EA030382EA13
:10AAF000000083EA010180EA020281EA0303362DA5
:10AB000088BF30BD11F0004F4FEA01314FF4801C77
:10AB10004CEA113102D0404261EB410113F0004F89
:10AB20004FEA03334CEA133302D0524263EB430340
:10AB300094EA050F00F0A780A4F10104D5F1200EDE
:10AB40000DDB02FA0EFC22FA05F2801841F1000139
:10AB500003FA0EF2801843FA05F359410EE0A5F10D
:10AB600020050EF1200E012A03FA0EFC28BF4CF03E
:10AB7000020C43FA05F3C01851EBE37101F00045F4
:10AB800007D54FF0000EDCF1000C7EEB00006EEB01
:10AB90000101B1F5801F1BD3B1F5001F0CD349088B
:10ABA0005FEA30004FEA3C0C04F101044FEA4452E2
:10ABB00012F5800F80F09A80BCF1004F08BF5FEA69
:10ABC000500C50F1000041EB045141EA050130BD49
:10ABD0005FEA4C0C404141EB010111F4801FA4F1EC
:10ABE0000104E9D191F0000F04BF01460020B1FA41
:10ABF00081F308BF2033A3F10B03B3F120020CDA79
:10AC00000C3208DD02F1140CC2F10C0201FA0CF056
:10AC100021FA02F10CE002F11402D8BFC2F1200CBB
:10AC200001FA02F120FA0CFCDCBF41EA0C01904071
:10AC3000E41AA2BF01EB0451294330BD6FEA0404BA
:10AC40001F3C1CDA0C340EDC04F11404C4F12002A5
:10AC500020FA04F001FA02F340EA030021FA04F3B7
:10AC600045EA030130BDC4F10C04C4F1200220FA0E
:10AC700002F001FA04F340EA0300294630BD21FA4C
:10AC800004F0294630BD94F0000F83F4801306BF12
:10AC900081F480110134013D4EE77FEA645C18BF06
:10ACA0007FEA655C29D094EA050F08BF90EA020F9D
:10ACB00005D054EA000C04BF1946104630BD91EA95
:10ACC000030F1EBF0021002030BD5FEA545C05D198
:10ACD0004000494128BF41F0004130BD14F58004D7
:10ACE0003CBF01F5801130BD01F0004545F0FE414B
:10ACF00041F470014FF0000030BD7FEA645C1ABF80
:10AD0000194610467FEA655C1CBF0B46024650EAB6
:10AD1000013406BF52EA033591EA030F41F40021E2
:10AD200030BD00BF90F0000F04BF0021704730B568
:10AD30004FF4806404F132044FF000054FF000013D
:10AD400050E700BF90F0000F04BF0021704730B5FE
:10AD50004FF4806404F1320410F0004548BF4042D3
:10AD60004FF000013EE700BF42004FEAE2014FEA28
:10AD700031014FEA02701FBF12F07F4393F07F4F03
:10AD800081F06051704792F0000F14BF93F07F4F35
:10AD9000704730B54FF4607401F0004521F0004178
:10ADA00020E700BF50EA010208BF704730B54FF0FE
:10ADB00000050AE050EA010208BF704730B511F003
:10ADC000004502D5404261EB41014FF4806404F13B
:10ADD00032045FEA915C3FF4DCAE4FF003025FEABD
:10ADE000DC0C18BF03325FEADC0C18BF033202EB45
:10ADF000DC02C2F1200300FA03FC20FA02F001FA9F
:10AE000003FE40EA0E0021FA02F11444C1E600BF3D
:10AE100070B54FF0FF0C4CF4E06C1CEA11541DBFF0
:10AE20001CEA135594EA0C0F95EA0C0F00F0DEF8BB
:10AE30002C4481EA030621EA4C5123EA4C5350EAA0
:10AE4000013518BF52EA033541F4801143F48013F1
:10AE500038D0A0FB02CE4FF00005E1FB02E506F082
:10AE60000042E0FB03E54FF00006E1FB03569CF0D7
:10AE7000000F18BF4EF0010EA4F1FF04B6F5007FDD
:10AE800064F5407404D25FEA4E0E6D4146EB06064F
:10AE900042EAC62141EA55514FEAC52040EA5E50D8
:10AEA0004FEACE2EB4F1FD0C88BFBCF5E06F1ED882
:10AEB000BEF1004F08BF5FEA500E50F1000041EBB9
:10AEC000045170BD06F0004646EA010140EA020066
:10AED00081EA0301B4EB5C04C2BFD4EB0C0541EA88
:10AEE000045170BD41F480114FF0000E013C00F39D
:10AEF000AB8014F1360FDEBF002001F0004170BDC1
:10AF0000C4F10004203C35DA0C341BDC04F11404D9
:10AF1000C4F1200500FA05F320FA04F001FA05F265
:10AF200040EA020001F0004221F0004110EBD37032
:10AF300021FA04F642EB06015EEA430E08BF20EA5E
:10AF4000D37070BDC4F10C04C4F1200500FA04F301
:10AF500020FA05F001FA04F240EA020001F0004193
:10AF600010EBD37041F100015EEA430E08BF20EA06
:10AF7000D37070BDC4F1200500FA05F24EEA020E4E
:10AF800020FA04F301FA05F243EA020321FA04F07D
:10AF900001F0004121FA04F220EA020000EBD37034
:10AFA0005EEA430E08BF20EAD37070BD94F0000F34
:10AFB0000FD101F00046400041EB010111F4801F68
:10AFC00008BF013CF7D041EA060195F0000F18BF19
:10AFD000704703F00046520043EB030313F4801F55
:10AFE00008BF013DF7D043EA0603704794EA0C0F0F
:10AFF0000CEA135518BF95EA0C0F0CD050EA410625
:10B0000018BF52EA4306D1D181EA030101F00041A1
:10B010004FF0000070BD50EA410606BF10461946C9
:10B0200052EA430619D094EA0C0F02D150EA0136D5
:10B0300013D195EA0C0F05D152EA03361CBF104616
:10B0400019460AD181EA030101F0004141F0FE41B5
:10B0500041F470014FF0000070BD41F0FE4141F439
:10B06000780170BD70B54FF0FF0C4CF4E06C1CEA39
:10B0700011541DBF1CEA135594EA0C0F95EA0C0FEE
:10B0800000F0A7F8A4EB050481EA030E52EA0335A9
:10B090004FEA013100F088804FEA03334FF08055CA
:10B0A00045EA131343EA12634FEA022245EA1115F7
:10B0B00045EA10654FEA00260EF000419D4208BFA8
:10B0C000964244F1FD0404F5407402D25B084FEA55
:10B0D0003202B61A65EB03055B084FEA32024FF401
:10B0E00080104FF4002CB6EB020E75EB030E22BF5E
:10B0F000B61A754640EA0C005B084FEA3202B6EB1E
:10B10000020E75EB030E22BFB61A754640EA5C00CC
:10B110005B084FEA3202B6EB020E75EB030E22BF5C
:10B12000B61A754640EA9C005B084FEA3202B6EB5D
:10B13000020E75EB030E22BFB61A754640EADC001C
:10B1400055EA060E18D04FEA051545EA16754FEA7E
:10B1500006164FEAC30343EA52734FEAC2025FEA9C
:10B160001C1CC0D111F4801F0BD141EA00014FF02B
:10B1700000004FF0004CB6E711F4801F04BF0143FC
:10B180000020B4F1FD0C88BFBCF5E06F3FF6AFAE18
:10B19000B5EB030C04BFB6EB020C5FEA500C50F1A8
:10B1A000000041EB045170BD0EF0004E4EEA11312B
:10B1B00014EB5C04C2BFD4EB0C0541EA045170BD32
:10B1C00041F480114FF0000E013C90E645EA060E76
:10B1D0008DE60CEA135594EA0C0F08BF95EA0C0FA4
:10B1E0003FF43BAF94EA0C0F0AD150EA01347FF4EC
:10B1F00034AF95EA0C0F7FF425AF104619462CE7C3
:10B2000095EA0C0F06D152EA03353FF4FDAE104625
:10B21000194622E750EA410618BF52EA43067FF476
:10B22000C5AE50EA41047FF40DAF52EA43057FF406
:10B23000EBAE12E74FF0FF3C06E000BF4FF0010C11
:10B2400002E000BF4FF0010C4DF804CD4FEA410C75
:10B250007FEA6C5C4FEA430C18BF7FEA6C5C1BD042
:10B2600001B050EA410C0CBF52EA430C91EA030FC3
:10B2700002BF90EA020F0020704710F1000F91EA20
:10B28000030F58BF994208BF90422CBFD8176FEAEE
:10B29000E37040F0010070474FEA410C7FEA6C5CBC
:10B2A00002D150EA013C07D14FEA430C7FEA6C5CC3
:10B2B000D6D152EA033CD3D05DF8040B704700BFEF
:10B2C0008446104662468C461946634600E000BF3D
:10B2D00001B5FFF7B7FF002848BF10F1000F01BD0F
:10B2E0004DF808EDFFF7F4FF0CBF012000205DF8DA
:10B2F00008FB00BF4DF808EDFFF7EAFF34BF01205F
:10B3000000205DF808FB00BF4DF808EDFFF7E0FFF7
:10B3100094BF012000205DF808FB00BF4DF808ED48
:10B32000FFF7CEFF94BF012000205DF808FB00BFAF
:10B330004DF808EDFFF7C4FF34BF012000205DF891
:10B3400008FB00BF4FEA410212F5001215D211D5D9
:10B350006FF47873B3EB625212D94FEAC12343F012
:10B36000004343EA505311F0004F23FA02F018BF94
:10B37000404270474FF00000704750EA013005D15D
:10B3800011F0004008BF6FF0004070474FF0000020
:10B39000704700BF4FEA4102B2F1E04324BFB3F56A
:10B3A000001CDCF1FE5C0DD901F0004C4FEAC0023C
:10B3B0004CEA5070B2F1004F40EB830008BF20F020
:10B3C0000100704711F0804F21D113F13872BCBFDA
:10B3D00001F00040704741F480114FEA5252C2F12F
:10B3E0001802C2F1200C10FA0CF320FA02F018BF78
:10B3F00040F001004FEAC1234FEAD32303FA0CFCCB
:10B4000040EA0C0023FA02F34FEA4303CCE77FEA59
:10B41000625307D150EA01331EBF4FF0FE4040F4A3
:10B420004000704701F0004040F0FE4040F4000052
:10B43000704700BF80F0004002E000BF81F0004193
:10B4400042001FBF5FEA410392EA030F7FEA226CCA
:10B450007FEA236C6AD04FEA1262D2EB1363C1BF5A
:10B46000D218414048404140B8BF5B42192B88BFC9
:10B47000704710F0004F40F4000020F07F4018BFEC
:10B48000404211F0004F41F4000121F07F4118BF0C
:10B49000494292EA030F3FD0A2F1010241FA03FCB4
:10B4A00010EB0C00C3F1200301FA03F100F000439C
:10B4B00002D5494260EB4000B0F5000F13D3B0F164
:10B4C000807F06D340084FEA310102F10102FE2AD3
:10B4D00051D2B1F1004F40EBC25008BF20F0010043
:10B4E00040EA03007047490040EB000010F4000FF1
:10B4F000A2F10102EDD1B0FA80FCACF1080CB2EB84
:10B500000C0200FA0CF0AABF00EBC25052421843E2
:10B51000BCBFD0401843704792F0000F81F4000187
:10B5200006BF80F400000132013BB5E74FEA41035A
:10B530007FEA226C18BF7FEA236C21D092EA030FC6
:10B5400004D092F0000F08BF0846704790EA010F40
:10B550001CBF0020704712F07F4F04D1400028BF6D
:10B5600040F00040704712F100723CBF00F500004F
:10B57000704700F0004343F0FE4040F40000704785
:10B580007FEA226216BF08467FEA23630146420231
:10B5900006BF5FEA412390EA010F40F48000704744
:10B5A0004FF0000304E000BF10F0004348BF4042EA
:10B5B0005FEA000C08BF704743F0964301464FF026
:10B5C00000001CE050EA010208BF70474FF0000382
:10B5D0000AE000BF50EA010208BF704711F00043C3
:10B5E00002D5404261EB41015FEA010C02BF844693
:10B5F0000146002043F0B64308BFA3F18053A3F5F2
:10B600000003BCFA8CF2083AA3EBC25310DB01FA38
:10B6100002FC634400FA02FCC2F12002BCF1004FBC
:10B6200020FA02F243EB020008BF20F0010070474D
:10B6300002F1200201FA02FCC2F1200250EA4C00A1
:10B6400021FA02F243EB020008BF20EADC707047E7
:10B650004FF0FF0C1CEAD0521EBF1CEAD15392EAF5
:10B660000C0F93EA0C0F6FD01A4480EA010C4002D1
:10B6700018BF5FEA41211ED04FF0006343EA50102B
:10B6800043EA5111A0FB01310CF00040B1F5000F6D
:10B690003EBF490041EAD3715B0040EA010062F11C
:10B6A0007F02FD2A1DD8B3F1004F40EBC25008BF06
:10B6B00020F00100704790F0000F0CF0004C08BF24
:10B6C00049024CEA502040EA51207F3AC2BFD2F1F1
:10B6D000FF0340EAC250704740F400004FF00003FF
:10B6E000013A5DDC12F1190FDCBF00F00040704739
:10B6F000C2F10002410021FA02F1C2F1200200FA77
:10B7000002FC5FEA310040F1000053EA4C0308BF3D
:10B7100020EADC70704792F0000F00F0004C02BF8E
:10B72000400010F4000F013AF9D040EA0C0093F009
:10B73000000F01F0004C02BF490011F4000F013B63
:10B74000F9D041EA0C018FE70CEAD15392EA0C0FD1
:10B7500018BF93EA0C0F0AD030F0004C18BF31F03C
:10B76000004CD8D180EA010000F00040704790F012
:10B77000000F17BF90F0004F084691F0000F91F0B6
:10B78000004F14D092EA0C0F01D142020FD193EA7C
:10B790000C0F03D14B0218BF084608D180EA010004
:10B7A00000F0004040F0FE4040F40000704740F0E0
:10B7B000FE4040F4400070474FF0FF0C1CEAD052AE
:10B7C0001EBF1CEAD15392EA0C0F93EA0C0F69D00A
:10B7D000A2EB030280EA010C49024FEA402037D075
:10B7E0004FF0805343EA111143EA10130CF000406C
:10B7F0008B4238BF5B0042F17D024FF4000C8B425C
:10B8000024BF5B1A40EA0C00B3EB510F24BFA3EB3B
:10B81000510340EA5C00B3EB910F24BFA3EB91030B
:10B8200040EA9C00B3EBD10F24BFA3EBD10340EA65
:10B83000DC001B0118BF5FEA1C1CE0D1FD2A3FF6AB
:10B8400050AF8B4240EBC25008BF20F00100704760
:10B850000CF0004C4CEA50207F32C2BFD2F1FF0303
:10B8600040EAC250704740F400004FF00003013A34
:10B8700037E792F0000F00F0004C02BF400010F4D8
:10B88000000F013AF9D040EA0C0093F0000F01F0EC
:10B89000004C02BF490011F4000F013BF9D041EA0E
:10B8A0000C0195E70CEAD15392EA0C0F08D1420241
:10B8B0007FF47DAF93EA0C0F7FF470AF084676E714
:10B8C00093EA0C0F04D14B023FF44CAF08466EE7ED
:10B8D00030F0004C18BF31F0004CCAD130F00042BB
:10B8E0007FF45CAF31F000437FF43CAF5FE700BF13
:10B8F0004FF0FF3C06E000BF4FF0010C02E000BF3C
:10B900004FF0010C4DF804CD4FEA40024FEA4103DD
:10B910007FEA226C18BF7FEA236C11D001B052EA93
:10B92000530C18BF90EA010F58BFB2EB030088BF59
:10B93000C81738BF6FEAE17018BF40F001007047C8
:10B940007FEA226C02D15FEA402C05D17FEA236CAA
:10B95000E4D15FEA412CE1D05DF8040B704700BFF1
:10B96000844608466146FFE70FB5FFF7C9FF002888
:10B9700048BF10F1000F0FBD4DF808EDFFF7F4FFC1
:10B980000CBF012000205DF808FB00BF4DF808ED5A
:10B99000FFF7EAFF34BF012000205DF808FB00BF7D
:10B9A0004DF808EDFFF7E0FF94BF012000205DF89F
:10B9B00008FB00BF4DF808EDFFF7D2FF94BF012050
:10B9C00000205DF808FB00BF4DF808EDFFF7C8FF49
:10B9D00034BF012000205DF808FB00BF40F20403E3
:10B9E000C2F200031868704770B54AF6F8464AF686
:10B9F000F845C0F60106C0F60105761BB61006D064
:10BA0000002455F8043B01349847A642F9D14AF680
:10BA1000FC464AF6F845C0F60106C0F60105761B5D
:10BA20000FF05EF9B61006D0002455F8043B01343F
:10BA30009847A642F9D170BD032A2DE9F00109D833
:10BA40002AB10023CC5CC45401339342FAD1BDE83F
:10BA5000F001704785070244034605D011F8014BF9
:10BA600003F8014B9C07F9D111F0030542D0D41A19
:10BA70006E42032C8F5912DDC5F1040CED004FEA24
:10BA8000CC0C043127FA05F88C59274604FA0CF43B
:10BA900044EA080443F8044BD41A032CF1DC9A421C
:10BAA000D5D900228D5C9D540132A242FAD1CEE755
:10BAB0000C681C604C685C608C689C60CC68DC60C6
:10BAC0000C691C614C695C618C699C61CC69DC61AE
:10BAD0000C6A1C624C6A5C628C6A9C62CC6ADC6296
:10BAE0000C6B1C634C6B5C638C6B9C63CC6B40314C
:10BAF000DC634033D41A3F2CDADC0AE00C681C60AB
:10BB00004C685C608C689C60CC681031DC601033E1
:10BB1000D41A0F2CF2DC04E051F8044B43F8044B28
:10BB2000D41A032CF8DCBAE7032AC9B270B407D8D8
:10BB300022B10023C15401339342FBD170BC704742
:10BB400085070244034603D003F8011B9C07FBD181
:10BB50000C02D51A641826043F2D34441ADD1C60EB
:10BB60005C609C60DC601C615C619C61DC611C62EF
:10BB70005C629C62DC621C635C639C63DC634033DC
:10BB8000D51A3F2DEBDC05E01C605C609C60DC603E
:10BB90001033D51A0F2DF7DC02E043F8044BD51A09
:10BBA000032DFADC9342C9D203F8011B9342FBD167
:10BBB000C4E700BF40F0BE61024B41F42020D860D2
:10BBC000704700BF00ED00E0C37810B52BB3184AF2
:10BBD000D4684278E14301F4E0631B0AC3F1040C2A
:10BBE0005FFA8CF412FA04F10F2454FA03F2847809
:10BBF00090F800C0C9B202EA040343EA01020D4B07
:10BC00000CEB0301120181F800230378012203F0F9
:10BC10001F00590912FA00F306E0027801235109C6
:10BC200002F01F0083402031024840F8213010BD4F
:10BC300000ED00E000E100E043680A6830B523F061
:10BC4000407424F480750B7945EA020C4CEA032415
:10BC5000CD680A694460846845EA02038D680A4A2F
:10BC600043EA050C04EA02034A794CEA030C4CEA65
:10BC700042038360097DC26A4B1E22F47002D9B26E
:10BC800042EA0153C36230BDFDF7FFC0002101232A
:10BC90000160017141718160C1600161037570478C
:10BCA000094A10B55368094C03EA040C90E81200E5
:10BCB00021438468C06841EA040343EA000141EA81
:10BCC0000C03536010BD00BF00230140E030FCFFB7
:10BCD0000023036043608360C3607047836811B1D1
:10BCE00043F0010301E023F0010383607047092959
:10BCF00070B54FEA41040BD964181E3CC66807258D
:10BD0000A54026EA0505A34045EA0304C4600AE00D
:10BD1000066964180725A54026EA050513FA04F408
:10BD200045EA04030361062A0CD8013A02EB8202B9
:10BD3000446B1F23934024EA030C91404CEA010218
:10BD4000426370BD0C2A4FEA82030CD89A18046B28
:10BD5000233A1F23934024EA030C11FA02F24CEA1F
:10BD60000201016370BD9A18C46A413A1F239340CF
:10BD700024EA030C11FA02F24CEA0201C16270BD1E
:10BD8000816841F0804383607047836811B143F458
:10BD9000807301E023F4807383607047836811B17E
:10BDA00043F4007301E023F40073836070470000E4
:10BDB000016821F00103036000212123016041603B
:10BDC0008160C160016143612C4B98421CD02C4BB7
:10BDD000984220D02B4B984225D02B4B98422AD00A
:10BDE0002A4B98422FD02A4B984233D0294B984265
:10BDF00037D0294B984204D14FF03D5243F8AC2C38
:10BE00007047264B984203D13D2043F8080C7047F9
:10BE1000234B984204D14FF4746143F8201C7047BF
:10BE2000204B984204D14FF4741243F8382C7047D9
:10BE30001D4B984204D14FF0746043F8500C70478A
:10BE40001A4B984203D11A4943F8641C7047194BA6
:10BE5000984203D1184A43F87C2C7047174B9842FC
:10BE600003D1174843F8940C7047164B984204BF0F
:10BE70004FF03D5243F8AC2C704700BF10600240B9
:10BE800028600240406002405860024070600240FA
:10BE900088600240A0600240B86002401064024026
:10BEA00028640240406402405864024070640240CA
:10BEB0003D00002088640240400F0020A064024042
:10BEC00000003D20B86402400268164B10B502EA3B
:10BED000030CCC680A684B6922438C691343CA6916
:10BEE00023430C6A1A434B6A22438C6A13434A6BFE
:10BEF00023438C6B1A4342EA040343EA0C020260B8
:10BF00004469CB6A24F007020C6B44EA030C0B690A
:10BF10004CEA0202426143604A688B688260C360F7
:10BF200010BD00BF3F801CF00023036043608360AE
:10BF3000C360036143618361C361036243628362DF
:10BF4000C3620363436383637047036811B143F0C3
:10BF5000010301E023F00103036070474160704773
:10BF6000406880B27047006800F0010070470B061F
:10BF700007D5436912B143F0800301E023F0800349
:10BF80004361802909D001F01E01036812B11943F1
:10BF90000160704723EA01020260704730B5074B29
:10BFA000074A084C084DA04288BF13460D4011F0C7
:10BFB000005F14BFDD609D6030BD00BF00600240C7
:10BFC000006402400F6402407D0F7D0F044B1A692C
:10BFD000002A03DA0349044859605860704700BFDB
:10BFE000003C024023016745AB89EFCD024B186945
:10BFF00040F000421A617047003C0240014BD8609B
:10C00000704700BF003C02400C4BDA68D0030ED4EE
:10C01000D868C1060DD4D96811F0EF0F0BD1DA68DA
:10C0200002F00203002B0CBF0820072070470120FC
:10C030007047052070470620704700BF003C024053
:10C0400007B508238DF80730FFF7DEFF8DF80700EE
:10C050009DF807000128F7D09DF807000EBD0000ED
:10C0600070B504460E46FFF7EBFF082813D10A4DC2
:10C070002A6922F440702861296941F400732B6118
:10C080002A6942F0010028612660FFF7D9FF29697B
:10C0900021F001032B6170BD003C024070B50446E5
:10C0A00041B1012908D0022914BF4FF440764FF462
:10C0B000007603E00E4601E04FF48076FFF7C0FF04
:10C0C00008281ED10F4D286920F440732B612A697E
:10C0D00016432E61296921F0F80028612B6943F08D
:10C0E000020214432C61296941F480302861FFF772
:10C0F000A7FF2B6923F002022A61296921F0F803C6
:10C100002B6170BD003C02402DE9F04100230F6817
:10C110001A460124944004EA0705A54231D10324BC
:10C1200006689C40E443264006600E79D0F800C0C3
:10C1300006FA03F8013EF6B248EA0C0C012EC0F8EC
:10C1400000C016D8866891F805C0264086608668CB
:10C150000CFA03FC4CEA06068660466826EA0506E9
:10C160008D794660466895401FFA85FC4CEA0605C5
:10C170004560C5682540C560CC79C5689C402C43A6
:10C18000C46001320233102AC3D1BDE8F08100231C
:10C190004FF6FF710160037143718371C371704782
:10C1A000036919420CBF00200120704701837047CA
:10C1B0004183704730B501F00705C9080831AB006D
:10C1C0000F2450F821509C4025EA040440F82140F7
:10C1D00050F8214012FA03F31C4340F8214030BDCF
:10C1E00008B5134B984207D14FF40010012100F01D
:10C1F0005FF94FF4001014E00E49884207D14FF464
:10C200008000012100F054F94FF4800009E00A4A4F
:10C2100090420BD14FF40000012100F049F94FF496
:10C2200000000021BDE8084000F042B908BD00BF91
:10C230000054004000580040005C0040F0B5838886
:10C2400023F03F02044685B01004060C68460D46F4
:10C2500000F0B6F82E490298B0FBF1F7BFB23E43AA
:10C26000A680B4F800C02CF001031A04110C294B6D
:10C270002A6821809A4209D85200B0FBF2F18BB2B1
:10C2800001372784032B98BF042322E0B5F806E08A
:10C290004BF6FF7CE64505D102EB4203B0FBF3F021
:10C2A00083B206E019235343B0FBF3F291B241F499
:10C2B00080431905080D08B943F001034FF4967245
:10C2C00057434FF47A7E97FBFEF7013743F4004360
:10C2D0002784A383B4F800E01FFA8EFC4CF0010120
:10C2E0002180208820F4806222F00A036889AA88CD
:10C2F00019040B0C40EA020E43EA0E012889AB89AF
:10C30000218040EA030CA4F808C005B0F0BD00BFCE
:10C3100040420F00A086010041F2883300210360F3
:10C320004BF6FF724FF480438180C28001814181CE
:10C3300083817047038819B19BB243F0010303E086
:10C3400023F0010211040B0C03807047038819B11C
:10C350009BB243F4807303E023F4807211040B0C4E
:10C3600003807047038819B19BB243F4007303E064
:10C3700023F4007211040B0C0380704712B141F0DA
:10C38000010101E001F0FE0101827047038819B14B
:10C390009BB243F4806303E023F4806211040B0C2E
:10C3A0000380704701827047008AC0B2704783885B
:10C3B0009BB20AB1194301E023EA01018180704771
:10C3C000254B9A6802F00C02042A10B503D0082A03
:10C3D00003D0224B24E0224B22E05C6859686202C1
:10C3E00001F03F010AD55A681D4B47F6C07C02EAAE
:10C3F0000C04A209B3FBF1F3534309E05A6847F672
:10C40000C07402EA0403154C9B09B4FBF1F14B43E1
:10C41000114C616801F44032D40BA11CB3FBF1F361
:10C420000D4903608C6804F0F00213090D4A04689A
:10C43000D35C34FA03F343608C6804F4E054A40A38
:10C44000145D33FA04F48460896801F46041490B97
:10C45000525CD340C36010BD003802400024F40099
:10C4600000127A00F8000020044B1A6B09B1104347
:10C4700001E022EA00001863704700BF0038024064
:10C48000044B1A6C09B1104301E022EA0000186461
:10C49000704700BF00380240044B5A6C09B110438A
:10C4A00001E022EA00005864704700BF00380240F3
:10C4B000044B1A6A09B1104301E022EA0000186235
:10C4C000704700BF00380240044B5A6A09B110435C
:10C4D00001E022EA00005862704700BF00380240C5
:10C4E000024B586F40F080725A6770470038024024
:10C4F000038819B19BB243F0400303E023F04002EC
:10C5000011040B0C03807047B0F820C030B52CF03C
:10C5100001052C04250C0584048BB0F820C024F000
:10C52000F3052C04250C42EA05042CF00A0544EA24
:10C5300003142B041A0C42F001050D4304830584F7
:10C5400030BDB0F820C030B52CF010052C04250CFF
:10C550000584048BB0F820C024F440752C05250D0B
:10C5600045EA02242CF0A00544EA03342B041A0CFB
:10C5700042F0100545EA01150483058430BD000032
:10C5800008B5474B984205D101200146FFF79CFFB3
:10C5900001203DE0B0F1804F05D101200146FFF7B9
:10C5A00087FF012076E03F49884205D10220012122
:10C5B000FFF77EFF02206DE03B4A904205D1042048
:10C5C0000121FFF775FF042064E0384B984205D144
:10C5D00008200121FFF76CFF08205BE03449884206
:10C5E00005D110200121FFF763FF102052E0314AEE
:10C5F000904205D120200121FFF75AFF202049E079
:10C600002D4B984209D102200121FFF75DFF022046
:10C610000021BDE80840FFF757BF2849884207D1ED
:10C620004FF480300121FFF74FFF4FF48030EFE7E8
:10C63000234A904207D14FF400300121FFF744FF15
:10C640004FF40030E4E71F4B984207D14FF48020AD
:10C650000121FFF739FF4FF48020D9E71A498842BA
:10C6600005D140200121FFF723FF402012E0174AA7
:10C67000904205D180200121FFF71AFF802009E0B8
:10C68000134B98420BD14FF480700121FFF710FF3C
:10C690004FF480700021BDE80840FFF709BF08BDD6
:10C6A000000001400004004000080040000C004071
:10C6B0000010004000140040000401400040014010
:10C6C000004401400048014000180040001C0040A8
:10C6D000002000401B4A038890420ED01A4A904224
:10C6E0000BD0B0F1804F08D0184A904205D0184ABC
:10C6F000904202D0174A904206D14FF68F7203EA59
:10C70000020C4B884CEA0303134A904209D0134AA7
:10C71000904206D04FF6FF4203EA020C0B894CEA26
:10C72000030303804B680A88C362064B0285984264
:10C7300002D0054A904201D1897A01860123838281
:10C74000704700BF000001400004014000040040A9
:10C7500000080040000C00400010004000140040A1
:10C7600000234FF0FF3141600380038143808372D7
:10C770007047038819B19BB243F0010303E023F033
:10C78000010211040B0C038070470000028CB1F809
:10C790000CC022F0010370B51E04340C0484068C16
:10C7A0008488058B25F0730213041A0C26F002030B
:10C7B0001E04330C0D884E882A4346EA0C051FFAE6
:10C7C00085FC134DA8424CEA030302D0114DA84248
:10C7D00018D14FF6F77603EA0605CB894FF6FB76BC
:10C7E00045EA030C8B880CEA06063343B1F810C007
:10C7F0004E8A4FF6FF45254046EA0C041FFA84FC9A
:10C800004CEA05048968848002834163038470BD17
:10C810000000014000040140B0F820C02CF01002DC
:10C8200030B515042C0C0484B0F820C08488038B28
:10C8300023F4E64215040B882A0C2CF0200542EA6A
:10C8400003222B048D89B1F802C01B0C43EA0513A7
:10C85000124DA84243EA0C1302D0114DA84217D141
:10C860004FF67F7503EA050CCB894CEA0315B1F846
:10C8700004C04FF6BF732B4043EA0C134FF2FF3551
:10C88000B1F810C025404C8A45EA8C0545EA84047D
:10C890008968848002838163038430BD0000014085
:10C8A00000040140B0F820C02CF4807230B51504AB
:10C8B0002C0C0484B0F820C08488838B23F073028E
:10C8C00015040B882A0C2CF400751A432B048D894F
:10C8D000B1F802C01B0C43EA0523134DA84243EAFA
:10C8E0000C2302D0114DA84217D14FF2FF7503EA75
:10C8F000050CCB894CEA0325B1F804C04FF6FF3391
:10C900002B4043EA0C234CF6FF75B1F810C02540CC
:10C910004C8A45EA0C1545EA0414896884808283B0
:10C92000C163038430BD00BF00000140000401402A
:10C93000B0F820C02CF4805230B515042C0C0484BF
:10C94000B0F820C08488838B23F4E64215040B885A
:10C950002A0C2CF4005542EA03222B048D89B1F8ED
:10C9600002C01B0C43EA0533094DA84243EA0C33CD
:10C9700002D0084DA84205D14BF6FF7525400C8A20
:10C9800045EA84148968848082830164038430BD0D
:10C9900000000140000401400023038043808380A5
:10C9A00083608381C3810382438270470023012215
:10C9B000038043808280C38003817047406B70474F
:10C9C000806B7047C06B7047006C7047028B22F021
:10C9D0000C031A04130C0383B0F818C01FFA8CF26E
:10C9E00041EA020303837047028B22F440631A0476
:10C9F000130C0383B0F818C01FFA8CF242EA01232B
:10CA000003837047828B22F00C031A04130C838378
:10CA1000B0F81CC01FFA8CF241EA0203838370470E
:10CA2000828B22F440631A04130C8383B0F81CC079
:10CA30001FFA8CF242EA0123838370472DE9F0410B
:10CA40000B880D4604464988AA8843B92B89FFF70D
:10CA50005BFDE9882046BDE8F041FFF7B7BF042B36
:10CA600008D12B89FFF76DFDE9882046BDE8F0412C
:10CA7000FFF7BABF082BB5F8088023D1038C23F445
:10CA800080764FEA06474FEA17430384868BB0F857
:10CA900020C026F0F3073B041E0C2CF4206346EA6A
:10CAA00008171E04360C46EA012CBFB21FFA8CF39D
:10CAB00043F480713A4382830184E988BDE8F04100
:10CAC000FFF7A0BF068C26F480531F043F0C078499
:10CAD000868BB0F820C026F440731E05360D46EA5A
:10CAE00002222CF4005342EA08385A04530C43EA59
:10CAF000013C1FFA8CF242F48051A0F81C800184A2
:10CB0000E988BDE8F041FFF78BBFB0F8443021B1B0
:10CB10006FEA43436FEA534301E059044B0CA0F81A
:10CB20004430704783899BB20AB1194301E023EA7C
:10CB3000010181817047038A828911EA030092B260
:10CB400003D011420CBF002001207047C94301826D
:10CB50007047000008B5234B984205D110200121F1
:10CB6000FFF7B2FC102037E01F49884207D14FF48D
:10CB700000300121FFF79CFC4FF4003009E01B4A14
:10CB800090420BD14FF480200121FFF791FC4FF42C
:10CB900080200021BDE80840FFF78ABC144B984272
:10CBA00007D14FF400200121FFF782FC4FF4002051
:10CBB000EFE71049884207D14FF480100121FFF7B9
:10CBC00077FC4FF48010E4E70B4A904209D1202013
:10CBD0000121FFF779FC20200021BDE80840FFF784
:10CBE00073BC08BD001001400044004000480040F4
:10CBF000004C0040005000400014014030B5B0F837
:10CC000010E02EF440521304CA881B0C1343038215
:10CC1000B0F80CC02CF4B05E2EF00C02B1F804C0D9
:10CC200013040A890D46498942EA0C0242EA010EC0
:10CC30001B0C1FFA8EFC4CEA03018181828A22F4CC
:10CC400040731904AA890B0C43EA020185B004461B
:10CC500081826846FFF7B4FB1C4B9C4202D01C4803
:10CC6000844201D1039B00E0029BA2890FFA82FC5F
:10CC70004FF01901BCF1000F2A6801FB03F101DA42
:10CC8000520000E092006423B1FBF2F1B1FBF3F239
:10CC90001201100903FB1011A0890FFA80FEBEF1EA
:10CCA000000F06DAC9003231B1FBF3F303F00703DA
:10CCB00005E009013231B1FBF3F000F00F0343EA64
:10CCC000020CA4F808C005B030BD00BF0010014040
:10CCD0000014014000234FF416510C2201608380A0
:10CCE000C3800381428183817047838919B19BB2DC
:10CCF00043F4005303E023F4005211040B0C83812E
:10CD00007047CA05D10D818070478188C805C00D64
:10CD10007047838A9BB20AB1194301E023EA0101FB
:10CD200081827047CBB210B55B09012401F01F016D
:10CD300014FA01F1A34201D10C3004E0022B01D11D
:10CD4000103000E0143003680AB1194301E023EA0F
:10CD50000101016010BD038819420CBF00200120B1
:10CD6000704710B5CCB20122640901F01F039A404C
:10CD7000012C01D1838903E0022C0CBF038A838A32
:10CD80009BB20088134082B243B1080A012313FA10
:10CD900000F111420CBF0020012010BD184610BD4B
:10CDA000034600689988FFF7FBB90368828809B1D8
:10CDB0001A8370475A837047036881885A694A40CA
:10CDC0005A61704713B504466846FFF7E0F9A38837
:10CDD000617AA07A227A00938DF806108DF8070008
:10CDE000022320688DF8042069468DF80530FFF78E
:10CDF0008BF91CBD13B504466846FFF7C8F9A38834
:10CE0000617AA07A009301228DF806108DF8070050
:10CE1000022320688DF8042069468DF80530FFF75D
:10CE200073F91CBD2DE9F043394D8BB00746002145
:10CE300006A80C22FEF778FE2E46002405E056F8E0
:10CE40002C0CFFF79DFB0134E4B22C36BC42F6D12A
:10CE500006A8FFF785FC01A8FFF79EFD2D48FFF708
:10CE6000A5FD0222012106A88DF825208DF82610A7
:10CE7000FFF776FC4FF6FF7053230790ADF818309C
:10CE8000002632E04FF02C03DFF88C8003FB06F91C
:10CE900009EB08042046FFF795FF227E59F80800A9
:10CEA000E188FFF787F994F81C900AA84FF0010871
:10CEB00000F8049DDFF85C908DF82780FEF784FE73
:10CEC00006A9E068FFF706FC4846FFF76FFDB4F8D7
:10CED00010C0E068A9F800C04946FFF7AFFDE06860
:10CEE000618A4246FFF71EFE4644F0B2B842C9D3FB
:10CEF000002406E0012155F82C0CFFF73AFC611CD8
:10CF0000CCB22C35BC42F5D10BB0BDE8F08300BFEC
:10CF1000BC0300200C080020B003002073B53E4D78
:10CF20001C2404FB00546846FFF731F9208A0121D4
:10CF300002228DF8061000906946E0688DF8052001
:10CF40008DF80420FFF7E0F8238B606900936946B1
:10CF5000FFF7DAF8E068218AFFF728F96069218B8A
:10CF6000FFF724F901F020FE643086B208250CE0BA
:10CF70000A2001F00FFE01F017FEB04205D9274B41
:10CF8000197A41F00400187244E0E068218AFFF742
:10CF900007F90028ECD0218AE068FFF709F90A2098
:10CFA00001F0F8FDE068218AFFF700F90A2001F09E
:10CFB000F1FD6A1ED5B2002DE7D1218B6069FFF724
:10CFC000F7F80A2001F0E6FD218AE068FFF7F0F8A3
:10CFD0000A2001F0DFFD218AE068FFF7E7F80A2068
:10CFE00001F0D8FD6069218BFFF7E0F80221228A69
:10CFF0008DF805108DF804100123E0680092694651
:10D000008DF80630FFF780F8208B69460090606944
:10D01000FFF77AF87CBD00BF20070020216D0020BB
:10D0200070B51C22424305462448135C86B0141890
:10D03000002B40D0E068A17CE27EFFF7BBF8A17E28
:10D040006069E27EFFF7B6F82846FFF767FF1C49E4
:10D050000D7A05F0040575BB6068FFF7C1F801A8FB
:10D06000FFF75AF92A4660684FF44071FFF79FF9BD
:10D070001449606801910121FFF75CF901A960681A
:10D08000FFF7DCF84FF4A060FEF794FD01202222A8
:10D090008DF8170005A88DF814208DF815508DF81F
:10D0A0001650FEF791FD212305A88DF814308DF858
:10D0B0001550FEF789FD06B070BD00BF20070020A7
:10D0C000216D0020801A06002DE9F04188B0002172
:10D0D000142206466846FEF727FD6846FFF75CFC0B
:10D0E00001207021ADF8020002224FF4807305A8E0
:10D0F000ADF80010ADF80C20ADF810300025FFF7AA
:10D100002FFB44E04FF02C042D4F04FB05F808EBF7
:10D1100007042046FFF756FE58F80700E188227EF4
:10D12000FFF748F8E068274B984205D0264A90421E
:10D130000CBF0D23062300E00D23226AADF8143046
:10D1400005A9531E0693FFF7C5FA218D208A029187
:10D150000C281BD8DFE800F0071A1A1A0C1A1A1A42
:10D16000111A1A1A1600E0686946FFF70FFB0DE066
:10D17000E0686946FFF750FB08E0E0686946FFF7A2
:10D1800091FB03E0E0686946FFF7D2FB0135ECB2A2
:10D19000B442B7D300240CE009482C2505FB040554
:10D1A0000121E868FFF7E5FAE8680121FFF7ADFC27
:10D1B0000134E1B2B142EFD308B0BDE8F08100BF65
:10D1C00050010020000001400004014003287FB509
:10D1D0000E4617D0042802D10B4B196012E02C2503
:10D1E00045430A4C00212859FFF77FFD6846FFF7A9
:10D1F00071FD285900966946FFF700FD2859012165
:10D20000FFF773FD7FBD00BFE00700201005002081
:10D2100030B52C254543104C85B000212859FFF727
:10D2200064FD6846FFF756FD0C4A4FF480514FF4F9
:10D230000050ADF80410ADF806004FF48063285993
:10D2400000926946ADF80830FFF7D8FC2859012153
:10D25000FFF74BFD05B030BD10050020A086010092
:10D260002DE9F047614E2C2796B04743BC1905467F
:10D2700013A889464FF00208FEF789FF13A88DF81E
:10D280005180FEF784FFB4F810A0A1898DF850807A
:10D290004AEA010083B213A9A0681393FEF734FF92
:10D2A000A068E1892279FEF785FF618A2279A0686A
:10D2B000FEF780FF0FA8FFF70DFDA26AB8590F9285
:10D2C0000FA9FFF79BFC4A4B4A494B488DF8568003
:10D2D000002221F8152020F8152023F81520A37D21
:10D2E0004FF0010A8DF855A08DF857A0002B5FD0A4
:10D2F0006846FEF719FEBB594FF480301A1D4FF4F3
:10D3000080610A90606A019206910491FEF750FDD7
:10D31000B8594FF48072031D01930992606AFEF7B9
:10D3200022FE0028FAD1354BA1690390AA02009190
:10D33000D1180291606A6946FEF7C6FD606A012154
:10D34000FEF703FE40210122B859FFF7E2FC606AB4
:10D35000FEF706FEC0F5806229482A4B20F815200A
:10D3600094F8201023F8152016A800F8041DFEF7E5
:10D370002BFCE069FEF71CFDE069FEF7F4FD80463A
:10D380000028F9D1402309906946E0690393FEF72C
:10D390009BFDE0694146FEF7E1FDE06910210122B5
:10D3A000FEF7E5FDB85980210122FFF7B2FC13E03A
:10D3B000207D88B11248134920F81530627D21F88C
:10D3C000153016A800F8042DFEF7FEFBB85940F200
:10D3D00025515246FFF7A6FC0B4BB85903F80590B0
:10D3E0000121FFF782FC16B0BDE8F0871005002090
:10D3F0008C6B00207A6300207E6300208C63002009
:10D40000866300208263002078630020F0B5314EEF
:10D410009BB07069FEF7CCFC70692E4CFEF7A3FD43
:10D4200005460028F8D101A8FEF77EFD276806957D
:10D430004FF400614FF4005008910990216926488B
:10D4400001914C374FF480624FF48073029707923A
:10D4500006274FF40032039001A960690A930B92EA
:10D460000597FEF731FD01216069FEF76EFD16A8F4
:10D47000FEF72EFC16A8FEF713FC10A8FEF706FC1C
:10D48000012320688DF8453010A98DF844308DF8BF
:10D490005470FEF7D1FB1C20684333180135197B0B
:10D4A0001A7E30580B4C0223FEF721FC062DF2D1D8
:10D4B00020680121FEF772FC20680121FEF765FC5F
:10D4C00020680121FEF70AFC2068FEF759FC1BB01A
:10D4D000F0BD00BF080300208C10002038B5194BA8
:10D4E000194D1B7819491A4A13B1042B0FD107E0C3
:10D4F00001240A2028700C7014702046214613E085
:10D50000002406200C702870137008240EE00A24F2
:10D510002C7000240C7001200421032B117002D107
:10D52000FFF776FE02E00146FFF79AFE094B2878E6
:10D5300001221A70FFF7C8FD2046BDE83840FFF70A
:10D5400071BC00BFD807002091070020400D0020CB
:10D55000DC0700207863002037B501200146FEF784
:10D5600083FF02200121FEF77FFF04200121FEF747
:10D570007BFF01214FF48040FEF78EFF0120014622
:10D58000FEF78AFF01200146FEF77AFF0220012103
:10D59000FEF776FF04200121FEF772FF01214FF410
:10D5A0008070FEF779FF01214FF48000FEF768FFDD
:10D5B00001214FF48000FEF757FF3448FFF7CAFA05
:10D5C0003348FFF7C7FA10200121FEF765FF01215C
:10D5D0004FF40030FEF754FFFEF782FF6846FEF777
:10D5E000D6FD4FF6FF7003230090694629488DF859
:10D5F0000430FEF789FD28486946FEF785FD274877
:10D600006946FEF781FD4FF4A060FEF7D3FA0024CF
:10D61000234A2C2101FB04252846FFF7EBFB0134AC
:10D6200000212846FFF7C1FB0A2CF1D100241D4B35
:10D630002C2000FB04352846FFF7C4FB01340121F0
:10D640002846FFF7B2FB042CF1D10025164C2C2103
:10D6500001FB05400135FFF7B5FB062DF6D105F0BE
:10D660003DFD0020FFF7DCFC0120FFF7D9FC0A207C
:10D6700001F0A0FA00200121FFF7F2FD04F1B00053
:10D680000121FFF792FBFFF7C1FE3EBD00100140F4
:10D690000044004000000240000402400008024034
:10D6A000500100206805002018060020374BD3F8F1
:10D6B000882042F47001C3F88810354B186840F098
:10D6C00001021A6000229A60196821F0847C3149B5
:10D6D0002CF4803018605960186882B020F48021E2
:10D6E0001960DA6000920192186840F480321A6082
:10D6F000274B196801F400300190009A511C0091E9
:10D70000019818B9009AB2F5A06FF1D1196811F417
:10D71000003018BF01200190019B012B30D11C4B20
:10D720001A6C42F080511C4A1964106840F4804120
:10D730001160986898609A6842F40041996098680E
:10D74000164940F4A0529A605960186840F08072FF
:10D750001A600F4B18688201FBD5114A40F2056030
:10D760001060996821F0030098609A6842F0020105
:10D77000996007498B6803F00C0CBCF1080FF8D1D5
:10D78000024A4FF00060906002B0704700ED00E088
:10D790000038024010300024007000400854400758
:10D7A000003C0240052804D8034B33F8100080B237
:10D7B00070470020704700BF8C100020044B4FF4CE
:10D7C00000621A805A809A80DA801A815A817047E2
:10D7D0008C100020014B1860704700BFEC1C00202B
:10D7E0000D4BD3ED007AF5EEC07AF1EE10FA09D5C3
:10D7F0009FED0A7AF4EEC77AF1EE10FAD4BF00205A
:10D80000012070479FED060AF4EEC07AF1EE10FA9F
:10D8100054BF002001207047941C0020CDCCCCBE0A
:10D82000CDCCCC3E38B538482DED028B01F0CEF989
:10D8300008EE100A3548037813B935490B6800E043
:10D840000023344A344C13603448FFF7C3FF237875
:10D85000012B22462AD004D3022B4FF0000050D1D6
:10D860004DE02F4BD3ED007AF5EEC07AF1EE10FAD1
:10D8700009D5B9EE047AF4EEC77AF1EE10FAD4BF06
:10D880000020012008E0B1EE040AF4EEC07AF1EEC7
:10D8900010FA54BF00200120002832D0214940F660
:10D8A000B83C0120A1F800C0107026E0DFED1E0A90
:10D8B00068EE200AFDEEE07A17EE905AFFF790FF2F
:10D8C000184BB3F9002050B128B2121A22EAE275BF
:10D8D0001D802DB2002D0BDC0221217008E00220FA
:10D8E00015FB002540F6B83E7545A8BF75461D805E
:10D8F0000920B3F900100CF0B3F8002001E020700B
:10D900000120BDEC028B38BD24080020A15300206B
:10D91000845A0020C45A0020200800200000C8C2F9
:10D92000741C00201808002000007A44064A0021D8
:10D9300008B5116007F054FF05F031FC0348044AB4
:10D9400004230370137008BDC45A00209C100020EB
