:020000040800F2
:1000000000000220FDED020855E8010859E801084A
:1000100061E8010869E8010871E8010800000000D2
:1000200000000000000000000000000079E8010866
:100030007DE801080000000081E8010835E80108BA
:1000400045EE020845EE020845EE020845EE0208BC
:1000500045EE020845EE020845EE020845EE0208AC
:1000600045EE020845EE020845EE020845EE02089C
:1000700045EE020845EE0208CDE9010845EE02080A
:1000800045EE020885E9010845EE020845EE020842
:1000900045EE020845EE020845EE020845EE02086C
:1000A00045EE020845EE020845EE020845EE02085C
:1000B00085E80108CDE8010845EE02084DEA01088F
:1000C00045EA01085DEA010855EA010845EE020823
:1000D00045EE020821EA010829EA010831EA01088F
:1000E00045EE020845EE020845EE020845EE02081C
:1000F00045EE020845EE020845EE020845EE02080C
:1001000045EE020845EE020845EE020845EE0208FB
:1001100045EE020845EE020845EE020845EE0208EB
:1001200045EE020845EE0208E5E8010845EE020842
:1001300045EE020845EE020845EE020845EE0208CB
:1001400045EE020845EE020845EE020845EE0208BB
:1001500045EE020845EE02083DE9010845EE0208B9
:1001600045EE020845EE020845EE020845EE02089B
:1001700045EE020845EE020845EE020845EE02088B
:0801800045EE020845EE0208FD
:1080000010B5054C237833B9044B13B10448AFF3D2
:1080100000800123237010BDA80C00200000000088
:10802000C84C03080C4B43B10C480D4910B5AFF3D5
:1080300000800C48036823B910BD0A48036833B9AF
:108040007047094B002BF7D0BDE810401847064B8E
:10805000002BF5D0184700BF00000000C84C0308F3
:10806000AC0C0020A80C00200000000081F00041B2
:1080700002E000BF83F0004330B54FEA41044FEA0D
:10808000430594EA050F08BF90EA020F1FBF54EAA8
:10809000000C55EA020C7FEA645C7FEA655C00F044
:1080A000E2804FEA5454D4EB5555B8BF6D420CDD15
:1080B0002C4480EA020281EA030382EA000083EA98
:1080C000010180EA020281EA0303362D88BF30BD38
:1080D00011F0004F4FEA01314FF4801C4CEA11318E
:1080E00002D0404261EB410113F0004F4FEA0333ED
:1080F0004CEA133302D0524263EB430394EA050F78
:1081000000F0A780A4F10104D5F1200E0DDB02FAE6
:108110000EFC22FA05F2801841F1000103FA0EF27A
:10812000801843FA05F359410EE0A5F120050EF140
:10813000200E012A03FA0EFC28BF4CF0020C43FA71
:1081400005F3C01851EBE37101F0004507D54FF07E
:10815000000EDCF1000C7EEB00006EEB0101B1F5CE
:10816000801F1BD3B1F5001F0CD349085FEA300014
:108170004FEA3C0C04F101044FEA445212F5800F1F
:1081800080F09A80BCF1004F08BF5FEA500C50F1BC
:10819000000041EB045141EA050130BD5FEA4C0C9F
:1081A000404141EB010111F4801FA4F10104E9D128
:1081B00091F0000F04BF01460020B1FA81F308BF1F
:1081C0002033A3F10B03B3F120020CDA0C3208DDEB
:1081D00002F1140CC2F10C0201FA0CF021FA02F1C6
:1081E0000CE002F11402D8BFC2F1200C01FA02F136
:1081F00020FA0CFCDCBF41EA0C019040E41AA2BF5B
:1082000001EB0451294330BD6FEA04041F3C1CDA22
:108210000C340EDC04F11404C4F1200220FA04F042
:1082200001FA02F340EA030021FA04F345EA0301EC
:1082300030BDC4F10C04C4F1200220FA02F001FAAE
:1082400004F340EA0300294630BD21FA04F0294630
:1082500030BD94F0000F83F4801306BF81F48011C9
:108260000134013D4EE77FEA645C18BF7FEA655C3C
:1082700029D094EA050F08BF90EA020F05D054EA0E
:10828000000C04BF1946104630BD91EA030F1EBF13
:108290000021002030BD5FEA545C05D14000494117
:1082A00028BF41F0004130BD14F580043CBF01F50A
:1082B000801130BD01F0004545F0FE4141F47001F0
:1082C0004FF0000030BD7FEA645C1ABF19461046CB
:1082D0007FEA655C1CBF0B46024650EA013406BFCC
:1082E00052EA033591EA030F41F4002130BD00BF8B
:1082F00090F0000F04BF0021704730B54FF4806448
:1083000004F132044FF000054FF0000150E700BFC8
:1083100090F0000F04BF0021704730B54FF4806427
:1083200004F1320410F0004548BF40424FF0000114
:108330003EE700BF42004FEAE2014FEA31014FEA57
:1083400002701FBF12F07F4393F07F4F81F06051A6
:10835000704792F0000F14BF93F07F4F704730B515
:108360004FF4607401F0004521F0004120E700BFA8
:1083700050EA010208BF704730B54FF000050AE02F
:1083800050EA010208BF704730B511F0004502D530
:10839000404261EB41014FF4806404F132045FEA32
:1083A000915C3FF4DCAE4FF003025FEADC0C18BFD7
:1083B00003325FEADC0C18BF033202EBDC02C2F1CD
:1083C000200300FA03FC20FA02F001FA03FE40EA5F
:1083D0000E0021FA02F11444C1E600BF70B54FF05F
:1083E000FF0C4CF4E06C1CEA11541DBF1CEA135541
:1083F00094EA0C0F95EA0C0F00F0DEF82C4481EAA9
:10840000030621EA4C5123EA4C5350EA013518BFC8
:1084100052EA033541F4801143F4801338D0A0FBB5
:1084200002CE4FF00005E1FB02E506F00042E0FB62
:1084300003E54FF00006E1FB03569CF0000F18BF68
:108440004EF0010EA4F1FF04B6F5007F64F5407410
:1084500004D25FEA4E0E6D4146EB060642EAC621A3
:1084600041EA55514FEAC52040EA5E504FEACE2E10
:10847000B4F1FD0C88BFBCF5E06F1ED8BEF1004F13
:1084800008BF5FEA500E50F1000041EB045170BD8F
:1084900006F0004646EA010140EA020081EA0301D3
:1084A000B4EB5C04C2BFD4EB0C0541EA045170BDCF
:1084B00041F480114FF0000E013C00F3AB8014F149
:1084C000360FDEBF002001F0004170BDC4F1000492
:1084D000203C35DA0C341BDC04F11404C4F1200513
:1084E00000FA05F320FA04F001FA05F240EA02006E
:1084F00001F0004221F0004110EBD37021FA04F6A4
:1085000042EB06015EEA430E08BF20EAD37070BD5D
:10851000C4F10C04C4F1200500FA04F320FA05F0BC
:1085200001FA04F240EA020001F0004110EBD370BE
:1085300041F100015EEA430E08BF20EAD37070BD2E
:10854000C4F1200500FA05F24EEA020E20FA04F307
:1085500001FA05F243EA020321FA04F001F00041B6
:1085600021FA04F220EA020000EBD3705EEA430E27
:1085700008BF20EAD37070BD94F0000F0FD101F056
:108580000046400041EB010111F4801F08BF013C8F
:10859000F7D041EA060195F0000F18BF704703F0CD
:1085A0000046520043EB030313F4801F08BF013D54
:1085B000F7D043EA0603704794EA0C0F0CEA135510
:1085C00018BF95EA0C0F0CD050EA410618BF52EACA
:1085D0004306D1D181EA030101F000414FF00000D0
:1085E00070BD50EA410606BF1046194652EA4306DE
:1085F00019D094EA0C0F02D150EA013613D195EA52
:108600000C0F05D152EA03361CBF104619460AD199
:1086100081EA030101F0004141F0FE4141F47001A3
:108620004FF0000070BD41F0FE4141F4780170BD93
:1086300070B54FF0FF0C4CF4E06C1CEA11541DBFF8
:108640001CEA135594EA0C0F95EA0C0F00F0A7F8FA
:10865000A4EB050481EA030E52EA03354FEA013127
:1086600000F088804FEA03334FF0805545EA13133A
:1086700043EA12634FEA022245EA111545EA106502
:108680004FEA00260EF000419D4208BF964244F199
:10869000FD0404F5407402D25B084FEA3202B61AB8
:1086A00065EB03055B084FEA32024FF480104FF48C
:1086B000002CB6EB020E75EB030E22BFB61A754600
:1086C00040EA0C005B084FEA3202B6EB020E75EB93
:1086D000030E22BFB61A754640EA5C005B084FEAFB
:1086E0003202B6EB020E75EB030E22BFB61A7546C8
:1086F00040EA9C005B084FEA3202B6EB020E75EBD3
:10870000030E22BFB61A754640EADC0055EA060E93
:1087100018D04FEA051545EA16754FEA06164FEAD6
:10872000C30343EA52734FEAC2025FEA1C1CC0D182
:1087300011F4801F0BD141EA00014FF000004FF00F
:10874000004CB6E711F4801F04BF01430020B4F1D0
:10875000FD0C88BFBCF5E06F3FF6AFAEB5EB030C88
:1087600004BFB6EB020C5FEA500C50F1000041EB85
:10877000045170BD0EF0004E4EEA113114EB5C0452
:10878000C2BFD4EB0C0541EA045170BD41F4801125
:108790004FF0000E013C90E645EA060E8DE60CEA2D
:1087A000135594EA0C0F08BF95EA0C0F3FF43BAF4A
:1087B00094EA0C0F0AD150EA01347FF434AF95EA01
:1087C0000C0F7FF425AF104619462CE795EA0C0FE5
:1087D00006D152EA03353FF4FDAE1046194622E7B2
:1087E00050EA410618BF52EA43067FF4C5AE50EA8C
:1087F00041047FF40DAF52EA43057FF4EBAE12E77C
:108800004FF0FF3C06E000BF4FF0010C02E000BF5C
:108810004FF0010C4DF804CD4FEA410C7FEA6C5C3F
:108820004FEA430C18BF7FEA6C5C1BD001B050EAE2
:10883000410C0CBF52EA430C91EA030F02BF90EACD
:10884000020F0020704710F1000F91EA030F58BF8C
:10885000994208BF90422CBFD8176FEAE37040F0EE
:10886000010070474FEA410C7FEA6C5C02D150EA8C
:10887000013C07D14FEA430C7FEA6C5CD6D152EA47
:10888000033CD3D05DF8040B704700BF844610460C
:1088900062468C461946634600E000BF01B5FFF70B
:1088A000B7FF002848BF10F1000F01BD4DF808EDDB
:1088B000FFF7F4FF0CBF012000205DF808FB00BFAC
:1088C0004DF808EDFFF7EAFF34BF012000205DF806
:1088D00008FB00BF4DF808EDFFF7E0FF94BF012053
:1088E00000205DF808FB00BF4DF808EDFFF7CEFF54
:1088F00094BF012000205DF808FB00BF4DF808ED93
:10890000FFF7C4FF34BF012000205DF808FB00BF63
:108910004FEA410C7FEA6C5C02D150EA013C0AD17B
:108920004FEA430C7FEA6C5C02D152EA033C02D16D
:108930004FF0000070474FF0010070474FEA4102CE
:1089400012F5001215D211D56FF47873B3EB6252A1
:1089500012D94FEAC12343F0004343EA505311F0C8
:10896000004F23FA02F018BF404270474FF000005A
:10897000704750EA013005D111F0004008BF6FF098
:10898000004070474FF00000704700BF4FEA4102BF
:10899000B2F1E04324BFB3F5001CDCF1FE5C0DD95D
:1089A00001F0004C4FEAC0024CEA5070B2F1004FA7
:1089B00040EB830008BF20F00100704711F0804FAA
:1089C00021D113F13872BCBF01F00040704741F46F
:1089D00080114FEA5252C2F11802C2F1200C10FA73
:1089E0000CF320FA02F018BF40F001004FEAC12357
:1089F0004FEAD32303FA0CFC40EA0C0023FA02F3FB
:108A00004FEA4303CCE77FEA625307D150EA0133D0
:108A10001EBF4FF0FE4040F44000704701F00040A0
:108A200040F0FE4040F40000704700BF80F000407E
:108A300002E000BF81F0004142001FBF5FEA410336
:108A400092EA030F7FEA226C7FEA236C6AD04FEA36
:108A50001262D2EB1363C1BFD2184140484041407B
:108A6000B8BF5B42192B88BF704710F0004F40F42D
:108A7000000020F07F4018BF404211F0004F41F449
:108A8000000121F07F4118BF494292EA030F3FD015
:108A9000A2F1010241FA03FC10EB0C00C3F1200328
:108AA00001FA03F100F0004302D5494260EB4000B7
:108AB000B0F5000F13D3B0F1807F06D340084FEA22
:108AC000310102F10102FE2A51D2B1F1004F40EB17
:108AD000C25008BF20F0010040EA0300704749007F
:108AE00040EB000010F4000FA2F10102EDD1B0FA4A
:108AF00080FCACF1080CB2EB0C0200FA0CF0AABF3F
:108B000000EBC25052421843BCBFD04018437047DC
:108B100092F0000F81F4000106BF80F400000132E2
:108B2000013BB5E74FEA41037FEA226C18BF7FEAB9
:108B3000236C21D092EA030F04D092F0000F08BFFB
:108B40000846704790EA010F1CBF0020704712F0E2
:108B50007F4F04D1400028BF40F00040704712F121
:108B600000723CBF00F50000704700F0004343F086
:108B7000FE4040F4000070477FEA226216BF0846BC
:108B80007FEA23630146420206BF5FEA412390EA7F
:108B9000010F40F4800070474FF0000304E000BF75
:108BA00010F0004348BF40425FEA000C08BF704726
:108BB00043F0964301464FF000001CE050EA0102EA
:108BC00008BF70474FF000030AE000BF50EA0102FF
:108BD00008BF704711F0004302D5404261EB4101EC
:108BE0005FEA010C02BF84460146002043F0B64311
:108BF00008BFA3F18053A3F50003BCFA8CF2083A36
:108C0000A3EBC25310DB01FA02FC634400FA02FC3E
:108C1000C2F12002BCF1004F20FA02F243EB020045
:108C200008BF20F00100704702F1200201FA02FCA7
:108C3000C2F1200250EA4C0021FA02F243EB02009A
:108C400008BF20EADC707047844641EA000313F055
:108C500003036DD1403A41D351F8043B40F8043B43
:108C600051F8043B40F8043B51F8043B40F8043B06
:108C700051F8043B40F8043B51F8043B40F8043BF6
:108C800051F8043B40F8043B51F8043B40F8043BE6
:108C900051F8043B40F8043B51F8043B40F8043BD6
:108CA00051F8043B40F8043B51F8043B40F8043BC6
:108CB00051F8043B40F8043B51F8043B40F8043BB6
:108CC00051F8043B40F8043B51F8043B40F8043BA6
:108CD00051F8043B40F8043B403ABDD2303211D346
:108CE00051F8043B40F8043B51F8043B40F8043B86
:108CF00051F8043B40F8043B51F8043B40F8043B76
:108D0000103AEDD20C3205D351F8043B40F8043B45
:108D1000043AF9D2043208D0D2071CBF11F8013B43
:108D200000F8013B01D30B8803806046704700BF09
:108D3000082A13D38B078DD010F003038AD0C3F118
:108D40000403D21ADB071CBF11F8013B00F8013BFA
:108D500080D331F8023B20F8023B7BE7043AD9D3B9
:108D6000013A11F8013B00F8013BF9D20B7803708E
:108D70004B7843708B7883706046704740F0BF60DB
:108D8000024B40F40030D860704700BF00ED00E0B7
:108D9000C3785BB9037816485A09203203F01F03E1
:108DA000012101FA03F340F822307047114A70B4F0
:108DB000D2684378867801780D48D243C2F3022204
:108DC000C2F10405EDB20F24AB4044FA02F2324086
:108DD000DBB2134344181B0101F01F0501224909AE
:108DE000DBB2AA4084F8003370BC40F82120704701
:108DF00000E100E000ED00E042680B69F0B522F010
:108E0000407291F804E00E68CF688C680C4D22F433
:108E1000807242EA0E223243426086684A793B43BE
:108E2000354023432B4343EA420383600A7DC36AF0
:108E3000013AD2B223F4700343EA0253C362F0BD95
:108E4000FDF7FFC000230122027503600371437127
:108E50008360C360036170470749084A70B490E8B3
:108E600048004D688468C06833432A401343234355
:108E700003434B6070BC704700230140E030FCFFAF
:108E80000023036043608360C3607047836819B93F
:108E900023F001038360704743F001038360704750
:108EA000092970B41CD9A1F10A0404EB4404C56873
:108EB0000726A640A34025EA06042343062AC360EA
:108EC0001AD90C2A25D90D3A02EB8202C36A1F2453
:108ED0009440914023EA04021143C16270BC704780
:108EE00001EB410604690725B540B34024EA0504B7
:108EF0002343062A0361E4D8013A02EB8202436B62
:108F00001F249440914023EA04021143416370BC42
:108F10007047073A02EB8202036B1F249440914092
:108F200023EA04021143016370BC7047836843F075
:108F300080438360704700BF836819B923F480734E
:108F40008360704743F4807383607047836819B906
:108F500023F400738360704743F4007383607047A9
:108F600002683749002310B422F00102212488420C
:108F70000260036043608360C360036144614DD05D
:108F8000304B984235D0304B984239D02F4B9842D5
:108F90003DD02F4B984247D02E4B984248D02E4B75
:108FA00098421DD02D4B98421ED02D4B984243D055
:108FB0002C4B98421DD02C4B984221D02B4B9842E1
:108FC00025D02B4B98422FD02A4B984230D02A4B99
:108FD000984205D0294B984206D05DF8044B704763
:108FE000274A43F8942CF8E74FF03D5243F8AC2C55
:108FF000F3E74FF4746243F8202C5DF8044B70479C
:109000004FF4741243F8382C5DF8044B70474FF05E
:10901000746243F8502C5DF8044B7047194B5DF8AF
:10902000044B3D229A607047174A43F8642CD4E7FA
:10903000164A43F87C2CD0E73D2243F8082CCCE7B5
:1090400010600240286002404060024058600240C8
:109050007060024088600240A0600240B860024038
:109060001064024028640240406402405864024098
:109070007064024088640240A0640240B864024008
:1090800000003D20006002403D000020400F002015
:109090000B68CA69F0B4CE684D698C690F6A3343B6
:1090A0002B4323434E6A8D6A4C6B13433B4333433C
:1090B0008A6B07680B4E2B4323433E4013433343D5
:1090C000CD6A036042690B6B0E694C6889682B435B
:1090D00022F007021343436146608460C160F0BC24
:1090E000704700BF3F801CF0002303604360836033
:1090F000C360036143618361C3610362436283624E
:10910000C362036343638363704700BF036819B995
:1091100023F001030360704743F0010303607047CD
:1091200041607047406880B2704700BF006800F03F
:10913000010070470B060CD54369AAB143F08003C8
:10914000802943610FD0036801F01E0119430160BB
:109150007047802907D0002AF5D1036801F01E016D
:1091600023EA01010160704723F0800380294361F5
:10917000F3D1704730B4114B114D124A21F0F02455
:1091800024F0C314A84298BF1A469CB1006800EAB4
:10919000D12000F01E0388004CBF5068106821F0F9
:1091A000F02121F08211084002D0181C18BF0120C4
:1091B00030BC7047436903F08003ECE70060024075
:1091C0000F6402400064024010B4094B094C0A4A83
:1091D000A04294BF1846104611F0005F21F0F02124
:1091E00021F0821114BFC16081605DF8044B7047AB
:1091F000006002400F64024000640240044B1A69A0
:10920000002A03DA0349044A59605A60704700BFD4
:10921000003C024023016745AB89EFCD024A136948
:1092200043F0004313617047003C024010B483B028
:1092300039B101294BD002290CBF4FF400714FF412
:10924000407108225A4B8DF80620DA68D4033CD4CA
:10925000DA68D20626D505238DF806309DF806304B
:10926000012B15D1524A09E0D368DB0620D505232E
:109270008DF806309DF80630012B09D1D368DC0348
:10928000F2D501238DF806309DF80630012BF5D07C
:109290009DF80630DBB2082B23D0184603B05DF8EA
:1092A000044B7047DA6812F0EF0F13D00623D3E7B0
:1092B000D36813F0EF0F01D00623D9E7D36813F07A
:1092C000020F14BF07230823D2E70123C4E74FF49A
:1092D0008071B6E7DB6813F0020F14BF0723082381
:1092E000BAE7334A146924F44074146114692143C1
:1092F0001161116921F0F8011161116941F0020158
:1093000008431061116941F4803111618DF8073013
:10931000D368DC033DD4D368D8063CD505238DF84B
:1093200007309DF80730012B15D1214A09E0D36899
:10933000DB0621D505238DF807309DF80730012B7A
:1093400009D1D368D903F2D501238DF807309DF8F0
:109350000730012BF5D0164A9DF80730116921F02E
:10936000020111611169DBB221F0F80118461161A7
:1093700003B05DF8044B7047D36813F0EF0F01D0D2
:109380000623D8E7D36813F0020F14BF072308237E
:10939000D1E70123C3E7D36813F0EF0F01D0062311
:1093A000BDE7D36813F0020F14BF07230823B6E705
:1093B000003C024010B483B00822544B8DF80620C4
:1093C000DA68D4033CD4DA68D20626D505238DF8B2
:1093D00006309DF80630012B15D14C4A09E0D368C0
:1093E000DB0620D505238DF806309DF80630012BCD
:1093F00009D1D368DC03F2D501238DF806309DF83E
:109400000630012BF5D09DF80630DBB2082B20D0BA
:10941000184603B05DF8044B7047DA6812F0EF0F9E
:1094200010D00623D3E7D36813F0EF0F01D0062343
:10943000D9E7D36813F0020F14BF07230823D2E73C
:109440000123C4E7DB6813F0020F14BF07230823CE
:10945000BDE72E4A146924F440741461146944F47D
:1094600000741461146944F00104146101608DF802
:109470000730D368DC0339D4D368D80638D5052340
:109480008DF807309DF80730012B15D11F4A09E0F0
:10949000D368DB061DD505238DF807309DF807300E
:1094A000012B09D1D368D903F2D501238DF80730F8
:1094B0009DF80730012BF5D014499DF807300A6953
:1094C000DBB222F0010218460A6103B05DF8044BDA
:1094D0007047D36813F0EF0F01D00623DCE7D368A1
:1094E00013F0020F14BF07230823D5E70123C7E7B2
:1094F000D36813F0EF0F01D00623C1E7D36813F050
:10950000020F14BF07230823BAE700BF003C024044
:10951000014BD860704700BF003C024000222DE99B
:10952000F0471346D1F800E001274FF0030C04E0A8
:109530000133102B02F1020229D007FA03F434EAB6
:109540000E05F5D1D0F800800E790CFA02F5ED4346
:1095500008EA0508C0F80080D0F800A006FA02F971
:10956000013E49EA0A09012E0CFA02F8C0F80090FF
:109570000FD9C568CC7925EA0805C560C56894404F
:1095800001332C43102BC46002F10202D5D1BDE897
:10959000F087D0F808904E7905EA09058560D0F883
:1095A00008908D79964046EA09068660466826EA64
:1095B00004044460466805FA03F4A4B234434460EA
:1095C000D7E700BF4FF6FF72002380E80C0070471A
:1095D0000369194214BF01200020704701837047BE
:1095E00041837047CB0800EB830001F0070110B402
:1095F000036A89000F248C4023EA04030362036A90
:109600005DF8044B02FA01F119430162704700BF93
:1096100008B5174B984212D0164B98421BD0164BE8
:10962000984200D008BD01214FF4000000F06AF913
:1096300000214FF40000BDE8084000F063B90121AB
:109640004FF4001000F05EF900214FF40010BDE867
:10965000084000F057B901214FF4800000F052F9A2
:1096600000214FF48000BDE8084000F04BB900BF76
:109670000054004000580040005C0040F0B5044633
:1096800085B068460E46A58800F0D0F80298314AA9
:109690003368DFF8C8E0A2FB001225F03F05910C0B
:1096A0002D042D0C8FB23D43A580228822F00102AB
:1096B0001204120C7345228023D85B00B0FBF3F335
:1096C0009BB20137042B38BF04232784A38321884E
:1096D000B0887789B289358989B241F0010121804A
:1096E000238823F4816323F002031B0440EA07016B
:1096F0001B0C0B432A439BB292B22380228105B0FC
:10970000F0BDF5884BF6FF7295421DD003EB830345
:1097100003EB8303B0FBF3F39BB243F48043C3F347
:109720000B020AB943F001034FF496720A4802FB98
:1097300001F280FB0201D217C2EBA112013292B2F8
:1097400043F400432284C1E703EB4303B0FBF3F38C
:109750009BB2E4E783DE1B43D34D6210A086010079
:10976000002310B44BF6FF7141F288344FF480426D
:109770000460C18082818380038143815DF8044B52
:10978000704700BF038829B923F001031B041B0C99
:10979000038070479BB243F001030380704700BF12
:1097A000038829B923F480731B041B0C03807047C2
:1097B0009BB243F480730380704700BF038829B9CC
:1097C00023F400731B041B0C038070479BB243F40B
:1097D00000730380704700BF22B901F0FE0189B217
:1097E0000182704741F0010189B20182704700BFD8
:1097F000038829B923F480631B041B0C0380704782
:109800009BB243F480630380704700BF01827047BE
:10981000008AC0B2704700BF83889BB21AB923EA9E
:109820000101818070471943818070471F4A936806
:1098300003F00C03042B10B41BD0082B1CD01C4BC2
:1098400003601A4A1B499468C4F303140C5DE34097
:1098500043609468C4F382240C5D23FA04F48460AA
:1098600092685DF8044BC2F342328A5CD340C36015
:109870007047114B0360E4E7546851685268630213
:10988000C2F3881201F03F014CBF0B4B084BB3FBF6
:10989000F1F303FB02F3054A5268C2F301420132BD
:1098A0005200B3FBF2F30360CBE700BF0038024085
:1098B0000024F4000000002000127A00044A136B18
:1098C00019B923EA0000106370471843106370470A
:1098D00000380240044A136C19B923EA00001064EE
:1098E000704718431064704700380240044A536CB4
:1098F00019B923EA00005064704718435064704758
:1099000000380240044A136A19B923EA00001062C1
:10991000704718431062704700380240044A536A87
:1099200019B923EA0000506270471843506270472B
:1099300000380240024A536F43F080735367704708
:109940000038024008B5174B984212D0164B984287
:109950001BD0164B984200D008BD01214FF40040A7
:10996000FFF7D0FF00214FF40040BDE80840FFF7AB
:10997000C9BF01214FF48050FFF7D0FF00214FF401
:109980008050BDE80840FFF7C9BF01214FF4804077
:10999000FFF7B8FF00214FF48040BDE80840FFF713
:1099A000B1BF00BF0030014000380040003C004023
:1099B0000A884B88F0B48F88CD880C894E89134370
:1099C0003B432B4323438D89CC890288098A334347
:1099D0002B43234302F4415213439BB20380838BF6
:1099E00023F400631B041B0C8383F0BC01827047CB
:1099F000002307220282038043808380C380038187
:109A000043818381C3817047038829B923F04003D0
:109A10001B041B0C038070479BB243F04003038080
:109A2000704700BF808980B2704700BF038829B9A2
:109A300023F400531B041B0C038070479BB243F4B8
:109A400000530380704700BF0389194214BF0120EF
:109A50000020704708B5604B984235D0B0F1804F78
:109A60003CD05E4B984243D05D4B98424AD05D4B10
:109A7000984251D05C4B984258D05C4B98425FD092
:109A80005B4B984266D05B4B98426DD05A4B9842E4
:109A900076D05A4B98427FD0594B984200F088803C
:109AA000584B984200F08E80574B984200D008BD2A
:109AB00001214FF48070FFF725FF00214FF48070E3
:109AC000BDE80840FFF71EBF01210846FFF726FF4B
:109AD00000210120BDE80840FFF720BF0121084612
:109AE000FFF710FF00210120BDE80840FFF70ABF83
:109AF00001210220FFF706FF00210220BDE80840F7
:109B0000FFF700BF01210420FFF7FCFE0021042025
:109B1000BDE80840FFF7F6BE01210820FFF7F2FE7E
:109B200000210820BDE80840FFF7ECBE012110200D
:109B3000FFF7E8FE00211020BDE80840FFF7E2BE75
:109B400001212020FFF7DEFE00212020BDE8084093
:109B5000FFF7D8BE01210220FFF7E0FE002102201E
:109B6000BDE80840FFF7DABE01214FF48030FFF76F
:109B7000D5FE00214FF48030BDE80840FFF7CEBE8F
:109B800001214FF40030FFF7C9FE00214FF40030EF
:109B9000BDE80840FFF7C2BE01214FF48020FFF767
:109BA000BDFE00214FF48020BDE80840FFF7B6BE9F
:109BB00001214020FFF7A6FE00214020BDE808401B
:109BC000FFF7A0BE01218020FFF79CFE002180202E
:109BD000BDE80840FFF796BE0000014000040040C9
:109BE00000080040000C004000100040001400403D
:109BF0000004014000400140004401400048014091
:109C000000180040001C004000200040234A038848
:109C100090429BB212D002F5806290420ED0B0F119
:109C2000804F0BD0A2F58032904207D002F58062BF
:109C3000904203D002F58062904203D14A8823F01B
:109C400070031343164A90421FD002F5806290427F
:109C50001BD070B423F440730E894D680C8802F554
:109C60006C429BB2334390420380C562048506D0A8
:109C70000C4B984203D00123838270BC70478B7ACF
:109C800003860123838270BC704703800B884A6877
:109C9000C262038501238382704700BF0000014038
:109CA000001000400004014000234FF0FF324260EA
:109CB000038103608372704741627047038829B94A
:109CC00023F080031B041B0C038070479BB243F0FE
:109CD00080030380704700BF038829B923F0010384
:109CE0001B041B0C038070479BB243F001030380ED
:109CF000704700BFF0B5048C8F89B1F802E00E8880
:109D0000194D24F001042404240C0484038C848859
:109D1000028B23F002031B0422F073021B0C47EAA0
:109D20000E0712043B43120CA8429BB2A4B242EAB3
:109D3000060209D005F58065A84205D089688480AF
:109D4000028341630384F0BDCE890D8A4F8A23F0DC
:109D50000803334324F440748E883D4323F0040306
:109D60002C433343A4B2E9E700000140F0B5048C72
:109D70008E89B1F802C0B1F800E01D4D24F0100446
:109D80002404240C0484038C8788028B23F0200392
:109D900022F4E6421B04120446EA0C041B0C120CCB
:109DA00043EA041342EA0E22A8429BB2BCB292B22A
:109DB00009D005F58065A84205D0896884800283B2
:109DC00081630384F0BDCD890E8A4F8A23F080031E
:109DD00043EA05134FF6BF751D408B8824F4406499
:109DE0003E4345EA031344EA86049BB2A4B2E4E787
:109DF00000000140F0B5048C8D89B1F802C00F88D5
:109E00001E4E24F480742404240C0484038CB0F8C3
:109E100004E0828B23F400731B0422F073021B0CFA
:109E200045EA0C04120443EA0423120CB0429BB22C
:109E30001FFA8EFE42EA070209D0114CA04206D05A
:109E40008968A0F804E08283C1630384F0BDCC89F3
:109E50000D8A4E8A23F4006343EA04234FF6FF344D
:109E60001C408B882EF4405E354344EA03234EEABF
:109E7000051E9BB21FFA8EFEE2E700BF0000014004
:109E800000040140F0B5048C8E89B1F802E00F881F
:109E9000164D24F480542404240C0484038C8488F8
:109EA000828B23F4005322F4E6421B0412041B0CA1
:109EB00046EA0E06120C43EA063342EA0722A8429B
:109EC0009BB2A4B292B209D005F58065A84205D034
:109ED00089688480828301640384F0BD0D8A24F440
:109EE000804444EA8514A4B2F2E700BF00000140B8
:109EF00000230380438083808360C36003617047D5
:109F0000038B23F008031B041B0C194301837047C8
:109F1000038B23F400631B041B0C43EA012189B269
:109F200001837047838B23F008031B041B0C194328
:109F300081837047838B23F400631B041B0C43EA6B
:109F4000012189B281837047038C10B401248C40B5
:109F50009BB223EA04030384038C5DF8044B02FAEA
:109F600001F1194389B20184704700BF0B88F0B535
:109F7000002B2FD0042B048C4D8851D0082B79D086
:109F800024F480542404240CB1F804E00E89C98818
:109F90000484878B028C45F6FF731340340340F62C
:109FA000FF4244EA0E243A4043F48053224343EAFA
:109FB000053392B29BB282830384828B22F4406287
:109FC0001204120C8283838B9BB243EA01239BB25F
:109FD0008383F0BD028C4C888B880E89C98822F05F
:109FE00001021204120C0284058B028CADB225F022
:109FF000F30592B22B4322F00A0243EA06132243EE
:10A000009BB242F0010203830284038B23F00C0312
:10A010001B041B0C0383038B9BB219430183F0BD0C
:10A0200024F010042404240C8E88B1F808E0C988B8
:10A030000484078B038C9BB2340223F0A00340F608
:10A04000FF4244EA0E343A4043F01003224343EA0D
:10A05000051392B29BB202830384028B22F4406206
:10A060001204120C0283038B9BB243EA01239BB2BE
:10A070000383F0BD24F480742404240C8A880E89A0
:10A08000C9880484848B038CA4B29BB224F0F304AB
:10A0900023F42063224343F4807342EA061243EA26
:10A0A00005239BB292B282830384838B23F00C033B
:10A0B0001B041B0C8383838B9BB219438183F0BDEC
:10A0C00000230122828003804380C3800381704784
:10A0D000406B7047806B7047C06B7047006C704777
:10A0E000B0F8443021B9C3F30E03A0F844307047F0
:10A0F0006FEA43436FEA53439BB2A0F84430704782
:10A1000083899BB21AB923EA0101818170471943FF
:10A1100081817047038A828911EA030092B203D0D9
:10A12000114214BF01200020704700BFC94389B20B
:10A130000182704783899BB21AB923EA01018181A8
:10A14000704719438181704708B52B4B984219D04D
:10A150002A4B984220D02A4B984229D0294B98422A
:10A1600032D0294B98423BD0284B984200D008BDB2
:10A1700001212020FFF7D2FB00212020BDE808406C
:10A18000FFF7CCBB01211020FFF7C8FB00211020F6
:10A19000BDE80840FFF7C2BB01214FF40030FFF7D4
:10A1A000B1FB00214FF40030BDE80840FFF7AABB27
:10A1B00001214FF48020FFF7A5FB00214FF4802000
:10A1C000BDE80840FFF79EBB01214FF40020FFF7D8
:10A1D00099FB00214FF40020BDE80840FFF792BB37
:10A1E00001214FF48010FFF78DFB00214FF4801008
:10A1F000BDE80840FFF786BB001001400044004066
:10A2000000480040004C0040005000400014014055
:10A21000028AF0B592B20446C8880D4622F4405234
:10A2200002438989AB882F896E892282A28922F410
:10A23000B05222F00C023B4312043343120C9BB287
:10A240001343A381A38A9BB223F440730B4385B0CD
:10A25000A3826846FFF7EAFA1C4B9C4228D003F51C
:10A2600080639C4224D0029AA389A18913F4004FF1
:10A270002B68174D02EB820214BF5B009B0002EBC0
:10A280008202B2FBF3F0A5FB00325209642303FB08
:10A29000120310010A040DD41B013233A5FB032362
:10A2A000C3F3431343EA000292B2228105B0F0BD2A
:10A2B000039AD9E7D9003231A5FB0131C1F342122B
:10A2C000024392B2228105B0F0BD00BF00100140F0
:10A2D0001F85EB5100234FF416510C22016042817F
:10A2E0008380C38003818381704700BF838929B93C
:10A2F00023F400531B041B0C838170479BB243F46F
:10A3000000538381704700BFC1F30801818070470B
:10A310008088C0F308007047838A9BB21AB923EA89
:10A3200001018182704719438182704710B401F0A6
:10A330001F04C1F342110123012903FA04F311D0D0
:10A3400002290CBF1030143032B902685DF8044B9A
:10A3500022EA03030360704702685DF8044B13436D
:10A36000036070470C30EFE70388194214BF0120E7
:10A3700000207047C1F3421210B4012301F01F0402
:10A38000012A03FA04F317D0022A0CBF028A828A38
:10A3900092B21340028892B253B10123090A03FA20
:10A3A00001F10A4214BF184600205DF8044B7047C3
:10A3B00018465DF8044B7047828992B21340E9E772
:10A3C00081880068FFF704B90368828809B95A8355
:10A3D00070471A83704700BF0268838851694B40F9
:10A3E0005361704730B583B005460C466846FFF7A9
:10A3F000E9F8B4FA84F35B09AC888DF804300122E3
:10A4000000236946286800948DF806308DF80530E1
:10A410008DF80720FFF782F803B030BD2DE9F04F2B
:10A420008DB00023059304930693002879D000F1A2
:10A43000FF3B454C5FFA8BF6013604EB4616A1460E
:10A440002546E8680021FFF74BFE203555F8140C2F
:10A45000FFF700FBB542F4D104A8FFF725FC07A8DD
:10A46000FFF746FD39484FF0020882460127FFF703
:10A4700027FE04A88DF805808DF80670FFF714FC00
:10A480004FF6FF72532356460592ADF8103002A8DE
:10A49000FFF798F8A188207AA37A627A02918DF862
:10A4A0000C0002A920688DF80F308DF80E208DF871
:10A4B0000D80FFF733F8227EE1882068FFF792F8DD
:10A4C000237F8DF8043001A88DF80770FEF760FC3B
:10A4D000E06804A9FFF79AFB3046FFF7F1FD238AF5
:10A4E000E068AAF800303146FFF740FD203434F828
:10A4F0000E1C54F8140C0122FFF702FEAC42C6D128
:10A500005FFA8BFB0BF1010B0F4C09EB4B19E06869
:10A5100001212034FFF7E0FB4C45F8D10DB0BDE838
:10A52000F08F04A8FFF7C0FB07A8FFF7E1FC07487E
:10A53000FFF7C6FD0222012304A88DF805208DF83F
:10A540000630FFF7B1FBE9E75C030020C40C0020F4
:10A550002DE9F047DFF81081C0EBC00982B008EBAD
:10A5600089046846FFF72EF8238AE06800930122E9
:10A57000022369468DF806208DF805308DF80430E9
:10A58000FEF7CCFF238B606900936946FEF7C6FF98
:10A59000218AE068FFF722F8218B6069FFF71EF837
:10A5A0000CF06CFA00F16405ADB24FF0080A06E059
:10A5B0000A200CF025FA0CF061FAA8424AD8218A48
:10A5C000E068FFF705F80028F2D0218AE068FFF77D
:10A5D00007F80A200CF014FA218AE068FEF7FEFF63
:10A5E0000AF1FF3A0A200CF00BFA1AF0FF0AE6D142
:10A5F000218B6069FEF7F4FF0A200CF001FA218A32
:10A60000E068FEF7EDFF0A200CF0FAF9218AE06815
:10A61000FEF7E4FF0A200CF0F3F9218B6069FEF7E6
:10A62000DDFF08EB8906238AE068009301220223FC
:10A6300069468DF805308DF804308DF80620FEF758
:10A640006DFF238B706900936946FEF767FF02B0C8
:10A65000BDE8F087034A137A43F00803137202B08F
:10A66000BDE8F087E4B700206401002030B5C0EBFE
:10A67000C004A300224CE25C87B01C440AB907B0B6
:10A6800030BD0546E27EA17CE068FEF7ABFFE27ECE
:10A69000A17E6069FEF7A6FF2846FFF759FF194B18
:10A6A0001A7A12F00805EAD16068FEF7B1FF02A835
:10A6B000FFF756F82A4660684FF44071FFF7ACF890
:10A6C000114B606802930121FFF75CF802A96068F2
:10A6D000FEF7D4FF06AC4FF4A060FEF74FFB0B4B28
:10A6E00044F8143D2046FEF753FB212320468DF805
:10A6F00005508DF80430FEF74BFB07B030BD00BFAE
:10A7000064010020E4B70020801A06002200000146
:10A710002DE9F04100EB4007FD00364C364B625905
:10A720009A4286B004EB050602D006B0BDE8F0817F
:10A73000337D002BF9D001214FF48040FFF7CAF898
:10A7400001A8FEF73FFF318A3389B2892B48029076
:10A750000B4313431BB27068019301A9FEF7DEFEA1
:10A76000052271897068FEF73DFF0522F189706846
:10A77000FEF738FF0522718A7068FEF733FF6059D3
:10A78000FFF7E0F801A8FFF733F94FF482734FF4B5
:10A7900000704FF00008302201A9ADF80630ADF886
:10A7A0000E0007236059ADF81020ADF81430ADF855
:10A7B0000480ADF80880ADF80A80ADF80C80ADF8E3
:10A7C0001280FFF7F5F841466059FFF72FF96059FD
:10A7D0000121FFF719F902213068FFF735F9002848
:10A7E000F9D054F83700FFF71DF9C0B28DF8030017
:10A7F0009BE700BF5C04002000380040020200021A
:10A800002DE9F043044689B0002568460E461746F8
:10A810009846049503950595069507959DF84090F3
:10A82000FEF7D0FEA388217A627A00938DF8041097
:10A83000A37A20688DF80730022569468DF8062036
:10A840008DF80550FEF76AFEE37A13B909B0BDE84A
:10A85000F083227EE1882068FEF7C4FE03A8FFF79C
:10A8600047FB238A3449ADF81850B9F1000F4FF473
:10A870008072CDF8148014BF002508250391ADF82F
:10A880001C200C2B10D8DFE803F04D0F0F0F440FE6
:10A890000F0F3B0F0F0F070003A9E068FFF7F2FA55
:10A8A0002946E068FFF746FB6846FFF7FDF9E068D8
:10A8B000224B984210D003F5806398420CD003F5E8
:10A8C0007053984208D003F58063984204D003F592
:10A8D0008063984218BF7608013EB6B2013F01215D
:10A8E0000197ADF80060FFF7F7F96946E068FFF7F8
:10A8F0008DF9E0680121FFF7F3FB09B0BDE8F083B3
:10A9000003A9E068FFF776FA2946E068FFF70AFB3B
:10A91000CAE703A9E068FFF729FA2946E068FFF7CC
:10A92000F7FAC1E703A9E068FFF7E4F92946E06810
:10A93000FFF7E6FAB8E700BF700001000000014031
:10A94000032820D0042802D10F4B1960704770B53E
:10A950002C2505FB00F50D4E84B00C4670590021E6
:10A96000FFF7C4FC6846FFF7B5FC00236946705941
:10A97000ADF808300094FFF74BFC70590121FFF748
:10A98000B5FC04B070BD7047F0060020240500201F
:10A99000F0B5304D9BB06869FEF7E2FA6869FEF7E2
:10A9A000C5FB04460028F9D10BA8FEF79DFB2B68D8
:10A9B00010944C330C934FF400534FF400641393F2
:10A9C0004FF400334FF480620326686912940BA998
:10A9D0004FF480741593204F2B6911920B930F96AF
:10A9E00014940D97FEF754FB01216869194CFEF78A
:10A9F0008DFB01A8FEF744FA01A8FEF72DFA05A881
:10AA0000FEF720FA012305A928688DF828608DF843
:10AA100019308DF81830FEF7EFF904F15406227E54
:10AA2000217B54F81C0B0223FEF73AFAB442F6D10C
:10AA300028680121FEF78AFA28680121FEF77CFACE
:10AA400001212868FEF722FA2868FEF76FFA1BB08A
:10AA5000F0BD00BF100000209C2E00202DE9F04F1B
:10AA6000AD4F3D789BB0002D00F09080022D1FD19E
:10AA7000AA4BAB4E1F78AB4B06220025022F32703B
:10AA80001D7000F0A582A84AA84B157004221A7008
:10AA90000820A74B1B780BB104233370A54B1B7800
:10AAA0000BB104233370FFF7B9FC1BB0BDE8F08F86
:10AAB0009A4B9B4E93F800A09A4A0A210123BAF1BF
:10AAC000020F3170137000F00E829B49964A02917A
:10AAD0009A49964B019100211170994CDFF864B2AC
:10AAE000DFF864A204221A700DF114080DF11C099C
:10AAF000012D404600F09081FEF764FD022540469E
:10AB00008DF81950FEF75EFDA28F238F606B8DF8D4
:10AB1000185013439BB241460593FEF7FFFC94F88F
:10AB20003020618F606BFEF75DFD94F83020E18F7F
:10AB3000606BFEF757FD4846FFF7CCFB0027636DBF
:10AB4000E06A07934946ADF82470FFF761FB029A6B
:10AB500094F84230ABF802705780019A8DF8125089
:10AB600001258DF811508DF813505780002B73D1AB
:10AB700094F84020002A40F0A481E06A01210024DA
:10AB80008AF80140FFF7B2FB204682E7664A674B2E
:10AB9000634E6B4C0A21012705A8317017701F7096
:10ABA0004FF00208FEF70EFD05A88DF81980FEF79C
:10ABB00009FDA28F238F606B8DF8188013439BB221
:10ABC00005A90593FEF7AAFC94F83020618F606B0D
:10ABD000FEF708FD94F83020E18F606BFEF702FD70
:10ABE00007A8FFF777FB636DE06A079307A9ADF845
:10ABF0002450FFF70DFB94F8423052484E494F4A1B
:10AC000045808DF812804D808DF811708DF813708D
:10AC10005580002B40F0A08094F8402052B94A4B58
:10AC2000E06A012100245C70FFF760FB3D4B0120CE
:10AC30001C702EE71AA894F8412000F8582D4349BB
:10AC4000434A4B805380FEF7A3F83A4640F2255121
:10AC5000E06AFFF76BFBE2E70BAD2846FEF744FA2C
:10AC6000E36A206D4FF4806204334FF480310C931B
:10AC700011920F921591FEF773F9E36A4FF4807207
:10AC800004330C931492206DFEF750FA034600280B
:10AC9000F9D1626C206D2F4F0E9329460B920D97C0
:10ACA000FEF7F6F90121206D284FFEF72FFA012259
:10ACB0004021E06AFFF730FB206DFEF733FA1AAA55
:10ACC00094F84C3002F8583DC0F58060204903B23A
:10ACD00010467B804B80FEF75BF8A06CFEF740F9D6
:10ACE000A06CFEF723FA07460028F9D14023A06C98
:10ACF0000E9329461497FEF7CBF93946A06CFEF760
:10AD00000FFAA06C01221021FEF714FA0122802113
:10AD1000E06AFFF701FB30E7DE060020DF060020D7
:10AD2000DB0600200C0F00200FAA0020039E00204D
:10AD30004D0E00205D6D002018AA002030B60020C6
:10AD40002405002010AA00200CAA002028AA002018
:10AD500020AA002030AE00200BAD2846FEF7C4F933
:10AD6000E36A206D4FF4806204334FF480310C931A
:10AD700011920F921591FEF7F3F8E36A4FF4807287
:10AD800004330C931492206DFEF7D0F9034600288B
:10AD9000F9D1676C206DBF4A0E9329460D920B972F
:10ADA000FEF776F90121206DBB4FFEF7AFF90122C6
:10ADB0004021E06AFFF7B0FA206DFEF7B3F91AAA56
:10ADC00094F84C3002F8583DC0F58060B34903B2A6
:10ADD00010467B804B80FDF7DBFFA06CFEF7C0F8D0
:10ADE000A06CFEF7A3F907460028F9D14023A06C18
:10ADF0000E9329461497FEF74BF93946A06CFEF7DF
:10AE00008FF9A06C01221021FEF794F90122802114
:10AE1000E06AFFF781FA02E7FEF7D4FB022740461B
:10AE20008DF81970FEF7CEFBA28F238F606B8DF823
:10AE3000187013439BB241460593FEF76FFB94F8DD
:10AE40003020618F606BFEF7CDFB94F83020E18FEE
:10AE5000606BFEF7C7FB4846FFF73CFA904BE06A91
:10AE600007934FF480524FF4005349464FF48068E3
:10AE7000ADF82020ADF82230ADF82480FFF7C8F9F6
:10AE8000029994F842208DF812700023ABF802303A
:10AE90004B8001998DF811508DF813504B80002A8A
:10AEA00040F00E8194F84030002B3FF466AE1AA8B3
:10AEB00094F8413000F8583D7749784B4A805A80E1
:10AEC00008E01AA894F8412000F8582D7249734AF6
:10AED0004B805380FDF75CFF2A4640F22551E06A23
:10AEE000FFF724FA49E66F496F4A704C03930DF15E
:10AEF0001408404681F800A082F800A0FEF762FB2B
:10AF000040468DF819A0FEF75DFBB4F86810B4F860
:10AF10006420206E8DF818A00A4392B24146059233
:10AF2000FEF7FCFA94F85C20B4F86610206EDFF8A7
:10AF300088B1FEF757FB0DF11C0994F85C20B4F8BA
:10AF40006A10206EFEF74EFB4846FFF7C3F9002556
:10AF5000D4F88020A06D07924946ADF82450FFF741
:10AF600057F9534B02931946524B01931846039BD2
:10AF70008DF811308DF812A094F86E20ABF80450C3
:10AF80008DF813308D808580002A40F0448194F83C
:10AF90006C1091B11AA894F86D1000F8581D3E4D30
:10AFA0003E49AA8003938A80FDF7F2FE039BA06DC1
:10AFB0001A4640F22551FFF7B9F9DFF800A1A06D5C
:10AFC000002301218AF80230FFF790F93D788FE5E0
:10AFD000344A354B354C177005A81F70FEF7F2FA4E
:10AFE00005A88DF81970FEF7EDFAB4F86820B4F8EA
:10AFF0006430206E8DF8187013439BB205A9059339
:10B00000FEF78CFA94F85C20B4F86610206EFEF718
:10B01000E9FA94F85C20B4F86A10206EFEF7E2FAC0
:10B0200007A8FFF757F9D4F88030A06D079307A958
:10B03000ADF82450FFF7ECF894F86E301E481C4928
:10B040001C4A8DF81270012785808DF811708D8053
:10B050008DF813709580002B7DD194F86C2082B10F
:10B060001AA894F86D2000F8582D0B490B4A8B80D4
:10B070009380FDF78DFE3A4640F22551A06DFFF713
:10B0800055F90E4BA06D002201219A70FFF72EF9A1
:10B090000820FEE430AE002028AA002020AA0020CC
:10B0A000A0860100039E00200FAA00202405002096
:10B0B00018AA002030B6002010AA00200CAA0020F8
:10B0C0000BAD2846FEF710F8E36A206DCDF84480FA
:10B0D00004334FF480320C931592CDF83C80FDF789
:10B0E0003FFFE36A4FF4807204330C931492206D97
:10B0F000FEF71CF803460028F9D1626C206D784FEA
:10B100000E9329460B920D97FDF7C2FF0121206D8A
:10B11000744FFDF7FBFF01224021E06AFFF7FCF8C6
:10B12000206DFDF7FFFF1AAA94F84C3002F8583D45
:10B13000C0F580606C4903B210467B804B80FDF700
:10B1400027FEA06CFDF70CFFA06CFDF7EFFF074694
:10B150000028F9D1CAE50BAD2846FDF7C5FFA36D60
:10B16000E06F4FF4806204334FF480310C931192FE
:10B170000F921591FDF7F4FEA36D4FF48072043326
:10B180000C931492E06FFDF7D1FF03460028F9D12C
:10B19000276FE06F554A0E9329460D920B97FDF7E6
:10B1A00077FF0121E06F4F4FFDF7B0FF01224021F3
:10B1B000A06DFFF7B1F8E06FFDF7B4FF1AAA94F89D
:10B1C000783002F8583D4849C0F580631BB21046FC
:10B1D000BB808B80FDF7DCFD606FFDF7C1FE606F0B
:10B1E000FDF7A4FF07460028F9D14023606F0E93B6
:10B1F00029461497FDF74CFF3946606FFDF790FF25
:10B20000606F01221021FDF795FF01228021A06DC2
:10B21000FFF782F835E70BAD2846FDF765FFA36D14
:10B22000E06F04330C934FF4806311930F934FF44A
:10B2300080331593FDF794FEA36D4FF480720433B1
:10B240000C931492E06FFDF771FF02460028F9D1CC
:10B25000E06F0E92254B226F0B9229460D93FDF75E
:10B2600017FF0121E06FFDF751FF01224021A06D82
:10B27000FFF752F8E06FFDF755FF1AAA94F87830FF
:10B2800002F8583DDFF85CE01749C0F580631BB257
:10B290001046AEF804308B80FDF77AFD606FFDF745
:10B2A0005FFE606FFDF742FF03460028F9D1606F33
:10B2B0001493402229460E920393FDF7E9FE039B67
:10B2C000606F1946FDF72CFF606F01221021FDF71A
:10B2D00031FF01228021A06DFFF71EF86DE600BF4F
:10B2E00030AE002028AA002020AA002030B2002082
:10B2F0002DE9F043012199B00846FEF7DFFA01215C
:10B300000220FEF7DBFA01210420FEF7D7FA012123
:10B310004FF48040FEF7EAFA01210846FEF7E6FA0C
:10B3200001210220FEF7E2FA01210846FEF7D2FAD7
:10B3300001210220FEF7CEFA01210420FEF7CAFA0D
:10B3400001214FF48070FEF7D1FA01214FF4800003
:10B35000FEF7C0FA01214FF48000FEF7AFFA9448DF
:10B36000944CFEF7F1FE9448FEF7EEFE9348FEF78C
:10B37000EBFE01211020FEF7B9FA01214FF4003055
:10B38000FEF7A8FA01214FF48020FEF7A3FAFEF79A
:10B39000D1FA01A8FEF716F94FF6FF72032301A9AF
:10B3A000874801928DF80830FEF7B8F801A9854862
:10B3B000FEF7B4F801A98448FEF7B0F84FF4A06096
:10B3C000FDF7DCFC04F5A0770126022509A8FEF7AD
:10B3D000F9F8627AA37AB4F804E020688DF82A209C
:10B3E00009A98DF82B308DF828608DF82950CDF8FB
:10B3F00024E02034FEF792F854F8203C34F81C2C5A
:10B400005A83BC42E2D1714C022704F1800609A89C
:10B41000FEF7D8F8627AA37AB4F804E0257A2068B7
:10B420008DF82A2009A98DF82B308DF82970CDF8D8
:10B4300024E08DF828502034FEF770F854F8203CB2
:10B4400034F81C2C1A83B442E1D1614F4FF002084A
:10B450003C4607F5807909A8FEF7B4F8A688257A56
:10B46000627AA37A54F8200B8DF8298009A90996ED
:10B470008DF828508DF82A208DF82B30FEF74EF8E5
:10B480004C45E8D113F036FD0020FFF7EFF801201E
:10B49000FFF7ECF80A204F4C0BF0F6FA03A8FEF782
:10B4A00091F803A88DF81180FEF78CF8228AA38901
:10B4B000A0688DF8108013439BB203A90393FEF795
:10B4C0002DF82279E189A068FEF78CF82279618A4B
:10B4D000A068FEF787F805A8FEF7FCFE0025A36A22
:10B4E0002068059305A9ADF81C50FEF791FE8DF874
:10B4F0000280A37D38483949394A058001260D80EC
:10B500008DF8016015808DF80360002B72D1227DCB
:10B51000002A3BD10123334A206813701946FEF7F5
:10B52000E5FE314CD7F88030B7F884201A8304F157
:10B530008007022609A8FEF745F8627AA37AB4F8D4
:10B5400004E0257A20688DF82A2009A98DF82B308F
:10B550008DF82960CDF824E08DF828502034FDF7CF
:10B56000DDFF54F8203C34F81C2C1A83BC42E1D196
:10B570000020FFF7CDF80120FFF7CAF80220FFF7FF
:10B58000C7F8FFF705FA19B0BDE8F08318A8627D87
:10B5900000F8602D1549164A0B801380FDF7F8FB63
:10B5A000324640F225512068FEF7C0FEB2E700BFE8
:10B5B000001001401C0200200044004000480040F0
:10B5C0000000024000040240000802409C010020EC
:10B5D000640000202405002010AA002018AA0020E2
:10B5E00030B600200CAA0020A404002028AA0020C5
:10B5F00020AA002009A8FDF777FD2368606A4FF4B0
:10B60000806204334FF480310A930F920D921391AC
:10B61000FDF7A6FC23684FF4807204330A9312925C
:10B62000606AFDF783FD03460028F9D1A569606AC9
:10B63000204A0C9309A90B920995FDF729FD0121D8
:10B64000606A1D4DFDF762FD012240212068FEF772
:10B6500063FE606AFDF766FD18AA94F8203002F8D0
:10B66000603DC0F58060154903B210462B800B8009
:10B67000FDF78EFBE069FDF773FCE069FDF756FD11
:10B6800005460028F9D14023E0690C9309A91295D9
:10B69000FDF7FEFC2946E069FDF742FDE069012265
:10B6A0001021FDF747FD012280212068FEF734FEBE
:10B6B00030E700BF30AA002028AA002020AA0020DE
:10B6C000024B03EB4010FEF77BBE00BF1C020020C4
:10B6D00008B5044B03EB4010FEF772FEB0FA80F0A1
:10B6E000400908BD1C020020024B012103EB401061
:10B6F000FEF76ABE1C020020024B002103EB401043
:10B70000FEF762BE1C020020024B012103EB401039
:10B71000FEF768BE1C020020024B002103EB401024
:10B72000FEF760BE1C0200202DE9F04184B0A0F1BC
:10B7300030040392ADF80A100F2C00F2AC80DFE861
:10B7400014F019002F00360041004A004F00AA00F3
:10B750005900A500E900AE00CD00AA00AE00CD0062
:10B76000100013785A1E022A40F23281092004B0D8
:10B77000BDE8F081A74F3B88002B00F0D980A64B95
:10B780001B784BB1022B40F22781032B04D103F02D
:10B7900031FB002840F0CC8000233B800F20E6E7FF
:10B7A0006A2111700A9A012300201360DFE79B4B86
:10B7B00003CB1B7813720A9B106009245160002090
:10B7C0001C60D4E790200421107051700A9A022363
:10B7D00000201360CBE7924B01221A700020C6E7CD
:10B7E000904913780A789A4200F2E580082004B064
:10B7F000BDE8F081874F8B4900233B80137809789F
:10B800009942F3D98849894EDFF824820B700324CA
:10B810003D462846019203F0F5FC019A70B1338849
:10B8200038885BB1984200F0E280804902E098429B
:10B8300000F0DD8031F8023F002BF8D1284601925C
:10B8400001F006FD019AE8B1B8F8003039885BB123
:10B85000994200F0D680764802E0994200F0D1800B
:10B8600030F8023F002BF8D133885BB1994200F0E9
:10B87000CC806E4802E0994200F0C78030F8023F69
:10B88000002BF8D1013CC4D13C805BE0624B1B78BB
:10B89000032B00F0A780022004B0BDE8F0811378EC
:10B8A000002B47D09BB25C4AADF808303A38137889
:10B8B00018BF012040EA430002380528EBD801A355
:10B8C00053F820F0ABB9000897B800089FB90008FA
:10B8D00093B9000887B9000871B900084E4AADF85D
:10B8E00008303B38137818BF012040EA4300023883
:10B8F0000528D0D801A353F820F000BF3BB90008B9
:10B9000097B800083BB9000859B900084DB90008BC
:10B9100065B90008404B1B78012BBCD10A990B601C
:10B92000137802A85B02ADF80A3002F067F948B15B
:10B9300000201CE74FF48073B5E702A802F0F4FB87
:10B940000028F5D10F2004B0BDE8F08102A806F070
:10B95000F9F80028F6D0EBE702A802F097FA0028E1
:10B96000F0D0E5E702A806F0E3FB0028EAD0DFE725
:10B9700002A805F019FB0028E4D00A9ABDF80830A7
:10B9800013600020F3E602A804F040FD0028D9D09F
:10B99000F3E702A802F02CF80028D3D0EDE702A8C4
:10B9A00001F01AFE0028CDD0E7E702A801F01AFF47
:10B9B0000028C7D0E1E7184A1B4912780B70531EC4
:10B9C000012B01D801F0FAFD124B00201880CEE6C1
:10B9D000114A00201370CAE601F09EFD00283FF4D2
:10B9E000DBAEA5E704F0B8F90028ABD0A0E70A4920
:10B9F00003230B70FB703B6813600A9A04231360E7
:10BA000096E7054901230B70F4E7034902230B7005
:10BA1000F0E700BFD40C0020D20C00209C3E0308AD
:10BA2000D80C0020D90C0020C8260020A805002032
:10BA3000B40500202DE9F04F274CDFF8AC802070D2
:10BA4000CBB0074613F004FD13F054FA98F8003019
:10BA500083B1224D002628460121FEF7C3FC28466B
:10BA60000121FEF7B1FC98F8003001369E4205F145
:10BA70002005F0DBDFF874B0194E00258BF800507C
:10BA800041F221093DB938461CF0CCFC80BB9BF843
:10BA90000050002DF7D098F8003083B10F4C0025EE
:10BAA00020460021FEF79EFC20460021FEF78CFC7C
:10BAB00098F8003001359D4204F12004F0DB41F29A
:10BAC00088300AF0E1FF074B00221A7019F066F97E
:10BAD0004BB0BDE8F08F00BFDC0C00201C02002042
:10BAE000CE0C0020D90C0020DC060020D80C002051
:10BAF000358020781CF096FC0028FAD020781CF0C5
:10BB0000C7FC328882EA002212B293B2002AACBF8C
:10BB10005B0089EA43039BB21D0454BF5B0089EAC2
:10BB200043039BB2190454BF5B0089EA43039BB2F1
:10BB30001A0454BF5B0089EA43039BB21D0454BF3F
:10BB40005B0089EA43039BB2190454BF5B0089EA96
:10BB500043039BB21A0454BF5B0089EA43039BB2C0
:10BB60001D0400F17C845B002F2833808FD10020DE
:10BB700013F0D6F920781CF055FC0028FAD0207874
:10BB80001CF086FC33880690020212B253401BB2AE
:10BB9000002B07929AB2B6BF41F22103530083EA09
:10BBA00042039AB2100446BF41F2210383EA4203E2
:10BBB00053009AB2110446BF41F2210383EA4203C3
:10BBC00053009AB2130446BF41F2210383EA4203B1
:10BBD00053009AB2150446BF41F2210383EA42039F
:10BBE00053009AB2100446BF41F2210383EA420394
:10BBF00053009AB2110446BF41F2210383EA420383
:10BC000053009BB21A044ABF41F221025B0082EA50
:10BC100043039BB2338020781CF004FC0028FAD048
:10BC200020781CF035FC3388000243401BB2002B07
:10BC30009AB2B6BF41F22103530083EA42039AB29B
:10BC4000130446BF41F2210383EA420353009AB230
:10BC5000150446BF41F2210383EA420353009AB21E
:10BC6000110446BF41F2210383EA420353009AB212
:10BC7000130446BF41F2210383EA420353009AB200
:10BC8000150446BF41F2210383EA420353009AB2EE
:10BC9000110446BF41F2210383EA420353009BB2E1
:10BCA0001A044ABF41F221025B0082EA43039BB2BD
:10BCB000338085B220781CF0B5FB0028FAD02078BC
:10BCC0001CF0E6FB338883EA00231BB2002B9AB2F8
:10BCD000B6BF41F22103530083EA42039AB2130430
:10BCE00046BF41F2210383EA420353009AB2110492
:10BCF00046BF41F2210383EA420353009AB2130480
:10BD000046BF41F2210383EA420353009AB2110471
:10BD100046BF41F2210383EA420353009AB213045F
:10BD200046BF41F2210383EA420353009AB2110451
:10BD300046BF41F2210383EA420353009BB21A0437
:10BD400046BF41F2210282EA43035B0028439BB2D3
:10BD500082B20392338020781CF064FB0028FAD072
:10BD600020781CF095FB338883EA00231BB2002B5C
:10BD70009AB2B6BF41F22103530083EA42039AB25A
:10BD8000110446BF41F2210383EA420353009AB2F1
:10BD9000130446BF41F2210383EA420353009AB2DF
:10BDA000150446BF41F2210383EA420353009AB2CD
:10BDB000110446BF41F2210383EA420353009AB2C1
:10BDC000130446BF41F2210383EA420353009AB2AF
:10BDD000150446BF41F2210383EA420353009BB29C
:10BDE000190446BF41F2210282EA43035B000028A6
:10BDF0009BB214BF02464FF4807204923380013A22
:10BE00000AAB0DF1270A13440293554641F221096A
:10BE100020781CF007FB0028FAD020781CF038FBB3
:10BE2000328805F8010F82EA002212B293B2002A8A
:10BE3000ACBF5B0089EA43039BB21A0454BF5B00AA
:10BE400089EA43039BB2190454BF5B0089EA4303A8
:10BE50009BB21A0454BF5B0089EA43039BB21904E6
:10BE600054BF5B0089EA43039BB21A0454BF5B00D2
:10BE700089EA43039BB2190454BF5B0089EA430378
:10BE80009BB21A0400F1F3825B003380029B9D4257
:10BE9000BED120781CF0C6FA0028FAD020781CF019
:10BEA000F7FA338883EA00231BB2002B9AB2B6BF9D
:10BEB00041F22103530083EA42039AB2100446BFC1
:10BEC00041F2210383EA420353009AB2110446BFB0
:10BED00041F2210383EA420353009AB2130446BF9E
:10BEE00041F2210383EA420353009AB2150446BF8C
:10BEF00041F2210383EA420353009AB2100446BF81
:10BF000041F2210383EA420353009AB2110446BF6F
:10BF100041F2210383EA420353009BB21A044ABF51
:10BF200041F221025B0082EA43039BB23380207816
:10BF30001CF078FA0028FAD020781CF0A9FA33888F
:10BF400083EA00231BB2002B9AB2B6BF41F2210351
:10BF5000530083EA42039AB2130446BF41F221031D
:10BF600083EA420353009AB2150446BF41F221030B
:10BF700083EA420353009AB2100446BF41F2210300
:10BF800083EA420353009AB2110446BF41F22103EF
:10BF900083EA420353009AB2130446BF41F22103DD
:10BFA00083EA420353009AB2150446BF41F22103CB
:10BFB00083EA420353009BB2180446BF41F22102B8
:10BFC00082EA43035B000DF124099BB20022338017
:10BFD000C9F80020002B00F052824FF44073059303
:10BFE00003230493002201238DF82820C9F8003090
:10BFF0009F4A20782E21002313801DF0D3FB9C4BF9
:10C00000B3F9003083F43853002B9AB2B6BF41F233
:10C010002103530083EA42039AB2110446BF41F25E
:10C02000210383EA420353009AB2130446BF41F24C
:10C03000210383EA420353009AB2150446BF41F23A
:10C04000210383EA420353009AB2100446BF41F22F
:10C05000210383EA420353009AB2110446BF41F21E
:10C06000210383EA420353009AB2130446BF41F20C
:10C07000210383EA420353009BB21D0446BF41F2F1
:10C08000210282EA43035B00794A9DF91810207867
:10C090009BB213801DF086FB754B079A1B885A4094
:10C0A00013B2002B9AB2B6BF41F22103530083EAC8
:10C0B00042039AB2100446BF41F2210383EA4203CD
:10C0C00053009AB2110446BF41F2210383EA4203AE
:10C0D00053009AB2130446BF41F2210383EA42039C
:10C0E00053009AB2150446BF41F2210383EA42038A
:10C0F00053009AB2100446BF41F2210383EA42037F
:10C1000053009AB2110446BF41F2210383EA42036D
:10C1100053009BB21A0444BF41F2210282EA430356
:10C12000039A20784FEA122558BF5B00504A69B243
:10C130009BB213801DF036FB4D4B1B8883EA052311
:10C140001BB2002B9AB2B6BF41F22103530083EA1F
:10C1500042039AB2130446BF41F2210383EA420329
:10C1600053009AB2150446BF41F2210383EA420309
:10C1700053009AB2100446BF41F2210383EA4203FE
:10C1800053009AB2110446BF41F2210383EA4203ED
:10C1900053009AB2130446BF41F2210383EA4203DB
:10C1A00053009AB2150446BF41F2210383EA4203C9
:10C1B00053009BB21804039D207846BF41F2210230
:10C1C00082EA43035B002A4A69B29BB213801DF0E6
:10C1D000E9FA274B1B88EAB283EA02231BB2002B41
:10C1E0009AB2B6BF41F22103530083EA42039AB2E6
:10C1F000110446BF41F2210383EA420353009AB27D
:10C20000130446BF41F2210383EA420353009AB26A
:10C21000150446BF41F2210383EA420353009AB258
:10C22000100446BF41F2210383EA420353009AB24D
:10C23000110446BF41F2210383EA420353009AB23C
:10C24000130446BF41F2210383EA420353009BB229
:10C250001D0448BF41F22102D9F8005020784CBF9C
:10C2600082EA43035B00024A69B29BB202E000BF6C
:10C27000D00C002013801DF095FA8F4B1B8883EAA9
:10C2800005231BB2002B9AB2B6BF41F22103530023
:10C2900083EA42039AB2100446BF41F2210383EAC3
:10C2A000420353009AB2110446BF41F2210383EACC
:10C2B000420353009AB2130446BF41F2210383EABA
:10C2C000420353009AB2150446BF41F2210383EAA8
:10C2D000420353009AB2100446BF41F2210383EA9D
:10C2E000420353009AB2110446BF41F2210383EA8C
:10C2F000420353009BB21A0444BF41F2210282EA76
:10C300004303D9F800206C4958BF5B009BB2002A58
:10C310000B804ADD002341F221021D4603971AF8E3
:10C32000017F2078029279B21DF03CFA624B029AAA
:10C33000198881EA07231BB299B2002BACBF4900D0
:10C3400082EA410189B20F0454BF490082EA4101E7
:10C3500089B2080454BF490082EA410189B20B0442
:10C3600054BF490082EA410189B20F0454BF490019
:10C3700082EA410189B2080454BF490082EA4101BE
:10C3800089B20B0454BF490082EA410189B2D9F84D
:10C39000003049480F0405F1010554BF490082EA05
:10C3A0004101AB420180BADC039F049920781DF063
:10C3B000F9F9414B059A1B885A4013B2002B9AB2E7
:10C3C0006EDB53009AB2100446BF41F2210383EAA8
:10C3D000420353009AB2110446BF41F2210383EA9B
:10C3E000420353009AB2130446BF41F2210383EA89
:10C3F000420353009AB2150446BF41F2210383EA77
:10C40000420353009AB2100446BF41F2210383EA6B
:10C41000420353009AB2110446BF41F2210383EA5A
:10C42000420353009BB21A0446BF41F2210282EA42
:10C4300043035B009BB2204A2078138043F307211B
:10C440001DF0B0F91C4B207893F900101DF0AAF9EB
:10C45000002012F001FE9BF80050FFF711BB89EAA3
:10C4600043032F2833807FF412ABFFF780BB89EAA8
:10C4700043033380029B9D427FF4CAAC09E5049BD1
:10C48000CDF800900AAA03990698FFF74DF9D9F85C
:10C4900000305BB103021BB2059343B20493A7E5DE
:10C4A00041F2210383EA42039AB28CE703021BB2F2
:10C4B000059343B2049395E5D00C00202DE9F04F8D
:10C4C000D44EDFF87883DFF878A3D34F83B00446E7
:10C4D0004FF0000920461BF0A5FF0028FAD02046A7
:10C4E0001BF0D6FF327898F8003080EA02013170F4
:10C4F000062BEFD8DFE803F0514B45403A360400F5
:10C50000904288F80090E5D1022012F009FD9AF8D7
:10C510000050242D00F0988145D8032D00F0FB81B8
:10C520007AD8012D00F05281022D40F0A3802046E0
:10C5300024211BF0D9FF20464D211BF0D5FF2046BA
:10C540003E211BF0D1FF2046042107F804901DF086
:10C5500029F9294620461DF025F9B04920461DF04D
:10C56000F7F883E0062388F80030B3E706238AF85B
:10C57000000088F80030ADE70423307088F8003000
:10C58000A8E73C28A6D1032388F80030A2E74D286D
:10C59000A0D1022388F800309CE724289AD10123F7
:10C5A00088F8003096E7722D00F0698166D8652D15
:10C5B00000F0B480682D5DD1242120461BF094FF4B
:10C5C0004D2120461BF090FF3E2120461BF08CFFA2
:10C5D0001021204607F804901DF0E4F82946204673
:10C5E0001DF0E0F8DFF85CB200250FE0DBED007A2B
:10C5F000FDEEE77ACDED017ABDF904100135204654
:10C600001DF0D4F8082D0BF1040B2FD0844B1A78B1
:10C61000AA42EBDC0021F1E7042D5CD0052D29D1E5
:10C62000242120461BF060FF4D2120461BF05CFFBB
:10C630003E2120461BF058FF1A21204607F804909F
:10C640001DF0B0F8294620461DF0ACF8754920468B
:10C650001DF07EF8744920461DF07AF87349204693
:10C660001DF076F8724920461DF072F839572046C1
:10C670001DF098F8022012F0EFFC2BE77C2D00F063
:10C680008280F52DF6D1204624211BF02DFF204677
:10C690004D211BF029FF20463E211BF025FF20469F
:10C6A000012107F804901DF07DF820466FF00A0183
:10C6B0001DF078F85F4B204693F900101DF072F8DA
:10C6C000395720461DF06EF8022012F0C5FC0020FC
:10C6D00003B0BDE8F08F204624211BF005FF204663
:10C6E0004D211BF001FF20463E211BF0FDFE2046A0
:10C6F000062107F804901DF055F8294620461DF044
:10C7000051F820464C491DF023F8204600211DF029
:10C7100049F8002120461DF045F8A7E720462421CE
:10C720001BF0E2FE20464D211BF0DEFE20463E219E
:10C730001BF0DAFE20460F2107F804901DF032F8B6
:10C74000294620461DF02EF820464FF4FA711DF0C0
:10C750002DF8204600211DF029F8204600211DF06B
:10C7600025F8204600211DF02FF8204600211DF05D
:10C7700019F8204600211DF019F84FF4FA712046EF
:10C780001DF014F872E7204624211BF0ADFE204670
:10C790004D211BF0A9FE20463E211BF0A5FE2046A0
:10C7A000062107F804901CF0FDFF294620461CF0E6
:10C7B000F9FF204600211CF0F9FF204600211CF063
:10C7C000F5FF002120461CF0F1FF4FE72046242111
:10C7D0001BF08AFE20464D211BF086FE20463E219E
:10C7E0001BF082FE2046032107F804901CF0DAFFBC
:10C7F000294620461CF0D6FF204600211CF0D2FF1F
:10C80000294620461CF0CEFF192120461CF0CAFF05
:10C810002CE700BFDA0C0020009E0020683E0308D1
:10C82000DC060020783E0308843E0308903E03089F
:10C83000943E0308D90C0020703E0308DB0C002056
:10C84000C926002080960020294620461BF04CFE79
:10C8500020464D211BF048FE20463E211BF044FEA1
:10C860002046042107F804901CF09CFF294620462E
:10C870001CF098FF002120461CF0A6FFF6E620469B
:10C8800024211BF031FE20464D211BF02DFE2046B9
:10C890003E211BF029FE2046122107F804901CF0CF
:10C8A00081FF294620461CF07DFF204640F2DC51E6
:10C8B0001CF07CFF20464FF47A711CF077FF204675
:10C8C0004FF4FA611CF072FF20464FF47A711CF0AD
:10C8D0006DFF20464FF47A711CF068FF204600215E
:10C8E0001CF060FF204600211CF05CFF2046002168
:10C8F0001CF058FF204600211CF054FF2046002168
:10C900001CF050FF204600211CF04CFF0021204667
:10C910001CF04CFFAAE6204624211BF0E5FD204632
:10C920004D211BF0E1FD20463E211BF0DDFD294697
:10C93000204607F804901CF035FF294620461CF0DD
:10C9400031FF204601211CF02DFF20460E211CF056
:10C9500029FF012120461CF025FF87E62DE9F84339
:10C9600005460AF08BF800F59C540020083412F0BC
:10C97000D7FA02E01BF056FD20B90AF07FF8844296
:10C980002846F7D80AF07AF8844203D8BDE8F8437D
:10C9900012F05EBD294E2A4F317801223A7059B10A
:10C9A0000139C9B2274B013103EB411100205A690B
:10C9B00020338B421060FAD132200AF065F83378C8
:10C9C0008BB1DFF88090002409EB44184046012128
:10C9D000FDF708FD40460121FDF7F6FC01343378F0
:10C9E000E4B29C42F0D3DFF86080284688F800303B
:10C9F000FFF764FD2846FFF71DF833787BB1114C33
:10CA0000002520460021FDF7EDFC20460021FDF722
:10CA1000DBFC337801359D4204F12004F1DB002476
:10CA200041F288300AF030F888F8004018F0B6F982
:10CA30003C70BDE8F84312F00BBD00BFDC060020DF
:10CA4000E82000201C020020D90C00202DE9F84F1E
:10CA5000564F82463878FEF75FFE0AF1FF3900260E
:10CA60000AF1010A40F2014B4AF2010899F801501B
:10CA700009F0A0FF4BEA8505EB07044638780CD592
:10CA8000FEF732FE6D0804F134040CD009F092FF79
:10CA90008442FBD8EB073878F2D4FEF72DFE6D0800
:10CAA00004F13404F2D119F8013F83EA0602D407F5
:10CAB00054BF760888EA560686EA5302D00754BF68
:10CAC000760888EA560686EA9302D10754BF7608AC
:10CAD00088EA560686EAD302D20754BF760888EA67
:10CAE000560686EA1312D50754BF760888EA56061A
:10CAF00086EA5312D40754BF760888EA560686EAB7
:10CB00009312D00754BF760888EA560686EAD313F4
:10CB1000D90744D4CA454FEA5606A7D1F3B240F22A
:10CB2000014545EA830509F045FFEA0704463878E0
:10CB30000CD5FEF7D9FD6D0804F134040CD009F0D2
:10CB400039FF8442FBD8EA073878F2D4FEF7D4FDE7
:10CB50006D0804F13404F2D109F02CFF360A40F2DA
:10CB6000014545EA8605EB07044638780CD5FEF703
:10CB7000BBFD6D0804F134040CD009F01BFF8442A6
:10CB8000FBD8EB073878F2D4FEF7B6FD6D0804F158
:10CB90003404F2D13878BDE8F84FFEF7B5BDCA4588
:10CBA00088EA56067FF462AFB8E700BFC8260020C7
:10CBB0002DE9F04F85B00C460E888DF80C0003A8C7
:10CBC0008DF80D60FFF742FF6368002E00F055817D
:10CBD0009A46AB4F3344019300264FF0010B09F006
:10CBE000E9FE00F5FA6404E009F0E4FE844240F254
:10CBF0002D813878FEF764FD0028F5D1054609F04F
:10CC0000D9FEA84600F1270400F22F2909F0D2FE30
:10CC10008442FBD83878FEF753FD343418B10BFA50
:10CC200008F31D43ADB24C4508F10108EED140F2C6
:10CC300001232B40B3F5007F40F00881C5F3470581
:10CC400085EA0603DA07B6B24ABF4AF2010376085C
:10CC500083EA560686EA5503DB074ABF4AF2010318
:10CC6000760883EA560686EA9503DC074ABF4AF24D
:10CC70000103760883EA560686EAD503D8074ABF39
:10CC80004AF20103760883EA560686EA1513D907A5
:10CC90004ABF4AF20103760883EA560686EA55132C
:10CCA000DA074ABF4AF20103760883EA560686EAA3
:10CCB0009513DB074ABF4AF20103760883EA56065A
:10CCC00086EAD5130AF8015BDD0700F1C380019BFA
:10CCD0009A454FEA560682D14FF00208012509F025
:10CCE00069FE00F5FA6404E009F064FE844240F253
:10CCF000AD803878FEF7E4FC0028F5D1814609F0D4
:10CD000059FECA4600F1270400F22F2B09F052FE0B
:10CD10008442FBD83878FEF7D3FC343428B105FAC6
:10CD20000AF040EA09001FFA80F9A3450AF1010A56
:10CD3000ECD140F2012309EA0303B3F5007F40F090
:10CD40008580C9F3470080EA0603DC07B6B24ABF14
:10CD50004AF20103760883EA560686EA5003D907A9
:10CD60004ABF4AF20103760883EA560686EA900330
:10CD7000DA074ABF4AF20103760883EA560686EAD2
:10CD8000D003DB074ABF4AF20103760883EA56065E
:10CD900086EA1013DC074ABF4AF20103760883EAE9
:10CDA000560686EA5013D9074ABF4AF201037608AD
:10CDB00083EA560686EA9013DA074ABF4AF201036D
:10CDC000760883EA560686EAD010C3074BD4B8F13A
:10CDD000010F4FEA56064DD109F0ECFD00F5FA645B
:10CDE00003E009F0E7FD844230D93878FEF768FCAB
:10CDF0000028F6D1054609F0DDFDA84600F127041C
:10CE000000F22F294FF0010A09F0D4FD8442FBD82B
:10CE10003878FEF755FC343418B10AFA08F0284384
:10CE200085B2A14508F10108EED140F201232B4063
:10CE3000B3F5007F0AD1680846B9C0B2A0F130004E
:10CE4000B0FA80F0400905B0BDE8F08F002005B0D1
:10CE5000BDE8F08F4AF2010383EA5606019B534571
:10CE60007FF4BDAE38E74AF20103B8F1010F83EA5F
:10CE70005606B1D04FF0010831E7014F2CE700BF53
:10CE8000C82600202DE9F04F774E85B00346020AF0
:10CE900000908DF80F3030780191FE2300278DF837
:10CEA0000E208DF80C308DF80D70FEF735FC0DF16D
:10CEB0000C0A0DF1100B4AF201091AF8018B09F066
:10CEC00079FD40F2014343EA8805EB0704463078D8
:10CED0000CD5FEF709FC6D0804F134040CD009F000
:10CEE00069FD8442FBD8EB073078F2D4FEF704FCEE
:10CEF0006D0804F13404F2D187EA0803D80754BF5F
:10CF00007F0889EA570787EA5803D90754BF7F0883
:10CF100089EA570787EA9803DA0754BF7F0889EA46
:10CF2000570787EAD803DB0754BF7F0889EA57070A
:10CF300087EA1813DD0754BF7F0889EA570787EA95
:10CF40005813DC0754BF7F0889EA570787EA98130C
:10CF5000D80754BF7F0889EA570787EAD81818F01E
:10CF6000010F7BD1DA454FEA5707A6D1FBB240F259
:10CF7000014545EA830509F01DFDE90704463078BF
:10CF80000CD5FEF7B1FB6D0804F134040CD009F0A8
:10CF900011FD8442FBD8E9073078F2D4FEF7ACFBF0
:10CFA0006D0804F13404F2D109F004FD3F0A40F2A7
:10CFB000014545EA8705EA07044630780CD5FEF7B7
:10CFC00093FB6D0804F134040CD009F0F3FC8442A7
:10CFD000FBD8EA073078F2D4FEF78EFB6D0804F137
:10CFE0003404F2D13078FEF78FFB4FF0030B4FF093
:10CFF000010A09F0DFFC00F5FA6403E009F0DAFC4D
:10D00000844233D93078FEF75BFB0028F6D107461F
:10D0100009F0D0FCB84600F1270400F22F2909F0EE
:10D02000C9FCA042FBD33078FEF74AFB343418B178
:10D030000AFA08F31F43BFB24C4508F10108EED1CC
:10D0400040F201233B40B3F5007F0FD1C7F3470700
:10D05000FF2F0ED0002005B0BDE8F08FDA4589EA39
:10D0600057077FF42AAF81E7C8260020BBF1010BE8
:10D07000BFD1019B30781C68FEF74EFB009B002B54
:10D0800000F0E1802344A1469A4640F2014B4AF267
:10D09000010899F8007009F08DFC4BEA8707FB073F
:10D0A000044630780CD5FEF71FFB7F0804F13404EA
:10D0B0000CD009F07FFC8442FBD8FB073078F2D417
:10D0C000FEF71AFB7F0804F13404F2D119F8013B92
:10D0D00085EA0302D40754BF6D0888EA550585EA3E
:10D0E0005302D00754BF6D0888EA550585EA9302BC
:10D0F000D10754BF6D0888EA550585EAD302D207E7
:10D1000054BF6D0888EA550585EA1312D70754BF46
:10D110006D0888EA550585EA5312D40754BF6D0897
:10D1200088EA550585EA9312D00754BF6D0888EA4E
:10D13000550585EAD313D9077BD4D1454FEA550568
:10D14000A7D12F0A40F20143EDB243EA870743EA31
:10D15000850509F02FFCEA07044630780CD5FEF768
:10D16000C3FA6D0804F134040CD009F023FC8442A6
:10D17000FBD8EA073078F2D4FEF7BEFA6D0804F166
:10D180003404F2D109F016FCFB07044630780CD5C4
:10D19000FEF7AAFA7F0804F134040CD009F00AFC67
:10D1A0008442FBD8FB073078F2D4FEF7A5FA7F085B
:10D1B00004F13404F2D13078FEF7A6FA4FF02908D2
:10D1C0004FF0010909F0F6FB00F5FA6403E009F0FD
:10D1D000F1FB844233D93078FEF772FA0028F6D199
:10D1E000054609F0E7FB2F4600F1270400F22F2A3D
:10D1F00009F0E0FBA042FBD33078FEF761FA34344B
:10D2000018B109FA07F0284385B2A24507F10107D2
:10D21000EED140F201232B40B3F5007F0FD1C5F3CF
:10D220004700A0F13000B0FA80F0400905B0BDE839
:10D23000F08FD14588EA55057FF42BAF81E7B8F12F
:10D240000108BFD106E740F201452F4681E700BF44
:10D250002DE9F04FAD4DAE4F8BB0864601900FCD0E
:10D2600004AC0FC495E80300002644F8040BCEF884
:10D27000006038782170FEF74FFA0DF10F0A0DF1BA
:10D28000240B4AF201091AF8018F09F093FB40F2CE
:10D29000014343EA8805EB07044638780CD5FEF7CE
:10D2A00023FA6D0804F134040CD009F083FB8442A6
:10D2B000FBD8EB073878F2D4FEF71EFA6D0804F1BC
:10D2C0003404F2D186EA0803DC0754BF760889EA01
:10D2D000560686EA5803D80754BF760889EA5606E8
:10D2E00086EA9803D90754BF760889EA560686EA83
:10D2F000D803DA0754BF760889EA560686EA181377
:10D30000DB0754BF760889EA560686EA5813DC071D
:10D3100054BF760889EA560686EA9813D80754BFA0
:10D32000760889EA560686EAD81818F0010F40F008
:10D33000E680D3454FEA5606A5D13878FEF7E4F9E2
:10D340000DF1080B4FF0000809F034FB00F5FA640A
:10D3500004E009F02FFB844240F2C4803878FEF7E5
:10D36000AFF90028F5D1064609F024FBB14600F1DB
:10D37000270400F22F2A09F01DFB8442FBD83878DD
:10D38000FEF79EF9343420B1012303FA09F31E435A
:10D39000B6B2544509F10109EDD140F20123334001
:10D3A000B3F5007F40F09E80C6F3470686EA080387
:10D3B000D9071FFA88F84ABF4AF201034FEA580812
:10D3C00083EA580888EA5603DA074ABF4AF201039B
:10D3D0004FEA580883EA580888EA9603DB074ABFF1
:10D3E0004AF201034FEA580883EA580888EAD6034C
:10D3F000DC074ABF4AF201034FEA580883EA58089B
:10D4000088EA1613D8074ABF4AF201034FEA5808C0
:10D4100083EA580888EA5613D9074ABF4AF201033B
:10D420004FEA580883EA580888EA9613DA074ABF91
:10D430004AF201034FEA580883EA580888EAD613EB
:10D44000DB070BF8016B51D404AB9B454FEA58083E
:10D450007FF47AAF09F0AEFA00F5FA6603E009F05E
:10D46000A9FA86423ED93878FEF72AF90446002800
:10D47000F5D109F09FFA264600F22F2800F1270483
:10D480004FF0010909F096FA8442FBD83878FEF78C
:10D4900017F9343418B109FA06F31D43ADB2444507
:10D4A00006F10106EED140F201232B40B3F5007FD7
:10D4B00018D1C5F34705302D14D102A80322154910
:10D4C00026F0C4F970B99DF80C209DF80D30019C30
:10D4D0009DF80B10A17043EA0223012023800BB0BA
:10D4E000BDE8F08F00200BB0BDE8F08F4AF20103D9
:10D4F00083EA580804AB5B457FF426AFAAE7D3451F
:10D5000089EA56067FF4BFAE17E700BFD43C030894
:10D51000C8260020A83E03082DE9F04782B0FD226E
:10D52000002301A88DF804208DF80530FFF78EFA4E
:10D53000214E4FF002084FF0010909F03BFA00F5C7
:10D54000FA6403E009F036FA84422DD93078FEF708
:10D55000B7F80028F6D1054609F02CFA2F4600F15D
:10D56000270400F22F2A09F025FAA042FBD33078D5
:10D57000FEF7A6F8343418B109FA07F0284385B24B
:10D58000A24507F10107EED140F201232B40B3F58C
:10D59000007F09D1C5F34700A0F1C100B0FA80F0C7
:10D5A000400902B0BDE8F087B8F10108C5D1404696
:10D5B00002B0BDE8F08700BFC826002000B583B0E8
:10D5C000002301A88DF804308DF80530FFF73EFAEE
:10D5D00003B05DF804FB00BF2DE9F04F438885B030
:10D5E0004FF6FF729342019000F0F3807C4F8DF86C
:10D5F0000F301B0A8DF80E303878FF2300268DF887
:10D600000C308DF80D60FEF787F80DF10C0A0DF166
:10D61000100B4AF201091AF8018B09F0CBF940F21C
:10D62000014343EA8805EB07044638780CD5FEF73A
:10D630005BF86D0804F134040CD009F0BBF98442A6
:10D64000FBD8EB073878F2D4FEF756F86D0804F1F2
:10D650003404F2D186EA0803D90754BF760889EA70
:10D66000560686EA5803DA0754BF760889EA560652
:10D6700086EA9803DB0754BF760889EA560686EAED
:10D68000D803DD0754BF760889EA560686EA1813E0
:10D69000DC0754BF760889EA560686EA5813D8078D
:10D6A00054BF760889EA560686EA9813D90754BF0C
:10D6B000760889EA560686EAD81818F0010F7BD159
:10D6C000DA454FEA5606A6D1F3B240F2014545EAE3
:10D6D000830509F06FF9EA07044638780CD5FEF7A0
:10D6E00003F86D0804F134040CD009F063F98442A6
:10D6F000FBD8EA073878F2D4FDF7FEFF6D0804F195
:10D700003404F2D109F056F9360A40F2014545EAEF
:10D710008605EB07044638780CD5FDF7E5FF6D0864
:10D7200004F134040CD009F045F98442FBD8EB072E
:10D730003878F2D4FDF7E0FF6D0804F13404F2D13B
:10D740003878FDF7E1FF4FF003094FF0010809F0C9
:10D7500031F900F5FA6403E009F02CF9844231D97B
:10D760003878FDF7ADFF0028F6D1054609F022F91B
:10D770002E4600F1270400F22F2A09F01BF9A042DF
:10D78000FBD33878FDF79CFF343418B108FA06F063
:10D79000284385B2A24506F10106EED140F20123ED
:10D7A0002B40B3F5007F0DD1C5F34700302810D0D2
:10D7B000002005B0BDE8F08FDA4589EA56067FF40F
:10D7C0002AAF81E7B9F10109C1D1002005B0BDE858
:10D7D000F08F0199072005B0BDE8F04FFFF7E8B9D9
:10D7E000C82600202DE9F04F438885B04FF6FF7220
:10D7F0009342019000F0F3807C4F8DF80F301B0AAC
:10D800008DF80E303878FF2300268DF80C308DF817
:10D810000D60FDF781FF0DF10C0A0DF1100B4AF2BE
:10D8200001091AF8018B09F0C5F840F2014343EAF7
:10D830008805EB07044638780CD5FDF755FF6D08D1
:10D8400004F134040CD009F0B5F88442FBD8EB079E
:10D850003878F2D4FDF750FF6D0804F13404F2D1AA
:10D8600086EA0803D90754BF760889EA560686EA8D
:10D870005803DA0754BF760889EA560686EA980301
:10D88000DB0754BF760889EA560686EAD803DD0727
:10D8900054BF760889EA560686EA1813DC0754BF97
:10D8A000760889EA560686EA5813D80754BF7608E0
:10D8B00089EA560686EA9813D90754BF760889EA9A
:10D8C000560686EAD81818F0010F7BD1DA454FEAE0
:10D8D0005606A6D1F3B240F2014545EA830509F0A8
:10D8E00069F8EA07044638780CD5FDF7FDFE6D08A7
:10D8F00004F134040CD009F05DF88442FBD8EA0747
:10D900003878F2D4FDF7F8FE6D0804F13404F2D152
:10D9100009F050F8360A40F2014545EA8605EB0762
:10D92000044638780CD5FDF7DFFE6D0804F13404A9
:10D930000CD009F03FF88442FBD8EB073878F2D4DA
:10D94000FDF7DAFE6D0804F13404F2D13878FDF702
