:020000040800F2
:100000000000022001F6020855000208C90102089A
:10001000D5010208D9010208DD0102080000000034
:10002000000000000000000000000000E1010208E4
:10003000E501020800000000E9010208350002089D
:100040006DF602086DF602086DF602086DF60208FC
:100050006DF602086DF602086DF602086DF60208EC
:100060006DF602086DF602086DF602086DF60208DC
:100070006DF602086DF602083D03020885030208CA
:100080006DF60208F50202086DF602086DF6020828
:100090006DF602086DF602086DF602086DF60208AC
:1000A0006DF602086DF602086DF602086DF602089C
:1000B000150202085D0202086DF60208F503020847
:1000C000ED03020805040208FD0302086DF60208AC
:1000D0006DF60208CD030208D5030208DD0302080D
:1000E0006DF602086DF6020801A60008ED0102088F
:1000F0006DF602086DF602086DF602086DF602084C
:100100006DF602086DF602086DF602086DF602083B
:10011000E50302086DF602086DF602086DF60208A6
:100120006DF602086DF60208750202086DF6020807
:100130006DF602086DF602086DF602086DF602080B
:100140006DF602086DF602086DF6020831A6000889
:100150006DF602086DF60208AD0202086DF602089F
:10016000150402080D0402086DF602086DF6020877
:100170006DF602086DF602086DF602086DF60208CB
:080180006DF602086DF602089D
:1080000010B5054C237833B9044B13B10448AFF3D2
:1080100000800123237010BD08070020000000002D
:10802000406203080C4B43B10C480D4910B5AFF347
:1080300000800C48036823B910BD0A48036833B9AF
:108040007047094B002BF7D0BDE810401847064B8E
:10805000002BF5D0184700BF000000004062030865
:108060000C070020080700200000000081F00041FC
:1080700002E000BF83F0004330B54FEA41044FEA0D
:10808000430594EA050F08BF90EA020F1FBF54EAA8
:10809000000C55EA020C7FEA645C7FEA655C00F044
:1080A000E2804FEA5454D4EB5555B8BF6D420CDD15
:1080B0002C4480EA020281EA030382EA000083EA98
:1080C000010180EA020281EA0303362D88BF30BD38
:1080D00011F0004F4FEA01314FF4801C4CEA11318E
:1080E00002D0404261EB410113F0004F4FEA0333ED
:1080F0004CEA133302D0524263EB430394EA050F78
:1081000000F0A780A4F10104D5F1200E0DDB02FAE6
:108110000EFC22FA05F2801841F1000103FA0EF27A
:10812000801843FA05F359410EE0A5F120050EF140
:10813000200E012A03FA0EFC28BF4CF0020C43FA71
:1081400005F3C01851EBE37101F0004507D54FF07E
:10815000000EDCF1000C7EEB00006EEB0101B1F5CE
:10816000801F1BD3B1F5001F0CD349085FEA300014
:108170004FEA3C0C04F101044FEA445212F5800F1F
:1081800080F09A80BCF1004F08BF5FEA500C50F1BC
:10819000000041EB045141EA050130BD5FEA4C0C9F
:1081A000404141EB010111F4801FA4F10104E9D128
:1081B00091F0000F04BF01460020B1FA81F308BF1F
:1081C0002033A3F10B03B3F120020CDA0C3208DDEB
:1081D00002F1140CC2F10C0201FA0CF021FA02F1C6
:1081E0000CE002F11402D8BFC2F1200C01FA02F136
:1081F00020FA0CFCDCBF41EA0C019040E41AA2BF5B
:1082000001EB0451294330BD6FEA04041F3C1CDA22
:108210000C340EDC04F11404C4F1200220FA04F042
:1082200001FA02F340EA030021FA04F345EA0301EC
:1082300030BDC4F10C04C4F1200220FA02F001FAAE
:1082400004F340EA0300294630BD21FA04F0294630
:1082500030BD94F0000F83F4801306BF81F48011C9
:108260000134013D4EE77FEA645C18BF7FEA655C3C
:1082700029D094EA050F08BF90EA020F05D054EA0E
:10828000000C04BF1946104630BD91EA030F1EBF13
:108290000021002030BD5FEA545C05D14000494117
:1082A00028BF41F0004130BD14F580043CBF01F50A
:1082B000801130BD01F0004545F0FE4141F47001F0
:1082C0004FF0000030BD7FEA645C1ABF19461046CB
:1082D0007FEA655C1CBF0B46024650EA013406BFCC
:1082E00052EA033591EA030F41F4002130BD00BF8B
:1082F00090F0000F04BF0021704730B54FF4806448
:1083000004F132044FF000054FF0000150E700BFC8
:1083100090F0000F04BF0021704730B54FF4806427
:1083200004F1320410F0004548BF40424FF0000114
:108330003EE700BF42004FEAE2014FEA31014FEA57
:1083400002701FBF12F07F4393F07F4F81F06051A6
:10835000704792F0000F14BF93F07F4F704730B515
:108360004FF4607401F0004521F0004120E700BFA8
:1083700050EA010208BF704730B54FF000050AE02F
:1083800050EA010208BF704730B511F0004502D530
:10839000404261EB41014FF4806404F132045FEA32
:1083A000915C3FF4DCAE4FF003025FEADC0C18BFD7
:1083B00003325FEADC0C18BF033202EBDC02C2F1CD
:1083C000200300FA03FC20FA02F001FA03FE40EA5F
:1083D0000E0021FA02F11444C1E600BF70B54FF05F
:1083E000FF0C4CF4E06C1CEA11541DBF1CEA135541
:1083F00094EA0C0F95EA0C0F00F0DEF82C4481EAA9
:10840000030621EA4C5123EA4C5350EA013518BFC8
:1084100052EA033541F4801143F4801338D0A0FBB5
:1084200002CE4FF00005E1FB02E506F00042E0FB62
:1084300003E54FF00006E1FB03569CF0000F18BF68
:108440004EF0010EA4F1FF04B6F5007F64F5407410
:1084500004D25FEA4E0E6D4146EB060642EAC621A3
:1084600041EA55514FEAC52040EA5E504FEACE2E10
:10847000B4F1FD0C88BFBCF5E06F1ED8BEF1004F13
:1084800008BF5FEA500E50F1000041EB045170BD8F
:1084900006F0004646EA010140EA020081EA0301D3
:1084A000B4EB5C04C2BFD4EB0C0541EA045170BDCF
:1084B00041F480114FF0000E013C00F3AB8014F149
:1084C000360FDEBF002001F0004170BDC4F1000492
:1084D000203C35DA0C341BDC04F11404C4F1200513
:1084E00000FA05F320FA04F001FA05F240EA02006E
:1084F00001F0004221F0004110EBD37021FA04F6A4
:1085000042EB06015EEA430E08BF20EAD37070BD5D
:10851000C4F10C04C4F1200500FA04F320FA05F0BC
:1085200001FA04F240EA020001F0004110EBD370BE
:1085300041F100015EEA430E08BF20EAD37070BD2E
:10854000C4F1200500FA05F24EEA020E20FA04F307
:1085500001FA05F243EA020321FA04F001F00041B6
:1085600021FA04F220EA020000EBD3705EEA430E27
:1085700008BF20EAD37070BD94F0000F0FD101F056
:108580000046400041EB010111F4801F08BF013C8F
:10859000F7D041EA060195F0000F18BF704703F0CD
:1085A0000046520043EB030313F4801F08BF013D54
:1085B000F7D043EA0603704794EA0C0F0CEA135510
:1085C00018BF95EA0C0F0CD050EA410618BF52EACA
:1085D0004306D1D181EA030101F000414FF00000D0
:1085E00070BD50EA410606BF1046194652EA4306DE
:1085F00019D094EA0C0F02D150EA013613D195EA52
:108600000C0F05D152EA03361CBF104619460AD199
:1086100081EA030101F0004141F0FE4141F47001A3
:108620004FF0000070BD41F0FE4141F4780170BD93
:1086300070B54FF0FF0C4CF4E06C1CEA11541DBFF8
:108640001CEA135594EA0C0F95EA0C0F00F0A7F8FA
:10865000A4EB050481EA030E52EA03354FEA013127
:1086600000F088804FEA03334FF0805545EA13133A
:1086700043EA12634FEA022245EA111545EA106502
:108680004FEA00260EF000419D4208BF964244F199
:10869000FD0404F5407402D25B084FEA3202B61AB8
:1086A00065EB03055B084FEA32024FF480104FF48C
:1086B000002CB6EB020E75EB030E22BFB61A754600
:1086C00040EA0C005B084FEA3202B6EB020E75EB93
:1086D000030E22BFB61A754640EA5C005B084FEAFB
:1086E0003202B6EB020E75EB030E22BFB61A7546C8
:1086F00040EA9C005B084FEA3202B6EB020E75EBD3
:10870000030E22BFB61A754640EADC0055EA060E93
:1087100018D04FEA051545EA16754FEA06164FEAD6
:10872000C30343EA52734FEAC2025FEA1C1CC0D182
:1087300011F4801F0BD141EA00014FF000004FF00F
:10874000004CB6E711F4801F04BF01430020B4F1D0
:10875000FD0C88BFBCF5E06F3FF6AFAEB5EB030C88
:1087600004BFB6EB020C5FEA500C50F1000041EB85
:10877000045170BD0EF0004E4EEA113114EB5C0452
:10878000C2BFD4EB0C0541EA045170BD41F4801125
:108790004FF0000E013C90E645EA060E8DE60CEA2D
:1087A000135594EA0C0F08BF95EA0C0F3FF43BAF4A
:1087B00094EA0C0F0AD150EA01347FF434AF95EA01
:1087C0000C0F7FF425AF104619462CE795EA0C0FE5
:1087D00006D152EA03353FF4FDAE1046194622E7B2
:1087E00050EA410618BF52EA43067FF4C5AE50EA8C
:1087F00041047FF40DAF52EA43057FF4EBAE12E77C
:108800004FF0FF3C06E000BF4FF0010C02E000BF5C
:108810004FF0010C4DF804CD4FEA410C7FEA6C5C3F
:108820004FEA430C18BF7FEA6C5C1BD001B050EAE2
:10883000410C0CBF52EA430C91EA030F02BF90EACD
:10884000020F0020704710F1000F91EA030F58BF8C
:10885000994208BF90422CBFD8176FEAE37040F0EE
:10886000010070474FEA410C7FEA6C5C02D150EA8C
:10887000013C07D14FEA430C7FEA6C5CD6D152EA47
:10888000033CD3D05DF8040B704700BF844610460C
:1088900062468C461946634600E000BF01B5FFF70B
:1088A000B7FF002848BF10F1000F01BD4DF808EDDB
:1088B000FFF7F4FF0CBF012000205DF808FB00BFAC
:1088C0004DF808EDFFF7EAFF34BF012000205DF806
:1088D00008FB00BF4DF808EDFFF7E0FF94BF012053
:1088E00000205DF808FB00BF4DF808EDFFF7CEFF54
:1088F00094BF012000205DF808FB00BF4DF808ED93
:10890000FFF7C4FF34BF012000205DF808FB00BF63
:108910004FEA410C7FEA6C5C02D150EA013C0AD17B
:108920004FEA430C7FEA6C5C02D152EA033C02D16D
:108930004FF0000070474FF0010070474FEA4102CE
:1089400012F5001215D211D56FF47873B3EB6252A1
:1089500012D94FEAC12343F0004343EA505311F0C8
:10896000004F23FA02F018BF404270474FF000005A
:10897000704750EA013005D111F0004008BF6FF098
:10898000004070474FF00000704700BF4A0011D20E
:1089900012F5001211D20DD56FF47873B3EB625259
:1089A0000ED44FEAC12343F0004343EA505323FA65
:1089B00002F070474FF00000704750EA013002D1DA
:1089C0004FF0FF3070474FF0000070474FEA410210
:1089D000B2F1E04324BFB3F5001CDCF1FE5C0DD91D
:1089E00001F0004C4FEAC0024CEA5070B2F1004F67
:1089F00040EB830008BF20F00100704711F0804F6A
:108A000021D113F13872BCBF01F00040704741F42E
:108A100080114FEA5252C2F11802C2F1200C10FA32
:108A20000CF320FA02F018BF40F001004FEAC12316
:108A30004FEAD32303FA0CFC40EA0C0023FA02F3BA
:108A40004FEA4303CCE77FEA625307D150EA013390
:108A50001EBF4FF0FE4040F44000704701F0004060
:108A600040F0FE4040F40000704700BF80F000403E
:108A700002E000BF81F0004142001FBF5FEA4103F6
:108A800092EA030F7FEA226C7FEA236C6AD04FEAF6
:108A90001262D2EB1363C1BFD2184140484041403B
:108AA000B8BF5B42192B88BF704710F0004F40F4ED
:108AB000000020F07F4018BF404211F0004F41F409
:108AC000000121F07F4118BF494292EA030F3FD0D5
:108AD000A2F1010241FA03FC10EB0C00C3F12003E8
:108AE00001FA03F100F0004302D5494260EB400077
:108AF000B0F5000F13D3B0F1807F06D340084FEAE2
:108B0000310102F10102FE2A51D2B1F1004F40EBD6
:108B1000C25008BF20F0010040EA0300704749003E
:108B200040EB000010F4000FA2F10102EDD1B0FA09
:108B300080FCACF1080CB2EB0C0200FA0CF0AABFFE
:108B400000EBC25052421843BCBFD040184370479C
:108B500092F0000F81F4000106BF80F400000132A2
:108B6000013BB5E74FEA41037FEA226C18BF7FEA79
:108B7000236C21D092EA030F04D092F0000F08BFBB
:108B80000846704790EA010F1CBF0020704712F0A2
:108B90007F4F04D1400028BF40F00040704712F1E1
:108BA00000723CBF00F50000704700F0004343F046
:108BB000FE4040F4000070477FEA226216BF08467C
:108BC0007FEA23630146420206BF5FEA412390EA3F
:108BD000010F40F4800070474FF0000304E000BF35
:108BE00010F0004348BF40425FEA000C08BF7047E6
:108BF00043F0964301464FF000001CE050EA0102AA
:108C000008BF70474FF000030AE000BF50EA0102BE
:108C100008BF704711F0004302D5404261EB4101AB
:108C20005FEA010C02BF84460146002043F0B643D0
:108C300008BFA3F18053A3F50003BCFA8CF2083AF5
:108C4000A3EBC25310DB01FA02FC634400FA02FCFE
:108C5000C2F12002BCF1004F20FA02F243EB020005
:108C600008BF20F00100704702F1200201FA02FC67
:108C7000C2F1200250EA4C0021FA02F243EB02005A
:108C800008BF20EADC70704753B94AB9002908BF11
:108C900000281CBF4FF0FF314FF0FF3000F07AB9D1
:108CA000ADF1080C6DE904CE00F006F8DDF804E043
:108CB000DDE9022304B070472DE9F0478C460D46EC
:108CC0000446089E002B51D18A4217466DD9B2FA4C
:108CD00082FEBEF1000F0BD0CEF1200C01FA0EF592
:108CE00020FA0CFC02FA0EF74CEA050C00FA0EF41E
:108CF0004FEA174A250CBCFBFAF81FFA87F90AFB62
:108D000018CC45EA0C4508FB09F3AB420AD9ED192A
:108D100008F1FF3280F02381AB4240F22081A8F1BC
:108D200002083D44ED1AA4B2B5FBFAF00AFB105557
:108D300044EA054400FB09F9A14509D9E41900F109
:108D4000FF3380F00A81A14540F2078102383C449C
:108D5000A4EB090440EA08400021002E61D024FA67
:108D60000EF4002334607360BDE8F0878B4207D9AE
:108D7000002E54D0002186E821000846BDE8F08787
:108D8000B3FA83F1002940F08E80AB4202D38242D5
:108D900000F2FA80841A65EB03050120AC46002E30
:108DA0003FD086E81010BDE8F08712B90127B7FB65
:108DB000F2F7B7FA87FEBEF1000F34D1EB1B3A0C85
:108DC0001FFA87FC0121B3FBF2F8250C02FB1833D4
:108DD00045EA03450CFB08F3AB4207D9ED1908F14E
:108DE000FF3002D2AB4200F2D1808046ED1AA3B22E
:108DF000B5FBF2F002FB105543EA05440CFB00FC06
:108E0000A44507D9E41900F1FF3302D2A44500F2CA
:108E1000B8801846A4EB0C0440EA08409DE73146B0
:108E20003046BDE8F087CEF1200405FA0EF307FACC
:108E30000EF720FA04F83A0C25FA04F448EA03087D
:108E4000B4FBF2F14FEA184502FB11441FFA87FC0C
:108E500045EA044501FB0CF3AB4200FA0EF409D9D4
:108E6000ED1901F1FF3080F08A80AB4240F287803B
:108E700002393D44EB1A1FFA88F5B3FBF2F002FB0E
:108E8000103345EA034500FB0CF3AB4207D9ED195B
:108E900000F1FF386FD2AB426DD902383D44EB1A76
:108EA00040EA01418FE7C1F1200722FA07F88B4021
:108EB00005FA01F448EA030320FA07FE4FEA134CCF
:108EC000FD404EEA040EB5FBFCF94FEA1E440CFBD4
:108ED00019551FFA83F844EA054509FB08F4AC422A
:108EE00002FA01F200FA01FA08D9ED1809F1FF308F
:108EF00043D2AC4241D9A9F102091D442D1B1FFAEE
:108F00008EFEB5FBFCF00CFB10554EEA054400FB51
:108F100008F8A04507D9E41800F1FF3529D2A0458B
:108F200027D902381C4440EA0940A4EB0804A0FBFE
:108F300002894C45C6464D4615D312D056B1BAEB00
:108F40000E0364EB050404FA07F7CB401F43CC4043
:108F5000376074600021BDE8F0871846F8E6904657
:108F6000E0E6C245EAD2B8EB020E69EB0305013830
:108F7000E4E72846D7E7404691E78146BEE7014649
:108F800078E702383C4445E7084608E7A8F10208BC
:108F90003D442BE7704700BF844641EA000313F0CD
:108FA00003036DD1403A41D351F8043B40F8043BF0
:108FB00051F8043B40F8043B51F8043B40F8043BB3
:108FC00051F8043B40F8043B51F8043B40F8043BA3
:108FD00051F8043B40F8043B51F8043B40F8043B93
:108FE00051F8043B40F8043B51F8043B40F8043B83
:108FF00051F8043B40F8043B51F8043B40F8043B73
:1090000051F8043B40F8043B51F8043B40F8043B62
:1090100051F8043B40F8043B51F8043B40F8043B52
:1090200051F8043B40F8043B403ABDD2303211D3F2
:1090300051F8043B40F8043B51F8043B40F8043B32
:1090400051F8043B40F8043B51F8043B40F8043B22
:10905000103AEDD20C3205D351F8043B40F8043BF2
:10906000043AF9D2043208D0D2071CBF11F8013BF0
:1090700000F8013B01D30B8803806046704700BFB6
:10908000082A13D38B078DD010F003038AD0C3F1C5
:109090000403D21ADB071CBF11F8013B00F8013BA7
:1090A00080D331F8023B20F8023B7BE7043AD9D366
:1090B000013A11F8013B00F8013BF9D20B7803703B
:1090C0004B7843708B7883706046704700000000D7
:1090D0000000000000000000000000000000000090
:1090E0000000000000000000000000000000000080
:1090F0000000000000000000000000000000000070
:1091000090F800F06DE9024520F007016FF0000CC7
:1091100010F0070491F820F040F049804FF000046F
:109120006FF00700D1E9002391F840F000F108004A
:1091300082FA4CF2A4FA8CF283FA4CF3A2FA8CF382
:109140004BBBD1E9022382FA4CF200F10800A4FAE9
:109150008CF283FA4CF3A2FA8CF3E3B9D1E904233D
:1091600082FA4CF200F10800A4FA8CF283FA4CF374
:10917000A2FA8CF37BB9D1E9062301F1200182FA2E
:109180004CF200F10800A4FA8CF283FA4CF3A2FA34
:109190008CF3002BC6D0002A04BF04301A4612BA42
:1091A000B2FA82F2FDE8024500EBD2007047D1E945
:1091B000002304F00305C4F100004FEAC50514F0D4
:1091C000040F91F840F00CFA05F562EA05021CBFA5
:1091D00063EA050362464FF00004A9E740F0BF6070
:1091E000024B40F40030D860704700BF00ED00E053
:1091F000C3785BB9037816485A09203203F01F037D
:10920000012101FA03F340F822307047114A70B48B
:10921000D2684378867801780D48D243C2F302229F
:10922000C2F10405EDB20F24AB4044FA02F2324021
:10923000DBB2134344181B0101F01F050122490949
:10924000DBB2AA4084F8003370BC40F8212070479C
:1092500000E100E000ED00E042680B69F0B522F0AB
:10926000407291F804E00E68CF688C680C4D22F4CF
:10927000807242EA0E223243426086684A793B435A
:10928000354023432B4343EA420383600A7DC36A8C
:10929000013AD2B223F4700343EA0253C362F0BD31
:1092A000FDF7FFC0002301220275036003714371C3
:1092B0008360C360036170470749084A70B490E84F
:1092C00048004D688468C06833432A4013432343F1
:1092D00003434B6070BC704700230140E030FCFF4B
:1092E0000023036043608360C3607047836819B9DB
:1092F00023F001038360704743F0010383607047EC
:10930000092970B41CD9A1F10A0404EB4404C5680E
:109310000726A640A34025EA06042343062AC36085
:109320001AD90C2A25D90D3A02EB8202C36A1F24EE
:109330009440914023EA04021143C16270BC70471B
:1093400001EB410604690725B540B34024EA050452
:109350002343062A0361E4D8013A02EB8202436BFD
:109360001F249440914023EA04021143416370BCDE
:109370007047073A02EB8202036B1F24944091402E
:1093800023EA04021143016370BC7047836843F011
:1093900080438360704700BF836819B923F48073EA
:1093A0008360704743F4807383607047836819B9A2
:1093B00023F400738360704743F400738360704745
:1093C00002683749002310B422F0010221248842A8
:1093D0000260036043608360C360036144614DD0F9
:1093E000304B984235D0304B984239D02F4B984271
:1093F0003DD02F4B984247D02E4B984248D02E4B11
:1094000098421DD02D4B98421ED02D4B984243D0F0
:109410002C4B98421DD02C4B984221D02B4B98427C
:1094200025D02B4B98422FD02A4B984230D02A4B34
:10943000984205D0294B984206D05DF8044B7047FE
:10944000274A43F8942CF8E74FF03D5243F8AC2CF0
:10945000F3E74FF4746243F8202C5DF8044B704737
:109460004FF4741243F8382C5DF8044B70474FF0FA
:10947000746243F8502C5DF8044B7047194B5DF84B
:10948000044B3D229A607047174A43F8642CD4E796
:10949000164A43F87C2CD0E73D2243F8082CCCE751
:1094A0001060024028600240406002405860024064
:1094B0007060024088600240A0600240B8600240D4
:1094C0001064024028640240406402405864024034
:1094D0007064024088640240A0640240B8640240A4
:1094E00000003D20006002403D000020400F0020B1
:1094F0000B68CA69F0B4CE684D698C690F6A334352
:109500002B4323434E6A8D6A4C6B13433B433343D7
:109510008A6B07680B4E2B4323433E401343334370
:10952000CD6A036042690B6B0E694C6889682B43F6
:1095300022F007021343436146608460C160F0BCBF
:10954000704700BF3F801CF00023036043608360CE
:10955000C360036143618361C361036243628362E9
:10956000C362036343638363704700BF036819B931
:1095700023F001030360704743F001030360704769
:1095800041607047406880B2704700BF006800F0DB
:10959000010070470B060CD54369AAB143F0800364
:1095A000802943610FD0036801F01E011943016057
:1095B0007047802907D0002AF5D1036801F01E0109
:1095C00023EA01010160704723F080038029436191
:1095D000F3D1704730B4114B114D124A21F0F024F1
:1095E00024F0C314A84298BF1A469CB1006800EA50
:1095F000D12000F01E0388004CBF5068106821F095
:10960000F02121F08211084002D0181C18BF01205F
:1096100030BC7047436903F08003ECE70060024010
:109620000F6402400064024010B4094B094C0A4A1E
:10963000A04294BF1846104611F0005F21F0F021BF
:1096400021F0821114BFC16081605DF8044B704746
:10965000006002400F64024000640240014B586108
:10966000704700BF003C0140044B1A69002A03DA2E
:109670000349044A59605A60704700BF003C0240E9
:1096800023016745AB89EFCD024A136943F00043DC
:1096900013617047003C024010B483B039B1012916
:1096A0004BD002290CBF4FF400714FF440710822D7
:1096B0005A4B8DF80620DA68D4033CD4DA68D20617
:1096C00026D505238DF806309DF80630012B15D1DF
:1096D000524A09E0D368DB0620D505238DF8063011
:1096E0009DF80630012B09D1D368DC03F2D50123A4
:1096F0008DF806309DF80630012BF5D09DF8063028
:10970000DBB2082B23D0184603B05DF8044B70473A
:10971000DA6812F0EF0F13D00623D3E7D36813F003
:10972000EF0F01D00623D9E7D36813F0020F14BF5F
:1097300007230823D2E70123C4E74FF48071B6E77B
:10974000DB6813F0020F14BF07230823BAE7334A7C
:10975000146924F44074146114692143116111697E
:1097600021F0F8011161116941F002010843106113
:10977000116941F4803111618DF80730D368DC0341
:109780003DD4D368D8063CD505238DF807309DF825
:109790000730012B15D1214A09E0D368DB0621D51A
:1097A00005238DF807309DF80730012B09D1D368C8
:1097B000D903F2D501238DF807309DF80730012B2E
:1097C000F5D0164A9DF80730116921F002011161A8
:1097D0001169DBB221F0F8011846116103B05DF8A0
:1097E000044B7047D36813F0EF0F01D00623D8E77E
:1097F000D36813F0020F14BF07230823D1E7012316
:10980000C3E7D36813F0EF0F01D00623BDE7D36899
:1098100013F0020F14BF07230823B6E7003C0240F1
:1098200010B483B00822544B8DF80620DA68D403B4
:109830003CD4DA68D20626D505238DF806309DF88B
:109840000630012B15D14C4A09E0D368DB0620D540
:1098500005238DF806309DF80630012B09D1D36819
:10986000DC03F2D501238DF806309DF80630012B7C
:10987000F5D09DF80630DBB2082B20D0184603B097
:109880005DF8044B7047DA6812F0EF0F10D0062332
:10989000D3E7D36813F0EF0F01D00623D9E7D368DD
:1098A00013F0020F14BF07230823D2E70123C4E7F4
:1098B000DB6813F0020F14BF07230823BDE72E4A0D
:1098C000146924F440741461146944F4007414613C
:1098D000146944F00104146101608DF80730D36805
:1098E000DC0339D4D368D80638D505238DF8073082
:1098F0009DF80730012B15D11F4A09E0D368DB061C
:109900001DD505238DF807309DF80730012B09D1AF
:10991000D368D903F2D501238DF807309DF80730BD
:10992000012BF5D014499DF807300A69DBB222F00B
:10993000010218460A6103B05DF8044B7047D36812
:1099400013F0EF0F01D00623DCE7D36813F0020F0A
:1099500014BF07230823D5E70123C7E7D36813F013
:10996000EF0F01D00623C1E7D36813F0020F14BF35
:1099700007230823BAE700BF003C0240014BD86030
:10998000704700BF003C024000222DE9F04713461B
:10999000D1F800E001274FF0030C04E00133102B55
:1099A00002F1020229D007FA03F434EA0E05F5D1D8
:1099B000D0F800800E790CFA02F5ED4308EA0508AC
:1099C000C0F80080D0F800A006FA02F9013E49EA8A
:1099D0000A09012E0CFA02F8C0F800900FD9C568E8
:1099E000CC7925EA0805C560C568944001332C434D
:1099F000102BC46002F10202D5D1BDE8F087D0F887
:109A000008904E7905EA09058560D0F808908D79AF
:109A1000964046EA09068660466826EA04044460E1
:109A2000466805FA03F4A4B234434460D7E700BFA4
:109A30004FF6FF72002380E80C007047036919425B
:109A400014BF012000207047018370474183704795
:109A5000CB0800EB830001F0070110B4036A890012
:109A60000F248C4023EA04030362036A5DF8044B6D
:109A700002FA01F119430162704700BF08B5174BA4
:109A8000984212D0164B98421BD0164B984200D0E9
:109A900008BD01214FF4000000F076F900214FF4D9
:109AA0000000BDE8084000F06FB901214FF400103C
:109AB00000F06AF900214FF40010BDE8084000F002
:109AC00063B901214FF4800000F05EF900214FF4EA
:109AD0008000BDE8084000F057B900BF00540040C6
:109AE00000580040005C0040F0B5044685B0684670
:109AF0000E46A58800F0D0F80298314A3368DFF8A6
:109B0000C8E0A2FB001225F03F05910C2D042D0C9E
:109B10008FB23D43A580228822F001021204120C6C
:109B20007345228023D85B00B0FBF3F39BB201376F
:109B3000042B38BF04232784A3832188B088778926
:109B4000B289358989B241F001012180238823F44B
:109B5000816323F002031B0440EA07011B0C0B4343
:109B60002A439BB292B22380228105B0F0BDF588D2
:109B70004BF6FF7295421DD003EB830303EB830387
:109B8000B0FBF3F39BB243F48043C3F30B020AB977
:109B900043F001034FF496720A4802FB01F280FB86
:109BA0000201D217C2EBA112013292B243F4004378
:109BB0002284C1E703EB4303B0FBF3F39BB2E4E77A
:109BC00083DE1B43D34D6210A0860100002310B436
:109BD0004BF6FF7141F288344FF480420460C1803B
:109BE00082818380038143815DF8044B704700BF0D
:109BF000038829B923F001031B041B0C0380704761
:109C00009BB243F001030380704700BF038829B96A
:109C100023F480731B041B0C038070479BB243F436
:109C200080730380704700BF038829B923F4007351
:109C30001B041B0C038070479BB243F4007303802A
:109C4000704700BF22B901F0FE0189B2018270475E
:109C500041F0010189B20182704700BF038829B930
:109C600023F480631B041B0C038070479BB243F4F6
:109C700080630380704700BF01827047008AC0B2D2
:109C8000704700BF83889BB21AB923EA0101818023
:109C900070471943818070471F4A936803F00C0393
:109CA000042B10B41BD0082B1CD01C4B03601A4A89
:109CB0001B499468C4F303140C5DE340436094684B
:109CC000C4F382240C5D23FA04F4846092685DF886
:109CD000044BC2F342328A5CD340C3607047114BDD
:109CE0000360E4E75468516852686302C2F3881263
:109CF00001F03F014CBF0B4B084BB3FBF1F303FBEF
:109D000002F3054A5268C2F3014201325200B3FB2A
:109D1000F2F30360CBE700BF003802400024F400F8
:109D20000000002000127A00044A136B19B923EADC
:109D300000001063704718431063704700380240FA
:109D4000044A536B19B923EA000050637047184363
:109D50005063704700380240044A136C19B923EA73
:109D600000001064704718431064704700380240C8
:109D7000044A536C19B923EA000050647047184331
:109D80005064704700380240044A136A19B923EA44
:109D9000000010627047184310627047003802409C
:109DA000044A536A19B923EA000050627047184305
:109DB0005062704700380240024A536F43F080738C
:109DC000536770470038024008B5174B984212D0CD
:109DD000164B98421BD0164B984200D008BD01216B
:109DE0004FF40040FFF7D0FF00214FF40040BDE8E2
:109DF0000840FFF7C9BF01214FF48050FFF7D0FFA3
:109E000000214FF48050BDE80840FFF7C9BF012191
:109E10004FF48040FFF7B8FF00214FF48040BDE8C9
:109E20000840FFF7B1BF00BF0030014000380040DC
:109E3000003C00400A884B88F0B48F88CD880C899C
:109E40004E8913433B432B4323438D89CC8902889E
:109E5000098A33432B43234302F4415213439BB2F9
:109E60000380838B23F400631B041B0C8383F0BCEF
:109E7000018270470023072202820380438083808F
:109E8000C380038143818381C3817047038829B9DB
:109E900023F040031B041B0C038070479BB243F06C
:109EA00040030380704700BF808980B2704700BFC5
:109EB00081817047038829B923F400531B041B0CCC
:109EC000038070479BB243F400530380704700BF88
:109ED0000389194214BF012000207047234A0388D8
:109EE00090429BB212D002F5806290420ED0B0F147
:109EF000804F0BD0A2F58032904207D002F58062ED
:109F0000904203D002F58062904203D14A8823F048
:109F100070031343164A90421FD002F580629042AC
:109F20001BD070B423F440730E894D680C8802F581
:109F30006C429BB2334390420380C562048506D0D5
:109F40000C4B984203D00123838270BC70478B7AFC
:109F500003860123838270BC704703800B884A68A4
:109F6000C262038501238382704700BF0000014065
:109F7000001000400004014000234FF0FF32426017
:109F8000038103608372704741627047038829B977
:109F900023F080031B041B0C038070479BB243F02B
:109FA00080030380704700BF038829B923F00103B1
:109FB0001B041B0C038070479BB243F0010303801A
:109FC000704700BFF0B5048C8F89B1F802E00E88AD
:109FD000194D24F001042404240C0484038C848887
:109FE000028B23F002031B0422F073021B0C47EACE
:109FF0000E0712043B43120CA8429BB2A4B242EAE1
:10A00000060209D005F58065A84205D089688480DC
:10A01000028341630384F0BDCE890D8A4F8A23F009
:10A020000803334324F440748E883D4323F0040333
:10A030002C433343A4B2E9E700000140F0B5048C9F
:10A040008E89B1F802C0B1F800E01D4D24F0100473
:10A050002404240C0484038C8788028B23F02003BF
:10A0600022F4E6421B04120446EA0C041B0C120CF8
:10A0700043EA041342EA0E22A8429BB2BCB292B257
:10A0800009D005F58065A84205D0896884800283DF
:10A0900081630384F0BDCD890E8A4F8A23F080034B
:10A0A00043EA05134FF6BF751D408B8824F44064C6
:10A0B0003E4345EA031344EA86049BB2A4B2E4E7B4
:10A0C00000000140F0B5048C8D89B1F802C00F8802
:10A0D0001E4E24F480742404240C0484038CB0F8F1
:10A0E00004E0828B23F400731B0422F073021B0C28
:10A0F00045EA0C04120443EA0423120CB0429BB25A
:10A100001FFA8EFE42EA070209D0114CA04206D087
:10A110008968A0F804E08283C1630384F0BDCC8920
:10A120000D8A4E8A23F4006343EA04234FF6FF347A
:10A130001C408B882EF4405E354344EA03234EEAEC
:10A14000051E9BB21FFA8EFEE2E700BF0000014031
:10A1500000040140F0B5048C8E89B1F802E00F884C
:10A16000164D24F480542404240C0484038C848825
:10A17000828B23F4005322F4E6421B0412041B0CCE
:10A1800046EA0E06120C43EA063342EA0722A842C8
:10A190009BB2A4B292B209D005F58065A84205D061
:10A1A00089688480828301640384F0BD0D8A24F46D
:10A1B000804444EA8514A4B2F2E700BF00000140E5
:10A1C00000230380438083808360C3600361704702
:10A1D000038B23F008031B041B0C194301837047F6
:10A1E000038B23F400631B041B0C43EA012189B297
:10A1F00001837047838B23F008031B041B0C194356
:10A2000081837047838B23F400631B041B0C43EA98
:10A21000012189B281837047038C10B401248C40E2
:10A220009BB223EA04030384038C5DF8044B02FA17
:10A2300001F1194389B20184704700BF0B88F0B562
:10A24000002B2FD0042B048C4D8851D0082B79D0B3
:10A2500024F480542404240CB1F804E00E89C98845
:10A260000484878B028C45F6FF731340340340F659
:10A27000FF4244EA0E243A4043F48053224343EA27
:10A28000053392B29BB282830384828B22F44062B4
:10A290001204120C8283838B9BB243EA01239BB28C
:10A2A0008383F0BD028C4C888B880E89C98822F08C
:10A2B00001021204120C0284058B028CADB225F04F
:10A2C000F30592B22B4322F00A0243EA061322431B
:10A2D0009BB242F0010203830284038B23F00C0340
:10A2E0001B041B0C0383038B9BB219430183F0BD3A
:10A2F00024F010042404240C8E88B1F808E0C988E6
:10A300000484078B038C9BB2340223F0A00340F635
:10A31000FF4244EA0E343A4043F01003224343EA3A
:10A32000051392B29BB202830384028B22F4406233
:10A330001204120C0283038B9BB243EA01239BB2EB
:10A340000383F0BD24F480742404240C8A880E89CD
:10A35000C9880484848B038CA4B29BB224F0F304D8
:10A3600023F42063224343F4807342EA061243EA53
:10A3700005239BB292B282830384838B23F00C0368
:10A380001B041B0C8383838B9BB219438183F0BD19
:10A3900000230122828003804380C38003817047B1
:10A3A000406B7047806B7047C06B7047006C7047A4
:10A3B000B0F8443021B9C3F30E03A0F8443070471D
:10A3C0006FEA43436FEA53439BB2A0F844307047AF
:10A3D00083899BB21AB923EA01018181704719432D
:10A3E00081817047038A828911EA030092B203D007
:10A3F000114214BF01200020704700BFC94389B239
:10A400000182704783899BB21AB923EA01018181D5
:10A410007047194381817047028AF0B592B20446B1
:10A42000C8880D4622F4405202438989AB882F899F
:10A430006E892282A28922F4B05222F00C023B43A0
:10A4400012043343120C9BB21343A381A38A9BB221
:10A4500023F440730B4385B0A3826846FFF71CFCCE
:10A460001C4B9C4228D003F580639C4224D0029A66
:10A47000A389A18913F4004F2B68174D02EB8202C8
:10A4800014BF5B009B0002EB8202B2FBF3F0A5FB62
:10A4900000325209642303FB120310010A040DD495
:10A4A0001B013233A5FB0323C3F3431343EA00022A
:10A4B00092B2228105B0F0BD039AD9E7D9003231BA
:10A4C000A5FB0131C1F34212024392B2228105B0D1
:10A4D000F0BD00BF001001401F85EB5100234FF479
:10A4E00016510C22016042818380C38003818381E5
:10A4F000704700BF838929B923F400531B041B0C48
:10A50000838170479BB243F400538381704700BF3F
:10A51000C1F30801818070478088C0F3080070474C
:10A5200010B401F01F04C1F342110123012903FA01
:10A5300004F311D002290CBF1030143032B9026874
:10A540005DF8044B22EA03030360704702685DF87C
:10A55000044B1343036070470C30EFE70388194244
:10A5600014BF012000207047C1F3421210B4012330
:10A5700001F01F04012A03FA04F317D0022A0CBFCA
:10A58000028A828A92B21340028892B253B10123A6
:10A59000090A03FA01F10A4214BF184600205DF8C7
:10A5A000044B704718465DF8044B7047828992B29D
:10A5B0001340E9E7084B1B7813B903F0FF0070471D
:10A5C00000B583B00DF1070000F078FE9DF807009C
:10A5D00003B05DF804FB00BF2407002000B5074B63
:10A5E00083B01B788DF8070023B101210DF107001E
:10A5F00000F02EFE03B05DF804FB00BF240700202E
:10A6000010B5094CA37A4BB1084A136823F006032E
:10A6100013600AF073FA204600F012FA4FF480201B
:10A62000BDE81040FFF71AB8F816002010ED00E062
:10A63000014800F0D5BA00BFF8160020C0EB0010AA
:10A64000064AC000A2FB0032801A02EB50029208B8
:10A65000002301339A42FCD2704700BF254992245F
:10A6600030B4C4786CB900EB8202D81C8010D2F8E8
:10A67000D05006D02346013351F8042B2A6098426B
:10A68000F9D1002030BC70470332921030B4D0F8BA
:10A69000D05009D00846002301332C6840F8044B01
:10A6A0009A42F9D101EB8201084630BC704700BFE5
:10A6B00000B583B000230193019A0E4B42F02002B3
:10A6C0000192019A61F38A120192C168019A0A61AA
:10A6D0000A69019203E00A690192013B02D0019AE2
:10A6E0009206F8D40320FFF7A9FF002003B05DF81D
:10A6F00004FB00BF400D0300C3685869C04300F06D
:10A7000001007047C36858699B691840704700BFD3
:10A710000369034A9B68C3F34103D05C704700BFE1
:10A72000044603080269816993680868C3F341031A
:10A7300000B5032B03D8DFE803F002020C026FF32D
:10A740000A000860536843F48073536000205DF88A
:10A7500004FB032363F30A00F3E700BF70B44B78F4
:10A76000012B4FF000021FD00D7800EB8504012370
:10A77000AB40646D63F31F4223681D040DD48E68E3
:10A78000CD78C98866F30A0365F3934361F399535F
:10A7900043F0805343F4004323600369D9690A43BB
:10A7A0000020DA6170BC70470C7800EB8405A34090
:10A7B00063F30F02AC69DFE72DE9F0434B78012B1F
:10A7C0002BD00A784B6900EB8202566D8A68346898
:10A7D0003569F3B11344013BB3FBF2F3C3F309034F
:10A7E00002FB03F2C2F312024A619BB263F3DC453F
:10A7F00062F312053561C378012B04BF0B697361E5
:10A80000CB78012B32D044F0044434600020BDE802
:10A81000F0830123C2F31202E8E70F784E6900EBE0
:10A82000870CDCF818201468156926B3D1F8088065
:10A8300091F8039066F3120506EB080EB9F1010FCB
:10A840000EF1FF3EBEFBF8FE6EF3DC4541D0156114
:10A85000C578012D46D00169486BBB4003434B636B
:10A8600044F0044414600020BDE8F0834B7943B306
:10A8700044F00054C7E766F3120563F3DC45CF7874
:10A880001561C378012B1FD0012FE9D100698068C1
:10A89000C00554BF44F0005444F0805444F00444D4
:10A8A0001460002BB2D1B0B203308010DCF8D0407D
:10A8B000ACD0CA6852F8041B216001339842F9D128
:10A8C000A4E744F080549EE70D695561012FC7D17C
:10A8D000DCE769F35E751561C378012BD6D10D698C
:10A8E0005561D3E70B695361BAE700BF70B44B7889
:10A8F000012B1FD00B784D6900EB83035C6D226840
:10A9000023699DB18D684D6105F07F0543F40023F7
:10A9100065F306032361C378012B04BF0B696361F0
:10A9200042F004422260002070BC70478D6805F040
:10A930007F05EBE784694D6922682369BDB965F33A
:10A94000060343F400232361C378012B18D042F09F
:10A9500004422260002BE6D14B69002BE3D0026950
:10A960000878516B012383400B435363DBE78E6808
:10A97000B54286BF4E6106F07F0505F07F05DEE734
:10A980000B78096900EB830042F004428369596146
:10A990002260C8E74B78012B0B7800EB830006D0D0
:10A9A000426D136843F400131360002070478269FE
:10A9B0001368002BF6DA43F0804343F4001313606E
:10A9C000002070474B78CA78012B0B7800EB83008E
:10A9D000A2F102020CBF8069406D0368012A6FF387
:10A9E000555398BF43F0805303600020704700BF69
:10A9F00003699869DB691840000C704700EB81011E
:10AA000003694A6D90685B691840704703699869EB
:10AA1000DB69184080B27047084A436D182161F322
:10AA200006021A61C278012A06D100F2CC505861A0
:10AA30004FF0802219681A60704700BF000008605C
:10AA4000837A5BB103699B68DB0707D5D0F80C21DB
:10AA500013686FF341036FF300031360704700BF87
:10AA600070B50C0619D401EB810500EBC50528244F
:10AA7000002604FB010485F87413C5F87C2385F8CF
:10AA8000773385F8756304F55D71022B04BF0023ED
:10AA90000B71FFF763FE002070BD01F07F0101EB39
:10AAA000810500EBC5052824012604FB010485F877
:10AAB0001C11A5F82211C5F8242185F81F3185F84D
:10AAC0001D6104F58E71E0E738B501F07F0505EBF7
:10AAD000850400EBC404002184F87453C4F88C137B
:10AAE00084F87513C4F88023C4F88833C378282108
:10AAF000012B01FB050108BFEDB201F55D7108BF37
:10AB0000C4F884231DB1FFF757FE002038BDFFF7BE
:10AB1000EDFE002038BD00BFF8B501F07F0606EB62
:10AB2000860400EBC4042825002105FB0605012747
:10AB3000C4F8341184F81C61C4F82821C4F82C210D
:10AB4000C4F8303184F81D7105F58E711EB1FFF720
:10AB500033FE0020F8BDFFF7C9FE0020F8BD00BF9E
:10AB60004AB2002A10B50EDB282303FB010303F5CC
:10AB70005D73D20F012419705A709C701946FFF74B
:10AB800009FF002010BD01F07F01282303FB010312
:10AB900003F58E73EDE700BF4AB2002A10B50EDB55
:10ABA000282303FB010303F55D73D20F0024197002
:10ABB0005A709C701946FFF705FF204610BD01F042
:10ABC0007F01282303FB010303F58E73EDE700BF2C
:10ABD00002690023106861F30A130343136070478E
:10ABE0002DE9F04F89B00446FFF786FD18B9002023
:10ABF00009B0BDE8F08F2046FFF784FD81460028AC
:10AC0000F5D0C0F3074818F0080040F0A28118F012
:10AC1000040F40F020815FFA89F5A90727D4B9F124
:10AC2000000FC0F2AE82C9F30726320700F1068298
:10AC30002F0700F1F981E90600F1D081F2061AD45C
:10AC4000B30600F1AC80C9F3074919F0100F40F0CA
:10AC50009B8019F0200FCBD0864B1B6820461B6AC7
:10AC60009847E3684FF400125A610120C0E7E36897
:10AC700002225A61D3E722695368002723F00103B7
:10AC8000536039462046FFF713FD6278002A5CD0F6
:10AC9000A069616DFF23012A83608B6055D0E06954
:10ACA000A16D8360022A8B604FD0206AE16D8360C2
:10ACB000032A8B6049D0606A216E8360042A8B600E
:10ACC00043D0A06A616E8360052A8B603DD0E06A44
:10ACD000A16E8360062A8B6037D0206BE16E8360A3
:10ACE000072A8B6031D0606B216F8360082A8B60EC
:10ACF0002BD0A06B616F8360092A8B6025D0E06B3D
:10AD0000A16F83600A2A8B601FD0206CE16F836083
:10AD10000B2A8B6019D0606CD4F8801083600C2AE9
:10AD20008B6012D0A06CD4F8841083600D2A8B60E5
:10AD30000BD0E06CD4F8881083600E2A8B6004D0AE
:10AD4000216DD4F88C208B6093600125236965F315
:10AD50000F074FF0FF310B2265F31F479961DF6149
:10AD60005A611A611A686FF30A121A602046FFF7D7
:10AD700053FE404BE2681B684FF480511B695161E0
:10AD80002046984728465BE73A4B1B682046DB691C
:10AD90009847E3684FF480125A61012059E7204632
:10ADA000FFF7C0FC04A8FEF777FFE368059EDD68A7
:10ADB0006FF38D25DD602046FFF7AAFC032800F025
:10ADC0001E822D4B2D4A3344012040219342A07016
:10ADD000A18040F28481A6F57403294AA3F510539B
:10ADE000934240F21582274B274A3344934240F264
:10ADF0001382A6F18C73254AA3F54343934240F294
:10AE00000F82234B234A3344934240F20D82224B5C
:10AE1000224A3344934240F20F82A6F1B773204A8C
:10AE2000A3F55853934240F20B821E4B1E4A334403
:10AE3000934240F209821D4B1D4A3344934294BF12
:10AE40000623052363F38D25E3684FF40052DD608C
:10AE500001205A61F7E62046FFF7D8FD0746002893
:10AE600000F01F81264604F118084FF0000BCDF8C2
:10AE7000049043E03C000020401E1BFF3F420F00B7
:10AE8000DFC810002013FBFE1FD61300FF69180057
:10AE900000D3CEFE3F771B00C05BB3FEBF91210005
:10AEA0003FAC2700C01D6AFE3FE13300803C36FE08
:10AEB000DF9C4100180703D5D8F8002008239360D1
:10AEC000D90603D5D8F80020102393605A0603D57D
:10AED000D8F80020402393609D0703D5D8F80020C0
:10AEE00002239360180600F1FE807F080BF1010B2E
:10AEF00006F1280608F1040800F0D180FB07F4D51C
:10AF000022695FFA8BFA1069536B04EB8A0123FA0A
:10AF10000AF38969DB01DBB2896803430B40DBB2CA
:10AF2000DD07C7D5536BC249D8F800000968012571
:10AF300005FA0BF523EA0503536301224B6882608F
:10AF4000514620469847E578012D00F03D810123C8
:10AF5000B0E72046FFF74CFD0546002800F09D8035
:10AF600004F15406A346002708E06D0807F1010725
:10AF700006F104060BF1280B00F08F80EA07F4D5E8
:10AF80005FFA87FA51462046FFF738FDC0B2C30783
:10AF900013D5326801239360E378012B00F00B8115
:10AFA000A34B1B6851461B682046984794F803A0A2
:10AFB000BAF1010F00F016810120810703D5336833
:10AFC00002229A6010460207CFD5994B1B68204693
:10AFD0009B689847326808239360C6E7E3689A69DC
:10AFE00022F010029A611D6AC5F34342022A05F05D
:10AFF0000F0758D0062A11D107EB870704EBC707C4
:10B00000082204F2CC512046FFF73EFBD7F88C23F0
:10B01000E368C5F30A151544C7F88C539A6942F0E2
:10B0200010029A61012009E6814B1B682046DB680B
:10B030009847E36808225A610120FCE57C4B94F8AC
:10B0400012211B6800215B698DF80F1020468DF8D6
:10B050000F2098472269E36891684FF400625A61B3
:10B06000A37AC3B1CB0716D594F81531012B12D1B1
:10B070009DF80F30032B0ED1D4F80C316D491A68AE
:10B0800042F001021A601A6842F003021A600B696A
:10B0900043F006030B610120CAE50120B7E5DDF8A6
:10B0A00004900120B7E547F6F0722A42B6D007EBCC
:10B0B000870704EBC707C5F30A15D7F880132A469C
:10B0C0002046FFF7E1FAD7F88013D7F88C23E3681E
:10B0D00029442A44C7F88013C7F88C239EE70E231F
:10B0E00063F38D25B0E6D6F83011D6F83431D6F8B2
:10B0F0002401D8F80020A1EB0309814528BF81462F
:10B1000009F10309D2F818E04FEA99091FFA8EFEF7
:10B11000CE45A1EB0305524620467FF6E6AE9942A6
:10B120007FF6E3AE00293FF4E0AED6F82431D6F83E
:10B1300028119D4228BF1D46ABB2FFF791FAD6F801
:10B140003431D6F82821D6F83011D8F800002B4435
:10B1500005F103092A448B42D0F818E0C6F82821EB
:10B160004FEA9909C6F83431D0D1256996F81C0107
:10B170006A6B4FF0010C0CFA00F022EA00026A63DD
:10B18000C4E7A37A3BB1D4F80C2113686FF34103F1
:10B190006FF300031360226925495368096823F09F
:10B1A0000103536020468B699847E3684FF00042E3
:10B1B0005A61012037E51269DBF87C33C2F31202D1
:10B1C0009B1ACBF88C33EBE6BBF1000F7FF4BFAEDC
:10B1D00094F81131042B7FF4BAAE2046FFF71CFC23
:10B1E0002B4667E6002F7FF4E7AE94F81131052B6C
:10B1F0007FF4E2AE2046FFF70FFC5046DDE600216B
:10B200004FF400720923A170A28063F38D251BE621
:10B210000D2363F38D2517E60C2363F38D2513E6C9
:10B220000B2363F38D250FE60A2363F38D250BE6CD
:10B230003C00002000ED00E0092363F38D2503E6C8
:10B24000082363F38D25FFE5072363F38D25FBE5D5
:10B25000114B1B78012B1DD0F0B5104F04463E88D2
:10B26000084699B1013C0023DFF834E000E01346C2
:10B27000F218C2F30A0214F8015F0EF802505A1CC9
:10B280009142F4D1013613FA86F39EB2C6F30A0650
:10B290003E60F0BD002070472C07002028070020EA
:10B2A000781D0020044BB3F80004B3F80234C01A30
:10B2B00018BF0120704700BF782500200B4BB3F862
:10B2C0000224B3F8001491420ED09A5C0270084830
:10B2D000B3F8022401680132C2F3090201390160A6
:10B2E000A3F8022401207047002070477825002031
:10B2F0003007002010B5D0F8E83504461B699847A0
:10B30000032384F81231002010BD00BF08B50422C9
:10B3100090F81211D0F8E83580F8131180F8122156
:10B32000DB689847002008BD08B5D0F8E435DB6934
:10B3300003B19847002008BD08B5D0F8E4351B6A72
:10B340009847002008BD00BF08B5D0F8E4355B6A17
:10B350009847002008BD00BF002310B519460446D9
:10B360004022FFF77DFB8021204600234022FFF78B
:10B3700077FB0122D4F8E83584F81221A0785B68C5
:10B380009847002010BD00BF10B582B06946044642
:10B3900000F022FB9DF8001001F01F03012B18D0D4
:10B3A00010D3022B07D001F080012046FFF7D8FB15
:10B3B000002002B010BD6946204600F095FA00203A
:10B3C00002B010BD6946204600F0FCF8002002B033
:10B3D00010BD6946204600F065FA002002B010BD9D
:10B3E00070B5044649B990F81131022B19D094F880
:10B3F0001631012B0CD0002070BDD0F8E4355B690C
:10B40000002BF8D090F81221032AF4D19847F2E7E4
:10B41000234A236912685A60002384F816310020F9
:10B4200070BDD0F83821D0F82451AA4216D9C3787B
:10B43000D0F82811012BA2EB050208BF4919C0F86A
:10B44000382108BFC0F8281192B200F08BF8002311
:10B450001A4619462046FFF737FBC8E7D0F83C31BB
:10B46000B3FBF5F605FB16365EB99D4209D8D0F858
:10B470004021934205D2324600F074F8C4F840618E
:10B48000E5E7D4F8E435DB681BB194F81221032A10
:10B4900003D0204600F086F8A9E720469847F8E751
:10B4A0008429002010B5044629B990F81131032BE6
:10B4B0000CD0002010BDD0F8E4359B69002BF8D0EB
:10B4C00090F81221032AF4D19847F2E7D0F890338C
:10B4D000D0F87C23934212D9C1780129D0F8801387
:10B4E000A3EB020304BF8918C0F880139A4228BF57
:10B4F0001A46C0F8903392B200F03CF8D9E7D0F881
:10B50000E4351B691BB190F81221032A03D02046B1
:10B5100000F038F8CDE79847F9E700BFD0F8E435F8
:10B5200010B504461B689847D4F8E8359B689847DF
:10B53000002010BD08B5D0F8E4355B6898470020BE
:10B5400008BD00BF38B5134602250A46C0F83C3195
:10B55000C0F8383180F811510021FFF7DDFA0020E2
:10B5600038BD00BF08B513460A460021FFF7D4FADC
:10B57000002008BD08B513460A460021FFF7A4FACB
:10B58000002008BD10B5002304220446194680F8A7
:10B5900011211A46FFF7C0FA2046FFF73DFA0020B6
:10B5A00010BD00BF10B5002305220446194680F8DF
:10B5B00011211A46FFF788FA2046FFF72DFA0020DE
:10B5C00010BD00BF30B54B7883B00D460446092B43
:10B5D0000CD8DFE803F0394C0B5F0B05750B8F19A6
:10B5E0008B881BB9CB88002B00F0948080212046EB
:10B5F000FFF7B6FA00212046FFF7B2FA2046FFF720
:10B600000BFA002003B030BD8978A24D01292970C2
:10B61000ECD890F81231022B00F09780032BE5D183
:10B62000002900F02B8190F81011012900F01E81F3
:10B63000FFF780FF297884F810112046FFF76EFF8E
:10B640002046FFF79FFFDCE790F81231023B012B09
:10B65000CCD8914BD0F81821002119600AB10222F0
:10B660001A60204602228C49FFF76CFFC9E790F868
:10B670001231023B012BB9D84B88012BC1D1D0F834
:10B68000E43500229B68C0F8182198472046FFF750
:10B6900079FFB6E74B88012B00F0E280022BB0D196
:10B6A0008B8813F0FF0FACD11B0A0269013B526873
:10B6B000042B00F28980DFE803F0879B979F9300BB
:10B6C0004A88CB88ADF80630130A013B062B8DD88B
:10B6D00001A151F823F000BFA7B7000869B700081F
:10B6E000B7B70008EDB50008EDB50008EDB50008E6
:10B6F000EDB50008CA88012A7FF478AF90F81231BE
:10B70000022B1ED0032B7FF471AF00F58871FFF779
:10B7100019FF76E790F812318D78032B05F07F053D
:10B720003FF464AF80F814512946FFF751FA2046E0
:10B73000FFF728FF002D00F09D80022384F81231CE
:10B740005FE75649FFF7FEFE5BE7002900F08E80B9
:10B750000121032380F8101180F81231FFF7DEFE7B
:10B760002046FFF70FFF4CE7D0F8E43580789B6A5E
:10B770000DF10601984702234370C4F8F005BDF8A7
:10B780000630002B3FF43DAFEA88002A3FF439AF82
:10B79000934228BF134601461A462046ADF80630AC
:10B7A000FFF7D0FE2DE7D0F8EC3580781B680DF15F
:10B7B00006019847E3E7D2B2052A3FF617AFDFE864
:10B7C00002F0473F372F271F012363F30612344B44
:10B7D000012184F8161120461A60FFF7D3FE10E706
:10B7E000052363F30612F2E7032363F30612EEE781
:10B7F000022363F30612EAE7042363F30612E6E783
:10B80000D0F8EC3580789B690DF106019847B6E7D2
:10B81000D0F8EC3580785B690DF106019847AEE70A
:10B82000D0F8EC3580781B690DF106019847A6E742
:10B83000D0F8EC358078DB680DF1060198479EE77B
:10B84000D0F8EC3580789B680DF10601984796E7B3
:10B85000D0F8EC3580785B680DF1060198478EE7EB
:10B86000D0F8E425C0F81831936898472046FFF7D0
:10B8700089FEC6E6012384F81231C2E6022380F86D
:10B88000101180F81231FFF755FE2046FFF77AFEBF
:10B89000B7E600BF4007002034070020380700202B
:10B8A0008429002038B590F81231032B044603D1C7
:10B8B0000B79012B0D460BD98021FFF751F900219F
:10B8C0002046FFF74DF92046FFF7A6F8002038BDC7
:10B8D000D0F8E4359B689847EB88002BF6D12046DA
:10B8E000FFF750FEF2E700BF70B50B788A8803F0CF
:10B8F0006003202B054659D04B78012B0C46D6B25D
:10B9000033D019D3032B15D190F81231022B30D03C
:10B91000032B3FD14B8823B9730602D03146FFF782
:10B920001FF9D5F8E43521469B68284698472846F4
:10B93000FFF728FE002070BD90F81231022B18D0BE
:10B94000032B27D1130636D406EB860600EBC6067A
:10B9500096F87633002B38D11E4B00221A60284609
:10B9600002221C49FFF7EEFDE4E790F81231022BAA
:10B9700005D17206DED03146FFF7F2F8DAE7032B85
:10B9800008D14B88002BD5D17106D0D03146FFF7B6
:10B9900003F9C6E78021FFF7E3F800212846FFF707
:10B9A000DFF82846FFF738F8002070BDD0F8E435FE
:10B9B0009B689847BEE706F07F0606EB860600EB1D
:10B9C000C60696F81E31002BC6D0024B01221A6023
:10B9D000C5E700BF3C07002090F8CC350B7090F80D
:10B9E000CD354B7090F8CF2590F8CE3503EB022380
:10B9F0004B8090F8D12590F8D03503EB02238B8053
:10BA000090F8D32590F8D23503EB02239BB20122A4
:10BA1000CB80C0F8403180F8112170472DE9F04FFC
:10BA2000A84BDFF8E0B2DFF8E0A2DFF8E0928BB0DD
:10BA30000124214610201C600193FEF799F904A807
:10BA4000FDF7F6FF02264FF4C06204A99E48049257
:10BA50008DF815608DF81460FDF796FF0722092117
:10BA60009948FDF7F5FF07220A219748FDF7F0FFF7
:10BA700006A8FEF733FD002506A94FF4E1339348ED
:10BA800006930DF12808ADF82050FEF7C5FC2522DD
:10BA90008F4B08F81C2DABF80250AAF80250A9F8F9
:10BAA00002505D808B4B8DF80D4040465D808DF8D7
:10BAB0000E608DF80F40FDF79BFB224640F22551AA
:10BAC0008248FEF72DFD844B80485C702146FEF7CE
:10BAD00011FD824A1778002F00F08480B742019B45
:10BAE00019D17F497F4A09780193002914BF0421A5
:10BAF0000621242011601AF073FC019B7A4F1E6806
:10BB00007A4C7B497B4A3870052326600D701360A0
:10BB10000BB0BDE8F08F724A744912781B680B6055
:10BB2000002A714A6F4B157014BF04220A221A6052
:10BB30006F49704A704B0C700520106021464FF41D
:10BB400000301E60FEF708F904A8FDF771FF0C2312
:10BB500004A95D4804938DF815608DF81460FDF715
:10BB600013FF314607225848FDF772FF07220321D1
:10BB70005548FDF76DFF06A8FEF7B0FC012F00F059
:10BB80008E804FF4E1330693ADF8205006A95B4850
:10BB9000FEF742FC02224E498DF80E204D4A002449
:10BBA000012526234046ABF804408DF80C30AAF856
:10BBB00004408DF80D50A9F804408DF80F508C808A
:10BBC0009480FDF715FB2A4640F225514B48FEF7BD
:10BBD000A7FC414B49489C702946FEF78BFC0BB0F3
:10BBE000BDE8F08F3E4A3F4B12783F49002A14BF10
:10BBF00004220A221A603D4A3E4B0C704FF400307A
:10BC0000214616601E60FEF7A7F804A8FDF710FF96
:10BC10000C2304A92C4804938DF815608DF814604A
:10BC2000FDF7B2FE314607222748FDF711FF072234
:10BC300003212548FDF70CFF06A8FEF74FFC06A9D7
:10BC40004FF4E1332D480693ADF82070FEF7E4FB86
:10BC500026231F4A8DF80C301E4BABF8047040466B
:10BC6000AAF804708DF80D40A9F804708DF80E60E4
:10BC700097808DF80F409F80FDF7BAFA224640F278
:10BC800025511E48FEF74CFC134B1C489F70214663
:10BC9000FEF730FC164B1F700BB0BDE8F08F184B51
:10BCA00006934FF480534FF40052ADF81C30134804
:10BCB000ADF81E204FF4806306A9ADF82030FEF7E2
:10BCC000ABFB63E798290020000002400010014010
:10BCD000F41100200C120020EC1100203D01002086
:10BCE000F9100020300100208C290020902900202C
:10BCF00018120020882900209429002000440040C8
:10BD0000A0860100281200201C12002034120020FE
:10BD100081880068FDF792BE0368828809B95A835A
:10BD200070471A83704700BF0268838851694B408F
:10BD30005361704730B5054683B068460C46FDF741
:10BD400077FE2B782A89009283B1B4FA84F35B09D9
:10BD50008DF8043001220023694668688DF80630AA
:10BD60008DF805308DF80720FDF70EFE03B030BDCD
:10BD70003D4B984210B504462ED0B0F1804F30D0E4
:10BD80003A4B984232D03A4B984234D0394B984291
:10BD900036D0394B9C4238D0384B9C423AD0384B45
:10BDA0009C423CD0374B9C423ED0374B9C4241D0CA
:10BDB000364B9C4245D0364B9C4249D0354B9C4239
:10BDC0004CD0354B9C4200D010BD01214FF4807007
:10BDD000BDE81040FDF7C0BF01210846FDF7C8FFD0
:10BDE000D7E701210846FDF7B7FFD2E7012102207E
:10BDF000FDF7B2FFD0E701210420FDF7ADFFCEE74C
:10BE000001210820FDF7A8FFCFE701211020FDF751
:10BE1000A3FFCDE701212020FDF79EFFCBE7012105
:10BE20000220FDF7A5FFC9E701214FF48030FDF79F
:10BE30009FFFC6E701214FF40030BDE81040FDF739
:10BE400097BF01214FF48020BDE81040FDF7A8BF47
:10BE500001214020BDE81040FDF796BF0121802060
:10BE6000BDE81040FDF778BF00000140000400402D
:10BE700000080040000C004000100040001400408A
:10BE800000040140004001400044014000480140DE
:10BE900000180040001C0040002000402DE9F04741
:10BEA0008CB00024059404940694002800F0EA80E5
:10BEB000054621464FF08040FEF77AFA4FF0804069
:10BEC000FFF756FF012D42D921464FF08040FEF783
:10BED0006FFA4FF08040FFF74BFF022D37D021461D
:10BEE0004FF08040FEF764FA4FF08040FFF740FFCC
:10BEF000032D2CD021464FF08040FEF759FA4FF029
:10BF00008040FFF735FF042D21D021466848FEF719
:10BF10004FFA6748FFF72CFF052D18D021466448DB
:10BF2000FEF746FA6248FFF723FF062D0FD02146A1
:10BF30005F48FEF73DFA5E48FFF71AFF072D06D06F
:10BF40005B482146FEF734FA5948FFF711FF04A871
:10BF5000FEF712F807A8FEF733F95648564C81460B
:10BF60006E1EFEF715FA4FF00208012304A88DF8A3
:10BF700006308DF80580FDF7FFFFF3B2342603FB92
:10BF800006664FF6FF72532326440592ADF8103033
:10BF900002E03434B44240D02378002BF9D002A818
:10BFA000FDF746FD67682389217B627B0293384653
:10BFB000A37B8DF80C1002A98DF80F308DF80E20A0
:10BFC0008DF80D80FDF7E0FC94F82020618938465B
:10BFD000FDF73EFD0CA894F8303000F82C3D4FF0F2
:10BFE000010A8DF807A0FDF703F9676904A938462F
:10BFF000FDF774FF2F48FEF7CBF9238B2D49A9F8E5
:10C0000000303846FEF71AF9343434F81A1C524618
:10C010003846FEF7DDF9B442BED101214FF0804031
:10C02000FDF7C2FF012D2AD901214FF08040FDF715
:10C03000BBFF022D23D001214FF08040FDF7B4FF5C
:10C04000032D1CD001214FF08040FDF7ADFF042DE2
:10C0500015D001211648FDF7A7FF052D0FD00121AE
:10C060001348FDF7A1FF062D09D001211048FDF767
:10C070009BFF072D03D001210D48FDF795FF0CB064
:10C08000BDE8F08704A8FDF777FF07A8FEF798F84A
:10C090000848FEF77DF90222012304A88DF8052047
:10C0A0008DF80630FDF768FF0CB0BDE8F08700BFE3
:10C0B0000004004044070020044C030838B50B4C32
:10C0C0000B4D00F1300189B22046FDF759FA2846A0
:10C0D0000021FDF759FF28460121FDF765FF2046A5
:10C0E0000121BDE83840FDF741BA00BF406402407D
:10C0F000000401402DE9F04701219AB08146042057
:10C10000FDF712FE454D464CDFF828810121022043
:10C11000FDF72EFE01A8FDF78BFC4FF0400A40F220
:10C12000022301A928460293CDF804A0FDF72CFCB8
:10C13000032228460621FDF78BFC1AA904230025BB
:10C1400041F85C3D204629230493ADF81450FDF7D7
:10C15000C5FE06A8FEF734F84FF40076314B06937F
:10C1600006A92046ADF82A60FDF72CFF20460121E4
:10C17000FEF71EF920460821FEF72AF82046012185
:10C18000FDF704FF294620460122FEF745F8204628
:10C190000121FDF709FF314620460122FEF732F961
:10C1A000404601221021FDF7F5F90BA8FDF7CCF967
:10C1B00009F130031C4A0F934FF4005C4FF4806E7A
:10C1C0004FF4803301270BA940460B95169518951F
:10C1D0001495199510950D92144DCDF84CC04FF44F
:10C1E0000062CDF844E015931292CDF838A017976D
:10C1F0000C95FDF77DF939464046FDF7B7F93A460B
:10C2000031462046FEF7FEF81AA8094B40F8683D73
:10C21000FCF7EEFF1AB0BDE8F08700BF000802404F
:10C220000004014060000100286B0020340401403C
:10C230003A040001406402402DE9F043C0EBC00025
:10C240008600434B9A5D83B01E4412B903B0BDE82B
:10C25000F0836846FDF7ECFBB568B48900940223CF
:10C260000122694628468DF805308DF804308DF896
:10C270000620FDF789FBD6F81080B6F81490CDF8AB
:10C28000009069464046FDF77FFB21462846FDF7B2
:10C29000DBFB49464046FDF7D7FB0BF09FFF6430C0
:10C2A00086B2082706E00A200BF016FF0BF096FF77
:10C2B000B04244D821462846FDF7C0FB0028F2D002
:10C2C00021462846FDF7C2FB0A200BF005FF214658
:10C2D0002846FDF7B9FB013F0A200BF0FDFE17F0E1
:10C2E000FF07E7D149464046FDF7B0FB0A200BF0B7
:10C2F000F3FE21462846FDF7A9FB0A200BF0ECFED1
:10C3000021462846FDF7A0FB0A200BF0E5FE494632
:10C310004046FDF799FB0223284601226946009416
:10C320008DF805308DF804308DF80620FDF72CFBD4
:10C3300069464046CDF80090FDF726FB86E7054AA2
:10C34000137A43F00803137203B0BDE8F08300BF13
:10C35000B448030808D20020F0B5C0EBC004A30025
:10C360003F4CE25C87B01C440AB907B0F0BD267EA2
:10C37000E18932460546A068FDF76AFB3246E18A4C
:10C380002069FDF765FB2846FFF756FF354B1E7AFF
:10C39000C6F3C006F7B2002FE7D164682046FDF768
:10C3A0006DFB02A8FDF712FC3A4620464FF440719F
:10C3B000FDF768FC2C4B029320460121FDF718FC89
:10C3C00002A92046FDF790FB4FF4A060FCF706FFA2
:10C3D000012401A88DF805608DF806608DF80740EE
:10C3E000FCF706FF022D8DF8056027D0032D13D032
:10C3F000A542BAD1202301A88DF80430FCF7F8FE3D
:10C4000001A81F238DF80430FCF7F2FE29464FF4F3
:10C410000010FDF7A1FCA8E7492301A88DF804301E
:10C42000FCF7E6FE01A848238DF80430FCF7E0FE97
:10C4300021464FF40000FDF78FFC96E7222301A868
:10C440008DF80430FCF7D4FE01A821238DF80430C8
:10C45000FCF7CEFE21464FF48000FDF77DFC84E71B
:10C46000B448030808D20020801A060070B54A4B71
:10C47000450188B05A5D1D440AB908B070BD6C68AA
:10C4800006462046FDF7A0FC01A8FDF7D1FAA98BCE
:10C49000AB89AA8AAD680B4313439BB2022201A960
:10C4A000284601938DF808208DF80920FDF76CFAD5
:10C4B000022E59D0032E3FD0012E16D131464FF413
:10C4C0008050FDF755FC64200BF006FE0522114656
:10C4D0002846FDF7BDFA052206213048FDF7B8FAD7
:10C4E000052207212D48FDF7B3FA03A8FDF7C2FC8A
:10C4F0004FF482702A4A2B4BADF80E0003A9204658
:10C50000CDF81220CDF81630FDF794FC002120461E
:10C51000FDF7D0FC01212046FDF7B8FC02212046A2
:10C52000FDF7D6FC0028F9D02046FDF7BDFCC0B2CF
:10C530008DF8030008B070BD01214FF40040FDF7F5
:10C540000BFC64200BF0C8FD284606220A21FDF7EB
:10C550007FFA06220B211448FDF77AFA06220C21F5
:10C560001148FDF775FAC0E701214FF48040FDF74F
:10C57000F3FB64200BF0B0FD284605220D21FDF7EA
:10C5800067FA05220E210948FDF762FA05220F21FC
:10C590000648FDF75DFAA8E7A44D03080000024035
:10C5A00002000100000230000008024000040240C6
:10C5B0002DE9F04389B004789DF84060002504958A
:10C5C000039505950695079514B909B0BDE8F08364
:10C5D00004466846984617460D46FDF729FA228913
:10C5E000237B00928DF80430627BA37B60688DF81A
:10C5F00007304FF0020969468DF806208DF8059046
:10C60000FDF7C2F9237C002BDFD094F8202061894C
:10C610006068FDF71DFA03A8FDF7D2FD238B3449AE
:10C62000ADF81890002E4FF48072CDF8148014BF2E
:10C63000002608260391ADF81C200C2B10D8DFE84B
:10C6400003F04D0F0F0F440F0F0F3B0F0F0F07009D
:10C6500003A96069FDF77EFD31466069FDF7D2FDF3
:10C660006846FDF789FC6069224B984210D003F5BB
:10C67000806398420CD003F57053984208D003F5BC
:10C680008063984204D003F58063984218BF6D0818
:10C69000013DADB2013F01210197ADF80050FDF71A
:10C6A00083FC69466069FDF719FC60690121FDF7AB
:10C6B0007FFE09B0BDE8F08303A96069FDF702FDC4
:10C6C00031466069FDF796FDCAE703A96069FDF789
:10C6D000B5FC31466069FDF783FDC1E703A96069D8
:10C6E000FDF770FC31466069FDF772FDB8E700BFE9
:10C6F000700001000000014010B3052802D1114B69
:10C7000019607047104B30B500EB400003EB001090
:10C7100085B045680C4628460021FDF7EBFE6846CB
:10C72000FDF7DCFE002369462846ADF8083000948A
:10C73000FDF772FE28460121FDF7DCFE05B030BD95
:10C74000704700BF4C010020244E0308F0B530486C
:10C750009BB0FCF735FE2E48FCF718FF0446002876
:10C76000F9D10BA8FCF7F0FE4FF48062DFF8B0E0DF
:10C77000284B2748109406250BA90B9411924FF4CF
:10C7800080744FF400324FF400674FF40056CDF838
:10C7900030E015920D930F95149412971396FCF7B1
:10C7A000A7FE01211A481C4CFCF7E0FE01A8FCF78B
:10C7B00097FD01A8FCF780FD05A8FCF773FD012398
:10C7C00005A916488DF828508DF819308DF81830C5
:10C7D000FCF742FD04F1D80594F82020217C606824
:10C7E00002232434FCF78CFDAC42F5D101210B4827
:10C7F000FCF7DCFD01210948FCF7CEFD01210748CB
:10C80000FCF774FD0548FCF7C1FD1BB0F0BD00BF8F
:10C8100010640240AC0D00200846030800200140CF
:10C820004C2001402DE9F04F012187B0DF48E04F57
:10C83000DFF88C93DFF88C83FDF776FA0121002076
:10C84000FDF77EFA0121DB48FDF786FA0121DA487F
:10C85000FDF78EFA01214FF40010FDF765FA012172
:10C860004FF48000FDF760FAFDF7A6FA02A8FDF785
:10C87000DFF84FF6FF72032302A9384602928DF8C3
:10C880000C30FDF781F802A94846FDF77DF802A9B2
:10C89000CA48FDF779F802A94046FDF775F84FF44C
:10C8A000A060FCF79BFCFFF7B9F804A80124002561
:10C8B0000226FDF7BDF84FF0080A04A93846CDF866
:10C8C00010A08DF814408DF816508DF817508DF883
:10C8D0001560FDF759F8A7F81AA004A84FF0100A40
:10C8E000FDF7A6F80DEB0A013846CDF810A08DF83B
:10C8F00014408DF816508DF817508DF81560FDF71F
:10C9000043F80DEB0A00A7F81AA0FDF791F80DEB1C
:10C910000A014FF40063484604938DF814408DF8E3
:10C9200016508DF817508DF81560FDF72DF84FF45F
:10C930000063A9F81A300DEB0A00FDF779F84FF4FF
:10C94000805A04A94846CDF810A08DF814408DF8FF
:10C9500016508DF817508DF81560FDF715F8A9F8E9
:10C960001AA004A8FDF764F804A94046CDF810A069
:10C970008DF814408DF816508DF817408DF815601D
:10C98000FDF702F804A8FDF753F84FF4806304A9FB
:10C99000484604938DF814508DF816508DF81740C2
:10C9A0008DF81560FCF7F0FF04A8FDF741F84FF48F
:10C9B000007304A94846049301938DF814508DF830
:10C9C00016508DF817408DF81560FCF7DDFF04A8B0
:10C9D000FDF72EF84FF0400A04A948468DF81440A0
:10C9E0008DF816508DF817408DF81560CDF810A011
:10C9F000FCF7CAFF04A8FDF71BF8802304A94846EA
:10CA000004938DF814408DF816508DF817408DF86A
:10CA10001560FCF7B9FF04A8FDF70AF84FF4807B16
:10CA200004A948468DF814508DF816508DF817401B
:10CA30008DF81560CDF810B0FCF7A6FF13F058FE86
:10CA400004A8FCF7F5FF04A9019B049338468DF870
:10CA500014408DF816508DF817408DF81560FCF7CE
:10CA600093FF019B7B8304A8FCF7E2FF04A93846EF
:10CA7000CDF810B08DF814408DF816508DF8174091
:10CA80008DF81560FCF780FF04A8A7F81AB0FCF732
:10CA9000CFFF04A98023384604938DF814408DF805
:10CAA00016508DF817408DF81560FCF76DFF4FF0AC
:10CAB00080037B8304A8FCF7BBFF04A93846CDF8AC
:10CAC00010A08DF814408DF816508DF817408DF891
:10CAD0001560FCF759FF04A8A7F81AA0FCF7A8FFF7
:10CAE00004A94FF40063404604938DF814408DF878
:10CAF00016508DF817408DF81560FCF745FF4FF480
:10CB00000063A8F81A3004A8FCF792FF04A9404675
:10CB1000CDF810B08DF815608DF814408DF81650D2
:10CB20008DF81740FCF730FF04A8A8F81AB0FCF7FE
:10CB30007FFF04A94046CDF810A08DF815608DF850
:10CB400014408DF816508DF81740FCF71DFF04A80F
:10CB5000A8F81AA0FCF76CFF04A9802340460493B0
:10CB60008DF815608DF814408DF816508DF817402B
:10CB7000FCF70AFF4FF08003A8F81A3004A8FCF76E
:10CB800057FF04A938468DF815608DF816500494A7
:10CB90008DF814408DF81740FCF7F6FE04A87C834E
:10CBA000FCF746FF04A938460EE000BF1F9067005F
:10CBB00000040240FFC9FE36335F0700000C02404C
:10CBC00000080240000002408DF8165004968DF8CF
:10CBD00015608DF814408DF81740FCF7D5FE234BF7
:10CBE0007E831B78082B06D0214B1B78182B02D094
:10CBF00018F030FF02E01F4B00221A701E4B1F4C32
:10CC00001878DFF88080FFF749F904F1C0051BF0C0
:10CC10000BFD11E0FFF72AFC04A8FCF709FFA6684A
:10CC2000A789CDF81480304604A90497FCF7ACFE20
:10CC300037831034AC420BD02378002BF9D0E37843
:10CC40002079002BE6D11034FFF786FBAC42F3D1FC
:10CC50000A200BF0C9FAFFF779FD0A200BF0C4FA9D
:10CC6000074B80221A8307B0BDE8F08F2C0100200B
:10CC70003C010020F81000208C290020444F0308BC
:10CC8000000802400102000134230421024A03FB90
:10CC900000101044FFF73CB8FC49030808B5042114
:10CCA0003423054A03FB00101044FFF731F8B0FAB3
:10CCB00080F0400908BD00BFFC490308042134236B
:10CCC000034A03FB001010440121FFF725B800BF01
:10CCD000FC49030804213423034A03FB00101044D9
:10CCE0000021FFF719B800BFFC49030800EB40031F
:10CCF000034A00EB830002EB80000121FFF71AB822
:10CD0000FC49030800EB4003034A00EB830002EBFD
:10CD100080000021FFF70EB8FC4903082DE9F0411F
:10CD200084B0A0F130040392ADF80A100F2C00F289
:10CD3000AC80DFE814F019002F00360041004A00F3
:10CD40004F00AA005900A500E900AE00CD00AA00DE
:10CD5000AE00CD00100013785A1E022A40F2328134
:10CD6000092004B0BDE8F081A74F3B88002B00F0FC
:10CD7000D980A64B1B784BB1022B40F22781032BA5
:10CD800004D103F05BFD002840F0CC8000233B8001
:10CD90000F20E6E76A2111700A9A01230020136030
:10CDA000DFE79B4B03CB1B7813720A9B10600924AF
:10CDB000516000201C60D4E7902004211070517055
:10CDC0000A9A022300201360CBE7924B01221A70CB
:10CDD0000020C6E7904913780A789A4200F2E5806D
:10CDE000082004B0BDE8F081874F8B4900233B80C9
:10CDF000137809789942F3D98849894EDFF824825B
:10CE00000B7003243D462846019203F01FFF019A50
:10CE100070B1338838885BB1984200F0E280804975
:10CE200002E0984200F0DD8031F8023F002BF8D19B
:10CE30002846019201F0B6FD019AE8B1B8F8003039
:10CE400039885BB1994200F0D680764802E0994279
:10CE500000F0D18030F8023F002BF8D133885BB16D
:10CE6000994200F0CC806E4802E0994200F0C78001
:10CE700030F8023F002BF8D1013CC4D13C805BE08C
:10CE8000624B1B78032B00F0A780022004B0BDE8A2
:10CE9000F0811378002B47D09BB25C4AADF8083084
:10CEA0003A38137818BF012040EA430002380528B9
:10CEB000EBD801A353F820F09FCF00088BCE0008D9
:10CEC00093CF000887CF00087BCF000865CF00080C
:10CED0004E4AADF808303B38137818BF012040EABD
:10CEE000430002380528D0D801A353F820F000BF32
:10CEF0002FCF00088BCE00082FCF00084DCF0008A1
:10CF000041CF000859CF0008404B1B78012BBCD102
:10CF10000A990B60137802A85B02ADF80A3002F0A0
:10CF2000CDFA48B100201CE74FF48073B5E702A8A2
:10CF300002F0CEFD0028F5D10F2004B0BDE8F0814D
:10CF400002A806F023FB0028F6D0EBE702A802F0C7
:10CF500035FC0028F0D0E5E702A806F00DFE002819
:10CF6000EAD0DFE702A805F043FD0028E4D00A9AE2
:10CF7000BDF8083013600020F3E602A804F06AFF51
:10CF80000028D9D0F3E702A802F066F90028D3D030
:10CF9000EDE702A801F0FCFE0028CDD0E7E702A8EB
:10CFA00002F028F80028C7D0E1E7184A1B49127898
:10CFB0000B70531E012B01D801F0DCFE124B002038
:10CFC0001880CEE6114A00201370CAE601F076FE02
:10CFD00000283FF4DBAEA5E704F0E2FB0028ABD06D
:10CFE000A0E70A4903230B70FB703B6813600A9AA1
:10CFF0000423136096E7054901230B70F4E7034906
:10D0000002230B70F0E700BF5407002052070020F6
:10D010003C50030858070020590700209C29002095
:10D02000400000204C0000202DE9F04F2A4C2B4DF1
:10D030002070CBB0834613F087FF13F059FB2B68A9
:10D04000B3B1274F4FF000094FF034085FFA89F66B
:10D0500008FB06F6B8190121FEF76CFE301D3844B6
:10D060000121FEF759FE2B6809F101099945EDD31D
:10D07000DFF87490DFF87480002689F8006041F2D0
:10D0800021073EB958461CF0FFF888BB99F80060AC
:10D09000002EF7D02B689BB1114F00264FF03408BB
:10D0A000F4B208FB04F438190021FEF743FE201DFA
:10D0B00038440021FEF730FE2B6801369E42EFD344
:10D0C00041F288300BF090F8064B00221A7018F0ED
:10D0D000C1FC4BB0BDE8F08F5C0700203801002098
:10D0E000FC49030859070020580700204E0700207C
:10D0F000A8F8006020781CF0C7F80028FAD0207843
:10D100001CF0FCF8B8F8002082EA002212B293B2B8
:10D11000002AACBF5B0087EA43039BB21A0454BFEA
:10D120005B0087EA43039BB21E0454BF5B0087EA9F
:10D1300043039BB2190454BF5B0087EA43039BB2CD
:10D140001A0454BF5B0087EA43039BB21E0454BF1A
:10D150005B0087EA43039BB2190454BF5B0087EA74
:10D1600043039BB21A0400F187845B002F28A8F8C0
:10D1700000308BD1002013F0F9FA20781CF084F8ED
:10D180000028FAD020781CF0B9F8B8F800300690E2
:10D19000020212B253401BB2002B07929AB2B6BFE2
:10D1A00041F22103530083EA42039AB2130446BFBB
:10D1B00041F2210383EA420353009AB2170446BFA7
:10D1C00041F2210383EA420353009AB2160446BF98
:10D1D00041F2210383EA420353009AB2100446BF8E
:10D1E00041F2210383EA420353009AB2110446BF7D
:10D1F00041F2210383EA420353009AB2130446BF6B
:10D2000041F2210383EA420353009BB21F044ABF49
:10D2100041F221025B0082EA43039BB2A8F800308E
:10D2200020781CF031F80028FAD020781CF066F83D
:10D23000B8F80030000243401BB2002B9AB2B6BFD0
:10D2400041F22103530083EA42039AB2160446BF17
:10D2500041F2210383EA420353009AB2110446BF0C
:10D2600041F2210383EA420353009AB2130446BFFA
:10D2700041F2210383EA420353009AB2170446BFE6
:10D2800041F2210383EA420353009AB2160446BFD7
:10D2900041F2210383EA420353009AB2110446BFCC
:10D2A00041F2210383EA420353009BB21A044ABFAE
:10D2B00041F221025B0082EA43039BB2A8F80030EE
:10D2C00086B220781BF0E0FF0028FAD020781CF00E
:10D2D00015F8B8F8003083EA00231BB2002B9AB28D
:10D2E000B6BF41F22103530083EA42039AB213040A
:10D2F00046BF41F2210383EA420353009AB2170466
:10D3000046BF41F2210383EA420353009AB211045B
:10D3100046BF41F2210383EA420353009AB2130449
:10D3200046BF41F2210383EA420353009AB2170435
:10D3300046BF41F2210383EA420353009AB211042B
:10D3400046BF41F2210383EA420353009BB21A0411
:10D3500046BF41F2210282EA43035B0030439BB2A5
:10D3600082B20392A8F8003020781BF08DFF0028CD
:10D37000FAD020781BF0C2FFB8F8003083EA00230F
:10D380001BB2002B9AB2B6BF41F22103530083EACD
:10D3900042039AB2170446BF41F2210383EA4203D3
:10D3A00053009AB2160446BF41F2210383EA4203B6
:10D3B00053009AB2110446BF41F2210383EA4203AB
:10D3C00053009AB2130446BF41F2210383EA420399
:10D3D00053009AB2170446BF41F2210383EA420385
:10D3E00053009AB2160446BF41F2210383EA420376
:10D3F00053009BB2190446BF41F2210282EA430363
:10D400005B0000289BB214BF02464FF48072049266
:10D41000A8F80030013A0AAB0DF1270A1344029331
:10D42000564641F2210720781BF02EFF0028FAD043
:10D4300020781BF063FFB8F8002006F8010F82EA9D
:10D44000002212B293B2002AACBF5B0087EA43030A
:10D450009BB21A0454BF5B0087EA43039BB21904D2
:10D4600054BF5B0087EA43039BB21A0454BF5B00BE
:10D4700087EA43039BB2190454BF5B0087EA430366
:10D480009BB21A0454BF5B0087EA43039BB21904A2
:10D4900054BF5B0087EA43039BB21A0400F1F58294
:10D4A0005B00A8F80030029B9E42BCD120781BF0A4
:10D4B000EBFE0028FAD020781BF020FFB8F80030EF
:10D4C00083EA00231BB2002B9AB2B6BF41F22103BC
:10D4D000530083EA42039AB2160446BF41F2210385
:10D4E00083EA420353009AB2100446BF41F221037B
:10D4F00083EA420353009AB2110446BF41F221036A
:10D5000083EA420353009AB2130446BF41F2210357
:10D5100083EA420353009AB2170446BF41F2210343
:10D5200083EA420353009AB2160446BF41F2210334
:10D5300083EA420353009BB218044ABF41F221021E
:10D540005B0082EA43039BB2A8F8003020781BF00E
:10D550009BFE0028FAD020781BF0D0FEB8F80030EF
:10D5600083EA00231BB2002B9AB2B6BF41F221031B
:10D57000530083EA42039AB2110446BF41F22103E9
:10D5800083EA420353009AB2130446BF41F22103D7
:10D5900083EA420353009AB2170446BF41F22103C3
:10D5A00083EA420353009AB2160446BF41F22103B4
:10D5B00083EA420353009AB2100446BF41F22103AA
:10D5C00083EA420353009AB2110446BF41F2210399
:10D5D00083EA420353009BB21A0446BF41F2210280
:10D5E00082EA43035B0009AF9BB20022A8F8003037
:10D5F0003A60002B00F052824FF4407305930323EE
:10D600000493002201238DF828203B609E4A207855
:10D6100000232E2113801DF0F3F89B4BB3F900304B
:10D6200083F43853002B9AB2B6BF41F22103530062
:10D6300083EA42039AB2130446BF41F2210383EA0C
:10D64000420353009AB2160446BF41F2210383EA13
:10D65000420353009AB2100446BF41F2210383EA09
:10D66000420353009AB2110446BF41F2210383EAF8
:10D67000420353009AB2130446BF41F2210383EAE6
:10D68000420353009AB2160446BF41F2210383EAD3
:10D69000420353009BB2180446BF41F2210282EAC2
:10D6A00043035B00784A9DF9181020789BB21380E1
:10D6B0001DF0A6F8744B079A1B885A4013B2002B32
:10D6C0009AB2B6BF41F22103530083EA42039AB2F1
:10D6D000110446BF41F2210383EA420353009AB288
:10D6E000130446BF41F2210383EA420353009AB276
:10D6F000160446BF41F2210383EA420353009AB263
:10D70000100446BF41F2210383EA420353009AB258
:10D71000110446BF41F2210383EA420353009AB247
:10D72000130446BF41F2210383EA420353009BB234
:10D730001E0444BF41F2210282EA4303039A207887
:10D740004FEA122658BF5B004F4A71B29BB213805A
:10D750001DF056F84C4B1B8883EA06231BB2002BA6
:10D760009AB2B6BF41F22103530083EA42039AB250
:10D77000100446BF41F2210383EA420353009AB2E8
:10D78000110446BF41F2210383EA420353009AB2D7
:10D79000130446BF41F2210383EA420353009AB2C5
:10D7A000160446BF41F2210383EA420353009AB2B2
:10D7B000100446BF41F2210383EA420353009AB2A8
:10D7C000110446BF41F2210383EA420353009BB296
:10D7D0001A04039E207846BF41F2210282EA4303E5
:10D7E0005B00294A71B29BB213801DF009F8264BE9
:10D7F0001B88F2B283EA02231BB2002B9AB2B6BF97
:10D8000041F22103530083EA42039AB2130446BF54
:10D8100041F2210383EA420353009AB2160446BF41
:10D8200041F2210383EA420353009AB2100446BF37
:10D8300041F2210383EA420353009AB2110446BF26
:10D8400041F2210383EA420353009AB2130446BF14
:10D8500041F2210383EA420353009AB2160446BF01
:10D8600041F2210383EA420353009BB218043E684D
:10D87000207846BF41F2210282EA43035B00024A5C
:10D8800071B29BB202E000BF5007002013801CF071
:10D89000B7FF904B1B8883EA06231BB2002B9AB27A
:10D8A000B6BF41F22103530083EA42039AB2110446
:10D8B00046BF41F2210383EA420353009AB21304A4
:10D8C00046BF41F2210383EA420353009AB2160491
:10D8D00046BF41F2210383EA420353009AB2100487
:10D8E00046BF41F2210383EA420353009AB2110476
:10D8F00046BF41F2210383EA420353009AB2130464
:10D9000046BF41F2210383EA420353009BB21E0447
:10D9100044BF41F2210282EA43033A686D4958BF8D
:10D920005B009BB2002A0B804CDD002341F22102F8
:10D930001E46CDF80CB01AF801BF207802924FFABB
:10D940008BF11CF05DFF634B029A198881EA0B236F
