:020000040800F2
:1000000000000220A5E50108095901080B59010863
:10001000135901081B590108235901080000000069
:100020000000000000000000000000002B59010843
:100030002D590108000000002F590108E958010856
:10004000F9E50108F9E50108F9E50108F9E5010814
:10005000F9E50108F9E50108F9E50108F9E5010804
:10006000F9E50108F9E50108F9E50108F9E50108F4
:10007000F9E50108F9E50108715A0108F9E50108F7
:10008000F9E50108295A0108F9E50108F9E501082F
:10009000F9E50108F9E50108F9E50108F9E50108C4
:1000A000F9E50108F9E50108F9E50108F9E50108B4
:1000B000315901087D590108F9E50108D15A0108B3
:1000C000CB5A0108DD5A0108D75A0108F9E50108A1
:1000D000F9E50108B95A0108BF5A0108C55A0108D3
:1000E000F9E50108F9E50108F9E50108F9E5010874
:1000F000F9E50108F9E50108F9E50108F9E5010864
:10010000F9E50108F9E50108F9E50108F9E5010853
:10011000F9E50108F9E50108F9E50108F9E5010843
:10012000F9E50108F9E5010895590108F9E5010823
:10013000F9E50108F9E50108F9E50108F9E5010823
:10014000F9E50108F9E50108F9E50108F9E5010813
:10015000F9E50108F9E50108E1590108F9E50108A7
:10016000F9E50108F9E50108F9E50108F9E50108F3
:10017000F9E50108F9E50108F9E50108F9E50108E3
:08018000F9E50108F9E50108A9
:1080000010B540F28874C2F20004237863B940F2DC
:108010000000C0F2000028B140F28C70C0F60200EF
:10802000AFF300800121217010BD00BF08B540F200
:108030000003C0F200034BB140F28C7040F28C712F
:10804000C0F60200C2F20001AFF3008040F2887077
:10805000C2F20000016829B140F20003C0F200033F
:1080600003B1984708BD00BF70B542F2FB16C3F6D6
:10807000E97621F00043B34286B01CDD4FF6FF7273
:10808000C7F6EF72934205DD02460B4604F084F911
:1080900006B070BD02AA00F01FFD00F00303DDE989
:1080A0000201012B13D0022B0AD0C3B9DDE904234E
:1080B00002F016F9ECE70022002302F011F9E7E7DD
:1080C000DDE9042302F00CF901F10041E0E700933F
:1080D000DDE9042302F048FE01F10041D8E7012365
:1080E0000093DDE9042302F03FFED1E770B542F2D0
:1080F000FB16C3F6E97621F00043B34286B01EDDDD
:108100004FF6FF72C7F6EF72934205DD02460B464B
:1081100004F042F906B070BD02AA00F0DDFC00F0E8
:10812000030001281DD0022810D008BB0123DDE97F
:1081300002010093DDE9042302F016FEEAE70022C3
:1081400000230024009402F00FFEE3E70123DDE9A1
:1081500002010093DDE9042302F006FE01F1004173
:10816000D8E7DDE90201DDE9042302F0B9F8D1E73F
:10817000DDE90201DDE9042302F0B2F801F100417A
:10818000C8E700BF40F6D87320F00042C3F6497339
:1081900001469A4200B583B015DDB2F1FF4F03DB13
:1081A00004F0C4FD03B000BD694601F095FE00F087
:1081B00003020098012A10D0022A08D09AB9019926
:1081C00002F086FEEEE7002102F082FEEAE7019966
:1081D00002F07EFE00F10040E4E7019903F06AFA44
:1081E00000F10040DEE70122019903F063FAD9E7CC
:1081F00040F6D87320F00042C3F6497301469A4214
:1082000000B583B016DDB2F1FF4F03DB04F08EFD45
:1082100003B000BD694601F05FFE00F003000128D5
:1082200015D002280BD0B8B900980122019903F0AB
:1082300041FAEDE70021002203F03CFAE8E700985C
:108240000122019903F036FA00F10040E0E70098BE
:10825000019902F03DFEDBE70098019902F038FE3B
:1082600000F10040D4E700BF00F022BB2DE9D04F61
:108270008AB006460F4600F053FE40F20004C2F2F8
:10828000000494F9003001338046894631D03046ED
:10829000394603F0DDFC00282BD04FF0000A4FF0E8
:1082A000000B3046394652465B4604F09BFC00B357
:1082B000247840F26073C0F602030122CDE904671E
:1082C0008DE80C000023CDE902670893B4B1504655
:1082D000594652465B4604F03DFB022CCDE90601AF
:1082E0000ED105F039F821230360089B73B9DDE94D
:1082F0000689404649460AB0BDE8D08FCDE906ABB5
:10830000684603F0EDFC0028EFD1EAE705F024F819
:10831000089B0360EBE700BF70B58AB0064600F02B
:10832000DBFE40F20004C2F2000494F90030013395
:10833000054603D0304603F077FF10B928460AB04F
:1083400070BD304603F016FF4FF07E5104F0B4FFCD
:108350000028F3D040F268733046C0F60203019360
:10836000012300930023089304F076F9024640F2BB
:108370007470C0F602000B46CDE90423CDE9022358
:1083800003F0B0FC94F90030022BCDE906010BD0CC
:10839000684603F0A5FC38B1089B53B9DDE9060136
:1083A00004F070FC0546C9E704F0D6FF2123036002
:1083B000F2E704F0D1FF089B0360EFE701F018B883
:1083C00070B58AB0054601F0BFF840F20004C2F271
:1083D000000494F90030013306463DD0284603F0EE
:1083E000CDFE002838D04FF4E3412846C4F2B12135
:1083F00004F062FF002832D14FF2B5112846CCF2CA
:10840000CF2104F03BFF38B340F270732846C0F62A
:1084100002030193042300930023089304F01CF942
:1084200094F9004000220023022CCDE90623CDE977
:108430000401CDE9020135D0684603F051FC002863
:1084400030D0089B1BB104F087FF089B0360DDE977
:10845000060104F017FC064630460AB070BD40F233
:1084600070732846C0F60203019303230093002390
:10847000089304F0F1F82478CDE90401CDE9020174
:1084800044B94FF6FF734FF06042C4F2EF73CDE989
:108490000623D1E700220023022CC7F6F073CDE9B2
:1084A0000623C9D104F058FF22230360C9E700BFA7
:1084B0002DE9F0418AB007460D4601F059F940F226
:1084C0000004C2F2000494F900300133064603D0E0
:1084D000284603F0A9FE18B930460AB0BDE8F0817D
:1084E000384603F0A1FE8046002832D128460021FC
:1084F00004F0BAFE0028EFD040F278733846C0F698
:108500000203CDF8208001930123009304F0A4F826
:10851000CDE90201284604F09FF894F900400023B9
:108520000022A4F1FF36C3F6F073CDE906237342AF
:1085300043EB0603022C14BF1C4643F00104CDE9B3
:108540000401002C32D0DDE9060104F09BFB064655
:10855000C2E73846002104F087FE002833D02846C1
:10856000002104F081FE00286AD040F2787338467A
:10857000C0F602030193012300930023089304F043
:108580006BF8CDE90201284604F066F894F9004042
:1085900000220023CDE90623CDE9040134B10023F4
:1085A0000022C3F6F073CDE90623CCE7684603F05A
:1085B00097FB002874D0089B002BC4D004F0CCFE9D
:1085C000089B0360BFE7304603F0D8FD80460028D3
:1085D0006BD03046002104F047FE00283FF47CAF0A
:1085E000384603F0CBFD00283FF476AF284603F071
:1085F000C5FD00283FF470AF40F278733846C0F6EE
:1086000002030193042300930023089304F024F849
:10861000CDE90201284604F01FF894F90040002239
:108620000023022CCDE90623CDE904016BD0684676
:1086300003F056FB002866D0089B002B83D0BDE7D3
:10864000284603F09BFD00283FF446AF2846002152
:1086500004F014FE00283FF43FAF40F27873384630
:10866000C0F602030193012300930023089303F053
:10867000F3FFCDE90201284603F0EEFF2478002243
:108680000023CDE90401002C35D0022CCFF6F07385
:10869000CDE9062331D104F05FFE21230360CBE74F
:1086A00004F05AFE2123036085E7384603F066FD97
:1086B00000288ED0284603F061FD002889D030467E
:1086C00003F0B2FD40F27873024608BB3846C0F6AC
:1086D0000203089201930123009303F0BDFFCDE94B
:1086E0000201284603F0B8FF2478CDE90401002CEC
:1086F00063D100220023CDE90623684603F0F0FA97
:10870000002899D1C7E704F027FE2223036093E7EE
:108710003846C0F60203CDF820800193032300936E
:1087200003F09AFFCDE90201284603F095FF94F982
:108730000030CDE9040138460021D3B94FF6FF736C
:108740004FF06042C4F2EF73CDE9062304F096FDCA
:1087500000283ED194F90030022B05D0684603F082
:10876000BFFA00287FF427AF04F0F6FD2223036050
:1087700021E700230022C7F6F073CDE9062304F0B9
:108780007DFD0028E6D04FF07C51284604F0D8FB50
:1087900003F062FF06460F4603F0AAFA02460B46B4
:1087A0003046394604F014FA0028D3D100230022C1
:1087B000CFF6F073CDE90623CCE700200021024676
:1087C0000B4604F0C7F8022CCDE906013FF463AF75
:1087D00093E74FF07C51284604F0B2FB03F03CFFD6
:1087E00006460F4603F084FA02460B4630463946E9
:1087F00004F0EEF90028ADD14FF6FF734FF0604260
:10880000CCF2EF73CDE90623A4E700BF70B58AB0C0
:10881000064601F00DFD40F20004C2F2000494F996
:1088200000300133054630D0304603F0FDFC00280F
:108830002BD03046002104F021FD30B340F280738C
:108840003046C0F6020301930123009300230893EE
:1088500003F002FF2478CDE90401CDE90201BCB1A7
:108860000020002102460B4604F074F8022CCDE9EA
:10887000060111D104F070FD21230360089B8BB920
:10888000DDE9060104F0FEF9054628460AB070BD90
:1088900000220023CDE90623684603F021FA0028D0
:1088A000ECD1E7E704F058FD089B0360E8E700BF60
:1088B0002DE9F04F83B014461D46CDE90023524206
:1088C0002243002325F00047C7F6F07347EAD2722F
:1088D00082469A428B4606464ED8424221F0004CD0
:1088E000024388464CEAD2729A4245D805F1404389
:1088F00003F58013234363D0AB175CEA060603F04D
:10890000020343EAD17944D03C4351D00023C7F657
:10891000F0739F4267D00023C7F6F0739C4547D0A1
:10892000C7EB0C073F153C2F59DC17F13C0FACBFD0
:108930000027012717EAD57700F084800020002166
:10894000B9F1010F04BF824601F1004B1CD0B9F10F
:10895000020F68D082468B46B9F1000F14D04CA3A9
:10896000D3E9002303F018FD4BA3D3E9002303F060
:1089700013FD82468B4607E050465946DDE9002349
:1089800003F00CFD82468B465046594603B0BDE8C5
:10899000F08FB9F1030FB7D801A353F829F000BF46
:1089A0008989000889890008D5890008CB890008D1
:1089B000B8F1000F32DB0FF2E80BDBE900ABE3E7C5
:1089C00003B0BDE8F04F02F0F7BE0FF2DC0BDBE9BD
:1089D00000ABD9E70FF2C00BDBE900ABD4E730A165
:1089E000D1E90001ACE7BC4537D0B9F1030F92D80B
:1089F00001A353F829F000BF138A0008098A000870
:108A0000D5890008CB8900084FF0000A4FF0004BD1
:108A1000BAE74FF0000A4FF0000BB5E70FF2900BEA
:108A2000DBE900ABB0E71AA3D3E9002303F0B4FC01
:108A300002460B4618A1D1E9000103F0ADFC8246C5
:108A40008B46A1E7DDE900235046594603F082FF3B
:108A500003F05AF802F0B0FE72E7B9F1030FA7D89D
:108A6000DFE809F0110C07020FF24C0BDBE900AB59
:108A70008AE70FF24C0BDBE900AB85E70FF2480BFE
:108A8000DBE900AB80E70FF2480BDBE900AB7BE7EB
:108A9000075C143326A6A13C182D4454FB21094041
:108AA000182D4454FB21F93F182D4454FB2109C0D3
:108AB000182D4454FB21F9BFD221337F7CD902C049
:108AC000D221337F7CD90240182D4454FB21E9BFC9
:108AD000182D4454FB21E93F42F2FB132DE9F04FDE
:108AE000C3F6E97321F000468FB09E4204460D465E
:108AF0008846174640F3A3804DF67B13C4F2020369
:108B00009E4226DC002996A3D3E9002340F3B281DC
:108B100003F042FC42F2FB13C3F6F9739E42804617
:108B2000894600F0A18090A3D3E90023012403F03B
:108B300033FC02460B46C7E900014046494603F0B4
:108B40002BFC89A3D3E9002303F026FCC7E902012B
:108B50007CE042F2FB13C4F239139E4240F3A18041
:108B60004FF6FF73C7F6EF739E4273DC4FEA265948
:108B70008246A9F58269A9F106094FEA0951731ADB
:108B800019469B4604F056F803F054FD04460D4682
:108B900002460B4650465946CDE9084503F0FCFB1A
:108BA00000230022C4F2701303F0AAFD04460D4610
:108BB00004F040F803F03EFD02460B4682468B4629
:108BC00020462946CDE90AAB03F0E6FB002300224C
:108BD000C4F27013032403F093FD00220023CDE9B7
:108BE0000C0103F0F5FF90B10324504659460022D2
:108BF00000230AAD013C03F0EBFF40B175E902012F
:108C000000220023013C03F0E3FF0028F6D12346B5
:108C10005D4C08A839464A4601940224009401F0AC
:108C200087FCB8F1000F044610DA7A684442FB680A
:108C300002F100427A6003F10043FB6006E0C2E902
:108C40000045002400220023C7E9022320460FB07C
:108C5000BDE8F08F02460B4603F09EFB0024C7E9F7
:108C60000201C7E90001F1E741A3D3E90023012490
:108C700003F092FB40A3D3E900238046894603F02A
:108C80008BFB02460B46C7E900014046494603F00C
:108C900083FB39A3D3E9002303F07EFBC7E902017C
:108CA000D4E702F031FF36A3D3E9002382468B4696
:108CB00003F026FD00230022C3F6E07303F06EFBF1
:108CC00003F0B8FF044603F0B5FC25A3D3E9002365
:108CD000CDE9040103F014FD02460B465046594607
:108CE00003F05AFB20A3D3E9002382468B46DDE93B
:108CF000040103F005FD1F2CCDE902015046594641
:108D000044DC4FF64433621EC0F6010353F82230B0
:108D1000B3423BD0DDE9022303F03EFB81460D4622
:108D200002460B46C7E900234A462B4650465946A1
:108D300003F032FBDDE9022303F02EFBB8F1000F54
:108D400002460B46C7E9022380DA05F1004501F12E
:108D50000041C7F8009064427D60B860F96075E733
:108D600000004054FB21F93F3163621A61B4D03DE9
:108D70000000601A61B4D03D7370032E8A19A33BC2
:108D800083C8C96D305FE43FC4FB0108DDE90223FD
:108D9000361503F001FBC1F30A538146F31A0D4661
:108DA000102BC7E90001BFDD53A3D3E90023DDE9A0
:108DB000040103F0A5FCCDE902015046DDE90223E0
:108DC000594603F0E9FACDE9060150465946DDE976
:108DD000062303F0E1FADDE9022303F0DDFA48A3FC
:108DE000D3E9002382468B46DDE9040103F088FCC9
:108DF00052465B4603F0D0FACDE90201DDE90223D9
:108E0000DDE9060103F0C8FAC1F30A538146F31AFB
:108E10000D46312BC7E900016BDD3BA3D3E90023ED
:108E2000DDE9040103F06CFCCDE90201DDE9022378
:108E3000DDE9060103F0B0FA82468B4652465B46F6
:108E4000DDE9060103F0A8FADDE9022303F0A4FA44
:108E50002FA3D3E90023CDE90201DDE9040103F0EA
:108E60004FFCDDE9022303F097FACDE902015046F9
:108E700059464FE703F092FA42F2FB13C3F6F97337
:108E80009E428046894616D023A3D3E900234FF0A3
:108E9000FF3403F083FA02460B46C7E9000140465F
:108EA000494603F079FA1CA3D3E9002303F076FACC
:108EB000C7E90201CAE610A3D3E900234FF0FF344B
:108EC00003F06CFA0EA3D3E900238046894603F031
:108ED00065FA02460B46C7E900014046494603F0E1
:108EE0005BFA07A3D3E9002303F058FAC7E90201AC
:108EF000ACE6DDE906AB17E70000601A61B4D03DCF
:108F00007370032E8A19A33B0000002E8A19A33B1D
:108F1000C14920259A837B393163621A61B4D03DFF
:108F20002DE9F84300242546C7F6F074C7F6F0751E
:108F30000C40AC4206460F4689460B46024600F0FE
:108F4000AB8000297FDD091500F08880A1F57E7CCB
:108F500023F07F43C90723F47003ACF1070C43F4FB
:108F6000801362D5D10F002701EB43034FEA6C0C4D
:108F70005200162438464FF400114518D60F9D4272
:108F80004FEA4202DEBFC5EB030368187F184908A9
:108F9000013C06EB4303F0D12026A0464FF00041F0
:108FA000984201EB08050EDB834214BF4FF0000925
:108FB0004FF0010995428CBF4FF0000909F00109FB
:108FC000B9F1000F0ED005F0004905EB0108B9F129
:108FD000004F23D081461B1A954288BF013B521B8C
:108FE00064184846D50F49085200013E05EB43037B
:108FF000D6D113431ED164087B10FA0703F17E53C8
:1090000048BF44F0004403F5C0034FEA0C5C0CEB8E
:109010000307264630463946BDE8F883B8F1000F0D
:10902000A8BF00F10109D6DAD4E7D10F520001EB55
:10903000430397E7611C1CBF04F001031C19DAD13C
:1090400001373446D8E721F000440443E2D0002938
:1090500036D1D30A15395205002BFAD013F48010FB
:109060002AD15B000130DC02FBD5C0F10105C0F163
:10907000200432FA04F449192343A1F57E7C82408E
:1090800023F07F43C90723F47003ACF1070C43F4CA
:1090900080133FF567AFC8E702460B4603F030FB8D
:1090A00002460B463046394603F078F906460F462D
:1090B00030463946BDE8F883202401250020D8E752
:1090C00002460B4603F068F902460B4603F042FCE9
:1090D00006460F469EE700BF2DE9F04720F0004509
:1090E000B5F17E5F0446064600F0FD8000F3D580B2
:1090F000B5F17C5F10DAB5F1485F80F20A814FF27A
:10910000CA21C7F2491103F013FE4FF07E5104F05B
:10911000D3F8002840F0C880204603F02BF8014621
:109120004FF07E5003F002FE4FF07C5103F008FF39
:109130004EF60871C3F61101044603F001FF47F62D
:109140000471C3F64F2103F0F3FD214603F0F8FE4E
:1091500041F24611C3F6245103F0E8FD214603F025
:10916000EFFE40F6A821C3F64E6103F0E1FD214673
:1091700003F0E6FE4BF29001C3F6A66103F0D6FDC4
:10918000214603F0DDFE4AF6AB21C3F62A6103F067
:10919000CFFD214603F0D4FE4CF22E61C3F69D5163
:1091A0008146204603F0CCFE43F26131C3F63071B4
:1091B00003F0BCFD214603F0C3FE45F22D71C4F25D
:1091C000010103F0B5FD214603F0BAFE4DF239115D
:1091D000C4F2190103F0AAFD214603F0B1FE4FF0DD
:1091E0007E5103F0A5FD8046204601F021F849F6A6
:1091F0009913C3F679739D42074658DC014620F463
:109200007E6503F095FD414625F01F0582464846E0
:1092100003F04AFF0146504603F092FE294680467D
:10922000284603F08DFE0146204603F07FFD2946C7
:109230000446384603F07CFD0146204603F034FF27
:10924000014603F075FD01464BF62E50CBF23B3044
:1092500003F06CFD0146404603F068FD29460446D4
:10926000284603F065FD014640F6DB70C3F6497001
:1092700003F05CFD0146204603F058FD014640F630
:10928000DB70C3F6497003F051FD002ED4BF00F12E
:10929000004404462046BDE8F087014603F046FD41
:1092A000014603F001FF04462046BDE8F087414631
:1092B000484603F0F9FE0146384603F041FE3946C0
:1092C00003F036FD014603F033FD4BF62E51C3F299
:1092D0003B3103F02DFD014640F6DB70C3F6C9704B
:1092E00003F024FDD1E740F6DB71C3F6C97103F04A
:1092F00027FE4BF62E51CBF23B310546204603F0BC
:109300001FFE0146284603F013FD04462046BDE833
:10931000F087014603F014FE4EF60871C3F6110102
:10932000054603F00DFE47F60471C3F64F2103F026
:10933000FFFC294603F004FE41F24611C3F6245116
:1093400003F0F4FC294603F0FBFD40F6A821C3F628
:109350004E6103F0EDFC294603F0F2FD4BF2900163
:10936000C3F6A66103F0E2FC294603F0E9FD4AF6E4
:10937000AB21C3F62A6103F0DBFC294603F0E0FDD4
:109380004CF22E61C3F69D510646284603F0D8FDE7
:1093900043F26131C3F6307103F0C8FC294603F093
:1093A000CFFD45F22D71C4F2010103F0C1FC294645
:1093B00003F0C6FD4DF23911C4F2190103F0B6FCF9
:1093C000294603F0BDFD4FF07E5103F0B1FC01468C
:1093D000304603F069FE0146204603F0B1FD014628
:1093E000204603F0A5FC04462046BDE8F08700BFF8
:1093F000F8B520F00044B4F1FF4F21F00046D4BF8F
:1094000000270127B6F1FF4FC8BF47F00107034609
:10941000002F45D1B1F17E5F4CD08F1707F00207C6
:1094200047EAD0774CB9022F3FD0032F03D140F643
:10943000DB73CCF249031846F8BD36B3B6F1FF4FE3
:1094400055D0B4F1FF4F20D0A41BE4153C2CC4BF71
:1094500040F6DB70C3F6C97030DD012F08BF00F1A4
:109460000043E8D0022F33D00346002FE3D04BF661
:109470002E51C3F2BB3103F05BFC40F6DB71C4F24A
:10948000490103F053FC0346D5E7002840F6DB739F
:10949000B8BFCBF6C973CEDBC3F6C9731846F8BDA7
:1094A00003F046FC03461846F8BD40F6DB73C4F2F1
:1094B0004903C0E7BDE8F84002F03EBD14F13C0F9F
:1094C000ACBF0024012414EAD1741DD00020C4E7ED
:1094D0004BF62E51C3F2BB3103F02AFC014640F695
:1094E000DB70C4F2490003F021FC0346A3E7B4F1AA
:1094F000FF4F10D0022FD8D0032F98D00023012F78
:1095000099D14FF0004396E703F0CEFD02F032FE12
:1095100002F012FDA1E7022F04BF4CF6E433C4F2BF
:10952000160388D0032F04BF4CF6E433CCF21603A5
:1095300081D0012F40F6DB7318BFC3F649737FF467
:109540007AAFCBF6497376E720F00042B2F1FF4FD5
:109550002DE9F843044600F2B0804FEAD07500F0E0
:10956000B38047F21721C4F2B121884200F3B280E0
:109570004FF2B513C4F2CF239A4294BF002305F0F3
:109580000103002B40F0A28047F21821C3F6B1611D
:109590008A4240F2AA8041F29153C3F685739A42FF
:1095A00040F2D4804AF63B21C3F6B87103F0C8FC00
:1095B0004FF6CC43C0F6010303EB8503196903F0B2
:1095C000B7FB03F083FE074603F066FC4FF4E3416C
:1095D000C3F63171054603F0B3FC0146204603F0A3
:1095E000A5FB4FF2D171C3F217718046284603F0F4
:1095F000A7FC81464046494603F098FB04462146B5
:10960000204603F09DFC4BF64C31C3F23131064647
:1096100003F096FC4EF60E21C3F2DD5103F086FBFB
:10962000314603F08DFC4BF25531C3F68A0103F04D
:109630007FFB314603F084FC40F66131C3F63631DE
:1096400003F074FB314603F07BFC4AF6AB21C3F612
:109650002A6103F06DFB314603F072FC014620469F
:1096600003F064FB0546002F58D00146204603F066
:1096700067FC294604464FF0804003F057FB014643
:10968000204603F011FDFC050146484603F04EFB61
:10969000414603F04BFB01464FF07E5003F046FB82
:1096A00017F17D0F04440CDA64374FF05861FF0561
:1096B000381803F045FC044603E0014603F038FB8C
:1096C00004462046BDE8F883002DFAD00024204649
:1096D000BDE8F8834FF2CA20C7F24910014603F0F3
:1096E0002FFC04462046BDE8F883B2F1465F28BF50
:1096F0001F4684D24FF2CA21C7F2491103F018FB6A
:109700004FF07E5103F0D8FD00283FF478AF20469B
:109710004FF07E5103F00CFB0446D2E72046294669
:1097200003F00EFC4FF080410646284603F0FEFA97
:109730000146304603F0B8FC214603F0F7FA014633
:109740004FF07E5003F0F2FA0446BAE74FF6CC44ED
:109750006F42C0F6010454F8251004EB850403F0B1
:10976000E5FA7D1BD4F808906F1C804642E700BFE5
:109770002DE9F04F31F0004987B00C460D46824686
:109780004BD020F000478046B7F1FF4FD4BF0026F2
:109790000126B9F1FF4FC8BF46F00106002E39D1AE
:1097A000002864DBB9F1FF4F46D0B9F17E5F4AD0A3
:1097B000B5F1804F504600F09F80B5F17C5F02D13B
:1097C000B8F1000F71DA02F0D5FCA7F1FF42534265
:1097D00043EB0203002F08BF43F001030146002BB7
:1097E0003CD1B7F17E5F39D04FEAD87808F1FF3825
:1097F00056EA080200F08580B9F19A4F40F3928052
:109800004FF6F773C3F67F739F4264DC002D6ADB6B
:10981000002404E0B7F17E5F05D14FF07E5420466E
:1098200007B0BDE8F08F40F27470C0F6020007B0D8
:10983000BDE8F04F02F036BDB7F17E5FEDD02DDD13
:10984000002DECDAE4E7002DA8BF5446E7DA4FF02C
:109850007E50514603F028FC0446E0E7002DA8BFE7
:10986000084633DBB8F1000F24DB0446D7E7B9F133
:10987000974F11DAB9F17E5F97DB4FEAE953C3F1F5
:10988000960349FA03F212FA03F34B4504BF02F0C0
:109890000102C2F1020688E7022683E7002DB8BF65
:1098A00004F10044BBDB0024B9E707B0BDE8F04F8A
:1098B00000F0BEBCA7F17E5737432BD1014603F021
:1098C00035FA014603F0F0FB0446A8E74FF07E505E
:1098D00003F0EAFBC6E70723C3F680739F4240F319
:1098E000AB82002D94DD4FF2CA20C7F24910014629
:1098F00003F026FB044692E7514603F021FB0446A1
:109900008DE75146504603F011FA014603F0CCFBB7
:10991000044684E7012E08BF00F100443FF47FAF06
:1099200004467CE7B7F5000F06DA4FF0974103F0E5
:1099300007FB6FF01703074627F07F424CF2714197
:10994000F81522F40002C0F21C017F388A42184444
:1099500042F07E57059040F302824BF2D633C0F2BC
:109960005D039A4240F3AF820023A7F50007194632
:10997000421C05924FF6E4423846C0F601020293BB
:1099800002EB810ECDF810E052F821B0BA465946EC
:1099900003F0CCF939460390584603F0C9F9014663
:1099A0004FF07E5003F080FB02460398114601926F
:1099B00003F0C6FA7910029B41F0005101F58021B5
:1099C000CB180293194620F47E67814627F01F07C3
:1099D000384603F0B5FA0146039803F0A7F9029B55
:1099E000594684461846CDF808C003F09FF9014651
:1099F000504603F09BF9394603F0A2FADDF808C09F
:109A00000146604603F092F9019A114603F098FA74
:109A100049468346484603F093FA0146824603F0DE
:109A20008FFA4FF24211C3F6536103465046029338
:109A300003F086FA43F25521C3F66C6103F078F91E
:109A4000514603F07DFA4AF20531C3F68B6103F00B
:109A50006FF9514603F074FA4AF6AB21C3F6AA61D6
:109A600003F066F9514603F06BFA46F6B751C3F6B8
:109A7000DB6103F05DF9514603F062FA49F69A1191
:109A8000C3F6197103F054F9029B0146184603F01E
:109A900057FA39468246484603F04AF9594603F0D8
:109AA0004FFA514603F044F939460390384603F023
:109AB00047FA0021C4F24001029003F039F90399FA
:109AC00003F036F920F47E6A38462AF01F0A514620
:109AD00003F036FA51460746584603F031FA0021A2
:109AE000C4F240018346504603F020F9029B194618
:109AF00003F01CF90146039803F018F9494603F0F6
:109B00001FFA0146584603F013F983463846594672
:109B100003F00EF94FF46051C3F6767120F47E69BC
:109B200029F01F09484603F00BFA4CF2A031C3F2AA
:109B30009D618246484603F003FA3946034648468B
:109B4000029303F0F3F80146584603F0EFF843F6AA
:109B50004F01C3F6767103F0F3F9029B01461846F4
:109B600003F0E6F8049A916803F0E2F807460598D6
:109B700003F092F9049B3946D3F810B08146504661
:109B800003F0D6F8594603F0D3F8494603F0D0F86D
:109B9000494620F47E6929F01F09484603F0C6F8BB
:109BA000594603F0C3F8514603F0C0F8013E0146A0
:109BB000384603F0BBF856EA080618BF4FF07E5649
:109BC000074602D10026CBF6807625F47E65204636
:109BD00025F01F05294603F0A9F8494603F0B0F91E
:109BE00039468046204603F0ABF90146404603F073
:109BF0009FF829468046484603F0A2F905460146EB
:109C00004046AA4603F094F8002807460446034657
:109C100020F0004940F3F280B9F1864F00F3B380A1
:109C200000F0A080B9F17C5FDCBF4FF000094F4627
:109C300000F3B88023F47E644FF4E44124F01F0461
:109C4000C3F63171204603F07BF9514605462046A4
:109C500003F06CF80146404603F068F847F218211B
:109C6000C3F6317103F06CF94BF68C61C3F2BF514E
:109C70008046204603F064F90146404603F058F858
:109C800080462846414603F053F82946044603F02F
:109C90004DF80146404603F049F8214680462046EB
:109CA00003F04EF94BF64C31C3F23131054603F067
:109CB00047F94EF60E21C3F2DD5103F037F829467D
:109CC00003F03EF94BF25531C3F68A0103F030F848
:109CD000294603F035F940F66131C3F6363103F019
:109CE00025F8294603F02CF94AF6AB21C3F62A6180
:109CF00003F01EF8294603F023F90146204603F03D
:109D000015F805462046294603F01AF94FF0804120
:109D10008246284603F00AF80146504603F0C4F98B
:109D200041460546204603F00BF9414603F000F892
:109D30000146284602F0FAFF214602F0F7FF0146ED
:109D40004FF07E5002F0F2FF09EB0001B1F5000F79
:109D5000C0F2BD80304603F0F3F804465FE500230F
:109D6000194607E64AF63C214046C3F2383102F074
:109D7000DFFF29468246384602F0D8FF01465046AA
:109D800003F09AFA70B14FF2CA213046C7F2491176
:109D900003F0D6F84FF2CA21C7F2491103F0D0F808
:109DA00004463CE54FEAE9594FF40003A9F17E0966
:109DB0004FF6FF7143FA09F3C0F27F011B1923F03C
:109DC0007F47C3F3C75227F40007A2F17F0047F48F
:109DD00000070141C2F1960223EA0101174128461A
:109DE000002CB8BF7F4202F0A1FF4FEAC75982465C
:109DF0004046514602F09CFF03461BE70022C4F296
:109E00001632914509DC7FF40DAF294602F08EFF32
:109E1000414603F047FA0028C4D044F2602130469E
:109E2000C0F6A25103F08CF844F26021C0F6A251B2
:109E300003F086F80446F2E44FF07E5102F076FF1C
:109E40004FF42A41C3F6B871074603F079F84AF295
:109E50007051C3F2EC618146384603F071F839461F
:109E60008246384603F06CF84FF07A518346384604
:109E700003F066F801464AF6AB20C3F6AA6002F08A
:109E800055FF394603F05CF801464FF07C5002F074
:109E90004DFF0146584603F053F84AF63B21C3F6FE
:109EA000B87103F04DF80146504602F03FFF0746F7
:109EB0004846394602F03CFF494620F47E6929F0C5
:109EC0001F09484670E64FF40013012152E5394658
:109ED00002F0ECF901463DE740F6D8732DE9F04F6A
:109EE000C3F6497320F0004B89B09B4505460C46EC
:109EF00040F38C804CF6E333C4F216039B4526DC1A
:109F000000284FF47861C3F6C97140F3538102F021
:109F10000DFF4FF47D632BF00F0BC3F6C9739B4508
:109F2000054600F0828044F243410126C3F23571B8
:109F300002F0FCFE01462060284602F0F7FE44F2E3
:109F40004341C3F2357102F0F1FE606062E04FF40C
:109F50007863C4F249339B4540F38280BBF1FF4FE5
:109F60005CDA4FEAEB59A9F186094FEAC953C3EB12
:109F70000B0B584603F0AAF902F08EFF0346014688
:109F80005846059302F0D2FE4FF0874102F0D8FF09
:109F9000064603F09BF902F07FFF01460746304674
:109FA000069702F0C3FE4FF0874102F0C9FF00217F
:109FB0000326079003F058F988B10326384600219C
:109FC0000DF11808013E03F04FF940B158F8047D37
:109FD0000021013E384603F047F90028F6D1334608
:109FE000924E05A821464A4601960226009601F0A7
:109FF0004BF8002D06460DDA22684642636802F1EE
:10A000000042226003F10043636003E00026002366
:10A0100008604B60304609B0BDE8F08F014600266D
:10A0200002F084FE60602060F4E74FF4884101266E
:10A03000C3F2357102F07AFE4AF20831C2F6856148
:10A04000054602F073FE01462060284602F06EFECF
:10A050004AF20831C2F6856102F068FE6060D9E715
:10A0600002F088F84FF68411C3F62271074602F019
:10A0700067FF4FF07C5102F05BFE03F027F90646C4
:10A0800002F00AFF4FF47861C3F6C971824602F00C
:10A0900057FF0146384602F049FE44F24341C3F2FD
:10A0A00035718046504602F04BFF1F2E81464046D8
:10A0B00021DC4FF6FC43711EC0F601032BF0FF02BA
:10A0C00053F821309A4216D0494602F02FFE074637
:10A0D00020603946404602F029FE494602F026FE3D
:10A0E000002D606096DA07F1004700F1004027601C
:10A0F000764260608EE749464FEAEB5B02F016FE5F
:10A10000C0F3C7530746C3EB0B032060082BE0DD09
:10A110004FF488415046C3F2357102F011FF0746F3
:10A120004046394602F002FE03904046039902F091
:10A13000FDFD394602F0FAFD4AF20831C2F68561AA
:10A140000746504602F0FCFE394602F0EFFD81461C
:10A150000398494602F0EAFDC0F3C7530746C3EB34
:10A160000B0B2060BBF1190FD8BFDDF80C80B0DD00
:10A170004FF423415046C2F6856102F0E1FE0746E6
:10A180000398394602F0D2FD80460398414602F01A
:10A19000CDFD394602F0CAFD43F23211C2F28D41C3
:10A1A0000746504602F0CCFE394602F0BFFD81461C
:10A1B000404689E702F0BCFD4FF47D632BF00F0BA6
:10A1C000C3F6C9739B45054614D044F243414FF092
:10A1D000FF36C3F2357102F0ABFD01462060284620
:10A1E00002F0A4FD44F24341C3F2357102F0A0FD38
:10A1F00060600FE74FF488414FF0FF36C3F23571CE
:10A2000002F096FD4AF20831C2F68561054602F079
:10A210008FFD01462060284602F088FD4AF2083191
:10A22000C2F6856102F084FD6060F3E67CFD010802
:10A2300020F000420346B2F1FF4F70B5044639D218
:10A24000002A35D000283FDBC115B2F5000F09D236
:10A2500010F4000240D15B0001321802FBD5C2F1BC
:10A260000102891823F07F43A1F17F0223F4000348
:10A27000D10743F4000348BF5B00002654101921A6
:10A280005B0035464FF08072A8189842DEBFC0EBE5
:10A2900003038518B61852085B000139F4D113B1D5
:10A2A00006F001039E197610E40506F17C56A41908
:10A2B000204670BD014602F043FE0146204602F0F2
:10A2C00037FD0446204670BD014602F02FFD0146D1
:10A2D00002F0EAFE0446EBE701228918C2E700BF5C
:10A2E0002DE9F04F21F0004487B0B4F1795F80464A
:10A2F0008946CDE900236DDA02F09CFC002800F0CD
:10A30000F78042464B464046494602F0F9F97CA3A5
:10A31000D3E9002306460F4602F0F2F97AA3D3E907
:10A32000002302F03BF832463B4602F0E9F978A3FD
:10A33000D3E9002302F030F832463B4602F0E0F960
:10A3400075A3D3E9002302F029F832463B4602F018
:10A35000D7F973A3D3E9002302F01EF832463B4637
:10A3600002F0CEF970A3D3E9002302F017F83246C9
:10A370003B4602F0C5F982468B4600230022304658
:10A380003946C3F6E07302F0BBF952465B46CDE9AD
:10A3900002013046394602F0B3F9DDE900230446F4
:10A3A0000D464046494602F0ABF902460B462046B0
:10A3B000294601F0F1FF02460B46DDE9020101F0FA
:10A3C000EBFF0B4600210246C3F6F071002001F0BE
:10A3D000E3FF7FE002460B4602F092F948A3D3E97F
:10A3E000002306460F4602F08BF947A3D3E900236A
:10A3F00001F0D4FF32463B4602F082F944A3D3E990
:10A40000002301F0C9FF32463B4602F079F942A32E
:10A41000D3E9002301F0C2FF32463B4602F070F957
:10A420003FA3D3E9002301F0B7FF32463B4602F0D9
:10A4300067F93DA3D3E9002301F0B0FF3B46324664
:10A4400002F05EF943F23233C3F6D3739C42824684
:10A450008B4692DD0023C3F6E9739C423DDC00216C
:10A46000A4F5001300220020C3F6F07114461D4627
:10A4700001F092FFCDE9040100230022C3F6E0734E
:10A480003046394602F03CF922462B4601F084FF63
:10A4900052465B46CDE902013046394602F030F9BA
:10A4A000DDE9002304460D464046494602F028F9FE
:10A4B00002460B462046294601F06EFF02460B4637
:10A4C000DDE9020101F068FF02460B46DDE9040107
:10A4D00001F062FF07B0BDE8F08F002300250022E5
:10A4E000C3F6E7730024CDE90423C3F6D275C3E7AE
:10A4F00000210020C3F6F071ECE700BFAFF300804D
:10A50000D43888BEE9FAA8BDC4B1B4BD9EEE213EE0
:10A51000AD529C804F7E923E9015CB19A001FA3E21
:10A520007751C1166CC1563F4C5555555555A53FF1
:10A530002DE9F04F4AF6AB25D41EC2F6AA25ADF59B
:10A540001B7D03F1FF3C85FB0475CDF808C0E417C3
:10A5500040F29806DDF890C2C0F602061F4606904B
:10A560000891C4EBA50456F82C6024EAE4740A941C
:10A57000E343029C099603EB430314EB060802EB4A
:10A58000C303079318D40A9E08F10108A598351B48
:10A590004FEA88080CAE002400EB8509002000215A
:10A5A000002D03DB59F8040002F044F804340135AF
:10A5B0004445E6E90201F1D1099C002C33DB099DF9
:10A5C0000DF5B87ABB465EAE06EBC5060096DDF823
:10A5D00008C0BCF1000FBCBF4FF000084FF00009ED
:10A5E0001ADB0DF1380E069D0EEBCB064FF000087E
:10A5F0004FF00009002476E902230134F5E8020156
:10A6000002F07EF802460B464046494601F0C6FE7F
:10A61000BC4280468946EED1009D0BF1010BEAE970
:10A620000289AA45D3D1099E0DF5067C9AAC731E0A
:10A630000CEB860C00969B00CDF830C0E4180B9311
:10A640000D94009C9AAD009EE400002E05EB0403DF
:10A65000049453E93C892ADD5EAE85AD34190023AC
:10A660000022C3F670634046494602F049F802F002
:10A67000E1FA01F0DFFF00230022C4F270138246EA
:10A680008B4602F03DF802460B464046494601F033
:10A6900083FE02F0CFFA52465B4645F8040F74E998
:10A6A000020101F07BFEB44280468946D7D1079A69
:10A6B0004046494601F0B4FB00224FF07F53044668
:10A6C0000D4602F01DF801F023FA00230022C4F227
:10A6D000200302F015F802460B462046294601F0F9
:10A6E0005BFE0D46044602F0A5FA064601F0A2FF05
:10A6F00002460B462046294601F04EFEDDF81CC0FE
:10A70000BCF1000F8046894640F3C081009C9AADA1
:10A71000CCF11801631ECCF1170405EB830353F849
:10A72000502C52FA01F0361810FA01F1521A43F87F
:10A73000502C52FA04F5002D3FDD009C0136002C10
:10A7400040F3D08186AB03EB8400002407E021B105
:10A750000124C1F1807143F8041C83420ED053F8E8
:10A76000041B002CF3D04FF6FF7201248342C0F289
:10A77000FF02C1EB020243F8042CF0D1DDF81CC04B
:10A78000BCF1000F16DDBCF1010F00F08A81BCF1B5
:10A79000020F0FD1DDF800C00DF51A7E0CF1FF336A
:10A7A0000EEB830353F8502C22F07F4222F4400238
:10A7B00043F8502C022D00F0858040464946002287
:10A7C000002302F005FA002800F0A180009C601E22
:10A7D000099C844210DCDDF800C00DF5067E0C9C5F
:10A7E00000220EEB8C0353F8041DA34242EA01023F
:10A7F000F9D1002A40F07C820D9C54F8503C002B8B
:10A8000040F074820B9D86AE0123721952F8041D2C
:10A8100001330029FAD0DDF800C063440CF1010ACD
:10A820009A4505934BDC0A9D029C0CEB050BA59EFB
:10A8300004EB0A03049D013B06EB8B0B0DF1380C76
:10A840005EAC0CEBC30C6419CDF800C004945BF84B
:10A85000040F01F0EFFEDDF808C0009EBCF1000F10
:10A86000BCBF4FF000084FF00009E6E90201009676
:10A870001CDB0AEB07060DF1380E069D4FF00008B1
:10A880004FF0000900240EEBC60676E902230134DE
:10A89000F5E8020101F034FF02460B464046494606
:10A8A00001F07CFDBC4280468946EED1059D0AF14F
:10A8B000010A049CAA45E4E902890494C7DD059EC7
:10A8C0000096BEE6002142464B460020C3F6F071DA
:10A8D00001F062FD80468946002C3FF46EAF0021F6
:10A8E000079A0020C3F6F07101F09AFA02460B466F
:10A8F0004046494601F050FD00220023804689462B
:10A900004046494602F064F900287FF45FAF05969F
:10A910000495002840F00782DDF81CC040464946F7
:10A92000CCF1000201F07CFA00230022C4F2701383
:10A9300006460F4602F06AF9002800F0F98100236C
:10A940000022C3F670633046394601F0D9FE009DFF
:10A950000DF51A7C0CEB850402F06CF901350095BD
:10A9600001F068FE009D00230DF51A7E0022C4F25E
:10A9700070130EEB85058046894601F0C1FE024644
:10A980000B463046394601F007FD079E18360796FC
:10A9900002F050F9494644F8500C404602F04AF99A
:10A9A00045F8500C00210020C3F6F071079A01F021
:10A9B00037FA009C002C06460F465DDB01340DF58E
:10A9C000067C0DF5BC7E5EAD06950CEB84050EEBAA
:10A9D000C40455F8040D01F02DFE32463B4601F04B
:10A9E0008FFE00230022C3F6706364E90201304643
:10A9F000394601F085FEDDF818C0644506460F466D
:10AA0000E7D1009C0027DDF824800DF1D80B04F17C
:10AA1000FF3ACDF808B0D146B8F1000FC0F2558129
:10AA2000002FC0F252810DF5BC7C994D0CEBC9068C
:10AA30004FF0000A4FF0000B002401E0BC4210DC94
:10AA4000F6E902230134F5E9020101F059FE02465C
:10AA50000B465046594601F0A1FCA04582468B4664
:10AA6000ECDA029D09F1FF3905EBC703013719F153
:10AA7000020FC3E900ABCFD1A49C032C00F2B58038
:10AA8000DFE814F00801BB00BB0032001AD1DDF88A
:10AA900000C00DF51A7E0EEB8C0353F8545CED15D7
:10AAA00049E6DDF800C00DF51A7E0CF1FF330EEB20
:10AAB000830353F8502C22F07F4222F4000243F823
:10AAC000502C77E600230022C3F6E073002502F045
:10AAD0009DF800283FF471AE009C02250136002C41
:10AAE0003FF730AE002449E6009E00230DF1D80B5D
:10AAF0001946002E60DDDDF800C00DF1D80B0DF118
:10AB0000E00A0CF101050BEBC5052C4654E902895E
:10AB100054E9046742464B463046394601F03EFC54
:10AB2000CDE902013046DDE90223394601F034FC6B
:10AB300002460B464046494601F030FCDDE902671B
:10AB400064E90201544544E90267DFD1DDF800C041
:10AB500000231946BCF1010F2EDD0BF1100A2C4623
:10AB600054E9028954E9046742464B463046394667
:10AB700001F014FCCDE900013046DDE9002339463F
:10AB800001F00AFC02460B464046494601F006FC2D
:10AB9000DDE9006764E90201544544E90267DFD159
:10ABA00000231C461846214675E9022301F0F6FBF6
:10ABB000554503460C46F5D1049C002C00F0C58099
:10ABC000089E01F10041DBF80050DBF80800DBF8DB
:10ABD0000440DBF80C2004F10044356002F100422F
:10ABE0007460B060F26033617161DDF814C00CF024
:10ABF00007000DF51B7DBDE8F08FDDF800C00023D8
:10AC00000DF1D80B1946BCF1000F13DBDDF800C0C5
:10AC10000DF1D80B00230CF101041D460BEBC4040D
:10AC20001846294674E9022301F0B8FB5C45034647
:10AC30000D46F5D1049C01F1004204B90A46DDF845
:10AC400020C00D461E461746DBE900011A46CCE936
:10AC500000672B4601F0A0FB009C002C03460CDD96
:10AC60000BEBC4040D4618462946FBE9022301F00C
:10AC700095FBA34503460D46F5D1049D0DB101F1A9
:10AC80000041089E1C460D46C6E90245ADE700BFDF
:10AC9000A0000208009C00200146002C0BDB0134C0
:10ACA00036AD002005EBC404014674E9022301F02F
:10ACB00075FBAC42F9D1049D0DB101F10041089E34
:10ACC00002460B46C6E900238FE7029D09F1FF39D2
:10ACD0004FF0000A4FF0000B05EBC703013719F1E5
:10ACE000020FC3E900AB7FF497AEC5E6012392E5FE
:10ACF0000596049583009AADEA18079C009052F8D7
:10AD0000502C183C0794002A7FF44CAE86AE0246C5
:10AD1000F318214653F8040D013A18390028F9D0E8
:10AD2000009207913EE6DDF800C00CF1FF30E1E74C
:10AD3000DDF800C00DF51A7E304639460EEB8C0466
:10AD400001F078FF44F8500C2CE6DDF820C01C46DA
:10AD5000DBE900670D46DBE90223CCE90445CCE9D9
:10AD60000067CCE9022340E72DE9F04F85B00646A5
:10AD70000F46CDE9002321F00043B3F1795F03DAF8
:10AD800001F058FF00286ED032463B463046394627
:10AD900001F0B6FC32463B4604460D4601F0B0FCDD
:10ADA0003FA3D3E90023804689462046294601F087
:10ADB000A7FC3DA3D3E9002301F0EEFA22462B467F
:10ADC00001F09EFC3AA3D3E9002301F0E7FA224602
:10ADD0002B4601F095FC38A3D3E9002301F0DCFAFF
:10ADE00022462B4601F08CFC35A3D3E9002301F069
:10ADF000D5FA0E9B82468B46002B39D000230022C9
:10AE0000C3F6E073DDE9000101F07AFC52465B46CF
:10AE1000CDE902014046494601F072FC02460B466C
:10AE2000DDE9020101F0B8FA22462B4601F068FC88
:10AE3000DDE9002301F0B0FA23A3D3E9002304469F
:10AE40000D464046494601F05BFC02460B46204653
:10AE5000294601F0A3FA02460B463046394601F076
:10AE60009BFA06460F463046394605B0BDE8F08FDE
:10AE700002460B462046294601F042FC12A3D3E9C4
:10AE8000002301F089FA42464B4601F039FC0246A4
:10AE90000B463046394601F081FA06460F46E2E796
:10AEA0007CD5CF5A3AD9E53DEB9C2B8AE6E55A3E54
:10AEB0007DFEB157E31DC73ED561C119A0012A3FF0
:10AEC000A6F810111111813F495555555555C53FEB
:10AED0002DE9F84320F00046B6F1485F05460F46DD
:10AEE0005BDA02F0F3F9002800F0CA802946284610
:10AEF00002F026F84DF24E71CAF64751044602F0B0
:10AF00001FF847F2F641C3F20F1101F011FF21467D
:10AF100002F016F84FF27C21C3F2934101F006FFD4
:10AF2000214602F00DF840F60151C3F2D07101F054
:10AF3000FFFE214602F004F840F66131C3F6B62167
:10AF400001F0F4FE214601F0FBFF4AF6AB21C3F607
:10AF50002A5101F0EDFE214601F0F2FF8046204625
:10AF60004FF07C5101F0ECFF41460646204601F0CF
:10AF7000E7FF39460446284601F0E2FF0146204635
:10AF800001F0D4FE0146304601F0D0FE01464FF0FC
:10AF90007E5001F0CBFEBDE8F883014601F0D0FF02
:10AFA0004DF24E71CAF64751044601F0C9FF47F20F
:10AFB000F641C3F20F1101F0BBFE214601F0C0FFC4
:10AFC0004FF27C21C3F2934101F0B0FE214601F023
:10AFD000B7FF40F60151C3F2D07101F0A9FE21463E
:10AFE00001F0AEFF40F66131C3F6B62101F09EFEDE
:10AFF000214601F0A5FF4AF6AB21C3F62A5101F024
:10B0000097FE214601F09CFF49F69913C3F6996318
:10B010009E428046A3DD0023C3F648739E4227DC90
:10B0200006F17F464FF07E50314601F07FFE8146AB
:10B0300020464FF07C5101F083FF314601F076FE4F
:10B0400041460646204601F07BFF39460446284625
:10B0500001F076FF0146204601F068FE01463046C9
:10B0600001F064FE0146484601F060FEBDE8F88349
:10B070004FF000090026C3F63879C3F69066D7E78B
:10B080004FF07E50BDE8F8832DE9F04F151DDDB07F
:10B09000D41E58BF254640F2E8040493013B0293B6
:10B0A000ED10669BC0F6020425EAE5750746099592
:10B0B00054F82340EB43089102EBC303029A079430
:10B0C0001619069315D40136AD1A679B00240DF1AD
:10B0D0008008B60003EB85090020002D03DB59F83A
:10B0E000040001F0D9FE48F8040004340135B442EC
:10B0F000F2D1079C002C25DB079A48ABDDF810A0A5
:10B100000DF58E7903EB820B4FEA8A08029C00252D
:10B11000002C11DB20A8002400EB8A0600253859FA
:10B12000043456F8041D01F00BFF0146284601F0D7
:10B13000FFFD44450546F2D149F8045FD9450AF1BF
:10B14000010AE3D1079A0CABDDF81C80013A0093A9
:10B15000C2460A9203EB82040B944FEA8A025CAC6B
:10B16000A318BAF1000F019253F8504C22DD0DF5EF
:10B1700090790BAE09EB02054FF06E51204601F0BD
:10B18000DFFE02F0A3F801F087FE4FF08741804612
:10B1900001F0D6FE0146204601F0C8FD02F096F807
:10B1A000414646F8040F55F8040D01F0C1FD4D4528
:10B1B0000446E1D10699204601F078F84FF0785125
:10B1C000044601F0BDFE00F0E1FF4FF0824101F0C6
:10B1D000B7FE0146204601F0A9FD044602F076F8CC
:10B1E000064601F059FE0146204601F09FFD069AF1
:10B1F000002A054640F306810AF1FF330CA8C2F18C
:10B200000801C2F1070450F8232052FA01F0361861
:10B2100010FA01F1521A0CA942FA04FB41F823205A
:10B22000BBF1000F30DD01360024BAF1000F17DD4D
:10B23000019C0CAB1919002407E022B10124C2F5CE
:10B24000807243F8042C8B420AD053F8042B002C54
:10B25000F3D001248B42C2F1FF0243F8042CF4D155
:10B26000069A002A0DDD012A00F0D580022A08D1B5
:10B270000AF1FF330CA951F8232002F03F0241F8F4
:10B280002320BBF1020F6ED02846002101F0ECFF15
:10B29000002800F08180079A0AF1FF34A2420FDCF7
:10B2A000019A0CA88318079A00EB8200002253F839
:10B2B000041D834242EA0102F9D1002A40F0C38012
:10B2C0000A9C0CA850F82430002B40F0BA800B9A4E
:10B2D000012352F8041D01330029FAD053440AF126
:10B2E0000109994503933BDC099C029AA244679C9F
:10B2F00002EB090320AA04EB8A0B049C013B059294
:10B3000002EB830A4FEA8408019B48AAD2180192F3
:10B310005BF8040F002501F0BFFD029A002A4AF8ED
:10B32000040F14DB049B0025059A002409EB030697
:10B3300002EB86063859043456F8041D01F000FE6D
:10B340000146284601F0F4FC44450546F2D1039C31
:10B3500009F10109019BA14543F8045F0193D7DD81
:10B36000DDF80CA0F9E629464FF07E5001F0DEFC36
:10B370000546002C88D006994FF07E5000F096FFCD
:10B380000146284601F0D2FC00210546284601F07E
:10B390006BFF00287FF47FAF0296D0460AF1FF349E
:10B3A000002851D1069B2846594200F07FFF4FF0FC
:10B3B0008741044601F076FF002800F071814FF0CC
:10B3C0006E51204601F0BCFD069A0AF101080832D0
:10B3D000069201F07BFF01F05FFD4FF087410546CB
:10B3E00001F0AEFD0146204601F0A0FC0CAC01F0DE
:10B3F0006DFF0CAB43F82A00284601F067FF44F8C4
:10B40000280034E011D10AF1FF330CAA52F823309E
:10B410004FEA232B04E70AF1FF330CA850F823204E
:10B4200002F07F0240F823202BE74FF07C514FF0D1
:10B43000000B01F037FF00283FF426AF4FF0020B5E
:10B44000F1E601234AE702960CA8069AA04650F8B6
:10B450002430083A069253B900EB8403A04653F80F
:10B46000041D08F1FF38083A0029F8D006924FF081
:10B470007E50069900F01AFFB8F1000F05464CDB2C
:10B4800008F101020CAB48A8019296009C1986199C
:10B4900054F8040D01F000FD294601F051FD4FF074
:10B4A0006E5146F8040D284601F04AFD009A944278
:10B4B0000546EDD148ABCDF80C8003EB8809DFF8E9
:10B4C000F0A1DDF81C800027B8F1000FC0F2DA808F
:10B4D000002FC0F2D78000240026254601E0BD429F
:10B4E0000EDC59F8041001355AF80400043401F058
:10B4F00027FD0146304601F01BFCA8450646EEDA62
:10B500005CAC019A04EB87030137BA42A9F1040944
:10B5100043F8A06CD8D1DDF80C80669C032C14D8BD
:10B52000DFE804F0986868190020BBF1000F59D0DB
:10B53000089B00F10040089C349A9860359B02F10A
:10B540000042226003F100436360029A02F00700A8
:10B550005DB0BDE8F08FB8F1000FC4BF34AD05EBAE
:10B560008804E1DD54F8049C54F8047948463946CF
:10B5700001F0DEFB06464846314601F0D7FB0146A6
:10B58000384601F0D5FBAC4226606060EAD1B8F1E4
:10B59000010FC9DD08F1FF3405EB840454F8049968
:10B5A000A7684846394601F0C3FB0646484631467F
:10B5B00001F0BCFB0146384601F0BAFBAC426660C4
:10B5C000A060EBD108F1010804F10805002004EBAC
:10B5D000880454F8041D01F0ABFBAC42F9D1BBF177
:10B5E000000FA5D1089B089C9860349B2360359B75
:10B5F0006360AAE70020B8F1000F0BDB08F101043B
:10B6000034AD002005EB840454F8041D01F090FBD8
:10B61000AC42F9D100F10043BBF1000F00D1034669
:10B62000089C01463498236001F080FBB8F1000FBC
:10B6300008DD34AC04EB880854F8041F01F078FBF3
:10B640004445F9D1BBF1000F01D000F10040089A48
:10B6500050607AE70020B8F1000F0BDB08F101041D
:10B6600034AD002005EB840454F8041D01F060FBA8
:10B67000AC42F9D1BBF1000F01D000F10040089AB3
:10B68000106062E75CAC019A04EB87030137002687
:10B69000BA42A9F1040943F8A06C7FF415AF3AE768
:10B6A000204601F013FE0CA941F82A00DFE600BF96
:10B6B000F40002082DE9F84320F00043B3F1485F9D
:10B6C00004460D46904603DA01F000FE002859D0EA
:10B6D0002146204601F034FC2146064601F030FCAC
:10B6E0004CF6D311C2F62E710746304601F028FC05
:10B6F00042F63471C3F2D72101F018FB314601F054
:10B700001FFC4EF61B71C3F2386101F011FB31468C
:10B7100001F016FC40F60151C3F6501101F006FB92
:10B72000314601F00DFC48F68901C3F6084101F0ED
:10B73000FFFA8146B8F1000F27D028464FF07C5120
:10B7400001F0FEFB49468046384601F0F9FB014610
:10B75000404601F0EBFA314601F0F2FB294601F0D8
:10B76000E5FA4AF6AB21C3F62A610546384601F0F0
:10B77000E7FB0146284601F0DBFA0146204601F0CE
:10B78000D5FA04462046BDE8F8830146304601F06C
:10B79000D7FB4AF6AB21C3F62A6101F0C7FA394656
:10B7A00001F0CEFB0146204601F0C2FA04462046D5
:10B7B000BDE8F883000000004FF6FF732DE9F04F5D
:10B7C000C4F20F4321F0004583B09D420E460F4660
:10B7D00004461FDD0023C7F6F0739D4200F3C380CB
:10B7E00014BF0023012300280CBF002203F0010234
:10B7F000002A40F0B88042F2FB1642F61854334655
:10B80000CBF6F976C3F6F973C5F244440029C8BFF4
:10B810001E46B0E04FF6FF73C3F6DB739D4200F3A4
:10B82000BE804FF6FF73C3F61F639D4240F3A880AE
:10B830004FF0FF3C2246334620463146CDF804C047
:10B8400000F05EFF02460B4682468B4600F058FF32
:10B8500095A3D3E900238046894600F051FF94A3C5
:10B86000D3E9002300F09AFD42464B4600F048FF22
:10B8700091A3D3E9002300F091FD42464B4600F02E
:10B880003FFF8FA3D3E9002300F088FD42464B46DB
:10B8900000F036FF8CA3D3E9002300F07FFD424681
:10B8A0004B4600F02DFF8AA3D3E9002300F076FD7C
:10B8B00052465B4600F024FF87A3D3E9002382466B
:10B8C0008B464046494600F01BFF85A3D3E9002381
:10B8D00000F062FD42464B4600F012FF82A3D3E91E
:10B8E000002300F059FD42464B4600F009FF80A3BB
:10B8F000D3E9002300F050FD42464B4600F000FF24
:10B900007DA3D3E9002300F047FD42464B4600F0FB
:10B91000F7FEDDF804C0BCF1FF3F02460B4664D0E1
:10B9200040F220155046C0F60205594605EBCC05FD
:10B9300000F034FD2246334600F0E2FED5E908234C
:10B9400000F02AFD2246334600F026FD02460B4653
:10B95000D5E9000100F020FD002F0E460446B8BFD7
:10B9600001F1004607E0204622463146334600F00A
:10B9700015FD04460E462046314603B0BDE8F08F63
:10B980005FA3D3E9002300F009FD00230022C3F6E2
:10B99000F07301F045F900283FF44AAFEBE700F0FF
:10B9A000B3F84FF6FF73C3F6F2739D4280468946A3
:10B9B0002CDC4FF6FF73C3F6E5739D425EDC024656
:10B9C0000B464FF0000CCDF804C000F0E7FC00235C
:10B9D0000022C3F6F07300F0DFFC00224FF080433A
:10B9E00004460D46404649462EE05046594600F072
:10B9F000D5FC2246334600F083FE02460B46204625
:10BA0000314600F0C9FC04460E46B4E747F6FF7322
:10BA1000C4F203039D4224DC00230022C3F6F87322
:10BA20004FF0020CCDF804C000F0B6FC0023002259
:10BA3000C3F6F87304460D464046494600F060FEE2
:10BA400000230022C3F6F07300F0A8FC02460B4668
:10BA50002046294600F07EFFDDF804C004460E466D
:10BA6000E8E600210020CBF6F07142464B4600F09C
:10BA700071FF4FF0030C04460E46DBE60023002264
:10BA8000C3F6F0734FF0010CCDF804C000F084FC55
:10BA900000230022C3F6F07304460D464046494693
:10BAA000D2E700BFAFF3008011DA22E33AAD903F56
:10BAB000EB0D76244B7BA93F513DD0A0660DB13FE5
:10BAC0006E204CC5CD45B73FFF8300922449C23F4D
:10BAD0000D5555555555D53F2F6C6A2C44B4A2BF12
:10BAE0009AFDDE522DDEAD3F6D9A74AFF2B0B33FDA
:10BAF000711623FEC671BC3FC4EB98999999C93F52
:10BB00009C7500883CE4377E21F00041704700BFFF
:10BB10002DE9F04FC1F30A56A6F57E7483B0073CB9
:10BB20008246132C8B46804627DC002C51DB4FF6D7
:10BB3000FF73C0F20F0353FA04F606EA010505434A
:10BB400016D041A3D3E90023019100F027FC002285
:10BB5000002301F065F8DDF804C0002835D0BCF101
:10BB6000000F69DB2CEA060C4FF00008E346C246E2
:10BB70005046594603B0BDE8F08F332C09DDB4F5CB
:10BB8000806FF5D102460B4600F008FC82468B46DA
:10BB9000EEE7A6F582634FF0FF32033B32FA03F57E
:10BBA0000542E5D028A3D3E90023019100F0F6FB7C
:10BBB0000022002301F034F8DDF804C028B1BCF104
:10BBC000000F28DB28EA050800E0DC46E346C24611
:10BBD000CEE71DA3D3E9002300F0E0FB0022002301
:10BBE00001F01EF80028F0D0BBF1000FA4BF4FF009
:10BBF0000008C446EADA2BF000484FF0000C48EA8F
:10BC00000A08CBF6F07CB8F1000F08BFDC4618BF7D
:10BC10004FF00008DAE7142C09D0C6F586634FF020
:10BC20000108033308FA03F818EB0A08CAD30CF129
:10BC3000010C28EA0508C9E74FF4801353FA04F40D
:10BC4000A4448FE7AFF300809C7500883CE4377E06
:10BC50000B4650EA030110B402D1022010BC704719
:10BC6000D0F1010238BF0022B3F1004F14BF002110
:10BC700002F001010029F0D14FF6FF71A3F5801009
:10BC8000C7F6DF7103F1FE44884204F570048CBFEF
:10BC9000002001208C428CBF014640F001010420AD
:10BCA0000029DBD1B3F5801F03F100402CBF002138
:10BCB0000121B0F5801F38BF41F0010109B1032017
:10BCC000CCE713F5801FC7F6F07114BF00200120E8
:10BCD0008B4214BF034640F0010302EA0300BDE7B4
:10BCE0000020704700210020C7F6F871704700BFA0
:10BCF0002DE9F04FC1F30A55A5F57E76CF0F073E2B
:10BD000083B0132E8046894602460B4638DC002E4F
:10BD100055DB4FF6FF71C0F20F01314101EA090016
:10BD200050EA080027D0490801EA090050EA080251
:10BD30000BD029EA01034FF48021132E0CBF4FF0E2
:10BD40000042002251FA06F6334340F26014C0F676
:10BD5000020404EBC707D7E900452046294600F056
:10BD60001DFB22462B46CDE90001DDE9000100F074
:10BD700013FB804689464046494603B0BDE8F08F34
:10BD8000332E09DDB6F5806FF5D102460B4600F083
:10BD900005FB80468946EEE7A5F582654FF0FF3149
:10BDA000033DE9400142E6D049080142CDD020EAF6
:10BDB00001024FF0804151FA05F52A43C5E721F011
:10BDC00000430343D7D021F07F4340F2601123F4B6
:10BDD0007003C0F6020143EA000201EBC7015342BF
:10BDE0004FEA59441A43D1E900AB130B504603F410
:10BDF0000023424643EA444959464B4600F0CEFAF6
:10BE00005B465246CDE90001DDE9000100F0C4FACD
:10BE100021F00043804643EAC779ACE70000000008
:10BE20002DE9F843C1F30A5704460D4616460B4662
:10BE3000002F2DD121F00043034325D00023002201
:10BE4000C4F2503300F05CFC43F6B043CFF6FF730E
:10BE50009E4204460D463EDBC1F30A5740F2FE7295
:10BE6000363F0B46BF199742C4BF22462B461BDD07
:10BE70002DA1D1E9000100F07BFA2BA3D3E9002327
:10BE800000F03EFC04460D4620462946BDE8F883F6
:10BE900040F2FF72974229D040F2FE72BF199742DA
:10BEA000C4BF22462B46E3DC002FC2BF23F0FE4373
:10BEB00023F4700343EA0755E6DC17F1350F1FDA68
:10BEC0004CF2503322469E422B46D1DC18A1D1E9D8
:10BED000000100F04DFA16A3D3E9002300F010FC96
:10BEE00004460D4620462946BDE8F88302460B4627
:10BEF00000F054FA04460D4620462946BDE8F88372
:10BF0000363723F0FE4323F47003204643EA0755F7
:10BF1000002329460022C3F6904300F0F1FB0446BB
:10BF20000D46B1E7AFF300809C7500883CE4377E96
:10BF300059F3F8C21F6EA5012DE9F04120F000452C
:10BF4000B5F1A14F044606460EDBB5F1FF4F00F3F5
:10BF5000A480002840F6DB74C8BFC3F6C97440F360
:10BF6000D9802046BDE8F0814FF6FF73C3F6DF634A
:10BF70009D4200F3A780B5F1445FC0F295804FF079
:10BF8000FF372146204600F0DBFF0146804600F0E7
:10BF9000D7FF46F6D711C3F68541054600F0D0FF1E
:10BFA0004DF65921C3F64B5100F0C2FE294600F070
:10BFB000C7FF46F63531C3F6885100F0B9FE294671
:10BFC00000F0BEFF42F66E61C3F6BA5100F0B0FE5B
:10BFD000294600F0B5FF44F62511C3F6126100F0C2
:10BFE000A7FE294600F0ACFF4AF6AB21C3F6AA61D2
:10BFF00000F09EFE414600F0A3FF4AF22121CBF65D
:10C0000015518046284600F09BFF4FF26B11C3F696
:10C010006E5100F08BFE294600F092FF48F29571B8
:10C02000C3F69D5100F082FE294600F089FF48F6D4
:10C030003861C3F6E35100F079FE294600F080FF35
:10C040004CF6CD41C3F64C6100F070FE294600F07D
:10C0500077FF7B1C014651D040F27015404600F03E
:10C0600067FEC0F60205214600F06AFF05EB870374
:10C07000196900F05BFE214600F058FE014655F8B4
:10C08000270000F053FE002EB8BF00F10044FFF679
:10C0900068AF04462046BDE8F081014600F048FE46
:10C0A00004462046BDE8F0814FF2CA21C7F249118B
:10C0B00000F03EFE4FF07E5101F0FEF800283FF404
:10C0C0005EAF4EE700F056F84FF6FF73C3F6977376
:10C0D0009D424FF6FF7304461FDCC3F62F739D424B
:10C0E0003DDC0146002700F023FE4FF07E5100F0BA
:10C0F0001DFE4FF08041054620461FE0404600F0FF
:10C1000017FE214600F01CFF0146204600F00EFEFF
:10C11000044626E7CBF6C97423E7C4F21B039D420D
:10C1200014DC4FF07F51022700F000FE4FF07F51EA
:10C130000546204600F004FF4FF07E5100F0F8FD68
:10C140000146284600F0B0FF04461AE700202146C9
:10C15000CBF68070032700F0A7FF044611E74FF0ED
:10C160007E51012700F0E2FD4FF07E51054620464A
:10C17000E4E700BF20F00040704700BF20F000401F
:10C18000B0F1FF4FACBF0020012070472DE9F04116
:10C1900020F0004601460446F50D7F3D162D1ADCC1
:10C1A000002D804620DB4FF6FF77C0F27F072F413E
:10C1B00007420DD04FF2CA21C7F2491100F0B8FD75
:10C1C000002101F079F810B3002C24DB28EA0701E4
:10C1D0000846BDE8F081B6F1FF4FF9D300F0A8FDA5
:10C1E00001460846BDE8F0814FF2CA21C7F2491165
:10C1F00000F09EFD002101F05FF840B10021002C0D
:10C20000E6DACBF68071002E08BF2146E0E7214632
:10C210000846BDE8F0814FF4000353FA05F504EB3E
:10C22000050828EA0701D3E7D0F1010338BF00234E
:10C23000B0F1004F08BF43F001030BB1022070477B
:10C24000A0F5000300F1FF42B3F1FE4F2CBF002325
:10C250000123B2F1FE4F38BF43F001030BB10420BC
:10C2600070474FF6FE73411EC0F27F0300F100429B
:10C27000013A99428CBF002101219A428CBF0B46A2
:10C2800041F001030BB10320704710F5000F14BFFC
:10C2900000230123B0F1FF4F14BF184643F0010003
:10C2A000704700BF0020C7F6C070704710B50C463D
:10C2B00030F000410346024627D0B1F1FF4F26D2AD
:10C2C000B1F5000F29D3C90D0919FE29C8BF1946B8
:10C2D00033DC0029C4BF22F0FF4242EAC15314DC20
:10C2E00011F1160F37DA4CF250321946944224DC21
:10C2F00044F26020C0F6A25000F044F844F26021FD
:10C30000C0F6A25100F01CFE0346184610BD0146BF
:10C3100000F00EFD0346184610BD4FF0984100F0A6
:10C320000FFE43F6B042CFF6FF7294420346E5DBC0
:10C33000C0F3C75102461939C6E74FF2CA20C7F207
:10C34000491000F01FF84FF2CA21C7F2491100F05E
:10C35000F7FD0346D9E701F1190022F0FF424FF043
:10C360004C5142EAC05000F0EBFD0346CDE700BF60
:10C3700003F0004321F0004230B443EA020130BC34
:10C38000704700BF01F0004120F0004008437047B3
:10C3900081F0004102E000BF83F0004330B54FEA76
:10C3A00041044FEA430594EA050F08BF90EA020FE3
:10C3B0001FBF54EA000C55EA020C7FEA645C7FEA76
:10C3C000655C00F0E2804FEA5454D4EB5555B8BF99
:10C3D0006D420CDD2C4480EA020281EA030382EA0A
:10C3E000000083EA010180EA020281EA0303362D9C
:10C3F00088BF30BD11F0004F4FEA01314FF4801C6F
:10C400004CEA113102D0404261EB410113F0004F80
:10C410004FEA03334CEA133302D0524263EB430337
:10C4200094EA050F00F0A780A4F10104D5F1200ED5
:10C430000DDB02FA0EFC22FA05F2801841F1000130
:10C4400003FA0EF2801843FA05F359410EE0A5F104
:10C4500020050EF1200E012A03FA0EFC28BF4CF035
:10C46000020C43FA05F3C01851EBE37101F00045EB
:10C4700007D54FF0000EDCF1000C7EEB00006EEBF8
:10C480000101B1F5801F1BD3B1F5001F0CD3490882
:10C490005FEA30004FEA3C0C04F101044FEA4452D9
:10C4A00012F5800F80F09A80BCF1004F08BF5FEA60
:10C4B000500C50F1000041EB045141EA050130BD40
:10C4C0005FEA4C0C404141EB010111F4801FA4F1E3
:10C4D0000104E9D191F0000F04BF01460020B1FA38
:10C4E00081F308BF2033A3F10B03B3F120020CDA70
:10C4F0000C3208DD02F1140CC2F10C0201FA0CF04E
:10C5000021FA02F10CE002F11402D8BFC2F1200CB2
:10C5100001FA02F120FA0CFCDCBF41EA0C01904068
:10C52000E41AA2BF01EB0451294330BD6FEA0404B1
:10C530001F3C1CDA0C340EDC04F11404C4F120029C
:10C5400020FA04F001FA02F340EA030021FA04F3AE
:10C5500045EA030130BDC4F10C04C4F1200220FA05
:10C5600002F001FA04F340EA0300294630BD21FA43
:10C5700004F0294630BD94F0000F83F4801306BF09
:10C5800081F480110134013D4EE77FEA645C18BFFD
:10C590007FEA655C29D094EA050F08BF90EA020F94
:10C5A00005D054EA000C04BF1946104630BD91EA8C
:10C5B000030F1EBF0021002030BD5FEA545C05D18F
:10C5C0004000494128BF41F0004130BD14F58004CE
:10C5D0003CBF01F5801130BD01F0004545F0FE4142
:10C5E00041F470014FF0000030BD7FEA645C1ABF77
:10C5F000194610467FEA655C1CBF0B46024650EAAE
:10C60000013406BF52EA033591EA030F41F40021D9
:10C6100030BD00BF90F0000F04BF0021704730B55F
:10C620004FF4806404F132044FF000054FF0000134
:10C6300050E700BF90F0000F04BF0021704730B5F5
:10C640004FF4806404F1320410F0004548BF4042CA
:10C650004FF000013EE700BF42004FEAE2014FEA1F
:10C6600031014FEA02701FBF12F07F4393F07F4FFA
:10C6700081F06051704792F0000F14BF93F07F4F2C
:10C68000704730B54FF4607401F0004521F000416F
:10C6900020E700BF50EA010208BF704730B54FF0F5
:10C6A00000050AE050EA010208BF704730B511F0FA
:10C6B000004502D5404261EB41014FF4806404F132
:10C6C00032045FEA915C3FF4DCAE4FF003025FEAB4
:10C6D000DC0C18BF03325FEADC0C18BF033202EB3C
:10C6E000DC02C2F1200300FA03FC20FA02F001FA96
:10C6F00003FE40EA0E0021FA02F11444C1E600BF35
:10C7000070B54FF0FF0C4CF4E06C1CEA11541DBFE7
:10C710001CEA135594EA0C0F95EA0C0F00F0DEF8B2
:10C720002C4481EA030621EA4C5123EA4C5350EA97
:10C73000013518BF52EA033541F4801143F48013E8
:10C7400038D0A0FB02CE4FF00005E1FB02E506F079
:10C750000042E0FB03E54FF00006E1FB03569CF0CE
:10C76000000F18BF4EF0010EA4F1FF04B6F5007FD4
:10C7700064F5407404D25FEA4E0E6D4146EB060646
:10C7800042EAC62141EA55514FEAC52040EA5E50CF
:10C790004FEACE2EB4F1FD0C88BFBCF5E06F1ED879
:10C7A000BEF1004F08BF5FEA500E50F1000041EBB0
:10C7B000045170BD06F0004646EA010140EA02005D
:10C7C00081EA0301B4EB5C04C2BFD4EB0C0541EA7F
:10C7D000045170BD41F480114FF0000E013C00F394
:10C7E000AB8014F1360FDEBF002001F0004170BDB8
:10C7F000C4F10004203C35DA0C341BDC04F11404D1
:10C80000C4F1200500FA05F320FA04F001FA05F25C
:10C8100040EA020001F0004221F0004110EBD37029
:10C8200021FA04F642EB06015EEA430E08BF20EA55
:10C83000D37070BDC4F10C04C4F1200500FA04F3F8
:10C8400020FA05F001FA04F240EA020001F000418A
:10C8500010EBD37041F100015EEA430E08BF20EAFD
:10C86000D37070BDC4F1200500FA05F24EEA020E45
:10C8700020FA04F301FA05F243EA020321FA04F074
:10C8800001F0004121FA04F220EA020000EBD3702B
:10C890005EEA430E08BF20EAD37070BD94F0000F2B
:10C8A0000FD101F00046400041EB010111F4801F5F
:10C8B00008BF013CF7D041EA060195F0000F18BF10
:10C8C000704703F00046520043EB030313F4801F4C
:10C8D00008BF013DF7D043EA0603704794EA0C0F06
:10C8E0000CEA135518BF95EA0C0F0CD050EA41061C
:10C8F00018BF52EA4306D1D181EA030101F0004199
:10C900004FF0000070BD50EA410606BF10461946C0
:10C9100052EA430619D094EA0C0F02D150EA0136CC
:10C9200013D195EA0C0F05D152EA03361CBF10460D
:10C9300019460AD181EA030101F0004141F0FE41AC
:10C9400041F470014FF0000070BD41F0FE4141F430
:10C95000780170BD70B54FF0FF0C4CF4E06C1CEA30
:10C9600011541DBF1CEA135594EA0C0F95EA0C0FE5
:10C9700000F0A7F8A4EB050481EA030E52EA0335A0
:10C980004FEA013100F088804FEA03334FF08055C1
:10C9900045EA131343EA12634FEA022245EA1115EE
:10C9A00045EA10654FEA00260EF000419D4208BF9F
:10C9B000964244F1FD0404F5407402D25B084FEA4C
:10C9C0003202B61A65EB03055B084FEA32024FF4F8
:10C9D00080104FF4002CB6EB020E75EB030E22BF55
:10C9E000B61A754640EA0C005B084FEA3202B6EB15
:10C9F000020E75EB030E22BFB61A754640EA5C00C4
:10CA00005B084FEA3202B6EB020E75EB030E22BF53
:10CA1000B61A754640EA9C005B084FEA3202B6EB54
:10CA2000020E75EB030E22BFB61A754640EADC0013
:10CA300055EA060E18D04FEA051545EA16754FEA75
:10CA400006164FEAC30343EA52734FEAC2025FEA93
:10CA50001C1CC0D111F4801F0BD141EA00014FF022
:10CA600000004FF0004CB6E711F4801F04BF0143F3
:10CA70000020B4F1FD0C88BFBCF5E06F3FF6AFAE0F
:10CA8000B5EB030C04BFB6EB020C5FEA500C50F19F
:10CA9000000041EB045170BD0EF0004E4EEA113122
:10CAA00014EB5C04C2BFD4EB0C0541EA045170BD29
:10CAB00041F480114FF0000E013C90E645EA060E6D
:10CAC0008DE60CEA135594EA0C0F08BF95EA0C0F9B
:10CAD0003FF43BAF94EA0C0F0AD150EA01347FF4E3
:10CAE00034AF95EA0C0F7FF425AF104619462CE7BA
:10CAF00095EA0C0F06D152EA03353FF4FDAE10461D
:10CB0000194622E750EA410618BF52EA43067FF46D
:10CB1000C5AE50EA41047FF40DAF52EA43057FF4FD
:10CB2000EBAE12E74FF0FF3C06E000BF4FF0010C08
:10CB300002E000BF4FF0010C4DF804CD4FEA410C6C
:10CB40007FEA6C5C4FEA430C18BF7FEA6C5C1BD039
:10CB500001B050EA410C0CBF52EA430C91EA030FBA
:10CB600002BF90EA020F0020704710F1000F91EA17
:10CB7000030F58BF994208BF90422CBFD8176FEAE5
:10CB8000E37040F0010070474FEA410C7FEA6C5CB3
:10CB900002D150EA013C07D14FEA430C7FEA6C5CBA
:10CBA000D6D152EA033CD3D05DF8040B704700BFE6
:10CBB0008446104662468C461946634600E000BF34
:10CBC00001B5FFF7B7FF002848BF10F1000F01BD06
:10CBD0004DF808EDFFF7F4FF0CBF012000205DF8D1
:10CBE00008FB00BF4DF808EDFFF7EAFF34BF012056
:10CBF00000205DF808FB00BF4DF808EDFFF7E0FFEF
:10CC000094BF012000205DF808FB00BF4DF808ED3F
:10CC1000FFF7CEFF94BF012000205DF808FB00BFA6
:10CC20004DF808EDFFF7C4FF34BF012000205DF888
:10CC300008FB00BF4FEA410212F5001215D211D5D0
:10CC40006FF47873B3EB625212D94FEAC12343F009
:10CC5000004343EA505311F0004F23FA02F018BF8B
:10CC6000404270474FF00000704750EA013005D154
:10CC700011F0004008BF6FF0004070474FF0000017
:10CC8000704700BF4FEA4102B2F1E04324BFB3F561
:10CC9000001CDCF1FE5C0DD901F0004C4FEAC00233
:10CCA0004CEA5070B2F1004F40EB830008BF20F017
:10CCB0000100704711F0804F21D113F13872BCBFD1
:10CCC00001F00040704741F480114FEA5252C2F126
:10CCD0001802C2F1200C10FA0CF320FA02F018BF6F
:10CCE00040F001004FEAC1234FEAD32303FA0CFCC2
:10CCF00040EA0C0023FA02F34FEA4303CCE77FEA51
:10CD0000625307D150EA01331EBF4FF0FE4040F49A
:10CD10004000704701F0004040F0FE4040F4000049
:10CD2000704700BF80F0004002E000BF81F000418A
:10CD300042001FBF5FEA410392EA030F7FEA226CC1
:10CD40007FEA236C6AD04FEA1262D2EB1363C1BF51
:10CD5000D218414048404140B8BF5B42192B88BFC0
:10CD6000704710F0004F40F4000020F07F4018BFE3
:10CD7000404211F0004F41F4000121F07F4118BF03
:10CD8000494292EA030F3FD0A2F1010241FA03FCAB
:10CD900010EB0C00C3F1200301FA03F100F0004393
:10CDA00002D5494260EB4000B0F5000F13D3B0F15B
:10CDB000807F06D340084FEA310102F10102FE2ACA
:10CDC00051D2B1F1004F40EBC25008BF20F001003A
:10CDD00040EA03007047490040EB000010F4000FE8
:10CDE000A2F10102EDD1B0FA80FCACF1080CB2EB7B
:10CDF0000C0200FA0CF0AABF00EBC25052421843DA
:10CE0000BCBFD0401843704792F0000F81F400017E
:10CE100006BF80F400000132013BB5E74FEA410351
:10CE20007FEA226C18BF7FEA236C21D092EA030FBD
:10CE300004D092F0000F08BF0846704790EA010F37
:10CE40001CBF0020704712F07F4F04D1400028BF64
:10CE500040F00040704712F100723CBF00F5000046
:10CE6000704700F0004343F0FE4040F4000070477C
:10CE70007FEA226216BF08467FEA23630146420228
:10CE800006BF5FEA412390EA010F40F4800070473B
:10CE90004FF0000304E000BF10F0004348BF4042E1
:10CEA0005FEA000C08BF704743F0964301464FF01D
:10CEB00000001CE050EA010208BF70474FF0000379
:10CEC0000AE000BF50EA010208BF704711F00043BA
:10CED00002D5404261EB41015FEA010C02BF84468A
:10CEE0000146002043F0B64308BFA3F18053A3F5E9
:10CEF0000003BCFA8CF2083AA3EBC25310DB01FA30
:10CF000002FC634400FA02FCC2F12002BCF1004FB3
:10CF100020FA02F243EB020008BF20F00100704744
:10CF200002F1200201FA02FCC2F1200250EA4C0098
:10CF300021FA02F243EB020008BF20EADC707047DE
:10CF40004FF0FF0C1CEAD0521EBF1CEAD15392EAEC
:10CF50000C0F93EA0C0F6FD01A4480EA010C4002C8
:10CF600018BF5FEA41211ED04FF0006343EA501022
:10CF700043EA5111A0FB01310CF00040B1F5000F64
:10CF80003EBF490041EAD3715B0040EA010062F113
:10CF90007F02FD2A1DD8B3F1004F40EBC25008BFFD
:10CFA00020F00100704790F0000F0CF0004C08BF1B
:10CFB00049024CEA502040EA51207F3AC2BFD2F1E8
:10CFC000FF0340EAC250704740F400004FF00003F6
:10CFD000013A5DDC12F1190FDCBF00F00040704730
:10CFE000C2F10002410021FA02F1C2F1200200FA6E
:10CFF00002FC5FEA310040F1000053EA4C0308BF35
:10D0000020EADC70704792F0000F00F0004C02BF85
:10D01000400010F4000F013AF9D040EA0C0093F000
:10D02000000F01F0004C02BF490011F4000F013B5A
:10D03000F9D041EA0C018FE70CEAD15392EA0C0FC8
:10D0400018BF93EA0C0F0AD030F0004C18BF31F033
:10D05000004CD8D180EA010000F00040704790F009
:10D06000000F17BF90F0004F084691F0000F91F0AD
:10D07000004F14D092EA0C0F01D142020FD193EA73
:10D080000C0F03D14B0218BF084608D180EA0100FB
:10D0900000F0004040F0FE4040F40000704740F0D7
:10D0A000FE4040F4400070474FF0FF0C1CEAD052A5
:10D0B0001EBF1CEAD15392EA0C0F93EA0C0F69D001
:10D0C000A2EB030280EA010C49024FEA402037D06C
:10D0D0004FF0805343EA111143EA10130CF0004063
:10D0E0008B4238BF5B0042F17D024FF4000C8B4253
:10D0F00024BF5B1A40EA0C00B3EB510F24BFA3EB33
:10D10000510340EA5C00B3EB910F24BFA3EB910302
:10D1100040EA9C00B3EBD10F24BFA3EBD10340EA5C
:10D12000DC001B0118BF5FEA1C1CE0D1FD2A3FF6A2
:10D1300050AF8B4240EBC25008BF20F00100704757
:10D140000CF0004C4CEA50207F32C2BFD2F1FF03FA
:10D1500040EAC250704740F400004FF00003013A2B
:10D1600037E792F0000F00F0004C02BF400010F4CF
:10D17000000F013AF9D040EA0C0093F0000F01F0E3
:10D18000004C02BF490011F4000F013BF9D041EA05
:10D190000C0195E70CEAD15392EA0C0F08D1420238
:10D1A0007FF47DAF93EA0C0F7FF470AF084676E70B
:10D1B00093EA0C0F04D14B023FF44CAF08466EE7E4
:10D1C00030F0004C18BF31F0004CCAD130F00042B2
:10D1D0007FF45CAF31F000437FF43CAF5FE700BF0A
:10D1E0004FF0FF3C06E000BF4FF0010C02E000BF33
:10D1F0004FF0010C4DF804CD4FEA40024FEA4103D5
:10D200007FEA226C18BF7FEA236C11D001B052EA8A
:10D21000530C18BF90EA010F58BFB2EB030088BF50
:10D22000C81738BF6FEAE17018BF40F001007047BF
:10D230007FEA226C02D15FEA402C05D17FEA236CA1
:10D24000E4D15FEA412CE1D05DF8040B704700BFE8
:10D25000844608466146FFE70FB5FFF7C9FF00287F
:10D2600048BF10F1000F0FBD4DF808EDFFF7F4FFB8
:10D270000CBF012000205DF808FB00BF4DF808ED51
:10D28000FFF7EAFF34BF012000205DF808FB00BF74
:10D290004DF808EDFFF7E0FF94BF012000205DF896
:10D2A00008FB00BF4DF808EDFFF7D2FF94BF012047
:10D2B00000205DF808FB00BF4DF808EDFFF7C8FF40
:10D2C00034BF012000205DF808FB00BF4FEA400298
:10D2D000B2F1FE4F0FD34FF09E03B3EB12620DD9A4
:10D2E0004FEA002343F0004310F0004F23FA02F00E
:10D2F00018BF404270474FF00000704712F1610FB5
:10D3000001D1420205D110F0004008BF6FF000408B
:10D3100070474FF00000704742000ED2B2F1FE4F4E
:10D320000BD34FF09E03B3EB126209D44FEA0023F4
:10D3300043F0004323FA02F070474FF000007047BB
:10D3400012F1610F01D1420202D14FF0FF3070475C
:10D350004FF00000704700BF40F20403C2F2000328
:10D360001868704770B540F2A47640F2A475C0F614
:10D370000206C0F60205761BB61006D0002455F84A
:10D38000043B01349847A642F9D140F2A87640F216
:10D39000A475C0F60206C0F60205761B13F0F6F976
:10D3A000B61006D0002455F8043B01349847A64235
:10D3B000F9D170BD032A2DE9F00109D82AB1002363
:10D3C000CC5CC45401339342FAD1BDE8F0017047FC
:10D3D00085070244034605D011F8014B03F8014BC1
:10D3E0009C07F9D111F0030542D0D41A6E42032CE8
:10D3F0008F5912DDC5F1040CED004FEACC0C04315D
:10D4000027FA05F88C59274604FA0CF444EA080474
:10D4100043F8044BD41A032CF1DC9A42D5D90022EC
:10D420008D5C9D540132A242FAD1CEE70C681C609B
:10D430004C685C608C689C60CC68DC600C691C612A
:10D440004C695C618C699C61CC69DC610C6A1C6212
:10D450004C6A5C628C6A9C62CC6ADC620C6B1C63FA
:10D460004C6B5C638C6B9C63CC6B4031DC634033F6
:10D47000D41A3F2CDADC0AE00C681C604C685C6053
:10D480008C689C60CC681031DC601033D41A0F2C8F
:10D49000F2DC04E051F8044B43F8044BD41A032C9B
:10D4A000F8DCBAE7032AC9B270B407D822B1002366
:10D4B000C15401339342FBD170BC704785070244CD
:10D4C000034603D003F8011B9C07FBD10C02D51ABD
:10D4D000641826043F2D34441ADD1C605C609C6097
:10D4E000DC601C615C619C61DC611C625C629C6252
:10D4F000DC621C635C639C63DC634033D51A3F2DA4
:10D50000EBDC05E01C605C609C60DC601033D51ACD
:10D510000F2DF7DC02E043F8044BD51A032DFADC9B
:10D520009342C9D203F8011B9342FBD1C4E700BF69
:10D5300040F0BE61024B41F42020D860704700BF2C
:10D5400000ED00E0C37810B52BB3184AD4684278D8
:10D55000E14301F4E0631B0AC3F1040C5FFA8CF4AD
:10D5600012FA04F10F2454FA03F2847890F800C000
:10D57000C9B202EA040343EA01020D4B0CEB0301BA
:10D58000120181F800230378012203F01F005909DA
:10D5900012FA00F306E002780123510902F01F009D
:10D5A00083402031024840F8213010BD00ED00E0FA
:10D5B00000E100E043680A6830B523F0407424F4C9
:10D5C00080750B7945EA020C4CEA0324CD680A69A0
:10D5D0004460846845EA02038D680A4A43EA050C00
:10D5E00004EA02034A794CEA030C4CEA42038360E2
:10D5F000097DC26A4B1E22F47002D9B242EA01537D
:10D60000C36230BDFDF7FFC000210123016001713D
:10D6100041718160C160016103757047094A10B5AD
:10D620005368094C03EA040C90E812002143846813
:10D63000C06841EA040343EA000141EA0C03536075
:10D6400010BD00BF00230140E030FCFF0023036059
:10D6500043608360C3607047836811B143F0010386
:10D6600001E023F0010383607047092970B54FEA98
:10D6700041040BD964181E3CC6680725A54026EA5C
:10D680000505A34045EA0304C4600AE0066964187E
:10D690000725A54026EA050513FA04F445EA040324
:10D6A0000361062A0CD8013A02EB8202446B1F2365
:10D6B000934024EA030C91404CEA0102426370BD9E
:10D6C0000C2A4FEA82030CD89A18046B233A1F23C2
:10D6D000934024EA030C11FA02F24CEA02010163BE
:10D6E00070BD9A18C46A413A1F23934024EA030C80
:10D6F00011FA02F24CEA0201C16270BD816841F088
:10D70000804383607047836811B143F4807301E004
:10D7100023F4807383607047836811B143F400730E
:10D7200001E023F40073836070470000016821F07A
:10D730000103036000212123016041608160C16019
:10D74000016143612C4B98421CD02C4B984220D055
:10D750002B4B984225D02B4B98422AD02A4B9842EB
:10D760002FD02A4B984233D0294B984237D0294B9F
:10D77000984204D14FF03D5243F8AC2C7047264BF1
:10D78000984203D13D2043F8080C7047234B984240
:10D7900004D14FF4746143F8201C7047204B984229
:10D7A00004D14FF4741243F8382C70471D4B984243
:10D7B00004D14FF0746043F8500C70471A4B9842F4
:10D7C00003D11A4943F8641C7047194B984203D19E
:10D7D000184A43F87C2C7047174B984203D11748DE
:10D7E00043F8940C7047164B984204BF4FF03D52DB
:10D7F00043F8AC2C704700BF106002402860024024
:10D800004060024058600240706002408860024000
:10D81000A0600240B86002401064024028640240E8
:10D820004064024058640240706402403D000020A1
:10D8300088640240400F0020A064024000003D20A8
:10D84000B86402400268164B10B502EA030CCC68BB
:10D850000A684B6922438C691343CA6923430C6AE3
:10D860001A434B6A22438C6A13434A6B23438C6BE3
:10D870001A4342EA040343EA0C0202604469CB6A99
:10D8800024F007020C6B44EA030C0B694CEA020219
:10D89000426143604A688B688260C36010BD00BF0C
:10D8A0003F801CF00023036043608360C36003611A
:10D8B00043618361C361036243628362C362036342
:10D8C000436383637047036811B143F0010301E0D0
:10D8D00023F001030360704741607047406880B2E5
:10D8E0007047006800F0010070470B0607D54369D8
:10D8F00012B143F0800301E023F0800343618029EB
:10D9000009D001F01E01036812B11943016070478C
:10D9100023EA010202607047104B114A10B5114C06
:10D92000A0428CBF14461C460F4A01EA02032BB1E9
:10D93000026802F01E0000EAD12202E0436903F00F
:10D9400080028800094B4CBF60682068194008407D
