:020000040800F2
:100000000000022015590208E9710108ED7101088C
:10001000F5710108FD71010805720108000000007A
:100020000000000000000000000000000D72010848
:10003000117201080000000015720108C971010861
:100040005D5902085D5902085D5902085D590208B0
:100050005D5902085D5902085D5902085D590208A0
:100060005D5902085D5902085D5902085D59020890
:100070005D5902085D5902085D5902085D59020880
:100080005D590208197301085D5902085D5902089B
:100090005D5902085D5902085D5902085D59020860
:1000A0005D5902085D5902085D5902085D59020850
:1000B00019720108697201085D5902087973010813
:1000C0007173010889730108817301085D59020881
:1000D0005D59020861730108697301085D590208DE
:1000E0005D5902085D5902085D5902085D59020810
:1000F0005D5902085D5902085D5902085D59020800
:100100005D5902085D5902085D5902085D590208EF
:100110005D5902085D5902085D5902085D590208DF
:100120005D5902085D590208817201085D59020893
:100130005D5902085D5902085D5902085D590208BF
:100140005D5902085D5902085D5902085D590208AF
:100150005D5902085D590208D17201085D59020813
:100160005D5902085D5902085D5902085D5902088F
:100170005D5902085D5902085D5902085D5902087F
:080180005D5902085D590208F7
:1080000010B5054C237833B9044B13B10448AFF3D2
:1080100000800123237010BD880E002000000000A6
:1080200018C70208084B10B51BB108490848AFF340
:1080300000800848036803B910BD074B002BFBD034
:10804000BDE81040184700BF000000008C0E002063
:1080500018C70208840E00200000000081F00041D3
:1080600002E000BF83F0004330B54FEA41044FEA1D
:10807000430594EA050F08BF90EA020F1FBF54EAB8
:10808000000C55EA020C7FEA645C7FEA655C00F054
:10809000E2804FEA5454D4EB5555B8BF6D420CDD25
:1080A0002C4480EA020281EA030382EA000083EAA8
:1080B000010180EA020281EA0303362D88BF30BD48
:1080C00011F0004F4FEA01314FF4801C4CEA11319E
:1080D00002D0404261EB410113F0004F4FEA0333FD
:1080E0004CEA133302D0524263EB430394EA050F88
:1080F00000F0A780A4F10104D5F1200E0DDB02FAF7
:108100000EFC22FA05F2801841F1000103FA0EF28A
:10811000801843FA05F359410EE0A5F120050EF150
:10812000200E012A03FA0EFC28BF4CF0020C43FA81
:1081300005F3C01851EBE37101F0004507D54FF08E
:10814000000EDCF1000C7EEB00006EEB0101B1F5DE
:10815000801F1BD3B1F5001F0CD349085FEA300024
:108160004FEA3C0C04F101044FEA445212F5800F2F
:1081700080F09A80BCF1004F08BF5FEA500C50F1CC
:10818000000041EB045141EA050130BD5FEA4C0CAF
:10819000404141EB010111F4801FA4F10104E9D138
:1081A00091F0000F04BF01460020B1FA81F308BF2F
:1081B0002033A3F10B03B3F120020CDA0C3208DDFB
:1081C00002F1140CC2F10C0201FA0CF021FA02F1D6
:1081D0000CE002F11402D8BFC2F1200C01FA02F146
:1081E00020FA0CFCDCBF41EA0C019040E41AA2BF6B
:1081F00001EB0451294330BD6FEA04041F3C1CDA33
:108200000C340EDC04F11404C4F1200220FA04F052
:1082100001FA02F340EA030021FA04F345EA0301FC
:1082200030BDC4F10C04C4F1200220FA02F001FABE
:1082300004F340EA0300294630BD21FA04F0294640
:1082400030BD94F0000F83F4801306BF81F48011D9
:108250000134013D4EE77FEA645C18BF7FEA655C4C
:1082600029D094EA050F08BF90EA020F05D054EA1E
:10827000000C04BF1946104630BD91EA030F1EBF23
:108280000021002030BD5FEA545C05D14000494127
:1082900028BF41F0004130BD14F580043CBF01F51A
:1082A000801130BD01F0004545F0FE4141F4700100
:1082B0004FF0000030BD7FEA645C1ABF19461046DB
:1082C0007FEA655C1CBF0B46024650EA013406BFDC
:1082D00052EA033591EA030F41F4002130BD00BF9B
:1082E00090F0000F04BF0021704730B54FF4806458
:1082F00004F132044FF000054FF0000150E700BFD9
:1083000090F0000F04BF0021704730B54FF4806437
:1083100004F1320410F0004548BF40424FF0000124
:108320003EE700BF42004FEAE2014FEA31014FEA67
:1083300002701FBF12F07F4393F07F4F81F06051B6
:10834000704792F0000F14BF93F07F4F704730B525
:108350004FF4607401F0004521F0004120E700BFB8
:1083600050EA010208BF704730B54FF000050AE03F
:1083700050EA010208BF704730B511F0004502D540
:10838000404261EB41014FF4806404F132045FEA42
:10839000915C3FF4DCAE4FF003025FEADC0C18BFE7
:1083A00003325FEADC0C18BF033202EBDC02C2F1DD
:1083B000200300FA03FC20FA02F001FA03FE40EA6F
:1083C0000E0021FA02F11444C1E600BF70B54FF06F
:1083D000FF0C4CF4E06C1CEA11541DBF1CEA135551
:1083E00094EA0C0F95EA0C0F00F0DEF82C4481EAB9
:1083F000030621EA4C5123EA4C5350EA013518BFD9
:1084000052EA033541F4801143F4801338D0A0FBC5
:1084100002CE4FF00005E1FB02E506F00042E0FB72
:1084200003E54FF00006E1FB03569CF0000F18BF78
:108430004EF0010EA4F1FF04B6F5007F64F5407420
:1084400004D25FEA4E0E6D4146EB060642EAC621B3
:1084500041EA55514FEAC52040EA5E504FEACE2E20
:10846000B4F1FD0C88BFBCF5E06F1ED8BEF1004F23
:1084700008BF5FEA500E50F1000041EB045170BD9F
:1084800006F0004646EA010140EA020081EA0301E3
:10849000B4EB5C04C2BFD4EB0C0541EA045170BDDF
:1084A00041F480114FF0000E013C00F3AB8014F159
:1084B000360FDEBF002001F0004170BDC4F10004A2
:1084C000203C35DA0C341BDC04F11404C4F1200523
:1084D00000FA05F320FA04F001FA05F240EA02007E
:1084E00001F0004221F0004110EBD37021FA04F6B4
:1084F00042EB06015EEA430E08BF20EAD37070BD6E
:10850000C4F10C04C4F1200500FA04F320FA05F0CC
:1085100001FA04F240EA020001F0004110EBD370CE
:1085200041F100015EEA430E08BF20EAD37070BD3E
:10853000C4F1200500FA05F24EEA020E20FA04F317
:1085400001FA05F243EA020321FA04F001F00041C6
:1085500021FA04F220EA020000EBD3705EEA430E37
:1085600008BF20EAD37070BD94F0000F0FD101F066
:108570000046400041EB010111F4801F08BF013C9F
:10858000F7D041EA060195F0000F18BF704703F0DD
:108590000046520043EB030313F4801F08BF013D64
:1085A000F7D043EA0603704794EA0C0F0CEA135520
:1085B00018BF95EA0C0F0CD050EA410618BF52EADA
:1085C0004306D1D181EA030101F000414FF00000E0
:1085D00070BD50EA410606BF1046194652EA4306EE
:1085E00019D094EA0C0F02D150EA013613D195EA62
:1085F0000C0F05D152EA03361CBF104619460AD1AA
:1086000081EA030101F0004141F0FE4141F47001B3
:108610004FF0000070BD41F0FE4141F4780170BDA3
:1086200070B54FF0FF0C4CF4E06C1CEA11541DBF08
:108630001CEA135594EA0C0F95EA0C0F00F0A7F80A
:10864000A4EB050481EA030E52EA03354FEA013137
:1086500000F088804FEA03334FF0805545EA13134A
:1086600043EA12634FEA022245EA111545EA106512
:108670004FEA00260EF000419D4208BF964244F1A9
:10868000FD0404F5407402D25B084FEA3202B61AC8
:1086900065EB03055B084FEA32024FF480104FF49C
:1086A000002CB6EB020E75EB030E22BFB61A754610
:1086B00040EA0C005B084FEA3202B6EB020E75EBA3
:1086C000030E22BFB61A754640EA5C005B084FEA0B
:1086D0003202B6EB020E75EB030E22BFB61A7546D8
:1086E00040EA9C005B084FEA3202B6EB020E75EBE3
:1086F000030E22BFB61A754640EADC0055EA060EA4
:1087000018D04FEA051545EA16754FEA06164FEAE6
:10871000C30343EA52734FEAC2025FEA1C1CC0D192
:1087200011F4801F0BD141EA00014FF000004FF01F
:10873000004CB6E711F4801F04BF01430020B4F1E0
:10874000FD0C88BFBCF5E06F3FF6AFAEB5EB030C98
:1087500004BFB6EB020C5FEA500C50F1000041EB95
:10876000045170BD0EF0004E4EEA113114EB5C0462
:10877000C2BFD4EB0C0541EA045170BD41F4801135
:108780004FF0000E013C90E645EA060E8DE60CEA3D
:10879000135594EA0C0F08BF95EA0C0F3FF43BAF5A
:1087A00094EA0C0F0AD150EA01347FF434AF95EA11
:1087B0000C0F7FF425AF104619462CE795EA0C0FF5
:1087C00006D152EA03353FF4FDAE1046194622E7C2
:1087D00050EA410618BF52EA43067FF4C5AE50EA9C
:1087E00041047FF40DAF52EA43057FF4EBAE12E78C
:1087F0004FF0FF3C06E000BF4FF0010C02E000BF6D
:108800004FF0010C4DF804CD4FEA410C7FEA6C5C4F
:108810004FEA430C18BF7FEA6C5C1BD001B050EAF2
:10882000410C0CBF52EA430C91EA030F02BF90EADD
:10883000020F0020704710F1000F91EA030F58BF9C
:10884000994208BF90422CBFD8176FEAE37040F0FE
:10885000010070474FEA410C7FEA6C5C02D150EA9C
:10886000013C07D14FEA430C7FEA6C5CD6D152EA57
:10887000033CD3D05DF8040B704700BF844610461C
:1088800062468C461946634600E000BF01B5FFF71B
:10889000B7FF002848BF10F1000F01BD4DF808EDEB
:1088A000FFF7F4FF0CBF012000205DF808FB00BFBC
:1088B0004DF808EDFFF7EAFF34BF012000205DF816
:1088C00008FB00BF4DF808EDFFF7E0FF94BF012063
:1088D00000205DF808FB00BF4DF808EDFFF7CEFF64
:1088E00094BF012000205DF808FB00BF4DF808EDA3
:1088F000FFF7C4FF34BF012000205DF808FB00BF74
:108900004FEA410C7FEA6C5C02D150EA013C0AD18B
:108910004FEA430C7FEA6C5C02D152EA033C02D17D
:108920004FF0000070474FF0010070474FEA4102DE
:1089300012F5001215D211D56FF47873B3EB6252B1
:1089400012D94FEAC12343F0004343EA505311F0D8
:10895000004F23FA02F018BF404270474FF000006A
:10896000704750EA013005D111F0004008BF6FF0A8
:10897000004070474FF00000704700BF4FEA4102CF
:10898000B2F1E04324BFB3F5001CDCF1FE5C0DD96D
:1089900001F0004C4FEAC0024CEA5070B2F1004FB7
:1089A00040EB830008BF20F00100704711F0804FBA
:1089B00021D113F13872BCBF01F00040704741F47F
:1089C00080114FEA5252C2F11802C2F1200C10FA83
:1089D0000CF320FA02F018BF40F001004FEAC12367
:1089E0004FEAD32303FA0CFC40EA0C0023FA02F30B
:1089F0004FEA4303CCE77FEA625307D150EA0133E1
:108A00001EBF4FF0FE4040F44000704701F00040B0
:108A100040F0FE4040F40000704700BF80F000408E
:108A200002E000BF81F0004142001FBF5FEA410346
:108A300092EA030F7FEA226C7FEA236C6AD04FEA46
:108A40001262D2EB1363C1BFD2184140484041408B
:108A5000B8BF5B42192B88BF704710F0004F40F43D
:108A6000000020F07F4018BF404211F0004F41F459
:108A7000000121F07F4118BF494292EA030F3FD025
:108A8000A2F1010241FA03FC10EB0C00C3F1200338
:108A900001FA03F100F0004302D5494260EB4000C7
:108AA000B0F5000F13D3B0F1807F06D340084FEA32
:108AB000310102F10102FE2A51D2B1F1004F40EB27
:108AC000C25008BF20F0010040EA0300704749008F
:108AD00040EB000010F4000FA2F10102EDD1B0FA5A
:108AE00080FCACF1080CB2EB0C0200FA0CF0AABF4F
:108AF00000EBC25052421843BCBFD04018437047ED
:108B000092F0000F81F4000106BF80F400000132F2
:108B1000013BB5E74FEA41037FEA226C18BF7FEAC9
:108B2000236C21D092EA030F04D092F0000F08BF0B
:108B30000846704790EA010F1CBF0020704712F0F2
:108B40007F4F04D1400028BF40F00040704712F131
:108B500000723CBF00F50000704700F0004343F096
:108B6000FE4040F4000070477FEA226216BF0846CC
:108B70007FEA23630146420206BF5FEA412390EA8F
:108B8000010F40F4800070474FF0000304E000BF85
:108B900010F0004348BF40425FEA000C08BF704736
:108BA00043F0964301464FF000001CE050EA0102FA
:108BB00008BF70474FF000030AE000BF50EA01020F
:108BC00008BF704711F0004302D5404261EB4101FC
:108BD0005FEA010C02BF84460146002043F0B64321
:108BE00008BFA3F18053A3F50003BCFA8CF2083A46
:108BF000A3EBC25310DB01FA02FC634400FA02FC4F
:108C0000C2F12002BCF1004F20FA02F243EB020055
:108C100008BF20F00100704702F1200201FA02FCB7
:108C2000C2F1200250EA4C0021FA02F243EB0200AA
:108C300008BF20EADC707047844641EA000313F065
:108C400003036DD1403A41D351F8043B40F8043B53
:108C500051F8043B40F8043B51F8043B40F8043B16
:108C600051F8043B40F8043B51F8043B40F8043B06
:108C700051F8043B40F8043B51F8043B40F8043BF6
:108C800051F8043B40F8043B51F8043B40F8043BE6
:108C900051F8043B40F8043B51F8043B40F8043BD6
:108CA00051F8043B40F8043B51F8043B40F8043BC6
:108CB00051F8043B40F8043B51F8043B40F8043BB6
:108CC00051F8043B40F8043B403ABDD2303211D356
:108CD00051F8043B40F8043B51F8043B40F8043B96
:108CE00051F8043B40F8043B51F8043B40F8043B86
:108CF000103AEDD20C3205D351F8043B40F8043B56
:108D0000043AF9D2043208D0D2071CBF11F8013B53
:108D100000F8013B01D30B8803806046704700BF19
:108D2000082A13D38B078DD010F003038AD0C3F128
:108D30000403D21ADB071CBF11F8013B00F8013B0A
:108D400080D331F8023B20F8023B7BE7043AD9D3C9
:108D5000013A11F8013B00F8013BF9D20B7803709E
:108D60004B7843708B7883706046704740F0BF60EB
:108D7000024B40F40030D860704700BF00ED00E0C7
:108D8000C3785BB9037818485A09203203F01F03EF
:108D9000012101FA03F340F822307047134BF0B47D
:108DA000D9684778827804780F4EC943C1F302210D
:108DB000C1F10405EDB20F2307FA05F50B41EDB241
:108DC00013402B4304F1604202F561421B01DBB208
:108DD00082F800330378012203F01F015B098A4007
:108DE00046F82320F0BC704700E100E000ED00E011
:108DF000F0B544680A680E79D1F810E0CD680F4BE1
:108E000024F0407424F48074224342EA0622426033
:108E100087688A684E794EEA050422433B40134333
:108E200043EA460383600A7DC36A013AD2B223F45F
:108E3000700343EA0253C362F0BD00BFFDF7FFC0F9
:108E40000023012202750360037143718360C360D4
:108E50000361704770B442680668064D8468C16853
:108E6000054B6868324322430A43034013436B6057
:108E700070BC704700230140E030FCFF002303601A
:108E800043608360C3607047836819B923F00103AE
:108E90008360704743F0010383607047092970B411
:108EA0001DD9A1F10A0606EB4606C5680724B440A1
:108EB000B34025EA04042343062AC3601BD90C2AC5
:108EC00027D90D3A02EB8202C36A1F24944001FAAB
:108ED00002F223EA04010A43C26270BC704701EB4C
:108EE000410605690724B440B34025EA040423433E
:108EF000062A0361E3D8013A02EB8202436B1F2486
:108F0000944001FA02F223EA04010A43426370BC6E
:108F10007047073A02EB8202036B1F24944001FA68
:108F200002F223EA04010A43026370BC704700BFE7
:108F3000836843F080438360704700BF836819B93A
:108F400023F480738360704743F4807383607047B9
:108F5000836819B923F400738360704743F4007386
:108F60008360704702683749002310B422F0010281
:108F7000212488420260036043608360C360036110
:108F800044614DD0304B984235D0304B984239D067
:108F90002F4B98423DD02F4B984247D02E4B9842B2
:108FA00048D02E4B98421DD02D4B98421ED02D4BB1
:108FB000984243D02C4B98421DD02C4B984221D044
:108FC0002B4B984225D02B4B98422FD02A4B9842BE
:108FD00030D02A4B984205D0294B984206D05DF8F4
:108FE000044B7047274A43F8942CF8E74FF03D5262
:108FF00043F8AC2CF3E74FF4746243F8202C5DF88F
:10900000044B70474FF4741243F8382C5DF8044B4E
:1090100070474FF0746243F8502C5DF8044B704772
:10902000194B5DF8044B3D229A607047174A43F88C
:10903000642CD4E7164A43F87C2CD0E73D2243F851
:10904000082CCCE7106002402860024040600240DB
:10905000586002407060024088600240A060024098
:10906000B86002401064024028640240406402403C
:10907000586402407064024088640240A064024068
:10908000B864024000003D20006002403D00002026
:10909000400F002001F11802F0B48CCACD680E68B0
:1090A0004C692E43264316431E434A6A8B6A4D6B16
:1090B0008C6B3E4316431E430B4A0368CF6A35430D
:1090C0002C431A40224302600B6B42690D694C68C5
:1090D00089683B4322F00702134343614560846083
:1090E000C160F0BC704700BF3F801CF000230360EC
:1090F00043608360C360036143618361C361036252
:1091000043628362C362036343638363704700BF48
:10911000036819B923F001030360704743F00103AA
:109120000360704741607047406880B2704700BF7D
:10913000006800F0010070470B060CD54369AAB126
:1091400043F08003802943610FD0036801F01E01C2
:10915000194301607047802907D0002AF5D10368C0
:1091600001F01E0123EA01010160704723F0800332
:1091700080294361F3D1704770B4104A104E114CEE
:1091800021F0F02323F0C315B04298BF14468DB1EF
:10919000006800F01E0000EAD12289004CBF606820
:1091A000206823F08213184002D0101C18BF012041
:1091B00070BC7047406900F08002EEE7006002403A
:1091C0000F6402400064024010B4094B094C0A4A83
:1091D000A04294BF1846104611F0005F21F0F02124
:1091E00021F0821114BFC16081605DF8044B7047AB
:1091F000006002400F64024000640240044B1A69A0
:10920000002A03DA0349044A59605A60704700BFD4
:10921000003C024023016745AB89EFCD024A136948
:1092200043F0004313617047003C024010B483B028
:1092300039B101294BD002290CBF4FF400714FF412
:10924000407108225A4B8DF80620DA68D4033CD4CA
:10925000DA68D20626D505238DF806309DF806304B
:10926000012B15D1524A09E0D368DB0620D505232E
:109270008DF806309DF80630012B09D1D368DC0348
:10928000F2D501238DF806309DF80630012BF5D07C
:109290009DF80630DBB2082B23D0184603B05DF8EA
:1092A000044B7047DA6812F0EF0F13D00623D3E7B0
:1092B000D36813F0EF0F01D00623D9E7D36813F07A
:1092C000020F14BF07230823D2E70123C4E74FF49A
:1092D0008071B6E7DB6813F0020F14BF0723082381
:1092E000BAE7334A146924F44074146114692143C1
:1092F0001161116921F0F8011161116941F0020158
:1093000008431061116941F4803111618DF8073013
:10931000D368DC033DD4D368D8063CD505238DF84B
:1093200007309DF80730012B15D1214A09E0D36899
:10933000DB0621D505238DF807309DF80730012B7A
:1093400009D1D368D903F2D501238DF807309DF8F0
:109350000730012BF5D0164A9DF80730116921F02E
:10936000020111611169DBB221F0F80118461161A7
:1093700003B05DF8044B7047D36813F0EF0F01D0D2
:109380000623D8E7D36813F0020F14BF072308237E
:10939000D1E70123C3E7D36813F0EF0F01D0062311
:1093A000BDE7D36813F0020F14BF07230823B6E705
:1093B000003C024010B483B00822544B8DF80620C4
:1093C000DA68D4033CD4DA68D20626D505238DF8B2
:1093D00006309DF80630012B15D14C4A09E0D368C0
:1093E000DB0620D505238DF806309DF80630012BCD
:1093F00009D1D368DC03F2D501238DF806309DF83E
:109400000630012BF5D09DF80630DBB2082B20D0BA
:10941000184603B05DF8044B7047DA6812F0EF0F9E
:1094200010D00623D3E7D36813F0EF0F01D0062343
:10943000D9E7D36813F0020F14BF07230823D2E73C
:109440000123C4E7DB6813F0020F14BF07230823CE
:10945000BDE72E4A146924F440741461146944F47D
:1094600000741461146944F00104146101608DF802
:109470000730D368DC0339D4D368D80638D5052340
:109480008DF807309DF80730012B15D11F4A09E0F0
:10949000D368DB061DD505238DF807309DF807300E
:1094A000012B09D1D368D903F2D501238DF80730F8
:1094B0009DF80730012BF5D014499DF807300A6953
:1094C000DBB222F0010218460A6103B05DF8044BDA
:1094D0007047D36813F0EF0F01D00623DCE7D368A1
:1094E00013F0020F14BF07230823D5E70123C7E7B2
:1094F000D36813F0EF0F01D00623C1E7D36813F050
:10950000020F14BF07230823BAE700BF003C024044
:10951000014BD860704700BF003C024000222DE99B
:10952000F0471346D1F800E001274FF0030C04E0A8
:109530000133102B02F1020229D007FA03F434EAB6
:109540000E05F5D1D0F800800E790CFA02F5ED4346
:1095500008EA0508C0F80080D0F8009006FA02FA80
:10956000013E4AEA0909012E0CFA02F8C0F80090FF
:109570000FD9C568CC7925EA0805C560C56894404F
:1095800001332C43102BC46002F10202D5D1BDE897
:10959000F087866891F805903540856086688D79FA
:1095A00009FA02F949EA06068660466826EA0404D2
:1095B0004460466805FA03F4A4B234434460D8E733
:1095C00000234FF6FF720260037143718371C37110
:1095D000704700BF0369194214BF01200020704783
:1095E0000183704741837047CB0800EB830001F093
:1095F000070110B48900046A0F238B4024EA030397
:109600000362036A5DF8044B8A4042EA0301016287
:10961000704700BF08B5174B984212D0164B9842BE
:109620001BD0164B984200D008BD01214FF400001A
:1096300000F076F900214FF40000BDE8084000F08A
:109640006FB901214FF4001000F06AF900214FF4C6
:109650000010BDE8084000F063B901214FF480001C
:1096600000F05EF900214FF48000BDE8084000F0F2
:1096700057B900BF0054004000580040005C004053
:10968000F0B5054685B068460E46AC8800F0D2F8C5
:10969000029B32483268DFF8CCE0A0FB031024F0D4
:1096A0003F042404800C240C87B23C43AC802988FE
:1096B00021F001010904090C7245298024D85200C7
:1096C000B3FBF2F39BB2032B07F1010798BF04230E
:1096D0002F84AB832888B7887289B489318980B296
:1096E00040F0010028802B8823F4816323F00203DB
:1096F0001B043A431B0C134344EA01029BB292B28F
:109700002B802A8105B0F0BDF4884BF6FF718C42A6
:109710001DD002EB820202EB8202B3FBF2F39BB29A
:1097200043F48043C3F30B020AB943F001034FF43F
:1097300096710B4C01FB00F284FB0201D217C2EBC5
:10974000A112013292B243F400432A84C1E702EB32
:109750004202B3FBF2F39BB2E4E700BF83DE1B439C
:10976000D34D6210A0860100002310B44BF6FF71A8
:1097700041F288344FF480420460C180828183804A
:10978000038143815DF8044B704700BF038829B90A
:1097900023F001031B041B0C038070479BB243F0B2
:1097A00001030380704700BF038829B923F4807345
:1097B0001B041B0C038070479BB243F4807303802F
:1097C000704700BF038829B923F400731B041B0CE6
:1097D000038070479BB243F400730380704700BF5F
:1097E00022B901F0FE0189B20182704741F0010106
:1097F00089B20182704700BF038829B923F48063CE
:109800001B041B0C038070479BB243F480630380EE
:10981000704700BF01827047008AC0B2704700BF26
:1098200083889BB21AB923EA0101818070471943EA
:109830008180704710B4214CA36803F00C03042B03
:109840001BD0082B1CD01E4B03601C4A1D4994687A
:10985000C4F303140C5DE34043609468C4F38224B2
:109860000C5D23FA04F4846092685DF8044BC2F343
:1098700042328A5CD340C3607047134B0360E4E715
:109880006368616813F4800F636818BF0E4C01F0C1
:109890003F020CBF0A49B4FBF2F1C3F3881308BFBF
:1098A000B1FBF2F101FB03F2044B5B68C3F301432C
:1098B00001335B00B2FBF3F30360C6E700380240FC
:1098C0000024F4000000002000127A0029B9054AA3
:1098D000136B23EA000010637047024B1A6B1043AE
:1098E000186370470038024029B9054A136C23EA0F
:1098F000000010647047024B1A6C104318647047E4
:109900000038024029B9054A536C23EA000050642C
:109910007047024B5A6C104358647047003802403D
:1099200029B9054A136A23EA000010627047024B06
:109930001A6A1043186270470038024029B9054A74
:10994000536A23EA000050627047024B5A6A104380
:109950005862704700380240024A536F43F08073E8
:10996000536770470038024008B5174B984212D031
:10997000164B98421BD0164B984200D008BD0121CF
:109980004FF40040FFF7CCFF00214FF40040BDE84A
:109990000840FFF7C5BF01214FF48050FFF7CEFF0D
:1099A00000214FF48050BDE80840FFF7C7BF0121F8
:1099B0004FF48040FFF7B4FF00214FF48040BDE832
:1099C0000840FFF7ADBF00BF003001400038004045
:1099D000003C0040F0B44A880F888D88CC880B8901
:1099E0004E893A432A4322438D89CC89098A1A43F6
:1099F000324303882A43224303F4415313439BB267
:109A00000380838B23F400631B041B0C8383F0BC53
:109A100001827047002307220282038043808380F3
:109A2000C380038143818381C3817047038829B93F
:109A300023F040031B041B0C038070479BB243F0D0
:109A400040030380704700BF808980B2704700BF29
:109A5000038829B923F400531B041B0C03807047AF
:109A60009BB243F400530380704700BF038919423F
:109A700014BF01200020704708B5604B984235D0D4
:109A8000B0F1804F3CD05E4B984243D05D4B984242
:109A90004AD05D4B984251D05C4B984258D05C4BB9
:109AA00098425FD05B4B984266D05B4B98426DD03A
:109AB0005A4B984276D05A4B98427FD0594B984295
:109AC00000F08880584B984200F08E80574B9842A7
:109AD00000D008BD01214FF48070FFF721FF002165
:109AE0004FF48070BDE80840FFF71ABF0121084617
:109AF000FFF724FF00210120BDE80840FFF71EBF4B
:109B000001210846FFF70CFF00210120BDE80840B5
:109B1000FFF706BF01210220FFF702FF002102200C
:109B2000BDE80840FFF7FCBE01210420FFF7F8FE66
:109B300000210420BDE80840FFF7F2BE0121082003
:109B4000FFF7EEFE00210820BDE80840FFF7E8BE61
:109B500001211020FFF7E4FE00211020BDE808409D
:109B6000FFF7DEBE01212020FFF7DAFE00212020D2
:109B7000BDE80840FFF7D4BE01210220FFF7DEFE5A
:109B800000210220BDE80840FFF7D8BE01214FF4B4
:109B90008030FFF7D3FE00214FF48030BDE808404D
:109BA000FFF7CCBE01214FF40030FFF7C7FE0021C4
:109BB0004FF40030BDE80840FFF7C0BE01214FF46C
:109BC0008020FFF7BBFE00214FF48020BDE8084055
:109BD000FFF7B4BE01214020FFF7A2FE0021402084
:109BE000BDE80840FFF79CBE01218020FFF798FEEA
:109BF00000218020BDE80840FFF792BE0000014030
:109C00000004004000080040000C0040001000402C
:109C100000140040000401400040014000440140A5
:109C20000048014000180040001C00400020004097
:109C3000224A038890429BB212D002F58062904281
:109C40000ED0B0F1804F0BD0A2F58032904207D0F9
:109C500002F58062904203D002F58062904203D107
:109C60004A8823F070031343154A90421ED002F530
:109C7000806290421AD00A8970B423F440730F4C6A
:109C80004E680D889BB21343A0420380C6620585CF
:109C900006D00C4B984203D00123838270BC7047DE
:109CA0008B7A03860123838270BC704703800B8804
:109CB0004A68C26203850123838270470000014025
:109CC000001000400004014000234FF0FF324260CA
:109CD0000380038143808372704700BF41627047F5
:109CE000038829B923F080031B041B0C03807047F1
:109CF0009BB243F080030380704700BF038829B9FB
:109D000023F001031B041B0C038070479BB243F03C
:109D100001030380704700BFF0B5048CB1F80CC09C
:109D20004B880F881A4E24F001042404240C048468
:109D3000058CB0F804E0048B25F0020524F07302D2
:109D40002D042D0C4CEA030312042B43120CB042D9
:109D50009BB21FFA8EF442EA070208D00D4DA842CA
:109D600005D089688480028341630384F0BDCE8975
:109D70000F8A4D8A23F00803334324F440748E88FD
:109D80003D4323F004032C433343A4B2E9E700BF6F
:109D90000000014000040140F0B5058C0C88B1F8CA
:109DA0000CC0B1F802E01E4E25F010052D042D0C5C
:109DB0000584028C8788058B22F020031B0425F480
:109DC000E6421B0C120443EA0C13120C43EA0E1376
:109DD00042EA0422B0429BB2BDB294B208D0114A0A
:109DE000904205D08A688580048382630384F0BD35
:109DF00023F08002CB890F8A8E8892B242EA031246
:109E00004FF6BF73134025F440654A8A45EA87053B
:109E100043EA061345EA82059BB2ADB2E2E700BF12
:109E20000000014000040140F0B5058CB1F80CC001
:109E3000B1F802E00C881D4F25F480752D042D0C1F
:109E40000584028C8688858B22F400731B0425F020
:109E500073021B0C43EA0C23120443EA0E23120C78
:109E6000B8429BB2B5B244EA020408D0104A90420C
:109E700005D08A6885808483C2630384F0BD23F49F
:109E80000062CB890F8A8E8892B242EA03224FF693
:109E9000FF33134025F440554A8A45EA071543EA43
:109EA000062345EA02159BB2ADB2E2E7000001408D
:109EB00000040140028CB1F802C022F48052120466
:109EC000120C2DE9F041B1F80C80B1F800E00284E9
:109ED000058C8788828B124E25F4005422F4E643C9
:109EE0002404240C1B0444EA08341B0C44EA0C34FC
:109EF00043EA0E23B042A4B2BAB29BB209D0094DD4
:109F0000A84206D089688280838301640484BDE806
:109F1000F0810D8A22F4804242EA851292B2F1E782
:109F2000000001400004014000230380438083803F
:109F300083608381C381038243827047038B23F054
:109F400008031B041B0C194301837047038B23F484
:109F500000631B041B0C43EA012189B20183704793
:109F6000838B23F008031B041B0C19438183704768
:109F7000838B23F400631B041B0C43EA012189B289
:109F80008183704710B4048C01238B40A4B224EA6F
:109F900003040484038C5DF8044B8A4013439BB292
:109FA000038470470B88F0B5002B32D0042B57D0B8
:109FB000082B00F08380028C4F88B1F804E00E89F2
:109FC000CD8822F480521204120C0284848B028CFD
:109FD00024F4407122F4005309055B04090D5B0C65
:109FE00041EA0E2143EA073341EA06319BB243F4CA
:109FF000805389B281830384828B22F440621204ED
:10A00000120C8283838B9BB243EA05239BB283832A
:10A01000F0BD028C4E888D880B89CC8822F001021D
:10A020001204120C0284028B018C92B222F0F30211
:10A0300021F00A0142EA0313090446F001029BB22F
:10A04000090C2B43114303830184038B23F00C037E
:10A050001B041B0C0383038B9BB223430383F0BDC0
:10A06000058C4F888E88B1F808E0CC8825F0100167
:10A070000904090C0184028B018C22F440731B0536
:10A080001B0D8AB243EA0E3322F0A0029BB242EAD1
:10A09000071243EA062392B29BB242F010020383F6
:10A0A0000284038B23F440631B041B0C0383038B88
:10A0B0009BB243EA04239BB20383F0BD068C4F8816
:10A0C0008D880A89CC8826F480710904090C0184E2
:10A0D000818B038C89B29BB221F0F30123F42063BE
:10A0E00041EA021243EA072392B29BB243F480731F
:10A0F0002A4382830384838B23F00C031B041B0CF1
:10A100008383838B9BB21C438483F0BD0023012295
:10A11000828003804380C38003817047406B704717
:10A12000806B7047C06B7047006C7047B0F844306C
:10A1300021B9C3F30E03A0F8443070476FEA4343DC
:10A140006FEA53439BB2A0F84430704783899BB2B7
:10A150001AB923EA0101818170471943818170474F
:10A16000038A828911EA030092B203D0114214BF1C
:10A1700001200020704700BFC94389B201827047A7
:10A1800083899BB21AB923EA01018181704719437F
:10A190008181704708B52B4B984219D02A4B9842C1
:10A1A00020D02A4B984229D0294B984232D0294BB3
:10A1B00098423BD0284B984200D008BD0121202076
:10A1C000FFF7BCFB00212020BDE80840FFF7B6BB2D
:10A1D00001211020FFF7B2FB00211020BDE808404C
:10A1E000FFF7ACBB01214FF40030FFF799FB0021D2
:10A1F0004FF40030BDE80840FFF792BB01214FF457
:10A200008020FFF78DFB00214FF48020BDE808403F
:10A21000FFF786BB01214FF40020FFF781FB0021EF
:10A220004FF40020BDE80840FFF77ABB01214FF44E
:10A230008010FFF775FB00214FF48010BDE8084047
:10A24000FFF76EBB00100140004400400048004092
:10A25000004C00400050004000140140028A0B896D
:10A26000F0B592B2CF888E88044622F440523A4329
:10A2700048890D4689892282A289334392B20343D9
:10A2800022F4B05222F00C029BB21343A381A38AA2
:10A290009BB223F440730B4385B0A3826846FFF75B
:10A2A000C9FA1D4B9C4228D003F580639C4224D000
:10A2B000029AA389A18913F4004F2B6802EB820252
:10A2C00014BF5B009B0002EB8202B2FBF3F0134A67
:10A2D000A2FB00356D096423090405FB13034FEA53
:10A2E00005150CD41B013233A2FB0323C3F3431324
:10A2F0002B439BB2238105B0F0BD039AD9E7D90067
:10A300003231A2FB0131C1F3421242EA05039BB292
:10A31000238105B0F0BD00BF001001401F85EB5147
:10A3200000234FF416510C22016042818380C380C8
:10A3300003818381704700BF838929B923F40053C7
:10A340001B041B0C838170479BB243F40053838131
:10A35000704700BFC1F30801818070478088C0F357
:10A3600008007047838A9BB21AB923EA01018182EF
:10A37000704719438182704710B401F01F04C1F384
:10A3800042110123012903FA04F311D002290CBF61
:10A390001030143032B902685DF8044B22EA03032E
:10A3A0000360704702685DF8044B13430360704715
:10A3B0000C30EFE70388194214BF012000207047DA
:10A3C000C1F3421210B4012301F01F04012A03FA61
:10A3D00004F317D0022A0CBF028A828A92B2134079
:10A3E000028892B253B10123090A03FA01F10A4229
:10A3F00014BF184600205DF8044B704718465DF8FE
:10A40000044B7047828992B21340E9E78188006863
:10A41000FFF7E0B80368828809B95A8370471A8346
:10A42000704700BF0268818853694B405361704791
:10A4300070B5044682B06846FFF7C2F8A388667A12
:10A44000A57A009301220223694620688DF80660F0
:10A450008DF807508DF804208DF80530FFF75EF871
:10A4600002B070BD2DE9F0478CB000230593049332
:10A47000069300287DD0451E5FFA85FA464D0AF105
:10A480000107064605EB47172C46E0680021FFF759
:10A490004DFE203454F8140CFFF7EEFABC42F4D110
:10A4A00004A8FFF711FC07A8FFF73EFD3B483C4C12
:10A4B00081464FF00208FFF729FE012704A88DF816
:10A4C00005808DF8067005EB4A15FFF7FDFB4FF68A
:10A4D000FF72532324350592ADF8103002A8FFF720
:10A4E0006FF8218894F804E0A379627954F8040C99
:10A4F000029102A98DF80CE08DF80F308DF80E2036
:10A500008DF80D80FFF70AF8227D618854F8040C5D
:10A51000FFF76AF8237E8DF8043001A88DF80770E4
:10A52000FEF72EFCA06804A9FFF782FB1B48FFF78B
:10A53000EDFDA389A0681949A9F800302034FFF780
:10A5400031FD34F8121C54F8180C0122FFF7FEFDFF
:10A55000AC42C3D1104D0024E86801340121FFF75B
:10A56000CDFBE3B2B34205F12005F5D30CB0BDE855
:10A57000F08704A8FFF7A8FB07A8FFF7D5FC07485A
:10A58000FFF7C4FD0222012304A88DF805208DF8F1
:10A590000630FFF799FBE9E7EC010020A40E00204C
:10A5A000F00100202DE9F0478046444CC8EBC80874
:10A5B00082B004EB88046846FFF702F8238AE0685B
:10A5C00000930122022369468DF806208DF805309C
:10A5D0008DF80430FEF7A2FF238B60690093694673
:10A5E000FEF79CFF218AE068FEF7FAFF218B606985
:10A5F000FEF7F6FF05F0FAFA643085B24FF0080A6C
:10A6000006E00A2005F0C6FA05F0F0FAA8424CD898
:10A61000218AE068DFF8A490FEF7DCFF0028F0D084
:10A62000218AE068FEF7DEFF0A2005F0B3FA218AEE
:10A63000E068FEF7D5FF0AF1FF3A0A2005F0AAFA12
:10A640001AF0FF0AE4D1218B6069FEF7CBFF0A20E4
:10A6500005F0A0FA218AE068FEF7C4FF0A2005F0A1
:10A6600099FA218AE068FEF7BBFF0A2005F092FA0A
:10A67000218B6069FEF7B4FF238AE0680093012212
:10A68000022369468DF805308DF804308DF80620D8
:10A69000FEF744FF09EB8800238B4069009369466D
:10A6A000FEF73CFF02B0BDE8F087054A137A43F09D
:10A6B0000803137202B0BDE8F08700BFC404002095
:10A6C0007894002030B5C0EBC004A300264CE25CB7
:10A6D00087B01C440AB907B030BD0546E27EA17CB4
:10A6E000E068FEF781FFE27EA17E6069FEF77CFFF5
:10A6F0002846FFF757FF1D4B1B7A03F0080303F0B2
:10A70000FF05002BE7D16068FEF784FF02A8FFF782
:10A710002BF82A4660684FF44071FFF781F8144B1C
:10A72000606802930121FFF731F802A96068FEF723
:10A73000A7FF4FF4A060FEF719FB222201A8012316
:10A740008DF804208DF807308DF805508DF80650EF
:10A75000FEF716FB212301A88DF805508DF8043073
:10A76000FEF70EFB07B030BDC40400207894002033
:10A77000801A06002DE9F04100EB4007FC003A4D3D
:10A780003A4B2A599A4286B005EB040602D006B02D
:10A79000BDE8F081337D002BF9D001214FF48040DA
:10A7A000FFF7A2F801A8FEF70BFF3189338AB289BF
:10A7B00070680B4313431BB24FF00008022201A93B
:10A7C00001938DF808208DF809208DF80B208DF865
:10A7D0000A80FEF7A3FE052271897068FEF704FF68
:10A7E0000522F1897068FEF7FFFE0522718A706804
:10A7F000FEF7FAFE2859FFF7B7F801A8FFF70AF9A4
:10A800004FF482704FF4007E3022072301A9ADF887
:10A8100006002859ADF80EE0ADF81020ADF8143060
:10A82000ADF80480ADF80880ADF80A80ADF80C8072
:10A83000ADF81280FFF7CEF841462859FFF708F926
:10A8400028590121FFF7F2F802213068064CFFF782
:10A850000DF90028F8D054F83700FFF7F5F8C0B22A
:10A860008DF8030093E700BF10000020003800407F
:10A870002DE9F043044689B0002568460E46174688
:10A880009846049503950595069507959DF8409083
:10A89000FEF796FEA388217A627A00938DF8041061
:10A8A000A37A20688DF80730022569468DF80620C6
:10A8B0008DF80550FEF732FEE37A13B909B0BDE812
:10A8C000F083227EE1882068FEF78EFE03A8FFF762
:10A8D0002BFB238AADF81850B9F1000F4FF0700030
:10A8E0004FF001014FF48072CDF8148014BF0025A1
:10A8F0000825ADF80C00ADF80E10ADF81C200C2B9F
:10A9000010D8DFE803F04D0F0F0F440F0F0F3B0F70
:10A910000F0F070003A9E068FFF7CCFA2946E068AB
:10A92000FFF726FB6846FFF7CFF9E068214B984216
:10A9300010D003F5806398420CD003F57053984211
:10A9400008D003F58063984204D003F580639842F1
:10A9500018BF7608013EB6B2013F01210197ADF85C
:10A960000060FFF7CBF96946E068FFF761F9E0683E
:10A970000121FFF7DBFB09B0BDE8F08303A9E06824
:10A98000FFF752FA2946E068FFF7EAFACAE703A997
:10A99000E068FFF701FA2946E068FFF7D7FAC1E758
:10A9A00003A9E068FFF7B8F92946E068FFF7C6FA9F
:10A9B000B8E700BF00000140032803D0042802D1FB
:10A9C0000F4B1960704770B52C2505FB00F50D4E37
:10A9D00084B00C4670590021FFF7AEFC6846FFF7C3
:10A9E0009FFC002369467059ADF808300094FFF7CA
:10A9F00035FC70590121FFF79FFC04B070BD00BF0A
:10AA000028060020EC020020F0B5304E9BB07069A3
:10AA1000FEF7A8FA70692D4CFEF78AFB0546002860
:10AA2000F8D10BA8FEF762FB2368226960691095D4
:10AA30004C330C934FF4806311934FF400631293E3
:10AA40004FF4005313934FF4807303250BA9149311
:10AA50001F4F0B924FF4003315930F950D97FEF790
:10AA600019FB01216069FEF753FB01A8FEF706FA06
:10AA700001A8FEF7EFF905A8FEF7E2F9012305A901
:10AA800020688DF828508DF819308DF81830FEF7B1
:10AA9000AFF904F15405227E217B54F81C0B0223EC
:10AAA000FEF7FCF9AC42F6D130680121FEF750FA0E
:10AAB00030680121FEF742FA01213068FEF7E4F91F
:10AAC0003068FEF735FA1BB0F0BD00BF98010020DA
:10AAD0005C2A00202DE9F041A74B1D7896B0002D8F
:10AAE0007CD0042D13D1A549A54AA64FA64B0878C2
:10AAF00015700621002239701A70A44B1B780BB117
:10AB000004233B70FFF7AEFC16B0BDE8F0819D4F0B
:10AB10009D499B4B0A2000260422032D38700E709D
:10AB20001A7000F0AE819A4C01A8FEF749FD02258B
:10AB300001A88DF80950FEF743FD228FA38F606BAB
:10AB40008DF8085013439BB201A90193FEF7E6FC70
:10AB500094F83020618F606BFEF746FD94F830204A
:10AB6000E18F606BFEF740FD03A8FFF7D9FB636D33
:10AB7000E06A039303A9ADF81460FFF76FFB94F844
:10AB8000423084488449854A8DF802500125468028
:10AB90008DF801504E808DF803505680002B40F008
:10ABA000818094F8402082B116A894F8412000F8E2
:10ABB000582D7B497B4A4B805380FEF7E1F82A46AB
:10ABC00040F22551E06AFFF7D7FB0123764AE06A9D
:10ABD00053701946FFF7B0FB00208EE76A4A684BB6
:10ABE000684F6B4C0A21012601A8397016701E703F
:10ABF0004FF00208FEF7E4FC01A88DF80980FEF78B
:10AC0000DFFC228FA38F606B8DF8088013439BB20B
:10AC100001A90193FEF782FC94F83020618F606BEC
:10AC2000FEF7E2FC94F83020E18F606BFEF7DCFC6D
:10AC300003A8FFF775FB636DE06A039303A9ADF802
:10AC40001450FFF70BFB94F8423052485249534AD4
:10AC500045808DF802804D808DF801608DF803608D
:10AC60005580002B40F0A48094F8402042B94E4B10
:10AC7000E06A002201215A70FFF75EFB01203CE7E9
:10AC800016A894F8412000F8582D4549454A4B80B4
:10AC90005380FEF775F8324640F22551E06AFFF71F
:10ACA0006BFBE4E707AE3046FEF720FAE36A206D5F
:10ACB0004FF4806204334FF4803108930D920B926D
:10ACC0001191FEF74FF9E36A4FF480720433089351
:10ACD0001092206D2E4DFEF72BFA03460028F8D176
:10ACE000286D0A936B6C314A079331460992FEF73F
:10ACF000D1F90121286DFEF70BFA01224021E86A03
:10AD0000FFF730FB286DFEF70FFA16AA95F84C30C6
:10AD100002F8583DC0F58060DFF884E0214903B2B5
:10AD20001046AEF802304B80FEF72AF8A86CFEF70A
:10AD300019F9A06CDFF85880FEF7FAF905460028EB
:10AD4000F7D14023D8F848000A9331461095FEF712
:10AD5000A1F92946D8F84800FEF7E4F9D8F84800E8
:10AD600001221021FEF7E8F9D8F82C0001228021F9
:10AD7000FFF7F8FA29E700BF24060020220600208A
:10AD8000260600201D0600202C0600208C1C00201A
:10AD9000EC020020E4890020E8890020F4910020E2
:10ADA000F0890020EC890020E0890020F48D00204B
:10ADB00007AE3046FEF79AF9E36A206D4FF48062E1
:10ADC00004334FF4803108930D920B921191FEF7EA
:10ADD000C9F8E36A4FF48072043308931092206D2F
:10ADE000374DFEF7A5F903460028F8D1286D0A93E0
:10ADF0006B6C344A079331460992FEF74BF90121F7
:10AE0000286DFEF785F901224021E86AFFF7AAFACA
:10AE1000286DFEF789F916AA95F84C3002F8583DCE
:10AE2000C0F58060DFF8A8E0274903B21046AEF80D
:10AE300002304B80FDF7A4FFA86CFEF793F8A06CDE
:10AE4000DFF87C80FEF774F905460028F7D140232F
:10AE5000D8F848000A9331461095FEF71BF92946A9
:10AE6000D8F84800FEF75EF9D8F848000122102112
:10AE7000FEF762F9D8F82C0001228021FFF772FA60
:10AE8000F5E60F4C114DE06A3146FFF755FA07A879
:10AE9000FFF746FA4FF480524FF4005307A9E06AD7
:10AEA000ADF82020ADF82230ADF824600795FFF70B
:10AEB000D5F9E06A0121FFF73FFA30461DE600BFF1
:10AEC000EC020020F48D0020EC890020A086010017
:10AED000F08900202DE9F041012198B00846FEF7E5
:10AEE000F5FC01210220FEF7F1FC01210420FEF710
:10AEF000EDFC01214FF48040FEF704FD01210846DE
:10AF0000FEF700FD01210220FEF7FCFC01210846AE
:10AF1000FEF7EAFC01210220FEF7E6FC01210420F5
:10AF2000FEF7E2FC01214FF48070FEF7EBFC0121FB
:10AF30004FF48000FEF7D8FC01214FF48000FEF7AB
:10AF4000C5FC9748974CFFF725F99748FFF722F97A
:10AF500001211020FEF7D6FC01214FF40030FEF74E
:10AF6000C3FC01214FF48020FEF7BEFCFEF7F4FC89
:10AF700001A8FEF725FB4FF6FF72032301A98B48BA
:10AF800001928DF80830FEF7C9FA01A98848FEF74A
:10AF9000C5FA01A98748FEF7C1FA4FF4A060FDF792
:10AFA000E5FE04F5A0770126022509A8FEF708FBB7
:10AFB0002278637834F805EC54F8090C8DF82A20CF
:10AFC00009A98DF82B308DF828608DF82950CDF81F
:10AFD00024E02034FEF7A2FA54F8293C34F8252C5A
:10AFE0005A83BC42E1D1744C022704F1800609A8BF
:10AFF000FEF7E6FA6278A37834F804EC257854F882
:10B00000080C8DF82A2009A98DF82B308DF82970AD
:10B01000CDF824E08DF828502034FEF77FFA54F85C
:10B02000283C34F8242C1A83B442E0D1634C4FF00E
:10B03000020804F5807709A8FEF7C2FA203414F854
:10B040001C5C34F8206C14F81B2C14F81A3C54F8CF
:10B05000240C8DF8285009A98DF8298009968DF8BF
:10B060002A208DF82B30FEF759FAA7424FF002053F
:10B07000E1D10CF0D9FC0020FFF724FB0120FFF701
:10B0800021FB0A204E4C04F0B7FD03A8FEF798FA06
:10B0900003A88DF81150FEF793FAA289238AA068BD
:10B0A0008DF8105013439BB203A90393FEF736FAB1
:10B0B0002279E189A068FEF797FA2279618AA0686F
:10B0C000FEF792FA05A8FFF72BF90026A36A20687D
:10B0D000059305A9ADF81C60FFF7C0F8A37D3948BA
:10B0E00039493A4A8DF80250012506808DF8015001
:10B0F0000E808DF803501680002B73D1227D002A1C
:10B100003DD10123324A206813701946FFF714F924
:10B11000304B314CD3F88020B3F88430138304F1E2
:10B120008007022609A8FEF74BFA6278A37834F864
:10B1300004EC257854F8080C8DF82A2009A98DF81C
:10B140002B308DF82960CDF824E08DF8285020347C
:10B15000FEF7E4F954F8283C34F8242C1A83A7426B
:10B16000E0D10020FFF706FB0120FFF703FB0220E0
:10B17000FFF700FBFFF748FC18B0BDE8F08118A806
:10B18000627D00F8602D1549154A0B801380FDF78C
:10B19000F7FD2A4640F225512068FFF7EDF8B0E7A9
:10B1A0000010014061000020004400400000024007
:10B1B00000040240000802404C030020C8030020A5
:10B1C000EC020020E4890020E8890020F4910020AE
:10B1D000E0890020C403002004050020F08900203D
:10B1E000EC89002009A8FDF781FF2368606A4FF40D
:10B1F000806204334FF480310A930F920D921391C1
:10B20000FDF7B0FE23684FF4807204330A93129264
:10B21000606A254DFDF78CFF03460028F8D1AE6922
:10B22000686A224A0C9309A90B920996FDF732FF2E
:10B230000121686A1E4EFDF76BFF0122402128683C
:10B24000FFF790F8686AFDF76FFF18AA95F82030AD
:10B2500002F8603DC0F58060164903B210463380A5
:10B260000B80FDF78DFDE869FDF77CFEE0690E4E71
:10B27000FDF75EFF05460028F8D14023F0690C93E6
:10B2800009A91295FDF706FF2946F069FDF74AFF67
:10B29000F06901221021FDF74FFF30680122802163
:10B2A000FFF760F82DE700BFEC020020F4890020D2
:10B2B000F0890020EC8900202DE9F04F2DED088B5E
:10B2C000B0EE409AF0EE609AADF52E5D8DB04FF481
:10B2D000A9621A9025915CA8D3495BEC12AB8DED65
:10B2E000181BFDF7A9FC4FF4A962D0490DF5D760F2
:10B2F000FDF7A2FC4FF4A962CD490DF54060FDF7C2
:10B300009BFC0DF58A504FF4A962CA490830FDF73D
:10B3100093FCB0EE490AF0EE690A1AF081FB55EC95
:10B32000104BB0EE490AF0EE690A1AF019FBB2A30D
:10B33000D3E9002351EC100B8DED000BFDF746F81F
:10B34000AFA3D3E9002306460F4620462946FDF762
:10B350003DF8DDE900238046894630463946FDF751
:10B3600035F8224606460F462B4640464946FDF72D
:10B370002DF802460B4630463946FCF775FE41EC87
:10B38000100B1AF05DFD59EC108B10EE100A5246AE
:10B390005B464946FDF71AF899A3D3E90023064610
:10B3A0000F46FCF761FE22462B46FDF70FF892A3ED
:10B3B000D3E90023CDE9020130463946FCF754FEBB
:10B3C000DDE90023FDF702F89DED021B41EC100BB7
:10B3D0001AF034FD8CA3D3E90023204629468DEDD5
:10B3E000260BFCF7F3FF22462B46FCF7EFFF024645
:10B3F0000B4687A1D1E90001FCF734FE86A3D3E90F
:10B40000002306460F4620462946FCF7DFFF22466A
:10B410002B46FCF7DBFF02460B4677A1D1E9000182
:10B42000FCF720FE02460B4630463946FDF7F8F899
:10B43000524604460D465B4650465946FCF714FEFC
:10B4400042464B46FCF7C2FF524606460F465B4655
:10B4500050465946FCF7BAFF02460B46304639467D
:10B46000FCF702FE02460B4620462946FCF7FCFD8F
:10B4700041EC100B1AF0E4FCDDE92601B0EE40AA25
:10B48000F0EE60AAFDF77AFA00EE100A08EE100A54
:10B490001AF03AFC10EE100AFCF744FFB0EE480A2E
:10B4A000CDE900011AF080FC10EE100AFCF73AFF1B
:10B4B000002204460D460023CDE90845FDF7EEF9CC
:10B4C000002801F0928556A3D3E90023204629469F
:10B4D000FCF7CAFD02460B4600205749FDF7A0F8CD
:10B4E0000DF5DE54CDE922010DF5B45018341030BD
:10B4F0000125002100220023C4E90023C0E9002324
:10B50000002901F067850129C4E90223C0E902236B
:10B5100001F060850229C4E90423C0E9042301F095
:10B5200059850329C4E90623C0E9062301F05285A1
:10B530000429C4E90823C0E9082301F04B85052943
:10B54000C4E90A23C0E90A2301F044850629C4E9B5
:10B550000C23C0E90C2301F03D850729C4E90E2323
:10B56000C0E90E2301F036850829C4E91023C0E99B
:10B57000102301F02F850929C4E91223C0E9122301
:10B5800001F028850A29C4E91423C0E914234FF0E7
:10B5900000064FF0000701F01D850C29C4E91623B1
:10B5A000C0E9162341F037850DF504530DF5DE5241
:10B5B00018331032C3E90067C2E9006702930492AE
:10B5C0009DED087B0DF5B85282ED007B9DED007B73
:10B5D0000DF5E252083282ED007B0DF5B7521832BC
:10B5E00082ED007B1449154B0DF5B452002010324A
:10B5F00026E000BFAFF300804082E2E7EE658341C2
:10B60000E811A546B044834140EC89C8D015B44246
:10B61000B8C0D8CCA0841743002CB89E509F1041CE
:10B620003A8C30E28E79453E00A6020848AB02080B
:10B6300090B00208D8B502080000F03FA819002019
:10B64000DDE90867C2E900010DF5DE520DF5E251B2
:10B650001832002400250DF5E25004311B780660F5
:10B66000C2E9004507F100420A60002B68D1CE4FC5
:10B6700002263046FCF744FE02460B46FCF7F4FC7B
:10B68000002204460D46C94BFCF7ECFC22462B4633
:10B69000FCF7C6FF41EC100B1AF0D2FB01360D2E61
:10B6A000A7EC020BE5D14FF0000ADFF80CB3D0464F
:10B6B0004FF0010908FB08F0FCF722FE06460F4692
:10B6C000B8F1000F01F0A484B9F10D0F4C462BD056
:10B6D00004EB0A050BEB0515601E00FB00F0FCF700
:10B6E0000FFE32463B46FCF7BDFC41EC100B1AF056
:10B6F000A7FB04FB04F085ED000BFCF701FE3246CE
:10B700003B46FCF7AFFC41EC100B1AF099FB002014
:10B7100053EC102BA549FCF783FF01340D2CC5E930
:10B72000020105F11005D7D108F10108B8F10D0F9C
:10B7300009F101090AF10D0ABCD19D4A01231370D8
:10B740009C4E0DF5B853D3E900AB96ED047B0DF597
:10B75000E25452465B46DDE9080108348DED067B74
:10B76000D4E90045FCF732FEDDE90623FCF72EFEA6
:10B7700022460DF5BB54804689461034C4E9008941
:10B780002B46DDE90801FCF721FE524604460D4632
:10B790005B46DDE90001FCF719FE02460B46204638
:10B7A0002946FCF761FCDDE90623FCF70FFE0DF5E9
:10B7B000E55796ED067B04460D461837C7E9004568
:10B7C00042464B46DDE908018DED067BFCF7FEFDA8
:10B7D000DDE90623FCF7FAFD224682468B460DF58D
:10B7E000BF54C4E900AB2B46DDE90801FCF7EEFDD0
:10B7F000424604460D464B46DDE90001FCF7E6FDF6
:10B8000002460B4620462946FCF72EFCDDE90623BE
:10B81000FCF7DCFD0DF5E95796ED087B04460D4677
:10B820000837C7E9004552465B46DDE908018DED62
:10B83000067BFCF7CBFDDDE90623FCF7C7FD2246BE
:10B840000DF5C254804689462B46DDE908011034C7
:10B85000C4E90089FCF7BAFD524604460D465B4632
:10B86000DDE90001FCF7B2FD02460B462046294601
:10B87000FCF7FAFBDDE90623FCF7A8FD0DF5EC5714
:10B8800096ED0A7B04460D461837C7E90045424647
:10B890004B46DDE908018DED067BFCF797FDDDE900
:10B8A0000623FCF793FD224682468B460DF5C654CF
:10B8B000C4E900AB2B46DDE90801FCF787FD4246F1
:10B8C00004460D464B46DDE90001FCF77FFD0246CC
:10B8D0000B4620462946FCF7C7FBDDE90623FCF7AB
:10B8E00075FD0DF5F05796ED0C7B04460D460837B7
:10B8F000C7E9004552465B46DDE908018DED067B50
:10B90000FCF764FDDDE90623FCF760FD22460DF53A
:10B91000C954804689461034C4E900892B46DDE9C4
:10B920000801FCF753FD524604460D465B46DDE92F
:10B930000001FCF74BFD02460B4620462946FCF76A
:10B9400093FBDDE90623FCF741FD96ED0E7B0DF53B
:10B95000F35704460D4618378DED067B42464B469D
:10B96000DDE90801C7E90045FCF730FDDDE9062304
:10B97000FCF72CFD224682468B460DF5CD542B4616
:10B98000C4E900ABDDE90801FCF720FD42460446AE
:10B990000D464B46DDE90001FCF718FD02460B465B
:10B9A000204629460AE000BF501900200000F03F61
:10B9B000A819002040190020B00E0020FCF754FB0D
:10B9C000DDE90623FCF702FD0DF5F75796ED107B38
:10B9D00004460D460837C7E9004552465B46DDE997
:10B9E00008018DED067BFCF7F1FCDDE90623FCF791
:10B9F000EDFC22460DF5D054804689461034C4E94A
:10BA000000892B46DDE90801FCF7E0FC52460446BC
:10BA10000D465B46DDE90001FCF7D8FC02460B460B
:10BA200020462946FCF720FBDDE90623FCF7CEFC87
:10BA30000DF5FA57D6E912AB04460D461837C7E99B
:10BA4000004542464B46DDE90801FCF7BFFC524683
:10BA50005B46FCF7BBFCCDE906019DED067B22466B
:10BA60000DF5D45484ED007B2B46DDE90801FCF78D
:10BA7000ADFC424604460D464B46DDE90001FCF7AD
:10BA8000A5FC02460B4620462946FCF7EDFA524635
:10BA90005B46FCF79BFC0DF5FE57D6E914AB04465C
:10BAA0000D460837DDE90623C7E90045DDE9080151
:10BAB000FCF78CFC52465B46FCF788FC89460DF58A
:10BAC000D75180461031C1E9008922462B46DDE975
:10BAD0000801FCF77BFCDDE9062304460D46DDE9A1
:10BAE0000001FCF773FC02460B4620462946FCF792
:10BAF000BBFA52465B46FCF769FC82468B464BEC30
:10BB000017ABD6E916450DF50051383181ED007BB4
:10BB100042464B46DDE90801CDE906ABFCF756FC91
:10BB200022462B46FCF752FC82468B460DF5DB5134
:10BB300042464B46C1E900ABDDE90001FCF746FC9B
:10BB4000DDE9062380468946DDE90801FCF73EFC75
:10BB500002460B4640464946FCF786FA22462B46EB
:10BB6000FCF734FCDDE90889D6E918670DF5025EBB
:10BB70000EF1280E04460D46CEE9004552465B46BE
:10BB800040464946FCF722FC32463B46FCF71EFC89
:10BB90002246049C2B46C4E9000140464946FCF776
:10BBA00015FC524604460D465B46DDE90001FCF7F4
:10BBB0000DFC02460B4620462946FCF755FA3B464B
:10BBC0003246FCF703FC029BC3E9000100230B9300
:10BBD0000D9301230C930B9BF0EE008ABFEE008ABD
:10BBE000B2EE06BA002B01F00F820C9B0D2B9A4689
:10BBF00000F095850AEB4A0B0B9E0AEB8B0BB344C6
:10BC00000DF5DE534FEACB0B183303EB0B050DF5A7
:10BC1000B4531033BAF10A0F03EB0B070AF1010416
:10BC200001F3DE8117ED1A7B8DED047B07EE90AA00
:10BC3000F8EEE77AB0EE487AA7EEA87A17EE100A87
:10BC4000FCF770FB06EB460306EB830BC24B0B962F
:10BC50000BEB0A0603EB061696ED007BDDE90423E9
:10BC6000CDE90E01DDE900018DED067BFCF7AEFBB1
:10BC7000DDE90E23FCF7AAFB57E93423CDE90201E5
:10BC8000DDE90601FCF7A2FBD6E9028915ED1A7B76
:10BC900002460B46DDE902018DED107BFCF7E2F96F
:10BCA00042464B46FCF792FB15ED347BCDE9020191
:10BCB0008DED127B9DED027BDDE9102387ED007B8E
:10BCC000DDE90001FCF782FBDDE9042306460F46AF
:10BCD000DDE90801FCF77AFB02460B46304639469F
:10BCE000FCF7C0F9DDE90E23FCF770FBDDE9122358
:10BCF00006460F46DDE90601FCF768FB02460B46E7
:10BD000030463946FCF7AEF942464B46FCF75EFB3F
:10BD100007EE904AF8EEE77AB0EE487AA7EEA87AF6
:10BD2000CDE91201C5E9000117EE100AFCF7FAFA95
:10BD3000894B0BEB040503EB051595ED007B8DEDB1
:10BD40000E7B95ED027B89468046DDE90223DDE925
:10BD500000018DED067BFCF739FB4B464246FCF7B4
:10BD600035FBDDE9042306460F46DDE90E01FCF74D
:10BD70002DFB02460B4630463946FCF773F9DDE9E8
:10BD80000623FCF723FB04EB44060B9BCDE90401DF
:10BD900004EB86069DED047B1E440DF5B454F600BD
:10BDA0001034344484ED007BDDE91223DDE9000129
:10BDB000FCF70CFBDDE9022304460D46DDE9080132
:10BDC000FCF704FB02460B4620462946FCF74AF9DD
:10BDD0004B464246FCF7FAFADDE9102304460D46CD
:10BDE000DDE90E01FCF7F2FA02460B462046294631
:10BDF000FCF738F9DDE90623FCF7E8FA0DF5DE5427
:10BE00001834A3190AF10306CDE91401C3E90001AE
:10BE10000B2E514816900AF1020900F3F88307EE41
:10BE2000909AF8EEE77AB0EE487AA7EEA87A4A4DF3
:10BE30000BEB090405EB041417EE100AFCF772FA79
:10BE400094ED007B8DED0E7B94ED027BDDE9042308
:10BE5000CDE91001DDE900018DED067BFCF7B6FAB6
:10BE6000DDE91023FCF7B2FADDE9022304460D46B2
:10BE7000DDE90E01FCF7AAFA02460B4620462946E8
:10BE8000FCF7F0F8DDE90623FCF7A0FA09EB490717
:10BE90000B9CCDE9020109EB87079DED027B27444E
:10BEA0000DF5B451FF001031CC1984ED007BDDE9B4
:10BEB0001423DDE90001FCF789FADDE904230446D7
:10BEC0000D46DDE90801FCF781FA02460B462046E3
:10BED0002946FCF7C7F8DDE91023FCF777FADDE91E
:10BEE000122304460D46DDE90E01FCF76FFA024607
:10BEF0000B4620462946FCF7B5F8DDE90623FCF79A
:10BF000065FA07EE906AF8EEE77AB0EE487AA7EEA7
:10BF1000A87A0A4601460DF5DE501830074417EEA0
:10BF2000100A42EC171BCDE9121287ED007BFCF7DB
:10BF3000F9F9CDE9100108490BEB060401EB0414F3
:10BF400094ED007B8DED0E7B94ED027BDDE9022309
:10BF5000DDE9000102E000BFB00E00208DED067BA0
:10BF6000FCF734FADDE91023FCF730FADDE90423AD
:10BF700004460D46DDE90E01FCF728FA02460B46A1
:10BF800020462946FCF76EF8DDE90623FCF71EFA89
:10BF900006EB4603CDE904010B9906EB83069DED04
:10BFA000047B0E440DF5B453F60010339C1984ED58
:10BFB000007BDDE91223DDE90001FCF707FADDE98A
:10BFC000022304460D46DDE90801FCF7FFF90246AD
:10BFD0000B4620462946FCF745F8DDE91023FCF71F
:10BFE000F5F9DDE9142304460D46DDE90E01FCF701
:10BFF000EDF902460B4620462946FCF733F8DDE909
:10C000000623FCF7E3F90DF5DE530AF105081833B2
:10C010001E44B8F10B0FCDE914010AF10409C6E979
:10C02000000100F3F48207EE909AF8EEE77AB0EEA2
:10C03000487AA7EEA87A0BEB09040AF1070717EE76
:10C04000100AFCF76FF9C64B03EB041494ED007B68
:10C050008DED0E7B94ED027B05460E46DDE9042353
:10C06000DDE900018DED067BFCF7B0F92A46334689
:10C07000CDE91056FCF7AAF9DDE9022304460D4686
:10C08000DDE90E01FCF7A2F902460B4620462946DF
:10C09000FBF7E8FFDDE90623FCF798F909EB490611
:10C0A0000B9BCDE9020109EB86069DED027B1E4448
:10C0B0000DF5B454F6001034344484ED007BDDE912
:10C0C0001423DDE90001FCF781F9DDE904230446CE
:10C0D0000D46DDE90801FCF779F902460B462046DA
:10C0E0002946FBF7BFFFDDE91023FCF76FF9DDE917
:10C0F000122304460D46DDE90E01FCF767F90246FE
:10C100000B4620462946FBF7ADFFDDE90623FCF789
:10C110005DF907EE908AF8EEE77AB0EE487AA7EE7E
:10C12000A87A04460DF5DE500D461830CDE91245CB
:10C13000064417EE100A45EC174B894D0BEB08042B
:10C1400005EB041486ED007BFCF7ECF894ED007B26
:10C150008DED0E7B94ED027BDDE90223CDE910012C
:10C16000DDE900018DED067BFCF730F9DDE91023F8
:10C17000FCF72CF9DDE9042304460D46DDE90E0148
:10C18000FCF724F902460B4620462946FBF76AFFD6
:10C19000DDE90623FCF71AF908EB48060B9CCDE90C
:10C1A000040108EB86069DED047B26440DF5B45191
:10C1B000F60010318C1984ED007BDDE91223DDE9F6
:10C1C0000001FCF703F9DDE9022304460D46DDE931
:10C1D0000801FCF7FBF802460B4620462946FBF710
:10C1E00041FFDDE91023FCF7F1F8DDE914230D46EA
:10C1F0000446DDE90E01FCF7E9F802460B4620464D
:10C200002946FBF72FFFDDE90623FCF7DFF80DF5E4
:10C21000DE5518352E440B2FCDE910010AF1060921
:10C22000C6E9000100F3F38107EE909AF8EEE77A91
:10C23000B0EE487AA7EEA87A0BEB090417EE100AC5
:10C24000FCF770F80E46464901EB041494ED007BB0
:10C250008DED067B94ED027B0546DDE90423DDE9E7
:10C2600000018DED0E7BFCF7B1F82A463346CDE98F
:10C270001456FCF7ABF8DDE9022304460D46DDE970
:10C280000601FCF7A3F802460B4620462946FBF7B9
:10C29000E9FEDDE90E23FCF799F809EB4906CDE943
:10C2A00002010B9909EB86069DED027B0E440DF50C
:10C2B000B453F60010339C1984ED007BDDE90023B4
:10C2C000DDE91001FCF782F8DDE9042304460D46A0
:10C2D000DDE90801FCF77AF802460B4620462946BC
:10C2E000FBF7C0FEDDE91423FCF770F8DDE912234B
:10C2F00004460D46DDE90601FCF768F802460B46E8
:10C3000020462946FBF7AEFEDDE90E23FCF75EF87A
:10C3100007EE907AF8EEE77AB0EE487AA7EEA87AC0
:10C3200003460C460DF5DE52183217EE100A44ECA7
:10C33000173B164486ED007BCDE91234FBF7F2FF84
:10C34000074B0BEB070403EB041494ED007B8DED1E
:10C350000E7B94ED027B05460E46DDE9022301E0EB
:10C36000B00E0020DDE900018DED067BFCF72EF814
:10C370002A463346CDE91456FCF728F8DDE90E23AA
:10C3800004460D46DDE90401FCF720F802460B46A1
:10C3900020462946FBF766FEDDE90623FCF716F882
:10C3A00007EB47060B9BCDE9040107EB86069DEDE5
:10C3B000047B1E440DF5B454F6001034344484ED6F
:10C3C000007BDDE91223DDE90001FBF7FFFFDDE97A
:10C3D000022304460D46DDE90801FBF7F7FF02469C
:10C3E0000B4620462946FBF73DFEDDE91423FBF70B
:10C3F000EDFFDDE90E2304460D46DDE91001FBF7F4
:10C40000E5FF02460B4620462946FBF72BFEDDE9F9
:10C410000623FBF7DBFF0DF5DE5418342644BAF192
:10C42000020F0AF10809CDE91001C6E9000140F048
:10C43000EE8007EE909AF8EEE77AB0EE487AA7EE33
:10C44000A87A0BEB090409EB490809EB880817EEF9
:10C45000100AFBF767FF0646C94800EB041494ED89
:10C46000007B8DED067B94ED027B0F46DDE9042316
:10C47000DDE900018DED0E7BFBF7A8FF32463B4660
:10C48000FBF7A4FFDDE9022304460D46DDE90601C2
:10C49000FBF79CFF02460B4620462946FBF7E2FDD0
:10C4A000DDE90E23FBF792FF0B9CCDE902019DED28
:10C4B000027BA0440DF5B4514FEAC808103101EBDE
:10C4C000080484ED007BDDE91023DDE90001FBF7C2
:10C4D0007DFFDDE9042304460D46DDE90801FBF795
:10C4E00075FF02460B4620462946FBF7BBFD324648
:10C4F0003B46FBF76BFFDDE9122304460D46DDE901
:10C500000601FBF763FF02460B4620462946FBF770
:10C51000A9FDDDE90E23FBF759FFF0EE487AEBEEBB
:10C52000287A0A460DF5DE550146183517EE900AB1
:10C5300042EC171BA84488ED007BCDE91212FBF7F3
:10C54000F1FE0F468E490B9C0BF10B0501EB051517
:10C550000646DDE90223DDE9000195ED027B8DED64
:10C56000067BFBF733FF32463B46D5E900ABCDE90E
:10C570000E67FBF72BFFDDE9042306460F46504606
:10C580005946FBF723FF02460B4630463946FBF778
:10C5900069FDDDE90623FBF719FF8F340DF5B45370
:10C5A000E40010331D19C5E90001DDE91223DDE9BE
:10C5B0000001FBF70BFFDDE9022306460F46DDE92C
:10C5C0000801FBF703FF02460B4630463946FBF7EE
:10C5D00049FDDDE90E23FBF7F9FEDDE910230646F0
:10C5E0000F4650465946FBF7F1FE02460B463046D1
:10C5F0003946FBF737FDDDE90623FBF7E7FE0DF5CE
:10C60000DE5318331C44C4E900014FF00C090B9AA7
:10C6100009EB490302F1005209EB8303A2F11A016D
:10C620000DF5B4500D3A1944103013440D9A00EB37
:10C63000C1080DF5DE514A44183101EBC30513461C
:10C64000169A02EB031407EE909AF8EEE77AB0EE32
:10C65000487AA7EEA87A09F10109103498ED1A6B0F
:10C6600017EE100A8DED046BFBF75CFE14ED047BF6
:10C6700006460F46DDE90423DDE900018DED027B6E
:10C68000FBF7A4FE32463B46CDE90667FBF79EFE6C
:10C69000D8E9002306460F46DDE90201FBF796FEC6
:10C6A00054E902AB02460B4630463946FBF7DAFC4A
:10C6B00052465B46FBF78AFED5E90023C8E9340100
:10C6C000DDE90001FBF782FEDDE9042306460F46A3
:10C6D000DDE90801FBF77AFE02460B463046394693
:10C6E000FBF7C0FCDDE90623FBF770FE55E91A23D2
:10C6F00006460F46DDE90201FBF768FE02460B46DF
:10C7000030463946FBF7AEFC52465B46FBF75EFE11
:10C71000B9F10D0F08F16808E5E91A0193D10C9AF7
:10C720000B9B01320C920D9A01330D320D2B0B93A2
:10C730000D927FF457AA13481A9B03441846FBF73F
:10C74000DFFD0DA3D3E90023FBF76AFF0DF58A5641
:10C750000DF5045B0DF5195A012304460D460DF540
:10C76000B8790DF540680DF5D76708360BF1200B49
:10C770000AE000BFAFF300800000000000D4764064
:10C78000B00E00206289DAFF0AF1280A0093D8E986
:10C790001A2320462946FBF719FED9E91A23FBF78D
:10C7A00063FCD6E91A23CBE91A0120462946FBF798
:10C7B0000DFED7E91A23FBF757FCD8E91C23CAE979
:10C7C0001A0120462946FBF701FED9E91C23FBF795
:10C7D0004BFCD6E91C23CBE91C0120462946FBF77C
:10C7E000F5FDD7E91C23FBF73FFCD8E91E23CAE976
:10C7F0001C0120462946FBF7E9FDD9E91E23FBF77A
:10C8000033FCD6E91E23CBE91E0120462946FBF75F
:10C81000DDFDD7E91E23FBF727FCD8E92023CAE971
:10C820001E0120462946FBF7D1FDD9E92023FBF75D
:10C830001BFCD6E92023CBE9200120462946FBF743
:10C84000C5FDD7E92023FBF70FFCCAE92001D8E991
:10C85000222320462946FBF7B9FDD9E92223FBF71D
:10C8600003FCD6E92223CBE9220120462946FBF727
:10C87000ADFDD7E92223FBF7F7FBD8E92423CAE96A
:10C88000220120462946FBF7A1FDD9E92423FBF725
:10C89000EBFBD6E92423CBE9240120462946FBF70C
:10C8A00095FDD7E92423FBF7DFFBD8E92623CAE966
:10C8B000240120462946FBF789FDD9E92623FBF709
:10C8C000D3FBD6E92623CBE9260120462946FBF7F0
:10C8D0007DFDD7E92623FBF7C7FBD8E92823CAE962
:10C8E000260120462946FBF771FDD9E92823FBF7ED
:10C8F000BBFBD6E92823CBE9280120462946FBF7D4
:10C9000065FDD7E92823FBF7AFFBCAE92801D8E981
:10C910002A2320462946FBF759FDD9E92A23FBF7AC
:10C92000A3FBD6E92A23CBE92A0120462946FBF7B7
:10C930004DFDD7E92A23FBF797FBD8E92C23CAE959
:10C940002A0120462946FBF741FDD9E92C23FBF7B4
:10C950008BFBD6E92C23CBE92C0120462946FBF79B
:10C9600035FDD7E92C23FBF77FFBD8E92E23CAE955
:10C970002C0120462946FBF729FDD9E92E23FBF798
:10C9800073FBD6E92E23CBE92E0120462946FBF77F
:10C990001DFDD7E92E23FBF767FBD8E93023CAE951
:10C9A0002E0120462946FBF711FDD9E93023FBF77C
:10C9B0005BFBD6E93023CBE9300120462946FBF763
:10C9C00005FDD7E93023FBF74FFBCAE93001D8E971
:10C9D000322320462946FBF7F9FCD9E93223FBF73D
:10C9E00043FBD6E93223CBE9320120462946FBF747
:10C9F000EDFCD7E93223FBF737FB009B01330D2B0E
:10CA0000CAE93201009308F1680809F168090BF1DD
:10CA1000680B06F1680607F168070AF1680A7FF4F7
:10CA2000B6AEDDE918560022002328463146FBF752
:10CA3000CDFC41EC100B41EC180B18F0F1FF28ABCA
:10CA40008DED280BB0EE480AF0EE680A1F9318F03F
:10CA500087FF42AB8DED420B46EC105B249318F040
:10CA6000DFFF1F9B83ED020B46EC105B18F078FF95
:10CA7000249C2A46334684ED020B28463146FBF7B8
:10CA8000F3FA41EC100B41EC180B18F0C9FF1F9B97
:10CA900083ED040BB0EE480AF0EE680A18F060FF70
:10CAA000249C9D4B002284ED040B28463146FBF765
:10CAB0008DFC41EC100B41EC180B18F0B1FF1F9BE3
:10CAC00083ED060BB0EE480AF0EE680A18F048FF56
:10CAD000249C924B002284ED060B28463146FBF73E
:10CAE00075FC41EC100B41EC180B18F099FF1F9BE3
:10CAF00083ED080BB0EE480AF0EE680A18F030FF3C
:10CB0000249C874B002284ED080B28463146FBF716
:10CB10005DFC41EC100B41EC180B18F081FF1F9BE2
:10CB200083ED0A0BB0EE480AF0EE680A18F018FF21
:10CB3000249C7C4B002284ED0A0B28463146FBF7EF
:10CB400045FC41EC100B41EC180B18F069FF1F9BE2
:10CB500083ED0C0BB0EE480AF0EE680A18F000FF07
:10CB6000249C714B002284ED0C0B28463146FBF7C8
:10CB70002DFC41EC100B41EC180B18F051FF1F9BE2
:10CB800083ED0E0BB0EE480AF0EE680A18F0E8FEEE
:10CB9000249C664B002284ED0E0B28463146FBF7A1
:10CBA00015FC41EC100B41EC180B18F039FF1F9BE2
:10CBB00083ED100BB0EE480AF0EE680A18F0D0FED4
:10CBC000249C5B4B002284ED100B28463146FBF77A
:10CBD000FDFB41EC100B41EC180B18F021FF1F9BE3
:10CBE00083ED120BB0EE480AF0EE680A18F0B8FEBA
:10CBF000249C504B002284ED120B28463146FBF753
:10CC0000E5FB41EC100B41EC180B18F009FF1F9BE2
:10CC100083ED140BB0EE480AF0EE680A18F0A0FE9F
:10CC2000249C454B002284ED140B28463146FBF72B
:10CC3000CDFB41EC100B41EC180B18F0F1FE1F9BE3
:10CC400083ED160BB0EE480AF0EE680A18F088FE85
:10CC5000249C3A4B002284ED160B28463146FBF704
:10CC6000B5FB41EC100B41EC180B18F0D9FE1F9BE3
:10CC700083ED180BB0EE480AF0EE680A18F070FE6B
:10CC80009FED217B8DED1A7B249C53EC1A2B84EDB8
:10CC9000180B1FA1D1E90001FBF7C2FC02460B46AD
:10CCA000CDE92023FBF792FB9FED177BCDE91C011B
:10CCB0008DED187B8DED167B0222002314920DF56D
:10CCC0000452683320321A440B920DF5195228325F
:10CCD0001A440D920DF5B45210329FED0B7B1A449D
:10CCE0000E920DF5DE5218321E938DED087BD3188F
:10CCF0008DED067B8DED047B1093DDF87C90249BFD
:10CD00000C934FF000081BE0000000000000000042
:10CD10003333333333E3B8400000084000001040A1
:10CD2000000014400000184000001C40000020409B
:10CD3000000022400000244000002640000028405F
:10CD40000B9B0D9CF3E802AB0B930C9BB3EC027BAB
:10CD50008DED007B0C9353EC172BB4EC027B50460B
:10CD600059468DED027B0D94FBF730FBF9E8024547
:10CD700006460F4622462B46DDE90201FBF726FB5D
:10CD800002460B4630463946FBF76EF90E9BF3E838
:10CD900002670E9332463B46CDE91201FBF716FBC4
:10CDA00002460B46DDE90401FBF75EF9CDE904011B
:10CDB0001099F1E802231091DDE91201FBF706FB5F
:10CDC00002460B46DDE90601FBF74EF92246CDE9A6
:10CDD00006012B4650465946FBF7F8FADDE90223D7
:10CDE00004460D46DDE90001FBF7F0FA02460B466A
:10CDF00020462946FBF736F9044640460D46FBF728
:10CE00007FFA02460B4620462946FBF7DFFA3246F8
:10CE10003B46FBF7DBFA0B460246DDE90801FBF770
:10CE200023F9CDE90801149B08F10108984587D141
:10CE3000DDE92023DDE91C01FBF7C8FA04460D46B5
:10CE40004046CDE91C45FBF75BFADDE90423FBF71F
:10CE5000BDFA22462B46FBF7B9FA02460B46DDE93E
:10CE60001601FBF701F92246CDE916012B46DDE953
:10CE70000601FBF7ABFA02460B46DDE91801FBF7AA
:10CE8000F1F82246CDE918012B46DDE90801FBF750
:10CE90009DFA08F10104DDE922231494FBF796FAC8
:10CEA0000B460246DDE91A01FBF7DEF80E2CCDE950
:10CEB0001A011E9B7FF403AF53EC192B5EA1D1E93D
:10CEC0000001FBF7CFF802460B46DDE92601FBF730
:10CED000C9F841EC100B41EC180B18F0A1FD57EC10
:10CEE000106BB0EE480AF0EE680A18F039FDDDE983
:10CEF00018AB59EC108B10EE102A50464B460BF134
:10CF00000041FBF763FA324604460D463B46DDE935
:10CF10001601FBF75BFA02460B4620462946FBF753
:10CF2000A1F804460D46DDE91601FBF727FD259B18
:10CF3000594618605046CDE918ABFBF71FFD259AFE
:10CF40005060DDE91A01FBF719FD259B8246294651
:10CF5000C3F808A02046FBF711FD259B3246D86098
:10CF6000C3F810A0DDE918013B46FBF72FFA424653
:10CF700006460F464B46DDE91601FBF727FA024647
:10CF80000B4630463946FBF76DF8FBF7F7FC259961
:10CF900000224861002320462946FBF77FFC30B180
:10CFA00000220023DDE91A01FBF778FC18BB45ECF1
:10CFB000114B9DED1A0B18F041FF51EC100BFBF7D4
:10CFC000DDFC00EE100A0DF52E5D0DB0BDEC088BFA
:10CFD000BDE8F08F0131683468300135FEF78CBA56
:10CFE000134B1693D146FFF712BB20462946002269
:10CFF0000023FEF76DBA9FED0F0A0DF52E5D0DB003
:10D00000BDEC088BBDE8F08F4FF0020AFEF7F2BDD1
:10D010000224FEF75DBB0D2DDCD10DF50453183352
:10D0200002930DF5DE5310330493FEF7C9BA00BF27
:10D03000B00E00200000000000000060FB21F93F5E
:10D040002DE9F0413C4D3D4995F80680B5F90420A5
:10D050003A4CA8F10E004FEAE07E81FB0031CEEBA6
:10D06000610102F5965C0CEB010340F2B55C0CFB30
:10D0700003FC84FB0030AEEB6000A8F1020800EB7B
:10D08000400702F59952E8792D4B40F26F1E08EBEC
:10D0900087070432BCF1000F0EFB07F70A44A0F526
:10D0A000FA41B8BF0CF1030C84FB070483FB0203B5
:10D0B000FF17D2174B3901EBAC01C7EB6404C2EB8D
:10D0C000631388B0661813EB4304D5E9260114A353
:10D0D000D3E9002348BF0334FBF778F912A3D3E95F
:10D0E0000023FBF773F90EA3D3E90023CDE9000178
:10D0F000D5E92401FBF76AF90BA3D3E90023FBF779
:10D1000065F9A6EBA40441EC100B9DED001B02A9F0
:10D1100020469FED072BFEF7CFF808B0BDE8F08161
:10D1200048AFBC9AF2D77A3E000000A046DF913F9C
:10D130000000000000000000C0220020ABAAAA2AC4
:10D140001F85EB514FF0FF30704700BF39493A4B14
:10D15000D1F88820394842F47002C1F888201A6852
:10D16000002142F001021A6099601A6822F084726C
:10D1700022F480321A6058601A6882B022F4802249
:10D180001A60D960009101911A6842F480321A60E5
:10D190001A4603E0009BB3F5A06F09D0136803F4AF
:10D1A00000330193009B01330093019B002BF1D0CE
:10D1B000214B1B6813F4003318BF01230193019B1B
:10D1C000012B05D01B4B4FF000629A6002B07047F4
:10D1D000194B1B491A6C1B4842F080521A640A68AA
:10D1E00042F480420A609A689A609A6842F4004267
:10D1F0009A609A6842F4A0529A6058601A6842F0A5
:10D2000080721A601A4611680B4B8901FBD50E4AD1
:10D2100040F2056111609A6822F003029A609A68F0
:10D2200042F002029A601A46936803F00C03082B3E
:10D23000FAD1C7E700ED00E00038024010300024CA
:10D240000070004008544007003C0240F8B52448F4
:10D25000244CFDF7DBF82378834212D0224B1B7855
:10D26000052B0ED00AF0E6FB4FF4967002F0C4FCDA
:10D270000AF0DAFB002002F0BFFC1948FDF7C6F8FF
:10D2800020701A4B16481B78012B25D0FDF7BEF8ED
:10D29000E0B9174B1B78BBB9B0FA80F252091549B7
:10D2A0004B79C3F3C004A2420DD062F3C303124C06
:10D2B000124F134E134D4B710022012322703A80FE
:10D2C00032802A802370F8BD0122E8E70E4B1878DF
:10D2D000003018BF0120DCE7FDF798F8D9E700BF60
:10D2E000E4030020B0190020E5930020282400204A
:10D2F0002C06002078940020E0890020EC89002092
:10D30000F0890020DC8100204A21002010B5374C34
:10D310002379DB0704D5364B93F90030002B1CDD55
:10D32000237A324A990613D49378012003405BB9DB
:10D3300063782E4A1B0607D413792E4A03F00103A3
:10D3400083F00103137010BD2A4A0123137010BD2E
:10D35000284A01231370184610BDFFF777FFF8B96C
:10D36000227A22499006F3D4CB7913F0C00F1CD156
:10D37000214B1B78112B18D00879830615D58B7893
:10D3800013F0200F06D0400604D5487900F02400A1
:10D39000242810D003F001030120002BC8D0D3E7CC
:10D3A000164B1B78002BBBD1DAE7A3780120034092
:10D3B000002BBDD0C8E708788006EBD4497AC906AF
:10D3C000E8D41007E6D413F0010306D1627822F006
:10D3D0007F0202F0FF00002AAAD0E07880F002006D
:10D3E000C0F34000002BA3D0AEE700BF789400202C
:10D3F00030810020B11900202106002029240020BE
:10D4000038B50B4B587910F0240400D038BD094DC5
:10D4100002F0ECFB2B689842F8D902F0E7FB00F52C
:10D42000FA732B602046BDE838400AF05FBB00BFAE
:10D4300078940020AC19002038B5054605EB850529
:10D440000C4605EB85050AF0F5FA04EB8404A80008
:10D4500080B204EB840402F0CFFB0AF0E5FAA000EE
:10D4600080B2BDE8384002F0C7BB00BF90B138B50C
:10D47000054600240AF0DEFA0134C82002F0BCFBA5
:10D48000E4B20AF0D1FA4FF4487002F0B5FBA542BD
:10D49000F0D138BD704700BF38B5364B1B7833B973
:10D4A000354A137813F0280F3AD0012101E0324AAF
:10D4B00001219379304861F3410393719A073BD579
:10D4C00003789B060FD42D4B2D4D1B782D4C042B30
:10D4D0004AD07D232B80238002F088FB2A4BDB6D12
:10D4E00098420CD838BD264D264C4FF416732B802D
:10D4F000238002F07BFB244BDB6D9842F2D90AF0CB
:10D500009FFA18B302F072FBB5F90020172102F060
:10D51000A7FB0AF089FA0120BDE838400AF0C4BA36
:10D52000164B1B78042BC0D0184B1978A1F10301BE
:10D53000B1FA81F14909BCE702F058FB124B5B6973
:10D540009842CFD9BDE838400AF06EBA02F04EFBDF
:10D55000B4F90020172102F083FB0AF06BFA0120D6
:10D56000BDE838400AF076BA41F28E22FA232A80CA
:10D570002380B1E7B119002078940020E5930020C2
:10D580008405002086050020E8930020682A0020FA
:10D5900008B510F0F9F80AF0E9FA4FF4FA7002F061
:10D5A0002BFB0AF019FB4FF4FA7002F025FBF2E7AF
:10D5B00010B53C4C63791A064BD53B4BD3EDB87A8A
:10D5C000F5EEC07AF1EE10FA44D49FED387AF4EE1D
:10D5D000C77AF1EE10FA0DD5D3ED117AF5EEC07AD7
:10D5E000F1EE10FA3ED49FED317AF4EEC77AF1EE07
:10D5F00010FA3ED402F0FAFA2D4BD3F88830984254
:10D6000027D92C4A2C4BD2ED007A93ED007A77EE95
:10D61000C77AF5EEC07AF1EE10FA36D4B6EE007A9B
:10D62000F4EEC77AF1EE10FA4CBF0123002383B168
:10D63000224A234B92ED007AD3ED007AB4EEE77ADA
:10D64000F1EE10FA05DDE3785B0702D41D4B0422EE
:10D650001A7010BD9FED1C7AF4EEC77AF1EE10FA45
:10D66000BADCC7E79FED187AF4EEC77AF1EE10FA4C
:10D67000C0DD02F0BBFA4FF47A72222102F0F0FA18
:10D680000D4A0C4B12681A6010BDBEEE007AF4EE23
:10D69000C77AF1EE10FACCBF01230023002BC7D1CB
:10D6A000D7E700BF78940020C4330020AA619C3FD4
:10D6B000E893002080050020A43B00202C8100205E
:10D6C000F8800020E5930020AA619CBF70B584B06B
:10D6D000032003AE02F090FA0223A022EE2100966E
:10D6E000012013F0A7F99DF80C109DF80D30174A92
:10D6F000174D43EA01231380A024224602230096FB
:10D70000EE21012013F096F902349DF80C209DF8CB
:10D710000D30E4B243EA0223B02C25F8023FECD1ED
:10D720000C4A0D4E5389908852880C4D0C4C190EA2
:10D730001B0233607160530C010CD203000485E8B6
:10D74000030084E80C0004B070BD00BFF82700207F
:10D75000362400203824002030240020902500208A
:10D7600078250020764BDFF8F0C12DE9F04FD3E9A2
:10D770000023BCF80C80BCF80840BCF806A0DFF819
:10D78000DCE1821A4FF0000565EB0303A8FB02679A
:10D7900087B008FB0377F00D40EA47200090F815AA
:10D7A000A4FB0289019004FB0399AAFB02674FEADC
:10D7B000D814DDE900BC63480AFB037744EA4964F6
:10D7C000320A4FEAE915DEE900893B1242EA0762B4
:10D7D000D0E900671BF5FA6B4CF1000C14EB080064
:10D7E0008A4645EB090112EB060843EB0709BBF536
:10D7F000FA6F7CF10003CDE90401CDE9028980F2E2
:10D800009B80DDE90067A6FB062306FB07F103EB1F
:10D8100041039C00900044EA927112184B41900819
:10D8200040EA83705D104FEA32049910B8EB0008AB
:10D8300069EB0109CDE90289DDE904894248B8EBC9
:10D84000040869EB05094FF0FF3183457CEB0101CA
:10D8500044464D463ADB02FB03F1A2FB022303EBF5
:10D860004103D00F40EA4300D917BBEB000B6CEB30
:10D87000010C61465846FBF7A1F9DDE90267AAFBF6
:10D8800006230AFB073307EE100A4FEA5258DFED72
:10D890002F7A2F4A48EAC3284FEA63592346B8EB48
:10D8A000030367EE277A69EB0504D80AC2ED007A14
:10D8B00040EA4450E112FBF781F99FED260A07EE9A
:10D8C000900A27EE800A07B0BDE8F08F40F6AC5210
:10D8D000B0184FF0000347EB030100FB01F1A0FB80
:10D8E0000023961803EB410343EB0307B9005442AE
:10D8F0004FEA860063EB430541EA9671801979414E
:10D9000080184FEAC5064FEAC407594146EA5476E3
:10D9100049104FEA3000BC1846EB0305DDE9026709
:10D92000361A67EB010718EB040849EB0509CDE946
:10D93000026744464D468EE704460D4699E700BF10
:10D94000302400207825002024FAFFFF0AD7233C4A
