:020000040800F2
:1000000000000220390703081D1502082115020807
:1000100029150208311502083915020800000000F0
:100020000000000000000000000000004115020870
:10003000451502080000000049150208FD140208D9
:100040008107030881070308810703088107030864
:100050008107030881070308810703088107030854
:100060008107030881070308810703088107030844
:1000700081070308810703088D160208810703081A
:100080008107030845160208810703088107030852
:100090008107030881070308810703088107030814
:1000A0008107030881070308810703088107030804
:1000B0004D15020895150208810703080D1702085F
:1000C000051702081D170208151702088107030803
:1000D00081070308E1160208E9160208F116020872
:1000E00081070308810703088107030881070308C4
:1000F00081070308810703088107030881070308B4
:1001000081070308810703088107030881070308A3
:100110008107030881070308810703088107030893
:100120008107030881070308AD150208810703084A
:100130008107030881070308810703088107030873
:100140008107030881070308810703088107030863
:100150008107030881070308FD15020881070308CA
:100160008107030881070308810703088107030843
:100170008107030881070308810703088107030833
:08018000810703088107030851
:1080000010B5054C237833B9044B13B10448AFF3D2
:1080100000800123237010BDE80A0020000000004A
:10802000AC860308084B10B51BB108490848AFF3EC
:1080300000800848036803B910BD074B002BFBD034
:10804000BDE81040184700BF00000000EC0A002007
:10805000AC860308E80A00200000000081F000411F
:1080600002E000BF83F0004330B54FEA41044FEA1D
:10807000430594EA050F08BF90EA020F1FBF54EAB8
:10808000000C55EA020C7FEA645C7FEA655C00F054
:10809000E2804FEA5454D4EB5555B8BF6D420CDD25
:1080A0002C4480EA020281EA030382EA000083EAA8
:1080B000010180EA020281EA0303362D88BF30BD48
:1080C00011F0004F4FEA01314FF4801C4CEA11319E
:1080D00002D0404261EB410113F0004F4FEA0333FD
:1080E0004CEA133302D0524263EB430394EA050F88
:1080F00000F0A780A4F10104D5F1200E0DDB02FAF7
:108100000EFC22FA05F2801841F1000103FA0EF28A
:10811000801843FA05F359410EE0A5F120050EF150
:10812000200E012A03FA0EFC28BF4CF0020C43FA81
:1081300005F3C01851EBE37101F0004507D54FF08E
:10814000000EDCF1000C7EEB00006EEB0101B1F5DE
:10815000801F1BD3B1F5001F0CD349085FEA300024
:108160004FEA3C0C04F101044FEA445212F5800F2F
:1081700080F09A80BCF1004F08BF5FEA500C50F1CC
:10818000000041EB045141EA050130BD5FEA4C0CAF
:10819000404141EB010111F4801FA4F10104E9D138
:1081A00091F0000F04BF01460020B1FA81F308BF2F
:1081B0002033A3F10B03B3F120020CDA0C3208DDFB
:1081C00002F1140CC2F10C0201FA0CF021FA02F1D6
:1081D0000CE002F11402D8BFC2F1200C01FA02F146
:1081E00020FA0CFCDCBF41EA0C019040E41AA2BF6B
:1081F00001EB0451294330BD6FEA04041F3C1CDA33
:108200000C340EDC04F11404C4F1200220FA04F052
:1082100001FA02F340EA030021FA04F345EA0301FC
:1082200030BDC4F10C04C4F1200220FA02F001FABE
:1082300004F340EA0300294630BD21FA04F0294640
:1082400030BD94F0000F83F4801306BF81F48011D9
:108250000134013D4EE77FEA645C18BF7FEA655C4C
:1082600029D094EA050F08BF90EA020F05D054EA1E
:10827000000C04BF1946104630BD91EA030F1EBF23
:108280000021002030BD5FEA545C05D14000494127
:1082900028BF41F0004130BD14F580043CBF01F51A
:1082A000801130BD01F0004545F0FE4141F4700100
:1082B0004FF0000030BD7FEA645C1ABF19461046DB
:1082C0007FEA655C1CBF0B46024650EA013406BFDC
:1082D00052EA033591EA030F41F4002130BD00BF9B
:1082E00090F0000F04BF0021704730B54FF4806458
:1082F00004F132044FF000054FF0000150E700BFD9
:1083000090F0000F04BF0021704730B54FF4806437
:1083100004F1320410F0004548BF40424FF0000124
:108320003EE700BF42004FEAE2014FEA31014FEA67
:1083300002701FBF12F07F4393F07F4F81F06051B6
:10834000704792F0000F14BF93F07F4F704730B525
:108350004FF4607401F0004521F0004120E700BFB8
:1083600050EA010208BF704730B54FF000050AE03F
:1083700050EA010208BF704730B511F0004502D540
:10838000404261EB41014FF4806404F132045FEA42
:10839000915C3FF4DCAE4FF003025FEADC0C18BFE7
:1083A00003325FEADC0C18BF033202EBDC02C2F1DD
:1083B000200300FA03FC20FA02F001FA03FE40EA6F
:1083C0000E0021FA02F11444C1E600BF70B54FF06F
:1083D000FF0C4CF4E06C1CEA11541DBF1CEA135551
:1083E00094EA0C0F95EA0C0F00F0DEF82C4481EAB9
:1083F000030621EA4C5123EA4C5350EA013518BFD9
:1084000052EA033541F4801143F4801338D0A0FBC5
:1084100002CE4FF00005E1FB02E506F00042E0FB72
:1084200003E54FF00006E1FB03569CF0000F18BF78
:108430004EF0010EA4F1FF04B6F5007F64F5407420
:1084400004D25FEA4E0E6D4146EB060642EAC621B3
:1084500041EA55514FEAC52040EA5E504FEACE2E20
:10846000B4F1FD0C88BFBCF5E06F1ED8BEF1004F23
:1084700008BF5FEA500E50F1000041EB045170BD9F
:1084800006F0004646EA010140EA020081EA0301E3
:10849000B4EB5C04C2BFD4EB0C0541EA045170BDDF
:1084A00041F480114FF0000E013C00F3AB8014F159
:1084B000360FDEBF002001F0004170BDC4F10004A2
:1084C000203C35DA0C341BDC04F11404C4F1200523
:1084D00000FA05F320FA04F001FA05F240EA02007E
:1084E00001F0004221F0004110EBD37021FA04F6B4
:1084F00042EB06015EEA430E08BF20EAD37070BD6E
:10850000C4F10C04C4F1200500FA04F320FA05F0CC
:1085100001FA04F240EA020001F0004110EBD370CE
:1085200041F100015EEA430E08BF20EAD37070BD3E
:10853000C4F1200500FA05F24EEA020E20FA04F317
:1085400001FA05F243EA020321FA04F001F00041C6
:1085500021FA04F220EA020000EBD3705EEA430E37
:1085600008BF20EAD37070BD94F0000F0FD101F066
:108570000046400041EB010111F4801F08BF013C9F
:10858000F7D041EA060195F0000F18BF704703F0DD
:108590000046520043EB030313F4801F08BF013D64
:1085A000F7D043EA0603704794EA0C0F0CEA135520
:1085B00018BF95EA0C0F0CD050EA410618BF52EADA
:1085C0004306D1D181EA030101F000414FF00000E0
:1085D00070BD50EA410606BF1046194652EA4306EE
:1085E00019D094EA0C0F02D150EA013613D195EA62
:1085F0000C0F05D152EA03361CBF104619460AD1AA
:1086000081EA030101F0004141F0FE4141F47001B3
:108610004FF0000070BD41F0FE4141F4780170BDA3
:1086200070B54FF0FF0C4CF4E06C1CEA11541DBF08
:108630001CEA135594EA0C0F95EA0C0F00F0A7F80A
:10864000A4EB050481EA030E52EA03354FEA013137
:1086500000F088804FEA03334FF0805545EA13134A
:1086600043EA12634FEA022245EA111545EA106512
:108670004FEA00260EF000419D4208BF964244F1A9
:10868000FD0404F5407402D25B084FEA3202B61AC8
:1086900065EB03055B084FEA32024FF480104FF49C
:1086A000002CB6EB020E75EB030E22BFB61A754610
:1086B00040EA0C005B084FEA3202B6EB020E75EBA3
:1086C000030E22BFB61A754640EA5C005B084FEA0B
:1086D0003202B6EB020E75EB030E22BFB61A7546D8
:1086E00040EA9C005B084FEA3202B6EB020E75EBE3
:1086F000030E22BFB61A754640EADC0055EA060EA4
:1087000018D04FEA051545EA16754FEA06164FEAE6
:10871000C30343EA52734FEAC2025FEA1C1CC0D192
:1087200011F4801F0BD141EA00014FF000004FF01F
:10873000004CB6E711F4801F04BF01430020B4F1E0
:10874000FD0C88BFBCF5E06F3FF6AFAEB5EB030C98
:1087500004BFB6EB020C5FEA500C50F1000041EB95
:10876000045170BD0EF0004E4EEA113114EB5C0462
:10877000C2BFD4EB0C0541EA045170BD41F4801135
:108780004FF0000E013C90E645EA060E8DE60CEA3D
:10879000135594EA0C0F08BF95EA0C0F3FF43BAF5A
:1087A00094EA0C0F0AD150EA01347FF434AF95EA11
:1087B0000C0F7FF425AF104619462CE795EA0C0FF5
:1087C00006D152EA03353FF4FDAE1046194622E7C2
:1087D00050EA410618BF52EA43067FF4C5AE50EA9C
:1087E00041047FF40DAF52EA43057FF4EBAE12E78C
:1087F0004FF0FF3C06E000BF4FF0010C02E000BF6D
:108800004FF0010C4DF804CD4FEA410C7FEA6C5C4F
:108810004FEA430C18BF7FEA6C5C1BD001B050EAF2
:10882000410C0CBF52EA430C91EA030F02BF90EADD
:10883000020F0020704710F1000F91EA030F58BF9C
:10884000994208BF90422CBFD8176FEAE37040F0FE
:10885000010070474FEA410C7FEA6C5C02D150EA9C
:10886000013C07D14FEA430C7FEA6C5CD6D152EA57
:10887000033CD3D05DF8040B704700BF844610461C
:1088800062468C461946634600E000BF01B5FFF71B
:10889000B7FF002848BF10F1000F01BD4DF808EDEB
:1088A000FFF7F4FF0CBF012000205DF808FB00BFBC
:1088B0004DF808EDFFF7EAFF34BF012000205DF816
:1088C00008FB00BF4DF808EDFFF7E0FF94BF012063
:1088D00000205DF808FB00BF4DF808EDFFF7CEFF64
:1088E00094BF012000205DF808FB00BF4DF808EDA3
:1088F000FFF7C4FF34BF012000205DF808FB00BF74
:108900004FEA410C7FEA6C5C02D150EA013C0AD18B
:108910004FEA430C7FEA6C5C02D152EA033C02D17D
:108920004FF0000070474FF0010070474FEA4102DE
:1089300012F5001215D211D56FF47873B3EB6252B1
:1089400012D94FEAC12343F0004343EA505311F0D8
:10895000004F23FA02F018BF404270474FF000006A
:10896000704750EA013005D111F0004008BF6FF0A8
:10897000004070474FF00000704700BF4FEA4102CF
:10898000B2F1E04324BFB3F5001CDCF1FE5C0DD96D
:1089900001F0004C4FEAC0024CEA5070B2F1004FB7
:1089A00040EB830008BF20F00100704711F0804FBA
:1089B00021D113F13872BCBF01F00040704741F47F
:1089C00080114FEA5252C2F11802C2F1200C10FA83
:1089D0000CF320FA02F018BF40F001004FEAC12367
:1089E0004FEAD32303FA0CFC40EA0C0023FA02F30B
:1089F0004FEA4303CCE77FEA625307D150EA0133E1
:108A00001EBF4FF0FE4040F44000704701F00040B0
:108A100040F0FE4040F40000704700BF80F000408E
:108A200002E000BF81F0004142001FBF5FEA410346
:108A300092EA030F7FEA226C7FEA236C6AD04FEA46
:108A40001262D2EB1363C1BFD2184140484041408B
:108A5000B8BF5B42192B88BF704710F0004F40F43D
:108A6000000020F07F4018BF404211F0004F41F459
:108A7000000121F07F4118BF494292EA030F3FD025
:108A8000A2F1010241FA03FC10EB0C00C3F1200338
:108A900001FA03F100F0004302D5494260EB4000C7
:108AA000B0F5000F13D3B0F1807F06D340084FEA32
:108AB000310102F10102FE2A51D2B1F1004F40EB27
:108AC000C25008BF20F0010040EA0300704749008F
:108AD00040EB000010F4000FA2F10102EDD1B0FA5A
:108AE00080FCACF1080CB2EB0C0200FA0CF0AABF4F
:108AF00000EBC25052421843BCBFD04018437047ED
:108B000092F0000F81F4000106BF80F400000132F2
:108B1000013BB5E74FEA41037FEA226C18BF7FEAC9
:108B2000236C21D092EA030F04D092F0000F08BF0B
:108B30000846704790EA010F1CBF0020704712F0F2
:108B40007F4F04D1400028BF40F00040704712F131
:108B500000723CBF00F50000704700F0004343F096
:108B6000FE4040F4000070477FEA226216BF0846CC
:108B70007FEA23630146420206BF5FEA412390EA8F
:108B8000010F40F4800070474FF0000304E000BF85
:108B900010F0004348BF40425FEA000C08BF704736
:108BA00043F0964301464FF000001CE050EA0102FA
:108BB00008BF70474FF000030AE000BF50EA01020F
:108BC00008BF704711F0004302D5404261EB4101FC
:108BD0005FEA010C02BF84460146002043F0B64321
:108BE00008BFA3F18053A3F50003BCFA8CF2083A46
:108BF000A3EBC25310DB01FA02FC634400FA02FC4F
:108C0000C2F12002BCF1004F20FA02F243EB020055
:108C100008BF20F00100704702F1200201FA02FCB7
:108C2000C2F1200250EA4C0021FA02F243EB0200AA
:108C300008BF20EADC707047844641EA000313F065
:108C400003036DD1403A41D351F8043B40F8043B53
:108C500051F8043B40F8043B51F8043B40F8043B16
:108C600051F8043B40F8043B51F8043B40F8043B06
:108C700051F8043B40F8043B51F8043B40F8043BF6
:108C800051F8043B40F8043B51F8043B40F8043BE6
:108C900051F8043B40F8043B51F8043B40F8043BD6
:108CA00051F8043B40F8043B51F8043B40F8043BC6
:108CB00051F8043B40F8043B51F8043B40F8043BB6
:108CC00051F8043B40F8043B403ABDD2303211D356
:108CD00051F8043B40F8043B51F8043B40F8043B96
:108CE00051F8043B40F8043B51F8043B40F8043B86
:108CF000103AEDD20C3205D351F8043B40F8043B56
:108D0000043AF9D2043208D0D2071CBF11F8013B53
:108D100000F8013B01D30B8803806046704700BF19
:108D2000082A13D38B078DD010F003038AD0C3F128
:108D30000403D21ADB071CBF11F8013B00F8013B0A
:108D400080D331F8023B20F8023B7BE7043AD9D3C9
:108D5000013A11F8013B00F8013BF9D20B7803709E
:108D60004B7843708B7883706046704740F0BF60EB
:108D7000024B40F40030D860704700BF00ED00E0C7
:108D8000C3785BB9037818485A09203203F01F03EF
:108D9000012101FA03F340F822307047134BF0B47D
:108DA000D9684778827804780F4EC943C1F302210D
:108DB000C1F10405EDB20F2307FA05F50B41EDB241
:108DC00013402B4304F1604202F561421B01DBB208
:108DD00082F800330378012203F01F015B098A4007
:108DE00046F82320F0BC704700E100E000ED00E011
:108DF000F0B544680A680E79D1F810E0CD680F4BE1
:108E000024F0407424F48074224342EA0622426033
:108E100087688A684E794EEA050422433B40134333
:108E200043EA460383600A7DC36A013AD2B223F45F
:108E3000700343EA0253C362F0BD00BFFDF7FFC0F9
:108E40000023012202750360037143718360C360D4
:108E50000361704770B442680668064D8468C16853
:108E6000054B6868324322430A43034013436B6057
:108E700070BC704700230140E030FCFF002303601A
:108E800043608360C3607047836819B923F00103AE
:108E90008360704743F0010383607047092970B411
:108EA0001DD9A1F10A0606EB4606C5680724B440A1
:108EB000B34025EA04042343062AC3601BD90C2AC5
:108EC00027D90D3A02EB8202C36A1F24944001FAAB
:108ED00002F223EA04010A43C26270BC704701EB4C
:108EE000410605690724B440B34025EA040423433E
:108EF000062A0361E3D8013A02EB8202436B1F2486
:108F0000944001FA02F223EA04010A43426370BC6E
:108F10007047073A02EB8202036B1F24944001FA68
:108F200002F223EA04010A43026370BC704700BFE7
:108F3000836843F080438360704700BF836819B93A
:108F400023F480738360704743F4807383607047B9
:108F5000836819B923F400738360704743F4007386
:108F60008360704702683749002310B422F0010281
:108F7000212488420260036043608360C360036110
:108F800044614DD0304B984235D0304B984239D067
:108F90002F4B98423DD02F4B984247D02E4B9842B2
:108FA00048D02E4B98421DD02D4B98421ED02D4BB1
:108FB000984243D02C4B98421DD02C4B984221D044
:108FC0002B4B984225D02B4B98422FD02A4B9842BE
:108FD00030D02A4B984205D0294B984206D05DF8F4
:108FE000044B7047274A43F8942CF8E74FF03D5262
:108FF00043F8AC2CF3E74FF4746243F8202C5DF88F
:10900000044B70474FF4741243F8382C5DF8044B4E
:1090100070474FF0746243F8502C5DF8044B704772
:10902000194B5DF8044B3D229A607047174A43F88C
:10903000642CD4E7164A43F87C2CD0E73D2243F851
:10904000082CCCE7106002402860024040600240DB
:10905000586002407060024088600240A060024098
:10906000B86002401064024028640240406402403C
:10907000586402407064024088640240A064024068
:10908000B864024000003D20006002403D00002026
:10909000400F002001F11802F0B48CCACD680E68B0
:1090A0004C692E43264316431E434A6A8B6A4D6B16
:1090B0008C6B3E4316431E430B4A0368CF6A35430D
:1090C0002C431A40224302600B6B42690D694C68C5
:1090D00089683B4322F00702134343614560846083
:1090E000C160F0BC704700BF3F801CF000230360EC
:1090F00043608360C360036143618361C361036252
:1091000043628362C362036343638363704700BF48
:10911000036819B923F001030360704743F00103AA
:109120000360704741607047406880B2704700BF7D
:10913000006800F0010070470B060CD54369AAB126
:1091400043F08003802943610FD0036801F01E01C2
:10915000194301607047802907D0002AF5D10368C0
:1091600001F01E0123EA01010160704723F0800332
:1091700080294361F3D1704770B4104A104E114CEE
:1091800021F0F02323F0C315B04298BF14468DB1EF
:10919000006800F01E0000EAD12289004CBF606820
:1091A000206823F08213184002D0101C18BF012041
:1091B00070BC7047406900F08002EEE7006002403A
:1091C0000F6402400064024010B4094B094C0A4A83
:1091D000A04294BF1846104611F0005F21F0F02124
:1091E00021F0821114BFC16081605DF8044B7047AB
:1091F000006002400F64024000640240044B1A69A0
:10920000002A03DA0349044A59605A60704700BFD4
:10921000003C024023016745AB89EFCD024A136948
:1092200043F0004313617047003C024010B483B028
:1092300039B101294BD002290CBF4FF400714FF412
:10924000407108225A4B8DF80620DA68D4033CD4CA
:10925000DA68D20626D505238DF806309DF806304B
:10926000012B15D1524A09E0D368DB0620D505232E
:109270008DF806309DF80630012B09D1D368DC0348
:10928000F2D501238DF806309DF80630012BF5D07C
:109290009DF80630DBB2082B23D0184603B05DF8EA
:1092A000044B7047DA6812F0EF0F13D00623D3E7B0
:1092B000D36813F0EF0F01D00623D9E7D36813F07A
:1092C000020F14BF07230823D2E70123C4E74FF49A
:1092D0008071B6E7DB6813F0020F14BF0723082381
:1092E000BAE7334A146924F44074146114692143C1
:1092F0001161116921F0F8011161116941F0020158
:1093000008431061116941F4803111618DF8073013
:10931000D368DC033DD4D368D8063CD505238DF84B
:1093200007309DF80730012B15D1214A09E0D36899
:10933000DB0621D505238DF807309DF80730012B7A
:1093400009D1D368D903F2D501238DF807309DF8F0
:109350000730012BF5D0164A9DF80730116921F02E
:10936000020111611169DBB221F0F80118461161A7
:1093700003B05DF8044B7047D36813F0EF0F01D0D2
:109380000623D8E7D36813F0020F14BF072308237E
:10939000D1E70123C3E7D36813F0EF0F01D0062311
:1093A000BDE7D36813F0020F14BF07230823B6E705
:1093B000003C024010B483B00822544B8DF80620C4
:1093C000DA68D4033CD4DA68D20626D505238DF8B2
:1093D00006309DF80630012B15D14C4A09E0D368C0
:1093E000DB0620D505238DF806309DF80630012BCD
:1093F00009D1D368DC03F2D501238DF806309DF83E
:109400000630012BF5D09DF80630DBB2082B20D0BA
:10941000184603B05DF8044B7047DA6812F0EF0F9E
:1094200010D00623D3E7D36813F0EF0F01D0062343
:10943000D9E7D36813F0020F14BF07230823D2E73C
:109440000123C4E7DB6813F0020F14BF07230823CE
:10945000BDE72E4A146924F440741461146944F47D
:1094600000741461146944F00104146101608DF802
:109470000730D368DC0339D4D368D80638D5052340
:109480008DF807309DF80730012B15D11F4A09E0F0
:10949000D368DB061DD505238DF807309DF807300E
:1094A000012B09D1D368D903F2D501238DF80730F8
:1094B0009DF80730012BF5D014499DF807300A6953
:1094C000DBB222F0010218460A6103B05DF8044BDA
:1094D0007047D36813F0EF0F01D00623DCE7D368A1
:1094E00013F0020F14BF07230823D5E70123C7E7B2
:1094F000D36813F0EF0F01D00623C1E7D36813F050
:10950000020F14BF07230823BAE700BF003C024044
:10951000014BD860704700BF003C024000222DE99B
:10952000F0471346D1F800E001274FF0030C04E0A8
:109530000133102B02F1020229D007FA03F434EAB6
:109540000E05F5D1D0F800800E790CFA02F5ED4346
:1095500008EA0508C0F80080D0F8009006FA02FA80
:10956000013E4AEA0909012E0CFA02F8C0F80090FF
:109570000FD9C568CC7925EA0805C560C56894404F
:1095800001332C43102BC46002F10202D5D1BDE897
:10959000F087866891F805903540856086688D79FA
:1095A00009FA02F949EA06068660466826EA0404D2
:1095B0004460466805FA03F4A4B234434460D8E733
:1095C00000234FF6FF720260037143718371C37110
:1095D000704700BF0369194214BF01200020704783
:1095E0000183704741837047CB0800EB830001F093
:1095F000070110B48900046A0F238B4024EA030397
:109600000362036A5DF8044B8A4042EA0301016287
:10961000704700BF08B5174B984212D0164B9842BE
:109620001BD0164B984200D008BD01214FF400001A
:1096300000F076F900214FF40000BDE8084000F08A
:109640006FB901214FF4001000F06AF900214FF4C6
:109650000010BDE8084000F063B901214FF480001C
:1096600000F05EF900214FF48000BDE8084000F0F2
:1096700057B900BF0054004000580040005C004053
:10968000F0B5054685B068460E46AC8800F0D2F8C5
:10969000029B32483268DFF8CCE0A0FB031024F0D4
:1096A0003F042404800C240C87B23C43AC802988FE
:1096B00021F001010904090C7245298024D85200C7
:1096C000B3FBF2F39BB2032B07F1010798BF04230E
:1096D0002F84AB832888B7887289B489318980B296
:1096E00040F0010028802B8823F4816323F00203DB
:1096F0001B043A431B0C134344EA01029BB292B28F
:109700002B802A8105B0F0BDF4884BF6FF718C42A6
:109710001DD002EB820202EB8202B3FBF2F39BB29A
:1097200043F48043C3F30B020AB943F001034FF43F
:1097300096710B4C01FB00F284FB0201D217C2EBC5
:10974000A112013292B243F400432A84C1E702EB32
:109750004202B3FBF2F39BB2E4E700BF83DE1B439C
:10976000D34D6210A0860100002310B44BF6FF71A8
:1097700041F288344FF480420460C180828183804A
:10978000038143815DF8044B704700BF038829B90A
:1097900023F001031B041B0C038070479BB243F0B2
:1097A00001030380704700BF038829B923F4807345
:1097B0001B041B0C038070479BB243F4807303802F
:1097C000704700BF038829B923F400731B041B0CE6
:1097D000038070479BB243F400730380704700BF5F
:1097E00022B901F0FE0189B20182704741F0010106
:1097F00089B20182704700BF038829B923F48063CE
:109800001B041B0C038070479BB243F480630380EE
:10981000704700BF01827047008AC0B2704700BF26
:1098200083889BB21AB923EA0101818070471943EA
:109830008180704710B4214CA36803F00C03042B03
:109840001BD0082B1CD01E4B03601C4A1D4994687A
:10985000C4F303140C5DE34043609468C4F38224B2
:109860000C5D23FA04F4846092685DF8044BC2F343
:1098700042328A5CD340C3607047134B0360E4E715
:109880006368616813F4800F636818BF0E4C01F0C1
:109890003F020CBF0A49B4FBF2F1C3F3881308BFBF
:1098A000B1FBF2F101FB03F2044B5B68C3F301432C
:1098B00001335B00B2FBF3F30360C6E700380240FC
:1098C0000024F4000000002000127A0029B9054AA3
:1098D000136B23EA000010637047024B1A6B1043AE
:1098E000186370470038024029B9054A136C23EA0F
:1098F000000010647047024B1A6C104318647047E4
:109900000038024029B9054A536C23EA000050642C
:109910007047024B5A6C104358647047003802403D
:1099200029B9054A136A23EA000010627047024B06
:109930001A6A1043186270470038024029B9054A74
:10994000536A23EA000050627047024B5A6A104380
:109950005862704700380240024A536F43F08073E8
:10996000536770470038024008B5174B984212D031
:10997000164B98421BD0164B984200D008BD0121CF
:109980004FF40040FFF7CCFF00214FF40040BDE84A
:109990000840FFF7C5BF01214FF48050FFF7CEFF0D
:1099A00000214FF48050BDE80840FFF7C7BF0121F8
:1099B0004FF48040FFF7B4FF00214FF48040BDE832
:1099C0000840FFF7ADBF00BF003001400038004045
:1099D000003C0040F0B44A880F888D88CC880B8901
:1099E0004E893A432A4322438D89CC89098A1A43F6
:1099F000324303882A43224303F4415313439BB267
:109A00000380838B23F400631B041B0C8383F0BC53
:109A100001827047002307220282038043808380F3
:109A2000C380038143818381C3817047038829B93F
:109A300023F040031B041B0C038070479BB243F0D0
:109A400040030380704700BF808980B2704700BF29
:109A5000038829B923F400531B041B0C03807047AF
:109A60009BB243F400530380704700BF038919423F
:109A700014BF01200020704708B5604B984235D0D4
:109A8000B0F1804F3CD05E4B984243D05D4B984242
:109A90004AD05D4B984251D05C4B984258D05C4BB9
:109AA00098425FD05B4B984266D05B4B98426DD03A
:109AB0005A4B984276D05A4B98427FD0594B984295
:109AC00000F08880584B984200F08E80574B9842A7
:109AD00000D008BD01214FF48070FFF721FF002165
:109AE0004FF48070BDE80840FFF71ABF0121084617
:109AF000FFF724FF00210120BDE80840FFF71EBF4B
:109B000001210846FFF70CFF00210120BDE80840B5
:109B1000FFF706BF01210220FFF702FF002102200C
:109B2000BDE80840FFF7FCBE01210420FFF7F8FE66
:109B300000210420BDE80840FFF7F2BE0121082003
:109B4000FFF7EEFE00210820BDE80840FFF7E8BE61
:109B500001211020FFF7E4FE00211020BDE808409D
:109B6000FFF7DEBE01212020FFF7DAFE00212020D2
:109B7000BDE80840FFF7D4BE01210220FFF7DEFE5A
:109B800000210220BDE80840FFF7D8BE01214FF4B4
:109B90008030FFF7D3FE00214FF48030BDE808404D
:109BA000FFF7CCBE01214FF40030FFF7C7FE0021C4
:109BB0004FF40030BDE80840FFF7C0BE01214FF46C
:109BC0008020FFF7BBFE00214FF48020BDE8084055
:109BD000FFF7B4BE01214020FFF7A2FE0021402084
:109BE000BDE80840FFF79CBE01218020FFF798FEEA
:109BF00000218020BDE80840FFF792BE0000014030
:109C00000004004000080040000C0040001000402C
:109C100000140040000401400040014000440140A5
:109C20000048014000180040001C00400020004097
:109C3000224A038890429BB212D002F58062904281
:109C40000ED0B0F1804F0BD0A2F58032904207D0F9
:109C500002F58062904203D002F58062904203D107
:109C60004A8823F070031343154A90421ED002F530
:109C7000806290421AD00A8970B423F440730F4C6A
:109C80004E680D889BB21343A0420380C6620585CF
:109C900006D00C4B984203D00123838270BC7047DE
:109CA0008B7A03860123838270BC704703800B8804
:109CB0004A68C26203850123838270470000014025
:109CC000001000400004014000234FF0FF324260CA
:109CD0000380038143808372704700BF41627047F5
:109CE000038829B923F080031B041B0C03807047F1
:109CF0009BB243F080030380704700BF038829B9FB
:109D000023F001031B041B0C038070479BB243F03C
:109D100001030380704700BFF0B5048CB1F80CC09C
:109D20004B880F881A4E24F001042404240C048468
:109D3000058CB0F804E0048B25F0020524F07302D2
:109D40002D042D0C4CEA030312042B43120CB042D9
:109D50009BB21FFA8EF442EA070208D00D4DA842CA
:109D600005D089688480028341630384F0BDCE8975
:109D70000F8A4D8A23F00803334324F440748E88FD
:109D80003D4323F004032C433343A4B2E9E700BF6F
:109D90000000014000040140F0B5058C0C88B1F8CA
:109DA0000CC0B1F802E01E4E25F010052D042D0C5C
:109DB0000584028C8788058B22F020031B0425F480
:109DC000E6421B0C120443EA0C13120C43EA0E1376
:109DD00042EA0422B0429BB2BDB294B208D0114A0A
:109DE000904205D08A688580048382630384F0BD35
:109DF00023F08002CB890F8A8E8892B242EA031246
:109E00004FF6BF73134025F440654A8A45EA87053B
:109E100043EA061345EA82059BB2ADB2E2E700BF12
:109E20000000014000040140F0B5058CB1F80CC001
:109E3000B1F802E00C881D4F25F480752D042D0C1F
:109E40000584028C8688858B22F400731B0425F020
:109E500073021B0C43EA0C23120443EA0E23120C78
:109E6000B8429BB2B5B244EA020408D0104A90420C
:109E700005D08A6885808483C2630384F0BD23F49F
:109E80000062CB890F8A8E8892B242EA03224FF693
:109E9000FF33134025F440554A8A45EA071543EA43
:109EA000062345EA02159BB2ADB2E2E7000001408D
:109EB00000040140028CB1F802C022F48052120466
:109EC000120C2DE9F041B1F80C80B1F800E00284E9
:109ED000058C8788828B124E25F4005422F4E643C9
:109EE0002404240C1B0444EA08341B0C44EA0C34FC
:109EF00043EA0E23B042A4B2BAB29BB209D0094DD4
:109F0000A84206D089688280838301640484BDE806
:109F1000F0810D8A22F4804242EA851292B2F1E782
:109F2000000001400004014000230380438083803F
:109F300083608381C381038243827047038B23F054
:109F400008031B041B0C194301837047038B23F484
:109F500000631B041B0C43EA012189B20183704793
:109F6000838B23F008031B041B0C19438183704768
:109F7000838B23F400631B041B0C43EA012189B289
:109F80008183704710B4048C01238B40A4B224EA6F
:109F900003040484038C5DF8044B8A4013439BB292
:109FA000038470470B88F0B5002B32D0042B57D0B8
:109FB000082B00F08380028C4F88B1F804E00E89F2
:109FC000CD8822F480521204120C0284848B028CFD
:109FD00024F4407122F4005309055B04090D5B0C65
:109FE00041EA0E2143EA073341EA06319BB243F4CA
:109FF000805389B281830384828B22F440621204ED
:10A00000120C8283838B9BB243EA05239BB283832A
:10A01000F0BD028C4E888D880B89CC8822F001021D
:10A020001204120C0284028B018C92B222F0F30211
:10A0300021F00A0142EA0313090446F001029BB22F
:10A04000090C2B43114303830184038B23F00C037E
:10A050001B041B0C0383038B9BB223430383F0BDC0
:10A06000058C4F888E88B1F808E0CC8825F0100167
:10A070000904090C0184028B018C22F440731B0536
:10A080001B0D8AB243EA0E3322F0A0029BB242EAD1
:10A09000071243EA062392B29BB242F010020383F6
:10A0A0000284038B23F440631B041B0C0383038B88
:10A0B0009BB243EA04239BB20383F0BD068C4F8816
:10A0C0008D880A89CC8826F480710904090C0184E2
:10A0D000818B038C89B29BB221F0F30123F42063BE
:10A0E00041EA021243EA072392B29BB243F480731F
:10A0F0002A4382830384838B23F00C031B041B0CF1
:10A100008383838B9BB21C438483F0BD0023012295
:10A11000828003804380C38003817047406B704717
:10A12000806B7047C06B7047006C7047B0F844306C
:10A1300021B9C3F30E03A0F8443070476FEA4343DC
:10A140006FEA53439BB2A0F84430704783899BB2B7
:10A150001AB923EA0101818170471943818170474F
:10A16000038A828911EA030092B203D0114214BF1C
:10A1700001200020704700BFC94389B201827047A7
:10A1800083899BB21AB923EA01018181704719437F
:10A190008181704708B52B4B984219D02A4B9842C1
:10A1A00020D02A4B984229D0294B984232D0294BB3
:10A1B00098423BD0284B984200D008BD0121202076
:10A1C000FFF7BCFB00212020BDE80840FFF7B6BB2D
:10A1D00001211020FFF7B2FB00211020BDE808404C
:10A1E000FFF7ACBB01214FF40030FFF799FB0021D2
:10A1F0004FF40030BDE80840FFF792BB01214FF457
:10A200008020FFF78DFB00214FF48020BDE808403F
:10A21000FFF786BB01214FF40020FFF781FB0021EF
:10A220004FF40020BDE80840FFF77ABB01214FF44E
:10A230008010FFF775FB00214FF48010BDE8084047
:10A24000FFF76EBB00100140004400400048004092
:10A25000004C00400050004000140140028A0B896D
:10A26000F0B592B2CF888E88044622F440523A4329
:10A2700048890D4689892282A289334392B20343D9
:10A2800022F4B05222F00C029BB21343A381A38AA2
:10A290009BB223F440730B4385B0A3826846FFF75B
:10A2A000C9FA1D4B9C4228D003F580639C4224D000
:10A2B000029AA389A18913F4004F2B6802EB820252
:10A2C00014BF5B009B0002EB8202B2FBF3F0134A67
:10A2D000A2FB00356D096423090405FB13034FEA53
:10A2E00005150CD41B013233A2FB0323C3F3431324
:10A2F0002B439BB2238105B0F0BD039AD9E7D90067
:10A300003231A2FB0131C1F3421242EA05039BB292
:10A31000238105B0F0BD00BF001001401F85EB5147
:10A3200000234FF416510C22016042818380C380C8
:10A3300003818381704700BF838929B923F40053C7
:10A340001B041B0C838170479BB243F40053838131
:10A35000704700BFC1F30801818070478088C0F357
:10A3600008007047838A9BB21AB923EA01018182EF
:10A37000704719438182704710B401F01F04C1F384
:10A3800042110123012903FA04F311D002290CBF61
:10A390001030143032B902685DF8044B22EA03032E
:10A3A0000360704702685DF8044B13430360704715
:10A3B0000C30EFE70388194214BF012000207047DA
:10A3C000C1F3421210B4012301F01F04012A03FA61
:10A3D00004F317D0022A0CBF028A828A92B2134079
:10A3E000028892B253B10123090A03FA01F10A4229
:10A3F00014BF184600205DF8044B704718465DF8FE
:10A40000044B7047828992B21340E9E78188006863
:10A41000FFF7E0B80368828809B95A8370471A8346
:10A42000704700BF0268818853694B405361704791
:10A4300030B583B005460C466846FFF7C1F8B4FA5C
:10A4400084F35B09AC888DF804300122002369464F
:10A45000286800948DF806308DF805308DF80720B7
:10A46000FFF75CF803B030BD2DE9F0478CB0002356
:10A4700005930493069300287DD0451E5FFA85FA64
:10A48000464D0AF10107064605EB47172C46E068E2
:10A490000021FFF74BFE203454F8140CFFF7ECFAC0
:10A4A000BC42F4D104A8FFF70FFC07A8FFF73CFD5E
:10A4B0003B483C4C81464FF00208FFF727FE01273E
:10A4C00004A88DF805808DF8067005EB4A15FFF796
:10A4D000FBFB4FF6FF72532324350592ADF8103085
:10A4E00002A8FFF76DF8218894F804E0A379627957
:10A4F00054F8040C029102A98DF80CE08DF80F308D
:10A500008DF80E208DF80D80FFF708F8227D618808
:10A5100054F8040CFFF768F8237E8DF8043001A886
:10A520008DF80770FEF72CFCA06804A9FFF780FBEC
:10A530001B48FFF7EBFDA389A0681949A9F8003073
:10A540002034FFF72FFD34F8121C54F8180C0122A8
:10A55000FFF7FCFDAC42C3D1104D0024E868013484
:10A560000121FFF7CBFBE3B2B34205F12005F5D3A0
:10A570000CB0BDE8F08704A8FFF7A6FB07A8FFF71B
:10A58000D3FC0748FFF7C2FD0222012304A88DF87F
:10A5900005208DF80630FFF797FBE9E7EC01002076
:10A5A000040B0020F00100202DE9F0478046444CC8
:10A5B000C8EBC80882B004EB88046846FFF700F8CF
:10A5C000238AE06800930122022369468DF8062061
:10A5D0008DF805308DF80430FEF7A0FF238B6069FD
:10A5E00000936946FEF79AFF218AE068FEF7F8FFBC
:10A5F000218B6069FEF7F4FF0DF062FF643085B2D5
:10A600004FF0080A06E00A200DF02EFF0DF058FF6B
:10A61000A8424CD8218AE068DFF8A490FEF7DAFF60
:10A620000028F0D0218AE068FEF7DCFF0A200DF058
:10A630001BFF218AE068FEF7D3FF0AF1FF3A0A20E8
:10A640000DF012FF1AF0FF0AE4D1218B6069FEF7CA
:10A65000C9FF0A200DF008FF218AE068FEF7C2FF5B
:10A660000A200DF001FF218AE068FEF7B9FF0A20F9
:10A670000DF0FAFE218B6069FEF7B2FF238AE068D5
:10A6800000930122022369468DF805308DF80430CD
:10A690008DF80620FEF742FF09EB8800238B406906
:10A6A00000936946FEF73AFF02B0BDE8F087054A1D
:10A6B000137A43F00803137202B0BDE8F08700BFBD
:10A6C000F00400203C97002030B5C0EBC004A3008C
:10A6D000264CE25C87B01C440AB907B030BD054681
:10A6E000E27EA17CE068FEF77FFFE27EA17E6069EA
:10A6F000FEF77AFF2846FFF757FF1D4B1B7A03F042
:10A70000080303F0FF05002BE7D16068FEF782FF26
:10A7100002A8FFF729F82A4660684FF44071FFF756
:10A720007FF8144B606802930121FFF72FF802A90C
:10A730006068FEF7A5FF4FF4A060FEF717FB22222A
:10A7400001A801238DF804208DF807308DF80550FD
:10A750008DF80650FEF714FB212301A88DF8055053
:10A760008DF80430FEF70CFB07B030BDF00400207C
:10A770003C970020801A06002DE9F04100EB4007CD
:10A78000FC003A4D3A4B2A599A4286B005EB040632
:10A7900002D006B0BDE8F081337D002BF9D0012155
:10A7A0004FF48040FFF7A0F801A8FEF709FF3189B8
:10A7B000338AB28970680B4313431BB24FF0000811
:10A7C000022201A901938DF808208DF809208DF847
:10A7D0000B208DF80A80FEF7A1FE052271897068B2
:10A7E000FEF702FF0522F1897068FEF7FDFE0522E3
:10A7F000718A7068FEF7F8FE2859FFF7B5F801A8CE
:10A80000FFF708F94FF482704FF4007E30220723DF
:10A8100001A9ADF806002859ADF80EE0ADF81020FA
:10A82000ADF81430ADF80480ADF80880ADF80A80BA
:10A83000ADF80C80ADF81280FFF7CCF841462859EE
:10A84000FFF706F928590121FFF7F0F802213068D7
:10A85000064CFFF70BF90028F8D054F83700FFF743
:10A86000F3F8C0B28DF8030093E700BF100000209A
:10A87000003800402DE9F043044689B000256846C1
:10A880000E46174698460495039505950695079537
:10A890009DF84090FEF794FEA388217A627A009397
:10A8A0008DF80410A37A20688DF8073002256946D8
:10A8B0008DF806208DF80550FEF730FEE37A13B9C7
:10A8C00009B0BDE8F083227EE1882068FEF78CFEA7
:10A8D00003A8FFF729FB238AADF81850B9F1000F40
:10A8E0004FF070004FF001014FF48072CDF81480EA
:10A8F00014BF00250825ADF80C00ADF80E10ADF81A
:10A900001C200C2B10D8DFE803F04D0F0F0F440F65
:10A910000F0F3B0F0F0F070003A9E068FFF7CAFAFC
:10A920002946E068FFF724FB6846FFF7CDF9E068A9
:10A93000214B984210D003F5806398420CD003F568
:10A940007053984208D003F58063984204D003F511
:10A950008063984218BF7608013EB6B2013F0121DC
:10A960000197ADF80060FFF7C9F96946E068FFF7A5
:10A970005FF9E0680121FFF7D9FB09B0BDE8F0837A
:10A9800003A9E068FFF750FA2946E068FFF7E8FA04
:10A99000CAE703A9E068FFF7FFF92946E068FFF777
:10A9A000D5FAC1E703A9E068FFF7B6F92946E068E0
:10A9B000FFF7C4FAB8E700BF00000140032803D046
:10A9C000042802D10F4B1960704770B52C2505FB88
:10A9D00000F50D4E84B00C4670590021FFF7ACFC19
:10A9E0006846FFF79DFC002369467059ADF80830B2
:10A9F0000094FFF733FC70590121FFF79DFC04B070
:10AA000070BD00BF98060020EC020020F0B5304E6B
:10AA10009BB07069FEF7A6FA70692D4CFEF788FBB3
:10AA200005460028F8D10BA8FEF760FB23682269D1
:10AA3000606910954C330C934FF4806311934FF47D
:10AA4000006312934FF4005313934FF48073032564
:10AA50000BA914931F4F0B924FF4003315930F95CE
:10AA60000D97FEF717FB01216069FEF751FB01A866
:10AA7000FEF704FA01A8FEF7EDF905A8FEF7E0F9E4
:10AA8000012305A920688DF828508DF819308DF81C
:10AA90001830FEF7ADF904F15405227E217B54F8FD
:10AAA0001C0B0223FEF7FAF9AC42F6D13068012103
:10AAB000FEF74EFA30680121FEF740FA01213068B6
:10AAC000FEF7E2F93068FEF733FA1BB0F0BD00BFC5
:10AAD00098010020D42D00202DE9F04F874F3D78BC
:10AAE0009BB0002D00F0A480022D1FD1844B854E19
:10AAF0001F78854B06220025022F32701D7000F052
:10AB0000CE82824A824B157004221A700820814B33
:10AB10001B780BB1042333707F4B1B780BB10423DC
:10AB20003370FFF7A1FC1BB0BDE8F08F744B754E7E
:10AB300093F800A0744A0A210123BAF1020F317080
:10AB4000137000F037827549704A02917449704B56
:10AB5000019100211170734CDFF8D4B1DFF8D4A15A
:10AB600004221A700DF114080DF11C09012D404644
:10AB700000F0B481FEF724FD022540468DF81950FF
:10AB8000FEF71EFD228FA38F8DF8185013439BB242
:10AB90004146606B0593FEF7C1FC94F83020618F4D
:10ABA000606B604FFEF720FD94F83020E18F606B02
:10ABB000FEF71AFD4846FFF7B3FB4FF00008636D40
:10ABC000E06A07934946ADF82480FFF747FB029AF5
:10ABD00094F84230ABF80280A2F80280019A8DF816
:10ABE000125001258DF811508DF81350A2F80280F3
:10ABF000002B40F0A18097F8402082B11AA897F866
:10AC0000412000F8582D4849484A4B805380FEF7B0
:10AC1000B7F82A46F86A40F22551FFF7ADFBE06A23
:10AC2000012100248AF80140FFF786FB20466EE7E9
:10AC3000364A374B334E3B4C0A21012705A8317069
:10AC400017701F704FF00208FEF7BAFC05A88DF8C8
:10AC50001980FEF7B5FC228FA38F8DF8188013435F
:10AC60009BB2606B059305A9FEF758FC94F8302061
:10AC7000618F606BFEF7B8FC94F83020E18F606B59
:10AC8000FEF7B2FC07A8FFF74BFB636DE06A079382
:10AC900007A9ADF82450FFF7E1FA94F842302448B0
:10ACA0001E491F4A45808DF812804D808DF8117025
:10ACB0008DF813705580002B40F0A78094F8402049
:10ACC00052B91C4BE06A012100245C70FFF734FB91
:10ACD0000D4B01201C701AE71AA894F8412000F8C7
:10ACE000582D1149114A4B805380FEF749F83A46D6
:10ACF00040F22551E06AFFF73FFBE2E789060020BA
:10AD00008B060020850600205D1A00206789002040
:10AD10005B7D0020A0190020B03C0020708900203D
:10AD200088950020EC02002080890020788900208E
:10AD300068890020648900200BAD2846FEF7D6F90B
:10AD4000FB6A386D04334FF480620C934FF4803308
:10AD500011920F921593FEF705F9FB6A4FF480727A
:10AD600004330C931492206D8D4FFEF7E1F9002807
:10AD7000F9D10346386D0E937B6C8A4A0B932946B2
:10AD80000D92FEF787F90121386DFEF7C1F9012216
:10AD90004021F86AFFF7E6FA386DFEF7C5F91AAAFE
:10ADA00097F84C3002F8583DC0F58060DFF800E2BB
:10ADB0007D4903B21046AEF802304B80FDF7E0FF4C
:10ADC000B86CFEF7CFF8A06CDFF8D481FEF7B0F9CD
:10ADD0000028F8D1402307462946D8F848000E93AA
:10ADE0001497FEF757F93946D8F84800FEF79AF954
:10ADF000D8F8480001221021FEF79EF9D8F82C005F
:10AE000001228021FFF7AEFA09E70BAD2846FEF7D5
:10AE10006DF9E36A206D4FF4806204334FF48031A2
:10AE20000C9311920F921591FEF79CF8E36A4FF480
:10AE3000807204330C931492206D594FFEF778F909
:10AE40000028F9D10346386D0E937B6C554A0B935D
:10AE500029460D92FEF71EF90121386DFEF758F9CB
:10AE600001224021F86AFFF77DFA386DFEF75CF9A0
:10AE70001AAA97F84C3002F8583DC0F58060DFF808
:10AE800030E1494903B21046AEF802304B80FDF77D
:10AE900077FFB86CFEF766F8A06CDFF80481FEF768
:10AEA00047F90028F8D1402307462946D8F848003A
:10AEB0000E931497FEF7EEF83946D8F84800FEF7DF
:10AEC00031F9D8F8480001221021FEF735F9D8F8F9
:10AED0002C0001228021FFF745FAF2E6FEF770FB15
:10AEE000022740468DF81970FEF76AFB228FA38F68
:10AEF0008DF8187013439BB24146606B0593FEF7C3
:10AF00000DFB94F83020618F606BDFF89480FEF7C2
:10AF10006BFB94F83020E18F606BFEF765FB4846D1
:10AF2000FFF7FEF9214AE06A07924FF480524FF48E
:10AF300080634946ADF820204FF40052ADF822203E
:10AF4000ADF824300393FFF789F9029B94F842107F
:10AF50008DF812700022ABF802205A80019B8DF808
:10AF600011505A808DF81350039B002940F0FA804D
:10AF700098F84030002B3FF452AE1AA898F84130B0
:10AF800000F8583D0A4A084B51805980FDF7F8FEF9
:10AF90002A46D8F82C0040F22551FFF7EDF93EE69D
:10AFA000EC020020888D002078890020A086010016
:10AFB000808900209449954A954C03930DF114081B
:10AFC000404681F800A082F800A0FEF7F9FA40465A
:10AFD0008DF819A0FEF7F4FAB4F86410B4F86820FC
:10AFE000206E8DF818A00A4392B241460592FEF7F2
:10AFF00095FA94F85C20B4F86610206EDFF824B25D
:10B00000FEF7F2FA0DF11C0994F85C20B4F86A100E
:10B01000206EFEF7E9FA4846FFF782F90025D4F8DA
:10B020008020A06D07924946ADF82450FFF716F92D
:10B03000784B02931946784B01931846039B8DF881
:10B0400011308DF812A094F86E20ABF804508DF8F2
:10B0500013308D808580002A40F0538194F86C1065
:10B0600091B103931AA894F86D1000F8581D6B4D18
:10B070006B49AA808A80FDF783FE039BA06D1A4668
:10B0800040F22551FFF778F9DFF89CA1A06D00236D
:10B0900001218AF80230FFF74FF93D7866E55A4AF8
:10B0A0005A4B5B4C177005A81F70FEF789FA05A86C
:10B0B0008DF81970FEF784FAB4F86420B4F868309B
:10B0C0008DF8187013439BB2206E059305A9FEF707
:10B0D00025FA94F85C20B4F86610206EFEF784FA26
:10B0E00094F85C20B4F86A10206EFEF77DFA07A889
:10B0F000FFF716F9D4F88030A06D079307A9ADF8D3
:10B100002450FFF7ABF894F86E3046484149424A64
:10B110008DF81270012785808DF811708D808DF863
:10B1200013709580002B40F0838094F86C2082B1DE
:10B130001AA894F86D2000F8582D3849384A8B80A9
:10B140009380FDF71DFE3A4640F22551A06DFFF7B2
:10B1500013F9354BA06D002201219A70FFF7ECF82E
:10B160000820D4E40BAD28460193FDF7BFFFD8F8C3
:10B170002C20019BD8F85000119304320F934FF408
:10B1800080330C921593FDF7EDFED8F82C304FF478
:10B19000807204330C931492206D1D4FFDF7C8FF8D
:10B1A0000028F9D10346386D0E937B6C1F4A0B9330
:10B1B00029460D92FDF76EFF0121386DFDF7A8FFBE
:10B1C00001224021F86AFFF7CDF8386DFDF7ACFF9A
:10B1D0001AAA97F84C3002F8583DC0F58060DFF8A5
:10B1E0003CE00F4903B21046AEF802304B80FDF749
:10B1F000C7FDB86CFDF7B6FEA06CDFF81480FDF754
:10B2000097FF0028F8D1E5E55B7D002067890020E5
:10B21000EC020020708900208895002080890020A1
:10B22000788900206889002064890020888D0020AA
:10B230000BAD2846FDF75AFFA36DE06F4FF4806217
:10B2400004334FF480310C9311920F921591FDF756
:10B2500089FEA36D4FF4807204330C931492E06F57
:10B26000614FFDF765FF0028F9D10346F86F0E9393
:10B270003B6F5E4A0B9329460D92FDF70BFF0121B0
:10B28000F86FFDF745FF01224021B86DFFF76AF81E
:10B29000F86FFDF749FF1AAA97F8783002F8583D81
:10B2A000C0F58060DFF84CE1514903B21046AEF8BA
:10B2B00004308B80FDF764FD786FFDF753FE606FFF
:10B2C000DFF82481FDF734FF0028F8D1402307463A
:10B2D0002946D8F874000E931497FDF7DBFE394623
:10B2E000D8F87400FDF71EFFD8F874000122102171
:10B2F000FDF722FFD8F8580001228021FFF732F82D
:10B3000027E70BAD2846FDF7F1FEA36DE06F043390
:10B310000C934FF4806311930F934FF48033159384
:10B32000FDF720FEA36D4FF4807204330C9314924A
:10B33000E06FDFF8B4A0FDF7FBFE0028F8D102466D
:10B34000DAF87C000E92294BDAF870200B9229462D
:10B350000D93FDF79FFE0121DAF87C00FDF7D8FE82
:10B3600001224021DAF85800FEF7FCFFDAF87C00F1
:10B37000FDF7DAFE1AAA9AF8783002F8583DC0F5BF
:10B380008060DFF870E01A4903B21046AEF804306E
:10B390008B80FDF7F5FCDAF87400FDF7E3FD606FD4
:10B3A000DFF844A0FDF7C4FE0028F8D10346402290
:10B3B000DAF874000E92294614930393FDF76AFE9F
:10B3C000039BDAF874001946FDF7ACFEDAF8740056
:10B3D00001221021FDF7B0FEDAF858000122802189
:10B3E000FEF7C0FF50E600BFEC020020889100206D
:10B3F00078890020808900202DE9F041012198B052
:10B400000846FEF763FA01210220FEF75FFA0121E8
:10B410000420FEF75BFA01214FF48040FEF772FA38
:10B4200001210846FEF76EFA01210220FEF76AFAB2
:10B4300001210846FEF758FA01210220FEF754FACE
:10B4400001210420FEF750FA01214FF48070FEF72D
:10B4500059FA01214FF48000FEF746FA01214FF41A
:10B460008000FEF733FA9948994CFEF793FE99480D
:10B47000FEF790FE9848FEF78DFE01211020FEF7A2
:10B4800041FA01214FF40030FEF72EFA01214FF46A
:10B490008020FEF729FAFEF75FFA01A8FEF790F880
:10B4A0004FF6FF72032301A98C4801928DF80830F2
:10B4B000FEF734F801A98A48FEF730F801A9894857
:10B4C000FEF72CF84FF4A060FDF750FC04F5A077D0
:10B4D0000126022509A8FEF773F82278637834F86C
:10B4E00005EC54F8090C8DF82A2009A98DF82B30A9
:10B4F0008DF828608DF82950CDF824E02034FEF72F
:10B500000DF854F8293C34F8252C5A83BC42E1D17B
:10B51000754C022704F1800609A8FEF751F86278FD
:10B52000A37834F804EC257854F8080C8DF82A2018
:10B5300009A98DF82B308DF82970CDF824E08DF80D
:10B5400028502034FDF7EAFF54F8283C34F8242C26
:10B550001A83B442E0D1654C4FF0020804F58077BD
:10B5600009A8FEF72DF8203414F81C5C34F8206C80
:10B5700014F81B2C14F81A3C54F8240C8DF828509D
:10B5800009A98DF8298009968DF82A208DF82B308D
:10B59000FDF7C4FFA7424FF00205E1D116F088FA8B
:10B5A0000020FFF791F80120FFF78EF80A20504C99
:10B5B0000CF08CFF03A8FEF703F803A88DF81150D8
:10B5C000FDF7FEFFA289238AA0688DF8105013436F
:10B5D0009BB203A90393FDF7A1FF2279E189A0683B
:10B5E000FEF702F82279618AA068FDF7FDFF05A841
:10B5F000FEF796FE0026A36A2068059305A9ADF81C
:10B600001C60FEF72BFEA37D3A483B493B4A8DF870
:10B610000250012506808DF801500E808DF80350F0
:10B620001680002B76D1227D002A3DD10123344A99
:10B63000206813701946FEF77FFE324B324CD3F868
:10B640008020B3F88430138304F18007022609A810
:10B65000FDF7B6FF6278A37834F804EC257854F847
:10B66000080C8DF82A2009A98DF82B308DF8296057
:10B67000CDF824E08DF828502034FDF74FFF54F822
:10B68000283C34F8242C1A83A742E0D10020FFF78D
:10B6900073F80120FFF770F80220FFF76DF8FFF74D
:10B6A000B5F918B0BDE8F08118A8627D00F8602DEA
:10B6B0001649174A0B801380FDF762FB2A4640F2B9
:10B6C00025512068FEF758FEB0E700BF001001408A
:10B6D000610000200044004000480040000002409B
:10B6E000000402400008024078030020F403002018
:10B6F000EC020020688900207089002088950020D5
:10B7000064890020F003002030050020808900209B
:10B710007889002009A8FDF7E9FC2368606A4FF4E6
:10B72000806204334FF480310A930F920D9213918B
:10B73000FDF718FC23684FF4807204330A931292C9
:10B74000606A254DFDF7F4FC03460028F8D1AE6988
:10B75000686A224A0C9309A90B920996FDF79AFC94
:10B760000121686A1E4EFDF7D3FC012240212868A2
:10B77000FEF7F8FD686AFDF7D7FC18AA95F82030A7
:10B7800002F8603DC0F58060164903B21046338070
:10B790000B80FDF7F5FAE869FDF7E4FBE0690E4E72
:10B7A000FDF7C6FC05460028F8D14023F0690C934C
:10B7B00009A91295FDF76EFC2946F069FDF7B2FC68
:10B7C000F06901221021FDF7B7FC306801228021C9
:10B7D000FEF7C8FD2AE700BFEC02002088890020A0
:10B7E0008089002078890020024B03EB4010FEF78F
:10B7F0000DBE00BF5800002008B5044B03EB4010FD
:10B80000FEF704FEB0FA80F0400908BD58000020A1
:10B81000024B012103EB4010FEF7FCBD5800002055
:10B82000024B002103EB4010FEF7F4BD580000204E
:10B83000024B012103EB4010FEF7FABD5800002037
:10B84000024B002103EB4010FEF7F2BD5800002030
:10B850002DE9F04184B0A0F130040392ADF80A1054
:10B860000F2C00F2AC80DFE814F019002F00360036
:10B8700041004A004F00AA005900A500E900AE00AF
:10B88000CD00AA00AE00CD00100013785A1E022A87
:10B8900040F23281092004B0BDE8F081A74F3B8817
:10B8A000002B00F0D980A64B1B784BB1022B40F245
:10B8B0002781032B04D103F0FDFC002840F0CC804D
:10B8C00000233B800F20E6E76A2111700A9A0123CA
:10B8D00000201360DFE79B4B03CB1B7813720A9B9E
:10B8E00010600924516000201C60D4E790200421DE
:10B8F000107051700A9A022300201360CBE7924B1C
:10B9000001221A700020C6E7904913780A789A42FB
:10B9100000F2E580082004B0BDE8F081874F8B4934
:10B9200000233B80137809789942F3D98849894EDE
:10B93000DFF824820B7003243D468048019203F017
:10B94000DDFE019A70B1338828885BB1984200F01F
:10B95000E280804902E0984200F0DD8031F8023F49
:10B96000002BF8D17548019201F092FE019AE8B1DE
:10B97000B8F8003029885BB1994200F0D68076484B
:10B9800002E0994200F0D18030F8023F002BF8D15C
:10B9900033885BB1994200F0CC806E4802E0994256
:10B9A00000F0C78030F8023F002BF8D1013CC4D131
:10B9B0003C805BE0624B1B78032B00F0A7800220E9
:10B9C00004B0BDE8F0811378002B47D09BB25C4AED
:10B9D000ADF808303A38137818BF012040EA430028
:10B9E00002380528EBD801A353F820F0D3BA000899
:10B9F000BFB90008C7BA0008BBBA0008AFBA000850
:10BA000099BA00084E4AADF808303B38137818BF91
:10BA1000012040EA430002380528D0D801A353F89A
:10BA200020F000BF63BA0008BFB9000863BA00087D
:10BA300081BA000875BA00088DBA0008404B1B781F
:10BA4000012BBCD10A990B60137802A85B02ADF8F8
:10BA50000A3002F0C5FA48B100201CE74FF48073A9
:10BA6000B5E702A802F090FD0028F5D10F2004B040
:10BA7000BDE8F08102A806F0C5FB0028F6D0EBE790
:10BA800002A802F017FC0028F0D0E5E702A806F0B3
:10BA9000D9FE0028EAD0DFE702A805F0B5FD0028AE
:10BAA000E4D00A9ABDF8083013600020F3E602A83B
:10BAB00004F0ACFF0028D9D0F3E702A802F066F941
:10BAC0000028D3D0EDE702A801F00CFF0028CDD06C
:10BAD000E7E702A802F030F80028C7D0E1E7184AEB
:10BAE0001B4912780B70531E012B01D801F0ECFE9C
:10BAF000124B00201880CEE6114A00201370CAE6CF
:10BB000001F090FE00283FF4DBAEA5E704F004FC52
:10BB10000028ABD0A0E70A4903230B70FB703868FC
:10BB200010600A9A0423136096E7054901230B70FD
:10BB3000F4E7034902230B70F0E700BF1C0B002061
:10BB4000110B0020207903080F0B0020180B002098
:10BB500008260020B8050020A80500202DE9F04F98
:10BB6000254CDFF8A8A02070CBB0814616F078F8FD
:10BB700015F09EFF9AF8003083B1204D002628462C
:10BB80000121FEF755FC28460121FEF743FC9AF8F7
:10BB9000003001369E4205F12005F0DB184EDFF83B
:10BBA00068B00025357035B948461FF05FF978BB9D
:10BBB0003578002DF8D09AF8003083B10F4C00256D
:10BBC00020460021FEF734FC20460021FEF722FC2F
:10BBD0009AF8003001359D4204F12004F0DB41F277
:10BBE00088300CF073FC074B00221A701BF0E0FC4D
:10BBF0004BB0BDE8F08F00BF120B002058000020B2
:10BC00000F0B0020180B0020160B002086060020CA
:10BC1000C64B1D8020781FF029F90028FAD0C44BAC
:10BC200018781FF059F9C14B1A8882EA002212B223
:10BC300093B2002A4FEA4303BCBF83F4815383F0DD
:10BC400001039BB213F4004F4FEA43031CBF83F47C
:10BC5000815383F001039BB213F4004F4FEA430377
:10BC60001CBF83F4815383F001039BB213F4004F94
:10BC70004FEA43031CBF83F4815383F001039BB25B
:10BC800013F4004F4FEA43031CBF83F4815383F046
:10BC900001039BB213F4004F4FEA43031CBF83F42C
:10BCA000815383F001039BB213F4004F4FEA430327
:10BCB0001CBF83F4815383F001039BB213F4004F44
:10BCC0004FEA43031CBF83F4815383F00103974A77
:10BCD0009BB22F2813807FF46BAF002015F0FEFE7F
:10BCE00020781FF0C3F80028FAD0914B18781FF085
:10BCF000F3F8BBF80020069003021BB25A4012B2C0
:10BD0000079393B25B00002ABCBF83F4815383F096
:10BD100001039BB213F4004F4FEA43031CBF83F4AB
:10BD2000815383F001039BB213F4004F4FEA4303A6
:10BD30001CBF83F4815383F001039BB213F4004FC3
:10BD40004FEA43031CBF83F4815383F001039BB28A
:10BD500013F4004F4FEA43031CBF83F4815383F075
:10BD600001039BB213F4004F4FEA43031CBF83F45B
:10BD7000815383F001039BB213F4004F4FEA430356
:10BD80001CBF83F4815383F001039BB213F4004F73
:10BD90004FEA43031CBF83F4815383F001039BB23A
:10BDA000ABF8003020781FF061F80028FAD0604B23
:10BDB00018781FF091F8BBF80030000243401AB227
:10BDC00093B25B00002ABCBF83F4815383F001036C
:10BDD0009BB213F4004F4FEA43031CBF83F481531B
:10BDE00083F001039BB213F4004F4FEA43031CBFDF
:10BDF00083F4815383F001039BB213F4004F4FEAA5
:10BE000043031CBF83F4815383F001039BB213F4FB
:10BE1000004F4FEA43031CBF83F4815383F00103B7
:10BE20009BB213F4004F4FEA43031CBF83F48153CA
:10BE300083F001039BB213F4004F4FEA43031CBF8E
:10BE400083F4815383F001039BB213F4004F4FEA54
:10BE500043031CBF83F4815383F001039BB2ABF80F
:10BE6000003085B220781FF001F80028FAD0304B5E
:10BE700018781FF031F8BBF8002082EA002212B2D5
:10BE800093B2002A4FEA4303BCBF83F4815383F08B
:10BE900001039BB213F4004F4FEA43031CBF83F42A
:10BEA000815383F001039BB213F4004F4FEA430325
:10BEB0001CBF83F4815383F001039BB213F4004F42
:10BEC0004FEA43031CBF83F4815383F001039BB209
:10BED00013F4004F4FEA43031CBF83F4815383F0F4
:10BEE00001039BB213F4004F4FEA43031CBF83F4DA
:10BEF000815383F001039BB213F4004F4FEA4303D5
:10BF00001CBF83F4815383F001039BB213F4004FF1
:10BF10004FEA43031CBF83F4815383F0010328439A
:10BF20009BB282B20392ABF8003003E0160B002004
:10BF3000120B002020781EF099FF0028FAD0CB4B7E
:10BF400018781EF0C9FFBBF8002082EA002212B266
:10BF500093B2002A4FEA4303BCBF83F4815383F0BA
:10BF600001039BB213F4004F4FEA43031CBF83F459
:10BF7000815383F001039BB213F4004F4FEA430354
:10BF80001CBF83F4815383F001039BB213F4004F71
:10BF90004FEA43031CBF83F4815383F001039BB238
:10BFA00013F4004F4FEA43031CBF83F4815383F023
:10BFB00001039BB213F4004F4FEA43031CBF83F409
:10BFC000815383F001039BB213F4004F4FEA430304
:10BFD0001CBF83F4815383F001039BB213F4004F21
:10BFE0004FEA43031CBF83F4815383F0010300280D
:10BFF0009BB214BF02464FF4807202F1FF380DF17C
:10C000002707ABF800300AAB049298443D462078ED
:10C010001EF02CFF0028FAD0944B18781EF05CFF1D
:10C02000BBF8002005F8010F82EA002212B293B299
:10C030005B00002ABCBF83F4815383F001039BB2F1
:10C0400013F4004F4FEA43031CBF83F4815383F082
:10C0500001039BB213F4004F4FEA43031CBF83F468
:10C06000815383F001039BB213F4004F4FEA430363
:10C070001CBF83F4815383F001039BB213F4004F80
:10C080004FEA43031CBF83F4815383F001039BB247
:10C0900013F4004F4FEA43031CBF83F4815383F032
:10C0A00001039BB213F4004F4FEA43031CBF83F418
:10C0B000815383F001039BB213F4004F4FEA430313
:10C0C0001CBF83F4815383F001039BB24545ABF859
:10C0D00000309CD120781EF0C9FE0028FAD0634BB6
:10C0E00018781EF0F9FEBBF8003083EA002002B297
:10C0F00093B25B00002ABCBF83F4815383F0010339
:10C100009BB213F4004F4FEA43031CBF83F48153E7
:10C1100083F001039BB213F4004F4FEA43031CBFAB
:10C1200083F4815383F001039BB213F4004F4FEA71
:10C1300043031CBF83F4815383F001039BB213F4C8
:10C14000004F4FEA43031CBF83F4815383F0010384
:10C150009BB213F4004F4FEA43031CBF83F4815397
:10C1600083F001039BB213F4004F4FEA43031CBF5B
:10C1700083F4815383F001039BB213F4004F4FEA21
:10C1800043031CBF83F4815383F001039BB2ABF8DC
:10C19000003020781EF06AFE0028FAD0334B187861
:10C1A0001EF09AFEBBF8003083EA002002B293B280
:10C1B000002A4FEA4303BCBF83F4815383F0010399
:10C1C0009BB213F4004F4FEA43031CBF83F4815327
:10C1D00083F001039BB213F4004F4FEA43031CBFEB
:10C1E00083F4815383F001039BB213F4004F4FEAB1
:10C1F00043031CBF83F4815383F001039BB213F408
:10C20000004F4FEA43031CBF83F4815383F00103C3
:10C210009BB213F4004F4FEA43031CBF83F48153D6
:10C2200083F001039BB213F4004F4FEA43031CBF9A
:10C2300083F4815383F001039BB213F4004F4FEA60
:10C2400043031CBF83F4815383F0010309AD9BB208
:10C250000022ABF800302A60002B00F0C0824FF4BF
:10C26000407305930323049302E000BF120B0020E8
:10C27000002201238DF828202B60CC4A207800234F
:10C280002E2113801FF090FCC84B9DF91810B3F9B4
:10C290000020207882F4385293B2002A4FEA4303F8
:10C2A000BCBF83F4815383F001039BB213F4004FAE
:10C2B0004FEA43031CBF83F4815383F001039BB215
:10C2C00013F4004F4FEA43031CBF83F4815383F000
:10C2D00001039BB213F4004F4FEA43031CBF83F4E6
:10C2E000815383F001039BB213F4004F4FEA4303E1
:10C2F0001CBF83F4815383F001039BB213F4004FFE
:10C300004FEA43031CBF83F4815383F001039BB2C4
:10C3100013F4004F4FEA43031CBF83F4815383F0AF
:10C3200001039BB213F4004F4FEA43031CBF83F495
:10C33000815383F001039D4A9BB213801FF034FCAC
:10C340009A4B20781A88079B53401AB293B2002A5E
:10C350004FEA4303BCBF83F4815383F001039BB2D4
:10C3600013F4004F4FEA43031CBF83F4815383F05F
:10C3700001039BB213F4004F4FEA43031CBF83F445
:10C38000815383F001039BB213F4004F4FEA430340
:10C390001CBF83F4815383F001039BB213F4004F5D
:10C3A0004FEA43031CBF83F4815383F001039BB224
:10C3B00013F4004F4FEA43031CBF83F4815383F00F
:10C3C00001039BB213F4004F4FEA43031CBF83F4F5
:10C3D000815383F001039BB213F4004F039A4FEA99
:10C3E000430318BF83F481534FEA122818BF83F028
:10C3F00001036E4A9BB24FFA88F113801FF0D4FB01
:10C400006A4B20781B8883EA082212B293B2002A72
:10C410004FEA4303BCBF83F4815383F001039BB213
:10C4200013F4004F4FEA43031CBF83F4815383F09E
:10C4300001039BB213F4004F4FEA43031CBF83F484
:10C44000815383F001039BB213F4004F4FEA43037F
:10C450001CBF83F4815383F001039BB213F4004F9C
:10C460004FEA43031CBF83F4815383F001039BB263
:10C4700013F4004F4FEA43031CBF83F4815383F04E
:10C4800001039BB213F4004F4FEA43031CBF83F434
:10C49000815383F001039BB213F4004F4FEA43032F
:10C4A00018BF83F48153DDF80C80404A18BF83F035
:10C4B00001039BB24FFA88F113801FF075FB3B4BD1
:10C4C00020781B885FFA88F283EA022212B293B2C4
:10C4D000002A4FEA4303BCBF83F4815383F0010376
:10C4E0009BB213F4004F4FEA43031CBF83F4815304
:10C4F00083F001039BB213F4004F4FEA43031CBFC8
:10C5000083F4815383F001039BB213F4004F4FEA8D
:10C5100043031CBF83F4815383F001039BB213F4E4
:10C52000004F4FEA43031CBF83F4815383F00103A0
:10C530009BB213F4004F4FEA43031CBF83F48153B3
:10C5400083F001039BB213F4004F4FEA43031CBF77
:10C5500083F4815383F001039BB213F4004F4FEA3D
:10C56000430318BF83F48153D5F800800F4A18BFE6
:10C5700083F001039BB24FFA88F113801FF014FB84
:10C580000A4B0A491B8883EA082212B293B2002A96
:10C590004FEA4303BCBF83F4815383F001039BB292
:10C5A00013F4004F4FEA430302E000BF140B0020D6
:10C5B0001CBF83F4815383F001039BB213F4004F3B
:10C5C0004FEA43031CBF83F4815383F001039BB202
:10C5D00013F4004F4FEA43031CBF83F4815383F0ED
:10C5E00001039BB213F4004F4FEA43031CBF83F4D3
:10C5F000815383F001039BB213F4004F4FEA4303CE
:10C600001CBF83F4815383F001039BB213F4004FEA
:10C610004FEA43031CBF83F4815383F001039BB2B1
:10C6200013F4004F4FEA430318BF83F481532A6881
:10C6300018BF83F001039BB2002A0B8069DD4FF025
:10C640000008CDF80C9017F8019F20784FFA89F177
:10C650001FF0AAFA704B70491B8883EA092212B2B4
:10C6600093B2002A4FEA4303BCBF83F4815383F0A3
:10C6700001039BB213F4004F4FEA43031CBF83F442
:10C68000815383F001039BB213F4004F4FEA43033D
:10C690001CBF83F4815383F001039BB213F4004F5A
:10C6A0004FEA43031CBF83F4815383F001039BB221
:10C6B00013F4004F4FEA43031CBF83F4815383F00C
:10C6C00001039BB213F4004F4FEA43031CBF83F4F2
:10C6D000815383F001039BB213F4004F4FEA4303ED
:10C6E0001CBF83F4815383F001039BB213F4004F0A
:10C6F0004FEA430318BF83F481532A6818BF83F0BD
:10C70000010308F101089BB242450B809BDCDDF878
:10C710000C90049920781FF047FA3F4B1A88059B2C
:10C7200053401AB2002A93B268DB5B009BB213F449
:10C73000004F4FEA43031CBF83F4815383F001038E
:10C740009BB213F4004F4FEA43031CBF83F48153A1
:10C7500083F001039BB213F4004F4FEA43031CBF65
:10C7600083F4815383F001039BB213F4004F4FEA2B
:10C7700043031CBF83F4815383F001039BB213F482
:10C78000004F4FEA43031CBF83F4815383F001033E
:10C790009BB213F4004F4FEA43031CBF83F4815351
:10C7A00083F001039BB213F4004F4FEA43031CBF15
:10C7B00083F4815383F001039BB2174A20781380DE
:10C7C00043F307211FF0F0F9134B207893F9001081
:10C7D0001FF0EAF9002015F0ABF9FFF7E9B9049B67
:10C7E00000950AAA03990698FFF732F82B6863B1FF
:10C7F00003021BB2059343B204933EE55B0083F44E
:10C80000815383F001039BB291E703021BB20593AE
:10C8100043B204932CE500BF140B00202DE9F04F28
:10C82000D64EDFF87C83DFF87C93D54FDFF878A312
:10C8300083B0044620461EF019FB0028FAD020469B
:10C840001EF04AFB357898F800304540EDB235705F
:10C85000062BEFD8DFE803F0534D47423C38040085
:10C860004FF0000388F80030002DE3D1022015F0CE
:10C8700035F999F800B0BBF1240F00F0998144D844
:10C88000BBF1030F00F0FA817AD8BBF1010F00F081
:10C89000D980BBF1020F40F0A380242120461EF076
:10C8A00047FB4D2120461EF043FB3E2120461EF053
:10C8B0003FFB042120463D551FF076F9594620469E
:10C8C0001FF072F9AF4984E0062388F80030B1E721
:10C8D000062389F8000088F80030ABE704233070A5
:10C8E00088F80030A6E73C28A4D1032388F800305C
:10C8F000A0E74D289ED1022388F800309AE724282B
:10C9000098D1012388F8003094E7BBF1720F00F052
:10C910006D8169D8BBF1650F00F0D980BBF1680F5C
:10C920005ED1242120461EF003FB4D2120461EF03F
:10C93000FFFA3E2120461EF0FBFA102120463D550D
:10C940001FF032F9594620461FF02EF9DFF85CB28D
:10C9500010E0DBED007AFDEEE77ACDED017ABDF96E
:10C960000410013520461FF023F9082D0BF1040BAC
:10C9700000F0E0809AF800209542EADB0021F0E721
:10C98000BBF1040F00F08480BBF1050F28D12421F6
:10C9900020461EF0CDFA4D2120461EF0C9FA3E2158
:10C9A00020461EF0C5FA1A2120463D551FF0FCF81E
:10C9B000594620461FF0F8F8734920461FF0CCF87E
:10C9C000724920461FF0C8F8714920461FF0C4F88C
:10C9D000704920461FF0C0F8395720461FF0E4F890
:10C9E000022015F0A5F825E7BBF17C0F00F0A78029
:10C9F000BBF1F50FF4D1204624211EF099FA204610
:10CA00004D211EF095FA20463E211EF091FA204657
:10CA100001213D551FF0C8F820466FF00A011FF0B4
:10CA2000C3F85D4B204693F900101FF0BDF839574D
:10CA300020461FF0B9F8022015F07AF8284603B016
:10CA4000BDE8F08F242120461EF072FA4D212046C9
:10CA50001EF06EFA3E2120461EF06AFA032120469F
:10CA60003D551FF0A1F8594620461FF09DF8294674
:10CA700020461FF099F8594620461FF095F81921D5
:10CA800020461FF091F8395720461FF08DF8A7E790
:10CA9000242120461EF04CFA4D2120461EF048FA73
:10CAA0003E2120461EF044FA062120463D551FF047
:10CAB0007BF8594620461FF077F8384920461FF08A
:10CAC0004BF8294620461FF06FF82946D8E7242165
:10CAD00020461EF02DFA4D2120461EF029FA3E2157
:10CAE00020461EF025FA0F2120463D551FF05CF828
:10CAF000594620461FF058F84FF4FA7120461FF0AF
:10CB000057F8294620461FF053F8294620461FF0C3
:10CB10004FF8294620461FF059F8294620461FF0B5
:10CB200043F8294620461FF043F84FF4FA71204697
:10CB30001FF03EF8395720461FF036F850E7242101
:10CB400020461EF0F5F94D2120461EF0F1F93E2158
:10CB500020461EF0EDF9062120463D551FF024F831
:10CB6000594620461FF020F8294620461FF020F89D
:10CB7000294620461FF01CF82946D8E70E0B002056
:10CB8000587D00202C7903083C7903084879030874
:10CB90005479030858790308180B002034790308E6
:10CBA000100B002009260020860600203874002083
:10CBB000594620461EF0BCF920464D211EF0B8F91A
:10CBC00020463E211EF0B4F9204604213D551EF0BA
:10CBD000EBFF594620461EF0E7FF294620461EF08F
:10CBE000F5FF395720461EF0DFFFF9E624212046E5
:10CBF0001EF09EF94D2120461EF09AF93E21204656
:10CC00001EF096F9122120463D551EF0CDFF5946E3
:10CC100020461EF0C9FF40F2DC5120461EF0C8FF3E
:10CC20004FF47A7120461EF0C3FF4FF4FA6120469C
:10CC30001EF0BEFF4FF47A7120461EF0B9FF4FF48C
:10CC40007A7120461EF0B4FF294620461EF0ACFF44
:10CC5000294620461EF0A8FF294620461EF0A4FFC4
:10CC6000294620461EF0A0FF294620461EF09CFFC4
:10CC7000294620461EF098FF294658E724212046E1
:10CC80001EF056F94D2120461EF052F93E21204655
:10CC90001EF04EF9594620463D551EF085FF594677
:10CCA00020461EF081FF012120461EF07DFF0E214F
:10CCB00020461EF079FF0121E2E600BF2DE9F8438E
:10CCC00005460BF0FDFB00F59C540020083414F0E1
:10CCD00005FF02E01EF0CAF820B90BF0F1FB844218
:10CCE0002846F7D80BF0ECFB844203D8BDE8F843A4
:10CCF00014F0B6BF294E2A4F337801223A705BB147
:10CD0000591EC9B2274B013103EB411100205A696A
:10CD100020338B421060FAD132200BF0D7FB3378EE
:10CD20008BB1DFF88090002409EB441840460121C4
:10CD3000FDF77EFB40460121FDF76CFB01343378A3
:10CD4000E4B29C42F0D3DFF86080284688F80030D7
:10CD5000FFF764FD2846FEF701FF33787BB1114CE5
:10CD6000002520460021FDF763FB20460021FDF74A
:10CD700051FB337801359D4204F12004F1DB00249E
:10CD800041F288300BF0A2FB88F800401AF010FC4A
:10CD90003C70BDE8F84314F063BF00BF8606002076
:10CDA000F424002058000020180B00202DE9F8433F
:10CDB000634F81463878FEF743FD09F1FF380026BE
:10CDC00009F1010918F8015FAD000BF02FFB45F4E4
:10CDD000806545F00105EB07044638780CD5FEF771
:10CDE00017FD6D0804F134040CD00BF01FFB8442D6
:10CDF000FBD8EB073878F2D4FEF712FD6D0804F18A
:10CE00003404F2D198F8003083EA0602D4074FEADE
:10CE1000560644BF86F4204686F001065B0883EA86
:10CE20000602D0074FEA560644BF86F4204686F035
:10CE300001065B0883EA0602D1074FEA560644BFA3
:10CE400086F4204686F001065B0883EA0602D207D4
:10CE50004FEA560644BF86F4204686F001065B087A
:10CE600083EA0602D5074FEA560644BF86F42046F9
:10CE700086F001065B0883EA0602D4074FEA5606ED
:10CE800044BF86F4204686F001065B0883EA06026A
:10CE9000D0074FEA560644BF86F4204686F00106C6
:10CEA00086EA5303D9074FEA560644BF86F4204664
:10CEB00086F00106C14585D1F5B2AD000BF0B6FA9A
:10CEC00045F4806545F00105EA07044638780CD53D
:10CED000FEF79EFC6D0804F134040CD00BF0A6FAAA
:10CEE0008442FBD8EA073878F2D4FEF799FC6D0843
:10CEF00004F13404F2D1350AAD000BF097FA45F491
:10CF0000806545F00105EB07044638780CD5FEF73F
:10CF10007FFC6D0804F134040CD00BF087FA8442D6
:10CF2000FBD8EB073878F2D4FEF77AFC6D0804F1F1
:10CF30003404F2D13878BDE8F843FEF779BC00BF7D
:10CF4000082600202DE9F04F85B00C460D888DF89D
:10CF50000C0003A88DF80D50FFF728FF6368002D23
:10CF600000F06F819A46B84F2B44019300254FF093
:10CF7000010B0BF05BFA00F5FA6404E00BF056FAD3
:10CF8000844240F259813878FEF72EFC0028F5D112
:10CF900006460BF04BFAB04600F1270400F22F29A9
:10CFA0000BF044FA8442FBD83878FEF71DFC343489
:10CFB00018B10BFA08F31E43B6B24C4508F101084C
:10CFC000EED140F201233340B3F5007F40F03481CD
:10CFD000ABB2C6F3470683EA0602D4074FEA53030F
:10CFE00044BF83F4204383F00103720882EA030103
:10CFF000C8074FEA530344BF83F4204383F001037F
:10D00000520882EA0301C9074FEA530344BF83F47D
:10D01000204383F00103520882EA0301CD074FEA5F
:10D02000530344BF83F4204383F00103520882EA90
:10D030000301CC074FEA530344BF83F4204383F03A
:10D040000103520882EA0301C8074FEA530344BFB1
:10D0500083F4204383F00103520882EA0301C907E5
:10D060004FEA530344BF83F4204383F0010383EA70
:10D070005202D50746BF5B0883F420455D080AF8D5
:10D08000016B019B48BF85F0010553457FF471AFEB
:10D090004FF0020801260BF0C9F900F5FA6404E02C
:10D0A0000BF0C4F9844240F2C7803878FEF79CFB4D
:10D0B0000028F5D181460BF0B9F9CA4600F12704E2
:10D0C00000F22F2B0BF0B2F98442FBD83878FEF730
:10D0D0008BFB343428B106FA0AF040EA09001FFA43
:10D0E00080F9A3450AF1010AECD140F2012309EAD3
:10D0F0000303B3F5007F40F09F80ABB2C9F3470252
:10D1000083EA0201CC074FEA530344BF83F4204370
:10D1100083F00103520882EA0301C8074FEA530370
:10D1200044BF83F4204383F00103520882EA0301E1
:10D13000C9074FEA530344BF83F4204383F001033C
:10D14000520882EA0301CD074FEA530344BF83F438
:10D15000204383F00103520882EA0301CC074FEA1F
:10D16000530344BF83F4204383F00103520882EA4F
:10D170000301C8074FEA530344BF83F4204383F0FD
:10D180000103520882EA0301C9074FEA530344BF6F
:10D1900083F4204383F0010383EA5202D20745BFA0
:10D1A0005B0883F420445C0884F00104B8F10108B2
:10D1B00025467FF470AF0BF039F900F5FA6503E00E
:10D1C0000BF034F9854237D93878FEF70DFB064667
:10D1D0000028F5D10BF02AF9B04600F1270500F23E
:10D1E0002F2AB1464FF0010B0BF020F98542FBD8F6
:10D1F0003878FEF7F9FA343528B10BFA09F343EA27
:10D2000008081FFA88F8AA4509F10109ECD140F293
:10D21000012308EA0303B3F5007F0DD1C8F34F08DB
:10D220005CB95FFA88F6A6F13006B6FA86F676099A
:10D23000304605B0BDE8F08F0026304605B0BDE8A9
:10D24000F08F014F24E700BF082600202DE9F04FA2
:10D25000874C85B00346020A00908DF80F30207885
:10D260000191FE2300278DF80E208DF80C308DF8EB
:10D270000D70FEF7E5FA0DF10C090DF1100B19F820
:10D28000018B4FEA88060BF0D1F846F4806646F031
:10D290000106F307054620780CD5FEF7B9FA7608A3
:10D2A00005F134050CD00BF0C1F88542FBD8F3072B
:10D2B0002078F2D4FEF7B4FA760805F13405F2D1FD
:10D2C00087EA0803DE074FEA570744BF87F4204781
:10D2D00087F001074FEA580383EA0702D5074FEAB0
:10D2E000570744BF87F4204787F001075B0883EAAC
:10D2F0000702D0074FEA570744BF87F4204787F05B
:10D3000001075B0883EA0702D1074FEA570744BFCA
:10D3100087F4204787F001075B0883EA0702D207FA
:10D320004FEA570744BF87F4204787F001075B089F
:10D3300083EA0702D6074FEA570744BF87F420471E
:10D3400087F001075B0883EA0702D5074FEA570712
:10D3500044BF87F4204787F0010787EA5303D807C3
:10D360004FEA570744BF87F4204787F00107CB45B2
:10D3700085D1FEB2B6000BF059F846F4806646F04F
:10D380000106F107054620780CD5FEF741FA76082C
:10D3900005F134050CD00BF049F88542FBD8F107B4
:10D3A0002078F2D4FEF73CFA760805F13405F2D184
:10D3B0003E0AB6000BF03AF846F4806646F00106E5
:10D3C000F207054620780CD5FEF722FA760805F11B
:10D3D00034050CD00BF02AF88542FBD8F2072078F0
:10D3E000F2D4FEF71DFA760805F13405F2D1207863
:10D3F000FEF71EFA4FF0030A4FF0010B0BF016F880
:10D4000000F5FA6503E00BF011F8854232D9207877
:10D41000FEF7EAF906460028F5D10BF007F8B0460A
:10D4200000F1270500F22F2937460AF0FFFF854259
:10D43000FBD82078FEF7D8F9343528B10BFA07F37A
:10D4400043EA08081FFA88F8A94507F10107ECD15B
:10D4500040F2012308EA0303B3F5007F0AD1C8F3C1
:10D460004708B8F1FF0F08D0304605B0BDE8F08F8F
:10D4700008260020BAF1010AC0D1019B20781D685E
:10D48000FEF7DEF9009B002B00F0FD802B44A84640
:10D490009A46002698F80070BF000AF0C7FF47F4CC
:10D4A000806747F00107FB07054620780CD5FEF79B
:10D4B000AFF97F0805F134050CD00AF0B7FF8542BB
:10D4C000FBD8FB072078F2D4FEF7AAF97F0805F114
:10D4D0003405F2D118F8013B83EA0602D5074FEA7A
:10D4E000560644BF86F4204686F001065B0883EAB0
:10D4F0000602D0074FEA560644BF86F4204686F05F
:10D5000001065B0883EA0602D1074FEA560644BFCC
:10D5100086F4204686F001065B0883EA0602D207FD
:10D520004FEA560644BF86F4204686F001065B08A3
:10D5300083EA0602D7074FEA560644BF86F4204620
:10D5400086F001065B0883EA0602D5074FEA560615
:10D5500044BF86F4204686F001065B0883EA060293
:10D56000D0074FEA560644BF86F4204686F00106EF
:10D5700086EA5303D9074FEA560644BF86F420468D
:10D5800086F00106D04585D1370AF5B2BF00AD005F
:10D5900047F4806745F4806547F0010745F00105D1
:10D5A0000AF044FFEA07064620780CD5FEF730F96A
:10D5B0006D0806F134060CD00AF038FF8642FBD81D
:10D5C000EA072078F2D4FEF72BF96D0806F134064D
:10D5D000F2D10AF02BFFFB07054620780CD5FEF7A9
:10D5E00017F97F0805F134050CD00AF01FFF8542BA
:10D5F000FBD8FB072078F2D4FEF712F97F0805F17B
:10D600003405F2D12078FEF713F929264FF00109ED
:10D610000AF00CFF00F5FA6503E00AF007FF854207
:10D620002ED92078FEF7E0F80028F6D107460AF058
:10D63000FDFEB84600F1270500F22F2A0AF0F6FE9B
:10D64000A842FBD32078FEF7CFF8343518B109FA99
:10D6500008F0384387B2AA4508F10108EED140F23C
:10D6600001233B40B3F5007F0AD1C7F34700A0F187
:10D670003006B6FA86F67609304605B0BDE8F08F7A
:10D68000013EC5D1F0E640F201452F4688E700BFD4
:10D690002DE9F04F604D614EEB686968AA688BB068
:10D6A000074601900DF1100B28685C460FC400235B
:10D6B0003B60286920602B7D30782371FEF7C0F82D
:10D6C0000DF10F070DF1240817F8015FAD000AF006
:10D6D000ADFE45F4806545F00105EB070446307862
:10D6E0000CD5FEF795F86D0804F134040CD00AF05F
:10D6F0009DFE8442FBD8EB073078F2D4FEF790F819
:10D700006D0804F13404F2D14745DDD13078FEF7DD
:10D710008FF80DF108094FF0010A0AF087FE00F5B5
:10D72000FA6403E00AF082FE844270D93078FEF792
:10D730005BF80028F6D105460AF078FE2F4600F186
:10D74000270400F22F280AF071FEA042FBD33078A4
:10D75000FEF74AF8343418B10AFA07F31D43ADB2A4
:10D76000444507F10107EED140F201232B40B3F508
:10D77000007F4CD16D0809F8015BCB45CDD10AF093
:10D7800055FE00F5FA6403E00AF050FE84423ED9EB
:10D790003078FEF729F80028F6D105460AF046FE53
:10D7A0002F4600F1270400F22F284FF001090AF05C
:10D7B0003DFEA042FBD33078FEF716F8343418B1A2
:10D7C00009FA07F0284385B2444507F10107EED175
:10D7D00040F201232B40B3F5007F18D1C5F3470079
:10D7E000302814D102A803220D4928F047FB70B954
:10D7F0009DF80C209DF80D30019C9DF80B10A17038
:10D8000043EA0223012023800BB0BDE8F08F002003
:10D810000BB0BDE8F08F00BF70620308082600203F
:10D82000607903082DE9F04782B0FD22002301A8AA
:10D830008DF804208DF80530FFF7B8FA214E4FF02F
:10D8400002084FF001090AF0F1FD00F5FA6403E067
:10D850000AF0ECFD84422ED93078FDF7C5FF002890
:10D86000F6D105460AF0E2FD2F4600F1270400F24A
:10D870002F2A0AF0DBFDA042FBD33078FDF7B4FF7E
:10D88000343418B109FA07F0284385B2A24507F1EC
:10D890000107EED140F201232B40B3F5007F0AD1FE
:10D8A000C5F34700C12809D1012007F0ABFF0120D3
:10D8B00002B0BDE8F087B8F10108C4D1002002B081
:10D8C000BDE8F0870826002000B583B0002301A83A
:10D8D0008DF804308DF80530FFF768FA03B05DF875
:10D8E00004FB00BF2DE9F04F43884FF6FF729342CF
:10D8F00083B0834600F01681DFF838828DF8073058
:10D900001B0A8DF8063098F80000FF2300268DF8DA
:10D9100004308DF80560FDF793FF0DF104090DF15A
:10D92000080A19F8017BBD000AF080FD45F4806506
:10D9300045F00105EB07044698F800000DD5FDF70A
:10D9400067FF6D0804F134040DD00AF06FFD8442C6
